ARM GAS  C:\Users\DELL\AppData\Local\Temp\cczgTV24.s 			page 1


   1              		.cpu cortex-m0
   2              		.fpu softvfp
   3              		.eabi_attribute 20, 1
   4              		.eabi_attribute 21, 1
   5              		.eabi_attribute 23, 3
   6              		.eabi_attribute 24, 1
   7              		.eabi_attribute 25, 1
   8              		.eabi_attribute 26, 1
   9              		.eabi_attribute 30, 6
  10              		.eabi_attribute 34, 0
  11              		.eabi_attribute 18, 4
  12              		.code	16
  13              		.file	"EZI2C_1_SCBCLK.c"
  14              		.text
  15              	.Ltext0:
  16              		.cfi_sections	.debug_frame
  17              		.section	.text.EZI2C_1_SCBCLK_StartEx,"ax",%progbits
  18              		.align	2
  19              		.global	EZI2C_1_SCBCLK_StartEx
  20              		.code	16
  21              		.thumb_func
  22              		.type	EZI2C_1_SCBCLK_StartEx, %function
  23              	EZI2C_1_SCBCLK_StartEx:
  24              	.LFB0:
  25              		.file 1 ".\\Generated_Source\\PSoC4\\EZI2C_1_SCBCLK.c"
   1:.\Generated_Source\PSoC4/EZI2C_1_SCBCLK.c **** /*******************************************************************************
   2:.\Generated_Source\PSoC4/EZI2C_1_SCBCLK.c **** * File Name: EZI2C_1_SCBCLK.c
   3:.\Generated_Source\PSoC4/EZI2C_1_SCBCLK.c **** * Version 2.20
   4:.\Generated_Source\PSoC4/EZI2C_1_SCBCLK.c **** *
   5:.\Generated_Source\PSoC4/EZI2C_1_SCBCLK.c **** *  Description:
   6:.\Generated_Source\PSoC4/EZI2C_1_SCBCLK.c **** *   Provides system API for the clocking, interrupts and watchdog timer.
   7:.\Generated_Source\PSoC4/EZI2C_1_SCBCLK.c **** *
   8:.\Generated_Source\PSoC4/EZI2C_1_SCBCLK.c **** *  Note:
   9:.\Generated_Source\PSoC4/EZI2C_1_SCBCLK.c **** *   Documentation of the API's in this file is located in the
  10:.\Generated_Source\PSoC4/EZI2C_1_SCBCLK.c **** *   System Reference Guide provided with PSoC Creator.
  11:.\Generated_Source\PSoC4/EZI2C_1_SCBCLK.c **** *
  12:.\Generated_Source\PSoC4/EZI2C_1_SCBCLK.c **** ********************************************************************************
  13:.\Generated_Source\PSoC4/EZI2C_1_SCBCLK.c **** * Copyright 2008-2012, Cypress Semiconductor Corporation.  All rights reserved.
  14:.\Generated_Source\PSoC4/EZI2C_1_SCBCLK.c **** * You may use this file only in accordance with the license, terms, conditions,
  15:.\Generated_Source\PSoC4/EZI2C_1_SCBCLK.c **** * disclaimers, and limitations in the end user license agreement accompanying
  16:.\Generated_Source\PSoC4/EZI2C_1_SCBCLK.c **** * the software package with which this file was provided.
  17:.\Generated_Source\PSoC4/EZI2C_1_SCBCLK.c **** *******************************************************************************/
  18:.\Generated_Source\PSoC4/EZI2C_1_SCBCLK.c **** 
  19:.\Generated_Source\PSoC4/EZI2C_1_SCBCLK.c **** #include <cydevice_trm.h>
  20:.\Generated_Source\PSoC4/EZI2C_1_SCBCLK.c **** #include "EZI2C_1_SCBCLK.h"
  21:.\Generated_Source\PSoC4/EZI2C_1_SCBCLK.c **** 
  22:.\Generated_Source\PSoC4/EZI2C_1_SCBCLK.c **** #if defined CYREG_PERI_DIV_CMD
  23:.\Generated_Source\PSoC4/EZI2C_1_SCBCLK.c **** 
  24:.\Generated_Source\PSoC4/EZI2C_1_SCBCLK.c **** /*******************************************************************************
  25:.\Generated_Source\PSoC4/EZI2C_1_SCBCLK.c **** * Function Name: EZI2C_1_SCBCLK_StartEx
  26:.\Generated_Source\PSoC4/EZI2C_1_SCBCLK.c **** ********************************************************************************
  27:.\Generated_Source\PSoC4/EZI2C_1_SCBCLK.c **** *
  28:.\Generated_Source\PSoC4/EZI2C_1_SCBCLK.c **** * Summary:
  29:.\Generated_Source\PSoC4/EZI2C_1_SCBCLK.c **** *  Starts the clock, aligned to the specified running clock.
  30:.\Generated_Source\PSoC4/EZI2C_1_SCBCLK.c **** *
  31:.\Generated_Source\PSoC4/EZI2C_1_SCBCLK.c **** * Parameters:
  32:.\Generated_Source\PSoC4/EZI2C_1_SCBCLK.c **** *  alignClkDiv:  The divider to which phase alignment is performed when the
ARM GAS  C:\Users\DELL\AppData\Local\Temp\cczgTV24.s 			page 2


  33:.\Generated_Source\PSoC4/EZI2C_1_SCBCLK.c **** *    clock is started.
  34:.\Generated_Source\PSoC4/EZI2C_1_SCBCLK.c **** *
  35:.\Generated_Source\PSoC4/EZI2C_1_SCBCLK.c **** * Returns:
  36:.\Generated_Source\PSoC4/EZI2C_1_SCBCLK.c **** *  None
  37:.\Generated_Source\PSoC4/EZI2C_1_SCBCLK.c **** *
  38:.\Generated_Source\PSoC4/EZI2C_1_SCBCLK.c **** *******************************************************************************/
  39:.\Generated_Source\PSoC4/EZI2C_1_SCBCLK.c **** void EZI2C_1_SCBCLK_StartEx(uint32 alignClkDiv)
  40:.\Generated_Source\PSoC4/EZI2C_1_SCBCLK.c **** {
  26              		.loc 1 40 0
  27              		.cfi_startproc
  28 0000 80B5     		push	{r7, lr}
  29              		.cfi_def_cfa_offset 8
  30              		.cfi_offset 7, -8
  31              		.cfi_offset 14, -4
  32 0002 82B0     		sub	sp, sp, #8
  33              		.cfi_def_cfa_offset 16
  34 0004 00AF     		add	r7, sp, #0
  35              		.cfi_def_cfa_register 7
  36 0006 7860     		str	r0, [r7, #4]
  41:.\Generated_Source\PSoC4/EZI2C_1_SCBCLK.c ****     /* Make sure any previous start command has finished. */
  42:.\Generated_Source\PSoC4/EZI2C_1_SCBCLK.c ****     while((EZI2C_1_SCBCLK_CMD_REG & EZI2C_1_SCBCLK_CMD_ENABLE_MASK) != 0u)
  37              		.loc 1 42 0
  38 0008 C046     		mov	r8, r8
  39              	.L2:
  40              		.loc 1 42 0 is_stmt 0 discriminator 1
  41 000a 064B     		ldr	r3, .L3
  42 000c 1B68     		ldr	r3, [r3]
  43 000e 002B     		cmp	r3, #0
  44 0010 FBDB     		blt	.L2
  43:.\Generated_Source\PSoC4/EZI2C_1_SCBCLK.c ****     {
  44:.\Generated_Source\PSoC4/EZI2C_1_SCBCLK.c ****     }
  45:.\Generated_Source\PSoC4/EZI2C_1_SCBCLK.c ****     
  46:.\Generated_Source\PSoC4/EZI2C_1_SCBCLK.c ****     /* Specify the target divider and it's alignment divider, and enable. */
  47:.\Generated_Source\PSoC4/EZI2C_1_SCBCLK.c ****     EZI2C_1_SCBCLK_CMD_REG =
  45              		.loc 1 47 0 is_stmt 1
  46 0012 044B     		ldr	r3, .L3
  48:.\Generated_Source\PSoC4/EZI2C_1_SCBCLK.c ****         ((uint32)EZI2C_1_SCBCLK__DIV_ID << EZI2C_1_SCBCLK_CMD_DIV_SHIFT)|
  49:.\Generated_Source\PSoC4/EZI2C_1_SCBCLK.c ****         (alignClkDiv << EZI2C_1_SCBCLK_CMD_PA_DIV_SHIFT) |
  47              		.loc 1 49 0
  48 0014 7A68     		ldr	r2, [r7, #4]
  49 0016 1202     		lsl	r2, r2, #8
  50 0018 0349     		ldr	r1, .L3+4
  51 001a 0A43     		orr	r2, r1
  47:.\Generated_Source\PSoC4/EZI2C_1_SCBCLK.c ****         ((uint32)EZI2C_1_SCBCLK__DIV_ID << EZI2C_1_SCBCLK_CMD_DIV_SHIFT)|
  52              		.loc 1 47 0
  53 001c 1A60     		str	r2, [r3]
  50:.\Generated_Source\PSoC4/EZI2C_1_SCBCLK.c ****         (uint32)EZI2C_1_SCBCLK_CMD_ENABLE_MASK;
  51:.\Generated_Source\PSoC4/EZI2C_1_SCBCLK.c **** }
  54              		.loc 1 51 0
  55 001e BD46     		mov	sp, r7
  56 0020 02B0     		add	sp, sp, #8
  57              		@ sp needed
  58 0022 80BD     		pop	{r7, pc}
  59              	.L4:
  60              		.align	2
  61              	.L3:
  62 0024 00000140 		.word	1073807360
ARM GAS  C:\Users\DELL\AppData\Local\Temp\cczgTV24.s 			page 3


  63 0028 40000080 		.word	-2147483584
  64              		.cfi_endproc
  65              	.LFE0:
  66              		.size	EZI2C_1_SCBCLK_StartEx, .-EZI2C_1_SCBCLK_StartEx
  67              		.section	.text.EZI2C_1_SCBCLK_Stop,"ax",%progbits
  68              		.align	2
  69              		.global	EZI2C_1_SCBCLK_Stop
  70              		.code	16
  71              		.thumb_func
  72              		.type	EZI2C_1_SCBCLK_Stop, %function
  73              	EZI2C_1_SCBCLK_Stop:
  74              	.LFB1:
  52:.\Generated_Source\PSoC4/EZI2C_1_SCBCLK.c **** 
  53:.\Generated_Source\PSoC4/EZI2C_1_SCBCLK.c **** #else
  54:.\Generated_Source\PSoC4/EZI2C_1_SCBCLK.c **** 
  55:.\Generated_Source\PSoC4/EZI2C_1_SCBCLK.c **** /*******************************************************************************
  56:.\Generated_Source\PSoC4/EZI2C_1_SCBCLK.c **** * Function Name: EZI2C_1_SCBCLK_Start
  57:.\Generated_Source\PSoC4/EZI2C_1_SCBCLK.c **** ********************************************************************************
  58:.\Generated_Source\PSoC4/EZI2C_1_SCBCLK.c **** *
  59:.\Generated_Source\PSoC4/EZI2C_1_SCBCLK.c **** * Summary:
  60:.\Generated_Source\PSoC4/EZI2C_1_SCBCLK.c **** *  Starts the clock.
  61:.\Generated_Source\PSoC4/EZI2C_1_SCBCLK.c **** *
  62:.\Generated_Source\PSoC4/EZI2C_1_SCBCLK.c **** * Parameters:
  63:.\Generated_Source\PSoC4/EZI2C_1_SCBCLK.c **** *  None
  64:.\Generated_Source\PSoC4/EZI2C_1_SCBCLK.c **** *
  65:.\Generated_Source\PSoC4/EZI2C_1_SCBCLK.c **** * Returns:
  66:.\Generated_Source\PSoC4/EZI2C_1_SCBCLK.c **** *  None
  67:.\Generated_Source\PSoC4/EZI2C_1_SCBCLK.c **** *
  68:.\Generated_Source\PSoC4/EZI2C_1_SCBCLK.c **** *******************************************************************************/
  69:.\Generated_Source\PSoC4/EZI2C_1_SCBCLK.c **** 
  70:.\Generated_Source\PSoC4/EZI2C_1_SCBCLK.c **** void EZI2C_1_SCBCLK_Start(void)
  71:.\Generated_Source\PSoC4/EZI2C_1_SCBCLK.c **** {
  72:.\Generated_Source\PSoC4/EZI2C_1_SCBCLK.c ****     /* Set the bit to enable the clock. */
  73:.\Generated_Source\PSoC4/EZI2C_1_SCBCLK.c ****     EZI2C_1_SCBCLK_ENABLE_REG |= EZI2C_1_SCBCLK__ENABLE_MASK;
  74:.\Generated_Source\PSoC4/EZI2C_1_SCBCLK.c **** }
  75:.\Generated_Source\PSoC4/EZI2C_1_SCBCLK.c **** 
  76:.\Generated_Source\PSoC4/EZI2C_1_SCBCLK.c **** #endif /* CYREG_PERI_DIV_CMD */
  77:.\Generated_Source\PSoC4/EZI2C_1_SCBCLK.c **** 
  78:.\Generated_Source\PSoC4/EZI2C_1_SCBCLK.c **** 
  79:.\Generated_Source\PSoC4/EZI2C_1_SCBCLK.c **** /*******************************************************************************
  80:.\Generated_Source\PSoC4/EZI2C_1_SCBCLK.c **** * Function Name: EZI2C_1_SCBCLK_Stop
  81:.\Generated_Source\PSoC4/EZI2C_1_SCBCLK.c **** ********************************************************************************
  82:.\Generated_Source\PSoC4/EZI2C_1_SCBCLK.c **** *
  83:.\Generated_Source\PSoC4/EZI2C_1_SCBCLK.c **** * Summary:
  84:.\Generated_Source\PSoC4/EZI2C_1_SCBCLK.c **** *  Stops the clock and returns immediately. This API does not require the
  85:.\Generated_Source\PSoC4/EZI2C_1_SCBCLK.c **** *  source clock to be running but may return before the hardware is actually
  86:.\Generated_Source\PSoC4/EZI2C_1_SCBCLK.c **** *  disabled.
  87:.\Generated_Source\PSoC4/EZI2C_1_SCBCLK.c **** *
  88:.\Generated_Source\PSoC4/EZI2C_1_SCBCLK.c **** * Parameters:
  89:.\Generated_Source\PSoC4/EZI2C_1_SCBCLK.c **** *  None
  90:.\Generated_Source\PSoC4/EZI2C_1_SCBCLK.c **** *
  91:.\Generated_Source\PSoC4/EZI2C_1_SCBCLK.c **** * Returns:
  92:.\Generated_Source\PSoC4/EZI2C_1_SCBCLK.c **** *  None
  93:.\Generated_Source\PSoC4/EZI2C_1_SCBCLK.c **** *
  94:.\Generated_Source\PSoC4/EZI2C_1_SCBCLK.c **** *******************************************************************************/
  95:.\Generated_Source\PSoC4/EZI2C_1_SCBCLK.c **** void EZI2C_1_SCBCLK_Stop(void)
  96:.\Generated_Source\PSoC4/EZI2C_1_SCBCLK.c **** {
ARM GAS  C:\Users\DELL\AppData\Local\Temp\cczgTV24.s 			page 4


  75              		.loc 1 96 0
  76              		.cfi_startproc
  77 0000 80B5     		push	{r7, lr}
  78              		.cfi_def_cfa_offset 8
  79              		.cfi_offset 7, -8
  80              		.cfi_offset 14, -4
  81 0002 00AF     		add	r7, sp, #0
  82              		.cfi_def_cfa_register 7
  97:.\Generated_Source\PSoC4/EZI2C_1_SCBCLK.c **** #if defined CYREG_PERI_DIV_CMD
  98:.\Generated_Source\PSoC4/EZI2C_1_SCBCLK.c **** 
  99:.\Generated_Source\PSoC4/EZI2C_1_SCBCLK.c ****     /* Make sure any previous start command has finished. */
 100:.\Generated_Source\PSoC4/EZI2C_1_SCBCLK.c ****     while((EZI2C_1_SCBCLK_CMD_REG & EZI2C_1_SCBCLK_CMD_ENABLE_MASK) != 0u)
  83              		.loc 1 100 0
  84 0004 C046     		mov	r8, r8
  85              	.L6:
  86              		.loc 1 100 0 is_stmt 0 discriminator 1
  87 0006 044B     		ldr	r3, .L7
  88 0008 1B68     		ldr	r3, [r3]
  89 000a 002B     		cmp	r3, #0
  90 000c FBDB     		blt	.L6
 101:.\Generated_Source\PSoC4/EZI2C_1_SCBCLK.c ****     {
 102:.\Generated_Source\PSoC4/EZI2C_1_SCBCLK.c ****     }
 103:.\Generated_Source\PSoC4/EZI2C_1_SCBCLK.c ****     
 104:.\Generated_Source\PSoC4/EZI2C_1_SCBCLK.c ****     /* Specify the target divider and it's alignment divider, and disable. */
 105:.\Generated_Source\PSoC4/EZI2C_1_SCBCLK.c ****     EZI2C_1_SCBCLK_CMD_REG =
  91              		.loc 1 105 0 is_stmt 1
  92 000e 024B     		ldr	r3, .L7
  93 0010 024A     		ldr	r2, .L7+4
  94 0012 1A60     		str	r2, [r3]
 106:.\Generated_Source\PSoC4/EZI2C_1_SCBCLK.c ****         ((uint32)EZI2C_1_SCBCLK__DIV_ID << EZI2C_1_SCBCLK_CMD_DIV_SHIFT)|
 107:.\Generated_Source\PSoC4/EZI2C_1_SCBCLK.c ****         ((uint32)EZI2C_1_SCBCLK_CMD_DISABLE_MASK);
 108:.\Generated_Source\PSoC4/EZI2C_1_SCBCLK.c **** 
 109:.\Generated_Source\PSoC4/EZI2C_1_SCBCLK.c **** #else
 110:.\Generated_Source\PSoC4/EZI2C_1_SCBCLK.c **** 
 111:.\Generated_Source\PSoC4/EZI2C_1_SCBCLK.c ****     /* Clear the bit to disable the clock. */
 112:.\Generated_Source\PSoC4/EZI2C_1_SCBCLK.c ****     EZI2C_1_SCBCLK_ENABLE_REG &= (uint32)(~EZI2C_1_SCBCLK__ENABLE_MASK);
 113:.\Generated_Source\PSoC4/EZI2C_1_SCBCLK.c ****     
 114:.\Generated_Source\PSoC4/EZI2C_1_SCBCLK.c **** #endif /* CYREG_PERI_DIV_CMD */
 115:.\Generated_Source\PSoC4/EZI2C_1_SCBCLK.c **** }
  95              		.loc 1 115 0
  96 0014 BD46     		mov	sp, r7
  97              		@ sp needed
  98 0016 80BD     		pop	{r7, pc}
  99              	.L8:
 100              		.align	2
 101              	.L7:
 102 0018 00000140 		.word	1073807360
 103 001c 40000040 		.word	1073741888
 104              		.cfi_endproc
 105              	.LFE1:
 106              		.size	EZI2C_1_SCBCLK_Stop, .-EZI2C_1_SCBCLK_Stop
 107              		.section	.text.EZI2C_1_SCBCLK_SetFractionalDividerRegister,"ax",%progbits
 108              		.align	2
 109              		.global	EZI2C_1_SCBCLK_SetFractionalDividerRegister
 110              		.code	16
 111              		.thumb_func
 112              		.type	EZI2C_1_SCBCLK_SetFractionalDividerRegister, %function
ARM GAS  C:\Users\DELL\AppData\Local\Temp\cczgTV24.s 			page 5


 113              	EZI2C_1_SCBCLK_SetFractionalDividerRegister:
 114              	.LFB2:
 116:.\Generated_Source\PSoC4/EZI2C_1_SCBCLK.c **** 
 117:.\Generated_Source\PSoC4/EZI2C_1_SCBCLK.c **** 
 118:.\Generated_Source\PSoC4/EZI2C_1_SCBCLK.c **** /*******************************************************************************
 119:.\Generated_Source\PSoC4/EZI2C_1_SCBCLK.c **** * Function Name: EZI2C_1_SCBCLK_SetFractionalDividerRegister
 120:.\Generated_Source\PSoC4/EZI2C_1_SCBCLK.c **** ********************************************************************************
 121:.\Generated_Source\PSoC4/EZI2C_1_SCBCLK.c **** *
 122:.\Generated_Source\PSoC4/EZI2C_1_SCBCLK.c **** * Summary:
 123:.\Generated_Source\PSoC4/EZI2C_1_SCBCLK.c **** *  Modifies the clock divider and the fractional divider.
 124:.\Generated_Source\PSoC4/EZI2C_1_SCBCLK.c **** *
 125:.\Generated_Source\PSoC4/EZI2C_1_SCBCLK.c **** * Parameters:
 126:.\Generated_Source\PSoC4/EZI2C_1_SCBCLK.c **** *  clkDivider:  Divider register value (0-65535). This value is NOT the
 127:.\Generated_Source\PSoC4/EZI2C_1_SCBCLK.c **** *    divider; the clock hardware divides by clkDivider plus one. For example,
 128:.\Generated_Source\PSoC4/EZI2C_1_SCBCLK.c **** *    to divide the clock by 2, this parameter should be set to 1.
 129:.\Generated_Source\PSoC4/EZI2C_1_SCBCLK.c **** *  fracDivider:  Fractional Divider register value (0-31).
 130:.\Generated_Source\PSoC4/EZI2C_1_SCBCLK.c **** * Returns:
 131:.\Generated_Source\PSoC4/EZI2C_1_SCBCLK.c **** *  None
 132:.\Generated_Source\PSoC4/EZI2C_1_SCBCLK.c **** *
 133:.\Generated_Source\PSoC4/EZI2C_1_SCBCLK.c **** *******************************************************************************/
 134:.\Generated_Source\PSoC4/EZI2C_1_SCBCLK.c **** void EZI2C_1_SCBCLK_SetFractionalDividerRegister(uint16 clkDivider, uint8 clkFractional)
 135:.\Generated_Source\PSoC4/EZI2C_1_SCBCLK.c **** {
 115              		.loc 1 135 0
 116              		.cfi_startproc
 117 0000 80B5     		push	{r7, lr}
 118              		.cfi_def_cfa_offset 8
 119              		.cfi_offset 7, -8
 120              		.cfi_offset 14, -4
 121 0002 84B0     		sub	sp, sp, #16
 122              		.cfi_def_cfa_offset 24
 123 0004 00AF     		add	r7, sp, #0
 124              		.cfi_def_cfa_register 7
 125 0006 021C     		mov	r2, r0
 126 0008 BB1D     		add	r3, r7, #6
 127 000a 1A80     		strh	r2, [r3]
 128 000c 7B1D     		add	r3, r7, #5
 129 000e 0A1C     		add	r2, r1, #0
 130 0010 1A70     		strb	r2, [r3]
 136:.\Generated_Source\PSoC4/EZI2C_1_SCBCLK.c ****     uint32 maskVal;
 137:.\Generated_Source\PSoC4/EZI2C_1_SCBCLK.c ****     uint32 regVal;
 138:.\Generated_Source\PSoC4/EZI2C_1_SCBCLK.c ****     
 139:.\Generated_Source\PSoC4/EZI2C_1_SCBCLK.c **** #if defined (EZI2C_1_SCBCLK__FRAC_MASK) || defined (CYREG_PERI_DIV_CMD)
 140:.\Generated_Source\PSoC4/EZI2C_1_SCBCLK.c ****     
 141:.\Generated_Source\PSoC4/EZI2C_1_SCBCLK.c **** 	/* get all but divider bits */
 142:.\Generated_Source\PSoC4/EZI2C_1_SCBCLK.c ****     maskVal = EZI2C_1_SCBCLK_DIV_REG & 
 131              		.loc 1 142 0
 132 0012 0B4B     		ldr	r3, .L10
 133 0014 1B68     		ldr	r3, [r3]
 134 0016 0722     		mov	r2, #7
 135 0018 1340     		and	r3, r2
 136 001a FB60     		str	r3, [r7, #12]
 143:.\Generated_Source\PSoC4/EZI2C_1_SCBCLK.c ****                     (uint32)(~(uint32)(EZI2C_1_SCBCLK_DIV_INT_MASK | EZI2C_1_SCBCLK_DIV_FRAC_MASK))
 144:.\Generated_Source\PSoC4/EZI2C_1_SCBCLK.c **** 	/* combine mask and new divider vals into 32-bit value */
 145:.\Generated_Source\PSoC4/EZI2C_1_SCBCLK.c ****     regVal = maskVal |
 146:.\Generated_Source\PSoC4/EZI2C_1_SCBCLK.c ****         ((uint32)((uint32)clkDivider <<  EZI2C_1_SCBCLK_DIV_INT_SHIFT) & EZI2C_1_SCBCLK_DIV_INT_MAS
 137              		.loc 1 146 0
 138 001c BB1D     		add	r3, r7, #6
ARM GAS  C:\Users\DELL\AppData\Local\Temp\cczgTV24.s 			page 6


 139 001e 1B88     		ldrh	r3, [r3]
 140 0020 1A02     		lsl	r2, r3, #8
 145:.\Generated_Source\PSoC4/EZI2C_1_SCBCLK.c ****         ((uint32)((uint32)clkDivider <<  EZI2C_1_SCBCLK_DIV_INT_SHIFT) & EZI2C_1_SCBCLK_DIV_INT_MAS
 141              		.loc 1 145 0
 142 0022 FB68     		ldr	r3, [r7, #12]
 143 0024 1A43     		orr	r2, r3
 147:.\Generated_Source\PSoC4/EZI2C_1_SCBCLK.c ****         ((uint32)((uint32)clkFractional << EZI2C_1_SCBCLK_DIV_FRAC_SHIFT) & EZI2C_1_SCBCLK_DIV_FRAC
 144              		.loc 1 147 0
 145 0026 7B1D     		add	r3, r7, #5
 146 0028 1B78     		ldrb	r3, [r3]
 147 002a DB00     		lsl	r3, r3, #3
 148 002c FF21     		mov	r1, #255
 149 002e 0B40     		and	r3, r1
 145:.\Generated_Source\PSoC4/EZI2C_1_SCBCLK.c ****         ((uint32)((uint32)clkDivider <<  EZI2C_1_SCBCLK_DIV_INT_SHIFT) & EZI2C_1_SCBCLK_DIV_INT_MAS
 150              		.loc 1 145 0
 151 0030 1343     		orr	r3, r2
 152 0032 BB60     		str	r3, [r7, #8]
 148:.\Generated_Source\PSoC4/EZI2C_1_SCBCLK.c ****     
 149:.\Generated_Source\PSoC4/EZI2C_1_SCBCLK.c **** #else
 150:.\Generated_Source\PSoC4/EZI2C_1_SCBCLK.c ****     /* get all but integer divider bits */
 151:.\Generated_Source\PSoC4/EZI2C_1_SCBCLK.c ****     maskVal = EZI2C_1_SCBCLK_DIV_REG & (uint32)(~(uint32)EZI2C_1_SCBCLK__DIVIDER_MASK);
 152:.\Generated_Source\PSoC4/EZI2C_1_SCBCLK.c ****     /* combine mask and new divider val into 32-bit value */
 153:.\Generated_Source\PSoC4/EZI2C_1_SCBCLK.c ****     regVal = clkDivider | maskVal;
 154:.\Generated_Source\PSoC4/EZI2C_1_SCBCLK.c ****     
 155:.\Generated_Source\PSoC4/EZI2C_1_SCBCLK.c **** #endif /* EZI2C_1_SCBCLK__FRAC_MASK || CYREG_PERI_DIV_CMD */
 156:.\Generated_Source\PSoC4/EZI2C_1_SCBCLK.c **** 
 157:.\Generated_Source\PSoC4/EZI2C_1_SCBCLK.c ****     EZI2C_1_SCBCLK_DIV_REG = regVal;
 153              		.loc 1 157 0
 154 0034 024B     		ldr	r3, .L10
 155 0036 BA68     		ldr	r2, [r7, #8]
 156 0038 1A60     		str	r2, [r3]
 158:.\Generated_Source\PSoC4/EZI2C_1_SCBCLK.c **** }
 157              		.loc 1 158 0
 158 003a BD46     		mov	sp, r7
 159 003c 04B0     		add	sp, sp, #16
 160              		@ sp needed
 161 003e 80BD     		pop	{r7, pc}
 162              	.L11:
 163              		.align	2
 164              	.L10:
 165 0040 00030140 		.word	1073808128
 166              		.cfi_endproc
 167              	.LFE2:
 168              		.size	EZI2C_1_SCBCLK_SetFractionalDividerRegister, .-EZI2C_1_SCBCLK_SetFractionalDividerRegister
 169              		.section	.text.EZI2C_1_SCBCLK_GetDividerRegister,"ax",%progbits
 170              		.align	2
 171              		.global	EZI2C_1_SCBCLK_GetDividerRegister
 172              		.code	16
 173              		.thumb_func
 174              		.type	EZI2C_1_SCBCLK_GetDividerRegister, %function
 175              	EZI2C_1_SCBCLK_GetDividerRegister:
 176              	.LFB3:
 159:.\Generated_Source\PSoC4/EZI2C_1_SCBCLK.c **** 
 160:.\Generated_Source\PSoC4/EZI2C_1_SCBCLK.c **** 
 161:.\Generated_Source\PSoC4/EZI2C_1_SCBCLK.c **** /*******************************************************************************
 162:.\Generated_Source\PSoC4/EZI2C_1_SCBCLK.c **** * Function Name: EZI2C_1_SCBCLK_GetDividerRegister
 163:.\Generated_Source\PSoC4/EZI2C_1_SCBCLK.c **** ********************************************************************************
ARM GAS  C:\Users\DELL\AppData\Local\Temp\cczgTV24.s 			page 7


 164:.\Generated_Source\PSoC4/EZI2C_1_SCBCLK.c **** *
 165:.\Generated_Source\PSoC4/EZI2C_1_SCBCLK.c **** * Summary:
 166:.\Generated_Source\PSoC4/EZI2C_1_SCBCLK.c **** *  Gets the clock divider register value.
 167:.\Generated_Source\PSoC4/EZI2C_1_SCBCLK.c **** *
 168:.\Generated_Source\PSoC4/EZI2C_1_SCBCLK.c **** * Parameters:
 169:.\Generated_Source\PSoC4/EZI2C_1_SCBCLK.c **** *  None
 170:.\Generated_Source\PSoC4/EZI2C_1_SCBCLK.c **** *
 171:.\Generated_Source\PSoC4/EZI2C_1_SCBCLK.c **** * Returns:
 172:.\Generated_Source\PSoC4/EZI2C_1_SCBCLK.c **** *  Divide value of the clock minus 1. For example, if the clock is set to
 173:.\Generated_Source\PSoC4/EZI2C_1_SCBCLK.c **** *  divide by 2, the return value will be 1.
 174:.\Generated_Source\PSoC4/EZI2C_1_SCBCLK.c **** *
 175:.\Generated_Source\PSoC4/EZI2C_1_SCBCLK.c **** *******************************************************************************/
 176:.\Generated_Source\PSoC4/EZI2C_1_SCBCLK.c **** uint16 EZI2C_1_SCBCLK_GetDividerRegister(void)
 177:.\Generated_Source\PSoC4/EZI2C_1_SCBCLK.c **** {
 177              		.loc 1 177 0
 178              		.cfi_startproc
 179 0000 80B5     		push	{r7, lr}
 180              		.cfi_def_cfa_offset 8
 181              		.cfi_offset 7, -8
 182              		.cfi_offset 14, -4
 183 0002 00AF     		add	r7, sp, #0
 184              		.cfi_def_cfa_register 7
 178:.\Generated_Source\PSoC4/EZI2C_1_SCBCLK.c ****     return (uint16)((EZI2C_1_SCBCLK_DIV_REG & EZI2C_1_SCBCLK_DIV_INT_MASK)
 185              		.loc 1 178 0
 186 0004 034B     		ldr	r3, .L14
 187 0006 1B68     		ldr	r3, [r3]
 179:.\Generated_Source\PSoC4/EZI2C_1_SCBCLK.c ****         >> EZI2C_1_SCBCLK_DIV_INT_SHIFT);
 188              		.loc 1 179 0
 189 0008 1B0A     		lsr	r3, r3, #8
 178:.\Generated_Source\PSoC4/EZI2C_1_SCBCLK.c ****     return (uint16)((EZI2C_1_SCBCLK_DIV_REG & EZI2C_1_SCBCLK_DIV_INT_MASK)
 190              		.loc 1 178 0
 191 000a 9BB2     		uxth	r3, r3
 180:.\Generated_Source\PSoC4/EZI2C_1_SCBCLK.c **** }
 192              		.loc 1 180 0
 193 000c 181C     		mov	r0, r3
 194 000e BD46     		mov	sp, r7
 195              		@ sp needed
 196 0010 80BD     		pop	{r7, pc}
 197              	.L15:
 198 0012 C046     		.align	2
 199              	.L14:
 200 0014 00030140 		.word	1073808128
 201              		.cfi_endproc
 202              	.LFE3:
 203              		.size	EZI2C_1_SCBCLK_GetDividerRegister, .-EZI2C_1_SCBCLK_GetDividerRegister
 204              		.section	.text.EZI2C_1_SCBCLK_GetFractionalDividerRegister,"ax",%progbits
 205              		.align	2
 206              		.global	EZI2C_1_SCBCLK_GetFractionalDividerRegister
 207              		.code	16
 208              		.thumb_func
 209              		.type	EZI2C_1_SCBCLK_GetFractionalDividerRegister, %function
 210              	EZI2C_1_SCBCLK_GetFractionalDividerRegister:
 211              	.LFB4:
 181:.\Generated_Source\PSoC4/EZI2C_1_SCBCLK.c **** 
 182:.\Generated_Source\PSoC4/EZI2C_1_SCBCLK.c **** 
 183:.\Generated_Source\PSoC4/EZI2C_1_SCBCLK.c **** /*******************************************************************************
 184:.\Generated_Source\PSoC4/EZI2C_1_SCBCLK.c **** * Function Name: EZI2C_1_SCBCLK_GetFractionalDividerRegister
ARM GAS  C:\Users\DELL\AppData\Local\Temp\cczgTV24.s 			page 8


 185:.\Generated_Source\PSoC4/EZI2C_1_SCBCLK.c **** ********************************************************************************
 186:.\Generated_Source\PSoC4/EZI2C_1_SCBCLK.c **** *
 187:.\Generated_Source\PSoC4/EZI2C_1_SCBCLK.c **** * Summary:
 188:.\Generated_Source\PSoC4/EZI2C_1_SCBCLK.c **** *  Gets the clock fractional divider register value.
 189:.\Generated_Source\PSoC4/EZI2C_1_SCBCLK.c **** *
 190:.\Generated_Source\PSoC4/EZI2C_1_SCBCLK.c **** * Parameters:
 191:.\Generated_Source\PSoC4/EZI2C_1_SCBCLK.c **** *  None
 192:.\Generated_Source\PSoC4/EZI2C_1_SCBCLK.c **** *
 193:.\Generated_Source\PSoC4/EZI2C_1_SCBCLK.c **** * Returns:
 194:.\Generated_Source\PSoC4/EZI2C_1_SCBCLK.c **** *  Fractional Divide value of the clock
 195:.\Generated_Source\PSoC4/EZI2C_1_SCBCLK.c **** *  0 if the fractional divider is not in use.
 196:.\Generated_Source\PSoC4/EZI2C_1_SCBCLK.c **** *
 197:.\Generated_Source\PSoC4/EZI2C_1_SCBCLK.c **** *******************************************************************************/
 198:.\Generated_Source\PSoC4/EZI2C_1_SCBCLK.c **** uint8 EZI2C_1_SCBCLK_GetFractionalDividerRegister(void)
 199:.\Generated_Source\PSoC4/EZI2C_1_SCBCLK.c **** {
 212              		.loc 1 199 0
 213              		.cfi_startproc
 214 0000 80B5     		push	{r7, lr}
 215              		.cfi_def_cfa_offset 8
 216              		.cfi_offset 7, -8
 217              		.cfi_offset 14, -4
 218 0002 00AF     		add	r7, sp, #0
 219              		.cfi_def_cfa_register 7
 200:.\Generated_Source\PSoC4/EZI2C_1_SCBCLK.c **** #if defined (EZI2C_1_SCBCLK__FRAC_MASK)
 201:.\Generated_Source\PSoC4/EZI2C_1_SCBCLK.c ****     /* return fractional divider bits */
 202:.\Generated_Source\PSoC4/EZI2C_1_SCBCLK.c ****     return (uint8)((EZI2C_1_SCBCLK_DIV_REG & EZI2C_1_SCBCLK_DIV_FRAC_MASK)
 203:.\Generated_Source\PSoC4/EZI2C_1_SCBCLK.c ****         >> EZI2C_1_SCBCLK_DIV_FRAC_SHIFT);
 204:.\Generated_Source\PSoC4/EZI2C_1_SCBCLK.c **** #else
 205:.\Generated_Source\PSoC4/EZI2C_1_SCBCLK.c ****     return 0u;
 220              		.loc 1 205 0
 221 0004 0023     		mov	r3, #0
 206:.\Generated_Source\PSoC4/EZI2C_1_SCBCLK.c **** #endif /* EZI2C_1_SCBCLK__FRAC_MASK */
 207:.\Generated_Source\PSoC4/EZI2C_1_SCBCLK.c **** }
 222              		.loc 1 207 0
 223 0006 181C     		mov	r0, r3
 224 0008 BD46     		mov	sp, r7
 225              		@ sp needed
 226 000a 80BD     		pop	{r7, pc}
 227              		.cfi_endproc
 228              	.LFE4:
 229              		.size	EZI2C_1_SCBCLK_GetFractionalDividerRegister, .-EZI2C_1_SCBCLK_GetFractionalDividerRegister
 230              		.text
 231              	.Letext0:
 232              		.file 2 "Generated_Source\\PSoC4/cytypes.h"
