Archive member included because of file (symbol)

.\CortexM0\ARM_GCC_493\Debug\SCB_EzI2cCommSlave01.a(cyfitter_cfg.o)
                              .\CortexM0\ARM_GCC_493\Debug\Cm0Start.o (cyfitter_cfg)
.\CortexM0\ARM_GCC_493\Debug\SCB_EzI2cCommSlave01.a(EZI2C.o)
                              .\CortexM0\ARM_GCC_493\Debug\main.o (EZI2C_Start)
.\CortexM0\ARM_GCC_493\Debug\SCB_EzI2cCommSlave01.a(EZI2C_EZI2C.o)
                              .\CortexM0\ARM_GCC_493\Debug\SCB_EzI2cCommSlave01.a(EZI2C.o) (EZI2C_EzI2CInit)
.\CortexM0\ARM_GCC_493\Debug\SCB_EzI2cCommSlave01.a(EZI2C_EZI2C_INT.o)
                              .\CortexM0\ARM_GCC_493\Debug\SCB_EzI2cCommSlave01.a(EZI2C_EZI2C.o) (EZI2C_EZI2C_STRETCH_ISR)
.\CortexM0\ARM_GCC_493\Debug\SCB_EzI2cCommSlave01.a(LED_RED.o)
                              .\CortexM0\ARM_GCC_493\Debug\main.o (LED_RED_Write)
.\CortexM0\ARM_GCC_493\Debug\SCB_EzI2cCommSlave01.a(LED_GREEN.o)
                              .\CortexM0\ARM_GCC_493\Debug\main.o (LED_GREEN_Write)
.\CortexM0\ARM_GCC_493\Debug\SCB_EzI2cCommSlave01.a(LED_BLUE.o)
                              .\CortexM0\ARM_GCC_493\Debug\main.o (LED_BLUE_Write)
.\CortexM0\ARM_GCC_493\Debug\SCB_EzI2cCommSlave01.a(CyLib.o)
                              .\CortexM0\ARM_GCC_493\Debug\SCB_EzI2cCommSlave01.a(cyfitter_cfg.o) (CySysClkWriteImoFreq)
.\CortexM0\ARM_GCC_493\Debug\SCB_EzI2cCommSlave01.a(CyLFClk.o)
                              .\CortexM0\ARM_GCC_493\Debug\SCB_EzI2cCommSlave01.a(cyfitter_cfg.o) (CySysClkWcoStart)
.\CortexM0\ARM_GCC_493\Debug\SCB_EzI2cCommSlave01.a(CyBootAsmGnu.o)
                              .\CortexM0\ARM_GCC_493\Debug\SCB_EzI2cCommSlave01.a(CyLib.o) (CyDelayCycles)
c:/program files (x86)/cypress/psoc creator/3.3/psoc creator/import/gnu/arm/4.9.3/bin/../lib/gcc/arm-none-eabi/4.9.3/armv6-m\libgcc.a(_udivsi3.o)
                              .\CortexM0\ARM_GCC_493\Debug\SCB_EzI2cCommSlave01.a(CyLib.o) (__aeabi_uidiv)
c:/program files (x86)/cypress/psoc creator/3.3/psoc creator/import/gnu/arm/4.9.3/bin/../lib/gcc/arm-none-eabi/4.9.3/armv6-m\libgcc.a(_dvmd_tls.o)
                              c:/program files (x86)/cypress/psoc creator/3.3/psoc creator/import/gnu/arm/4.9.3/bin/../lib/gcc/arm-none-eabi/4.9.3/armv6-m\libgcc.a(_udivsi3.o) (__aeabi_idiv0)
c:/program files (x86)/cypress/psoc creator/3.3/psoc creator/import/gnu/arm/4.9.3/bin/../lib/gcc/arm-none-eabi/4.9.3/../../../../arm-none-eabi/lib/armv6-m\libg_nano.a(lib_a-errno.o)
                              .\CortexM0\ARM_GCC_493\Debug\Cm0Start.o (__errno)
c:/program files (x86)/cypress/psoc creator/3.3/psoc creator/import/gnu/arm/4.9.3/bin/../lib/gcc/arm-none-eabi/4.9.3/../../../../arm-none-eabi/lib/armv6-m\libg_nano.a(lib_a-exit.o)
                              c:/program files (x86)/cypress/psoc creator/3.3/psoc creator/import/gnu/arm/4.9.3/bin/../lib/gcc/arm-none-eabi/4.9.3/../../../../arm-none-eabi/lib/armv6-m/crt0.o (exit)
c:/program files (x86)/cypress/psoc creator/3.3/psoc creator/import/gnu/arm/4.9.3/bin/../lib/gcc/arm-none-eabi/4.9.3/../../../../arm-none-eabi/lib/armv6-m\libg_nano.a(lib_a-impure.o)
                              c:/program files (x86)/cypress/psoc creator/3.3/psoc creator/import/gnu/arm/4.9.3/bin/../lib/gcc/arm-none-eabi/4.9.3/../../../../arm-none-eabi/lib/armv6-m\libg_nano.a(lib_a-exit.o) (_global_impure_ptr)
c:/program files (x86)/cypress/psoc creator/3.3/psoc creator/import/gnu/arm/4.9.3/bin/../lib/gcc/arm-none-eabi/4.9.3/../../../../arm-none-eabi/lib/armv6-m\libg_nano.a(lib_a-init.o)
                              c:/program files (x86)/cypress/psoc creator/3.3/psoc creator/import/gnu/arm/4.9.3/bin/../lib/gcc/arm-none-eabi/4.9.3/../../../../arm-none-eabi/lib/armv6-m/crt0.o (__libc_init_array)
c:/program files (x86)/cypress/psoc creator/3.3/psoc creator/import/gnu/arm/4.9.3/bin/../lib/gcc/arm-none-eabi/4.9.3/../../../../arm-none-eabi/lib/armv6-m\libg_nano.a(lib_a-memcpy.o)
                              .\CortexM0\ARM_GCC_493\Debug\SCB_EzI2cCommSlave01.a(cyfitter_cfg.o) (memcpy)
c:/program files (x86)/cypress/psoc creator/3.3/psoc creator/import/gnu/arm/4.9.3/bin/../lib/gcc/arm-none-eabi/4.9.3/../../../../arm-none-eabi/lib/armv6-m\libg_nano.a(lib_a-memset.o)
                              c:/program files (x86)/cypress/psoc creator/3.3/psoc creator/import/gnu/arm/4.9.3/bin/../lib/gcc/arm-none-eabi/4.9.3/../../../../arm-none-eabi/lib/armv6-m/crt0.o (memset)

Allocating common symbols
Common symbol       size              file

EZI2C_offsetBuf1    0x1               .\CortexM0\ARM_GCC_493\Debug\SCB_EzI2cCommSlave01.a(EZI2C_EZI2C.o)
EZI2C_indexBuf1     0x2               .\CortexM0\ARM_GCC_493\Debug\SCB_EzI2cCommSlave01.a(EZI2C_EZI2C.o)
EZI2C_fsmState      0x1               .\CortexM0\ARM_GCC_493\Debug\SCB_EzI2cCommSlave01.a(EZI2C_EZI2C.o)
EZI2C_protectBuf1   0x2               .\CortexM0\ARM_GCC_493\Debug\SCB_EzI2cCommSlave01.a(EZI2C_EZI2C.o)
EZI2C_curStatus     0x1               .\CortexM0\ARM_GCC_493\Debug\SCB_EzI2cCommSlave01.a(EZI2C_EZI2C.o)
EZI2C_dataBuffer1   0x4               .\CortexM0\ARM_GCC_493\Debug\SCB_EzI2cCommSlave01.a(EZI2C_EZI2C.o)
EZI2C_bufSizeBuf1   0x2               .\CortexM0\ARM_GCC_493\Debug\SCB_EzI2cCommSlave01.a(EZI2C_EZI2C.o)

Discarded input sections

 .text          0x00000000        0x0 c:/program files (x86)/cypress/psoc creator/3.3/psoc creator/import/gnu/arm/4.9.3/bin/../lib/gcc/arm-none-eabi/4.9.3/armv6-m/crti.o
 .data          0x00000000        0x0 c:/program files (x86)/cypress/psoc creator/3.3/psoc creator/import/gnu/arm/4.9.3/bin/../lib/gcc/arm-none-eabi/4.9.3/armv6-m/crti.o
 .bss           0x00000000        0x0 c:/program files (x86)/cypress/psoc creator/3.3/psoc creator/import/gnu/arm/4.9.3/bin/../lib/gcc/arm-none-eabi/4.9.3/armv6-m/crti.o
 .data          0x00000000        0x4 c:/program files (x86)/cypress/psoc creator/3.3/psoc creator/import/gnu/arm/4.9.3/bin/../lib/gcc/arm-none-eabi/4.9.3/armv6-m/crtbegin.o
 .text          0x00000000       0x78 c:/program files (x86)/cypress/psoc creator/3.3/psoc creator/import/gnu/arm/4.9.3/bin/../lib/gcc/arm-none-eabi/4.9.3/../../../../arm-none-eabi/lib/armv6-m/crt0.o
 .data          0x00000000        0x0 c:/program files (x86)/cypress/psoc creator/3.3/psoc creator/import/gnu/arm/4.9.3/bin/../lib/gcc/arm-none-eabi/4.9.3/../../../../arm-none-eabi/lib/armv6-m/crt0.o
 .bss           0x00000000        0x0 c:/program files (x86)/cypress/psoc creator/3.3/psoc creator/import/gnu/arm/4.9.3/bin/../lib/gcc/arm-none-eabi/4.9.3/../../../../arm-none-eabi/lib/armv6-m/crt0.o
 .ARM.extab     0x00000000        0x0 c:/program files (x86)/cypress/psoc creator/3.3/psoc creator/import/gnu/arm/4.9.3/bin/../lib/gcc/arm-none-eabi/4.9.3/../../../../arm-none-eabi/lib/armv6-m/crt0.o
 .ARM.exidx     0x00000000        0x8 c:/program files (x86)/cypress/psoc creator/3.3/psoc creator/import/gnu/arm/4.9.3/bin/../lib/gcc/arm-none-eabi/4.9.3/../../../../arm-none-eabi/lib/armv6-m/crt0.o
 .text          0x00000000        0x0 .\CortexM0\ARM_GCC_493\Debug\main.o
 .bss           0x00000000        0x0 .\CortexM0\ARM_GCC_493\Debug\main.o
 .text          0x00000000        0x0 .\CortexM0\ARM_GCC_493\Debug\cymetadata.o
 .data          0x00000000        0x0 .\CortexM0\ARM_GCC_493\Debug\cymetadata.o
 .bss           0x00000000        0x0 .\CortexM0\ARM_GCC_493\Debug\cymetadata.o
 .text          0x00000000        0x0 .\CortexM0\ARM_GCC_493\Debug\Cm0Start.o
 .data          0x00000000        0x4 .\CortexM0\ARM_GCC_493\Debug\Cm0Start.o
 .bss           0x00000000        0x0 .\CortexM0\ARM_GCC_493\Debug\Cm0Start.o
 .text._exit    0x00000000       0x14 .\CortexM0\ARM_GCC_493\Debug\Cm0Start.o
Memory Configuration

Name             Origin             Length             Attributes
rom              0x00000000         0x00020000         xr
ram              0x20000000         0x00004000         xrw
*default*        0x00000000         0xffffffff

Linker script and memory map

LOAD c:/program files (x86)/cypress/psoc creator/3.3/psoc creator/import/gnu/arm/4.9.3/bin/../lib/gcc/arm-none-eabi/4.9.3/armv6-m/crti.o
LOAD c:/program files (x86)/cypress/psoc creator/3.3/psoc creator/import/gnu/arm/4.9.3/bin/../lib/gcc/arm-none-eabi/4.9.3/armv6-m/crtbegin.o
LOAD c:/program files (x86)/cypress/psoc creator/3.3/psoc creator/import/gnu/arm/4.9.3/bin/../lib/gcc/arm-none-eabi/4.9.3/../../../../arm-none-eabi/lib/armv6-m/crt0.o
START GROUP
LOAD .\CortexM0\ARM_GCC_493\Debug\main.o
LOAD .\CortexM0\ARM_GCC_493\Debug\cymetadata.o
LOAD .\CortexM0\ARM_GCC_493\Debug\Cm0Start.o
LOAD .\CortexM0\ARM_GCC_493\Debug\SCB_EzI2cCommSlave01.a
LOAD C:\Program Files (x86)\Cypress\PSoC Creator\3.3\PSoC Creator\psoc\content\cycomponentlibrary\CyComponentLibrary.cylib\CortexM0\ARM_GCC_493\Debug\CyComponentLibrary.a
END GROUP
START GROUP
LOAD c:/program files (x86)/cypress/psoc creator/3.3/psoc creator/import/gnu/arm/4.9.3/bin/../lib/gcc/arm-none-eabi/4.9.3/armv6-m\libgcc.a
LOAD c:/program files (x86)/cypress/psoc creator/3.3/psoc creator/import/gnu/arm/4.9.3/bin/../lib/gcc/arm-none-eabi/4.9.3/../../../../arm-none-eabi/lib/armv6-m\libg_nano.a
LOAD c:/program files (x86)/cypress/psoc creator/3.3/psoc creator/import/gnu/arm/4.9.3/bin/../lib/gcc/arm-none-eabi/4.9.3/../../../../arm-none-eabi/lib/armv6-m\libc_nano.a
END GROUP
START GROUP
LOAD c:/program files (x86)/cypress/psoc creator/3.3/psoc creator/import/gnu/arm/4.9.3/bin/../lib/gcc/arm-none-eabi/4.9.3/armv6-m\libgcc.a
LOAD c:/program files (x86)/cypress/psoc creator/3.3/psoc creator/import/gnu/arm/4.9.3/bin/../lib/gcc/arm-none-eabi/4.9.3/../../../../arm-none-eabi/lib/armv6-m\libc_nano.a
END GROUP
LOAD c:/program files (x86)/cypress/psoc creator/3.3/psoc creator/import/gnu/arm/4.9.3/bin/../lib/gcc/arm-none-eabi/4.9.3/armv6-m/crtend.o
LOAD c:/program files (x86)/cypress/psoc creator/3.3/psoc creator/import/gnu/arm/4.9.3/bin/../lib/gcc/arm-none-eabi/4.9.3/armv6-m/crtn.o
START GROUP
LOAD c:/program files (x86)/cypress/psoc creator/3.3/psoc creator/import/gnu/arm/4.9.3/bin/../lib/gcc/arm-none-eabi/4.9.3/armv6-m\libgcc.a
LOAD c:/program files (x86)/cypress/psoc creator/3.3/psoc creator/import/gnu/arm/4.9.3/bin/../lib/gcc/arm-none-eabi/4.9.3/../../../../arm-none-eabi/lib/armv6-m\libc.a
LOAD c:/program files (x86)/cypress/psoc creator/3.3/psoc creator/import/gnu/arm/4.9.3/bin/../lib/gcc/arm-none-eabi/4.9.3/../../../../arm-none-eabi/lib/armv6-m\libnosys.a
END GROUP
                0x00000000                CY_APPL_ORIGIN = 0x0
                0x00000080                CY_FLASH_ROW_SIZE = 0x80
                0x00000001                CY_APPL_NUM = 0x1
                0x00000001                CY_APPL_MAX = 0x1
                0x00000040                CY_METADATA_SIZE = 0x40
                0x00000000                CY_APPL_LOADABLE = 0x0
                0x00000000                CY_CHECKSUM_EXCLUDE_SIZE = ALIGN (0x0, CY_FLASH_ROW_SIZE)
                0x00000000                CY_APP_FOR_STACK_AND_COPIER = 0x0
                0x20000128                PROVIDE (__cy_heap_start, _end)
                0x00000001                PROVIDE (__cy_region_num, ((__cy_regions_end - __cy_regions) / 0x10))
                0x20004000                PROVIDE (__cy_stack, (ORIGIN (ram) + 0x4000))
                0x20003c00                PROVIDE (__cy_heap_end, (__cy_stack - 0x400))

.cybootloader   0x00000000        0x0
 *(.cybootloader)
                0x00000000                appl1_start = CY_APPL_ORIGIN?CY_APPL_ORIGIN:ALIGN (CY_FLASH_ROW_SIZE)
                0x0000ff80                appl2_start = (appl1_start + ALIGN ((((0x20000 - appl1_start) - (0x2 * CY_FLASH_ROW_SIZE)) / 0x2), CY_FLASH_ROW_SIZE))
                0x00000000                appl_start = (CY_APPL_NUM == 0x1)?appl1_start:appl2_start
                0x00000001                cy_project_type_bootloader = (appl_start == 0x0)?0x1:0x0
                0x00000000                cy_project_type_app_for_stack_and_copier = (CY_APP_FOR_STACK_AND_COPIER == 0x1)?0x1:0x0

.text           0x00000000      0xfc4
 CREATE_OBJECT_SYMBOLS
                0x00000000                PROVIDE (__cy_interrupt_vector, RomVectors)
 *(.romvectors)
 .romvectors    0x00000000       0x10 .\CortexM0\ARM_GCC_493\Debug\Cm0Start.o
                0x00000000                RomVectors
                0x00000001                ASSERT ((. != __cy_interrupt_vector), No interrupt vector)
                0x00000001                ASSERT (CY_APPL_ORIGIN?(SIZEOF (.cybootloader) <= CY_APPL_ORIGIN):0x1, Wrong image location)
                0x00000010                PROVIDE (__cy_reset, Reset)
 *(.text.Reset)
 .text.Reset    0x00000010        0x8 .\CortexM0\ARM_GCC_493\Debug\Cm0Start.o
                0x00000010                Reset
                0x00000001                ASSERT ((. != __cy_reset), No reset code)
 *(.psocinit)
 .psocinit      0x00000018      0x1f0 .\CortexM0\ARM_GCC_493\Debug\SCB_EzI2cCommSlave01.a(cyfitter_cfg.o)
                0x000000d8                cyfitter_cfg
                0x00000208                . = MAX (., 0x100)
 *(.text .text.* .gnu.linkonce.t.*)
 .text          0x00000208       0x60 c:/program files (x86)/cypress/psoc creator/3.3/psoc creator/import/gnu/arm/4.9.3/bin/../lib/gcc/arm-none-eabi/4.9.3/armv6-m/crtbegin.o
 .text.main     0x00000268       0x70 .\CortexM0\ARM_GCC_493\Debug\main.o
                0x00000268                main
 .text.ExecuteCommand
                0x000002d8       0x8c .\CortexM0\ARM_GCC_493\Debug\main.o
                0x000002d8                ExecuteCommand
 .text.IntDefaultHandler
                0x00000364        0x8 .\CortexM0\ARM_GCC_493\Debug\Cm0Start.o
                0x00000364                IntDefaultHandler
 .text.Start_c  0x0000036c       0x98 .\CortexM0\ARM_GCC_493\Debug\Cm0Start.o
                0x0000036c                Start_c
 .text.initialize_psoc
                0x00000404       0x70 .\CortexM0\ARM_GCC_493\Debug\Cm0Start.o
                0x00000404                initialize_psoc
 .text.CYMEMZERO
                0x00000474       0x20 .\CortexM0\ARM_GCC_493\Debug\SCB_EzI2cCommSlave01.a(cyfitter_cfg.o)
 .text.AnalogSetDefault
                0x00000494       0x28 .\CortexM0\ARM_GCC_493\Debug\SCB_EzI2cCommSlave01.a(cyfitter_cfg.o)
 .text.EZI2C_Init
                0x000004bc        0xc .\CortexM0\ARM_GCC_493\Debug\SCB_EzI2cCommSlave01.a(EZI2C.o)
                0x000004bc                EZI2C_Init
 .text.EZI2C_Enable
                0x000004c8       0x24 .\CortexM0\ARM_GCC_493\Debug\SCB_EzI2cCommSlave01.a(EZI2C.o)
                0x000004c8                EZI2C_Enable
 .text.EZI2C_Start
                0x000004ec       0x24 .\CortexM0\ARM_GCC_493\Debug\SCB_EzI2cCommSlave01.a(EZI2C.o)
                0x000004ec                EZI2C_Start
 .text.EZI2C_ScbEnableIntr
                0x00000510       0x10 .\CortexM0\ARM_GCC_493\Debug\SCB_EzI2cCommSlave01.a(EZI2C.o)
 .text.EZI2C_ScbModePostEnable
                0x00000520        0x8 .\CortexM0\ARM_GCC_493\Debug\SCB_EzI2cCommSlave01.a(EZI2C.o)
 .text.EZI2C_EzI2CInit
                0x00000528       0xdc .\CortexM0\ARM_GCC_493\Debug\SCB_EzI2cCommSlave01.a(EZI2C_EZI2C.o)
                0x00000528                EZI2C_EzI2CInit
 .text.EZI2C_EzI2CGetActivity
                0x00000604       0x38 .\CortexM0\ARM_GCC_493\Debug\SCB_EzI2cCommSlave01.a(EZI2C_EZI2C.o)
                0x00000604                EZI2C_EzI2CGetActivity
 .text.EZI2C_EzI2CSetBuffer1
                0x0000063c       0x48 .\CortexM0\ARM_GCC_493\Debug\SCB_EzI2cCommSlave01.a(EZI2C_EZI2C.o)
                0x0000063c                EZI2C_EzI2CSetBuffer1
 .text.EZI2C_EZI2C_STRETCH_ISR
                0x00000684      0x444 .\CortexM0\ARM_GCC_493\Debug\SCB_EzI2cCommSlave01.a(EZI2C_EZI2C_INT.o)
                0x00000684                EZI2C_EZI2C_STRETCH_ISR
 .text.LED_RED_Write
                0x00000ac8       0x4c .\CortexM0\ARM_GCC_493\Debug\SCB_EzI2cCommSlave01.a(LED_RED.o)
                0x00000ac8                LED_RED_Write
 .text.LED_GREEN_Write
                0x00000b14       0x4c .\CortexM0\ARM_GCC_493\Debug\SCB_EzI2cCommSlave01.a(LED_GREEN.o)
                0x00000b14                LED_GREEN_Write
 .text.LED_BLUE_Write
                0x00000b60       0x48 .\CortexM0\ARM_GCC_493\Debug\SCB_EzI2cCommSlave01.a(LED_BLUE.o)
                0x00000b60                LED_BLUE_Write
 .text.CySysClkWriteImoFreq
                0x00000ba8       0x98 .\CortexM0\ARM_GCC_493\Debug\SCB_EzI2cCommSlave01.a(CyLib.o)
                0x00000ba8                CySysClkWriteImoFreq
 .text.CySysClkEcoStart
                0x00000c40       0x74 .\CortexM0\ARM_GCC_493\Debug\SCB_EzI2cCommSlave01.a(CyLib.o)
                0x00000c40                CySysClkEcoStart
 .text.CySysClkEcoReadStatus
                0x00000cb4       0x20 .\CortexM0\ARM_GCC_493\Debug\SCB_EzI2cCommSlave01.a(CyLib.o)
                0x00000cb4                CySysClkEcoReadStatus
 .text.CyIntSetVector
                0x00000cd4       0x4c .\CortexM0\ARM_GCC_493\Debug\SCB_EzI2cCommSlave01.a(CyLib.o)
                0x00000cd4                CyIntSetVector
 .text.CyIntSetPriority
                0x00000d20       0xa8 .\CortexM0\ARM_GCC_493\Debug\SCB_EzI2cCommSlave01.a(CyLib.o)
                0x00000d20                CyIntSetPriority
 .text.CyIntEnable
                0x00000dc8       0x28 .\CortexM0\ARM_GCC_493\Debug\SCB_EzI2cCommSlave01.a(CyLib.o)
                0x00000dc8                CyIntEnable
 .text.CyIntDisable
                0x00000df0       0x28 .\CortexM0\ARM_GCC_493\Debug\SCB_EzI2cCommSlave01.a(CyLib.o)
                0x00000df0                CyIntDisable
 .text.CyHalt   0x00000e18       0x14 .\CortexM0\ARM_GCC_493\Debug\SCB_EzI2cCommSlave01.a(CyLib.o)
                0x00000e18                CyHalt
 .text.CyDelayUs
                0x00000e2c       0x28 .\CortexM0\ARM_GCC_493\Debug\SCB_EzI2cCommSlave01.a(CyLib.o)
                0x00000e2c                CyDelayUs
 .text.CySysClkWcoSetHighPowerMode
                0x00000e54       0x48 .\CortexM0\ARM_GCC_493\Debug\SCB_EzI2cCommSlave01.a(CyLFClk.o)
 .text.CySysClkWcoSetLowPowerMode
                0x00000e9c       0x48 .\CortexM0\ARM_GCC_493\Debug\SCB_EzI2cCommSlave01.a(CyLFClk.o)
 .text.CySysClkWcoStart
                0x00000ee4       0x20 .\CortexM0\ARM_GCC_493\Debug\SCB_EzI2cCommSlave01.a(CyLFClk.o)
                0x00000ee4                CySysClkWcoStart
 .text.CySysClkWcoSetPowerMode
                0x00000f04       0x40 .\CortexM0\ARM_GCC_493\Debug\SCB_EzI2cCommSlave01.a(CyLFClk.o)
                0x00000f04                CySysClkWcoSetPowerMode
 *fill*         0x00000f44        0x4 
 .text          0x00000f48       0x20 .\CortexM0\ARM_GCC_493\Debug\SCB_EzI2cCommSlave01.a(CyBootAsmGnu.o)
                0x00000f48                CyDelayCycles
                0x00000f5a                CyEnterCriticalSection
                0x00000f62                CyExitCriticalSection
 .text.__libc_init_array
                0x00000f68       0x4c c:/program files (x86)/cypress/psoc creator/3.3/psoc creator/import/gnu/arm/4.9.3/bin/../lib/gcc/arm-none-eabi/4.9.3/../../../../arm-none-eabi/lib/armv6-m\libg_nano.a(lib_a-init.o)
                0x00000f68                __libc_init_array
 .text.memset   0x00000fb4       0x10 c:/program files (x86)/cypress/psoc creator/3.3/psoc creator/import/gnu/arm/4.9.3/bin/../lib/gcc/arm-none-eabi/4.9.3/../../../../arm-none-eabi/lib/armv6-m\libg_nano.a(lib_a-memset.o)
                0x00000fb4                memset
 *(.plt)
 *(.gnu.warning)
 *(.glue_7t)
 .glue_7t       0x00000000        0x0 linker stubs
 *(.glue_7)
 .glue_7        0x00000000        0x0 linker stubs
 *(.vfp11_veneer)
 .vfp11_veneer  0x00000000        0x0 linker stubs
 *(.bootloader)
 *(.ARM.extab* .gnu.linkonce.armextab.*)
 *(.gcc_except_table)

.v4_bx          0x00000fc4        0x0
 .v4_bx         0x00000000        0x0 linker stubs

.iplt           0x00000fc4        0x0
 .iplt          0x00000000        0x0 c:/program files (x86)/cypress/psoc creator/3.3/psoc creator/import/gnu/arm/4.9.3/bin/../lib/gcc/arm-none-eabi/4.9.3/armv6-m/crtbegin.o

.eh_frame_hdr
 *(.eh_frame_hdr)

.eh_frame       0x00000fc4        0x4
 *(.eh_frame)
 .eh_frame      0x00000fc4        0x0 c:/program files (x86)/cypress/psoc creator/3.3/psoc creator/import/gnu/arm/4.9.3/bin/../lib/gcc/arm-none-eabi/4.9.3/armv6-m/crtbegin.o
 .eh_frame      0x00000fc4        0x4 c:/program files (x86)/cypress/psoc creator/3.3/psoc creator/import/gnu/arm/4.9.3/bin/../lib/gcc/arm-none-eabi/4.9.3/armv6-m/crtend.o
                0x00000fc8                PROVIDE (__exidx_start, .)

.ARM.exidx
 *(.ARM.exidx* .gnu.linkonce.armexidx.*)
                0x00000fc8                __exidx_end = .

.rodata         0x00000fc8       0x70
 *(.rodata .rodata.* .gnu.linkonce.r.*)
 .rodata        0x00000fc8        0xc .\CortexM0\ARM_GCC_493\Debug\SCB_EzI2cCommSlave01.a(cyfitter_cfg.o)
 .rodata        0x00000fd4       0x30 .\CortexM0\ARM_GCC_493\Debug\SCB_EzI2cCommSlave01.a(CyLib.o)
                0x00000fd4                cyImoFreqMhz2Reg
                0x00001004                . = ALIGN (0x4)
 *(.init)
 .init          0x00001004        0x4 c:/program files (x86)/cypress/psoc creator/3.3/psoc creator/import/gnu/arm/4.9.3/bin/../lib/gcc/arm-none-eabi/4.9.3/armv6-m/crti.o
                0x00001004                _init
 .init          0x00001008        0x8 c:/program files (x86)/cypress/psoc creator/3.3/psoc creator/import/gnu/arm/4.9.3/bin/../lib/gcc/arm-none-eabi/4.9.3/armv6-m/crtn.o
                0x00001010                . = ALIGN (0x4)
                0x00001010                __preinit_array_start = .
 *(.preinit_array)
                0x00001010                __preinit_array_end = .
                0x00001010                . = ALIGN (0x4)
                0x00001010                __init_array_start = .
 *(SORT(.init_array.*))
 *(.init_array)
 .init_array    0x00001010        0x4 c:/program files (x86)/cypress/psoc creator/3.3/psoc creator/import/gnu/arm/4.9.3/bin/../lib/gcc/arm-none-eabi/4.9.3/armv6-m/crtbegin.o
 .init_array    0x00001014        0x4 .\CortexM0\ARM_GCC_493\Debug\Cm0Start.o
                0x00001018                __init_array_end = .
                0x00001018                . = ALIGN (0x4)
 *(.fini)
 .fini          0x00001018        0x4 c:/program files (x86)/cypress/psoc creator/3.3/psoc creator/import/gnu/arm/4.9.3/bin/../lib/gcc/arm-none-eabi/4.9.3/armv6-m/crti.o
                0x00001018                _fini
 .fini          0x0000101c        0x8 c:/program files (x86)/cypress/psoc creator/3.3/psoc creator/import/gnu/arm/4.9.3/bin/../lib/gcc/arm-none-eabi/4.9.3/armv6-m/crtn.o
                0x00001024                . = ALIGN (0x4)
                0x00001024                __fini_array_start = .
 *(.fini_array)
 .fini_array    0x00001024        0x4 c:/program files (x86)/cypress/psoc creator/3.3/psoc creator/import/gnu/arm/4.9.3/bin/../lib/gcc/arm-none-eabi/4.9.3/armv6-m/crtbegin.o
 *(SORT(.fini_array.*))
                0x00001028                __fini_array_end = .
                0x00001028                . = ALIGN (0x4)
 *crtbegin.o(.ctors)
 *(EXCLUDE_FILE(*crtend.o) .ctors)
 *(SORT(.ctors.*))
 *crtend.o(.ctors)
                0x00001028                . = ALIGN (0x4)
 *crtbegin.o(.dtors)
 *(EXCLUDE_FILE(*crtend.o) .dtors)
 *(SORT(.dtors.*))
 *crtend.o(.dtors)
                0x00001028                . = ALIGN (0x4)
                0x00001028                __cy_regions = .
                0x00001028        0x4 LONG 0x1038 __cy_region_init_ram
                0x0000102c        0x4 LONG 0x200000c8 __cy_region_start_data
                0x00001030        0x4 LONG 0x20 __cy_region_init_size_ram
                0x00001034        0x4 LONG 0x40 __cy_region_zero_size_ram
                0x00001038                __cy_regions_end = .
                0x00001038                . = ALIGN (0x8)
                0x00001038                _etext = .

.cy_checksum_exclude
                0x00001038        0x0
 *(.cy_checksum_exclude)

.ramvectors     0x20000000       0xc0
                0x20000000                __cy_region_start_ram = .
 *(.ramvectors)
 .ramvectors    0x20000000       0xc0 .\CortexM0\ARM_GCC_493\Debug\Cm0Start.o
                0x20000000                CyRamVectors

.noinit         0x200000c0        0x4
 *(.noinit)
 .noinit        0x200000c0        0x4 .\CortexM0\ARM_GCC_493\Debug\Cm0Start.o

.data           0x200000c8       0x20 load address 0x00001038
                0x200000c8                __cy_region_start_data = .
 *(.jcr)
 .jcr           0x200000c8        0x0 c:/program files (x86)/cypress/psoc creator/3.3/psoc creator/import/gnu/arm/4.9.3/bin/../lib/gcc/arm-none-eabi/4.9.3/armv6-m/crtbegin.o
 .jcr           0x200000c8        0x4 c:/program files (x86)/cypress/psoc creator/3.3/psoc creator/import/gnu/arm/4.9.3/bin/../lib/gcc/arm-none-eabi/4.9.3/armv6-m/crtend.o
 *(.got.plt)
 *(.got)
 *(.shdata)
 *(.data .data.* .gnu.linkonce.d.*)
 .data          0x200000cc        0x8 .\CortexM0\ARM_GCC_493\Debug\main.o
                0x200000cc                ezI2cBuffer
 .data          0x200000d4       0x10 .\CortexM0\ARM_GCC_493\Debug\SCB_EzI2cCommSlave01.a(CyLib.o)
                0x200000d4                cydelayFreqHz
                0x200000d8                cydelayFreqKhz
                0x200000dc                cydelayFreqMhz
                0x200000e0                cydelay32kMs
                0x200000e8                . = ALIGN (0x8)
 *fill*         0x200000e4        0x4 
 *(.ram)
                0x200000e8                _edata = .

.igot.plt       0x200000e8        0x0 load address 0x00001058
 .igot.plt      0x00000000        0x0 c:/program files (x86)/cypress/psoc creator/3.3/psoc creator/import/gnu/arm/4.9.3/bin/../lib/gcc/arm-none-eabi/4.9.3/armv6-m/crtbegin.o

.bss            0x200000e8       0x40 load address 0x00001058
                0x200000e8                PROVIDE (__bss_start__, .)
 *(.shbss)
 *(.bss .bss.* .gnu.linkonce.b.*)
 .bss           0x200000e8       0x1c c:/program files (x86)/cypress/psoc creator/3.3/psoc creator/import/gnu/arm/4.9.3/bin/../lib/gcc/arm-none-eabi/4.9.3/armv6-m/crtbegin.o
 .bss           0x20000104        0x8 .\CortexM0\ARM_GCC_493\Debug\SCB_EzI2cCommSlave01.a(EZI2C.o)
                0x20000104                EZI2C_initVar
                0x20000108                EZI2C_customIntrHandler
 .bss           0x2000010c        0x2 .\CortexM0\ARM_GCC_493\Debug\SCB_EzI2cCommSlave01.a(EZI2C_EZI2C_INT.o)
 *(COMMON)
 *fill*         0x2000010e        0x2 
 COMMON         0x20000110       0x12 .\CortexM0\ARM_GCC_493\Debug\SCB_EzI2cCommSlave01.a(EZI2C_EZI2C.o)
                0x20000110                EZI2C_offsetBuf1
                0x20000112                EZI2C_indexBuf1
                0x20000114                EZI2C_fsmState
                0x20000116                EZI2C_protectBuf1
                0x20000118                EZI2C_curStatus
                0x2000011c                EZI2C_dataBuffer1
                0x20000120                EZI2C_bufSizeBuf1
                0x20000128                . = ALIGN (0x8)
 *fill*         0x20000122        0x6 
 *(.ram.b)
                0x20000128                _end = .
                0x20000128                __end = .
                0x20000128                PROVIDE (end, .)
                0x20000128                PROVIDE (__bss_end__, .)
                0x00001038                __cy_region_init_ram = LOADADDR (.data)
                0x00000020                __cy_region_init_size_ram = (_edata - ADDR (.data))
                0x00000040                __cy_region_zero_size_ram = (_end - _edata)

.heap           0x20000128      0x100 load address 0x00001058
                0x20000128                . = _end
                0x20000228                . = (. + 0x100)
 *fill*         0x20000128      0x100 
                0x20000228                __cy_heap_limit = .

.stack          0x20003c00      0x400
                0x20003c00                __cy_stack_limit = .
                0x20004000                . = (. + 0x400)
 *fill*         0x20003c00      0x400 
                0x00000001                ASSERT ((__cy_stack_limit >= __cy_heap_limit), region RAM overflowed with stack)
                0x00000000                cy_checksum_exclude_size = (CY_APPL_LOADABLE == 0x1)?SIZEOF (.cy_checksum_exclude):0x0
                0x00000001                ASSERT ((cy_checksum_exclude_size <= CY_CHECKSUM_EXCLUDE_SIZE), CY_BOOT: Section .cy_checksum_exclude size exceedes specified limit.)
                0x0001ffc0                cyloadermeta_start = (cy_project_type_bootloader || cy_project_type_app_for_stack_and_copier)?(0x20000 - CY_METADATA_SIZE):0xf0000000

.cyloadermeta
 *(.cyloadermeta)
                0x0001ffc0                cyloadablemeta_start = cy_project_type_app_for_stack_and_copier?((0x20000 - CY_FLASH_ROW_SIZE) - CY_METADATA_SIZE):((0x20000 - (CY_FLASH_ROW_SIZE * (CY_APPL_NUM - 0x1))) - CY_METADATA_SIZE)

.cyloadablemeta
 *(.cyloadablemeta)

.cyflashprotect
                0x90400000       0x80
 *(.cyflashprotect)
 .cyflashprotect
                0x90400000       0x80 .\CortexM0\ARM_GCC_493\Debug\cymetadata.o
                0x90400000                cy_meta_flashprotect

.cymeta         0x90500000        0xc
 *(.cymeta)
 .cymeta        0x90500000        0xc .\CortexM0\ARM_GCC_493\Debug\cymetadata.o
                0x90500000                cy_metadata

.cychipprotect  0x90600000        0x4
 *(.cychipprotect)
 .cychipprotect
                0x90600000        0x4 .\CortexM0\ARM_GCC_493\Debug\cymetadata.o
                0x90600000                cy_meta_chipprotect

.rel.dyn        0x00001058        0x0 load address 0x90600004
 .rel.iplt      0x00000000        0x0 c:/program files (x86)/cypress/psoc creator/3.3/psoc creator/import/gnu/arm/4.9.3/bin/../lib/gcc/arm-none-eabi/4.9.3/armv6-m/crtbegin.o

.stab
 *(.stab)

.stabstr
 *(.stabstr)

.debug
 *(.debug)

.line
 *(.line)

.debug_srcinfo
 *(.debug_srcinfo)

.debug_sfnames
 *(.debug_sfnames)

.debug_aranges  0x00000000      0x5a0
 *(.debug_aranges)
 .debug_aranges
                0x00000000       0x28 .\CortexM0\ARM_GCC_493\Debug\main.o
 .debug_aranges
                0x00000028       0x18 .\CortexM0\ARM_GCC_493\Debug\cymetadata.o
 .debug_aranges
                0x00000040       0x48 .\CortexM0\ARM_GCC_493\Debug\Cm0Start.o
 .debug_aranges
                0x00000088       0x48 .\CortexM0\ARM_GCC_493\Debug\SCB_EzI2cCommSlave01.a(cyfitter_cfg.o)
 .debug_aranges
                0x000000d0       0x68 .\CortexM0\ARM_GCC_493\Debug\SCB_EzI2cCommSlave01.a(EZI2C.o)
 .debug_aranges
                0x00000138       0x50 .\CortexM0\ARM_GCC_493\Debug\SCB_EzI2cCommSlave01.a(EZI2C_EZI2C.o)
 .debug_aranges
                0x00000188       0x20 .\CortexM0\ARM_GCC_493\Debug\SCB_EzI2cCommSlave01.a(EZI2C_EZI2C_INT.o)
 .debug_aranges
                0x000001a8       0x48 .\CortexM0\ARM_GCC_493\Debug\SCB_EzI2cCommSlave01.a(LED_RED.o)
 .debug_aranges
                0x000001f0       0x48 .\CortexM0\ARM_GCC_493\Debug\SCB_EzI2cCommSlave01.a(LED_GREEN.o)
 .debug_aranges
                0x00000238       0x48 .\CortexM0\ARM_GCC_493\Debug\SCB_EzI2cCommSlave01.a(LED_BLUE.o)
 .debug_aranges
                0x00000280      0x1a0 .\CortexM0\ARM_GCC_493\Debug\SCB_EzI2cCommSlave01.a(CyLib.o)
 .debug_aranges
                0x00000420      0x160 .\CortexM0\ARM_GCC_493\Debug\SCB_EzI2cCommSlave01.a(CyLFClk.o)
 .debug_aranges
                0x00000580       0x20 .\CortexM0\ARM_GCC_493\Debug\SCB_EzI2cCommSlave01.a(CyBootAsmGnu.o)

.debug_pubnames
 *(.debug_pubnames)

.debug_info     0x00000000     0x24a6
 *(.debug_info .gnu.linkonce.wi.*)
 .debug_info    0x00000000      0x11f .\CortexM0\ARM_GCC_493\Debug\main.o
 .debug_info    0x0000011f       0xfe .\CortexM0\ARM_GCC_493\Debug\cymetadata.o
 .debug_info    0x0000021d      0x302 .\CortexM0\ARM_GCC_493\Debug\Cm0Start.o
 .debug_info    0x0000051f      0x24b .\CortexM0\ARM_GCC_493\Debug\SCB_EzI2cCommSlave01.a(cyfitter_cfg.o)
 .debug_info    0x0000076a      0x1e4 .\CortexM0\ARM_GCC_493\Debug\SCB_EzI2cCommSlave01.a(EZI2C.o)
 .debug_info    0x0000094e      0x25f .\CortexM0\ARM_GCC_493\Debug\SCB_EzI2cCommSlave01.a(EZI2C_EZI2C.o)
 .debug_info    0x00000bad      0x1bc .\CortexM0\ARM_GCC_493\Debug\SCB_EzI2cCommSlave01.a(EZI2C_EZI2C_INT.o)
 .debug_info    0x00000d69      0x19a .\CortexM0\ARM_GCC_493\Debug\SCB_EzI2cCommSlave01.a(LED_RED.o)
 .debug_info    0x00000f03      0x19a .\CortexM0\ARM_GCC_493\Debug\SCB_EzI2cCommSlave01.a(LED_GREEN.o)
 .debug_info    0x0000109d      0x19a .\CortexM0\ARM_GCC_493\Debug\SCB_EzI2cCommSlave01.a(LED_BLUE.o)
 .debug_info    0x00001237      0x985 .\CortexM0\ARM_GCC_493\Debug\SCB_EzI2cCommSlave01.a(CyLib.o)
 .debug_info    0x00001bbc      0x84d .\CortexM0\ARM_GCC_493\Debug\SCB_EzI2cCommSlave01.a(CyLFClk.o)
 .debug_info    0x00002409       0x9d .\CortexM0\ARM_GCC_493\Debug\SCB_EzI2cCommSlave01.a(CyBootAsmGnu.o)

.debug_abbrev   0x00000000      0xc27
 *(.debug_abbrev)
 .debug_abbrev  0x00000000       0xae .\CortexM0\ARM_GCC_493\Debug\main.o
 .debug_abbrev  0x000000ae       0x5d .\CortexM0\ARM_GCC_493\Debug\cymetadata.o
 .debug_abbrev  0x0000010b      0x17c .\CortexM0\ARM_GCC_493\Debug\Cm0Start.o
 .debug_abbrev  0x00000287      0x145 .\CortexM0\ARM_GCC_493\Debug\SCB_EzI2cCommSlave01.a(cyfitter_cfg.o)
 .debug_abbrev  0x000003cc       0xdb .\CortexM0\ARM_GCC_493\Debug\SCB_EzI2cCommSlave01.a(EZI2C.o)
 .debug_abbrev  0x000004a7      0x11b .\CortexM0\ARM_GCC_493\Debug\SCB_EzI2cCommSlave01.a(EZI2C_EZI2C.o)
 .debug_abbrev  0x000005c2       0x88 .\CortexM0\ARM_GCC_493\Debug\SCB_EzI2cCommSlave01.a(EZI2C_EZI2C_INT.o)
 .debug_abbrev  0x0000064a       0xaa .\CortexM0\ARM_GCC_493\Debug\SCB_EzI2cCommSlave01.a(LED_RED.o)
 .debug_abbrev  0x000006f4       0xaa .\CortexM0\ARM_GCC_493\Debug\SCB_EzI2cCommSlave01.a(LED_GREEN.o)
 .debug_abbrev  0x0000079e       0xaa .\CortexM0\ARM_GCC_493\Debug\SCB_EzI2cCommSlave01.a(LED_BLUE.o)
 .debug_abbrev  0x00000848      0x1a7 .\CortexM0\ARM_GCC_493\Debug\SCB_EzI2cCommSlave01.a(CyLib.o)
 .debug_abbrev  0x000009ef      0x224 .\CortexM0\ARM_GCC_493\Debug\SCB_EzI2cCommSlave01.a(CyLFClk.o)
 .debug_abbrev  0x00000c13       0x14 .\CortexM0\ARM_GCC_493\Debug\SCB_EzI2cCommSlave01.a(CyBootAsmGnu.o)

.debug_line     0x00000000     0x14b5
 *(.debug_line)
 .debug_line    0x00000000       0x8f .\CortexM0\ARM_GCC_493\Debug\main.o
 .debug_line    0x0000008f       0x53 .\CortexM0\ARM_GCC_493\Debug\cymetadata.o
 .debug_line    0x000000e2      0x1ca .\CortexM0\ARM_GCC_493\Debug\Cm0Start.o
 .debug_line    0x000002ac      0x172 .\CortexM0\ARM_GCC_493\Debug\SCB_EzI2cCommSlave01.a(cyfitter_cfg.o)
 .debug_line    0x0000041e      0x135 .\CortexM0\ARM_GCC_493\Debug\SCB_EzI2cCommSlave01.a(EZI2C.o)
 .debug_line    0x00000553      0x113 .\CortexM0\ARM_GCC_493\Debug\SCB_EzI2cCommSlave01.a(EZI2C_EZI2C.o)
 .debug_line    0x00000666      0x145 .\CortexM0\ARM_GCC_493\Debug\SCB_EzI2cCommSlave01.a(EZI2C_EZI2C_INT.o)
 .debug_line    0x000007ab       0xc1 .\CortexM0\ARM_GCC_493\Debug\SCB_EzI2cCommSlave01.a(LED_RED.o)
 .debug_line    0x0000086c       0xc3 .\CortexM0\ARM_GCC_493\Debug\SCB_EzI2cCommSlave01.a(LED_GREEN.o)
 .debug_line    0x0000092f       0xc2 .\CortexM0\ARM_GCC_493\Debug\SCB_EzI2cCommSlave01.a(LED_BLUE.o)
 .debug_line    0x000009f1      0x4af .\CortexM0\ARM_GCC_493\Debug\SCB_EzI2cCommSlave01.a(CyLib.o)
 .debug_line    0x00000ea0      0x5ad .\CortexM0\ARM_GCC_493\Debug\SCB_EzI2cCommSlave01.a(CyLFClk.o)
 .debug_line    0x0000144d       0x68 .\CortexM0\ARM_GCC_493\Debug\SCB_EzI2cCommSlave01.a(CyBootAsmGnu.o)

.debug_frame    0x00000000     0x1288
 *(.debug_frame)
 .debug_frame   0x00000000       0x54 .\CortexM0\ARM_GCC_493\Debug\main.o
 .debug_frame   0x00000054       0xc8 .\CortexM0\ARM_GCC_493\Debug\Cm0Start.o
 .debug_frame   0x0000011c       0xc8 .\CortexM0\ARM_GCC_493\Debug\SCB_EzI2cCommSlave01.a(cyfitter_cfg.o)
 .debug_frame   0x000001e4      0x134 .\CortexM0\ARM_GCC_493\Debug\SCB_EzI2cCommSlave01.a(EZI2C.o)
 .debug_frame   0x00000318       0xe8 .\CortexM0\ARM_GCC_493\Debug\SCB_EzI2cCommSlave01.a(EZI2C_EZI2C.o)
 .debug_frame   0x00000400       0x30 .\CortexM0\ARM_GCC_493\Debug\SCB_EzI2cCommSlave01.a(EZI2C_EZI2C_INT.o)
 .debug_frame   0x00000430       0xc8 .\CortexM0\ARM_GCC_493\Debug\SCB_EzI2cCommSlave01.a(LED_RED.o)
 .debug_frame   0x000004f8       0xc8 .\CortexM0\ARM_GCC_493\Debug\SCB_EzI2cCommSlave01.a(LED_GREEN.o)
 .debug_frame   0x000005c0       0xc8 .\CortexM0\ARM_GCC_493\Debug\SCB_EzI2cCommSlave01.a(LED_BLUE.o)
 .debug_frame   0x00000688      0x608 .\CortexM0\ARM_GCC_493\Debug\SCB_EzI2cCommSlave01.a(CyLib.o)
 .debug_frame   0x00000c90      0x51c .\CortexM0\ARM_GCC_493\Debug\SCB_EzI2cCommSlave01.a(CyLFClk.o)
 .debug_frame   0x000011ac       0x20 c:/program files (x86)/cypress/psoc creator/3.3/psoc creator/import/gnu/arm/4.9.3/bin/../lib/gcc/arm-none-eabi/4.9.3/armv6-m\libgcc.a(_udivsi3.o)
 .debug_frame   0x000011cc       0x20 c:/program files (x86)/cypress/psoc creator/3.3/psoc creator/import/gnu/arm/4.9.3/bin/../lib/gcc/arm-none-eabi/4.9.3/../../../../arm-none-eabi/lib/armv6-m\libg_nano.a(lib_a-errno.o)
 .debug_frame   0x000011ec       0x28 c:/program files (x86)/cypress/psoc creator/3.3/psoc creator/import/gnu/arm/4.9.3/bin/../lib/gcc/arm-none-eabi/4.9.3/../../../../arm-none-eabi/lib/armv6-m\libg_nano.a(lib_a-exit.o)
 .debug_frame   0x00001214       0x2c c:/program files (x86)/cypress/psoc creator/3.3/psoc creator/import/gnu/arm/4.9.3/bin/../lib/gcc/arm-none-eabi/4.9.3/../../../../arm-none-eabi/lib/armv6-m\libg_nano.a(lib_a-init.o)
 .debug_frame   0x00001240       0x28 c:/program files (x86)/cypress/psoc creator/3.3/psoc creator/import/gnu/arm/4.9.3/bin/../lib/gcc/arm-none-eabi/4.9.3/../../../../arm-none-eabi/lib/armv6-m\libg_nano.a(lib_a-memcpy.o)
 .debug_frame   0x00001268       0x20 c:/program files (x86)/cypress/psoc creator/3.3/psoc creator/import/gnu/arm/4.9.3/bin/../lib/gcc/arm-none-eabi/4.9.3/../../../../arm-none-eabi/lib/armv6-m\libg_nano.a(lib_a-memset.o)

.debug_str      0x00000000     0x12f2
 *(.debug_str)
 .debug_str     0x00000000      0x177 .\CortexM0\ARM_GCC_493\Debug\main.o
                                0x1b7 (size before relaxing)
 .debug_str     0x00000177       0x5b .\CortexM0\ARM_GCC_493\Debug\cymetadata.o
                                0x1db (size before relaxing)
 .debug_str     0x000001d2      0x12e .\CortexM0\ARM_GCC_493\Debug\Cm0Start.o
                                0x2cf (size before relaxing)
 .debug_str     0x00000300       0xa5 .\CortexM0\ARM_GCC_493\Debug\SCB_EzI2cCommSlave01.a(cyfitter_cfg.o)
                                0x246 (size before relaxing)
 .debug_str     0x000003a5      0x11f .\CortexM0\ARM_GCC_493\Debug\SCB_EzI2cCommSlave01.a(EZI2C.o)
                                0x2ac (size before relaxing)
 .debug_str     0x000004c4      0x15d .\CortexM0\ARM_GCC_493\Debug\SCB_EzI2cCommSlave01.a(EZI2C_EZI2C.o)
                                0x300 (size before relaxing)
 .debug_str     0x00000621       0x99 .\CortexM0\ARM_GCC_493\Debug\SCB_EzI2cCommSlave01.a(EZI2C_EZI2C_INT.o)
                                0x2c8 (size before relaxing)
 .debug_str     0x000006ba       0xc6 .\CortexM0\ARM_GCC_493\Debug\SCB_EzI2cCommSlave01.a(LED_RED.o)
                                0x251 (size before relaxing)
 .debug_str     0x00000780       0xa5 .\CortexM0\ARM_GCC_493\Debug\SCB_EzI2cCommSlave01.a(LED_GREEN.o)
                                0x25f (size before relaxing)
 .debug_str     0x00000825       0x9e .\CortexM0\ARM_GCC_493\Debug\SCB_EzI2cCommSlave01.a(LED_BLUE.o)
                                0x258 (size before relaxing)
 .debug_str     0x000008c3      0x4fa .\CortexM0\ARM_GCC_493\Debug\SCB_EzI2cCommSlave01.a(CyLib.o)
                                0x6ba (size before relaxing)
 .debug_str     0x00000dbd      0x535 .\CortexM0\ARM_GCC_493\Debug\SCB_EzI2cCommSlave01.a(CyLFClk.o)
                                0x6ed (size before relaxing)

.debug_loc
 *(.debug_loc)

.debug_macinfo
 *(.debug_macinfo)

.debug_ranges   0x00000000      0x4b8
 *(.debug_ranges)
 .debug_ranges  0x00000000       0x18 .\CortexM0\ARM_GCC_493\Debug\main.o
 .debug_ranges  0x00000018       0x38 .\CortexM0\ARM_GCC_493\Debug\Cm0Start.o
 .debug_ranges  0x00000050       0x38 .\CortexM0\ARM_GCC_493\Debug\SCB_EzI2cCommSlave01.a(cyfitter_cfg.o)
 .debug_ranges  0x00000088       0x58 .\CortexM0\ARM_GCC_493\Debug\SCB_EzI2cCommSlave01.a(EZI2C.o)
 .debug_ranges  0x000000e0       0x40 .\CortexM0\ARM_GCC_493\Debug\SCB_EzI2cCommSlave01.a(EZI2C_EZI2C.o)
 .debug_ranges  0x00000120       0x10 .\CortexM0\ARM_GCC_493\Debug\SCB_EzI2cCommSlave01.a(EZI2C_EZI2C_INT.o)
 .debug_ranges  0x00000130       0x38 .\CortexM0\ARM_GCC_493\Debug\SCB_EzI2cCommSlave01.a(LED_RED.o)
 .debug_ranges  0x00000168       0x38 .\CortexM0\ARM_GCC_493\Debug\SCB_EzI2cCommSlave01.a(LED_GREEN.o)
 .debug_ranges  0x000001a0       0x38 .\CortexM0\ARM_GCC_493\Debug\SCB_EzI2cCommSlave01.a(LED_BLUE.o)
 .debug_ranges  0x000001d8      0x190 .\CortexM0\ARM_GCC_493\Debug\SCB_EzI2cCommSlave01.a(CyLib.o)
 .debug_ranges  0x00000368      0x150 .\CortexM0\ARM_GCC_493\Debug\SCB_EzI2cCommSlave01.a(CyLFClk.o)

.comment        0x00000000       0x70
 .comment       0x00000000       0x70 .\CortexM0\ARM_GCC_493\Debug\main.o
                                 0x71 (size before relaxing)
 .comment       0x00000000       0x71 .\CortexM0\ARM_GCC_493\Debug\cymetadata.o
 .comment       0x00000000       0x71 .\CortexM0\ARM_GCC_493\Debug\Cm0Start.o
 .comment       0x00000000       0x71 .\CortexM0\ARM_GCC_493\Debug\SCB_EzI2cCommSlave01.a(cyfitter_cfg.o)
 .comment       0x00000000       0x71 .\CortexM0\ARM_GCC_493\Debug\SCB_EzI2cCommSlave01.a(EZI2C.o)
 .comment       0x00000000       0x71 .\CortexM0\ARM_GCC_493\Debug\SCB_EzI2cCommSlave01.a(EZI2C_EZI2C.o)
 .comment       0x00000000       0x71 .\CortexM0\ARM_GCC_493\Debug\SCB_EzI2cCommSlave01.a(EZI2C_EZI2C_INT.o)
 .comment       0x00000000       0x71 .\CortexM0\ARM_GCC_493\Debug\SCB_EzI2cCommSlave01.a(LED_RED.o)
 .comment       0x00000000       0x71 .\CortexM0\ARM_GCC_493\Debug\SCB_EzI2cCommSlave01.a(LED_GREEN.o)
 .comment       0x00000000       0x71 .\CortexM0\ARM_GCC_493\Debug\SCB_EzI2cCommSlave01.a(LED_BLUE.o)
 .comment       0x00000000       0x71 .\CortexM0\ARM_GCC_493\Debug\SCB_EzI2cCommSlave01.a(CyLib.o)
 .comment       0x00000000       0x71 .\CortexM0\ARM_GCC_493\Debug\SCB_EzI2cCommSlave01.a(CyLFClk.o)

.debug_weaknames
 *(.debug_weaknames)

.debug_funcnames
 *(.debug_funcnames)

.debug_typenames
 *(.debug_typenames)

.debug_varnames
 *(.debug_varnames)

.note.gnu.arm.ident
 *(.note.gnu.arm.ident)

.ARM.attributes
                0x00000000       0x28
 *(.ARM.attributes)
 .ARM.attributes
                0x00000000       0x1e c:/program files (x86)/cypress/psoc creator/3.3/psoc creator/import/gnu/arm/4.9.3/bin/../lib/gcc/arm-none-eabi/4.9.3/armv6-m/crti.o
 .ARM.attributes
                0x0000001e       0x2c c:/program files (x86)/cypress/psoc creator/3.3/psoc creator/import/gnu/arm/4.9.3/bin/../lib/gcc/arm-none-eabi/4.9.3/armv6-m/crtbegin.o
 .ARM.attributes
                0x0000004a       0x1b c:/program files (x86)/cypress/psoc creator/3.3/psoc creator/import/gnu/arm/4.9.3/bin/../lib/gcc/arm-none-eabi/4.9.3/../../../../arm-none-eabi/lib/armv6-m/crt0.o
 .ARM.attributes
                0x00000065       0x31 .\CortexM0\ARM_GCC_493\Debug\main.o
 .ARM.attributes
                0x00000096       0x31 .\CortexM0\ARM_GCC_493\Debug\cymetadata.o
 .ARM.attributes
                0x000000c7       0x31 .\CortexM0\ARM_GCC_493\Debug\Cm0Start.o
 .ARM.attributes
                0x000000f8       0x31 .\CortexM0\ARM_GCC_493\Debug\SCB_EzI2cCommSlave01.a(cyfitter_cfg.o)
 .ARM.attributes
                0x00000129       0x31 .\CortexM0\ARM_GCC_493\Debug\SCB_EzI2cCommSlave01.a(EZI2C.o)
 .ARM.attributes
                0x0000015a       0x31 .\CortexM0\ARM_GCC_493\Debug\SCB_EzI2cCommSlave01.a(EZI2C_EZI2C.o)
 .ARM.attributes
                0x0000018b       0x31 .\CortexM0\ARM_GCC_493\Debug\SCB_EzI2cCommSlave01.a(EZI2C_EZI2C_INT.o)
 .ARM.attributes
                0x000001bc       0x31 .\CortexM0\ARM_GCC_493\Debug\SCB_EzI2cCommSlave01.a(LED_RED.o)
 .ARM.attributes
                0x000001ed       0x31 .\CortexM0\ARM_GCC_493\Debug\SCB_EzI2cCommSlave01.a(LED_GREEN.o)
 .ARM.attributes
                0x0000021e       0x31 .\CortexM0\ARM_GCC_493\Debug\SCB_EzI2cCommSlave01.a(LED_BLUE.o)
 .ARM.attributes
                0x0000024f       0x31 .\CortexM0\ARM_GCC_493\Debug\SCB_EzI2cCommSlave01.a(CyLib.o)
 .ARM.attributes
                0x00000280       0x31 .\CortexM0\ARM_GCC_493\Debug\SCB_EzI2cCommSlave01.a(CyLFClk.o)
 .ARM.attributes
                0x000002b1       0x21 .\CortexM0\ARM_GCC_493\Debug\SCB_EzI2cCommSlave01.a(CyBootAsmGnu.o)
 .ARM.attributes
                0x000002d2       0x1e c:/program files (x86)/cypress/psoc creator/3.3/psoc creator/import/gnu/arm/4.9.3/bin/../lib/gcc/arm-none-eabi/4.9.3/armv6-m\libgcc.a(_udivsi3.o)
 .ARM.attributes
                0x000002f0       0x1e c:/program files (x86)/cypress/psoc creator/3.3/psoc creator/import/gnu/arm/4.9.3/bin/../lib/gcc/arm-none-eabi/4.9.3/armv6-m\libgcc.a(_dvmd_tls.o)
 .ARM.attributes
                0x0000030e       0x2c c:/program files (x86)/cypress/psoc creator/3.3/psoc creator/import/gnu/arm/4.9.3/bin/../lib/gcc/arm-none-eabi/4.9.3/../../../../arm-none-eabi/lib/armv6-m\libg_nano.a(lib_a-errno.o)
 .ARM.attributes
                0x0000033a       0x2c c:/program files (x86)/cypress/psoc creator/3.3/psoc creator/import/gnu/arm/4.9.3/bin/../lib/gcc/arm-none-eabi/4.9.3/../../../../arm-none-eabi/lib/armv6-m\libg_nano.a(lib_a-exit.o)
 .ARM.attributes
                0x00000366       0x2c c:/program files (x86)/cypress/psoc creator/3.3/psoc creator/import/gnu/arm/4.9.3/bin/../lib/gcc/arm-none-eabi/4.9.3/../../../../arm-none-eabi/lib/armv6-m\libg_nano.a(lib_a-impure.o)
 .ARM.attributes
                0x00000392       0x2c c:/program files (x86)/cypress/psoc creator/3.3/psoc creator/import/gnu/arm/4.9.3/bin/../lib/gcc/arm-none-eabi/4.9.3/../../../../arm-none-eabi/lib/armv6-m\libg_nano.a(lib_a-init.o)
 .ARM.attributes
                0x000003be       0x2c c:/program files (x86)/cypress/psoc creator/3.3/psoc creator/import/gnu/arm/4.9.3/bin/../lib/gcc/arm-none-eabi/4.9.3/../../../../arm-none-eabi/lib/armv6-m\libg_nano.a(lib_a-memcpy.o)
 .ARM.attributes
                0x000003ea       0x2c c:/program files (x86)/cypress/psoc creator/3.3/psoc creator/import/gnu/arm/4.9.3/bin/../lib/gcc/arm-none-eabi/4.9.3/../../../../arm-none-eabi/lib/armv6-m\libg_nano.a(lib_a-memset.o)
 .ARM.attributes
                0x00000416       0x2c c:/program files (x86)/cypress/psoc creator/3.3/psoc creator/import/gnu/arm/4.9.3/bin/../lib/gcc/arm-none-eabi/4.9.3/armv6-m/crtend.o
 .ARM.attributes
                0x00000442       0x1e c:/program files (x86)/cypress/psoc creator/3.3/psoc creator/import/gnu/arm/4.9.3/bin/../lib/gcc/arm-none-eabi/4.9.3/armv6-m/crtn.o

/DISCARD/
 *(.note.GNU-stack)
OUTPUT(.\CortexM0\ARM_GCC_493\Debug\SCB_EzI2cCommSlave01.elf elf32-littlearm)
