ARM GAS  C:\Users\DELL\AppData\Local\Temp\ccQikhSB.s 			page 1


   1              		.cpu cortex-m0
   2              		.fpu softvfp
   3              		.eabi_attribute 20, 1
   4              		.eabi_attribute 21, 1
   5              		.eabi_attribute 23, 3
   6              		.eabi_attribute 24, 1
   7              		.eabi_attribute 25, 1
   8              		.eabi_attribute 26, 1
   9              		.eabi_attribute 30, 6
  10              		.eabi_attribute 34, 0
  11              		.eabi_attribute 18, 4
  12              		.code	16
  13              		.file	"main.c"
  14              		.text
  15              	.Ltext0:
  16              		.cfi_sections	.debug_frame
  17              		.global	ezI2cBuffer
  18              		.data
  19              		.align	2
  20              		.type	ezI2cBuffer, %object
  21              		.size	ezI2cBuffer, 6
  22              	ezI2cBuffer:
  23 0000 01       		.byte	1
  24 0001 FF       		.byte	-1
  25 0002 17       		.byte	23
  26 0003 01       		.byte	1
  27 0004 FF       		.byte	-1
  28 0005 17       		.byte	23
  29 0006 0000     		.section	.text.main,"ax",%progbits
  30              		.align	2
  31              		.global	main
  32              		.code	16
  33              		.thumb_func
  34              		.type	main, %function
  35              	main:
  36              	.LFB37:
  37              		.file 1 ".\\main.c"
   1:.\main.c      **** /*******************************************************************************
   2:.\main.c      **** * File Name: main.c
   3:.\main.c      **** *
   4:.\main.c      **** * Version: 1.20
   5:.\main.c      **** *
   6:.\main.c      **** * Description:
   7:.\main.c      **** *  This example project demonstrates the basic operation of the EZI2C slave
   8:.\main.c      **** *  (SCB mode) component. The EZI2C slave accepts a packet with a command from
   9:.\main.c      **** *  the I2C master to control the RGB LED color. The EZI2C slave updates its
  10:.\main.c      **** *  buffer with the status packet in response to the accepted command.
  11:.\main.c      **** *  For more information refer to example project datasheet.
  12:.\main.c      **** *
  13:.\main.c      **** ********************************************************************************
  14:.\main.c      **** * Copyright 2014-2015, Cypress Semiconductor Corporation. All rights reserved.
  15:.\main.c      **** * This software is owned by Cypress Semiconductor Corporation and is protected
  16:.\main.c      **** * by and subject to worldwide patent and copyright laws and treaties.
  17:.\main.c      **** * Therefore, you may use this software only as provided in the license agreement
  18:.\main.c      **** * accompanying the software package from which you obtained this software.
  19:.\main.c      **** * CYPRESS AND ITS SUPPLIERS MAKE NO WARRANTY OF ANY KIND, EXPRESS OR IMPLIED,
  20:.\main.c      **** * WITH REGARD TO THIS SOFTWARE, INCLUDING, BUT NOT LIMITED TO, NONINFRINGEMENT,
ARM GAS  C:\Users\DELL\AppData\Local\Temp\ccQikhSB.s 			page 2


  21:.\main.c      **** * IMPLIED WARRANTIES OF MERCHANTABILITY AND FITNESS FOR A PARTICULAR PURPOSE.
  22:.\main.c      **** *******************************************************************************/
  23:.\main.c      **** 
  24:.\main.c      **** #include <main.h>
  25:.\main.c      **** 
  26:.\main.c      **** /* EZI2C slave buffer for write and read */
  27:.\main.c      **** uint8 ezI2cBuffer[BUFFER_SIZE] = {PACKET_SOP, STS_CMD_FAIL, PACKET_EOP, \
  28:.\main.c      ****                                   PACKET_SOP, STS_CMD_FAIL, PACKET_EOP};
  29:.\main.c      **** 
  30:.\main.c      **** 
  31:.\main.c      **** /*******************************************************************************
  32:.\main.c      **** * Function Name: main
  33:.\main.c      **** ********************************************************************************
  34:.\main.c      **** * Summary:
  35:.\main.c      **** *  The main function performs the following actions:
  36:.\main.c      **** *   1. Turns off RGB LED.
  37:.\main.c      **** *   2. Sets up EZI2C slave buffer.
  38:.\main.c      **** *   3. Starts I2C slave (SCB mode) component.
  39:.\main.c      **** *   4. Enables global interrupts.
  40:.\main.c      **** *   5. Waits for command from the I2C master to control the RGB LED.
  41:.\main.c      **** *
  42:.\main.c      **** * Parameters:
  43:.\main.c      **** *  None
  44:.\main.c      **** *
  45:.\main.c      **** * Return:
  46:.\main.c      **** *  None
  47:.\main.c      **** *
  48:.\main.c      **** *******************************************************************************/
  49:.\main.c      **** int main()
  50:.\main.c      **** {
  38              		.loc 1 50 0
  39              		.cfi_startproc
  40 0000 90B5     		push	{r4, r7, lr}
  41              		.cfi_def_cfa_offset 12
  42              		.cfi_offset 4, -12
  43              		.cfi_offset 7, -8
  44              		.cfi_offset 14, -4
  45 0002 83B0     		sub	sp, sp, #12
  46              		.cfi_def_cfa_offset 24
  47 0004 00AF     		add	r7, sp, #0
  48              		.cfi_def_cfa_register 7
  51:.\main.c      ****     uint8 status = STS_CMD_FAIL;
  49              		.loc 1 51 0
  50 0006 FB1D     		add	r3, r7, #7
  51 0008 FF22     		mov	r2, #255
  52 000a 1A70     		strb	r2, [r3]
  52:.\main.c      **** 
  53:.\main.c      ****     RGB_LED_OFF;
  53              		.loc 1 53 0
  54 000c 0120     		mov	r0, #1
  55 000e FFF7FEFF 		bl	LED_RED_Write
  56 0012 0120     		mov	r0, #1
  57 0014 FFF7FEFF 		bl	LED_GREEN_Write
  58 0018 0120     		mov	r0, #1
  59 001a FFF7FEFF 		bl	LED_BLUE_Write
  54:.\main.c      **** 
  55:.\main.c      ****     /* Setup buffer and start EZI2C slave (SCB mode) */
ARM GAS  C:\Users\DELL\AppData\Local\Temp\ccQikhSB.s 			page 3


  56:.\main.c      ****     EZI2C_EzI2CSetBuffer1(BUFFER_SIZE, READ_ONLY_OFFSET, ezI2cBuffer);
  60              		.loc 1 56 0
  61 001e 134B     		ldr	r3, .L5
  62 0020 0620     		mov	r0, #6
  63 0022 0321     		mov	r1, #3
  64 0024 1A1C     		mov	r2, r3
  65 0026 FFF7FEFF 		bl	EZI2C_EzI2CSetBuffer1
  57:.\main.c      ****     EZI2C_Start();
  66              		.loc 1 57 0
  67 002a FFF7FEFF 		bl	EZI2C_Start
  58:.\main.c      **** 
  59:.\main.c      ****     CyGlobalIntEnable;
  68              		.loc 1 59 0
  69              	@ 59 ".\main.c" 1
  70 002e 62B6     		CPSIE   i
  71              	@ 0 "" 2
  72              		.code	16
  73              	.L4:
  60:.\main.c      **** 
  61:.\main.c      ****     for(;;)
  62:.\main.c      ****     {
  63:.\main.c      ****         /* Write complete: parse packet */
  64:.\main.c      ****         if (0u != (EZI2C_EzI2CGetActivity() & EZI2C_EZI2C_STATUS_WRITE1))
  74              		.loc 1 64 0
  75 0030 FFF7FEFF 		bl	EZI2C_EzI2CGetActivity
  76 0034 021C     		mov	r2, r0
  77 0036 0823     		mov	r3, #8
  78 0038 1340     		and	r3, r2
  79 003a 16D0     		beq	.L2
  65:.\main.c      ****         {
  66:.\main.c      ****             /* Check start and end of packet markers */
  67:.\main.c      ****             if ((ezI2cBuffer[PACKET_SOP_POS] == PACKET_SOP) &&
  80              		.loc 1 67 0
  81 003c 0B4B     		ldr	r3, .L5
  82 003e 1B78     		ldrb	r3, [r3]
  83 0040 012B     		cmp	r3, #1
  84 0042 0BD1     		bne	.L3
  68:.\main.c      ****                 (ezI2cBuffer[PACKET_EOP_POS] == PACKET_EOP))
  85              		.loc 1 68 0 discriminator 1
  86 0044 094B     		ldr	r3, .L5
  87 0046 9B78     		ldrb	r3, [r3, #2]
  67:.\main.c      ****                 (ezI2cBuffer[PACKET_EOP_POS] == PACKET_EOP))
  88              		.loc 1 67 0 discriminator 1
  89 0048 172B     		cmp	r3, #23
  90 004a 07D1     		bne	.L3
  69:.\main.c      ****             {
  70:.\main.c      ****                 status = ExecuteCommand(ezI2cBuffer[PACKET_CMD_POS]);
  91              		.loc 1 70 0
  92 004c 074B     		ldr	r3, .L5
  93 004e 5B78     		ldrb	r3, [r3, #1]
  94 0050 FC1D     		add	r4, r7, #7
  95 0052 181C     		mov	r0, r3
  96 0054 FFF7FEFF 		bl	ExecuteCommand
  97 0058 031C     		mov	r3, r0
  98 005a 2370     		strb	r3, [r4]
  99              	.L3:
  71:.\main.c      ****             }
ARM GAS  C:\Users\DELL\AppData\Local\Temp\ccQikhSB.s 			page 4


  72:.\main.c      **** 
  73:.\main.c      ****             /* Update buffer with status */
  74:.\main.c      ****             ezI2cBuffer[PACKET_STS_POS] = status;
 100              		.loc 1 74 0
 101 005c 034B     		ldr	r3, .L5
 102 005e FA1D     		add	r2, r7, #7
 103 0060 1278     		ldrb	r2, [r2]
 104 0062 1A71     		strb	r2, [r3, #4]
  75:.\main.c      ****             status = STS_CMD_FAIL;
 105              		.loc 1 75 0
 106 0064 FB1D     		add	r3, r7, #7
 107 0066 FF22     		mov	r2, #255
 108 0068 1A70     		strb	r2, [r3]
 109              	.L2:
  76:.\main.c      ****         }
  77:.\main.c      **** 
  78:.\main.c      ****         /* Buffer is always available to be read */
  79:.\main.c      ****     }
 110              		.loc 1 79 0
 111 006a E1E7     		b	.L4
 112              	.L6:
 113              		.align	2
 114              	.L5:
 115 006c 00000000 		.word	ezI2cBuffer
 116              		.cfi_endproc
 117              	.LFE37:
 118              		.size	main, .-main
 119              		.section	.text.ExecuteCommand,"ax",%progbits
 120              		.align	2
 121              		.global	ExecuteCommand
 122              		.code	16
 123              		.thumb_func
 124              		.type	ExecuteCommand, %function
 125              	ExecuteCommand:
 126              	.LFB38:
  80:.\main.c      **** }
  81:.\main.c      **** 
  82:.\main.c      **** 
  83:.\main.c      **** /*******************************************************************************
  84:.\main.c      **** * Function Name: ExecuteCommand
  85:.\main.c      **** ********************************************************************************
  86:.\main.c      **** * Summary:
  87:.\main.c      **** *  Executes received command to control the LED color and returns status.
  88:.\main.c      **** *  If the command is unknown, the LED color is not changed.
  89:.\main.c      **** *
  90:.\main.c      **** * Parameters:
  91:.\main.c      **** *  cmd: command to execute. Available commands:
  92:.\main.c      **** *   - CMD_SET_RED:   set red color of the LED.
  93:.\main.c      **** *   - CMD_SET_GREEN: set green color of the LED.
  94:.\main.c      **** *   - CMD_SET_BLUE:  set blue color of the LED.
  95:.\main.c      **** *   - CMD_SET_OFF:   turn off the LED.
  96:.\main.c      **** *
  97:.\main.c      **** * Return:
  98:.\main.c      **** *  Returns status of command execution. There are two statuses
  99:.\main.c      **** *  - STS_CMD_DONE: command is executed successfully.
 100:.\main.c      **** *  - STS_CMD_FAIL: unknown command
 101:.\main.c      **** *
ARM GAS  C:\Users\DELL\AppData\Local\Temp\ccQikhSB.s 			page 5


 102:.\main.c      **** *******************************************************************************/
 103:.\main.c      **** uint8 ExecuteCommand(uint32 cmd)
 104:.\main.c      **** {
 127              		.loc 1 104 0
 128              		.cfi_startproc
 129 0000 80B5     		push	{r7, lr}
 130              		.cfi_def_cfa_offset 8
 131              		.cfi_offset 7, -8
 132              		.cfi_offset 14, -4
 133 0002 84B0     		sub	sp, sp, #16
 134              		.cfi_def_cfa_offset 24
 135 0004 00AF     		add	r7, sp, #0
 136              		.cfi_def_cfa_register 7
 137 0006 7860     		str	r0, [r7, #4]
 105:.\main.c      ****     uint8 status;
 106:.\main.c      **** 
 107:.\main.c      ****     status = STS_CMD_DONE;
 138              		.loc 1 107 0
 139 0008 0F23     		mov	r3, #15
 140 000a FB18     		add	r3, r7, r3
 141 000c 0022     		mov	r2, #0
 142 000e 1A70     		strb	r2, [r3]
 108:.\main.c      **** 
 109:.\main.c      ****     /* Execute received command */
 110:.\main.c      ****     switch (cmd)
 143              		.loc 1 110 0
 144 0010 7B68     		ldr	r3, [r7, #4]
 145 0012 012B     		cmp	r3, #1
 146 0014 05D0     		beq	.L9
 147 0016 22D3     		bcc	.L10
 148 0018 022B     		cmp	r3, #2
 149 001a 0CD0     		beq	.L11
 150 001c 032B     		cmp	r3, #3
 151 001e 14D0     		beq	.L12
 152 0020 27E0     		b	.L15
 153              	.L9:
 111:.\main.c      ****     {
 112:.\main.c      ****         case CMD_SET_RED:
 113:.\main.c      ****             RGB_LED_ON_RED;
 154              		.loc 1 113 0
 155 0022 0020     		mov	r0, #0
 156 0024 FFF7FEFF 		bl	LED_RED_Write
 157 0028 0120     		mov	r0, #1
 158 002a FFF7FEFF 		bl	LED_GREEN_Write
 159 002e 0120     		mov	r0, #1
 160 0030 FFF7FEFF 		bl	LED_BLUE_Write
 114:.\main.c      ****             break;
 161              		.loc 1 114 0
 162 0034 22E0     		b	.L13
 163              	.L11:
 115:.\main.c      **** 
 116:.\main.c      ****         case CMD_SET_GREEN:
 117:.\main.c      ****             RGB_LED_ON_GREEN;
 164              		.loc 1 117 0
 165 0036 0120     		mov	r0, #1
 166 0038 FFF7FEFF 		bl	LED_RED_Write
 167 003c 0020     		mov	r0, #0
ARM GAS  C:\Users\DELL\AppData\Local\Temp\ccQikhSB.s 			page 6


 168 003e FFF7FEFF 		bl	LED_GREEN_Write
 169 0042 0120     		mov	r0, #1
 170 0044 FFF7FEFF 		bl	LED_BLUE_Write
 118:.\main.c      ****             break;
 171              		.loc 1 118 0
 172 0048 18E0     		b	.L13
 173              	.L12:
 119:.\main.c      **** 
 120:.\main.c      ****         case CMD_SET_BLUE:
 121:.\main.c      ****             RGB_LED_ON_BLUE;
 174              		.loc 1 121 0
 175 004a 0120     		mov	r0, #1
 176 004c FFF7FEFF 		bl	LED_RED_Write
 177 0050 0120     		mov	r0, #1
 178 0052 FFF7FEFF 		bl	LED_GREEN_Write
 179 0056 0020     		mov	r0, #0
 180 0058 FFF7FEFF 		bl	LED_BLUE_Write
 122:.\main.c      ****             break;
 181              		.loc 1 122 0
 182 005c 0EE0     		b	.L13
 183              	.L10:
 123:.\main.c      **** 
 124:.\main.c      ****         case CMD_SET_OFF:
 125:.\main.c      ****             RGB_LED_OFF;
 184              		.loc 1 125 0
 185 005e 0120     		mov	r0, #1
 186 0060 FFF7FEFF 		bl	LED_RED_Write
 187 0064 0120     		mov	r0, #1
 188 0066 FFF7FEFF 		bl	LED_GREEN_Write
 189 006a 0120     		mov	r0, #1
 190 006c FFF7FEFF 		bl	LED_BLUE_Write
 126:.\main.c      ****             break;
 191              		.loc 1 126 0
 192 0070 04E0     		b	.L13
 193              	.L15:
 127:.\main.c      **** 
 128:.\main.c      ****         default:
 129:.\main.c      ****             status = STS_CMD_FAIL;
 194              		.loc 1 129 0
 195 0072 0F23     		mov	r3, #15
 196 0074 FB18     		add	r3, r7, r3
 197 0076 FF22     		mov	r2, #255
 198 0078 1A70     		strb	r2, [r3]
 130:.\main.c      ****         break;
 199              		.loc 1 130 0
 200 007a C046     		mov	r8, r8
 201              	.L13:
 131:.\main.c      ****     }
 132:.\main.c      **** 
 133:.\main.c      ****     return(status);
 202              		.loc 1 133 0
 203 007c 0F23     		mov	r3, #15
 204 007e FB18     		add	r3, r7, r3
 205 0080 1B78     		ldrb	r3, [r3]
 134:.\main.c      **** }
 206              		.loc 1 134 0
 207 0082 181C     		mov	r0, r3
ARM GAS  C:\Users\DELL\AppData\Local\Temp\ccQikhSB.s 			page 7


 208 0084 BD46     		mov	sp, r7
 209 0086 04B0     		add	sp, sp, #16
 210              		@ sp needed
 211 0088 80BD     		pop	{r7, pc}
 212              		.cfi_endproc
 213              	.LFE38:
 214              		.size	ExecuteCommand, .-ExecuteCommand
 215 008a C046     		.text
 216              	.Letext0:
 217              		.file 2 "Generated_Source\\PSoC4/cytypes.h"
