:400000000040002011000000650300006503000080B500AF00F0AAF980B500AF1F4B12221A6000F05FFF012000F06CFF182000F0BBFD1B4B1B4A1A601B4B1B4A12680221B5
:400040000A431A60194B1A4A1A601A4B194A126808218A431A60FA23DB00181C00F0F0FD154B181C00F0E2FE144BE02212011A60134B144A1A60144B802212061A60134B43
:4000800000221A60124B40221A60124B00221A60024B11221A60BD4680BDC0463000104004010B400600008078002E407C002E402D3E00006CF02E40DC05000000030140B2
:4000C0000000014040FF008008010B4000010B40080101400C020B4080B582B000AF72B63A4B00221A60FB1D00221A7023E0FB1D1A78131C5B009B185B00354A9B183B6088
:400100003B681A78597809020A43997809040A43DB781B061343191C3B681A795B791B0213439BB2081C191C00F0A4F9FB1D1A78FB1D01321A70FB1D1B78012BD7D9254BD1
:40014000EE2212061A60244BEE2212041A60234B992212041A60224B992212041A60214B992212041A60204A1F4B1B78DBB202210B43DBB213701D4A1C4B1B78DBB23C21E6
:400180008B43DBB214210B43DBB21370164A164B1B78DBB216210B43DBB21370144BD82212041A60134B40221A60134BC02252031A60124BF0221A60114B124A1A60FFF798
:4001C0002BFF00F067F9BD4602B080BD6CF02E40C80F0000000002400003024000500F4020500F4030500F4000700F4001700F400800044000020440080204400003044098
:40020000080304400040DA0010B5064C2378002B07D1054B002B02D0044800E000BF0123237010BDE800002000000000C40F000008B5084B002B03D00748084900E000BFBC
:4002400007480368002B00D108BD064B002BFBD09847F9E700000000C40F0000EC000020C80000200000000090B583B000AFFB1DFF221A70012000F027FC012000F04AFCC1
:40028000012000F06DFC134B062003211A1C00F0D5F900F02BF962B600F0B4F9021C0823134016D00B4B1B78012B0BD1094B9B78172B07D1074B5B78FC1D181C00F00CF805
:4002C000031C2370034BFA1D12781A71FB1DFF221A70E1E7CC00002080B584B000AF78600F23FB1800221A707B68012B05D022D3022B0CD0032B14D027E0002000F0E4FB90
:40030000012000F007FC012000F02AFC22E0012000F0DAFB002000F0FDFB012000F020FC18E0012000F0D0FB012000F0F3FB002000F016FC0EE0012000F0C6FB012000F08F
:40034000E9FB012000F00CFC04E00F23FB18FF221A70C0460F23FB181B78181CBD4604B080BDC04680B500AFFEE7C04680B586B000AF224B7B61224B3B61204B7B6135E009
:400380003B691B68FB603B695B68BB603B699B683B6000237B600CE0FB681A68BB681A60BB680433BB60FB680433FB607B6804337B607A683B689A42EED13B69DB683B608A
:4003C00000237B6008E0BB6800221A60BB680433BB607B6804337B607A683B689A42F2D13B6910333B617B69013B7B617B69002BC6D100F0B9FDFFF737FFFEE701000000ED
:400400002810000080B582B000AF154B144A126801218A431A6000237B600FE07B68032B04D8104B7A689200D35800E00E4B0F4A796889008B507B6801337B607B682F2BF3
:40044000ECD9FFF749FE0A4B00221A60044B044A126801210A431A60BD4602B080BDC04600001040000000006503000000000020C000002080B582B000AF786039607A6870
:400480003B68101C00211A1C00F094FDBD4602B080BDC04680B500AF054B03221A60054B03221A60044B00221A60BD4680BDC0463000304030003140000E3F4080B500AFF8
:4004C00000F032F8BD4680BD80B500AF064B064A1268802109060A431A6000F019F800F01FF8BD4680BDC0460000254080B500AF064B1B78002B04D1FFF7E0FF034B01226B
:400500001A70FFF7E1FFBD4680BDC0460401002080B500AF0A2000F057FCBD4680BDC04680B500AFBD4680BD80B500AF204B00221A60204B204A1A60204B214A1A60214B3F
:4005400000221A60204B214A1A60214B1C4A1A60204B00221A600A2000F04AFC0A20032100F0DEFB1C4B0A20191C00F0B3FB1B4B00221A601A4B00221A601A4B5222FF3254
:400580001A60194B00221A60184B00221A60184B00221A60174B00221A70174B00221A70164B00221A80164B00221A70BD4680BD0000254060002540000800400003254063
:4005C0000701008004032540100325401000FE00000225400402254085060000C80E2540880E2540480F2540080F2540C80F2540880F2540140100201801002012010020DD
:400600001001002080B582B000AF0A2000F0F0FB094B1B78DBB27B60074B1B78DBB21F229343DAB2044B1A700A2000F0CDFB7B68181CBD4602B080BD1801002080B584B0A4
:4006400000AFF860B9607A607B68002B10D00A2000F0CEFB084B7A681A60FB689AB2074B1A80BB689AB2064B1A800A2000F0ACFBBD4604B080BDC0461C01002020010020D2
:400680001601002080B588B000AFC74B1B68002B02D0C54B1B689847C44B1B88FB61C44B1B68FB60C34B1B68BB60FA680223FF33134049D0C04BC04A1268520052081A6062
:4006C000BE4B1B78DBB220229343DAB2BB4B1A70BA4B1B78DBB210221343DAB2B74B1A70B74B1B68102213400FD1B64B1B789AB2AE4B1B889A4210D0B04B1B78DBB2082271
:400700001343DAB2AD4B1A7007E0AC4B1B78DBB202221343DAB2A94B1A70AB4BAA4A1268AA490A401A60AA4B00221A60A44B00221A60A84B00221A709F4B9F4A126880210F
:4007400009060A431A609DE1BB681022134002D0A14B00221A60BB680A22134000D1C5E09E4B1B680422134000D171E09C4B1B687B60984B1B78002B1DD0012B60D1994BF0
:400780001B88002B13D0984B01221A60974B1A68FB69D3187A68D2B21A70FB690133FB61904B1B88013B9AB28E4B1A804CE08E4B02221A6048E08E4B1B881A1E7B689A42BA
:4007C0003AD9894B01221A607B68FB61894B1B881A1E7B689A4206D9864B1A887B689BB2D31A9AB200E000227E4B1A807D4B1B88072B03D8774B01221A7018E0794B1B8862
:40080000082B0AD1704B704A1268A02109020A431A606F4B00221A6009E06B4B6A4A1268802189010A431A60694B08221A60FB69DAB2644B1A7007E06B4B02221A6003E074
:40084000002000F0E9FAC0466B4B04221A604DE05D4B1A6880239B01134047D0BB68022213400DD0654B1B681F2213403B61564B554A126855490A401A6001237B6113E040
:40088000584B1B88083B9AB2564B1A80554B1B88082B05D8534B1B883B6100237B6103E008233B6101237B610DE0504B1A68FB69D2184B4B1B68DBB21370FB690133FB61DA
:4008C0003B69013B3B613B69002BEED17B69002B09D13D4B3C4A1268802109020A431A603B4B00221A60444B0C221A60BB680222134000D19FE0FB681022134027D0344B69
:4009000000221A602E4B00221A600223BB612D4B1B781A1EFB699A4203D0BB6908221343BB61BB69FA681340BB61244B1B78DBB21A1CBB691343BB61BB6920229343BB6107
:40094000BB69DAB21D4B1A70224B00221A70FB68402213406CD0194B1B78DBB220221343DAB2164B1A70174B1B78FB61244B1B68102213404AD01E4B1A88FB699BB2D31A4A
:400980009AB2184B1A801F4B1E4A1268802149020A431A601B4B1B4A12681B490A401A60074B10221A6034E00801002012010020400F2540000E254000002540180100204F
:4009C000880F25401001002060002540FF5FFFFFC80F254014010020880E2540CC0F2540400325400C0100206C0025401C0100202001002016010020C00F254008032540FE
:400A00006400254004022540FFFFFEFF214B04221A60214B01221A60204B214A1A60214B204A126810210A431A601F4B01221A601A4BFA681A601D4B1B680422134021D03D
:400A40001B4B1B88002B11D01A4A1B4B1968FB69CB181B78DBB21360FB690133FB61144B1B88013B9AB2124B1A8002E0114BFF221A60124B1B681F221340082BE0D1104B3B
:400A800010221A60FB699AB20E4B1A80BD4608B080BDC046C80F2540800E2540400F2540FF0F0000480F25406C002540000E25400C010020400225401C0100200802254078
:400AC000800F25401201002080B584B000AF021CFB1D1A700E4B1B68DAB20F23FB1840218A431A70FB1D1B789B01DBB240221340D9B20F23FB180F22BA1812780A431A70D5
:400B0000034B0F22BA1812781A60BD4604B080BD0002044080B584B000AF021CFB1D1A700E4B1B68DAB20F23FB1840218A431A70FB1D1B789B01DBB240221340D9B20F23A3
:400B4000FB180F22BA1812780A431A70034B0F22BA1812781A60BD4604B080BD0003044080B584B000AF021CFB1D1A700D4B1B68DAB20F23FB187F210A401A70FB1D1B78CB
:400B8000DB01D9B20F23FB180F22BA1812780A431A70044B0F22BA1812781A60BD4604B080BDC0460003044090B58BB000AF78602723FC1800F0D1F9031C2370184B1A68D8
:400BC0000C23FB181A60174B1A680C23FB185A607B68033B144AD35C1A1C0C23FB189A60124B1A680C23FB18DA601C23FB18104A1A600C23FA181C23FB185A600D4B1C22D5
:400C0000BA181A600C4B0D4A1A600A4B1B682723FB181B78181C00F0A4F9BD460BB090BD08010B4000010B40D40F000030001040B6EA0000080010400400104017000080C6
:400C400080B584B000AF78600023FB60154B154A126801210A431A60134B144A1A60144B134A1268802109020A431A607B68002B12D01023FB600CE0012000F0D7F800F0CB
:400C800019F8031E02D00023FB6005E07B68013B7B607B68002BEFD1FB68181CBD4604B080BDC04660F02E4078002E400220000010002E4080B582B000AF054B1B68012224
:400CC00013407B607B68181CBD4602B080BDC0460C002E4080B584B000AF021C3960FB1D1A7080239B05FB60FB1D1B781F2B02D9002000F091F8FB1D1B7810339B00FA68DA
:400D0000D3181B68BB60FB1D1B7810339B00FA68D3183A681A60BB68181CBD4604B080BD90B587B000AF021CFB1D1A70BB1D0A1C1A70BB1D1B78032B02D9002000F06CF892
:400D4000FB1D1B781F2B02D9002000F065F8FB1D1B7803221340DB0006337B611323FC1800F0FBF8031C2370FB1D1B789B08DBB29B00144A944663441B68FB607B69032208
:400D80009A40131CDA43FB681340FB60BB1D1A787B699A40131CFA681343FB60FB1D1B789B08DBB29B00074A94466344FA681A601323FB181B78181C00F0D3F8BD4607B0E9
:400DC00090BDC04600E400E080B582B000AF021CFB1D1A70054BFA1D12781F210A40012191400A1C1A60BD4602B080BD00E100E080B582B000AF021CFB1D1A70054BFA1D08
:400E000012781F210A40012191400A1C1A60BD4602B080BD80E100E080B582B000AF021CFB1D1A7001BEBD4602B080BD80B582B000AF021CBB1D1A80BB1D1B88044A127858
:400E40005343181C00F080F8BD4602B080BDC046DC00002080B500AF0E4B0E4A126801218A431A600B4B0B4A126802218A431A60094B094A126830218A4310210A431A600E
:400E8000054B054A126807218A4301210A431A60BD4680BD00F02E4000FF2E4080B500AF0E4B0E4A126802218A431A600C4B0C4A126807218A4302210A431A60084B084A0C
:400EC000126830218A4320210A431A60034B034A126801210A431A60BD4680BD00F02E4000FF2E4080B500AFFFF7B4FF044B044A1268802109060A431A60BD4680BDC046E8
:400F000000F02E4080B584B000AF78600C4B1B6801221340FB607B68002B02D0012B03D005E0FFF797FF06E0FFF7B8FF03E00020FFF772FFC046FB68181CBD4604B080BDDA
:400F400000F02E40000000000230800803D00138FDD1C046C046C0467047EFF3108072B6704780F3108870470E4B70B500251E1C0D4CE41AA410A54204D0AB00F35898472B
:400F80000135F8E700F03EF8084B00251E1C084CE41AA410A54204D0AB00F35898470135F8E770BD10100000101000001010000018100000031C8218934202D019700133C7
:400FC000FAE770470000000000300F40000400400F400004030405060708090A0B0C0E0F101112131415161718191B1C1D1E1F2021222325262728292A2B2E2F30313233BC
:4010000034350000F8B5C046F8BC08BC9E4670473102000005040000F8B5C046F8BC08BC9E4670470902000038100000C800002020000000400000000000000001FF1701CC
:40104000FF17000000366E01C05D0000180000000000E02E000000000000000000000000000000000000000000000000000000000000000000000000000000000000000072
:401080000000000000000000000000000000000000000000000000000000000000000000000000000000000000000000000000000000000000000000000000000000000030
:4010C00000000000000000000000000000000000000000000000000000000000000000000000000000000000000000000000000000000000000000000000000000000000F0
:4011000000000000000000000000000000000000000000000000000000000000000000000000000000000000000000000000000000000000000000000000000000000000AF
:40114000000000000000000000000000000000000000000000000000000000000000000000000000000000000000000000000000000000000000000000000000000000006F
:020000040001F9
:0200000490303A
:020000003B5A69
:0200000490402A
:4000000000000000000000000000000000000000000000000000000000000000000000000000000000000000000000000000000000000000000000000000000000000000C0
:400040000000000000000000000000000000000000000000000000000000000000000000000000000000000000000000000000000000000000000000000000000000000080
:0200000490501A
:0C00000000020E34119E00010E394CF875
:0200000490600A
:0100000001FE
:00000001FF