ARM GAS  C:\Users\DELL\AppData\Local\Temp\ccdBZmRk.s 			page 1


   1              		.cpu cortex-m0
   2              		.fpu softvfp
   3              		.eabi_attribute 20, 1
   4              		.eabi_attribute 21, 1
   5              		.eabi_attribute 23, 3
   6              		.eabi_attribute 24, 1
   7              		.eabi_attribute 25, 1
   8              		.eabi_attribute 26, 1
   9              		.eabi_attribute 30, 6
  10              		.eabi_attribute 34, 0
  11              		.eabi_attribute 18, 4
  12              		.code	16
  13              		.file	"CyLFClk.c"
  14              		.text
  15              	.Ltext0:
  16              		.cfi_sections	.debug_frame
  17              		.section	.text.CySysClkWcoSetHighPowerMode,"ax",%progbits
  18              		.align	2
  19              		.code	16
  20              		.thumb_func
  21              		.type	CySysClkWcoSetHighPowerMode, %function
  22              	CySysClkWcoSetHighPowerMode:
  23              	.LFB0:
  24              		.file 1 ".\\Generated_Source\\PSoC4\\CyLFClk.h"
   1:.\Generated_Source\PSoC4/CyLFClk.h **** /*******************************************************************************
   2:.\Generated_Source\PSoC4/CyLFClk.h **** * File Name: .h
   3:.\Generated_Source\PSoC4/CyLFClk.h **** * Version 1.0
   4:.\Generated_Source\PSoC4/CyLFClk.h **** *
   5:.\Generated_Source\PSoC4/CyLFClk.h **** * Description:
   6:.\Generated_Source\PSoC4/CyLFClk.h **** *  This file provides constants and parameter values for the cy_lfclk Component.
   7:.\Generated_Source\PSoC4/CyLFClk.h **** *
   8:.\Generated_Source\PSoC4/CyLFClk.h **** ********************************************************************************
   9:.\Generated_Source\PSoC4/CyLFClk.h **** * Copyright 2008-2015, Cypress Semiconductor Corporation.  All rights reserved.
  10:.\Generated_Source\PSoC4/CyLFClk.h **** * You may use this file only in accordance with the license, terms, conditions,
  11:.\Generated_Source\PSoC4/CyLFClk.h **** * disclaimers, and limitations in the end user license agreement accompanying
  12:.\Generated_Source\PSoC4/CyLFClk.h **** * the software package with which this file was provided.
  13:.\Generated_Source\PSoC4/CyLFClk.h **** *******************************************************************************/
  14:.\Generated_Source\PSoC4/CyLFClk.h **** 
  15:.\Generated_Source\PSoC4/CyLFClk.h **** #if !defined(CY_LFCLK_CYLIB_H)
  16:.\Generated_Source\PSoC4/CyLFClk.h **** #define CY_LFCLK_CYLIB_H
  17:.\Generated_Source\PSoC4/CyLFClk.h **** 
  18:.\Generated_Source\PSoC4/CyLFClk.h **** #include "cytypes.h"
  19:.\Generated_Source\PSoC4/CyLFClk.h **** #include "cydevice_trm.h"
  20:.\Generated_Source\PSoC4/CyLFClk.h **** 
  21:.\Generated_Source\PSoC4/CyLFClk.h **** typedef enum
  22:.\Generated_Source\PSoC4/CyLFClk.h **** {
  23:.\Generated_Source\PSoC4/CyLFClk.h ****     CY_SYS_TIMER_WAIT = 0u,
  24:.\Generated_Source\PSoC4/CyLFClk.h ****     CY_SYS_TIMER_INTERRUPT = 1u
  25:.\Generated_Source\PSoC4/CyLFClk.h **** } cy_sys_timer_delaytype_enum;
  26:.\Generated_Source\PSoC4/CyLFClk.h **** 
  27:.\Generated_Source\PSoC4/CyLFClk.h **** 
  28:.\Generated_Source\PSoC4/CyLFClk.h **** /***************************************
  29:.\Generated_Source\PSoC4/CyLFClk.h **** *    Function Prototypes
  30:.\Generated_Source\PSoC4/CyLFClk.h **** ***************************************/
  31:.\Generated_Source\PSoC4/CyLFClk.h **** 
  32:.\Generated_Source\PSoC4/CyLFClk.h **** /* Clocks API */
  33:.\Generated_Source\PSoC4/CyLFClk.h **** void CySysClkIloStart(void);
ARM GAS  C:\Users\DELL\AppData\Local\Temp\ccdBZmRk.s 			page 2


  34:.\Generated_Source\PSoC4/CyLFClk.h **** void CySysClkIloStop(void);
  35:.\Generated_Source\PSoC4/CyLFClk.h **** 
  36:.\Generated_Source\PSoC4/CyLFClk.h **** #if (CY_IP_WCO)
  37:.\Generated_Source\PSoC4/CyLFClk.h ****     void   CySysClkWcoStart(void);
  38:.\Generated_Source\PSoC4/CyLFClk.h ****     void   CySysClkWcoStop(void);
  39:.\Generated_Source\PSoC4/CyLFClk.h ****     uint32 CySysClkWcoSetPowerMode(uint32 mode);
  40:.\Generated_Source\PSoC4/CyLFClk.h **** 
  41:.\Generated_Source\PSoC4/CyLFClk.h ****     void CySysClkSetLfclkSource(uint32 source);
  42:.\Generated_Source\PSoC4/CyLFClk.h ****     uint32 CySysClkWcoEnabled(void);
  43:.\Generated_Source\PSoC4/CyLFClk.h **** #endif /* (CY_IP_WCO) */
  44:.\Generated_Source\PSoC4/CyLFClk.h **** 
  45:.\Generated_Source\PSoC4/CyLFClk.h **** typedef void (*cyWdtCallback)(void);
  46:.\Generated_Source\PSoC4/CyLFClk.h **** 
  47:.\Generated_Source\PSoC4/CyLFClk.h **** #if(CY_IP_SRSSV2)
  48:.\Generated_Source\PSoC4/CyLFClk.h ****     /* WDT API */
  49:.\Generated_Source\PSoC4/CyLFClk.h ****     void   CySysWdtLock(void);
  50:.\Generated_Source\PSoC4/CyLFClk.h ****     void   CySysWdtUnlock(void);
  51:.\Generated_Source\PSoC4/CyLFClk.h ****     void   CySysWdtSetMode(uint32 counterNum, uint32 mode);
  52:.\Generated_Source\PSoC4/CyLFClk.h ****     uint32 CySysWdtGetMode(uint32 counterNum);
  53:.\Generated_Source\PSoC4/CyLFClk.h ****     uint32 CySysWdtGetEnabledStatus(uint32 counterNum);
  54:.\Generated_Source\PSoC4/CyLFClk.h ****     void   CySysWdtSetClearOnMatch(uint32 counterNum, uint32 enable);
  55:.\Generated_Source\PSoC4/CyLFClk.h ****     uint32 CySysWdtGetClearOnMatch(uint32 counterNum);
  56:.\Generated_Source\PSoC4/CyLFClk.h ****     void   CySysWdtEnable(uint32 counterMask);
  57:.\Generated_Source\PSoC4/CyLFClk.h ****     void   CySysWdtDisable(uint32 counterMask);
  58:.\Generated_Source\PSoC4/CyLFClk.h ****     void   CySysWdtSetCascade(uint32 cascadeMask);
  59:.\Generated_Source\PSoC4/CyLFClk.h ****     uint32 CySysWdtGetCascade(void);
  60:.\Generated_Source\PSoC4/CyLFClk.h ****     void   CySysWdtSetMatch(uint32 counterNum, uint32 match);
  61:.\Generated_Source\PSoC4/CyLFClk.h ****     void   CySysWdtSetToggleBit(uint32 bits);
  62:.\Generated_Source\PSoC4/CyLFClk.h ****     uint32 CySysWdtGetToggleBit(void);
  63:.\Generated_Source\PSoC4/CyLFClk.h ****     uint32 CySysWdtGetMatch(uint32 counterNum);
  64:.\Generated_Source\PSoC4/CyLFClk.h ****     uint32 CySysWdtGetCount(uint32 counterNum);
  65:.\Generated_Source\PSoC4/CyLFClk.h ****     uint32 CySysWdtGetInterruptSource(void);
  66:.\Generated_Source\PSoC4/CyLFClk.h ****     void   CySysWdtClearInterrupt(uint32 counterMask);
  67:.\Generated_Source\PSoC4/CyLFClk.h ****     void   CySysWdtResetCounters(uint32 countersMask);
  68:.\Generated_Source\PSoC4/CyLFClk.h ****     cyWdtCallback  CySysWdtSetInterruptCallback(uint32 counterNum, cyWdtCallback function);
  69:.\Generated_Source\PSoC4/CyLFClk.h ****     cyWdtCallback  CySysWdtGetInterruptCallback(uint32 counterNum);
  70:.\Generated_Source\PSoC4/CyLFClk.h ****     void   CySysTimerDelay(uint32 counterNum, cy_sys_timer_delaytype_enum delayType, uint32 delay);
  71:.\Generated_Source\PSoC4/CyLFClk.h ****     void   CySysTimerDelayUntilMatch(uint32 counterNum, cy_sys_timer_delaytype_enum delayType, uint
  72:.\Generated_Source\PSoC4/CyLFClk.h ****     void   CySysWatchdogFeed(uint32 counterNum);
  73:.\Generated_Source\PSoC4/CyLFClk.h ****     void   CySysWdtEnableCounterIsr(uint32 counterNum);
  74:.\Generated_Source\PSoC4/CyLFClk.h ****     void   CySysWdtDisableCounterIsr(uint32 counterNum);
  75:.\Generated_Source\PSoC4/CyLFClk.h ****     void   CySysWdtIsr(void);
  76:.\Generated_Source\PSoC4/CyLFClk.h **** #else
  77:.\Generated_Source\PSoC4/CyLFClk.h ****     /* WDT API */
  78:.\Generated_Source\PSoC4/CyLFClk.h ****     uint32 CySysWdtGetEnabledStatus(void);
  79:.\Generated_Source\PSoC4/CyLFClk.h ****     void   CySysWdtEnable(void);
  80:.\Generated_Source\PSoC4/CyLFClk.h ****     void   CySysWdtDisable(void);
  81:.\Generated_Source\PSoC4/CyLFClk.h ****     void   CySysWdtSetMatch(uint32 match);
  82:.\Generated_Source\PSoC4/CyLFClk.h ****     uint32 CySysWdtGetMatch(void);
  83:.\Generated_Source\PSoC4/CyLFClk.h ****     uint32 CySysWdtGetCount(void);
  84:.\Generated_Source\PSoC4/CyLFClk.h ****     void   CySysWdtSetIgnoreBits(uint32 bitsNum);
  85:.\Generated_Source\PSoC4/CyLFClk.h ****     uint32 CySysWdtGetIgnoreBits(void);
  86:.\Generated_Source\PSoC4/CyLFClk.h ****     void   CySysWdtClearInterrupt(void);
  87:.\Generated_Source\PSoC4/CyLFClk.h ****     void   CySysWdtMaskInterrupt(void);
  88:.\Generated_Source\PSoC4/CyLFClk.h ****     void   CySysWdtUnmaskInterrupt(void);
  89:.\Generated_Source\PSoC4/CyLFClk.h ****     cyWdtCallback CySysWdtSetInterruptCallback(cyWdtCallback function);
  90:.\Generated_Source\PSoC4/CyLFClk.h ****     cyWdtCallback CySysWdtGetInterruptCallback(void);
ARM GAS  C:\Users\DELL\AppData\Local\Temp\ccdBZmRk.s 			page 3


  91:.\Generated_Source\PSoC4/CyLFClk.h ****     void   CySysWdtIsr(void);
  92:.\Generated_Source\PSoC4/CyLFClk.h **** #endif  /* (CY_IP_SRSSV2) */
  93:.\Generated_Source\PSoC4/CyLFClk.h **** 
  94:.\Generated_Source\PSoC4/CyLFClk.h **** 
  95:.\Generated_Source\PSoC4/CyLFClk.h **** /***************************************
  96:.\Generated_Source\PSoC4/CyLFClk.h **** * API Constants
  97:.\Generated_Source\PSoC4/CyLFClk.h **** ***************************************/
  98:.\Generated_Source\PSoC4/CyLFClk.h **** 
  99:.\Generated_Source\PSoC4/CyLFClk.h **** #define UINT16_MAX_VAL    (0xFFFFu)
 100:.\Generated_Source\PSoC4/CyLFClk.h **** 
 101:.\Generated_Source\PSoC4/CyLFClk.h **** 
 102:.\Generated_Source\PSoC4/CyLFClk.h **** /*******************************************************************************
 103:.\Generated_Source\PSoC4/CyLFClk.h **** * Clock API Constants
 104:.\Generated_Source\PSoC4/CyLFClk.h **** *******************************************************************************/
 105:.\Generated_Source\PSoC4/CyLFClk.h **** /* CySysClkIloStart()/CySysClkIloStop() - implementation definitions */
 106:.\Generated_Source\PSoC4/CyLFClk.h **** #define CY_SYS_CLK_ILO_CONFIG_ENABLE                    (( uint32 )(( uint32 )0x01u << 31u))
 107:.\Generated_Source\PSoC4/CyLFClk.h **** 
 108:.\Generated_Source\PSoC4/CyLFClk.h **** 
 109:.\Generated_Source\PSoC4/CyLFClk.h **** /* CySysClkSetLfclkSource() - parameter definitions */
 110:.\Generated_Source\PSoC4/CyLFClk.h **** #if (CY_IP_WCO)
 111:.\Generated_Source\PSoC4/CyLFClk.h ****     #define CY_SYS_CLK_LFCLK_SRC_ILO                    (0u)
 112:.\Generated_Source\PSoC4/CyLFClk.h ****     #define CY_SYS_CLK_LFCLK_SRC_WCO                    (( uint32 )(( uint32 )0x01u << 30u))
 113:.\Generated_Source\PSoC4/CyLFClk.h **** #endif /* (CY_IP_WCO) */
 114:.\Generated_Source\PSoC4/CyLFClk.h **** 
 115:.\Generated_Source\PSoC4/CyLFClk.h **** 
 116:.\Generated_Source\PSoC4/CyLFClk.h **** /* CySysClkSetLfclkSource() - implementation definitions */
 117:.\Generated_Source\PSoC4/CyLFClk.h **** #if (CY_IP_WCO)
 118:.\Generated_Source\PSoC4/CyLFClk.h ****     #define CY_SYS_CLK_LFCLK_SEL_MASK                   (( uint32 )(( uint32 )0x03u << 30u))
 119:.\Generated_Source\PSoC4/CyLFClk.h **** #endif /* (CY_IP_WCO) */
 120:.\Generated_Source\PSoC4/CyLFClk.h **** 
 121:.\Generated_Source\PSoC4/CyLFClk.h **** #if (CY_IP_WCO)
 122:.\Generated_Source\PSoC4/CyLFClk.h ****     /* WCO Configuration Register */
 123:.\Generated_Source\PSoC4/CyLFClk.h ****     #define CY_SYS_CLK_WCO_CONFIG_LPM_EN                (( uint32 )(( uint32 )0x01u <<  0u))
 124:.\Generated_Source\PSoC4/CyLFClk.h ****     #define CY_SYS_CLK_WCO_CONFIG_LPM_AUTO              (( uint32 )(( uint32 )0x01u <<  1u))
 125:.\Generated_Source\PSoC4/CyLFClk.h ****     #define CY_SYS_CLK_WCO_CONFIG_LPM_ENABLE            (( uint32 )(( uint32 )0x01u << 31u))
 126:.\Generated_Source\PSoC4/CyLFClk.h **** 
 127:.\Generated_Source\PSoC4/CyLFClk.h ****     /* WCO Status Register */
 128:.\Generated_Source\PSoC4/CyLFClk.h ****     #define CY_SYS_CLK_WCO_STATUS_OUT_BLNK_A            (( uint32 )(( uint32 )0x01u <<  0u))
 129:.\Generated_Source\PSoC4/CyLFClk.h **** 
 130:.\Generated_Source\PSoC4/CyLFClk.h ****     /* WCO Trim Register */
 131:.\Generated_Source\PSoC4/CyLFClk.h ****     #define CY_SYS_CLK_WCO_TRIM_XGM_MASK                (( uint32 ) 0x07u)
 132:.\Generated_Source\PSoC4/CyLFClk.h ****     #define CY_SYS_CLK_WCO_TRIM_XGM_SHIFT               (( uint32 ) 0x00u)
 133:.\Generated_Source\PSoC4/CyLFClk.h **** 
 134:.\Generated_Source\PSoC4/CyLFClk.h ****     #define CY_SYS_CLK_WCO_TRIM_XGM_3370NA              (( uint32 ) 0x00u)
 135:.\Generated_Source\PSoC4/CyLFClk.h ****     #define CY_SYS_CLK_WCO_TRIM_XGM_2620NA              (( uint32 ) 0x01u)
 136:.\Generated_Source\PSoC4/CyLFClk.h ****     #define CY_SYS_CLK_WCO_TRIM_XGM_2250NA              (( uint32 ) 0x02u)
 137:.\Generated_Source\PSoC4/CyLFClk.h ****     #define CY_SYS_CLK_WCO_TRIM_XGM_1500NA              (( uint32 ) 0x03u)
 138:.\Generated_Source\PSoC4/CyLFClk.h ****     #define CY_SYS_CLK_WCO_TRIM_XGM_1870NA              (( uint32 ) 0x04u)
 139:.\Generated_Source\PSoC4/CyLFClk.h ****     #define CY_SYS_CLK_WCO_TRIM_XGM_1120NA              (( uint32 ) 0x05u)
 140:.\Generated_Source\PSoC4/CyLFClk.h ****     #define CY_SYS_CLK_WCO_TRIM_XGM_750NA               (( uint32 ) 0x06u)
 141:.\Generated_Source\PSoC4/CyLFClk.h ****     #define CY_SYS_CLK_WCO_TRIM_XGM_0NA                 (( uint32 ) 0x07u)
 142:.\Generated_Source\PSoC4/CyLFClk.h **** 
 143:.\Generated_Source\PSoC4/CyLFClk.h ****     #define CY_SYS_CLK_WCO_TRIM_GM_MASK                 (( uint32 )(( uint32 )0x03u << 4u))
 144:.\Generated_Source\PSoC4/CyLFClk.h ****     #define CY_SYS_CLK_WCO_TRIM_GM_SHIFT                (( uint32 ) 0x04u)
 145:.\Generated_Source\PSoC4/CyLFClk.h ****     #define CY_SYS_CLK_WCO_TRIM_GM_HPM                  (( uint32 ) 0x01u)
 146:.\Generated_Source\PSoC4/CyLFClk.h ****     #define CY_SYS_CLK_WCO_TRIM_GM_LPM                  (( uint32 ) 0x02u)
 147:.\Generated_Source\PSoC4/CyLFClk.h **** #endif  /* (CY_IP_WCO) */
ARM GAS  C:\Users\DELL\AppData\Local\Temp\ccdBZmRk.s 			page 4


 148:.\Generated_Source\PSoC4/CyLFClk.h **** 
 149:.\Generated_Source\PSoC4/CyLFClk.h **** 
 150:.\Generated_Source\PSoC4/CyLFClk.h **** /*******************************************************************************
 151:.\Generated_Source\PSoC4/CyLFClk.h **** * WDT API Constants
 152:.\Generated_Source\PSoC4/CyLFClk.h **** *******************************************************************************/
 153:.\Generated_Source\PSoC4/CyLFClk.h **** #if(CY_IP_SRSSV2)
 154:.\Generated_Source\PSoC4/CyLFClk.h ****     #define CY_SYS_WDT_MODE_NONE                (0u)
 155:.\Generated_Source\PSoC4/CyLFClk.h ****     #define CY_SYS_WDT_MODE_INT                 (1u)
 156:.\Generated_Source\PSoC4/CyLFClk.h ****     #define CY_SYS_WDT_MODE_RESET               (2u)
 157:.\Generated_Source\PSoC4/CyLFClk.h ****     #define CY_SYS_WDT_MODE_INT_RESET           (3u)
 158:.\Generated_Source\PSoC4/CyLFClk.h **** 
 159:.\Generated_Source\PSoC4/CyLFClk.h ****     #define CY_SYS_WDT_COUNTER0_MASK            ((uint32)((uint32)0x01u))
 160:.\Generated_Source\PSoC4/CyLFClk.h ****     #define CY_SYS_WDT_COUNTER1_MASK            ((uint32)((uint32)0x01u << 8u))
 161:.\Generated_Source\PSoC4/CyLFClk.h ****     #define CY_SYS_WDT_COUNTER2_MASK            ((uint32)((uint32)0x01u << 16u))
 162:.\Generated_Source\PSoC4/CyLFClk.h **** 
 163:.\Generated_Source\PSoC4/CyLFClk.h ****     #define CY_SYS_WDT_CASCADE_NONE             ((uint32)0x00u)
 164:.\Generated_Source\PSoC4/CyLFClk.h ****     #define CY_SYS_WDT_CASCADE_01               ((uint32)0x01u << 3u)
 165:.\Generated_Source\PSoC4/CyLFClk.h ****     #define CY_SYS_WDT_CASCADE_12               ((uint32)0x01u << 11u)
 166:.\Generated_Source\PSoC4/CyLFClk.h **** 
 167:.\Generated_Source\PSoC4/CyLFClk.h ****     #define CY_SYS_WDT_COUNTER0_INT             ((uint32)0x01u << 2u)
 168:.\Generated_Source\PSoC4/CyLFClk.h ****     #define CY_SYS_WDT_COUNTER1_INT             ((uint32)0x01u << 10u)
 169:.\Generated_Source\PSoC4/CyLFClk.h ****     #define CY_SYS_WDT_COUNTER2_INT             ((uint32)0x01u << 18u)
 170:.\Generated_Source\PSoC4/CyLFClk.h **** 
 171:.\Generated_Source\PSoC4/CyLFClk.h ****     #define CY_SYS_WDT_COUNTER0_RESET           ((uint32)0x01u << 3u)
 172:.\Generated_Source\PSoC4/CyLFClk.h ****     #define CY_SYS_WDT_COUNTER1_RESET           ((uint32)0x01u << 11u)
 173:.\Generated_Source\PSoC4/CyLFClk.h ****     #define CY_SYS_WDT_COUNTER2_RESET           ((uint32)0x01u << 19u)
 174:.\Generated_Source\PSoC4/CyLFClk.h ****     #define CY_SYS_WDT_COUNTERS_RESET           (CY_SYS_WDT_COUNTER0_RESET |\
 175:.\Generated_Source\PSoC4/CyLFClk.h ****                                                  CY_SYS_WDT_COUNTER1_RESET |\
 176:.\Generated_Source\PSoC4/CyLFClk.h ****                                                  CY_SYS_WDT_COUNTER2_RESET)
 177:.\Generated_Source\PSoC4/CyLFClk.h **** 
 178:.\Generated_Source\PSoC4/CyLFClk.h ****     #define CY_SYS_WDT_COUNTER0                 (0x00u)
 179:.\Generated_Source\PSoC4/CyLFClk.h ****     #define CY_SYS_WDT_COUNTER1                 (0x01u)
 180:.\Generated_Source\PSoC4/CyLFClk.h ****     #define CY_SYS_WDT_COUNTER2                 (0x02u)
 181:.\Generated_Source\PSoC4/CyLFClk.h **** 
 182:.\Generated_Source\PSoC4/CyLFClk.h ****     #define CY_SYS_WDT_COUNTER0_OFFSET            (0x00u)
 183:.\Generated_Source\PSoC4/CyLFClk.h ****     #define CY_SYS_WDT_COUNTER1_OFFSET            (0x02u)
 184:.\Generated_Source\PSoC4/CyLFClk.h ****     #define CY_SYS_WDT_COUNTER2_OFFSET            (0x04u)
 185:.\Generated_Source\PSoC4/CyLFClk.h **** 
 186:.\Generated_Source\PSoC4/CyLFClk.h ****     #define CY_SYS_WDT_MODE_MASK                ((uint32)(0x03u))
 187:.\Generated_Source\PSoC4/CyLFClk.h **** 
 188:.\Generated_Source\PSoC4/CyLFClk.h ****     #define CY_SYS_WDT_CLK_LOCK_BITS_MASK       ((uint32)0x03u << 14u)
 189:.\Generated_Source\PSoC4/CyLFClk.h ****     #define CY_SYS_WDT_CLK_LOCK_BIT0            ((uint32)0x01u << 14u)
 190:.\Generated_Source\PSoC4/CyLFClk.h ****     #define CY_SYS_WDT_CLK_LOCK_BIT1            ((uint32)0x01u << 15u)
 191:.\Generated_Source\PSoC4/CyLFClk.h **** 
 192:.\Generated_Source\PSoC4/CyLFClk.h ****     #define CY_SYS_WDT_CONFIG_BITS2_MASK        (uint32)(0x1Fu)
 193:.\Generated_Source\PSoC4/CyLFClk.h ****     #define CY_SYS_WDT_CONFIG_BITS2_POS         (uint32)(24u)
 194:.\Generated_Source\PSoC4/CyLFClk.h ****     #define CY_SYS_WDT_LOWER_16BITS_MASK        (uint32)(0x0000FFFFu)
 195:.\Generated_Source\PSoC4/CyLFClk.h ****     #define CY_SYS_WDT_HIGHER_16BITS_MASK       (uint32)(0xFFFF0000u)
 196:.\Generated_Source\PSoC4/CyLFClk.h ****     #define CY_SYS_WDT_COUNTERS_MAX             (0x03u)
 197:.\Generated_Source\PSoC4/CyLFClk.h ****     #define CY_SYS_WDT_CNT_SHIFT                (0x08u)
 198:.\Generated_Source\PSoC4/CyLFClk.h ****     #define CY_SYS_WDT_CNT_MATCH_CLR_SHIFT      (0x02u)
 199:.\Generated_Source\PSoC4/CyLFClk.h ****     #define CY_SYS_WDT_CNT_STTS_SHIFT           (0x01u)
 200:.\Generated_Source\PSoC4/CyLFClk.h ****     #define CY_SYS_WDT_CNT_MATCH_SHIFT          (0x10u)
 201:.\Generated_Source\PSoC4/CyLFClk.h **** 
 202:.\Generated_Source\PSoC4/CyLFClk.h ****     #define CY_WDT_NUM_OF_WDT                    (3u)
 203:.\Generated_Source\PSoC4/CyLFClk.h ****     #define CY_WDT_NUM_OF_CALLBACKS             (3u)
 204:.\Generated_Source\PSoC4/CyLFClk.h **** 
ARM GAS  C:\Users\DELL\AppData\Local\Temp\ccdBZmRk.s 			page 5


 205:.\Generated_Source\PSoC4/CyLFClk.h ****     #if (CY_PSOC4_4100 || CY_PSOC4_4200)
 206:.\Generated_Source\PSoC4/CyLFClk.h ****         #define CY_SYS_WDT_1LFCLK_DELAY_US      ((uint16)( 67u))
 207:.\Generated_Source\PSoC4/CyLFClk.h ****         #define CY_SYS_WDT_3LFCLK_DELAY_US      ((uint16)(201u))
 208:.\Generated_Source\PSoC4/CyLFClk.h ****     #endif /* (CY_PSOC4_4100 || CY_PSOC4_4200) */
 209:.\Generated_Source\PSoC4/CyLFClk.h **** 
 210:.\Generated_Source\PSoC4/CyLFClk.h ****     #if (CY_PSOC4_4000)
 211:.\Generated_Source\PSoC4/CyLFClk.h ****         #define CY_SYS_WDT_1LFCLK_DELAY_US      ((uint16)( 50u))
 212:.\Generated_Source\PSoC4/CyLFClk.h ****         #define CY_SYS_WDT_3LFCLK_DELAY_US      ((uint16)(150u))
 213:.\Generated_Source\PSoC4/CyLFClk.h ****     #endif /* (CY_PSOC4_4000) */
 214:.\Generated_Source\PSoC4/CyLFClk.h **** 
 215:.\Generated_Source\PSoC4/CyLFClk.h ****     #if (CY_IP_WCO)
 216:.\Generated_Source\PSoC4/CyLFClk.h **** 
 217:.\Generated_Source\PSoC4/CyLFClk.h ****         #define CY_SYS_WDT_1LFCLK_DELAY_US      \
 218:.\Generated_Source\PSoC4/CyLFClk.h ****             ((CY_SYS_CLK_LFCLK_SRC_ILO == (CY_SYS_WDT_CONFIG_REG & CY_SYS_CLK_LFCLK_SEL_MASK)) ? \
 219:.\Generated_Source\PSoC4/CyLFClk.h ****                                                 ((uint16)(67u)) : \
 220:.\Generated_Source\PSoC4/CyLFClk.h ****                                                 ((uint16)(31u)))
 221:.\Generated_Source\PSoC4/CyLFClk.h **** 
 222:.\Generated_Source\PSoC4/CyLFClk.h ****         #define CY_SYS_WDT_3LFCLK_DELAY_US      \
 223:.\Generated_Source\PSoC4/CyLFClk.h ****             ((CY_SYS_CLK_LFCLK_SRC_ILO == (CY_SYS_WDT_CONFIG_REG & CY_SYS_CLK_LFCLK_SEL_MASK)) ? \
 224:.\Generated_Source\PSoC4/CyLFClk.h ****                                                 ((uint16)(201u)) : \
 225:.\Generated_Source\PSoC4/CyLFClk.h ****                                                 ((uint16)(93u)))
 226:.\Generated_Source\PSoC4/CyLFClk.h **** 
 227:.\Generated_Source\PSoC4/CyLFClk.h ****     #endif /* (CY_IP_WCO) */
 228:.\Generated_Source\PSoC4/CyLFClk.h **** 
 229:.\Generated_Source\PSoC4/CyLFClk.h **** #else
 230:.\Generated_Source\PSoC4/CyLFClk.h ****     #define CY_SYS_WDT_KEY                      ((uint32)(0xACED8865u))
 231:.\Generated_Source\PSoC4/CyLFClk.h ****     #define CY_SYS_WDT_MATCH_MASK               ((uint32)(0x0000FFFFu))
 232:.\Generated_Source\PSoC4/CyLFClk.h ****     #define CY_SYS_WDT_IGNORE_BITS_MASK         ((uint32)(0x000F0000u))
 233:.\Generated_Source\PSoC4/CyLFClk.h ****     #define CY_SYS_WDT_IGNORE_BITS_SHIFT        ((uint32)(16u))
 234:.\Generated_Source\PSoC4/CyLFClk.h ****     #define CY_SYS_WDT_LOWER_BIT_MASK           ((uint32)(0x00000001u))
 235:.\Generated_Source\PSoC4/CyLFClk.h **** 
 236:.\Generated_Source\PSoC4/CyLFClk.h ****     #define CY_SYS_WDT_COUNTER0                 (0x00u)
 237:.\Generated_Source\PSoC4/CyLFClk.h **** 
 238:.\Generated_Source\PSoC4/CyLFClk.h ****     #define CY_WDT_NUM_OF_WDT                   (1u)
 239:.\Generated_Source\PSoC4/CyLFClk.h ****     #define CY_WDT_NUM_OF_CALLBACKS             (3u)
 240:.\Generated_Source\PSoC4/CyLFClk.h **** #endif  /* (CY_IP_SRSSV2) */
 241:.\Generated_Source\PSoC4/CyLFClk.h **** 
 242:.\Generated_Source\PSoC4/CyLFClk.h **** #define CY_INT_WDT_IRQN                            (7u)
 243:.\Generated_Source\PSoC4/CyLFClk.h **** 
 244:.\Generated_Source\PSoC4/CyLFClk.h **** /* CySysXTAL_32KHZ_SetPowerMode() */
 245:.\Generated_Source\PSoC4/CyLFClk.h **** #define CY_SYS_CLK_WCO_HPM                   (0x0u)
 246:.\Generated_Source\PSoC4/CyLFClk.h **** #if(0u == (CY_PSOC4_4100M || CY_PSOC4_4200M))
 247:.\Generated_Source\PSoC4/CyLFClk.h ****     #define CY_SYS_CLK_WCO_LPM               (0x1u)
 248:.\Generated_Source\PSoC4/CyLFClk.h **** #endif /* (0u == (CY_PSOC4_4100M || CY_PSOC4_4200M)) */
 249:.\Generated_Source\PSoC4/CyLFClk.h **** 
 250:.\Generated_Source\PSoC4/CyLFClk.h **** 
 251:.\Generated_Source\PSoC4/CyLFClk.h **** #define CY_SYS_CLK_ILO_CONFIG_REG           (*(reg32 *) CYREG_CLK_ILO_CONFIG)
 252:.\Generated_Source\PSoC4/CyLFClk.h **** #define CY_SYS_CLK_ILO_CONFIG_PTR           ( (reg32 *) CYREG_CLK_ILO_CONFIG)
 253:.\Generated_Source\PSoC4/CyLFClk.h **** 
 254:.\Generated_Source\PSoC4/CyLFClk.h **** #if(CY_IP_SRSSV2)
 255:.\Generated_Source\PSoC4/CyLFClk.h ****     #define CY_SYS_CLK_ILO_TRIM_REG             (*(reg32 *) CYREG_CLK_ILO_TRIM)
 256:.\Generated_Source\PSoC4/CyLFClk.h ****     #define CY_SYS_CLK_ILO_TRIM_PTR             ( (reg32 *) CYREG_CLK_ILO_TRIM)
 257:.\Generated_Source\PSoC4/CyLFClk.h **** #endif  /* (CY_IP_SRSSV2) */
 258:.\Generated_Source\PSoC4/CyLFClk.h **** 
 259:.\Generated_Source\PSoC4/CyLFClk.h **** #if (CY_IP_WCO)
 260:.\Generated_Source\PSoC4/CyLFClk.h **** 
 261:.\Generated_Source\PSoC4/CyLFClk.h ****     #if (CY_PSOC4_4100BL || CY_PSOC4_4200BL)
ARM GAS  C:\Users\DELL\AppData\Local\Temp\ccdBZmRk.s 			page 6


 262:.\Generated_Source\PSoC4/CyLFClk.h ****         /* WCO Status Register */
 263:.\Generated_Source\PSoC4/CyLFClk.h ****         #define CY_SYS_CLK_WCO_STATUS_REG               (*(reg32 *) CYREG_BLE_BLESS_WCO_STATUS)
 264:.\Generated_Source\PSoC4/CyLFClk.h ****         #define CY_SYS_CLK_WCO_STATUS_PTR               ( (reg32 *) CYREG_BLE_BLESS_WCO_STATUS)
 265:.\Generated_Source\PSoC4/CyLFClk.h **** 
 266:.\Generated_Source\PSoC4/CyLFClk.h ****         /* WCO Configuration Register */
 267:.\Generated_Source\PSoC4/CyLFClk.h ****         #define CY_SYS_CLK_WCO_CONFIG_REG               (*(reg32 *) CYREG_BLE_BLESS_WCO_CONFIG)
 268:.\Generated_Source\PSoC4/CyLFClk.h ****         #define CY_SYS_CLK_WCO_CONFIG_PTR               ( (reg32 *) CYREG_BLE_BLESS_WCO_CONFIG)
 269:.\Generated_Source\PSoC4/CyLFClk.h **** 
 270:.\Generated_Source\PSoC4/CyLFClk.h ****         /* WCO Trim Register */
 271:.\Generated_Source\PSoC4/CyLFClk.h ****         #define CY_SYS_CLK_WCO_TRIM_REG                 (*(reg32 *) CYREG_BLE_BLESS_WCO_TRIM)
 272:.\Generated_Source\PSoC4/CyLFClk.h ****         #define CY_SYS_CLK_WCO_TRIM_PTR                 ( (reg32 *) CYREG_BLE_BLESS_WCO_TRIM)
 273:.\Generated_Source\PSoC4/CyLFClk.h ****     #else   /* (CY_PSOC4_4100M || CY_PSOC4_4200M) */
 274:.\Generated_Source\PSoC4/CyLFClk.h ****         /* WCO Status Register */
 275:.\Generated_Source\PSoC4/CyLFClk.h ****         #define CY_SYS_CLK_WCO_STATUS_REG               (*(reg32 *) CYREG_WCO_STATUS)
 276:.\Generated_Source\PSoC4/CyLFClk.h ****         #define CY_SYS_CLK_WCO_STATUS_PTR               ( (reg32 *) CYREG_WCO_STATUS)
 277:.\Generated_Source\PSoC4/CyLFClk.h **** 
 278:.\Generated_Source\PSoC4/CyLFClk.h ****         /* WCO Configuration Register */
 279:.\Generated_Source\PSoC4/CyLFClk.h ****         #define CY_SYS_CLK_WCO_CONFIG_REG               (*(reg32 *) CYREG_WCO_CONFIG)
 280:.\Generated_Source\PSoC4/CyLFClk.h ****         #define CY_SYS_CLK_WCO_CONFIG_PTR               ( (reg32 *) CYREG_WCO_CONFIG)
 281:.\Generated_Source\PSoC4/CyLFClk.h **** 
 282:.\Generated_Source\PSoC4/CyLFClk.h ****         /* WCO Trim Register */
 283:.\Generated_Source\PSoC4/CyLFClk.h ****         #define CY_SYS_CLK_WCO_TRIM_REG                 (*(reg32 *) CYREG_WCO_TRIM)
 284:.\Generated_Source\PSoC4/CyLFClk.h ****         #define CY_SYS_CLK_WCO_TRIM_PTR                 ( (reg32 *) CYREG_WCO_TRIM)
 285:.\Generated_Source\PSoC4/CyLFClk.h ****     #endif /* (CY_PSOC4_4100BL || CY_PSOC4_4200BL) */
 286:.\Generated_Source\PSoC4/CyLFClk.h **** 
 287:.\Generated_Source\PSoC4/CyLFClk.h **** #endif  /* (CY_IP_WCO) */
 288:.\Generated_Source\PSoC4/CyLFClk.h **** 
 289:.\Generated_Source\PSoC4/CyLFClk.h **** 
 290:.\Generated_Source\PSoC4/CyLFClk.h **** /*******************************************************************************
 291:.\Generated_Source\PSoC4/CyLFClk.h **** * WDT API Registers
 292:.\Generated_Source\PSoC4/CyLFClk.h **** *******************************************************************************/
 293:.\Generated_Source\PSoC4/CyLFClk.h **** #if(CY_IP_SRSSV2)
 294:.\Generated_Source\PSoC4/CyLFClk.h ****     #define CY_SYS_WDT_CTRLOW_REG               (*(reg32 *) CYREG_WDT_CTRLOW)
 295:.\Generated_Source\PSoC4/CyLFClk.h ****     #define CY_SYS_WDT_CTRLOW_PTR               ( (reg32 *) CYREG_WDT_CTRLOW)
 296:.\Generated_Source\PSoC4/CyLFClk.h **** 
 297:.\Generated_Source\PSoC4/CyLFClk.h ****     #define CY_SYS_WDT_CTRHIGH_REG              (*(reg32 *) CYREG_WDT_CTRHIGH)
 298:.\Generated_Source\PSoC4/CyLFClk.h ****     #define CY_SYS_WDT_CTRHIGH_PTR              ( (reg32 *) CYREG_WDT_CTRHIGH)
 299:.\Generated_Source\PSoC4/CyLFClk.h **** 
 300:.\Generated_Source\PSoC4/CyLFClk.h ****     #define CY_SYS_WDT_MATCH_REG                (*(reg32 *) CYREG_WDT_MATCH)
 301:.\Generated_Source\PSoC4/CyLFClk.h ****     #define CY_SYS_WDT_MATCH_PTR                ( (reg32 *) CYREG_WDT_MATCH)
 302:.\Generated_Source\PSoC4/CyLFClk.h **** 
 303:.\Generated_Source\PSoC4/CyLFClk.h ****     #define CY_SYS_WDT_CONFIG_REG               (*(reg32 *) CYREG_WDT_CONFIG)
 304:.\Generated_Source\PSoC4/CyLFClk.h ****     #define CY_SYS_WDT_CONFIG_PTR               ( (reg32 *) CYREG_WDT_CONFIG)
 305:.\Generated_Source\PSoC4/CyLFClk.h **** 
 306:.\Generated_Source\PSoC4/CyLFClk.h ****     #define CY_SYS_WDT_CONTROL_REG              (*(reg32 *) CYREG_WDT_CONTROL)
 307:.\Generated_Source\PSoC4/CyLFClk.h ****     #define CY_SYS_WDT_CONTROL_PTR              ( (reg32 *) CYREG_WDT_CONTROL)
 308:.\Generated_Source\PSoC4/CyLFClk.h **** #else
 309:.\Generated_Source\PSoC4/CyLFClk.h ****     #define CY_SYS_WDT_DISABLE_KEY_REG          (*(reg32 *) CYREG_WDT_DISABLE_KEY)
 310:.\Generated_Source\PSoC4/CyLFClk.h ****     #define CY_SYS_WDT_DISABLE_KEY_PTR          ( (reg32 *) CYREG_WDT_DISABLE_KEY)
 311:.\Generated_Source\PSoC4/CyLFClk.h **** 
 312:.\Generated_Source\PSoC4/CyLFClk.h ****     #define CY_SYS_WDT_MATCH_REG                (*(reg32 *) CYREG_WDT_MATCH)
 313:.\Generated_Source\PSoC4/CyLFClk.h ****     #define CY_SYS_WDT_MATCH_PTR                ( (reg32 *) CYREG_WDT_MATCH)
 314:.\Generated_Source\PSoC4/CyLFClk.h **** 
 315:.\Generated_Source\PSoC4/CyLFClk.h ****     #define CY_SYS_WDT_COUNTER_REG              (*(reg32 *) CYREG_WDT_COUNTER)
 316:.\Generated_Source\PSoC4/CyLFClk.h ****     #define CY_SYS_WDT_COUNTER_PTR              ( (reg32 *) CYREG_WDT_COUNTER)
 317:.\Generated_Source\PSoC4/CyLFClk.h **** 
 318:.\Generated_Source\PSoC4/CyLFClk.h ****     #define CY_SYS_SRSS_INTR_REG                (*(reg32 *) CYREG_SRSS_INTR)
ARM GAS  C:\Users\DELL\AppData\Local\Temp\ccdBZmRk.s 			page 7


 319:.\Generated_Source\PSoC4/CyLFClk.h ****     #define CY_SYS_SRSS_INTR_PTR                ( (reg32 *) CYREG_SRSS_INTR)
 320:.\Generated_Source\PSoC4/CyLFClk.h **** 
 321:.\Generated_Source\PSoC4/CyLFClk.h ****     #define CY_SYS_SRSS_INTR_MASK_REG           (*(reg32 *) CYREG_SRSS_INTR_MASK)
 322:.\Generated_Source\PSoC4/CyLFClk.h ****     #define CY_SYS_SRSS_INTR_MASK_PTR           ( (reg32 *) CYREG_SRSS_INTR_MASK)
 323:.\Generated_Source\PSoC4/CyLFClk.h **** #endif  /* (CY_IP_SRSSV2) */
 324:.\Generated_Source\PSoC4/CyLFClk.h **** 
 325:.\Generated_Source\PSoC4/CyLFClk.h **** #if (CY_IP_WCO)
 326:.\Generated_Source\PSoC4/CyLFClk.h **** 
 327:.\Generated_Source\PSoC4/CyLFClk.h ****     /*******************************************************************************
 328:.\Generated_Source\PSoC4/CyLFClk.h ****     * Function Name: CySysClkWcoSetHighPowerMode
 329:.\Generated_Source\PSoC4/CyLFClk.h ****     ********************************************************************************
 330:.\Generated_Source\PSoC4/CyLFClk.h ****     *
 331:.\Generated_Source\PSoC4/CyLFClk.h ****     * Summary:
 332:.\Generated_Source\PSoC4/CyLFClk.h ****     *  Sets the high power mode for the 32 KHz WCO.
 333:.\Generated_Source\PSoC4/CyLFClk.h ****     *
 334:.\Generated_Source\PSoC4/CyLFClk.h ****     * Parameters:
 335:.\Generated_Source\PSoC4/CyLFClk.h ****     *  None.
 336:.\Generated_Source\PSoC4/CyLFClk.h ****     *
 337:.\Generated_Source\PSoC4/CyLFClk.h ****     * Return:
 338:.\Generated_Source\PSoC4/CyLFClk.h ****     *  None.
 339:.\Generated_Source\PSoC4/CyLFClk.h ****     *
 340:.\Generated_Source\PSoC4/CyLFClk.h ****     * Side Effects:
 341:.\Generated_Source\PSoC4/CyLFClk.h ****     *  None.
 342:.\Generated_Source\PSoC4/CyLFClk.h ****     *
 343:.\Generated_Source\PSoC4/CyLFClk.h ****     *******************************************************************************/
 344:.\Generated_Source\PSoC4/CyLFClk.h ****     static CY_INLINE void CySysClkWcoSetHighPowerMode(void)
 345:.\Generated_Source\PSoC4/CyLFClk.h ****     {
  25              		.loc 1 345 0
  26              		.cfi_startproc
  27 0000 80B5     		push	{r7, lr}
  28              		.cfi_def_cfa_offset 8
  29              		.cfi_offset 7, -8
  30              		.cfi_offset 14, -4
  31 0002 00AF     		add	r7, sp, #0
  32              		.cfi_def_cfa_register 7
 346:.\Generated_Source\PSoC4/CyLFClk.h ****         /* Switch off low power mode for WCO */
 347:.\Generated_Source\PSoC4/CyLFClk.h ****         CY_SYS_CLK_WCO_CONFIG_REG &= (uint32) ~CY_SYS_CLK_WCO_CONFIG_LPM_EN;
  33              		.loc 1 347 0
  34 0004 0E4B     		ldr	r3, .L2
  35 0006 0E4A     		ldr	r2, .L2
  36 0008 1268     		ldr	r2, [r2]
  37 000a 0121     		mov	r1, #1
  38 000c 8A43     		bic	r2, r1
  39 000e 1A60     		str	r2, [r3]
 348:.\Generated_Source\PSoC4/CyLFClk.h ****         
 349:.\Generated_Source\PSoC4/CyLFClk.h ****         /* Switch off auto low power mode in WCO */
 350:.\Generated_Source\PSoC4/CyLFClk.h ****         CY_SYS_CLK_WCO_CONFIG_REG &= ((uint32)~CY_SYS_CLK_WCO_CONFIG_LPM_AUTO);
  40              		.loc 1 350 0
  41 0010 0B4B     		ldr	r3, .L2
  42 0012 0B4A     		ldr	r2, .L2
  43 0014 1268     		ldr	r2, [r2]
  44 0016 0221     		mov	r1, #2
  45 0018 8A43     		bic	r2, r1
  46 001a 1A60     		str	r2, [r3]
 351:.\Generated_Source\PSoC4/CyLFClk.h **** 
 352:.\Generated_Source\PSoC4/CyLFClk.h ****         /* Restore WCO trim register HPM settings */
 353:.\Generated_Source\PSoC4/CyLFClk.h ****         CY_SYS_CLK_WCO_TRIM_REG = (CY_SYS_CLK_WCO_TRIM_REG & (uint32)(~CY_SYS_CLK_WCO_TRIM_GM_MASK)
ARM GAS  C:\Users\DELL\AppData\Local\Temp\ccdBZmRk.s 			page 8


  47              		.loc 1 353 0
  48 001c 094B     		ldr	r3, .L2+4
  49 001e 094A     		ldr	r2, .L2+4
  50 0020 1268     		ldr	r2, [r2]
  51 0022 3021     		mov	r1, #48
  52 0024 8A43     		bic	r2, r1
 354:.\Generated_Source\PSoC4/CyLFClk.h ****                     | (uint32)(CY_SYS_CLK_WCO_TRIM_GM_HPM << CY_SYS_CLK_WCO_TRIM_GM_SHIFT);
  53              		.loc 1 354 0
  54 0026 1021     		mov	r1, #16
  55 0028 0A43     		orr	r2, r1
 353:.\Generated_Source\PSoC4/CyLFClk.h ****                     | (uint32)(CY_SYS_CLK_WCO_TRIM_GM_HPM << CY_SYS_CLK_WCO_TRIM_GM_SHIFT);
  56              		.loc 1 353 0
  57 002a 1A60     		str	r2, [r3]
 355:.\Generated_Source\PSoC4/CyLFClk.h ****         CY_SYS_CLK_WCO_TRIM_REG = (CY_SYS_CLK_WCO_TRIM_REG & (uint32)(~CY_SYS_CLK_WCO_TRIM_XGM_MASK
  58              		.loc 1 355 0
  59 002c 054B     		ldr	r3, .L2+4
  60 002e 054A     		ldr	r2, .L2+4
  61 0030 1268     		ldr	r2, [r2]
  62 0032 0721     		mov	r1, #7
  63 0034 8A43     		bic	r2, r1
 356:.\Generated_Source\PSoC4/CyLFClk.h ****                     | (uint32)(CY_SYS_CLK_WCO_TRIM_XGM_2620NA << CY_SYS_CLK_WCO_TRIM_XGM_SHIFT);
  64              		.loc 1 356 0
  65 0036 0121     		mov	r1, #1
  66 0038 0A43     		orr	r2, r1
 355:.\Generated_Source\PSoC4/CyLFClk.h ****         CY_SYS_CLK_WCO_TRIM_REG = (CY_SYS_CLK_WCO_TRIM_REG & (uint32)(~CY_SYS_CLK_WCO_TRIM_XGM_MASK
  67              		.loc 1 355 0
  68 003a 1A60     		str	r2, [r3]
 357:.\Generated_Source\PSoC4/CyLFClk.h ****     }
  69              		.loc 1 357 0
  70 003c BD46     		mov	sp, r7
  71              		@ sp needed
  72 003e 80BD     		pop	{r7, pc}
  73              	.L3:
  74              		.align	2
  75              	.L2:
  76 0040 00F02E40 		.word	1076817920
  77 0044 00FF2E40 		.word	1076821760
  78              		.cfi_endproc
  79              	.LFE0:
  80              		.size	CySysClkWcoSetHighPowerMode, .-CySysClkWcoSetHighPowerMode
  81              		.section	.text.CySysClkWcoSetLowPowerMode,"ax",%progbits
  82              		.align	2
  83              		.code	16
  84              		.thumb_func
  85              		.type	CySysClkWcoSetLowPowerMode, %function
  86              	CySysClkWcoSetLowPowerMode:
  87              	.LFB1:
 358:.\Generated_Source\PSoC4/CyLFClk.h **** 
 359:.\Generated_Source\PSoC4/CyLFClk.h ****     #if(!CY_PSOC4_4100M && !CY_PSOC4_4200M)
 360:.\Generated_Source\PSoC4/CyLFClk.h ****         /*******************************************************************************
 361:.\Generated_Source\PSoC4/CyLFClk.h ****         * Function Name: CySysClkWcoSetLowPowerMode
 362:.\Generated_Source\PSoC4/CyLFClk.h ****         ********************************************************************************
 363:.\Generated_Source\PSoC4/CyLFClk.h ****         *
 364:.\Generated_Source\PSoC4/CyLFClk.h ****         * Summary:
 365:.\Generated_Source\PSoC4/CyLFClk.h ****         *  Sets the low power mode for the 32 KHz WCO.
 366:.\Generated_Source\PSoC4/CyLFClk.h ****         *
 367:.\Generated_Source\PSoC4/CyLFClk.h ****         * Parameters:
ARM GAS  C:\Users\DELL\AppData\Local\Temp\ccdBZmRk.s 			page 9


 368:.\Generated_Source\PSoC4/CyLFClk.h ****         *  None.
 369:.\Generated_Source\PSoC4/CyLFClk.h ****         *
 370:.\Generated_Source\PSoC4/CyLFClk.h ****         * Return:
 371:.\Generated_Source\PSoC4/CyLFClk.h ****         *  None.
 372:.\Generated_Source\PSoC4/CyLFClk.h ****         *
 373:.\Generated_Source\PSoC4/CyLFClk.h ****         * Side Effects:
 374:.\Generated_Source\PSoC4/CyLFClk.h ****         *  None.
 375:.\Generated_Source\PSoC4/CyLFClk.h ****         *
 376:.\Generated_Source\PSoC4/CyLFClk.h ****         *******************************************************************************/
 377:.\Generated_Source\PSoC4/CyLFClk.h ****         static CY_INLINE void CySysClkWcoSetLowPowerMode(void)
 378:.\Generated_Source\PSoC4/CyLFClk.h ****         {
  88              		.loc 1 378 0
  89              		.cfi_startproc
  90 0000 80B5     		push	{r7, lr}
  91              		.cfi_def_cfa_offset 8
  92              		.cfi_offset 7, -8
  93              		.cfi_offset 14, -4
  94 0002 00AF     		add	r7, sp, #0
  95              		.cfi_def_cfa_register 7
 379:.\Generated_Source\PSoC4/CyLFClk.h ****             /* Switch off auto low power mode in WCO */
 380:.\Generated_Source\PSoC4/CyLFClk.h ****             CY_SYS_CLK_WCO_CONFIG_REG &= ((uint32)~CY_SYS_CLK_WCO_CONFIG_LPM_AUTO);
  96              		.loc 1 380 0
  97 0004 0E4B     		ldr	r3, .L5
  98 0006 0E4A     		ldr	r2, .L5
  99 0008 1268     		ldr	r2, [r2]
 100 000a 0221     		mov	r1, #2
 101 000c 8A43     		bic	r2, r1
 102 000e 1A60     		str	r2, [r3]
 381:.\Generated_Source\PSoC4/CyLFClk.h **** 
 382:.\Generated_Source\PSoC4/CyLFClk.h ****             /* Change WCO trim register settings to LPM */
 383:.\Generated_Source\PSoC4/CyLFClk.h ****             CY_SYS_CLK_WCO_TRIM_REG = (CY_SYS_CLK_WCO_TRIM_REG & (uint32)(~CY_SYS_CLK_WCO_TRIM_XGM_
 103              		.loc 1 383 0
 104 0010 0C4B     		ldr	r3, .L5+4
 105 0012 0C4A     		ldr	r2, .L5+4
 106 0014 1268     		ldr	r2, [r2]
 107 0016 0721     		mov	r1, #7
 108 0018 8A43     		bic	r2, r1
 384:.\Generated_Source\PSoC4/CyLFClk.h ****                         | (uint32)(CY_SYS_CLK_WCO_TRIM_XGM_2250NA << CY_SYS_CLK_WCO_TRIM_XGM_SHIFT)
 109              		.loc 1 384 0
 110 001a 0221     		mov	r1, #2
 111 001c 0A43     		orr	r2, r1
 383:.\Generated_Source\PSoC4/CyLFClk.h ****                         | (uint32)(CY_SYS_CLK_WCO_TRIM_XGM_2250NA << CY_SYS_CLK_WCO_TRIM_XGM_SHIFT)
 112              		.loc 1 383 0
 113 001e 1A60     		str	r2, [r3]
 385:.\Generated_Source\PSoC4/CyLFClk.h ****             CY_SYS_CLK_WCO_TRIM_REG = (CY_SYS_CLK_WCO_TRIM_REG & (uint32)(~CY_SYS_CLK_WCO_TRIM_GM_M
 114              		.loc 1 385 0
 115 0020 084B     		ldr	r3, .L5+4
 116 0022 084A     		ldr	r2, .L5+4
 117 0024 1268     		ldr	r2, [r2]
 118 0026 3021     		mov	r1, #48
 119 0028 8A43     		bic	r2, r1
 386:.\Generated_Source\PSoC4/CyLFClk.h ****                         | (uint32)(CY_SYS_CLK_WCO_TRIM_GM_LPM << CY_SYS_CLK_WCO_TRIM_GM_SHIFT);
 120              		.loc 1 386 0
 121 002a 2021     		mov	r1, #32
 122 002c 0A43     		orr	r2, r1
 385:.\Generated_Source\PSoC4/CyLFClk.h ****             CY_SYS_CLK_WCO_TRIM_REG = (CY_SYS_CLK_WCO_TRIM_REG & (uint32)(~CY_SYS_CLK_WCO_TRIM_GM_M
 123              		.loc 1 385 0
ARM GAS  C:\Users\DELL\AppData\Local\Temp\ccdBZmRk.s 			page 10


 124 002e 1A60     		str	r2, [r3]
 387:.\Generated_Source\PSoC4/CyLFClk.h **** 
 388:.\Generated_Source\PSoC4/CyLFClk.h ****             /* Switch on low power mode for WCO */
 389:.\Generated_Source\PSoC4/CyLFClk.h ****             CY_SYS_CLK_WCO_CONFIG_REG |= CY_SYS_CLK_WCO_CONFIG_LPM_EN;
 125              		.loc 1 389 0
 126 0030 034B     		ldr	r3, .L5
 127 0032 034A     		ldr	r2, .L5
 128 0034 1268     		ldr	r2, [r2]
 129 0036 0121     		mov	r1, #1
 130 0038 0A43     		orr	r2, r1
 131 003a 1A60     		str	r2, [r3]
 390:.\Generated_Source\PSoC4/CyLFClk.h ****         }
 132              		.loc 1 390 0
 133 003c BD46     		mov	sp, r7
 134              		@ sp needed
 135 003e 80BD     		pop	{r7, pc}
 136              	.L6:
 137              		.align	2
 138              	.L5:
 139 0040 00F02E40 		.word	1076817920
 140 0044 00FF2E40 		.word	1076821760
 141              		.cfi_endproc
 142              	.LFE1:
 143              		.size	CySysClkWcoSetLowPowerMode, .-CySysClkWcoSetLowPowerMode
 144              		.bss
 145              		.align	2
 146              	lfclkPosedgeWdtCounter0Enabled:
 147 0000 00000000 		.space	4
 148              		.align	2
 149              	lfclkPosedgeWdtCounter0Mode:
 150 0004 00000000 		.space	4
 151              		.align	2
 152              	disableServicedIsr:
 153 0008 00000000 		.space	4
 154              		.data
 155              		.align	2
 156              		.type	wdtIsrMask, %object
 157              		.size	wdtIsrMask, 4
 158              	wdtIsrMask:
 159 0000 04040400 		.word	263172
 160              		.section	.rodata
 161              		.align	2
 162              		.type	counterIntMaskTbl, %object
 163              		.size	counterIntMaskTbl, 12
 164              	counterIntMaskTbl:
 165 0000 04000000 		.word	4
 166 0004 00040000 		.word	1024
 167 0008 00000400 		.word	262144
 168              		.bss
 169              		.align	2
 170              	cySysWdtCallback:
 171 000c 00000000 		.space	12
 171      00000000 
 171      00000000 
 172              		.section	.text.CySysClkIloStart,"ax",%progbits
 173              		.align	2
 174              		.global	CySysClkIloStart
ARM GAS  C:\Users\DELL\AppData\Local\Temp\ccdBZmRk.s 			page 11


 175              		.code	16
 176              		.thumb_func
 177              		.type	CySysClkIloStart, %function
 178              	CySysClkIloStart:
 179              	.LFB2:
 180              		.file 2 ".\\Generated_Source\\PSoC4\\CyLFClk.c"
   1:.\Generated_Source\PSoC4/CyLFClk.c **** /*******************************************************************************
   2:.\Generated_Source\PSoC4/CyLFClk.c **** * File Name: .c
   3:.\Generated_Source\PSoC4/CyLFClk.c **** * Version 1.0
   4:.\Generated_Source\PSoC4/CyLFClk.c **** *
   5:.\Generated_Source\PSoC4/CyLFClk.c **** * Description:
   6:.\Generated_Source\PSoC4/CyLFClk.c **** *  This file provides the source code to API for the cy_lfclk Component.
   7:.\Generated_Source\PSoC4/CyLFClk.c **** *
   8:.\Generated_Source\PSoC4/CyLFClk.c **** ********************************************************************************
   9:.\Generated_Source\PSoC4/CyLFClk.c **** * Copyright 2008-2015, Cypress Semiconductor Corporation.  All rights reserved.
  10:.\Generated_Source\PSoC4/CyLFClk.c **** * You may use this file only in accordance with the license, terms, conditions,
  11:.\Generated_Source\PSoC4/CyLFClk.c **** * disclaimers, and limitations in the end user license agreement accompanying
  12:.\Generated_Source\PSoC4/CyLFClk.c **** * the software package with which this file was provided.
  13:.\Generated_Source\PSoC4/CyLFClk.c **** *******************************************************************************/
  14:.\Generated_Source\PSoC4/CyLFClk.c **** 
  15:.\Generated_Source\PSoC4/CyLFClk.c **** 
  16:.\Generated_Source\PSoC4/CyLFClk.c **** #include "CyLFClk.h"
  17:.\Generated_Source\PSoC4/CyLFClk.c **** #include "CyLib.h"
  18:.\Generated_Source\PSoC4/CyLFClk.c **** 
  19:.\Generated_Source\PSoC4/CyLFClk.c **** 
  20:.\Generated_Source\PSoC4/CyLFClk.c **** #if (CY_IP_WCO)
  21:.\Generated_Source\PSoC4/CyLFClk.c ****     static uint32 CySysClkGetLfclkSource(void);
  22:.\Generated_Source\PSoC4/CyLFClk.c **** #endif /* (CY_IP_WCO) */
  23:.\Generated_Source\PSoC4/CyLFClk.c **** 
  24:.\Generated_Source\PSoC4/CyLFClk.c **** #if(CY_IP_SRSSV2)
  25:.\Generated_Source\PSoC4/CyLFClk.c ****     /* CySysClkLfclkPosedgeCatch() / CySysClkLfclkPosedgeRestore() */
  26:.\Generated_Source\PSoC4/CyLFClk.c ****     static uint32 lfclkPosedgeWdtCounter0Enabled = 0u;
  27:.\Generated_Source\PSoC4/CyLFClk.c ****     static uint32 lfclkPosedgeWdtCounter0Mode    = CY_SYS_WDT_MODE_NONE;
  28:.\Generated_Source\PSoC4/CyLFClk.c **** 
  29:.\Generated_Source\PSoC4/CyLFClk.c ****     static volatile uint32 disableServicedIsr = 0uL;
  30:.\Generated_Source\PSoC4/CyLFClk.c ****     static volatile uint32 wdtIsrMask = CY_SYS_WDT_COUNTER0_INT |\
  31:.\Generated_Source\PSoC4/CyLFClk.c ****                                         CY_SYS_WDT_COUNTER1_INT |\
  32:.\Generated_Source\PSoC4/CyLFClk.c ****                                         CY_SYS_WDT_COUNTER2_INT;
  33:.\Generated_Source\PSoC4/CyLFClk.c **** 
  34:.\Generated_Source\PSoC4/CyLFClk.c ****     static const uint32 counterIntMaskTbl[CY_WDT_NUM_OF_WDT] = {CY_SYS_WDT_COUNTER0_INT,
  35:.\Generated_Source\PSoC4/CyLFClk.c ****                                                                 CY_SYS_WDT_COUNTER1_INT,
  36:.\Generated_Source\PSoC4/CyLFClk.c ****                                                                 CY_SYS_WDT_COUNTER2_INT};
  37:.\Generated_Source\PSoC4/CyLFClk.c **** 
  38:.\Generated_Source\PSoC4/CyLFClk.c ****     static void CySysClkLfclkPosedgeCatch(void);
  39:.\Generated_Source\PSoC4/CyLFClk.c ****     static void CySysClkLfclkPosedgeRestore(void);
  40:.\Generated_Source\PSoC4/CyLFClk.c **** 
  41:.\Generated_Source\PSoC4/CyLFClk.c ****     static uint32 CySysWdtLocked(void);
  42:.\Generated_Source\PSoC4/CyLFClk.c ****     static uint32 CySysClkIloEnabled(void);
  43:.\Generated_Source\PSoC4/CyLFClk.c **** #endif /* (CY_IP_SRSSV2) */
  44:.\Generated_Source\PSoC4/CyLFClk.c **** 
  45:.\Generated_Source\PSoC4/CyLFClk.c **** #if(CY_IP_SRSSV2)
  46:.\Generated_Source\PSoC4/CyLFClk.c ****     static cyWdtCallback cySysWdtCallback[CY_WDT_NUM_OF_WDT] = {(void *)0, (void *)0, (void *)0};
  47:.\Generated_Source\PSoC4/CyLFClk.c **** #else
  48:.\Generated_Source\PSoC4/CyLFClk.c ****     static cyWdtCallback cySysWdtCallback = (void *)0;
  49:.\Generated_Source\PSoC4/CyLFClk.c **** #endif /* (CY_IP_SRSSV2) */
  50:.\Generated_Source\PSoC4/CyLFClk.c **** 
  51:.\Generated_Source\PSoC4/CyLFClk.c **** /*******************************************************************************
ARM GAS  C:\Users\DELL\AppData\Local\Temp\ccdBZmRk.s 			page 12


  52:.\Generated_Source\PSoC4/CyLFClk.c **** * Function Name: CySysClkIloStart
  53:.\Generated_Source\PSoC4/CyLFClk.c **** ********************************************************************************
  54:.\Generated_Source\PSoC4/CyLFClk.c **** *
  55:.\Generated_Source\PSoC4/CyLFClk.c **** * Summary:
  56:.\Generated_Source\PSoC4/CyLFClk.c **** *  Enables ILO. Refer to the device datasheet for the ILO startup time.
  57:.\Generated_Source\PSoC4/CyLFClk.c **** *
  58:.\Generated_Source\PSoC4/CyLFClk.c **** * Parameters:
  59:.\Generated_Source\PSoC4/CyLFClk.c **** *  None
  60:.\Generated_Source\PSoC4/CyLFClk.c **** *
  61:.\Generated_Source\PSoC4/CyLFClk.c **** * Return:
  62:.\Generated_Source\PSoC4/CyLFClk.c **** *  None
  63:.\Generated_Source\PSoC4/CyLFClk.c **** *
  64:.\Generated_Source\PSoC4/CyLFClk.c **** *******************************************************************************/
  65:.\Generated_Source\PSoC4/CyLFClk.c **** void CySysClkIloStart(void)
  66:.\Generated_Source\PSoC4/CyLFClk.c **** {
 181              		.loc 2 66 0
 182              		.cfi_startproc
 183 0000 80B5     		push	{r7, lr}
 184              		.cfi_def_cfa_offset 8
 185              		.cfi_offset 7, -8
 186              		.cfi_offset 14, -4
 187 0002 00AF     		add	r7, sp, #0
 188              		.cfi_def_cfa_register 7
  67:.\Generated_Source\PSoC4/CyLFClk.c ****     CY_SYS_CLK_ILO_CONFIG_REG |= CY_SYS_CLK_ILO_CONFIG_ENABLE;
 189              		.loc 2 67 0
 190 0004 044B     		ldr	r3, .L8
 191 0006 044A     		ldr	r2, .L8
 192 0008 1268     		ldr	r2, [r2]
 193 000a 8021     		mov	r1, #128
 194 000c 0906     		lsl	r1, r1, #24
 195 000e 0A43     		orr	r2, r1
 196 0010 1A60     		str	r2, [r3]
  68:.\Generated_Source\PSoC4/CyLFClk.c **** }
 197              		.loc 2 68 0
 198 0012 BD46     		mov	sp, r7
 199              		@ sp needed
 200 0014 80BD     		pop	{r7, pc}
 201              	.L9:
 202 0016 C046     		.align	2
 203              	.L8:
 204 0018 04010B40 		.word	1074462980
 205              		.cfi_endproc
 206              	.LFE2:
 207              		.size	CySysClkIloStart, .-CySysClkIloStart
 208              		.section	.text.CySysClkIloStop,"ax",%progbits
 209              		.align	2
 210              		.global	CySysClkIloStop
 211              		.code	16
 212              		.thumb_func
 213              		.type	CySysClkIloStop, %function
 214              	CySysClkIloStop:
 215              	.LFB3:
  69:.\Generated_Source\PSoC4/CyLFClk.c **** 
  70:.\Generated_Source\PSoC4/CyLFClk.c **** 
  71:.\Generated_Source\PSoC4/CyLFClk.c **** /*******************************************************************************
  72:.\Generated_Source\PSoC4/CyLFClk.c **** * Function Name: CySysClkIloStop
  73:.\Generated_Source\PSoC4/CyLFClk.c **** ********************************************************************************
ARM GAS  C:\Users\DELL\AppData\Local\Temp\ccdBZmRk.s 			page 13


  74:.\Generated_Source\PSoC4/CyLFClk.c **** *
  75:.\Generated_Source\PSoC4/CyLFClk.c **** * Summary:
  76:.\Generated_Source\PSoC4/CyLFClk.c **** *  Disables ILO.
  77:.\Generated_Source\PSoC4/CyLFClk.c **** *
  78:.\Generated_Source\PSoC4/CyLFClk.c **** * Parameters:
  79:.\Generated_Source\PSoC4/CyLFClk.c **** *  None.
  80:.\Generated_Source\PSoC4/CyLFClk.c **** *
  81:.\Generated_Source\PSoC4/CyLFClk.c **** * Return:
  82:.\Generated_Source\PSoC4/CyLFClk.c **** *  None.
  83:.\Generated_Source\PSoC4/CyLFClk.c **** *
  84:.\Generated_Source\PSoC4/CyLFClk.c **** * Side Effects:
  85:.\Generated_Source\PSoC4/CyLFClk.c **** *  This function has no effect if WDT is locked (CySysWdtLock() is
  86:.\Generated_Source\PSoC4/CyLFClk.c **** *  called). Call CySysWdtUnlock() to unlock WDT and stop ILO.
  87:.\Generated_Source\PSoC4/CyLFClk.c **** *
  88:.\Generated_Source\PSoC4/CyLFClk.c **** *  PSoC 4100 / PSoC 4200: Note that ILO is required for WDT's operation.
  89:.\Generated_Source\PSoC4/CyLFClk.c **** *  ILO is required for WDT operation.
  90:.\Generated_Source\PSoC4/CyLFClk.c **** *
  91:.\Generated_Source\PSoC4/CyLFClk.c **** *  PSoC 4100-BL / PSoC 4200-BL and PSoC 4100M / PSoC 4200M:
  92:.\Generated_Source\PSoC4/CyLFClk.c **** *  Stopping ILO affects the peripheral clocked by LFCLK, if
  93:.\Generated_Source\PSoC4/CyLFClk.c **** *  LFCLK is configured to be sourced by ILO.
  94:.\Generated_Source\PSoC4/CyLFClk.c **** *
  95:.\Generated_Source\PSoC4/CyLFClk.c **** *******************************************************************************/
  96:.\Generated_Source\PSoC4/CyLFClk.c **** void CySysClkIloStop(void)
  97:.\Generated_Source\PSoC4/CyLFClk.c **** {
 216              		.loc 2 97 0
 217              		.cfi_startproc
 218 0000 90B5     		push	{r4, r7, lr}
 219              		.cfi_def_cfa_offset 12
 220              		.cfi_offset 4, -12
 221              		.cfi_offset 7, -8
 222              		.cfi_offset 14, -4
 223 0002 83B0     		sub	sp, sp, #12
 224              		.cfi_def_cfa_offset 24
 225 0004 00AF     		add	r7, sp, #0
 226              		.cfi_def_cfa_register 7
  98:.\Generated_Source\PSoC4/CyLFClk.c ****     #if(CY_IP_SRSSV2)
  99:.\Generated_Source\PSoC4/CyLFClk.c ****         uint8  interruptState;
 100:.\Generated_Source\PSoC4/CyLFClk.c **** 
 101:.\Generated_Source\PSoC4/CyLFClk.c ****         /* Do nothing if WDT is locked or ILO is disabled */
 102:.\Generated_Source\PSoC4/CyLFClk.c ****         if (0u == CySysWdtLocked())
 227              		.loc 2 102 0
 228 0006 FFF7FEFF 		bl	CySysWdtLocked
 229 000a 031E     		sub	r3, r0, #0
 230 000c 22D1     		bne	.L10
 103:.\Generated_Source\PSoC4/CyLFClk.c ****         {
 104:.\Generated_Source\PSoC4/CyLFClk.c ****             if (0u != CySysClkIloEnabled())
 231              		.loc 2 104 0
 232 000e FFF7FEFF 		bl	CySysClkIloEnabled
 233 0012 031E     		sub	r3, r0, #0
 234 0014 1ED0     		beq	.L10
 105:.\Generated_Source\PSoC4/CyLFClk.c ****             {
 106:.\Generated_Source\PSoC4/CyLFClk.c **** 
 107:.\Generated_Source\PSoC4/CyLFClk.c ****             #if (CY_IP_WCO)
 108:.\Generated_Source\PSoC4/CyLFClk.c ****                 if (CY_SYS_CLK_LFCLK_SRC_ILO == CySysClkGetLfclkSource())
 235              		.loc 2 108 0
 236 0016 FFF7FEFF 		bl	CySysClkGetLfclkSource
 237 001a 031E     		sub	r3, r0, #0
ARM GAS  C:\Users\DELL\AppData\Local\Temp\ccdBZmRk.s 			page 14


 238 001c 14D1     		bne	.L12
 109:.\Generated_Source\PSoC4/CyLFClk.c ****                 {
 110:.\Generated_Source\PSoC4/CyLFClk.c ****             #endif /* (CY_IP_WCO) */
 111:.\Generated_Source\PSoC4/CyLFClk.c **** 
 112:.\Generated_Source\PSoC4/CyLFClk.c ****                 interruptState = CyEnterCriticalSection();
 239              		.loc 2 112 0
 240 001e FC1D     		add	r4, r7, #7
 241 0020 FFF7FEFF 		bl	CyEnterCriticalSection
 242 0024 031C     		mov	r3, r0
 243 0026 2370     		strb	r3, [r4]
 113:.\Generated_Source\PSoC4/CyLFClk.c ****                 CySysClkLfclkPosedgeCatch();
 244              		.loc 2 113 0
 245 0028 FFF7FEFF 		bl	CySysClkLfclkPosedgeCatch
 114:.\Generated_Source\PSoC4/CyLFClk.c ****                 CY_SYS_CLK_ILO_CONFIG_REG &= ( uint32 ) ( ~( uint32 )CY_SYS_CLK_ILO_CONFIG_ENABLE);
 246              		.loc 2 114 0
 247 002c 0B4B     		ldr	r3, .L13
 248 002e 0B4A     		ldr	r2, .L13
 249 0030 1268     		ldr	r2, [r2]
 250 0032 5200     		lsl	r2, r2, #1
 251 0034 5208     		lsr	r2, r2, #1
 252 0036 1A60     		str	r2, [r3]
 115:.\Generated_Source\PSoC4/CyLFClk.c ****                 CySysClkLfclkPosedgeRestore();
 253              		.loc 2 115 0
 254 0038 FFF7FEFF 		bl	CySysClkLfclkPosedgeRestore
 116:.\Generated_Source\PSoC4/CyLFClk.c ****                 CyExitCriticalSection(interruptState);
 255              		.loc 2 116 0
 256 003c FB1D     		add	r3, r7, #7
 257 003e 1B78     		ldrb	r3, [r3]
 258 0040 181C     		mov	r0, r3
 259 0042 FFF7FEFF 		bl	CyExitCriticalSection
 260 0046 05E0     		b	.L10
 261              	.L12:
 117:.\Generated_Source\PSoC4/CyLFClk.c **** 
 118:.\Generated_Source\PSoC4/CyLFClk.c ****             #if (CY_IP_WCO)
 119:.\Generated_Source\PSoC4/CyLFClk.c ****                 }
 120:.\Generated_Source\PSoC4/CyLFClk.c ****                 else /* Safe to disable - shortened pulse does not impact peripheral */
 121:.\Generated_Source\PSoC4/CyLFClk.c ****                 {
 122:.\Generated_Source\PSoC4/CyLFClk.c ****                     CY_SYS_CLK_ILO_CONFIG_REG &= ( uint32 ) ( ~( uint32 )CY_SYS_CLK_ILO_CONFIG_ENAB
 262              		.loc 2 122 0
 263 0048 044B     		ldr	r3, .L13
 264 004a 044A     		ldr	r2, .L13
 265 004c 1268     		ldr	r2, [r2]
 266 004e 5200     		lsl	r2, r2, #1
 267 0050 5208     		lsr	r2, r2, #1
 268 0052 1A60     		str	r2, [r3]
 269              	.L10:
 123:.\Generated_Source\PSoC4/CyLFClk.c ****                 }
 124:.\Generated_Source\PSoC4/CyLFClk.c ****             #endif /* (CY_IP_WCO) */
 125:.\Generated_Source\PSoC4/CyLFClk.c **** 
 126:.\Generated_Source\PSoC4/CyLFClk.c ****             }
 127:.\Generated_Source\PSoC4/CyLFClk.c ****         }
 128:.\Generated_Source\PSoC4/CyLFClk.c ****     #else
 129:.\Generated_Source\PSoC4/CyLFClk.c ****         CY_SYS_CLK_ILO_CONFIG_REG &= ( uint32 ) ( ~( uint32 )CY_SYS_CLK_ILO_CONFIG_ENABLE);
 130:.\Generated_Source\PSoC4/CyLFClk.c ****     #endif /* (CY_IP_SRSSV2) */
 131:.\Generated_Source\PSoC4/CyLFClk.c **** }
 270              		.loc 2 131 0
 271 0054 BD46     		mov	sp, r7
ARM GAS  C:\Users\DELL\AppData\Local\Temp\ccdBZmRk.s 			page 15


 272 0056 03B0     		add	sp, sp, #12
 273              		@ sp needed
 274 0058 90BD     		pop	{r4, r7, pc}
 275              	.L14:
 276 005a C046     		.align	2
 277              	.L13:
 278 005c 04010B40 		.word	1074462980
 279              		.cfi_endproc
 280              	.LFE3:
 281              		.size	CySysClkIloStop, .-CySysClkIloStop
 282              		.section	.text.CySysClkIloEnabled,"ax",%progbits
 283              		.align	2
 284              		.code	16
 285              		.thumb_func
 286              		.type	CySysClkIloEnabled, %function
 287              	CySysClkIloEnabled:
 288              	.LFB4:
 132:.\Generated_Source\PSoC4/CyLFClk.c **** 
 133:.\Generated_Source\PSoC4/CyLFClk.c **** #if(CY_IP_SRSSV2)
 134:.\Generated_Source\PSoC4/CyLFClk.c ****     /*******************************************************************************
 135:.\Generated_Source\PSoC4/CyLFClk.c ****     * Function Name: CySysClkIloEnabled
 136:.\Generated_Source\PSoC4/CyLFClk.c ****     ********************************************************************************
 137:.\Generated_Source\PSoC4/CyLFClk.c ****     *
 138:.\Generated_Source\PSoC4/CyLFClk.c ****     * Summary:
 139:.\Generated_Source\PSoC4/CyLFClk.c ****     *  Reports the ILO enable state.
 140:.\Generated_Source\PSoC4/CyLFClk.c ****     *
 141:.\Generated_Source\PSoC4/CyLFClk.c ****     * Parameters:
 142:.\Generated_Source\PSoC4/CyLFClk.c ****     *  None.
 143:.\Generated_Source\PSoC4/CyLFClk.c ****     *
 144:.\Generated_Source\PSoC4/CyLFClk.c ****     * Return:
 145:.\Generated_Source\PSoC4/CyLFClk.c ****     *  1 if ILO is enabled, and 0 if ILO is disabled.
 146:.\Generated_Source\PSoC4/CyLFClk.c ****     *
 147:.\Generated_Source\PSoC4/CyLFClk.c ****     *******************************************************************************/
 148:.\Generated_Source\PSoC4/CyLFClk.c ****     static uint32 CySysClkIloEnabled(void)
 149:.\Generated_Source\PSoC4/CyLFClk.c ****     {
 289              		.loc 2 149 0
 290              		.cfi_startproc
 291 0000 80B5     		push	{r7, lr}
 292              		.cfi_def_cfa_offset 8
 293              		.cfi_offset 7, -8
 294              		.cfi_offset 14, -4
 295 0002 00AF     		add	r7, sp, #0
 296              		.cfi_def_cfa_register 7
 150:.\Generated_Source\PSoC4/CyLFClk.c ****         /* Prohibits writing to WDT registers and ILO/WCO registers when not equal to 0 */
 151:.\Generated_Source\PSoC4/CyLFClk.c ****         return ((0u != (CY_SYS_CLK_ILO_CONFIG_REG & (uint32)(CY_SYS_CLK_ILO_CONFIG_ENABLE))) ?
 297              		.loc 2 151 0
 298 0004 044B     		ldr	r3, .L19
 299 0006 1B68     		ldr	r3, [r3]
 152:.\Generated_Source\PSoC4/CyLFClk.c ****             (uint32) 1u :
 300              		.loc 2 152 0
 301 0008 002B     		cmp	r3, #0
 302 000a 01DA     		bge	.L16
 303              		.loc 2 152 0 is_stmt 0 discriminator 1
 304 000c 0123     		mov	r3, #1
 305 000e 00E0     		b	.L17
 306              	.L16:
 307              		.loc 2 152 0 discriminator 2
ARM GAS  C:\Users\DELL\AppData\Local\Temp\ccdBZmRk.s 			page 16


 308 0010 0023     		mov	r3, #0
 309              	.L17:
 153:.\Generated_Source\PSoC4/CyLFClk.c ****             (uint32) 0u);
 154:.\Generated_Source\PSoC4/CyLFClk.c ****     }
 310              		.loc 2 154 0 is_stmt 1
 311 0012 181C     		mov	r0, r3
 312 0014 BD46     		mov	sp, r7
 313              		@ sp needed
 314 0016 80BD     		pop	{r7, pc}
 315              	.L20:
 316              		.align	2
 317              	.L19:
 318 0018 04010B40 		.word	1074462980
 319              		.cfi_endproc
 320              	.LFE4:
 321              		.size	CySysClkIloEnabled, .-CySysClkIloEnabled
 322              		.section	.text.CySysClkGetLfclkSource,"ax",%progbits
 323              		.align	2
 324              		.code	16
 325              		.thumb_func
 326              		.type	CySysClkGetLfclkSource, %function
 327              	CySysClkGetLfclkSource:
 328              	.LFB5:
 155:.\Generated_Source\PSoC4/CyLFClk.c **** #endif /* (CY_IP_SRSSV2) */
 156:.\Generated_Source\PSoC4/CyLFClk.c **** 
 157:.\Generated_Source\PSoC4/CyLFClk.c **** 
 158:.\Generated_Source\PSoC4/CyLFClk.c **** /*******************************************************************************
 159:.\Generated_Source\PSoC4/CyLFClk.c **** * Function Name: CySysClkGetLfclkSource
 160:.\Generated_Source\PSoC4/CyLFClk.c **** ********************************************************************************
 161:.\Generated_Source\PSoC4/CyLFClk.c **** *
 162:.\Generated_Source\PSoC4/CyLFClk.c **** * Summary:
 163:.\Generated_Source\PSoC4/CyLFClk.c **** *  Gets the clock source for the LFCLK clock.
 164:.\Generated_Source\PSoC4/CyLFClk.c **** *  The function is applicable only for PSoC 4100-BL and PSoC 4200-BL.
 165:.\Generated_Source\PSoC4/CyLFClk.c **** *
 166:.\Generated_Source\PSoC4/CyLFClk.c **** * Parameters:
 167:.\Generated_Source\PSoC4/CyLFClk.c **** *  None.
 168:.\Generated_Source\PSoC4/CyLFClk.c **** *
 169:.\Generated_Source\PSoC4/CyLFClk.c **** * Return:
 170:.\Generated_Source\PSoC4/CyLFClk.c **** *  The LFCLK source:
 171:.\Generated_Source\PSoC4/CyLFClk.c **** *   CY_SYS_CLK_LFCLK_SRC_ILO    Internal Low Frequency (32 kHz) Oscillator (ILO)
 172:.\Generated_Source\PSoC4/CyLFClk.c **** *   CY_SYS_CLK_LFCLK_SRC_WCO    Low Frequency Watch Crystal Oscillator (WCO)
 173:.\Generated_Source\PSoC4/CyLFClk.c **** *
 174:.\Generated_Source\PSoC4/CyLFClk.c **** *******************************************************************************/
 175:.\Generated_Source\PSoC4/CyLFClk.c **** #if (CY_IP_WCO)
 176:.\Generated_Source\PSoC4/CyLFClk.c ****     static uint32 CySysClkGetLfclkSource(void)
 177:.\Generated_Source\PSoC4/CyLFClk.c ****     {
 329              		.loc 2 177 0
 330              		.cfi_startproc
 331 0000 80B5     		push	{r7, lr}
 332              		.cfi_def_cfa_offset 8
 333              		.cfi_offset 7, -8
 334              		.cfi_offset 14, -4
 335 0002 82B0     		sub	sp, sp, #8
 336              		.cfi_def_cfa_offset 16
 337 0004 00AF     		add	r7, sp, #0
 338              		.cfi_def_cfa_register 7
 178:.\Generated_Source\PSoC4/CyLFClk.c ****         uint32 lfclkSource;
ARM GAS  C:\Users\DELL\AppData\Local\Temp\ccdBZmRk.s 			page 17


 179:.\Generated_Source\PSoC4/CyLFClk.c ****         lfclkSource = CY_SYS_WDT_CONFIG_REG & CY_SYS_CLK_LFCLK_SEL_MASK;
 339              		.loc 2 179 0
 340 0006 054B     		ldr	r3, .L23
 341 0008 1B68     		ldr	r3, [r3]
 342 000a 9B0F     		lsr	r3, r3, #30
 343 000c 9B07     		lsl	r3, r3, #30
 344 000e 7B60     		str	r3, [r7, #4]
 180:.\Generated_Source\PSoC4/CyLFClk.c ****         return (lfclkSource);
 345              		.loc 2 180 0
 346 0010 7B68     		ldr	r3, [r7, #4]
 181:.\Generated_Source\PSoC4/CyLFClk.c ****     }
 347              		.loc 2 181 0
 348 0012 181C     		mov	r0, r3
 349 0014 BD46     		mov	sp, r7
 350 0016 02B0     		add	sp, sp, #8
 351              		@ sp needed
 352 0018 80BD     		pop	{r7, pc}
 353              	.L24:
 354 001a C046     		.align	2
 355              	.L23:
 356 001c 0C020B40 		.word	1074463244
 357              		.cfi_endproc
 358              	.LFE5:
 359              		.size	CySysClkGetLfclkSource, .-CySysClkGetLfclkSource
 360              		.section	.text.CySysClkSetLfclkSource,"ax",%progbits
 361              		.align	2
 362              		.global	CySysClkSetLfclkSource
 363              		.code	16
 364              		.thumb_func
 365              		.type	CySysClkSetLfclkSource, %function
 366              	CySysClkSetLfclkSource:
 367              	.LFB6:
 182:.\Generated_Source\PSoC4/CyLFClk.c **** #endif /* (CY_IP_WCO) */
 183:.\Generated_Source\PSoC4/CyLFClk.c **** 
 184:.\Generated_Source\PSoC4/CyLFClk.c **** 
 185:.\Generated_Source\PSoC4/CyLFClk.c **** /*******************************************************************************
 186:.\Generated_Source\PSoC4/CyLFClk.c **** * Function Name: CySysClkSetLfclkSource
 187:.\Generated_Source\PSoC4/CyLFClk.c **** ********************************************************************************
 188:.\Generated_Source\PSoC4/CyLFClk.c **** *
 189:.\Generated_Source\PSoC4/CyLFClk.c **** * Summary:
 190:.\Generated_Source\PSoC4/CyLFClk.c **** *  Sets the clock source for the LFCLK clock.
 191:.\Generated_Source\PSoC4/CyLFClk.c **** *
 192:.\Generated_Source\PSoC4/CyLFClk.c **** *  The switch between LFCLK sources must be done between the positive edges of
 193:.\Generated_Source\PSoC4/CyLFClk.c **** *  LFCLK, because the glitch risk is around the LFCLK positive edge. To ensure
 194:.\Generated_Source\PSoC4/CyLFClk.c **** *  that the switch can be done safely, the WDT counter value is read until it
 195:.\Generated_Source\PSoC4/CyLFClk.c **** *  changes.
 196:.\Generated_Source\PSoC4/CyLFClk.c **** *
 197:.\Generated_Source\PSoC4/CyLFClk.c **** *  That means that the positive edge just finished and the switch is performed.
 198:.\Generated_Source\PSoC4/CyLFClk.c **** *  The enabled WDT counter is used for that purpose. If no counters are enabled,
 199:.\Generated_Source\PSoC4/CyLFClk.c **** *  counter 0 is enabled. And after the LFCLK source is switched, counter 0
 200:.\Generated_Source\PSoC4/CyLFClk.c **** *  configuration is restored.
 201:.\Generated_Source\PSoC4/CyLFClk.c **** *
 202:.\Generated_Source\PSoC4/CyLFClk.c **** *  The function is applicable only for PSoC 4100-BL and PSoC 4200-BL.
 203:.\Generated_Source\PSoC4/CyLFClk.c **** *
 204:.\Generated_Source\PSoC4/CyLFClk.c **** * Parameters:
 205:.\Generated_Source\PSoC4/CyLFClk.c **** *  source: One of the available LFCLK sources.
 206:.\Generated_Source\PSoC4/CyLFClk.c **** *   CY_SYS_CLK_LFCLK_SRC_ILO    Internal Low Frequency (32 kHz) Oscillator (ILO)
ARM GAS  C:\Users\DELL\AppData\Local\Temp\ccdBZmRk.s 			page 18


 207:.\Generated_Source\PSoC4/CyLFClk.c **** *   CY_SYS_CLK_LFCLK_SRC_WCO    Low Frequency Watch Crystal Oscillator (WCO)
 208:.\Generated_Source\PSoC4/CyLFClk.c **** *
 209:.\Generated_Source\PSoC4/CyLFClk.c **** * Return:
 210:.\Generated_Source\PSoC4/CyLFClk.c **** *  None
 211:.\Generated_Source\PSoC4/CyLFClk.c **** *
 212:.\Generated_Source\PSoC4/CyLFClk.c **** * Side Effects:
 213:.\Generated_Source\PSoC4/CyLFClk.c **** *  This function has no effect if WDT is locked (CySysWdtLock() is
 214:.\Generated_Source\PSoC4/CyLFClk.c **** *  called). Call CySysWdtUnlock() to unlock WDT.
 215:.\Generated_Source\PSoC4/CyLFClk.c **** *
 216:.\Generated_Source\PSoC4/CyLFClk.c **** *  Both the current source and the new source must be running and stable before
 217:.\Generated_Source\PSoC4/CyLFClk.c **** *  calling this function.
 218:.\Generated_Source\PSoC4/CyLFClk.c **** *
 219:.\Generated_Source\PSoC4/CyLFClk.c **** *  Changing the LFCLK clock source may change the LFCLK clock frequency and
 220:.\Generated_Source\PSoC4/CyLFClk.c **** *  affect the functionality that uses this clock. For example, watchdog timer
 221:.\Generated_Source\PSoC4/CyLFClk.c **** *  "uses this clock" or "this clock uses" (WDT) is clocked by LFCLK.
 222:.\Generated_Source\PSoC4/CyLFClk.c **** *
 223:.\Generated_Source\PSoC4/CyLFClk.c **** *******************************************************************************/
 224:.\Generated_Source\PSoC4/CyLFClk.c **** #if (CY_IP_WCO)
 225:.\Generated_Source\PSoC4/CyLFClk.c ****     void CySysClkSetLfclkSource(uint32 source)
 226:.\Generated_Source\PSoC4/CyLFClk.c ****     {
 368              		.loc 2 226 0
 369              		.cfi_startproc
 370 0000 90B5     		push	{r4, r7, lr}
 371              		.cfi_def_cfa_offset 12
 372              		.cfi_offset 4, -12
 373              		.cfi_offset 7, -8
 374              		.cfi_offset 14, -4
 375 0002 85B0     		sub	sp, sp, #20
 376              		.cfi_def_cfa_offset 32
 377 0004 00AF     		add	r7, sp, #0
 378              		.cfi_def_cfa_register 7
 379 0006 7860     		str	r0, [r7, #4]
 227:.\Generated_Source\PSoC4/CyLFClk.c ****         uint8  interruptState;
 228:.\Generated_Source\PSoC4/CyLFClk.c **** 
 229:.\Generated_Source\PSoC4/CyLFClk.c ****         if (CySysClkGetLfclkSource() != source)
 380              		.loc 2 229 0
 381 0008 FFF7FEFF 		bl	CySysClkGetLfclkSource
 382 000c 021E     		sub	r2, r0, #0
 383 000e 7B68     		ldr	r3, [r7, #4]
 384 0010 9A42     		cmp	r2, r3
 385 0012 19D0     		beq	.L25
 230:.\Generated_Source\PSoC4/CyLFClk.c ****         {
 231:.\Generated_Source\PSoC4/CyLFClk.c ****             interruptState = CyEnterCriticalSection();
 386              		.loc 2 231 0
 387 0014 0F23     		mov	r3, #15
 388 0016 FC18     		add	r4, r7, r3
 389 0018 FFF7FEFF 		bl	CyEnterCriticalSection
 390 001c 031C     		mov	r3, r0
 391 001e 2370     		strb	r3, [r4]
 232:.\Generated_Source\PSoC4/CyLFClk.c **** 
 233:.\Generated_Source\PSoC4/CyLFClk.c ****             CySysClkLfclkPosedgeCatch();
 392              		.loc 2 233 0
 393 0020 FFF7FEFF 		bl	CySysClkLfclkPosedgeCatch
 234:.\Generated_Source\PSoC4/CyLFClk.c **** 
 235:.\Generated_Source\PSoC4/CyLFClk.c ****             CY_SYS_WDT_CONFIG_REG = (CY_SYS_WDT_CONFIG_REG & (uint32)(~CY_SYS_CLK_LFCLK_SEL_MASK)) 
 394              		.loc 2 235 0
 395 0024 0A4B     		ldr	r3, .L27
ARM GAS  C:\Users\DELL\AppData\Local\Temp\ccdBZmRk.s 			page 19


 396 0026 0A4A     		ldr	r2, .L27
 397 0028 1268     		ldr	r2, [r2]
 398 002a 9200     		lsl	r2, r2, #2
 399 002c 9108     		lsr	r1, r2, #2
 236:.\Generated_Source\PSoC4/CyLFClk.c ****                                     (source & CY_SYS_CLK_LFCLK_SEL_MASK);
 400              		.loc 2 236 0
 401 002e 7A68     		ldr	r2, [r7, #4]
 402 0030 920F     		lsr	r2, r2, #30
 403 0032 9207     		lsl	r2, r2, #30
 235:.\Generated_Source\PSoC4/CyLFClk.c ****                                     (source & CY_SYS_CLK_LFCLK_SEL_MASK);
 404              		.loc 2 235 0
 405 0034 0A43     		orr	r2, r1
 406 0036 1A60     		str	r2, [r3]
 237:.\Generated_Source\PSoC4/CyLFClk.c **** 
 238:.\Generated_Source\PSoC4/CyLFClk.c ****             CySysClkLfclkPosedgeRestore();
 407              		.loc 2 238 0
 408 0038 FFF7FEFF 		bl	CySysClkLfclkPosedgeRestore
 239:.\Generated_Source\PSoC4/CyLFClk.c **** 
 240:.\Generated_Source\PSoC4/CyLFClk.c ****             CyExitCriticalSection(interruptState);
 409              		.loc 2 240 0
 410 003c 0F23     		mov	r3, #15
 411 003e FB18     		add	r3, r7, r3
 412 0040 1B78     		ldrb	r3, [r3]
 413 0042 181C     		mov	r0, r3
 414 0044 FFF7FEFF 		bl	CyExitCriticalSection
 415              	.L25:
 241:.\Generated_Source\PSoC4/CyLFClk.c ****         }
 242:.\Generated_Source\PSoC4/CyLFClk.c ****     }
 416              		.loc 2 242 0
 417 0048 BD46     		mov	sp, r7
 418 004a 05B0     		add	sp, sp, #20
 419              		@ sp needed
 420 004c 90BD     		pop	{r4, r7, pc}
 421              	.L28:
 422 004e C046     		.align	2
 423              	.L27:
 424 0050 0C020B40 		.word	1074463244
 425              		.cfi_endproc
 426              	.LFE6:
 427              		.size	CySysClkSetLfclkSource, .-CySysClkSetLfclkSource
 428              		.section	.text.CySysClkWcoStart,"ax",%progbits
 429              		.align	2
 430              		.global	CySysClkWcoStart
 431              		.code	16
 432              		.thumb_func
 433              		.type	CySysClkWcoStart, %function
 434              	CySysClkWcoStart:
 435              	.LFB7:
 243:.\Generated_Source\PSoC4/CyLFClk.c **** #endif /* (CY_IP_WCO) */
 244:.\Generated_Source\PSoC4/CyLFClk.c **** 
 245:.\Generated_Source\PSoC4/CyLFClk.c **** 
 246:.\Generated_Source\PSoC4/CyLFClk.c **** #if (CY_IP_WCO)
 247:.\Generated_Source\PSoC4/CyLFClk.c ****     /*******************************************************************************
 248:.\Generated_Source\PSoC4/CyLFClk.c ****     * Function Name: CySysClkWcoStart
 249:.\Generated_Source\PSoC4/CyLFClk.c ****     ********************************************************************************
 250:.\Generated_Source\PSoC4/CyLFClk.c ****     *
 251:.\Generated_Source\PSoC4/CyLFClk.c ****     * Summary:
ARM GAS  C:\Users\DELL\AppData\Local\Temp\ccdBZmRk.s 			page 20


 252:.\Generated_Source\PSoC4/CyLFClk.c ****     *  Enables Watch Crystal Oscillator (WCO). WCO is used as a source for
 253:.\Generated_Source\PSoC4/CyLFClk.c ****     *  LFCLK.  Similar to ILO, WCO is also available in all modes except Hibernate
 254:.\Generated_Source\PSoC4/CyLFClk.c ****     *  and Stop modes.
 255:.\Generated_Source\PSoC4/CyLFClk.c ****     *
 256:.\Generated_Source\PSoC4/CyLFClk.c ****     *  WCO is always enabled in High Power Mode (HPM). Refer to the device
 257:.\Generated_Source\PSoC4/CyLFClk.c ****     *  datasheet for the  WCO startup time. Once WCO becomes stable it can be
 258:.\Generated_Source\PSoC4/CyLFClk.c ****     *  switched to Low Power Mode (LPM). Note that oscillator can be unstable
 259:.\Generated_Source\PSoC4/CyLFClk.c ****     *  during a switch and hence its output should not be used at that moment.
 260:.\Generated_Source\PSoC4/CyLFClk.c ****     *
 261:.\Generated_Source\PSoC4/CyLFClk.c ****     *  The CySysClkWcoSetPowerMode() function configures the WCO power mode.
 262:.\Generated_Source\PSoC4/CyLFClk.c ****     *
 263:.\Generated_Source\PSoC4/CyLFClk.c ****     * Parameters:
 264:.\Generated_Source\PSoC4/CyLFClk.c ****     *  None.
 265:.\Generated_Source\PSoC4/CyLFClk.c ****     *
 266:.\Generated_Source\PSoC4/CyLFClk.c ****     * Return:
 267:.\Generated_Source\PSoC4/CyLFClk.c ****     *  None.
 268:.\Generated_Source\PSoC4/CyLFClk.c ****     *
 269:.\Generated_Source\PSoC4/CyLFClk.c ****     *******************************************************************************/
 270:.\Generated_Source\PSoC4/CyLFClk.c ****     void CySysClkWcoStart(void)
 271:.\Generated_Source\PSoC4/CyLFClk.c ****     {
 436              		.loc 2 271 0
 437              		.cfi_startproc
 438 0000 80B5     		push	{r7, lr}
 439              		.cfi_def_cfa_offset 8
 440              		.cfi_offset 7, -8
 441              		.cfi_offset 14, -4
 442 0002 00AF     		add	r7, sp, #0
 443              		.cfi_def_cfa_register 7
 272:.\Generated_Source\PSoC4/CyLFClk.c ****         CySysClkWcoSetHighPowerMode();
 444              		.loc 2 272 0
 445 0004 FFF7FEFF 		bl	CySysClkWcoSetHighPowerMode
 273:.\Generated_Source\PSoC4/CyLFClk.c ****         CY_SYS_CLK_WCO_CONFIG_REG |= CY_SYS_CLK_WCO_CONFIG_LPM_ENABLE;
 446              		.loc 2 273 0
 447 0008 044B     		ldr	r3, .L30
 448 000a 044A     		ldr	r2, .L30
 449 000c 1268     		ldr	r2, [r2]
 450 000e 8021     		mov	r1, #128
 451 0010 0906     		lsl	r1, r1, #24
 452 0012 0A43     		orr	r2, r1
 453 0014 1A60     		str	r2, [r3]
 274:.\Generated_Source\PSoC4/CyLFClk.c ****     }
 454              		.loc 2 274 0
 455 0016 BD46     		mov	sp, r7
 456              		@ sp needed
 457 0018 80BD     		pop	{r7, pc}
 458              	.L31:
 459 001a C046     		.align	2
 460              	.L30:
 461 001c 00F02E40 		.word	1076817920
 462              		.cfi_endproc
 463              	.LFE7:
 464              		.size	CySysClkWcoStart, .-CySysClkWcoStart
 465              		.section	.text.CySysClkWcoStop,"ax",%progbits
 466              		.align	2
 467              		.global	CySysClkWcoStop
 468              		.code	16
 469              		.thumb_func
ARM GAS  C:\Users\DELL\AppData\Local\Temp\ccdBZmRk.s 			page 21


 470              		.type	CySysClkWcoStop, %function
 471              	CySysClkWcoStop:
 472              	.LFB8:
 275:.\Generated_Source\PSoC4/CyLFClk.c **** 
 276:.\Generated_Source\PSoC4/CyLFClk.c **** 
 277:.\Generated_Source\PSoC4/CyLFClk.c ****     /*******************************************************************************
 278:.\Generated_Source\PSoC4/CyLFClk.c ****     * Function Name: CySysClkWcoStop
 279:.\Generated_Source\PSoC4/CyLFClk.c ****     ********************************************************************************
 280:.\Generated_Source\PSoC4/CyLFClk.c ****     *
 281:.\Generated_Source\PSoC4/CyLFClk.c ****     * Summary:
 282:.\Generated_Source\PSoC4/CyLFClk.c ****     *  Disables the 32KHz Crystal Oscillator.
 283:.\Generated_Source\PSoC4/CyLFClk.c ****     *
 284:.\Generated_Source\PSoC4/CyLFClk.c ****     * Parameters:
 285:.\Generated_Source\PSoC4/CyLFClk.c ****     *  None.
 286:.\Generated_Source\PSoC4/CyLFClk.c ****     *
 287:.\Generated_Source\PSoC4/CyLFClk.c ****     * Return:
 288:.\Generated_Source\PSoC4/CyLFClk.c ****     *  None.
 289:.\Generated_Source\PSoC4/CyLFClk.c ****     *
 290:.\Generated_Source\PSoC4/CyLFClk.c ****     *******************************************************************************/
 291:.\Generated_Source\PSoC4/CyLFClk.c ****     void  CySysClkWcoStop(void)
 292:.\Generated_Source\PSoC4/CyLFClk.c ****     {
 473              		.loc 2 292 0
 474              		.cfi_startproc
 475 0000 90B5     		push	{r4, r7, lr}
 476              		.cfi_def_cfa_offset 12
 477              		.cfi_offset 4, -12
 478              		.cfi_offset 7, -8
 479              		.cfi_offset 14, -4
 480 0002 83B0     		sub	sp, sp, #12
 481              		.cfi_def_cfa_offset 24
 482 0004 00AF     		add	r7, sp, #0
 483              		.cfi_def_cfa_register 7
 293:.\Generated_Source\PSoC4/CyLFClk.c ****         uint8  interruptState;
 294:.\Generated_Source\PSoC4/CyLFClk.c **** 
 295:.\Generated_Source\PSoC4/CyLFClk.c ****         if (0u != CySysClkWcoEnabled())
 484              		.loc 2 295 0
 485 0006 FFF7FEFF 		bl	CySysClkWcoEnabled
 486 000a 031E     		sub	r3, r0, #0
 487 000c 21D0     		beq	.L32
 296:.\Generated_Source\PSoC4/CyLFClk.c ****         {
 297:.\Generated_Source\PSoC4/CyLFClk.c **** 
 298:.\Generated_Source\PSoC4/CyLFClk.c ****             if (CY_SYS_CLK_LFCLK_SRC_WCO == CySysClkGetLfclkSource())
 488              		.loc 2 298 0
 489 000e FFF7FEFF 		bl	CySysClkGetLfclkSource
 490 0012 021C     		mov	r2, r0
 491 0014 8023     		mov	r3, #128
 492 0016 DB05     		lsl	r3, r3, #23
 493 0018 9A42     		cmp	r2, r3
 494 001a 14D1     		bne	.L34
 299:.\Generated_Source\PSoC4/CyLFClk.c ****             {
 300:.\Generated_Source\PSoC4/CyLFClk.c ****                 interruptState = CyEnterCriticalSection();
 495              		.loc 2 300 0
 496 001c FC1D     		add	r4, r7, #7
 497 001e FFF7FEFF 		bl	CyEnterCriticalSection
 498 0022 031C     		mov	r3, r0
 499 0024 2370     		strb	r3, [r4]
 301:.\Generated_Source\PSoC4/CyLFClk.c ****                 CySysClkLfclkPosedgeCatch();
ARM GAS  C:\Users\DELL\AppData\Local\Temp\ccdBZmRk.s 			page 22


 500              		.loc 2 301 0
 501 0026 FFF7FEFF 		bl	CySysClkLfclkPosedgeCatch
 302:.\Generated_Source\PSoC4/CyLFClk.c ****                 CY_SYS_CLK_WCO_CONFIG_REG &= (uint32) ~CY_SYS_CLK_WCO_CONFIG_LPM_ENABLE;
 502              		.loc 2 302 0
 503 002a 0B4B     		ldr	r3, .L35
 504 002c 0A4A     		ldr	r2, .L35
 505 002e 1268     		ldr	r2, [r2]
 506 0030 5200     		lsl	r2, r2, #1
 507 0032 5208     		lsr	r2, r2, #1
 508 0034 1A60     		str	r2, [r3]
 303:.\Generated_Source\PSoC4/CyLFClk.c ****                 CySysClkLfclkPosedgeRestore();
 509              		.loc 2 303 0
 510 0036 FFF7FEFF 		bl	CySysClkLfclkPosedgeRestore
 304:.\Generated_Source\PSoC4/CyLFClk.c ****                 CyExitCriticalSection(interruptState);
 511              		.loc 2 304 0
 512 003a FB1D     		add	r3, r7, #7
 513 003c 1B78     		ldrb	r3, [r3]
 514 003e 181C     		mov	r0, r3
 515 0040 FFF7FEFF 		bl	CyExitCriticalSection
 516 0044 05E0     		b	.L32
 517              	.L34:
 305:.\Generated_Source\PSoC4/CyLFClk.c ****             }
 306:.\Generated_Source\PSoC4/CyLFClk.c ****             else /* Safe to disable - shortened pulse does not impact peripheral */
 307:.\Generated_Source\PSoC4/CyLFClk.c ****             {
 308:.\Generated_Source\PSoC4/CyLFClk.c ****                 CY_SYS_CLK_WCO_CONFIG_REG &= (uint32) ~CY_SYS_CLK_WCO_CONFIG_LPM_ENABLE;
 518              		.loc 2 308 0
 519 0046 044B     		ldr	r3, .L35
 520 0048 034A     		ldr	r2, .L35
 521 004a 1268     		ldr	r2, [r2]
 522 004c 5200     		lsl	r2, r2, #1
 523 004e 5208     		lsr	r2, r2, #1
 524 0050 1A60     		str	r2, [r3]
 525              	.L32:
 309:.\Generated_Source\PSoC4/CyLFClk.c ****             }
 310:.\Generated_Source\PSoC4/CyLFClk.c ****         } /* Otherwise do nothing. WCO configuration cannot be changed. */
 311:.\Generated_Source\PSoC4/CyLFClk.c ****     }
 526              		.loc 2 311 0
 527 0052 BD46     		mov	sp, r7
 528 0054 03B0     		add	sp, sp, #12
 529              		@ sp needed
 530 0056 90BD     		pop	{r4, r7, pc}
 531              	.L36:
 532              		.align	2
 533              	.L35:
 534 0058 00F02E40 		.word	1076817920
 535              		.cfi_endproc
 536              	.LFE8:
 537              		.size	CySysClkWcoStop, .-CySysClkWcoStop
 538              		.section	.text.CySysClkWcoEnabled,"ax",%progbits
 539              		.align	2
 540              		.global	CySysClkWcoEnabled
 541              		.code	16
 542              		.thumb_func
 543              		.type	CySysClkWcoEnabled, %function
 544              	CySysClkWcoEnabled:
 545              	.LFB9:
 312:.\Generated_Source\PSoC4/CyLFClk.c **** 
ARM GAS  C:\Users\DELL\AppData\Local\Temp\ccdBZmRk.s 			page 23


 313:.\Generated_Source\PSoC4/CyLFClk.c **** 
 314:.\Generated_Source\PSoC4/CyLFClk.c ****     /*******************************************************************************
 315:.\Generated_Source\PSoC4/CyLFClk.c ****     * Function Name: CySysClkWcoEnabled
 316:.\Generated_Source\PSoC4/CyLFClk.c ****     ********************************************************************************
 317:.\Generated_Source\PSoC4/CyLFClk.c ****     *
 318:.\Generated_Source\PSoC4/CyLFClk.c ****     * Summary:
 319:.\Generated_Source\PSoC4/CyLFClk.c ****     *  Reports the WCO enable state.
 320:.\Generated_Source\PSoC4/CyLFClk.c ****     *
 321:.\Generated_Source\PSoC4/CyLFClk.c ****     * Parameters:
 322:.\Generated_Source\PSoC4/CyLFClk.c ****     *  None.
 323:.\Generated_Source\PSoC4/CyLFClk.c ****     *
 324:.\Generated_Source\PSoC4/CyLFClk.c ****     * Return:
 325:.\Generated_Source\PSoC4/CyLFClk.c ****     *  1 if WCO is enabled, and 0 if WCO is disabled.
 326:.\Generated_Source\PSoC4/CyLFClk.c ****     *
 327:.\Generated_Source\PSoC4/CyLFClk.c ****     *******************************************************************************/
 328:.\Generated_Source\PSoC4/CyLFClk.c ****     uint32 CySysClkWcoEnabled(void)
 329:.\Generated_Source\PSoC4/CyLFClk.c ****     {
 546              		.loc 2 329 0
 547              		.cfi_startproc
 548 0000 80B5     		push	{r7, lr}
 549              		.cfi_def_cfa_offset 8
 550              		.cfi_offset 7, -8
 551              		.cfi_offset 14, -4
 552 0002 00AF     		add	r7, sp, #0
 553              		.cfi_def_cfa_register 7
 330:.\Generated_Source\PSoC4/CyLFClk.c ****         return ((0u != (CY_SYS_CLK_WCO_CONFIG_REG & (uint32)(CY_SYS_CLK_WCO_CONFIG_LPM_ENABLE))) ?
 554              		.loc 2 330 0
 555 0004 044B     		ldr	r3, .L41
 556 0006 1B68     		ldr	r3, [r3]
 331:.\Generated_Source\PSoC4/CyLFClk.c ****                 (uint32) 1u :
 557              		.loc 2 331 0
 558 0008 002B     		cmp	r3, #0
 559 000a 01DA     		bge	.L38
 560              		.loc 2 331 0 is_stmt 0 discriminator 1
 561 000c 0123     		mov	r3, #1
 562 000e 00E0     		b	.L39
 563              	.L38:
 564              		.loc 2 331 0 discriminator 2
 565 0010 0023     		mov	r3, #0
 566              	.L39:
 332:.\Generated_Source\PSoC4/CyLFClk.c ****                 (uint32) 0u);
 333:.\Generated_Source\PSoC4/CyLFClk.c ****     }
 567              		.loc 2 333 0 is_stmt 1
 568 0012 181C     		mov	r0, r3
 569 0014 BD46     		mov	sp, r7
 570              		@ sp needed
 571 0016 80BD     		pop	{r7, pc}
 572              	.L42:
 573              		.align	2
 574              	.L41:
 575 0018 00F02E40 		.word	1076817920
 576              		.cfi_endproc
 577              	.LFE9:
 578              		.size	CySysClkWcoEnabled, .-CySysClkWcoEnabled
 579              		.section	.text.CySysClkWcoSetPowerMode,"ax",%progbits
 580              		.align	2
 581              		.global	CySysClkWcoSetPowerMode
ARM GAS  C:\Users\DELL\AppData\Local\Temp\ccdBZmRk.s 			page 24


 582              		.code	16
 583              		.thumb_func
 584              		.type	CySysClkWcoSetPowerMode, %function
 585              	CySysClkWcoSetPowerMode:
 586              	.LFB10:
 334:.\Generated_Source\PSoC4/CyLFClk.c **** 
 335:.\Generated_Source\PSoC4/CyLFClk.c **** 
 336:.\Generated_Source\PSoC4/CyLFClk.c ****     /*******************************************************************************
 337:.\Generated_Source\PSoC4/CyLFClk.c ****     * Function Name: CySysClkWcoSetPowerMode
 338:.\Generated_Source\PSoC4/CyLFClk.c ****     ********************************************************************************
 339:.\Generated_Source\PSoC4/CyLFClk.c ****     *
 340:.\Generated_Source\PSoC4/CyLFClk.c ****     * Summary:
 341:.\Generated_Source\PSoC4/CyLFClk.c ****     *  Sets the power mode for the 32 KHz WCO.
 342:.\Generated_Source\PSoC4/CyLFClk.c ****     *
 343:.\Generated_Source\PSoC4/CyLFClk.c ****     * Parameters:
 344:.\Generated_Source\PSoC4/CyLFClk.c ****     *  uint32 mode:
 345:.\Generated_Source\PSoC4/CyLFClk.c ****     *   CY_SYS_CLK_WCO_HPM  - The High Power mode
 346:.\Generated_Source\PSoC4/CyLFClk.c ****     *   CY_SYS_CLK_WCO_LPM  - The Low Power mode(not applicable for
 347:.\Generated_Source\PSoC4/CyLFClk.c ****     *                         PSoC 4100M / PSoC 4200M devices)
 348:.\Generated_Source\PSoC4/CyLFClk.c ****     *
 349:.\Generated_Source\PSoC4/CyLFClk.c ****     * Return:
 350:.\Generated_Source\PSoC4/CyLFClk.c ****     *  A previous power mode. The same as the parameters.
 351:.\Generated_Source\PSoC4/CyLFClk.c ****     *
 352:.\Generated_Source\PSoC4/CyLFClk.c ****     * Note:
 353:.\Generated_Source\PSoC4/CyLFClk.c ****     *  The WCO Low power mode is not applicable for the PSoC 4100M/PSoC 4200M
 354:.\Generated_Source\PSoC4/CyLFClk.c ****     *  devices.
 355:.\Generated_Source\PSoC4/CyLFClk.c ****     *
 356:.\Generated_Source\PSoC4/CyLFClk.c ****     *******************************************************************************/
 357:.\Generated_Source\PSoC4/CyLFClk.c ****     uint32 CySysClkWcoSetPowerMode(uint32 mode)
 358:.\Generated_Source\PSoC4/CyLFClk.c ****     {
 587              		.loc 2 358 0
 588              		.cfi_startproc
 589 0000 80B5     		push	{r7, lr}
 590              		.cfi_def_cfa_offset 8
 591              		.cfi_offset 7, -8
 592              		.cfi_offset 14, -4
 593 0002 84B0     		sub	sp, sp, #16
 594              		.cfi_def_cfa_offset 24
 595 0004 00AF     		add	r7, sp, #0
 596              		.cfi_def_cfa_register 7
 597 0006 7860     		str	r0, [r7, #4]
 359:.\Generated_Source\PSoC4/CyLFClk.c ****         uint32 status;
 360:.\Generated_Source\PSoC4/CyLFClk.c **** 
 361:.\Generated_Source\PSoC4/CyLFClk.c ****         status = CY_SYS_CLK_WCO_CONFIG_REG & CY_SYS_CLK_WCO_CONFIG_LPM_EN;
 598              		.loc 2 361 0
 599 0008 0C4B     		ldr	r3, .L50
 600 000a 1B68     		ldr	r3, [r3]
 601 000c 0122     		mov	r2, #1
 602 000e 1340     		and	r3, r2
 603 0010 FB60     		str	r3, [r7, #12]
 362:.\Generated_Source\PSoC4/CyLFClk.c **** 
 363:.\Generated_Source\PSoC4/CyLFClk.c ****         switch(mode)
 604              		.loc 2 363 0
 605 0012 7B68     		ldr	r3, [r7, #4]
 606 0014 002B     		cmp	r3, #0
 607 0016 02D0     		beq	.L45
 608 0018 012B     		cmp	r3, #1
ARM GAS  C:\Users\DELL\AppData\Local\Temp\ccdBZmRk.s 			page 25


 609 001a 03D0     		beq	.L46
 610 001c 05E0     		b	.L49
 611              	.L45:
 364:.\Generated_Source\PSoC4/CyLFClk.c ****         {
 365:.\Generated_Source\PSoC4/CyLFClk.c ****         case CY_SYS_CLK_WCO_HPM:
 366:.\Generated_Source\PSoC4/CyLFClk.c ****                 CySysClkWcoSetHighPowerMode();
 612              		.loc 2 366 0
 613 001e FFF7FEFF 		bl	CySysClkWcoSetHighPowerMode
 367:.\Generated_Source\PSoC4/CyLFClk.c ****             break;
 614              		.loc 2 367 0
 615 0022 06E0     		b	.L47
 616              	.L46:
 368:.\Generated_Source\PSoC4/CyLFClk.c **** 
 369:.\Generated_Source\PSoC4/CyLFClk.c ****         #if(!CY_PSOC4_4100M && !CY_PSOC4_4200M)
 370:.\Generated_Source\PSoC4/CyLFClk.c ****             case CY_SYS_CLK_WCO_LPM:
 371:.\Generated_Source\PSoC4/CyLFClk.c ****                     CySysClkWcoSetLowPowerMode();
 617              		.loc 2 371 0
 618 0024 FFF7FEFF 		bl	CySysClkWcoSetLowPowerMode
 372:.\Generated_Source\PSoC4/CyLFClk.c ****                 break;
 619              		.loc 2 372 0
 620 0028 03E0     		b	.L47
 621              	.L49:
 373:.\Generated_Source\PSoC4/CyLFClk.c ****         #endif /* (!CY_PSOC4_4100M && !CY_PSOC4_4200M) */
 374:.\Generated_Source\PSoC4/CyLFClk.c **** 
 375:.\Generated_Source\PSoC4/CyLFClk.c ****         default:
 376:.\Generated_Source\PSoC4/CyLFClk.c ****             CYASSERT(0u != 0u);
 622              		.loc 2 376 0
 623 002a 0020     		mov	r0, #0
 624 002c FFF7FEFF 		bl	CyHalt
 377:.\Generated_Source\PSoC4/CyLFClk.c ****             break;
 625              		.loc 2 377 0
 626 0030 C046     		mov	r8, r8
 627              	.L47:
 378:.\Generated_Source\PSoC4/CyLFClk.c ****         }
 379:.\Generated_Source\PSoC4/CyLFClk.c **** 
 380:.\Generated_Source\PSoC4/CyLFClk.c ****         return (status);
 628              		.loc 2 380 0
 629 0032 FB68     		ldr	r3, [r7, #12]
 381:.\Generated_Source\PSoC4/CyLFClk.c ****     }
 630              		.loc 2 381 0
 631 0034 181C     		mov	r0, r3
 632 0036 BD46     		mov	sp, r7
 633 0038 04B0     		add	sp, sp, #16
 634              		@ sp needed
 635 003a 80BD     		pop	{r7, pc}
 636              	.L51:
 637              		.align	2
 638              	.L50:
 639 003c 00F02E40 		.word	1076817920
 640              		.cfi_endproc
 641              	.LFE10:
 642              		.size	CySysClkWcoSetPowerMode, .-CySysClkWcoSetPowerMode
 643              		.section	.text.CySysWdtLock,"ax",%progbits
 644              		.align	2
 645              		.global	CySysWdtLock
 646              		.code	16
 647              		.thumb_func
ARM GAS  C:\Users\DELL\AppData\Local\Temp\ccdBZmRk.s 			page 26


 648              		.type	CySysWdtLock, %function
 649              	CySysWdtLock:
 650              	.LFB11:
 382:.\Generated_Source\PSoC4/CyLFClk.c **** 
 383:.\Generated_Source\PSoC4/CyLFClk.c **** #endif  /* (CY_IP_WCO) */
 384:.\Generated_Source\PSoC4/CyLFClk.c **** 
 385:.\Generated_Source\PSoC4/CyLFClk.c **** 
 386:.\Generated_Source\PSoC4/CyLFClk.c **** #if(CY_IP_SRSSV2)
 387:.\Generated_Source\PSoC4/CyLFClk.c **** 
 388:.\Generated_Source\PSoC4/CyLFClk.c **** 
 389:.\Generated_Source\PSoC4/CyLFClk.c ****     /*******************************************************************************
 390:.\Generated_Source\PSoC4/CyLFClk.c ****     * Function Name: CySysWdtLock
 391:.\Generated_Source\PSoC4/CyLFClk.c ****     ********************************************************************************
 392:.\Generated_Source\PSoC4/CyLFClk.c ****     *
 393:.\Generated_Source\PSoC4/CyLFClk.c ****     * Summary:
 394:.\Generated_Source\PSoC4/CyLFClk.c ****     *  Locks out configuration changes to the Watchdog timer registers and ILO
 395:.\Generated_Source\PSoC4/CyLFClk.c ****     *  configuration register.
 396:.\Generated_Source\PSoC4/CyLFClk.c ****     *
 397:.\Generated_Source\PSoC4/CyLFClk.c ****     * Parameters:
 398:.\Generated_Source\PSoC4/CyLFClk.c ****     *  None.
 399:.\Generated_Source\PSoC4/CyLFClk.c ****     *
 400:.\Generated_Source\PSoC4/CyLFClk.c ****     * Return:
 401:.\Generated_Source\PSoC4/CyLFClk.c ****     *  None.
 402:.\Generated_Source\PSoC4/CyLFClk.c ****     *
 403:.\Generated_Source\PSoC4/CyLFClk.c ****     * Side effects:
 404:.\Generated_Source\PSoC4/CyLFClk.c ****     *  After this function is called, ILO clock can't be disabled until
 405:.\Generated_Source\PSoC4/CyLFClk.c ****     *  CySysWdtUnlock() is called.
 406:.\Generated_Source\PSoC4/CyLFClk.c ****     *
 407:.\Generated_Source\PSoC4/CyLFClk.c ****     *******************************************************************************/
 408:.\Generated_Source\PSoC4/CyLFClk.c ****     void CySysWdtLock(void)
 409:.\Generated_Source\PSoC4/CyLFClk.c ****     {
 651              		.loc 2 409 0
 652              		.cfi_startproc
 653 0000 90B5     		push	{r4, r7, lr}
 654              		.cfi_def_cfa_offset 12
 655              		.cfi_offset 4, -12
 656              		.cfi_offset 7, -8
 657              		.cfi_offset 14, -4
 658 0002 83B0     		sub	sp, sp, #12
 659              		.cfi_def_cfa_offset 24
 660 0004 00AF     		add	r7, sp, #0
 661              		.cfi_def_cfa_register 7
 410:.\Generated_Source\PSoC4/CyLFClk.c ****         uint8 interruptState;
 411:.\Generated_Source\PSoC4/CyLFClk.c ****         interruptState = CyEnterCriticalSection();
 662              		.loc 2 411 0
 663 0006 FC1D     		add	r4, r7, #7
 664 0008 FFF7FEFF 		bl	CyEnterCriticalSection
 665 000c 031C     		mov	r3, r0
 666 000e 2370     		strb	r3, [r4]
 412:.\Generated_Source\PSoC4/CyLFClk.c **** 
 413:.\Generated_Source\PSoC4/CyLFClk.c ****         CY_SYS_CLK_SELECT_REG = (CY_SYS_CLK_SELECT_REG & (uint32)(~CY_SYS_WDT_CLK_LOCK_BITS_MASK)) 
 667              		.loc 2 413 0
 668 0010 074B     		ldr	r3, .L53
 669 0012 074A     		ldr	r2, .L53
 670 0014 1268     		ldr	r2, [r2]
 671 0016 C021     		mov	r1, #192
 672 0018 0902     		lsl	r1, r1, #8
ARM GAS  C:\Users\DELL\AppData\Local\Temp\ccdBZmRk.s 			page 27


 673 001a 0A43     		orr	r2, r1
 674 001c 1A60     		str	r2, [r3]
 414:.\Generated_Source\PSoC4/CyLFClk.c ****                  CY_SYS_WDT_CLK_LOCK_BITS_MASK;
 415:.\Generated_Source\PSoC4/CyLFClk.c **** 
 416:.\Generated_Source\PSoC4/CyLFClk.c ****         CyExitCriticalSection(interruptState);
 675              		.loc 2 416 0
 676 001e FB1D     		add	r3, r7, #7
 677 0020 1B78     		ldrb	r3, [r3]
 678 0022 181C     		mov	r0, r3
 679 0024 FFF7FEFF 		bl	CyExitCriticalSection
 417:.\Generated_Source\PSoC4/CyLFClk.c ****     }
 680              		.loc 2 417 0
 681 0028 BD46     		mov	sp, r7
 682 002a 03B0     		add	sp, sp, #12
 683              		@ sp needed
 684 002c 90BD     		pop	{r4, r7, pc}
 685              	.L54:
 686 002e C046     		.align	2
 687              	.L53:
 688 0030 00010B40 		.word	1074462976
 689              		.cfi_endproc
 690              	.LFE11:
 691              		.size	CySysWdtLock, .-CySysWdtLock
 692              		.section	.text.CySysWdtLocked,"ax",%progbits
 693              		.align	2
 694              		.code	16
 695              		.thumb_func
 696              		.type	CySysWdtLocked, %function
 697              	CySysWdtLocked:
 698              	.LFB12:
 418:.\Generated_Source\PSoC4/CyLFClk.c **** 
 419:.\Generated_Source\PSoC4/CyLFClk.c **** 
 420:.\Generated_Source\PSoC4/CyLFClk.c ****     /*******************************************************************************
 421:.\Generated_Source\PSoC4/CyLFClk.c ****     * Function Name: CySysWdtLocked
 422:.\Generated_Source\PSoC4/CyLFClk.c ****     ********************************************************************************
 423:.\Generated_Source\PSoC4/CyLFClk.c ****     *
 424:.\Generated_Source\PSoC4/CyLFClk.c ****     * Summary:
 425:.\Generated_Source\PSoC4/CyLFClk.c ****     *  Reports the WDT lock state.
 426:.\Generated_Source\PSoC4/CyLFClk.c ****     *
 427:.\Generated_Source\PSoC4/CyLFClk.c ****     * Parameters:
 428:.\Generated_Source\PSoC4/CyLFClk.c ****     *  None
 429:.\Generated_Source\PSoC4/CyLFClk.c ****     *
 430:.\Generated_Source\PSoC4/CyLFClk.c ****     * Return:
 431:.\Generated_Source\PSoC4/CyLFClk.c ****     *  1 - WDT is locked, and 0 - WDT is unlocked.
 432:.\Generated_Source\PSoC4/CyLFClk.c ****     *
 433:.\Generated_Source\PSoC4/CyLFClk.c ****     *******************************************************************************/
 434:.\Generated_Source\PSoC4/CyLFClk.c ****     static uint32 CySysWdtLocked(void)
 435:.\Generated_Source\PSoC4/CyLFClk.c ****     {
 699              		.loc 2 435 0
 700              		.cfi_startproc
 701 0000 80B5     		push	{r7, lr}
 702              		.cfi_def_cfa_offset 8
 703              		.cfi_offset 7, -8
 704              		.cfi_offset 14, -4
 705 0002 00AF     		add	r7, sp, #0
 706              		.cfi_def_cfa_register 7
 436:.\Generated_Source\PSoC4/CyLFClk.c ****         /* Prohibits writing to WDT registers and ILO/WCO registers when not equal 0 */
ARM GAS  C:\Users\DELL\AppData\Local\Temp\ccdBZmRk.s 			page 28


 437:.\Generated_Source\PSoC4/CyLFClk.c ****         return ((0u != (CY_SYS_CLK_SELECT_REG & (uint32)(CY_SYS_WDT_CLK_LOCK_BITS_MASK))) ? (uint32
 707              		.loc 2 437 0
 708 0004 054B     		ldr	r3, .L59
 709 0006 1A68     		ldr	r2, [r3]
 710 0008 C023     		mov	r3, #192
 711 000a 1B02     		lsl	r3, r3, #8
 712 000c 1340     		and	r3, r2
 713 000e 01D0     		beq	.L56
 714              		.loc 2 437 0 is_stmt 0 discriminator 1
 715 0010 0123     		mov	r3, #1
 716 0012 00E0     		b	.L57
 717              	.L56:
 718              		.loc 2 437 0 discriminator 2
 719 0014 0023     		mov	r3, #0
 720              	.L57:
 438:.\Generated_Source\PSoC4/CyLFClk.c ****     }
 721              		.loc 2 438 0 is_stmt 1 discriminator 4
 722 0016 181C     		mov	r0, r3
 723 0018 BD46     		mov	sp, r7
 724              		@ sp needed
 725 001a 80BD     		pop	{r7, pc}
 726              	.L60:
 727              		.align	2
 728              	.L59:
 729 001c 00010B40 		.word	1074462976
 730              		.cfi_endproc
 731              	.LFE12:
 732              		.size	CySysWdtLocked, .-CySysWdtLocked
 733              		.section	.text.CySysWdtUnlock,"ax",%progbits
 734              		.align	2
 735              		.global	CySysWdtUnlock
 736              		.code	16
 737              		.thumb_func
 738              		.type	CySysWdtUnlock, %function
 739              	CySysWdtUnlock:
 740              	.LFB13:
 439:.\Generated_Source\PSoC4/CyLFClk.c **** 
 440:.\Generated_Source\PSoC4/CyLFClk.c **** 
 441:.\Generated_Source\PSoC4/CyLFClk.c ****     /*******************************************************************************
 442:.\Generated_Source\PSoC4/CyLFClk.c ****     * Function Name: CySysWdtUnlock
 443:.\Generated_Source\PSoC4/CyLFClk.c ****     ********************************************************************************
 444:.\Generated_Source\PSoC4/CyLFClk.c ****     *
 445:.\Generated_Source\PSoC4/CyLFClk.c ****     * Summary:
 446:.\Generated_Source\PSoC4/CyLFClk.c ****     *  Unlocks the Watchdog Timer configuration register.
 447:.\Generated_Source\PSoC4/CyLFClk.c ****     *
 448:.\Generated_Source\PSoC4/CyLFClk.c ****     * Parameters:
 449:.\Generated_Source\PSoC4/CyLFClk.c ****     *  None.
 450:.\Generated_Source\PSoC4/CyLFClk.c ****     *
 451:.\Generated_Source\PSoC4/CyLFClk.c ****     * Return:
 452:.\Generated_Source\PSoC4/CyLFClk.c ****     *  None.
 453:.\Generated_Source\PSoC4/CyLFClk.c ****     *
 454:.\Generated_Source\PSoC4/CyLFClk.c ****     *******************************************************************************/
 455:.\Generated_Source\PSoC4/CyLFClk.c ****     void CySysWdtUnlock(void)
 456:.\Generated_Source\PSoC4/CyLFClk.c ****     {
 741              		.loc 2 456 0
 742              		.cfi_startproc
 743 0000 90B5     		push	{r4, r7, lr}
ARM GAS  C:\Users\DELL\AppData\Local\Temp\ccdBZmRk.s 			page 29


 744              		.cfi_def_cfa_offset 12
 745              		.cfi_offset 4, -12
 746              		.cfi_offset 7, -8
 747              		.cfi_offset 14, -4
 748 0002 83B0     		sub	sp, sp, #12
 749              		.cfi_def_cfa_offset 24
 750 0004 00AF     		add	r7, sp, #0
 751              		.cfi_def_cfa_register 7
 457:.\Generated_Source\PSoC4/CyLFClk.c ****         uint8 interruptState;
 458:.\Generated_Source\PSoC4/CyLFClk.c ****         interruptState = CyEnterCriticalSection();
 752              		.loc 2 458 0
 753 0006 FC1D     		add	r4, r7, #7
 754 0008 FFF7FEFF 		bl	CyEnterCriticalSection
 755 000c 031C     		mov	r3, r0
 756 000e 2370     		strb	r3, [r4]
 459:.\Generated_Source\PSoC4/CyLFClk.c **** 
 460:.\Generated_Source\PSoC4/CyLFClk.c ****         /* Removing WDT lock requires two writes */
 461:.\Generated_Source\PSoC4/CyLFClk.c ****         CY_SYS_CLK_SELECT_REG = ((CY_SYS_CLK_SELECT_REG & (uint32)(~CY_SYS_WDT_CLK_LOCK_BITS_MASK))
 757              		.loc 2 461 0
 758 0010 0C4B     		ldr	r3, .L62
 759 0012 0C4A     		ldr	r2, .L62
 760 0014 1268     		ldr	r2, [r2]
 761 0016 0C49     		ldr	r1, .L62+4
 762 0018 0A40     		and	r2, r1
 763 001a 8021     		mov	r1, #128
 764 001c C901     		lsl	r1, r1, #7
 765 001e 0A43     		orr	r2, r1
 766 0020 1A60     		str	r2, [r3]
 462:.\Generated_Source\PSoC4/CyLFClk.c ****                 CY_SYS_WDT_CLK_LOCK_BIT0);
 463:.\Generated_Source\PSoC4/CyLFClk.c **** 
 464:.\Generated_Source\PSoC4/CyLFClk.c ****         CY_SYS_CLK_SELECT_REG = ((CY_SYS_CLK_SELECT_REG & (uint32)(~CY_SYS_WDT_CLK_LOCK_BITS_MASK))
 767              		.loc 2 464 0
 768 0022 084B     		ldr	r3, .L62
 769 0024 074A     		ldr	r2, .L62
 770 0026 1268     		ldr	r2, [r2]
 771 0028 0749     		ldr	r1, .L62+4
 772 002a 0A40     		and	r2, r1
 773 002c 8021     		mov	r1, #128
 774 002e 0902     		lsl	r1, r1, #8
 775 0030 0A43     		orr	r2, r1
 776 0032 1A60     		str	r2, [r3]
 465:.\Generated_Source\PSoC4/CyLFClk.c ****                 CY_SYS_WDT_CLK_LOCK_BIT1);
 466:.\Generated_Source\PSoC4/CyLFClk.c **** 
 467:.\Generated_Source\PSoC4/CyLFClk.c ****         CyExitCriticalSection(interruptState);
 777              		.loc 2 467 0
 778 0034 FB1D     		add	r3, r7, #7
 779 0036 1B78     		ldrb	r3, [r3]
 780 0038 181C     		mov	r0, r3
 781 003a FFF7FEFF 		bl	CyExitCriticalSection
 468:.\Generated_Source\PSoC4/CyLFClk.c ****     }
 782              		.loc 2 468 0
 783 003e BD46     		mov	sp, r7
 784 0040 03B0     		add	sp, sp, #12
 785              		@ sp needed
 786 0042 90BD     		pop	{r4, r7, pc}
 787              	.L63:
 788              		.align	2
ARM GAS  C:\Users\DELL\AppData\Local\Temp\ccdBZmRk.s 			page 30


 789              	.L62:
 790 0044 00010B40 		.word	1074462976
 791 0048 FF3FFFFF 		.word	-49153
 792              		.cfi_endproc
 793              	.LFE13:
 794              		.size	CySysWdtUnlock, .-CySysWdtUnlock
 795              		.section	.text.CySysWdtGetEnabledStatus,"ax",%progbits
 796              		.align	2
 797              		.global	CySysWdtGetEnabledStatus
 798              		.code	16
 799              		.thumb_func
 800              		.type	CySysWdtGetEnabledStatus, %function
 801              	CySysWdtGetEnabledStatus:
 802              	.LFB14:
 469:.\Generated_Source\PSoC4/CyLFClk.c **** 
 470:.\Generated_Source\PSoC4/CyLFClk.c **** 
 471:.\Generated_Source\PSoC4/CyLFClk.c ****     /*******************************************************************************
 472:.\Generated_Source\PSoC4/CyLFClk.c ****     * Function Name: CySysWdtGetEnabledStatus
 473:.\Generated_Source\PSoC4/CyLFClk.c ****     ********************************************************************************
 474:.\Generated_Source\PSoC4/CyLFClk.c ****     *
 475:.\Generated_Source\PSoC4/CyLFClk.c ****     * Summary:
 476:.\Generated_Source\PSoC4/CyLFClk.c ****     *  Reads the enabled status of one of the three WDT counters.
 477:.\Generated_Source\PSoC4/CyLFClk.c ****     *
 478:.\Generated_Source\PSoC4/CyLFClk.c ****     * Parameters:
 479:.\Generated_Source\PSoC4/CyLFClk.c ****     *  counterNum: Valid range [0-2].  the number of the WDT counter.
 480:.\Generated_Source\PSoC4/CyLFClk.c ****     *
 481:.\Generated_Source\PSoC4/CyLFClk.c ****     * Return:
 482:.\Generated_Source\PSoC4/CyLFClk.c ****     *  The status of the WDT counter:
 483:.\Generated_Source\PSoC4/CyLFClk.c ****     *   0 - The counter is disabled.
 484:.\Generated_Source\PSoC4/CyLFClk.c ****     *   1 - The counter is enabled.
 485:.\Generated_Source\PSoC4/CyLFClk.c ****     *
 486:.\Generated_Source\PSoC4/CyLFClk.c ****     * Side Effects:
 487:.\Generated_Source\PSoC4/CyLFClk.c ****     *  This function returns an actual WDT counter status from the status register. It may
 488:.\Generated_Source\PSoC4/CyLFClk.c ****     *  take up to 3 LFCLK cycles for the WDT status register to contain actual data
 489:.\Generated_Source\PSoC4/CyLFClk.c ****     *  after the WDT counter is enabled.
 490:.\Generated_Source\PSoC4/CyLFClk.c ****     *
 491:.\Generated_Source\PSoC4/CyLFClk.c ****     *
 492:.\Generated_Source\PSoC4/CyLFClk.c ****     *******************************************************************************/
 493:.\Generated_Source\PSoC4/CyLFClk.c ****     uint32 CySysWdtGetEnabledStatus(uint32 counterNum)
 494:.\Generated_Source\PSoC4/CyLFClk.c ****     {
 803              		.loc 2 494 0
 804              		.cfi_startproc
 805 0000 80B5     		push	{r7, lr}
 806              		.cfi_def_cfa_offset 8
 807              		.cfi_offset 7, -8
 808              		.cfi_offset 14, -4
 809 0002 82B0     		sub	sp, sp, #8
 810              		.cfi_def_cfa_offset 16
 811 0004 00AF     		add	r7, sp, #0
 812              		.cfi_def_cfa_register 7
 813 0006 7860     		str	r0, [r7, #4]
 495:.\Generated_Source\PSoC4/CyLFClk.c ****         CYASSERT(counterNum < CY_SYS_WDT_COUNTERS_MAX);
 814              		.loc 2 495 0
 815 0008 7B68     		ldr	r3, [r7, #4]
 816 000a 022B     		cmp	r3, #2
 817 000c 02D9     		bls	.L65
 818              		.loc 2 495 0 is_stmt 0 discriminator 1
ARM GAS  C:\Users\DELL\AppData\Local\Temp\ccdBZmRk.s 			page 31


 819 000e 0020     		mov	r0, #0
 820 0010 FFF7FEFF 		bl	CyHalt
 821              	.L65:
 496:.\Generated_Source\PSoC4/CyLFClk.c ****         return ((CY_SYS_WDT_CONTROL_REG >> ((CY_SYS_WDT_CNT_SHIFT * counterNum) + CY_SYS_WDT_CNT_ST
 822              		.loc 2 496 0 is_stmt 1
 823 0014 054B     		ldr	r3, .L67
 824 0016 1B68     		ldr	r3, [r3]
 825 0018 7A68     		ldr	r2, [r7, #4]
 826 001a D200     		lsl	r2, r2, #3
 827 001c 0132     		add	r2, r2, #1
 828 001e D340     		lsr	r3, r3, r2
 829 0020 0122     		mov	r2, #1
 830 0022 1340     		and	r3, r2
 497:.\Generated_Source\PSoC4/CyLFClk.c ****     }
 831              		.loc 2 497 0
 832 0024 181C     		mov	r0, r3
 833 0026 BD46     		mov	sp, r7
 834 0028 02B0     		add	sp, sp, #8
 835              		@ sp needed
 836 002a 80BD     		pop	{r7, pc}
 837              	.L68:
 838              		.align	2
 839              	.L67:
 840 002c 10020B40 		.word	1074463248
 841              		.cfi_endproc
 842              	.LFE14:
 843              		.size	CySysWdtGetEnabledStatus, .-CySysWdtGetEnabledStatus
 844              		.section	.text.CySysWdtSetMode,"ax",%progbits
 845              		.align	2
 846              		.global	CySysWdtSetMode
 847              		.code	16
 848              		.thumb_func
 849              		.type	CySysWdtSetMode, %function
 850              	CySysWdtSetMode:
 851              	.LFB15:
 498:.\Generated_Source\PSoC4/CyLFClk.c **** 
 499:.\Generated_Source\PSoC4/CyLFClk.c **** 
 500:.\Generated_Source\PSoC4/CyLFClk.c ****     /*******************************************************************************
 501:.\Generated_Source\PSoC4/CyLFClk.c ****     * Function Name: CySysWdtSetMode
 502:.\Generated_Source\PSoC4/CyLFClk.c ****     ********************************************************************************
 503:.\Generated_Source\PSoC4/CyLFClk.c ****     *
 504:.\Generated_Source\PSoC4/CyLFClk.c ****     * Summary:
 505:.\Generated_Source\PSoC4/CyLFClk.c ****     *   Writes the mode of one of the three WDT counters.
 506:.\Generated_Source\PSoC4/CyLFClk.c ****     *
 507:.\Generated_Source\PSoC4/CyLFClk.c ****     * Parameters:
 508:.\Generated_Source\PSoC4/CyLFClk.c ****     *   counterNum: Valid range [0-2].  The number of the WDT counter.
 509:.\Generated_Source\PSoC4/CyLFClk.c ****     *   mode:       Mode of operation for the counter.
 510:.\Generated_Source\PSoC4/CyLFClk.c ****     *       Define                     Mode
 511:.\Generated_Source\PSoC4/CyLFClk.c ****     *        CY_SYS_WDT_MODE_NONE       Free running
 512:.\Generated_Source\PSoC4/CyLFClk.c ****     *        CY_SYS_WDT_MODE_INT        The interrupt generated on match for counter 0
 513:.\Generated_Source\PSoC4/CyLFClk.c ****     *                                   and 1, and on bit toggle for counter 2.
 514:.\Generated_Source\PSoC4/CyLFClk.c ****     *        CY_SYS_WDT_MODE_RESET      Reset on match (valid for counter 0 and 1
 515:.\Generated_Source\PSoC4/CyLFClk.c ****     *                                   only)
 516:.\Generated_Source\PSoC4/CyLFClk.c ****     *        CY_SYS_WDT_MODE_INT_RESET  Generate an interrupt.  Generate a reset on
 517:.\Generated_Source\PSoC4/CyLFClk.c ****     *                                   the 3rd non-handled interrupt.
 518:.\Generated_Source\PSoC4/CyLFClk.c ****     *                                   (valid for counter 0 and 1 only)
 519:.\Generated_Source\PSoC4/CyLFClk.c ****     * Return:
ARM GAS  C:\Users\DELL\AppData\Local\Temp\ccdBZmRk.s 			page 32


 520:.\Generated_Source\PSoC4/CyLFClk.c ****     *   None.
 521:.\Generated_Source\PSoC4/CyLFClk.c ****     *
 522:.\Generated_Source\PSoC4/CyLFClk.c ****     * Side Effects:
 523:.\Generated_Source\PSoC4/CyLFClk.c ****     *   WDT counter counterNum should be disabled to set a mode. Otherwise, this
 524:.\Generated_Source\PSoC4/CyLFClk.c ****     *   function call has no effect. If the specified counter is enabled,
 525:.\Generated_Source\PSoC4/CyLFClk.c ****     *   call the CySysWdtDisable() function with the corresponding parameter to
 526:.\Generated_Source\PSoC4/CyLFClk.c ****     *   disable the specified counter and wait for it to stop.
 527:.\Generated_Source\PSoC4/CyLFClk.c ****     *
 528:.\Generated_Source\PSoC4/CyLFClk.c ****     *******************************************************************************/
 529:.\Generated_Source\PSoC4/CyLFClk.c ****     void CySysWdtSetMode(uint32 counterNum, uint32 mode)
 530:.\Generated_Source\PSoC4/CyLFClk.c ****     {
 852              		.loc 2 530 0
 853              		.cfi_startproc
 854 0000 80B5     		push	{r7, lr}
 855              		.cfi_def_cfa_offset 8
 856              		.cfi_offset 7, -8
 857              		.cfi_offset 14, -4
 858 0002 84B0     		sub	sp, sp, #16
 859              		.cfi_def_cfa_offset 24
 860 0004 00AF     		add	r7, sp, #0
 861              		.cfi_def_cfa_register 7
 862 0006 7860     		str	r0, [r7, #4]
 863 0008 3960     		str	r1, [r7]
 531:.\Generated_Source\PSoC4/CyLFClk.c ****         uint32 configRegValue;
 532:.\Generated_Source\PSoC4/CyLFClk.c **** 
 533:.\Generated_Source\PSoC4/CyLFClk.c ****         CYASSERT(counterNum < CY_SYS_WDT_COUNTERS_MAX);
 864              		.loc 2 533 0
 865 000a 7B68     		ldr	r3, [r7, #4]
 866 000c 022B     		cmp	r3, #2
 867 000e 02D9     		bls	.L70
 868              		.loc 2 533 0 is_stmt 0 discriminator 1
 869 0010 0020     		mov	r0, #0
 870 0012 FFF7FEFF 		bl	CyHalt
 871              	.L70:
 534:.\Generated_Source\PSoC4/CyLFClk.c **** 
 535:.\Generated_Source\PSoC4/CyLFClk.c ****         if(0u == CySysWdtGetEnabledStatus(counterNum))
 872              		.loc 2 535 0 is_stmt 1
 873 0016 7B68     		ldr	r3, [r7, #4]
 874 0018 181C     		mov	r0, r3
 875 001a FFF7FEFF 		bl	CySysWdtGetEnabledStatus
 876 001e 031E     		sub	r3, r0, #0
 877 0020 15D1     		bne	.L69
 536:.\Generated_Source\PSoC4/CyLFClk.c ****         {
 537:.\Generated_Source\PSoC4/CyLFClk.c ****             configRegValue = CY_SYS_WDT_CONFIG_REG &
 878              		.loc 2 537 0
 879 0022 0C4B     		ldr	r3, .L72
 880 0024 1B68     		ldr	r3, [r3]
 538:.\Generated_Source\PSoC4/CyLFClk.c ****                                 (uint32)~((uint32)(CY_SYS_WDT_MODE_MASK << (counterNum * CY_SYS_WDT
 881              		.loc 2 538 0
 882 0026 7A68     		ldr	r2, [r7, #4]
 883 0028 D200     		lsl	r2, r2, #3
 884 002a 111C     		mov	r1, r2
 885 002c 0322     		mov	r2, #3
 886 002e 8A40     		lsl	r2, r2, r1
 887 0030 D243     		mvn	r2, r2
 537:.\Generated_Source\PSoC4/CyLFClk.c ****                                 (uint32)~((uint32)(CY_SYS_WDT_MODE_MASK << (counterNum * CY_SYS_WDT
 888              		.loc 2 537 0
ARM GAS  C:\Users\DELL\AppData\Local\Temp\ccdBZmRk.s 			page 33


 889 0032 1340     		and	r3, r2
 890 0034 FB60     		str	r3, [r7, #12]
 539:.\Generated_Source\PSoC4/CyLFClk.c ****             configRegValue |= (uint32)((mode & CY_SYS_WDT_MODE_MASK) << (counterNum * CY_SYS_WDT_CN
 891              		.loc 2 539 0
 892 0036 3B68     		ldr	r3, [r7]
 893 0038 0322     		mov	r2, #3
 894 003a 1340     		and	r3, r2
 895 003c 7A68     		ldr	r2, [r7, #4]
 896 003e D200     		lsl	r2, r2, #3
 897 0040 9340     		lsl	r3, r3, r2
 898 0042 FA68     		ldr	r2, [r7, #12]
 899 0044 1343     		orr	r3, r2
 900 0046 FB60     		str	r3, [r7, #12]
 540:.\Generated_Source\PSoC4/CyLFClk.c ****             CY_SYS_WDT_CONFIG_REG = configRegValue;
 901              		.loc 2 540 0
 902 0048 024B     		ldr	r3, .L72
 903 004a FA68     		ldr	r2, [r7, #12]
 904 004c 1A60     		str	r2, [r3]
 905              	.L69:
 541:.\Generated_Source\PSoC4/CyLFClk.c ****         }
 542:.\Generated_Source\PSoC4/CyLFClk.c ****     }
 906              		.loc 2 542 0
 907 004e BD46     		mov	sp, r7
 908 0050 04B0     		add	sp, sp, #16
 909              		@ sp needed
 910 0052 80BD     		pop	{r7, pc}
 911              	.L73:
 912              		.align	2
 913              	.L72:
 914 0054 0C020B40 		.word	1074463244
 915              		.cfi_endproc
 916              	.LFE15:
 917              		.size	CySysWdtSetMode, .-CySysWdtSetMode
 918              		.section	.text.CySysWdtGetMode,"ax",%progbits
 919              		.align	2
 920              		.global	CySysWdtGetMode
 921              		.code	16
 922              		.thumb_func
 923              		.type	CySysWdtGetMode, %function
 924              	CySysWdtGetMode:
 925              	.LFB16:
 543:.\Generated_Source\PSoC4/CyLFClk.c **** 
 544:.\Generated_Source\PSoC4/CyLFClk.c **** 
 545:.\Generated_Source\PSoC4/CyLFClk.c ****     /*******************************************************************************
 546:.\Generated_Source\PSoC4/CyLFClk.c ****     * Function Name: CySysWdtGetMode
 547:.\Generated_Source\PSoC4/CyLFClk.c ****     ********************************************************************************
 548:.\Generated_Source\PSoC4/CyLFClk.c ****     *
 549:.\Generated_Source\PSoC4/CyLFClk.c ****     * Summary:
 550:.\Generated_Source\PSoC4/CyLFClk.c ****     *  Reads the mode of one of the three WDT counters.
 551:.\Generated_Source\PSoC4/CyLFClk.c ****     *
 552:.\Generated_Source\PSoC4/CyLFClk.c ****     * Parameters:
 553:.\Generated_Source\PSoC4/CyLFClk.c ****     *  counterNum: Valid range [0-2].  The number of the WDT counter.
 554:.\Generated_Source\PSoC4/CyLFClk.c ****     *
 555:.\Generated_Source\PSoC4/CyLFClk.c ****     * Return:
 556:.\Generated_Source\PSoC4/CyLFClk.c ****     *  The mode of the counter.  The same enumerated values as the mode parameter used in
 557:.\Generated_Source\PSoC4/CyLFClk.c ****     *  CySysWdtSetMode().
 558:.\Generated_Source\PSoC4/CyLFClk.c ****     *
ARM GAS  C:\Users\DELL\AppData\Local\Temp\ccdBZmRk.s 			page 34


 559:.\Generated_Source\PSoC4/CyLFClk.c ****     *******************************************************************************/
 560:.\Generated_Source\PSoC4/CyLFClk.c ****     uint32 CySysWdtGetMode(uint32 counterNum)
 561:.\Generated_Source\PSoC4/CyLFClk.c ****     {
 926              		.loc 2 561 0
 927              		.cfi_startproc
 928 0000 80B5     		push	{r7, lr}
 929              		.cfi_def_cfa_offset 8
 930              		.cfi_offset 7, -8
 931              		.cfi_offset 14, -4
 932 0002 82B0     		sub	sp, sp, #8
 933              		.cfi_def_cfa_offset 16
 934 0004 00AF     		add	r7, sp, #0
 935              		.cfi_def_cfa_register 7
 936 0006 7860     		str	r0, [r7, #4]
 562:.\Generated_Source\PSoC4/CyLFClk.c ****         return ((CY_SYS_WDT_CONFIG_REG >> (counterNum * CY_SYS_WDT_CNT_SHIFT)) & CY_SYS_WDT_MODE_MA
 937              		.loc 2 562 0
 938 0008 054B     		ldr	r3, .L76
 939 000a 1B68     		ldr	r3, [r3]
 940 000c 7A68     		ldr	r2, [r7, #4]
 941 000e D200     		lsl	r2, r2, #3
 942 0010 D340     		lsr	r3, r3, r2
 943 0012 0322     		mov	r2, #3
 944 0014 1340     		and	r3, r2
 563:.\Generated_Source\PSoC4/CyLFClk.c ****     }
 945              		.loc 2 563 0
 946 0016 181C     		mov	r0, r3
 947 0018 BD46     		mov	sp, r7
 948 001a 02B0     		add	sp, sp, #8
 949              		@ sp needed
 950 001c 80BD     		pop	{r7, pc}
 951              	.L77:
 952 001e C046     		.align	2
 953              	.L76:
 954 0020 0C020B40 		.word	1074463244
 955              		.cfi_endproc
 956              	.LFE16:
 957              		.size	CySysWdtGetMode, .-CySysWdtGetMode
 958              		.section	.text.CySysWdtSetClearOnMatch,"ax",%progbits
 959              		.align	2
 960              		.global	CySysWdtSetClearOnMatch
 961              		.code	16
 962              		.thumb_func
 963              		.type	CySysWdtSetClearOnMatch, %function
 964              	CySysWdtSetClearOnMatch:
 965              	.LFB17:
 564:.\Generated_Source\PSoC4/CyLFClk.c **** 
 565:.\Generated_Source\PSoC4/CyLFClk.c **** 
 566:.\Generated_Source\PSoC4/CyLFClk.c ****     /*******************************************************************************
 567:.\Generated_Source\PSoC4/CyLFClk.c ****     * Function Name: CySysWdtSetClearOnMatch
 568:.\Generated_Source\PSoC4/CyLFClk.c ****     ********************************************************************************
 569:.\Generated_Source\PSoC4/CyLFClk.c ****     *
 570:.\Generated_Source\PSoC4/CyLFClk.c ****     * Summary:
 571:.\Generated_Source\PSoC4/CyLFClk.c ****     *  Configures the WDT counter "clear on match" setting.  If configured to "clear
 572:.\Generated_Source\PSoC4/CyLFClk.c ****     *  on match", the counter counts from 0 to MatchValue giving it a
 573:.\Generated_Source\PSoC4/CyLFClk.c ****     *  period of (MatchValue + 1).
 574:.\Generated_Source\PSoC4/CyLFClk.c ****     *
 575:.\Generated_Source\PSoC4/CyLFClk.c ****     * Parameters:
ARM GAS  C:\Users\DELL\AppData\Local\Temp\ccdBZmRk.s 			page 35


 576:.\Generated_Source\PSoC4/CyLFClk.c ****     *  counterNum:
 577:.\Generated_Source\PSoC4/CyLFClk.c ****     *   Valid range [0-1].  The number of the WDT counter.  The match values are not
 578:.\Generated_Source\PSoC4/CyLFClk.c ****     *   supported by counter 2.
 579:.\Generated_Source\PSoC4/CyLFClk.c ****     *
 580:.\Generated_Source\PSoC4/CyLFClk.c ****     * enable:
 581:.\Generated_Source\PSoC4/CyLFClk.c ****     *   0 to disable, 1 to enable
 582:.\Generated_Source\PSoC4/CyLFClk.c ****     *
 583:.\Generated_Source\PSoC4/CyLFClk.c ****     * Return:
 584:.\Generated_Source\PSoC4/CyLFClk.c ****     *   None.
 585:.\Generated_Source\PSoC4/CyLFClk.c ****     *
 586:.\Generated_Source\PSoC4/CyLFClk.c ****     * Side Effects:
 587:.\Generated_Source\PSoC4/CyLFClk.c ****     *   WDT counter counterNum should be disabled. Otherwise this function call
 588:.\Generated_Source\PSoC4/CyLFClk.c ****     *   has no effect. If the specified counter is enabled, call the CySysWdtDisable()
 589:.\Generated_Source\PSoC4/CyLFClk.c ****     *   function with the corresponding parameter to disable the specified counter and
 590:.\Generated_Source\PSoC4/CyLFClk.c ****     *   wait for it to stop. This may take up to three LFCLK cycles.
 591:.\Generated_Source\PSoC4/CyLFClk.c ****     *
 592:.\Generated_Source\PSoC4/CyLFClk.c ****     *******************************************************************************/
 593:.\Generated_Source\PSoC4/CyLFClk.c ****     void CySysWdtSetClearOnMatch(uint32 counterNum, uint32 enable)
 594:.\Generated_Source\PSoC4/CyLFClk.c ****     {
 966              		.loc 2 594 0
 967              		.cfi_startproc
 968 0000 80B5     		push	{r7, lr}
 969              		.cfi_def_cfa_offset 8
 970              		.cfi_offset 7, -8
 971              		.cfi_offset 14, -4
 972 0002 84B0     		sub	sp, sp, #16
 973              		.cfi_def_cfa_offset 24
 974 0004 00AF     		add	r7, sp, #0
 975              		.cfi_def_cfa_register 7
 976 0006 7860     		str	r0, [r7, #4]
 977 0008 3960     		str	r1, [r7]
 595:.\Generated_Source\PSoC4/CyLFClk.c ****         uint32 configRegValue;
 596:.\Generated_Source\PSoC4/CyLFClk.c **** 
 597:.\Generated_Source\PSoC4/CyLFClk.c ****         CYASSERT((counterNum == CY_SYS_WDT_COUNTER0) ||
 978              		.loc 2 597 0
 979 000a 7B68     		ldr	r3, [r7, #4]
 980 000c 002B     		cmp	r3, #0
 981 000e 02D0     		beq	.L79
 982              		.loc 2 597 0 is_stmt 0 discriminator 2
 983 0010 7B68     		ldr	r3, [r7, #4]
 984 0012 012B     		cmp	r3, #1
 985 0014 01D1     		bne	.L80
 986              	.L79:
 987              		.loc 2 597 0 discriminator 3
 988 0016 0123     		mov	r3, #1
 989 0018 00E0     		b	.L81
 990              	.L80:
 991              		.loc 2 597 0 discriminator 4
 992 001a 0023     		mov	r3, #0
 993              	.L81:
 994              		.loc 2 597 0 discriminator 6
 995 001c 002B     		cmp	r3, #0
 996 001e 02D1     		bne	.L82
 997              		.loc 2 597 0 discriminator 7
 998 0020 0020     		mov	r0, #0
 999 0022 FFF7FEFF 		bl	CyHalt
 1000              	.L82:
ARM GAS  C:\Users\DELL\AppData\Local\Temp\ccdBZmRk.s 			page 36


 598:.\Generated_Source\PSoC4/CyLFClk.c ****                  (counterNum == CY_SYS_WDT_COUNTER1));
 599:.\Generated_Source\PSoC4/CyLFClk.c **** 
 600:.\Generated_Source\PSoC4/CyLFClk.c ****         if(0u == CySysWdtGetEnabledStatus(counterNum))
 1001              		.loc 2 600 0 is_stmt 1
 1002 0026 7B68     		ldr	r3, [r7, #4]
 1003 0028 181C     		mov	r0, r3
 1004 002a FFF7FEFF 		bl	CySysWdtGetEnabledStatus
 1005 002e 031E     		sub	r3, r0, #0
 1006 0030 16D1     		bne	.L78
 601:.\Generated_Source\PSoC4/CyLFClk.c ****         {
 602:.\Generated_Source\PSoC4/CyLFClk.c ****             configRegValue = CY_SYS_WDT_CONFIG_REG &
 1007              		.loc 2 602 0
 1008 0032 0D4B     		ldr	r3, .L84
 1009 0034 1B68     		ldr	r3, [r3]
 603:.\Generated_Source\PSoC4/CyLFClk.c ****                 (uint32)~((uint32)((uint32)1u << ((counterNum * CY_SYS_WDT_CNT_SHIFT) + CY_SYS_WDT_
 1010              		.loc 2 603 0
 1011 0036 7A68     		ldr	r2, [r7, #4]
 1012 0038 D200     		lsl	r2, r2, #3
 1013 003a 0232     		add	r2, r2, #2
 1014 003c 111C     		mov	r1, r2
 1015 003e 0122     		mov	r2, #1
 1016 0040 8A40     		lsl	r2, r2, r1
 1017 0042 D243     		mvn	r2, r2
 602:.\Generated_Source\PSoC4/CyLFClk.c ****                 (uint32)~((uint32)((uint32)1u << ((counterNum * CY_SYS_WDT_CNT_SHIFT) + CY_SYS_WDT_
 1018              		.loc 2 602 0
 1019 0044 1340     		and	r3, r2
 1020 0046 FB60     		str	r3, [r7, #12]
 604:.\Generated_Source\PSoC4/CyLFClk.c **** 
 605:.\Generated_Source\PSoC4/CyLFClk.c ****             configRegValue
 606:.\Generated_Source\PSoC4/CyLFClk.c ****                 |= (uint32)(enable << ((counterNum * CY_SYS_WDT_CNT_SHIFT) + CY_SYS_WDT_CNT_MATCH_C
 1021              		.loc 2 606 0
 1022 0048 7B68     		ldr	r3, [r7, #4]
 1023 004a DB00     		lsl	r3, r3, #3
 1024 004c 0233     		add	r3, r3, #2
 1025 004e 1A1C     		mov	r2, r3
 1026 0050 3B68     		ldr	r3, [r7]
 1027 0052 9340     		lsl	r3, r3, r2
 1028 0054 FA68     		ldr	r2, [r7, #12]
 1029 0056 1343     		orr	r3, r2
 1030 0058 FB60     		str	r3, [r7, #12]
 607:.\Generated_Source\PSoC4/CyLFClk.c **** 
 608:.\Generated_Source\PSoC4/CyLFClk.c ****             CY_SYS_WDT_CONFIG_REG = configRegValue;
 1031              		.loc 2 608 0
 1032 005a 034B     		ldr	r3, .L84
 1033 005c FA68     		ldr	r2, [r7, #12]
 1034 005e 1A60     		str	r2, [r3]
 1035              	.L78:
 609:.\Generated_Source\PSoC4/CyLFClk.c ****         }
 610:.\Generated_Source\PSoC4/CyLFClk.c ****     }
 1036              		.loc 2 610 0
 1037 0060 BD46     		mov	sp, r7
 1038 0062 04B0     		add	sp, sp, #16
 1039              		@ sp needed
 1040 0064 80BD     		pop	{r7, pc}
 1041              	.L85:
 1042 0066 C046     		.align	2
 1043              	.L84:
ARM GAS  C:\Users\DELL\AppData\Local\Temp\ccdBZmRk.s 			page 37


 1044 0068 0C020B40 		.word	1074463244
 1045              		.cfi_endproc
 1046              	.LFE17:
 1047              		.size	CySysWdtSetClearOnMatch, .-CySysWdtSetClearOnMatch
 1048              		.section	.text.CySysWdtGetClearOnMatch,"ax",%progbits
 1049              		.align	2
 1050              		.global	CySysWdtGetClearOnMatch
 1051              		.code	16
 1052              		.thumb_func
 1053              		.type	CySysWdtGetClearOnMatch, %function
 1054              	CySysWdtGetClearOnMatch:
 1055              	.LFB18:
 611:.\Generated_Source\PSoC4/CyLFClk.c **** 
 612:.\Generated_Source\PSoC4/CyLFClk.c **** 
 613:.\Generated_Source\PSoC4/CyLFClk.c ****     /*******************************************************************************
 614:.\Generated_Source\PSoC4/CyLFClk.c ****     * Function Name: CySysWdtGetClearOnMatch
 615:.\Generated_Source\PSoC4/CyLFClk.c ****     ********************************************************************************
 616:.\Generated_Source\PSoC4/CyLFClk.c ****     *
 617:.\Generated_Source\PSoC4/CyLFClk.c ****     * Summary:
 618:.\Generated_Source\PSoC4/CyLFClk.c ****     *  Reads the "clear on match" setting for the specified counter.
 619:.\Generated_Source\PSoC4/CyLFClk.c ****     *
 620:.\Generated_Source\PSoC4/CyLFClk.c ****     * Parameters:
 621:.\Generated_Source\PSoC4/CyLFClk.c ****     *   counterNum: Valid range [0-1].  The number of the WDT counter.  The match values are
 622:.\Generated_Source\PSoC4/CyLFClk.c ****     *               not supported by counter 2.
 623:.\Generated_Source\PSoC4/CyLFClk.c ****     *
 624:.\Generated_Source\PSoC4/CyLFClk.c ****     * Return:
 625:.\Generated_Source\PSoC4/CyLFClk.c ****     *   The "clear on match" status: 1 if enabled, 0 if disabled
 626:.\Generated_Source\PSoC4/CyLFClk.c ****     *
 627:.\Generated_Source\PSoC4/CyLFClk.c ****     *******************************************************************************/
 628:.\Generated_Source\PSoC4/CyLFClk.c ****     uint32 CySysWdtGetClearOnMatch(uint32 counterNum)
 629:.\Generated_Source\PSoC4/CyLFClk.c ****     {
 1056              		.loc 2 629 0
 1057              		.cfi_startproc
 1058 0000 80B5     		push	{r7, lr}
 1059              		.cfi_def_cfa_offset 8
 1060              		.cfi_offset 7, -8
 1061              		.cfi_offset 14, -4
 1062 0002 82B0     		sub	sp, sp, #8
 1063              		.cfi_def_cfa_offset 16
 1064 0004 00AF     		add	r7, sp, #0
 1065              		.cfi_def_cfa_register 7
 1066 0006 7860     		str	r0, [r7, #4]
 630:.\Generated_Source\PSoC4/CyLFClk.c ****         CYASSERT((counterNum == CY_SYS_WDT_COUNTER0) ||
 1067              		.loc 2 630 0
 1068 0008 7B68     		ldr	r3, [r7, #4]
 1069 000a 002B     		cmp	r3, #0
 1070 000c 02D0     		beq	.L87
 1071              		.loc 2 630 0 is_stmt 0 discriminator 2
 1072 000e 7B68     		ldr	r3, [r7, #4]
 1073 0010 012B     		cmp	r3, #1
 1074 0012 01D1     		bne	.L88
 1075              	.L87:
 1076              		.loc 2 630 0 discriminator 3
 1077 0014 0123     		mov	r3, #1
 1078 0016 00E0     		b	.L89
 1079              	.L88:
 1080              		.loc 2 630 0 discriminator 4
ARM GAS  C:\Users\DELL\AppData\Local\Temp\ccdBZmRk.s 			page 38


 1081 0018 0023     		mov	r3, #0
 1082              	.L89:
 1083              		.loc 2 630 0 discriminator 6
 1084 001a 002B     		cmp	r3, #0
 1085 001c 02D1     		bne	.L90
 1086              		.loc 2 630 0 discriminator 7
 1087 001e 0020     		mov	r0, #0
 1088 0020 FFF7FEFF 		bl	CyHalt
 1089              	.L90:
 631:.\Generated_Source\PSoC4/CyLFClk.c ****                  (counterNum == CY_SYS_WDT_COUNTER1));
 632:.\Generated_Source\PSoC4/CyLFClk.c **** 
 633:.\Generated_Source\PSoC4/CyLFClk.c ****         return (uint32)((CY_SYS_WDT_CONFIG_REG >>
 1090              		.loc 2 633 0 is_stmt 1
 1091 0024 054B     		ldr	r3, .L92
 1092 0026 1B68     		ldr	r3, [r3]
 634:.\Generated_Source\PSoC4/CyLFClk.c ****                         ((counterNum * CY_SYS_WDT_CNT_SHIFT) + CY_SYS_WDT_CNT_MATCH_CLR_SHIFT)) & 0
 1093              		.loc 2 634 0
 1094 0028 7A68     		ldr	r2, [r7, #4]
 1095 002a D200     		lsl	r2, r2, #3
 1096 002c 0232     		add	r2, r2, #2
 633:.\Generated_Source\PSoC4/CyLFClk.c ****                         ((counterNum * CY_SYS_WDT_CNT_SHIFT) + CY_SYS_WDT_CNT_MATCH_CLR_SHIFT)) & 0
 1097              		.loc 2 633 0
 1098 002e D340     		lsr	r3, r3, r2
 1099 0030 0122     		mov	r2, #1
 1100 0032 1340     		and	r3, r2
 635:.\Generated_Source\PSoC4/CyLFClk.c ****     }
 1101              		.loc 2 635 0
 1102 0034 181C     		mov	r0, r3
 1103 0036 BD46     		mov	sp, r7
 1104 0038 02B0     		add	sp, sp, #8
 1105              		@ sp needed
 1106 003a 80BD     		pop	{r7, pc}
 1107              	.L93:
 1108              		.align	2
 1109              	.L92:
 1110 003c 0C020B40 		.word	1074463244
 1111              		.cfi_endproc
 1112              	.LFE18:
 1113              		.size	CySysWdtGetClearOnMatch, .-CySysWdtGetClearOnMatch
 1114              		.section	.text.CySysWdtEnable,"ax",%progbits
 1115              		.align	2
 1116              		.global	CySysWdtEnable
 1117              		.code	16
 1118              		.thumb_func
 1119              		.type	CySysWdtEnable, %function
 1120              	CySysWdtEnable:
 1121              	.LFB19:
 636:.\Generated_Source\PSoC4/CyLFClk.c **** 
 637:.\Generated_Source\PSoC4/CyLFClk.c **** 
 638:.\Generated_Source\PSoC4/CyLFClk.c ****     /*******************************************************************************
 639:.\Generated_Source\PSoC4/CyLFClk.c ****     * Function Name: CySysWdtEnable
 640:.\Generated_Source\PSoC4/CyLFClk.c ****     ********************************************************************************
 641:.\Generated_Source\PSoC4/CyLFClk.c ****     *
 642:.\Generated_Source\PSoC4/CyLFClk.c ****     * Summary:
 643:.\Generated_Source\PSoC4/CyLFClk.c ****     *  Enables the specified WDT counters.  All the counters specified in the mask
 644:.\Generated_Source\PSoC4/CyLFClk.c ****     *  are enabled.
 645:.\Generated_Source\PSoC4/CyLFClk.c ****     *
ARM GAS  C:\Users\DELL\AppData\Local\Temp\ccdBZmRk.s 			page 39


 646:.\Generated_Source\PSoC4/CyLFClk.c ****     * Parameters:
 647:.\Generated_Source\PSoC4/CyLFClk.c ****     *  counterMask: The mask of all counters to enable.
 648:.\Generated_Source\PSoC4/CyLFClk.c ****     *       Define                       Counter
 649:.\Generated_Source\PSoC4/CyLFClk.c ****     *      CY_SYS_WDT_COUNTER0_MASK      0
 650:.\Generated_Source\PSoC4/CyLFClk.c ****     *      CY_SYS_WDT_COUNTER1_MASK      1
 651:.\Generated_Source\PSoC4/CyLFClk.c ****     *      CY_SYS_WDT_COUNTER2_MASK      2
 652:.\Generated_Source\PSoC4/CyLFClk.c ****     *
 653:.\Generated_Source\PSoC4/CyLFClk.c ****     * Return:
 654:.\Generated_Source\PSoC4/CyLFClk.c ****     *  None
 655:.\Generated_Source\PSoC4/CyLFClk.c ****     *
 656:.\Generated_Source\PSoC4/CyLFClk.c ****     * Side Effects:
 657:.\Generated_Source\PSoC4/CyLFClk.c ****     *  Enabling or disabling WDT requires 3 LFCLK cycles to come into effect.
 658:.\Generated_Source\PSoC4/CyLFClk.c ****     *  Therefore, the WDT enable state must not be changed more than once in
 659:.\Generated_Source\PSoC4/CyLFClk.c ****     *  that period.
 660:.\Generated_Source\PSoC4/CyLFClk.c ****     *
 661:.\Generated_Source\PSoC4/CyLFClk.c ****     *  After WDT is enabled, it is illegal to write WDT configuration (WDT_CONFIG)
 662:.\Generated_Source\PSoC4/CyLFClk.c ****     *  and control (WDT_CONTROL) registers. This means that all WDT functions that
 663:.\Generated_Source\PSoC4/CyLFClk.c ****     *  contain 'write' in the name (with the exception of CySysWdtSetMatch()
 664:.\Generated_Source\PSoC4/CyLFClk.c ****     *  function) are illegal to call once WDT enabled.
 665:.\Generated_Source\PSoC4/CyLFClk.c ****     *
 666:.\Generated_Source\PSoC4/CyLFClk.c ****     *  PSoC 4100 / PSoC 4200:
 667:.\Generated_Source\PSoC4/CyLFClk.c ****     *  This function enables ILO.
 668:.\Generated_Source\PSoC4/CyLFClk.c ****     *
 669:.\Generated_Source\PSoC4/CyLFClk.c ****     *  PSoC 4100-BL / PSoC 4200-BL and PSoC 4100M / PSoC 4200M:
 670:.\Generated_Source\PSoC4/CyLFClk.c ****     *  LFLCK should be configured before calling this function. The desired
 671:.\Generated_Source\PSoC4/CyLFClk.c ****     *  source should be enabled and configured to be the source for LFCLK.
 672:.\Generated_Source\PSoC4/CyLFClk.c ****     *
 673:.\Generated_Source\PSoC4/CyLFClk.c ****     *******************************************************************************/
 674:.\Generated_Source\PSoC4/CyLFClk.c ****     void CySysWdtEnable(uint32 counterMask)
 675:.\Generated_Source\PSoC4/CyLFClk.c ****     {
 1122              		.loc 2 675 0
 1123              		.cfi_startproc
 1124 0000 80B5     		push	{r7, lr}
 1125              		.cfi_def_cfa_offset 8
 1126              		.cfi_offset 7, -8
 1127              		.cfi_offset 14, -4
 1128 0002 82B0     		sub	sp, sp, #8
 1129              		.cfi_def_cfa_offset 16
 1130 0004 00AF     		add	r7, sp, #0
 1131              		.cfi_def_cfa_register 7
 1132 0006 7860     		str	r0, [r7, #4]
 676:.\Generated_Source\PSoC4/CyLFClk.c ****         #if (!CY_IP_WCO)
 677:.\Generated_Source\PSoC4/CyLFClk.c ****             CySysClkIloStart();
 678:.\Generated_Source\PSoC4/CyLFClk.c ****         #endif /* (!CY_IP_WCO) */
 679:.\Generated_Source\PSoC4/CyLFClk.c **** 
 680:.\Generated_Source\PSoC4/CyLFClk.c ****         CY_SYS_WDT_CONTROL_REG |= counterMask;
 1133              		.loc 2 680 0
 1134 0008 144B     		ldr	r3, .L101
 1135 000a 144A     		ldr	r2, .L101
 1136 000c 1168     		ldr	r1, [r2]
 1137 000e 7A68     		ldr	r2, [r7, #4]
 1138 0010 0A43     		orr	r2, r1
 1139 0012 1A60     		str	r2, [r3]
 681:.\Generated_Source\PSoC4/CyLFClk.c **** 
 682:.\Generated_Source\PSoC4/CyLFClk.c ****         if(0u != (counterMask & CY_SYS_WDT_COUNTER0_MASK))
 1140              		.loc 2 682 0
 1141 0014 7B68     		ldr	r3, [r7, #4]
ARM GAS  C:\Users\DELL\AppData\Local\Temp\ccdBZmRk.s 			page 40


 1142 0016 0122     		mov	r2, #1
 1143 0018 1340     		and	r3, r2
 1144 001a 05D0     		beq	.L95
 683:.\Generated_Source\PSoC4/CyLFClk.c ****         {
 684:.\Generated_Source\PSoC4/CyLFClk.c ****             while (0u == CySysWdtGetEnabledStatus(CY_SYS_WDT_COUNTER0))
 1145              		.loc 2 684 0
 1146 001c C046     		mov	r8, r8
 1147              	.L96:
 1148              		.loc 2 684 0 is_stmt 0 discriminator 1
 1149 001e 0020     		mov	r0, #0
 1150 0020 FFF7FEFF 		bl	CySysWdtGetEnabledStatus
 1151 0024 031E     		sub	r3, r0, #0
 1152 0026 FAD0     		beq	.L96
 1153              	.L95:
 685:.\Generated_Source\PSoC4/CyLFClk.c ****             {
 686:.\Generated_Source\PSoC4/CyLFClk.c ****                 /* Wait for changes to come into effect */
 687:.\Generated_Source\PSoC4/CyLFClk.c ****             }
 688:.\Generated_Source\PSoC4/CyLFClk.c ****         }
 689:.\Generated_Source\PSoC4/CyLFClk.c **** 
 690:.\Generated_Source\PSoC4/CyLFClk.c ****         if(0u != (counterMask & CY_SYS_WDT_COUNTER1_MASK))
 1154              		.loc 2 690 0 is_stmt 1
 1155 0028 7A68     		ldr	r2, [r7, #4]
 1156 002a 8023     		mov	r3, #128
 1157 002c 5B00     		lsl	r3, r3, #1
 1158 002e 1340     		and	r3, r2
 1159 0030 05D0     		beq	.L97
 691:.\Generated_Source\PSoC4/CyLFClk.c ****         {
 692:.\Generated_Source\PSoC4/CyLFClk.c ****             while (0u == CySysWdtGetEnabledStatus(CY_SYS_WDT_COUNTER1))
 1160              		.loc 2 692 0
 1161 0032 C046     		mov	r8, r8
 1162              	.L98:
 1163              		.loc 2 692 0 is_stmt 0 discriminator 1
 1164 0034 0120     		mov	r0, #1
 1165 0036 FFF7FEFF 		bl	CySysWdtGetEnabledStatus
 1166 003a 031E     		sub	r3, r0, #0
 1167 003c FAD0     		beq	.L98
 1168              	.L97:
 693:.\Generated_Source\PSoC4/CyLFClk.c ****             {
 694:.\Generated_Source\PSoC4/CyLFClk.c ****                 /* Wait for changes to come into effect */
 695:.\Generated_Source\PSoC4/CyLFClk.c ****             }
 696:.\Generated_Source\PSoC4/CyLFClk.c ****         }
 697:.\Generated_Source\PSoC4/CyLFClk.c **** 
 698:.\Generated_Source\PSoC4/CyLFClk.c ****         if(0u != (counterMask & CY_SYS_WDT_COUNTER2_MASK))
 1169              		.loc 2 698 0 is_stmt 1
 1170 003e 7A68     		ldr	r2, [r7, #4]
 1171 0040 8023     		mov	r3, #128
 1172 0042 5B02     		lsl	r3, r3, #9
 1173 0044 1340     		and	r3, r2
 1174 0046 05D0     		beq	.L94
 699:.\Generated_Source\PSoC4/CyLFClk.c ****         {
 700:.\Generated_Source\PSoC4/CyLFClk.c ****             while (0u == CySysWdtGetEnabledStatus(CY_SYS_WDT_COUNTER2))
 1175              		.loc 2 700 0
 1176 0048 C046     		mov	r8, r8
 1177              	.L100:
 1178              		.loc 2 700 0 is_stmt 0 discriminator 1
 1179 004a 0220     		mov	r0, #2
 1180 004c FFF7FEFF 		bl	CySysWdtGetEnabledStatus
ARM GAS  C:\Users\DELL\AppData\Local\Temp\ccdBZmRk.s 			page 41


 1181 0050 031E     		sub	r3, r0, #0
 1182 0052 FAD0     		beq	.L100
 1183              	.L94:
 701:.\Generated_Source\PSoC4/CyLFClk.c ****             {
 702:.\Generated_Source\PSoC4/CyLFClk.c ****                 /* Wait for changes to come into effect */
 703:.\Generated_Source\PSoC4/CyLFClk.c ****             }
 704:.\Generated_Source\PSoC4/CyLFClk.c ****         }
 705:.\Generated_Source\PSoC4/CyLFClk.c ****     }
 1184              		.loc 2 705 0 is_stmt 1
 1185 0054 BD46     		mov	sp, r7
 1186 0056 02B0     		add	sp, sp, #8
 1187              		@ sp needed
 1188 0058 80BD     		pop	{r7, pc}
 1189              	.L102:
 1190 005a C046     		.align	2
 1191              	.L101:
 1192 005c 10020B40 		.word	1074463248
 1193              		.cfi_endproc
 1194              	.LFE19:
 1195              		.size	CySysWdtEnable, .-CySysWdtEnable
 1196              		.section	.text.CySysWdtDisable,"ax",%progbits
 1197              		.align	2
 1198              		.global	CySysWdtDisable
 1199              		.code	16
 1200              		.thumb_func
 1201              		.type	CySysWdtDisable, %function
 1202              	CySysWdtDisable:
 1203              	.LFB20:
 706:.\Generated_Source\PSoC4/CyLFClk.c **** 
 707:.\Generated_Source\PSoC4/CyLFClk.c **** 
 708:.\Generated_Source\PSoC4/CyLFClk.c ****     /*******************************************************************************
 709:.\Generated_Source\PSoC4/CyLFClk.c ****     * Function Name: CySysWdtDisable
 710:.\Generated_Source\PSoC4/CyLFClk.c ****     ********************************************************************************
 711:.\Generated_Source\PSoC4/CyLFClk.c ****     *
 712:.\Generated_Source\PSoC4/CyLFClk.c ****     * Summary:
 713:.\Generated_Source\PSoC4/CyLFClk.c ****     *  Disables the specified WDT counters. All the counters specified in the mask
 714:.\Generated_Source\PSoC4/CyLFClk.c ****     *  are disabled. The function waits for the changes to come into effect.
 715:.\Generated_Source\PSoC4/CyLFClk.c ****     *
 716:.\Generated_Source\PSoC4/CyLFClk.c ****     * Parameters:
 717:.\Generated_Source\PSoC4/CyLFClk.c ****     *  uint32 counterMask: The mask of all counters to disable
 718:.\Generated_Source\PSoC4/CyLFClk.c ****     *    Define                       Counter
 719:.\Generated_Source\PSoC4/CyLFClk.c ****     *   CY_SYS_WDT_COUNTER0_MASK      0
 720:.\Generated_Source\PSoC4/CyLFClk.c ****     *   CY_SYS_WDT_COUNTER1_MASK      1
 721:.\Generated_Source\PSoC4/CyLFClk.c ****     *   CY_SYS_WDT_COUNTER2_MASK      2
 722:.\Generated_Source\PSoC4/CyLFClk.c ****     *
 723:.\Generated_Source\PSoC4/CyLFClk.c ****     * Return:
 724:.\Generated_Source\PSoC4/CyLFClk.c ****     *   None.
 725:.\Generated_Source\PSoC4/CyLFClk.c ****     *
 726:.\Generated_Source\PSoC4/CyLFClk.c ****     *******************************************************************************/
 727:.\Generated_Source\PSoC4/CyLFClk.c ****     void CySysWdtDisable(uint32 counterMask)
 728:.\Generated_Source\PSoC4/CyLFClk.c ****     {
 1204              		.loc 2 728 0
 1205              		.cfi_startproc
 1206 0000 80B5     		push	{r7, lr}
 1207              		.cfi_def_cfa_offset 8
 1208              		.cfi_offset 7, -8
 1209              		.cfi_offset 14, -4
ARM GAS  C:\Users\DELL\AppData\Local\Temp\ccdBZmRk.s 			page 42


 1210 0002 82B0     		sub	sp, sp, #8
 1211              		.cfi_def_cfa_offset 16
 1212 0004 00AF     		add	r7, sp, #0
 1213              		.cfi_def_cfa_register 7
 1214 0006 7860     		str	r0, [r7, #4]
 729:.\Generated_Source\PSoC4/CyLFClk.c ****         if (0uL == CySysWdtLocked())
 1215              		.loc 2 729 0
 1216 0008 FFF7FEFF 		bl	CySysWdtLocked
 1217 000c 031E     		sub	r3, r0, #0
 1218 000e 26D1     		bne	.L103
 730:.\Generated_Source\PSoC4/CyLFClk.c ****         {
 731:.\Generated_Source\PSoC4/CyLFClk.c ****             CY_SYS_WDT_CONTROL_REG &= ~counterMask;
 1219              		.loc 2 731 0
 1220 0010 144B     		ldr	r3, .L110
 1221 0012 144A     		ldr	r2, .L110
 1222 0014 1268     		ldr	r2, [r2]
 1223 0016 7968     		ldr	r1, [r7, #4]
 1224 0018 C943     		mvn	r1, r1
 1225 001a 0A40     		and	r2, r1
 1226 001c 1A60     		str	r2, [r3]
 732:.\Generated_Source\PSoC4/CyLFClk.c **** 
 733:.\Generated_Source\PSoC4/CyLFClk.c ****             if(0u != (counterMask & CY_SYS_WDT_COUNTER0_MASK))
 1227              		.loc 2 733 0
 1228 001e 7B68     		ldr	r3, [r7, #4]
 1229 0020 0122     		mov	r2, #1
 1230 0022 1340     		and	r3, r2
 1231 0024 05D0     		beq	.L105
 734:.\Generated_Source\PSoC4/CyLFClk.c ****             {
 735:.\Generated_Source\PSoC4/CyLFClk.c ****                 while (0u != CySysWdtGetEnabledStatus(CY_SYS_WDT_COUNTER0))
 1232              		.loc 2 735 0
 1233 0026 C046     		mov	r8, r8
 1234              	.L106:
 1235              		.loc 2 735 0 is_stmt 0 discriminator 1
 1236 0028 0020     		mov	r0, #0
 1237 002a FFF7FEFF 		bl	CySysWdtGetEnabledStatus
 1238 002e 031E     		sub	r3, r0, #0
 1239 0030 FAD1     		bne	.L106
 1240              	.L105:
 736:.\Generated_Source\PSoC4/CyLFClk.c ****                 {
 737:.\Generated_Source\PSoC4/CyLFClk.c ****                     /* Wait for changes to come into effect */
 738:.\Generated_Source\PSoC4/CyLFClk.c ****                 }
 739:.\Generated_Source\PSoC4/CyLFClk.c ****             }
 740:.\Generated_Source\PSoC4/CyLFClk.c **** 
 741:.\Generated_Source\PSoC4/CyLFClk.c ****             if(0u != (counterMask & CY_SYS_WDT_COUNTER1_MASK))
 1241              		.loc 2 741 0 is_stmt 1
 1242 0032 7A68     		ldr	r2, [r7, #4]
 1243 0034 8023     		mov	r3, #128
 1244 0036 5B00     		lsl	r3, r3, #1
 1245 0038 1340     		and	r3, r2
 1246 003a 05D0     		beq	.L107
 742:.\Generated_Source\PSoC4/CyLFClk.c ****             {
 743:.\Generated_Source\PSoC4/CyLFClk.c ****                 while (0u != CySysWdtGetEnabledStatus(CY_SYS_WDT_COUNTER1))
 1247              		.loc 2 743 0
 1248 003c C046     		mov	r8, r8
 1249              	.L108:
 1250              		.loc 2 743 0 is_stmt 0 discriminator 1
 1251 003e 0120     		mov	r0, #1
ARM GAS  C:\Users\DELL\AppData\Local\Temp\ccdBZmRk.s 			page 43


 1252 0040 FFF7FEFF 		bl	CySysWdtGetEnabledStatus
 1253 0044 031E     		sub	r3, r0, #0
 1254 0046 FAD1     		bne	.L108
 1255              	.L107:
 744:.\Generated_Source\PSoC4/CyLFClk.c ****                 {
 745:.\Generated_Source\PSoC4/CyLFClk.c ****                     /* Wait for changes to come into effect */
 746:.\Generated_Source\PSoC4/CyLFClk.c ****                 }
 747:.\Generated_Source\PSoC4/CyLFClk.c ****             }
 748:.\Generated_Source\PSoC4/CyLFClk.c **** 
 749:.\Generated_Source\PSoC4/CyLFClk.c ****             if(0u != (counterMask & CY_SYS_WDT_COUNTER2_MASK))
 1256              		.loc 2 749 0 is_stmt 1
 1257 0048 7A68     		ldr	r2, [r7, #4]
 1258 004a 8023     		mov	r3, #128
 1259 004c 5B02     		lsl	r3, r3, #9
 1260 004e 1340     		and	r3, r2
 1261 0050 05D0     		beq	.L103
 750:.\Generated_Source\PSoC4/CyLFClk.c ****             {
 751:.\Generated_Source\PSoC4/CyLFClk.c ****                 while (0u != CySysWdtGetEnabledStatus(CY_SYS_WDT_COUNTER2))
 1262              		.loc 2 751 0
 1263 0052 C046     		mov	r8, r8
 1264              	.L109:
 1265              		.loc 2 751 0 is_stmt 0 discriminator 1
 1266 0054 0220     		mov	r0, #2
 1267 0056 FFF7FEFF 		bl	CySysWdtGetEnabledStatus
 1268 005a 031E     		sub	r3, r0, #0
 1269 005c FAD1     		bne	.L109
 1270              	.L103:
 752:.\Generated_Source\PSoC4/CyLFClk.c ****                 {
 753:.\Generated_Source\PSoC4/CyLFClk.c ****                     /* Wait for changes to come into effect */
 754:.\Generated_Source\PSoC4/CyLFClk.c ****                 }
 755:.\Generated_Source\PSoC4/CyLFClk.c ****             }
 756:.\Generated_Source\PSoC4/CyLFClk.c ****         }
 757:.\Generated_Source\PSoC4/CyLFClk.c ****     }
 1271              		.loc 2 757 0 is_stmt 1
 1272 005e BD46     		mov	sp, r7
 1273 0060 02B0     		add	sp, sp, #8
 1274              		@ sp needed
 1275 0062 80BD     		pop	{r7, pc}
 1276              	.L111:
 1277              		.align	2
 1278              	.L110:
 1279 0064 10020B40 		.word	1074463248
 1280              		.cfi_endproc
 1281              	.LFE20:
 1282              		.size	CySysWdtDisable, .-CySysWdtDisable
 1283              		.section	.text.CySysWdtSetCascade,"ax",%progbits
 1284              		.align	2
 1285              		.global	CySysWdtSetCascade
 1286              		.code	16
 1287              		.thumb_func
 1288              		.type	CySysWdtSetCascade, %function
 1289              	CySysWdtSetCascade:
 1290              	.LFB21:
 758:.\Generated_Source\PSoC4/CyLFClk.c **** 
 759:.\Generated_Source\PSoC4/CyLFClk.c **** 
 760:.\Generated_Source\PSoC4/CyLFClk.c ****     /*******************************************************************************
 761:.\Generated_Source\PSoC4/CyLFClk.c ****     * Function Name: CySysWdtSetCascade
ARM GAS  C:\Users\DELL\AppData\Local\Temp\ccdBZmRk.s 			page 44


 762:.\Generated_Source\PSoC4/CyLFClk.c ****     ********************************************************************************
 763:.\Generated_Source\PSoC4/CyLFClk.c ****     *
 764:.\Generated_Source\PSoC4/CyLFClk.c ****     * Summary:
 765:.\Generated_Source\PSoC4/CyLFClk.c ****     *   Writes the two WDT cascade values based on the combination of mask values
 766:.\Generated_Source\PSoC4/CyLFClk.c ****     *   specified.
 767:.\Generated_Source\PSoC4/CyLFClk.c ****     *
 768:.\Generated_Source\PSoC4/CyLFClk.c ****     * Parameters:
 769:.\Generated_Source\PSoC4/CyLFClk.c ****     *   cascadeMask: The mask value used to set or clear the cascade values.
 770:.\Generated_Source\PSoC4/CyLFClk.c ****     *   Define                     Cascade
 771:.\Generated_Source\PSoC4/CyLFClk.c ****     *   CY_SYS_WDT_CASCADE_NONE    Neither
 772:.\Generated_Source\PSoC4/CyLFClk.c ****     *   CY_SYS_WDT_CASCADE_01      Cascade 01
 773:.\Generated_Source\PSoC4/CyLFClk.c ****     *   CY_SYS_WDT_CASCADE_12      Cascade 12
 774:.\Generated_Source\PSoC4/CyLFClk.c ****     *
 775:.\Generated_Source\PSoC4/CyLFClk.c ****     *   To set both cascade modes, two defines should be ORed:
 776:.\Generated_Source\PSoC4/CyLFClk.c ****     *   (CY_SYS_WDT_CASCADE_01 | CY_SYS_WDT_CASCADE_12)
 777:.\Generated_Source\PSoC4/CyLFClk.c ****     *
 778:.\Generated_Source\PSoC4/CyLFClk.c ****     * Return:
 779:.\Generated_Source\PSoC4/CyLFClk.c ****     *   None.
 780:.\Generated_Source\PSoC4/CyLFClk.c ****     *
 781:.\Generated_Source\PSoC4/CyLFClk.c ****     * Side effects:
 782:.\Generated_Source\PSoC4/CyLFClk.c ****     *   If only one cascade mask is specified, the second cascade is disabled.
 783:.\Generated_Source\PSoC4/CyLFClk.c ****     *   To set both cascade modes, two defines should be ORed:
 784:.\Generated_Source\PSoC4/CyLFClk.c ****     *    (CY_SYS_WDT_CASCADE_01 | CY_SYS_WDT_CASCADE_12).
 785:.\Generated_Source\PSoC4/CyLFClk.c ****     *
 786:.\Generated_Source\PSoC4/CyLFClk.c ****     *   WDT counters that are part of the specified cascade should be disabled.
 787:.\Generated_Source\PSoC4/CyLFClk.c ****     *   Otherwise this function call has no effect. If the specified
 788:.\Generated_Source\PSoC4/CyLFClk.c ****     *   counter is enabled, call CySysWdtDisable() function with the corresponding
 789:.\Generated_Source\PSoC4/CyLFClk.c ****     *   parameter to disable the specified counter and wait for it to stop. This may
 790:.\Generated_Source\PSoC4/CyLFClk.c ****     *   take up to 3 LFCLK cycles.
 791:.\Generated_Source\PSoC4/CyLFClk.c ****     *
 792:.\Generated_Source\PSoC4/CyLFClk.c ****     *******************************************************************************/
 793:.\Generated_Source\PSoC4/CyLFClk.c ****     void CySysWdtSetCascade(uint32 cascadeMask)
 794:.\Generated_Source\PSoC4/CyLFClk.c ****     {
 1291              		.loc 2 794 0
 1292              		.cfi_startproc
 1293 0000 90B5     		push	{r4, r7, lr}
 1294              		.cfi_def_cfa_offset 12
 1295              		.cfi_offset 4, -12
 1296              		.cfi_offset 7, -8
 1297              		.cfi_offset 14, -4
 1298 0002 85B0     		sub	sp, sp, #20
 1299              		.cfi_def_cfa_offset 32
 1300 0004 00AF     		add	r7, sp, #0
 1301              		.cfi_def_cfa_register 7
 1302 0006 7860     		str	r0, [r7, #4]
 795:.\Generated_Source\PSoC4/CyLFClk.c ****         uint32 configRegValue;
 796:.\Generated_Source\PSoC4/CyLFClk.c ****         uint32 countersEnableStatus;
 797:.\Generated_Source\PSoC4/CyLFClk.c **** 
 798:.\Generated_Source\PSoC4/CyLFClk.c ****         countersEnableStatus = CySysWdtGetEnabledStatus(CY_SYS_WDT_COUNTER0) |
 1303              		.loc 2 798 0
 1304 0008 0020     		mov	r0, #0
 1305 000a FFF7FEFF 		bl	CySysWdtGetEnabledStatus
 1306 000e 041C     		mov	r4, r0
 799:.\Generated_Source\PSoC4/CyLFClk.c ****                             CySysWdtGetEnabledStatus(CY_SYS_WDT_COUNTER1) |
 1307              		.loc 2 799 0
 1308 0010 0120     		mov	r0, #1
 1309 0012 FFF7FEFF 		bl	CySysWdtGetEnabledStatus
ARM GAS  C:\Users\DELL\AppData\Local\Temp\ccdBZmRk.s 			page 45


 1310 0016 031C     		mov	r3, r0
 798:.\Generated_Source\PSoC4/CyLFClk.c ****                             CySysWdtGetEnabledStatus(CY_SYS_WDT_COUNTER1) |
 1311              		.loc 2 798 0
 1312 0018 1C43     		orr	r4, r3
 800:.\Generated_Source\PSoC4/CyLFClk.c ****                             CySysWdtGetEnabledStatus(CY_SYS_WDT_COUNTER2);
 1313              		.loc 2 800 0
 1314 001a 0220     		mov	r0, #2
 1315 001c FFF7FEFF 		bl	CySysWdtGetEnabledStatus
 1316 0020 031C     		mov	r3, r0
 798:.\Generated_Source\PSoC4/CyLFClk.c ****                             CySysWdtGetEnabledStatus(CY_SYS_WDT_COUNTER1) |
 1317              		.loc 2 798 0
 1318 0022 2343     		orr	r3, r4
 1319 0024 FB60     		str	r3, [r7, #12]
 801:.\Generated_Source\PSoC4/CyLFClk.c **** 
 802:.\Generated_Source\PSoC4/CyLFClk.c ****         if (0u == countersEnableStatus)
 1320              		.loc 2 802 0
 1321 0026 FB68     		ldr	r3, [r7, #12]
 1322 0028 002B     		cmp	r3, #0
 1323 002a 0DD1     		bne	.L112
 803:.\Generated_Source\PSoC4/CyLFClk.c ****         {
 804:.\Generated_Source\PSoC4/CyLFClk.c ****             configRegValue = CY_SYS_WDT_CONFIG_REG;
 1324              		.loc 2 804 0
 1325 002c 084B     		ldr	r3, .L114
 1326 002e 1B68     		ldr	r3, [r3]
 1327 0030 BB60     		str	r3, [r7, #8]
 805:.\Generated_Source\PSoC4/CyLFClk.c ****             configRegValue &= ((uint32)(~(CY_SYS_WDT_CASCADE_01|CY_SYS_WDT_CASCADE_12)));
 1328              		.loc 2 805 0
 1329 0032 BB68     		ldr	r3, [r7, #8]
 1330 0034 074A     		ldr	r2, .L114+4
 1331 0036 1340     		and	r3, r2
 1332 0038 BB60     		str	r3, [r7, #8]
 806:.\Generated_Source\PSoC4/CyLFClk.c ****             configRegValue |= cascadeMask;
 1333              		.loc 2 806 0
 1334 003a BA68     		ldr	r2, [r7, #8]
 1335 003c 7B68     		ldr	r3, [r7, #4]
 1336 003e 1343     		orr	r3, r2
 1337 0040 BB60     		str	r3, [r7, #8]
 807:.\Generated_Source\PSoC4/CyLFClk.c ****             CY_SYS_WDT_CONFIG_REG = configRegValue;
 1338              		.loc 2 807 0
 1339 0042 034B     		ldr	r3, .L114
 1340 0044 BA68     		ldr	r2, [r7, #8]
 1341 0046 1A60     		str	r2, [r3]
 1342              	.L112:
 808:.\Generated_Source\PSoC4/CyLFClk.c ****         }
 809:.\Generated_Source\PSoC4/CyLFClk.c ****     }
 1343              		.loc 2 809 0
 1344 0048 BD46     		mov	sp, r7
 1345 004a 05B0     		add	sp, sp, #20
 1346              		@ sp needed
 1347 004c 90BD     		pop	{r4, r7, pc}
 1348              	.L115:
 1349 004e C046     		.align	2
 1350              	.L114:
 1351 0050 0C020B40 		.word	1074463244
 1352 0054 F7F7FFFF 		.word	-2057
 1353              		.cfi_endproc
 1354              	.LFE21:
ARM GAS  C:\Users\DELL\AppData\Local\Temp\ccdBZmRk.s 			page 46


 1355              		.size	CySysWdtSetCascade, .-CySysWdtSetCascade
 1356              		.section	.text.CySysWdtGetCascade,"ax",%progbits
 1357              		.align	2
 1358              		.global	CySysWdtGetCascade
 1359              		.code	16
 1360              		.thumb_func
 1361              		.type	CySysWdtGetCascade, %function
 1362              	CySysWdtGetCascade:
 1363              	.LFB22:
 810:.\Generated_Source\PSoC4/CyLFClk.c **** 
 811:.\Generated_Source\PSoC4/CyLFClk.c **** 
 812:.\Generated_Source\PSoC4/CyLFClk.c ****     /*******************************************************************************
 813:.\Generated_Source\PSoC4/CyLFClk.c ****     * Function Name: CySysWdtGetCascade
 814:.\Generated_Source\PSoC4/CyLFClk.c ****     ********************************************************************************
 815:.\Generated_Source\PSoC4/CyLFClk.c ****     *
 816:.\Generated_Source\PSoC4/CyLFClk.c ****     * Summary:
 817:.\Generated_Source\PSoC4/CyLFClk.c ****     *   Reads the two WDT cascade values returning a mask of the bits set.
 818:.\Generated_Source\PSoC4/CyLFClk.c ****     *
 819:.\Generated_Source\PSoC4/CyLFClk.c ****     * Parameters:
 820:.\Generated_Source\PSoC4/CyLFClk.c ****     *   None.
 821:.\Generated_Source\PSoC4/CyLFClk.c ****     *
 822:.\Generated_Source\PSoC4/CyLFClk.c ****     * Return:
 823:.\Generated_Source\PSoC4/CyLFClk.c ****     *   The mask of the cascade values set.
 824:.\Generated_Source\PSoC4/CyLFClk.c ****     *   Define                     Cascade
 825:.\Generated_Source\PSoC4/CyLFClk.c ****     *   CY_SYS_WDT_CASCADE_NONE    Neither
 826:.\Generated_Source\PSoC4/CyLFClk.c ****     *   CY_SYS_WDT_CASCADE_01      Cascade 01
 827:.\Generated_Source\PSoC4/CyLFClk.c ****     *   CY_SYS_WDT_CASCADE_12      Cascade 12
 828:.\Generated_Source\PSoC4/CyLFClk.c ****     *
 829:.\Generated_Source\PSoC4/CyLFClk.c ****     *******************************************************************************/
 830:.\Generated_Source\PSoC4/CyLFClk.c ****     uint32 CySysWdtGetCascade(void)
 831:.\Generated_Source\PSoC4/CyLFClk.c ****     {
 1364              		.loc 2 831 0
 1365              		.cfi_startproc
 1366 0000 80B5     		push	{r7, lr}
 1367              		.cfi_def_cfa_offset 8
 1368              		.cfi_offset 7, -8
 1369              		.cfi_offset 14, -4
 1370 0002 00AF     		add	r7, sp, #0
 1371              		.cfi_def_cfa_register 7
 832:.\Generated_Source\PSoC4/CyLFClk.c ****         return (CY_SYS_WDT_CONFIG_REG & (CY_SYS_WDT_CASCADE_01 | CY_SYS_WDT_CASCADE_12));
 1372              		.loc 2 832 0
 1373 0004 034B     		ldr	r3, .L118
 1374 0006 1B68     		ldr	r3, [r3]
 1375 0008 034A     		ldr	r2, .L118+4
 1376 000a 1340     		and	r3, r2
 833:.\Generated_Source\PSoC4/CyLFClk.c ****     }
 1377              		.loc 2 833 0
 1378 000c 181C     		mov	r0, r3
 1379 000e BD46     		mov	sp, r7
 1380              		@ sp needed
 1381 0010 80BD     		pop	{r7, pc}
 1382              	.L119:
 1383 0012 C046     		.align	2
 1384              	.L118:
 1385 0014 0C020B40 		.word	1074463244
 1386 0018 08080000 		.word	2056
 1387              		.cfi_endproc
ARM GAS  C:\Users\DELL\AppData\Local\Temp\ccdBZmRk.s 			page 47


 1388              	.LFE22:
 1389              		.size	CySysWdtGetCascade, .-CySysWdtGetCascade
 1390              		.section	.text.CySysWdtSetMatch,"ax",%progbits
 1391              		.align	2
 1392              		.global	CySysWdtSetMatch
 1393              		.code	16
 1394              		.thumb_func
 1395              		.type	CySysWdtSetMatch, %function
 1396              	CySysWdtSetMatch:
 1397              	.LFB23:
 834:.\Generated_Source\PSoC4/CyLFClk.c **** 
 835:.\Generated_Source\PSoC4/CyLFClk.c **** 
 836:.\Generated_Source\PSoC4/CyLFClk.c ****     /*******************************************************************************
 837:.\Generated_Source\PSoC4/CyLFClk.c ****     * Function Name: CySysWdtSetMatch
 838:.\Generated_Source\PSoC4/CyLFClk.c ****     ********************************************************************************
 839:.\Generated_Source\PSoC4/CyLFClk.c ****     *
 840:.\Generated_Source\PSoC4/CyLFClk.c ****     * Summary:
 841:.\Generated_Source\PSoC4/CyLFClk.c ****     *  Configures the WDT counter match comparison value.
 842:.\Generated_Source\PSoC4/CyLFClk.c ****     *
 843:.\Generated_Source\PSoC4/CyLFClk.c ****     * Parameters:
 844:.\Generated_Source\PSoC4/CyLFClk.c ****     *  counterNum:
 845:.\Generated_Source\PSoC4/CyLFClk.c ****     *   Valid range [0-1]. The number of the WDT counter. The match values are not
 846:.\Generated_Source\PSoC4/CyLFClk.c ****     *   supported by counter 2.
 847:.\Generated_Source\PSoC4/CyLFClk.c ****     *
 848:.\Generated_Source\PSoC4/CyLFClk.c ****     *  match:
 849:.\Generated_Source\PSoC4/CyLFClk.c ****     *   Valid range [0-65535]. The value to be used to match against the counter.
 850:.\Generated_Source\PSoC4/CyLFClk.c ****     *
 851:.\Generated_Source\PSoC4/CyLFClk.c ****     * Return:
 852:.\Generated_Source\PSoC4/CyLFClk.c ****     *   None.
 853:.\Generated_Source\PSoC4/CyLFClk.c ****     *
 854:.\Generated_Source\PSoC4/CyLFClk.c ****     *******************************************************************************/
 855:.\Generated_Source\PSoC4/CyLFClk.c ****     void CySysWdtSetMatch(uint32 counterNum, uint32 match)
 856:.\Generated_Source\PSoC4/CyLFClk.c ****     {
 1398              		.loc 2 856 0
 1399              		.cfi_startproc
 1400 0000 80B5     		push	{r7, lr}
 1401              		.cfi_def_cfa_offset 8
 1402              		.cfi_offset 7, -8
 1403              		.cfi_offset 14, -4
 1404 0002 84B0     		sub	sp, sp, #16
 1405              		.cfi_def_cfa_offset 24
 1406 0004 00AF     		add	r7, sp, #0
 1407              		.cfi_def_cfa_register 7
 1408 0006 7860     		str	r0, [r7, #4]
 1409 0008 3960     		str	r1, [r7]
 857:.\Generated_Source\PSoC4/CyLFClk.c ****         uint32 regValue;
 858:.\Generated_Source\PSoC4/CyLFClk.c **** 
 859:.\Generated_Source\PSoC4/CyLFClk.c ****         CYASSERT((counterNum == CY_SYS_WDT_COUNTER0) ||
 1410              		.loc 2 859 0
 1411 000a 7B68     		ldr	r3, [r7, #4]
 1412 000c 002B     		cmp	r3, #0
 1413 000e 02D0     		beq	.L121
 1414              		.loc 2 859 0 is_stmt 0 discriminator 2
 1415 0010 7B68     		ldr	r3, [r7, #4]
 1416 0012 012B     		cmp	r3, #1
 1417 0014 01D1     		bne	.L122
 1418              	.L121:
ARM GAS  C:\Users\DELL\AppData\Local\Temp\ccdBZmRk.s 			page 48


 1419              		.loc 2 859 0 discriminator 3
 1420 0016 0123     		mov	r3, #1
 1421 0018 00E0     		b	.L123
 1422              	.L122:
 1423              		.loc 2 859 0 discriminator 4
 1424 001a 0023     		mov	r3, #0
 1425              	.L123:
 1426              		.loc 2 859 0 discriminator 6
 1427 001c 002B     		cmp	r3, #0
 1428 001e 02D1     		bne	.L124
 1429              		.loc 2 859 0 discriminator 7
 1430 0020 0020     		mov	r0, #0
 1431 0022 FFF7FEFF 		bl	CyHalt
 1432              	.L124:
 860:.\Generated_Source\PSoC4/CyLFClk.c ****                  (counterNum == CY_SYS_WDT_COUNTER1));
 861:.\Generated_Source\PSoC4/CyLFClk.c **** 
 862:.\Generated_Source\PSoC4/CyLFClk.c ****         /* Wait for previous changes to come into effect */
 863:.\Generated_Source\PSoC4/CyLFClk.c ****         CyDelayUs(CY_SYS_WDT_3LFCLK_DELAY_US);
 1433              		.loc 2 863 0 is_stmt 1
 1434 0026 174B     		ldr	r3, .L129
 1435 0028 1B68     		ldr	r3, [r3]
 1436 002a 9B0F     		lsr	r3, r3, #30
 1437 002c 9B07     		lsl	r3, r3, #30
 1438 002e 01D1     		bne	.L125
 1439              		.loc 2 863 0 is_stmt 0 discriminator 1
 1440 0030 C923     		mov	r3, #201
 1441 0032 00E0     		b	.L126
 1442              	.L125:
 1443              		.loc 2 863 0 discriminator 2
 1444 0034 5D23     		mov	r3, #93
 1445              	.L126:
 1446              		.loc 2 863 0 discriminator 4
 1447 0036 181C     		mov	r0, r3
 1448 0038 FFF7FEFF 		bl	CyDelayUs
 864:.\Generated_Source\PSoC4/CyLFClk.c **** 
 865:.\Generated_Source\PSoC4/CyLFClk.c ****         regValue = CY_SYS_WDT_MATCH_REG;
 1449              		.loc 2 865 0 is_stmt 1 discriminator 4
 1450 003c 124B     		ldr	r3, .L129+4
 1451 003e 1B68     		ldr	r3, [r3]
 1452 0040 FB60     		str	r3, [r7, #12]
 866:.\Generated_Source\PSoC4/CyLFClk.c ****         regValue &= (uint32)~((uint32)(CY_SYS_WDT_LOWER_16BITS_MASK << (counterNum * CY_SYS_WDT_CNT
 1453              		.loc 2 866 0 discriminator 4
 1454 0042 7B68     		ldr	r3, [r7, #4]
 1455 0044 1B01     		lsl	r3, r3, #4
 1456 0046 1A1C     		mov	r2, r3
 1457 0048 104B     		ldr	r3, .L129+8
 1458 004a 9340     		lsl	r3, r3, r2
 1459 004c DA43     		mvn	r2, r3
 1460 004e FB68     		ldr	r3, [r7, #12]
 1461 0050 1340     		and	r3, r2
 1462 0052 FB60     		str	r3, [r7, #12]
 867:.\Generated_Source\PSoC4/CyLFClk.c ****         CY_SYS_WDT_MATCH_REG = (regValue | (match << (counterNum * CY_SYS_WDT_CNT_MATCH_SHIFT)));
 1463              		.loc 2 867 0 discriminator 4
 1464 0054 0C4B     		ldr	r3, .L129+4
 1465 0056 7A68     		ldr	r2, [r7, #4]
 1466 0058 1201     		lsl	r2, r2, #4
 1467 005a 111C     		mov	r1, r2
ARM GAS  C:\Users\DELL\AppData\Local\Temp\ccdBZmRk.s 			page 49


 1468 005c 3A68     		ldr	r2, [r7]
 1469 005e 8A40     		lsl	r2, r2, r1
 1470 0060 111C     		mov	r1, r2
 1471 0062 FA68     		ldr	r2, [r7, #12]
 1472 0064 0A43     		orr	r2, r1
 1473 0066 1A60     		str	r2, [r3]
 868:.\Generated_Source\PSoC4/CyLFClk.c **** 
 869:.\Generated_Source\PSoC4/CyLFClk.c ****         /* Make sure match synchronization has started */
 870:.\Generated_Source\PSoC4/CyLFClk.c ****         CyDelayUs(CY_SYS_WDT_1LFCLK_DELAY_US);
 1474              		.loc 2 870 0 discriminator 4
 1475 0068 064B     		ldr	r3, .L129
 1476 006a 1B68     		ldr	r3, [r3]
 1477 006c 9B0F     		lsr	r3, r3, #30
 1478 006e 9B07     		lsl	r3, r3, #30
 1479 0070 01D1     		bne	.L127
 1480              		.loc 2 870 0 is_stmt 0 discriminator 1
 1481 0072 4323     		mov	r3, #67
 1482 0074 00E0     		b	.L128
 1483              	.L127:
 1484              		.loc 2 870 0 discriminator 2
 1485 0076 1F23     		mov	r3, #31
 1486              	.L128:
 1487              		.loc 2 870 0 discriminator 4
 1488 0078 181C     		mov	r0, r3
 1489 007a FFF7FEFF 		bl	CyDelayUs
 871:.\Generated_Source\PSoC4/CyLFClk.c ****     }
 1490              		.loc 2 871 0 is_stmt 1 discriminator 4
 1491 007e BD46     		mov	sp, r7
 1492 0080 04B0     		add	sp, sp, #16
 1493              		@ sp needed
 1494 0082 80BD     		pop	{r7, pc}
 1495              	.L130:
 1496              		.align	2
 1497              	.L129:
 1498 0084 0C020B40 		.word	1074463244
 1499 0088 08020B40 		.word	1074463240
 1500 008c FFFF0000 		.word	65535
 1501              		.cfi_endproc
 1502              	.LFE23:
 1503              		.size	CySysWdtSetMatch, .-CySysWdtSetMatch
 1504              		.section	.text.CySysWdtSetToggleBit,"ax",%progbits
 1505              		.align	2
 1506              		.global	CySysWdtSetToggleBit
 1507              		.code	16
 1508              		.thumb_func
 1509              		.type	CySysWdtSetToggleBit, %function
 1510              	CySysWdtSetToggleBit:
 1511              	.LFB24:
 872:.\Generated_Source\PSoC4/CyLFClk.c **** 
 873:.\Generated_Source\PSoC4/CyLFClk.c **** 
 874:.\Generated_Source\PSoC4/CyLFClk.c ****     /*******************************************************************************
 875:.\Generated_Source\PSoC4/CyLFClk.c ****     * Function Name: CySysWdtSetToggleBit
 876:.\Generated_Source\PSoC4/CyLFClk.c ****     ********************************************************************************
 877:.\Generated_Source\PSoC4/CyLFClk.c ****     *
 878:.\Generated_Source\PSoC4/CyLFClk.c ****     * Summary:
 879:.\Generated_Source\PSoC4/CyLFClk.c ****     *  Configures which bit in WDT counter 2 to monitor for a toggle. When that
 880:.\Generated_Source\PSoC4/CyLFClk.c ****     *  bit toggles, an interrupt is generated if the mode for counter 2 has
ARM GAS  C:\Users\DELL\AppData\Local\Temp\ccdBZmRk.s 			page 50


 881:.\Generated_Source\PSoC4/CyLFClk.c ****     *  enabled interrupts.
 882:.\Generated_Source\PSoC4/CyLFClk.c ****     *
 883:.\Generated_Source\PSoC4/CyLFClk.c ****     * Parameters:
 884:.\Generated_Source\PSoC4/CyLFClk.c ****     *  bit:
 885:.\Generated_Source\PSoC4/CyLFClk.c ****     *   Valid range [0-31].  Counter 2 bit to monitor for a toggle.
 886:.\Generated_Source\PSoC4/CyLFClk.c ****     *
 887:.\Generated_Source\PSoC4/CyLFClk.c ****     * Return:
 888:.\Generated_Source\PSoC4/CyLFClk.c ****     *   None.
 889:.\Generated_Source\PSoC4/CyLFClk.c ****     *
 890:.\Generated_Source\PSoC4/CyLFClk.c ****     * Side effects:
 891:.\Generated_Source\PSoC4/CyLFClk.c ****     *   WDT Counter 2 should be disabled. Otherwise this function call has no
 892:.\Generated_Source\PSoC4/CyLFClk.c ****     *   effect.
 893:.\Generated_Source\PSoC4/CyLFClk.c ****     *
 894:.\Generated_Source\PSoC4/CyLFClk.c ****     *   If the specified counter is enabled, call the CySysWdtDisable() function with
 895:.\Generated_Source\PSoC4/CyLFClk.c ****     *   the corresponding parameter to disable the specified counter and wait for it to
 896:.\Generated_Source\PSoC4/CyLFClk.c ****     *   stop. This may take up to 3 LFCLK cycles.
 897:.\Generated_Source\PSoC4/CyLFClk.c ****     *
 898:.\Generated_Source\PSoC4/CyLFClk.c ****     *******************************************************************************/
 899:.\Generated_Source\PSoC4/CyLFClk.c ****     void CySysWdtSetToggleBit(uint32 bits)
 900:.\Generated_Source\PSoC4/CyLFClk.c ****     {
 1512              		.loc 2 900 0
 1513              		.cfi_startproc
 1514 0000 80B5     		push	{r7, lr}
 1515              		.cfi_def_cfa_offset 8
 1516              		.cfi_offset 7, -8
 1517              		.cfi_offset 14, -4
 1518 0002 84B0     		sub	sp, sp, #16
 1519              		.cfi_def_cfa_offset 24
 1520 0004 00AF     		add	r7, sp, #0
 1521              		.cfi_def_cfa_register 7
 1522 0006 7860     		str	r0, [r7, #4]
 901:.\Generated_Source\PSoC4/CyLFClk.c ****         uint32 configRegValue;
 902:.\Generated_Source\PSoC4/CyLFClk.c **** 
 903:.\Generated_Source\PSoC4/CyLFClk.c ****         if (0u == CySysWdtGetEnabledStatus(CY_SYS_WDT_COUNTER2))
 1523              		.loc 2 903 0
 1524 0008 0220     		mov	r0, #2
 1525 000a FFF7FEFF 		bl	CySysWdtGetEnabledStatus
 1526 000e 031E     		sub	r3, r0, #0
 1527 0010 10D1     		bne	.L131
 904:.\Generated_Source\PSoC4/CyLFClk.c ****         {
 905:.\Generated_Source\PSoC4/CyLFClk.c ****             configRegValue = CY_SYS_WDT_CONFIG_REG;
 1528              		.loc 2 905 0
 1529 0012 0A4B     		ldr	r3, .L133
 1530 0014 1B68     		ldr	r3, [r3]
 1531 0016 FB60     		str	r3, [r7, #12]
 906:.\Generated_Source\PSoC4/CyLFClk.c ****             configRegValue &= (uint32)(~((uint32)(CY_SYS_WDT_CONFIG_BITS2_MASK << CY_SYS_WDT_CONFIG
 1532              		.loc 2 906 0
 1533 0018 FB68     		ldr	r3, [r7, #12]
 1534 001a 094A     		ldr	r2, .L133+4
 1535 001c 1340     		and	r3, r2
 1536 001e FB60     		str	r3, [r7, #12]
 907:.\Generated_Source\PSoC4/CyLFClk.c ****             configRegValue |= ((bits & CY_SYS_WDT_CONFIG_BITS2_MASK) << CY_SYS_WDT_CONFIG_BITS2_POS
 1537              		.loc 2 907 0
 1538 0020 7B68     		ldr	r3, [r7, #4]
 1539 0022 1F22     		mov	r2, #31
 1540 0024 1340     		and	r3, r2
 1541 0026 1B06     		lsl	r3, r3, #24
ARM GAS  C:\Users\DELL\AppData\Local\Temp\ccdBZmRk.s 			page 51


 1542 0028 FA68     		ldr	r2, [r7, #12]
 1543 002a 1343     		orr	r3, r2
 1544 002c FB60     		str	r3, [r7, #12]
 908:.\Generated_Source\PSoC4/CyLFClk.c ****             CY_SYS_WDT_CONFIG_REG = configRegValue;
 1545              		.loc 2 908 0
 1546 002e 034B     		ldr	r3, .L133
 1547 0030 FA68     		ldr	r2, [r7, #12]
 1548 0032 1A60     		str	r2, [r3]
 1549              	.L131:
 909:.\Generated_Source\PSoC4/CyLFClk.c ****         }
 910:.\Generated_Source\PSoC4/CyLFClk.c ****     }
 1550              		.loc 2 910 0
 1551 0034 BD46     		mov	sp, r7
 1552 0036 04B0     		add	sp, sp, #16
 1553              		@ sp needed
 1554 0038 80BD     		pop	{r7, pc}
 1555              	.L134:
 1556 003a C046     		.align	2
 1557              	.L133:
 1558 003c 0C020B40 		.word	1074463244
 1559 0040 FFFFFFE0 		.word	-520093697
 1560              		.cfi_endproc
 1561              	.LFE24:
 1562              		.size	CySysWdtSetToggleBit, .-CySysWdtSetToggleBit
 1563              		.section	.text.CySysWdtGetToggleBit,"ax",%progbits
 1564              		.align	2
 1565              		.global	CySysWdtGetToggleBit
 1566              		.code	16
 1567              		.thumb_func
 1568              		.type	CySysWdtGetToggleBit, %function
 1569              	CySysWdtGetToggleBit:
 1570              	.LFB25:
 911:.\Generated_Source\PSoC4/CyLFClk.c **** 
 912:.\Generated_Source\PSoC4/CyLFClk.c **** 
 913:.\Generated_Source\PSoC4/CyLFClk.c ****     /*******************************************************************************
 914:.\Generated_Source\PSoC4/CyLFClk.c ****     * Function Name: CySysWdtGetToggleBit
 915:.\Generated_Source\PSoC4/CyLFClk.c ****     ********************************************************************************
 916:.\Generated_Source\PSoC4/CyLFClk.c ****     *
 917:.\Generated_Source\PSoC4/CyLFClk.c ****     * Summary:
 918:.\Generated_Source\PSoC4/CyLFClk.c ****     *  Reads which bit in WDT counter 2 is monitored for a toggle.
 919:.\Generated_Source\PSoC4/CyLFClk.c ****     *
 920:.\Generated_Source\PSoC4/CyLFClk.c ****     * Parameters:
 921:.\Generated_Source\PSoC4/CyLFClk.c ****     *  None.
 922:.\Generated_Source\PSoC4/CyLFClk.c ****     *
 923:.\Generated_Source\PSoC4/CyLFClk.c ****     * Return:
 924:.\Generated_Source\PSoC4/CyLFClk.c ****     *  The bit that is monitored (range of 0 to 31)
 925:.\Generated_Source\PSoC4/CyLFClk.c ****     *
 926:.\Generated_Source\PSoC4/CyLFClk.c ****     *******************************************************************************/
 927:.\Generated_Source\PSoC4/CyLFClk.c ****     uint32 CySysWdtGetToggleBit(void)
 928:.\Generated_Source\PSoC4/CyLFClk.c ****     {
 1571              		.loc 2 928 0
 1572              		.cfi_startproc
 1573 0000 80B5     		push	{r7, lr}
 1574              		.cfi_def_cfa_offset 8
 1575              		.cfi_offset 7, -8
 1576              		.cfi_offset 14, -4
 1577 0002 00AF     		add	r7, sp, #0
ARM GAS  C:\Users\DELL\AppData\Local\Temp\ccdBZmRk.s 			page 52


 1578              		.cfi_def_cfa_register 7
 929:.\Generated_Source\PSoC4/CyLFClk.c ****         return ((CY_SYS_WDT_CONFIG_REG >> CY_SYS_WDT_CONFIG_BITS2_POS) & CY_SYS_WDT_CONFIG_BITS2_MA
 1579              		.loc 2 929 0
 1580 0004 034B     		ldr	r3, .L137
 1581 0006 1B68     		ldr	r3, [r3]
 1582 0008 1B0E     		lsr	r3, r3, #24
 1583 000a 1F22     		mov	r2, #31
 1584 000c 1340     		and	r3, r2
 930:.\Generated_Source\PSoC4/CyLFClk.c ****     }
 1585              		.loc 2 930 0
 1586 000e 181C     		mov	r0, r3
 1587 0010 BD46     		mov	sp, r7
 1588              		@ sp needed
 1589 0012 80BD     		pop	{r7, pc}
 1590              	.L138:
 1591              		.align	2
 1592              	.L137:
 1593 0014 0C020B40 		.word	1074463244
 1594              		.cfi_endproc
 1595              	.LFE25:
 1596              		.size	CySysWdtGetToggleBit, .-CySysWdtGetToggleBit
 1597              		.section	.text.CySysWdtGetMatch,"ax",%progbits
 1598              		.align	2
 1599              		.global	CySysWdtGetMatch
 1600              		.code	16
 1601              		.thumb_func
 1602              		.type	CySysWdtGetMatch, %function
 1603              	CySysWdtGetMatch:
 1604              	.LFB26:
 931:.\Generated_Source\PSoC4/CyLFClk.c **** 
 932:.\Generated_Source\PSoC4/CyLFClk.c **** 
 933:.\Generated_Source\PSoC4/CyLFClk.c ****     /*******************************************************************************
 934:.\Generated_Source\PSoC4/CyLFClk.c ****     * Function Name: CySysWdtGetMatch
 935:.\Generated_Source\PSoC4/CyLFClk.c ****     ********************************************************************************
 936:.\Generated_Source\PSoC4/CyLFClk.c ****     *
 937:.\Generated_Source\PSoC4/CyLFClk.c ****     * Summary:
 938:.\Generated_Source\PSoC4/CyLFClk.c ****     *  Reads the WDT counter match comparison value.
 939:.\Generated_Source\PSoC4/CyLFClk.c ****     *
 940:.\Generated_Source\PSoC4/CyLFClk.c ****     * Parameters:
 941:.\Generated_Source\PSoC4/CyLFClk.c ****     *  counterNum: Valid range [0-1].  The number of the WDT counter.  The match values
 942:.\Generated_Source\PSoC4/CyLFClk.c ****     *               are not supported by counter 2.
 943:.\Generated_Source\PSoC4/CyLFClk.c ****     *
 944:.\Generated_Source\PSoC4/CyLFClk.c ****     * Return:
 945:.\Generated_Source\PSoC4/CyLFClk.c ****     *  A 16-bit match value.
 946:.\Generated_Source\PSoC4/CyLFClk.c ****     *
 947:.\Generated_Source\PSoC4/CyLFClk.c ****     *******************************************************************************/
 948:.\Generated_Source\PSoC4/CyLFClk.c ****     uint32 CySysWdtGetMatch(uint32 counterNum)
 949:.\Generated_Source\PSoC4/CyLFClk.c ****     {
 1605              		.loc 2 949 0
 1606              		.cfi_startproc
 1607 0000 80B5     		push	{r7, lr}
 1608              		.cfi_def_cfa_offset 8
 1609              		.cfi_offset 7, -8
 1610              		.cfi_offset 14, -4
 1611 0002 82B0     		sub	sp, sp, #8
 1612              		.cfi_def_cfa_offset 16
 1613 0004 00AF     		add	r7, sp, #0
ARM GAS  C:\Users\DELL\AppData\Local\Temp\ccdBZmRk.s 			page 53


 1614              		.cfi_def_cfa_register 7
 1615 0006 7860     		str	r0, [r7, #4]
 950:.\Generated_Source\PSoC4/CyLFClk.c ****         CYASSERT((counterNum == CY_SYS_WDT_COUNTER0) ||
 1616              		.loc 2 950 0
 1617 0008 7B68     		ldr	r3, [r7, #4]
 1618 000a 002B     		cmp	r3, #0
 1619 000c 02D0     		beq	.L140
 1620              		.loc 2 950 0 is_stmt 0 discriminator 2
 1621 000e 7B68     		ldr	r3, [r7, #4]
 1622 0010 012B     		cmp	r3, #1
 1623 0012 01D1     		bne	.L141
 1624              	.L140:
 1625              		.loc 2 950 0 discriminator 3
 1626 0014 0123     		mov	r3, #1
 1627 0016 00E0     		b	.L142
 1628              	.L141:
 1629              		.loc 2 950 0 discriminator 4
 1630 0018 0023     		mov	r3, #0
 1631              	.L142:
 1632              		.loc 2 950 0 discriminator 6
 1633 001a 002B     		cmp	r3, #0
 1634 001c 02D1     		bne	.L143
 1635              		.loc 2 950 0 discriminator 7
 1636 001e 0020     		mov	r0, #0
 1637 0020 FFF7FEFF 		bl	CyHalt
 1638              	.L143:
 951:.\Generated_Source\PSoC4/CyLFClk.c ****                  (counterNum == CY_SYS_WDT_COUNTER1));
 952:.\Generated_Source\PSoC4/CyLFClk.c **** 
 953:.\Generated_Source\PSoC4/CyLFClk.c ****         return ((uint32)(CY_SYS_WDT_MATCH_REG >> (counterNum * CY_SYS_WDT_CNT_MATCH_SHIFT)) & CY_SY
 1639              		.loc 2 953 0 is_stmt 1
 1640 0024 054B     		ldr	r3, .L145
 1641 0026 1B68     		ldr	r3, [r3]
 1642 0028 7A68     		ldr	r2, [r7, #4]
 1643 002a 1201     		lsl	r2, r2, #4
 1644 002c D340     		lsr	r3, r3, r2
 1645 002e 1B04     		lsl	r3, r3, #16
 1646 0030 1B0C     		lsr	r3, r3, #16
 954:.\Generated_Source\PSoC4/CyLFClk.c ****     }
 1647              		.loc 2 954 0
 1648 0032 181C     		mov	r0, r3
 1649 0034 BD46     		mov	sp, r7
 1650 0036 02B0     		add	sp, sp, #8
 1651              		@ sp needed
 1652 0038 80BD     		pop	{r7, pc}
 1653              	.L146:
 1654 003a C046     		.align	2
 1655              	.L145:
 1656 003c 08020B40 		.word	1074463240
 1657              		.cfi_endproc
 1658              	.LFE26:
 1659              		.size	CySysWdtGetMatch, .-CySysWdtGetMatch
 1660              		.section	.text.CySysWdtGetCount,"ax",%progbits
 1661              		.align	2
 1662              		.global	CySysWdtGetCount
 1663              		.code	16
 1664              		.thumb_func
 1665              		.type	CySysWdtGetCount, %function
ARM GAS  C:\Users\DELL\AppData\Local\Temp\ccdBZmRk.s 			page 54


 1666              	CySysWdtGetCount:
 1667              	.LFB27:
 955:.\Generated_Source\PSoC4/CyLFClk.c **** 
 956:.\Generated_Source\PSoC4/CyLFClk.c **** 
 957:.\Generated_Source\PSoC4/CyLFClk.c ****     /*******************************************************************************
 958:.\Generated_Source\PSoC4/CyLFClk.c ****     * Function Name: CySysWdtGetCount
 959:.\Generated_Source\PSoC4/CyLFClk.c ****     ********************************************************************************
 960:.\Generated_Source\PSoC4/CyLFClk.c ****     *
 961:.\Generated_Source\PSoC4/CyLFClk.c ****     * Summary:
 962:.\Generated_Source\PSoC4/CyLFClk.c ****     *  Reads the current WDT counter value.
 963:.\Generated_Source\PSoC4/CyLFClk.c ****     *
 964:.\Generated_Source\PSoC4/CyLFClk.c ****     * Parameters:
 965:.\Generated_Source\PSoC4/CyLFClk.c ****     *  counterNum: Valid range [0-2].  The number of the WDT counter.
 966:.\Generated_Source\PSoC4/CyLFClk.c ****     *
 967:.\Generated_Source\PSoC4/CyLFClk.c ****     * Return:
 968:.\Generated_Source\PSoC4/CyLFClk.c ****     *  A live counter value.  Counter 0 and 1 are 16 bit counters and counter
 969:.\Generated_Source\PSoC4/CyLFClk.c ****     *  2 is a 32 bit counter.
 970:.\Generated_Source\PSoC4/CyLFClk.c ****     *
 971:.\Generated_Source\PSoC4/CyLFClk.c ****     *******************************************************************************/
 972:.\Generated_Source\PSoC4/CyLFClk.c ****     uint32 CySysWdtGetCount(uint32 counterNum)
 973:.\Generated_Source\PSoC4/CyLFClk.c ****     {
 1668              		.loc 2 973 0
 1669              		.cfi_startproc
 1670 0000 80B5     		push	{r7, lr}
 1671              		.cfi_def_cfa_offset 8
 1672              		.cfi_offset 7, -8
 1673              		.cfi_offset 14, -4
 1674 0002 84B0     		sub	sp, sp, #16
 1675              		.cfi_def_cfa_offset 24
 1676 0004 00AF     		add	r7, sp, #0
 1677              		.cfi_def_cfa_register 7
 1678 0006 7860     		str	r0, [r7, #4]
 974:.\Generated_Source\PSoC4/CyLFClk.c ****         uint32 regValue = 0u;
 1679              		.loc 2 974 0
 1680 0008 0023     		mov	r3, #0
 1681 000a FB60     		str	r3, [r7, #12]
 975:.\Generated_Source\PSoC4/CyLFClk.c **** 
 976:.\Generated_Source\PSoC4/CyLFClk.c ****         switch(counterNum)
 1682              		.loc 2 976 0
 1683 000c 7B68     		ldr	r3, [r7, #4]
 1684 000e 012B     		cmp	r3, #1
 1685 0010 09D0     		beq	.L149
 1686 0012 02D3     		bcc	.L150
 1687 0014 022B     		cmp	r3, #2
 1688 0016 0BD0     		beq	.L151
 1689 0018 0EE0     		b	.L154
 1690              	.L150:
 977:.\Generated_Source\PSoC4/CyLFClk.c ****         {
 978:.\Generated_Source\PSoC4/CyLFClk.c ****             /* WDT Counter 0 */
 979:.\Generated_Source\PSoC4/CyLFClk.c ****             case 0u:
 980:.\Generated_Source\PSoC4/CyLFClk.c ****                 regValue = CY_SYS_WDT_CTRLOW_REG & CY_SYS_WDT_LOWER_16BITS_MASK;
 1691              		.loc 2 980 0
 1692 001a 0C4B     		ldr	r3, .L155
 1693 001c 1B68     		ldr	r3, [r3]
 1694 001e 1B04     		lsl	r3, r3, #16
 1695 0020 1B0C     		lsr	r3, r3, #16
 1696 0022 FB60     		str	r3, [r7, #12]
ARM GAS  C:\Users\DELL\AppData\Local\Temp\ccdBZmRk.s 			page 55


 981:.\Generated_Source\PSoC4/CyLFClk.c ****             break;
 1697              		.loc 2 981 0
 1698 0024 0CE0     		b	.L152
 1699              	.L149:
 982:.\Generated_Source\PSoC4/CyLFClk.c **** 
 983:.\Generated_Source\PSoC4/CyLFClk.c ****             /* WDT Counter 1 */
 984:.\Generated_Source\PSoC4/CyLFClk.c ****             case 1u:
 985:.\Generated_Source\PSoC4/CyLFClk.c ****                 regValue = (CY_SYS_WDT_CTRLOW_REG >> CY_SYS_WDT_CNT_MATCH_SHIFT) & CY_SYS_WDT_LOWER
 1700              		.loc 2 985 0
 1701 0026 094B     		ldr	r3, .L155
 1702 0028 1B68     		ldr	r3, [r3]
 1703 002a 1B0C     		lsr	r3, r3, #16
 1704 002c FB60     		str	r3, [r7, #12]
 986:.\Generated_Source\PSoC4/CyLFClk.c ****             break;
 1705              		.loc 2 986 0
 1706 002e 07E0     		b	.L152
 1707              	.L151:
 987:.\Generated_Source\PSoC4/CyLFClk.c **** 
 988:.\Generated_Source\PSoC4/CyLFClk.c ****             /* WDT Counter 2 */
 989:.\Generated_Source\PSoC4/CyLFClk.c ****             case 2u:
 990:.\Generated_Source\PSoC4/CyLFClk.c ****                 regValue = CY_SYS_WDT_CTRHIGH_REG;
 1708              		.loc 2 990 0
 1709 0030 074B     		ldr	r3, .L155+4
 1710 0032 1B68     		ldr	r3, [r3]
 1711 0034 FB60     		str	r3, [r7, #12]
 991:.\Generated_Source\PSoC4/CyLFClk.c ****             break;
 1712              		.loc 2 991 0
 1713 0036 03E0     		b	.L152
 1714              	.L154:
 992:.\Generated_Source\PSoC4/CyLFClk.c **** 
 993:.\Generated_Source\PSoC4/CyLFClk.c ****             default:
 994:.\Generated_Source\PSoC4/CyLFClk.c ****                 CYASSERT(0u != 0u);
 1715              		.loc 2 994 0
 1716 0038 0020     		mov	r0, #0
 1717 003a FFF7FEFF 		bl	CyHalt
 995:.\Generated_Source\PSoC4/CyLFClk.c ****             break;
 1718              		.loc 2 995 0
 1719 003e C046     		mov	r8, r8
 1720              	.L152:
 996:.\Generated_Source\PSoC4/CyLFClk.c ****         }
 997:.\Generated_Source\PSoC4/CyLFClk.c **** 
 998:.\Generated_Source\PSoC4/CyLFClk.c ****         return (regValue);
 1721              		.loc 2 998 0
 1722 0040 FB68     		ldr	r3, [r7, #12]
 999:.\Generated_Source\PSoC4/CyLFClk.c ****     }
 1723              		.loc 2 999 0
 1724 0042 181C     		mov	r0, r3
 1725 0044 BD46     		mov	sp, r7
 1726 0046 04B0     		add	sp, sp, #16
 1727              		@ sp needed
 1728 0048 80BD     		pop	{r7, pc}
 1729              	.L156:
 1730 004a C046     		.align	2
 1731              	.L155:
 1732 004c 00020B40 		.word	1074463232
 1733 0050 04020B40 		.word	1074463236
 1734              		.cfi_endproc
ARM GAS  C:\Users\DELL\AppData\Local\Temp\ccdBZmRk.s 			page 56


 1735              	.LFE27:
 1736              		.size	CySysWdtGetCount, .-CySysWdtGetCount
 1737              		.section	.text.CySysWdtGetInterruptSource,"ax",%progbits
 1738              		.align	2
 1739              		.global	CySysWdtGetInterruptSource
 1740              		.code	16
 1741              		.thumb_func
 1742              		.type	CySysWdtGetInterruptSource, %function
 1743              	CySysWdtGetInterruptSource:
 1744              	.LFB28:
1000:.\Generated_Source\PSoC4/CyLFClk.c **** 
1001:.\Generated_Source\PSoC4/CyLFClk.c **** 
1002:.\Generated_Source\PSoC4/CyLFClk.c ****     /*******************************************************************************
1003:.\Generated_Source\PSoC4/CyLFClk.c ****     * Function Name: CySysWdtGetInterruptSource
1004:.\Generated_Source\PSoC4/CyLFClk.c ****     ********************************************************************************
1005:.\Generated_Source\PSoC4/CyLFClk.c ****     *
1006:.\Generated_Source\PSoC4/CyLFClk.c ****     * Summary:
1007:.\Generated_Source\PSoC4/CyLFClk.c ****     *   Reads a mask containing all the WDT counters interrupts that are currently
1008:.\Generated_Source\PSoC4/CyLFClk.c ****     *   set by the hardware, if a corresponding mode is selected.
1009:.\Generated_Source\PSoC4/CyLFClk.c ****     *
1010:.\Generated_Source\PSoC4/CyLFClk.c ****     * Parameters:
1011:.\Generated_Source\PSoC4/CyLFClk.c ****     *   None.
1012:.\Generated_Source\PSoC4/CyLFClk.c ****     *
1013:.\Generated_Source\PSoC4/CyLFClk.c ****     * Return:
1014:.\Generated_Source\PSoC4/CyLFClk.c ****     *   The mask of interrupts set.
1015:.\Generated_Source\PSoC4/CyLFClk.c ****     *   Define                    Counter
1016:.\Generated_Source\PSoC4/CyLFClk.c ****     *   CY_SYS_WDT_COUNTER0_INT    0
1017:.\Generated_Source\PSoC4/CyLFClk.c ****     *   CY_SYS_WDT_COUNTER1_INT    1
1018:.\Generated_Source\PSoC4/CyLFClk.c ****     *   CY_SYS_WDT_COUNTER2_INT    2
1019:.\Generated_Source\PSoC4/CyLFClk.c ****     *
1020:.\Generated_Source\PSoC4/CyLFClk.c ****     *******************************************************************************/
1021:.\Generated_Source\PSoC4/CyLFClk.c ****     uint32 CySysWdtGetInterruptSource(void)
1022:.\Generated_Source\PSoC4/CyLFClk.c ****     {
 1745              		.loc 2 1022 0
 1746              		.cfi_startproc
 1747 0000 80B5     		push	{r7, lr}
 1748              		.cfi_def_cfa_offset 8
 1749              		.cfi_offset 7, -8
 1750              		.cfi_offset 14, -4
 1751 0002 00AF     		add	r7, sp, #0
 1752              		.cfi_def_cfa_register 7
1023:.\Generated_Source\PSoC4/CyLFClk.c ****         return (CY_SYS_WDT_CONTROL_REG & (CY_SYS_WDT_COUNTER0_INT | CY_SYS_WDT_COUNTER1_INT | CY_SY
 1753              		.loc 2 1023 0
 1754 0004 034B     		ldr	r3, .L159
 1755 0006 1B68     		ldr	r3, [r3]
 1756 0008 034A     		ldr	r2, .L159+4
 1757 000a 1340     		and	r3, r2
1024:.\Generated_Source\PSoC4/CyLFClk.c ****     }
 1758              		.loc 2 1024 0
 1759 000c 181C     		mov	r0, r3
 1760 000e BD46     		mov	sp, r7
 1761              		@ sp needed
 1762 0010 80BD     		pop	{r7, pc}
 1763              	.L160:
 1764 0012 C046     		.align	2
 1765              	.L159:
 1766 0014 10020B40 		.word	1074463248
ARM GAS  C:\Users\DELL\AppData\Local\Temp\ccdBZmRk.s 			page 57


 1767 0018 04040400 		.word	263172
 1768              		.cfi_endproc
 1769              	.LFE28:
 1770              		.size	CySysWdtGetInterruptSource, .-CySysWdtGetInterruptSource
 1771              		.section	.text.CySysWdtClearInterrupt,"ax",%progbits
 1772              		.align	2
 1773              		.global	CySysWdtClearInterrupt
 1774              		.code	16
 1775              		.thumb_func
 1776              		.type	CySysWdtClearInterrupt, %function
 1777              	CySysWdtClearInterrupt:
 1778              	.LFB29:
1025:.\Generated_Source\PSoC4/CyLFClk.c **** 
1026:.\Generated_Source\PSoC4/CyLFClk.c **** 
1027:.\Generated_Source\PSoC4/CyLFClk.c ****     /*******************************************************************************
1028:.\Generated_Source\PSoC4/CyLFClk.c ****     * Function Name: CySysWdtClearInterrupt
1029:.\Generated_Source\PSoC4/CyLFClk.c ****     ********************************************************************************
1030:.\Generated_Source\PSoC4/CyLFClk.c ****     *
1031:.\Generated_Source\PSoC4/CyLFClk.c ****     * Summary:
1032:.\Generated_Source\PSoC4/CyLFClk.c ****     *   Clears all the WDT counter interrupts set in the mask. Calling this function
1033:.\Generated_Source\PSoC4/CyLFClk.c ****     *   also prevents from Reset when the counter mode is set to generate
1034:.\Generated_Source\PSoC4/CyLFClk.c ****     *   3 interrupts and then the device resets.
1035:.\Generated_Source\PSoC4/CyLFClk.c ****     *
1036:.\Generated_Source\PSoC4/CyLFClk.c ****     *   All the WDT interrupts are to be cleared by the firmware, otherwise
1037:.\Generated_Source\PSoC4/CyLFClk.c ****     *   interrupts are generated continuously.
1038:.\Generated_Source\PSoC4/CyLFClk.c ****     *
1039:.\Generated_Source\PSoC4/CyLFClk.c ****     * Parameters:
1040:.\Generated_Source\PSoC4/CyLFClk.c ****     *   counterMask: The mask of all the counters to enable.
1041:.\Generated_Source\PSoC4/CyLFClk.c ****     *   Define                    Counter
1042:.\Generated_Source\PSoC4/CyLFClk.c ****     *   CY_SYS_WDT_COUNTER0_INT    0
1043:.\Generated_Source\PSoC4/CyLFClk.c ****     *   CY_SYS_WDT_COUNTER1_INT    1
1044:.\Generated_Source\PSoC4/CyLFClk.c ****     *   CY_SYS_WDT_COUNTER2_INT    2
1045:.\Generated_Source\PSoC4/CyLFClk.c ****     *
1046:.\Generated_Source\PSoC4/CyLFClk.c ****     * Return:
1047:.\Generated_Source\PSoC4/CyLFClk.c ****     *   None
1048:.\Generated_Source\PSoC4/CyLFClk.c ****     *
1049:.\Generated_Source\PSoC4/CyLFClk.c ****     * Side effects:
1050:.\Generated_Source\PSoC4/CyLFClk.c ****     *   This function temporary removes the watchdog lock, if it was set, and
1051:.\Generated_Source\PSoC4/CyLFClk.c ****     *   restores the lock state after cleaning the WDT interrupts that are set in
1052:.\Generated_Source\PSoC4/CyLFClk.c ****     *   a mask.
1053:.\Generated_Source\PSoC4/CyLFClk.c ****     *
1054:.\Generated_Source\PSoC4/CyLFClk.c ****     *******************************************************************************/
1055:.\Generated_Source\PSoC4/CyLFClk.c ****     void CySysWdtClearInterrupt(uint32 counterMask)
1056:.\Generated_Source\PSoC4/CyLFClk.c ****     {
 1779              		.loc 2 1056 0
 1780              		.cfi_startproc
 1781 0000 90B5     		push	{r4, r7, lr}
 1782              		.cfi_def_cfa_offset 12
 1783              		.cfi_offset 4, -12
 1784              		.cfi_offset 7, -8
 1785              		.cfi_offset 14, -4
 1786 0002 85B0     		sub	sp, sp, #20
 1787              		.cfi_def_cfa_offset 32
 1788 0004 00AF     		add	r7, sp, #0
 1789              		.cfi_def_cfa_register 7
 1790 0006 7860     		str	r0, [r7, #4]
1057:.\Generated_Source\PSoC4/CyLFClk.c ****         uint8 interruptState;
ARM GAS  C:\Users\DELL\AppData\Local\Temp\ccdBZmRk.s 			page 58


1058:.\Generated_Source\PSoC4/CyLFClk.c ****         uint32 wdtLockState;
1059:.\Generated_Source\PSoC4/CyLFClk.c **** 
1060:.\Generated_Source\PSoC4/CyLFClk.c ****         interruptState = CyEnterCriticalSection();
 1791              		.loc 2 1060 0
 1792 0008 0B23     		mov	r3, #11
 1793 000a FC18     		add	r4, r7, r3
 1794 000c FFF7FEFF 		bl	CyEnterCriticalSection
 1795 0010 031C     		mov	r3, r0
 1796 0012 2370     		strb	r3, [r4]
1061:.\Generated_Source\PSoC4/CyLFClk.c **** 
1062:.\Generated_Source\PSoC4/CyLFClk.c ****         if (0u != CySysWdtLocked())
 1797              		.loc 2 1062 0
 1798 0014 FFF7FEFF 		bl	CySysWdtLocked
 1799 0018 031E     		sub	r3, r0, #0
 1800 001a 04D0     		beq	.L162
1063:.\Generated_Source\PSoC4/CyLFClk.c ****         {
1064:.\Generated_Source\PSoC4/CyLFClk.c ****             wdtLockState = 1u;
 1801              		.loc 2 1064 0
 1802 001c 0123     		mov	r3, #1
 1803 001e FB60     		str	r3, [r7, #12]
1065:.\Generated_Source\PSoC4/CyLFClk.c ****             CySysWdtUnlock();
 1804              		.loc 2 1065 0
 1805 0020 FFF7FEFF 		bl	CySysWdtUnlock
 1806 0024 01E0     		b	.L163
 1807              	.L162:
1066:.\Generated_Source\PSoC4/CyLFClk.c ****         }
1067:.\Generated_Source\PSoC4/CyLFClk.c ****         else
1068:.\Generated_Source\PSoC4/CyLFClk.c ****         {
1069:.\Generated_Source\PSoC4/CyLFClk.c ****             wdtLockState = 0u;
 1808              		.loc 2 1069 0
 1809 0026 0023     		mov	r3, #0
 1810 0028 FB60     		str	r3, [r7, #12]
 1811              	.L163:
1070:.\Generated_Source\PSoC4/CyLFClk.c ****         }
1071:.\Generated_Source\PSoC4/CyLFClk.c **** 
1072:.\Generated_Source\PSoC4/CyLFClk.c ****         /* Set new WDT control register value */
1073:.\Generated_Source\PSoC4/CyLFClk.c ****         counterMask &= (CY_SYS_WDT_COUNTER0_INT |
 1812              		.loc 2 1073 0
 1813 002a 7B68     		ldr	r3, [r7, #4]
 1814 002c 0D4A     		ldr	r2, .L165
 1815 002e 1340     		and	r3, r2
 1816 0030 7B60     		str	r3, [r7, #4]
1074:.\Generated_Source\PSoC4/CyLFClk.c ****                         CY_SYS_WDT_COUNTER1_INT |
1075:.\Generated_Source\PSoC4/CyLFClk.c ****                         CY_SYS_WDT_COUNTER2_INT);
1076:.\Generated_Source\PSoC4/CyLFClk.c **** 
1077:.\Generated_Source\PSoC4/CyLFClk.c ****         CY_SYS_WDT_CONTROL_REG = counterMask | (CY_SYS_WDT_CONTROL_REG & ~(CY_SYS_WDT_COUNTER0_INT 
 1817              		.loc 2 1077 0
 1818 0032 0D4B     		ldr	r3, .L165+4
 1819 0034 0C4A     		ldr	r2, .L165+4
 1820 0036 1268     		ldr	r2, [r2]
 1821 0038 0C49     		ldr	r1, .L165+8
 1822 003a 1140     		and	r1, r2
 1823 003c 7A68     		ldr	r2, [r7, #4]
 1824 003e 0A43     		orr	r2, r1
 1825 0040 1A60     		str	r2, [r3]
1078:.\Generated_Source\PSoC4/CyLFClk.c ****                                                                            CY_SYS_WDT_COUNTER1_INT 
1079:.\Generated_Source\PSoC4/CyLFClk.c ****                                                                            CY_SYS_WDT_COUNTER2_INT)
ARM GAS  C:\Users\DELL\AppData\Local\Temp\ccdBZmRk.s 			page 59


1080:.\Generated_Source\PSoC4/CyLFClk.c **** 
1081:.\Generated_Source\PSoC4/CyLFClk.c ****         /* Read the CY_SYS_WDT_CONTROL_REG to clear the interrupt request.
1082:.\Generated_Source\PSoC4/CyLFClk.c ****          * Cypress ID #207093, #206231
1083:.\Generated_Source\PSoC4/CyLFClk.c ****         */
1084:.\Generated_Source\PSoC4/CyLFClk.c ****         (void)CY_SYS_WDT_CONTROL_REG;
 1826              		.loc 2 1084 0
 1827 0042 094B     		ldr	r3, .L165+4
 1828 0044 1B68     		ldr	r3, [r3]
1085:.\Generated_Source\PSoC4/CyLFClk.c **** 
1086:.\Generated_Source\PSoC4/CyLFClk.c ****         if (1u == wdtLockState)
 1829              		.loc 2 1086 0
 1830 0046 FB68     		ldr	r3, [r7, #12]
 1831 0048 012B     		cmp	r3, #1
 1832 004a 01D1     		bne	.L164
1087:.\Generated_Source\PSoC4/CyLFClk.c ****         {
1088:.\Generated_Source\PSoC4/CyLFClk.c ****             CySysWdtLock();
 1833              		.loc 2 1088 0
 1834 004c FFF7FEFF 		bl	CySysWdtLock
 1835              	.L164:
1089:.\Generated_Source\PSoC4/CyLFClk.c ****         }
1090:.\Generated_Source\PSoC4/CyLFClk.c **** 
1091:.\Generated_Source\PSoC4/CyLFClk.c ****         CyExitCriticalSection(interruptState);
 1836              		.loc 2 1091 0
 1837 0050 0B23     		mov	r3, #11
 1838 0052 FB18     		add	r3, r7, r3
 1839 0054 1B78     		ldrb	r3, [r3]
 1840 0056 181C     		mov	r0, r3
 1841 0058 FFF7FEFF 		bl	CyExitCriticalSection
1092:.\Generated_Source\PSoC4/CyLFClk.c ****     }
 1842              		.loc 2 1092 0
 1843 005c BD46     		mov	sp, r7
 1844 005e 05B0     		add	sp, sp, #20
 1845              		@ sp needed
 1846 0060 90BD     		pop	{r4, r7, pc}
 1847              	.L166:
 1848 0062 C046     		.align	2
 1849              	.L165:
 1850 0064 04040400 		.word	263172
 1851 0068 10020B40 		.word	1074463248
 1852 006c FBFBFBFF 		.word	-263173
 1853              		.cfi_endproc
 1854              	.LFE29:
 1855              		.size	CySysWdtClearInterrupt, .-CySysWdtClearInterrupt
 1856              		.section	.text.CySysWdtResetCounters,"ax",%progbits
 1857              		.align	2
 1858              		.global	CySysWdtResetCounters
 1859              		.code	16
 1860              		.thumb_func
 1861              		.type	CySysWdtResetCounters, %function
 1862              	CySysWdtResetCounters:
 1863              	.LFB30:
1093:.\Generated_Source\PSoC4/CyLFClk.c **** 
1094:.\Generated_Source\PSoC4/CyLFClk.c **** 
1095:.\Generated_Source\PSoC4/CyLFClk.c ****     /*******************************************************************************
1096:.\Generated_Source\PSoC4/CyLFClk.c ****     * Function Name: CySysWdtResetCounters
1097:.\Generated_Source\PSoC4/CyLFClk.c ****     ********************************************************************************
1098:.\Generated_Source\PSoC4/CyLFClk.c ****     *
ARM GAS  C:\Users\DELL\AppData\Local\Temp\ccdBZmRk.s 			page 60


1099:.\Generated_Source\PSoC4/CyLFClk.c ****     * Summary:
1100:.\Generated_Source\PSoC4/CyLFClk.c ****     *  Resets all the WDT counters set in the mask.
1101:.\Generated_Source\PSoC4/CyLFClk.c ****     *
1102:.\Generated_Source\PSoC4/CyLFClk.c ****     * Parameters:
1103:.\Generated_Source\PSoC4/CyLFClk.c ****     *  counterMask: The mask of all the counters to reset.
1104:.\Generated_Source\PSoC4/CyLFClk.c ****     *   Define                       Counter
1105:.\Generated_Source\PSoC4/CyLFClk.c ****     *   CY_SYS_WDT_COUNTER0_RESET    0
1106:.\Generated_Source\PSoC4/CyLFClk.c ****     *   CY_SYS_WDT_COUNTER1_RESET    1
1107:.\Generated_Source\PSoC4/CyLFClk.c ****     *   CY_SYS_WDT_COUNTER2_RESET    2
1108:.\Generated_Source\PSoC4/CyLFClk.c ****     *
1109:.\Generated_Source\PSoC4/CyLFClk.c ****     * Return:
1110:.\Generated_Source\PSoC4/CyLFClk.c ****     *   None
1111:.\Generated_Source\PSoC4/CyLFClk.c ****     *
1112:.\Generated_Source\PSoC4/CyLFClk.c ****     * Side effects:
1113:.\Generated_Source\PSoC4/CyLFClk.c ****     *   This function does not reset counter values if the Watchdog is locked.
1114:.\Generated_Source\PSoC4/CyLFClk.c ****     *   This function waits while corresponding counters will be reset. This may
1115:.\Generated_Source\PSoC4/CyLFClk.c ****     *   take up to 3 LFCLK cycles.
1116:.\Generated_Source\PSoC4/CyLFClk.c ****     *   The LFCLK source must be enabled. Otherwise, the function will never exit.
1117:.\Generated_Source\PSoC4/CyLFClk.c ****     *
1118:.\Generated_Source\PSoC4/CyLFClk.c ****     *******************************************************************************/
1119:.\Generated_Source\PSoC4/CyLFClk.c ****     void CySysWdtResetCounters(uint32 countersMask)
1120:.\Generated_Source\PSoC4/CyLFClk.c ****     {
 1864              		.loc 2 1120 0
 1865              		.cfi_startproc
 1866 0000 80B5     		push	{r7, lr}
 1867              		.cfi_def_cfa_offset 8
 1868              		.cfi_offset 7, -8
 1869              		.cfi_offset 14, -4
 1870 0002 82B0     		sub	sp, sp, #8
 1871              		.cfi_def_cfa_offset 16
 1872 0004 00AF     		add	r7, sp, #0
 1873              		.cfi_def_cfa_register 7
 1874 0006 7860     		str	r0, [r7, #4]
1121:.\Generated_Source\PSoC4/CyLFClk.c ****         /* Set new WDT reset value */
1122:.\Generated_Source\PSoC4/CyLFClk.c ****         CY_SYS_WDT_CONTROL_REG |= (countersMask & CY_SYS_WDT_COUNTERS_RESET);
 1875              		.loc 2 1122 0
 1876 0008 084B     		ldr	r3, .L169
 1877 000a 084A     		ldr	r2, .L169
 1878 000c 1168     		ldr	r1, [r2]
 1879 000e 7A68     		ldr	r2, [r7, #4]
 1880 0010 0748     		ldr	r0, .L169+4
 1881 0012 0240     		and	r2, r0
 1882 0014 0A43     		orr	r2, r1
 1883 0016 1A60     		str	r2, [r3]
1123:.\Generated_Source\PSoC4/CyLFClk.c **** 
1124:.\Generated_Source\PSoC4/CyLFClk.c ****         while (0uL != (CY_SYS_WDT_CONTROL_REG & CY_SYS_WDT_COUNTERS_RESET))
 1884              		.loc 2 1124 0
 1885 0018 C046     		mov	r8, r8
 1886              	.L168:
 1887              		.loc 2 1124 0 is_stmt 0 discriminator 1
 1888 001a 044B     		ldr	r3, .L169
 1889 001c 1B68     		ldr	r3, [r3]
 1890 001e 044A     		ldr	r2, .L169+4
 1891 0020 1340     		and	r3, r2
 1892 0022 FAD1     		bne	.L168
1125:.\Generated_Source\PSoC4/CyLFClk.c ****         {
1126:.\Generated_Source\PSoC4/CyLFClk.c ****             /* Wait for reset to come into effect */
ARM GAS  C:\Users\DELL\AppData\Local\Temp\ccdBZmRk.s 			page 61


1127:.\Generated_Source\PSoC4/CyLFClk.c ****         }
1128:.\Generated_Source\PSoC4/CyLFClk.c ****     }
 1893              		.loc 2 1128 0 is_stmt 1
 1894 0024 BD46     		mov	sp, r7
 1895 0026 02B0     		add	sp, sp, #8
 1896              		@ sp needed
 1897 0028 80BD     		pop	{r7, pc}
 1898              	.L170:
 1899 002a C046     		.align	2
 1900              	.L169:
 1901 002c 10020B40 		.word	1074463248
 1902 0030 08080800 		.word	526344
 1903              		.cfi_endproc
 1904              	.LFE30:
