ARM GAS  C:\Users\DELL\AppData\Local\Temp\ccRYftE6.s 			page 1


   1              		.cpu cortex-m0
   2              		.fpu softvfp
   3              		.eabi_attribute 20, 1
   4              		.eabi_attribute 21, 1
   5              		.eabi_attribute 23, 3
   6              		.eabi_attribute 24, 1
   7              		.eabi_attribute 25, 1
   8              		.eabi_attribute 26, 1
   9              		.eabi_attribute 30, 6
  10              		.eabi_attribute 34, 0
  11              		.eabi_attribute 18, 4
  12              		.code	16
  13              		.file	"CapSense.c"
  14              		.text
  15              	.Ltext0:
  16              		.cfi_sections	.debug_frame
  17              		.global	CapSense_lowLevelTuningDone
  18              		.bss
  19              		.type	CapSense_lowLevelTuningDone, %object
  20              		.size	CapSense_lowLevelTuningDone, 1
  21              	CapSense_lowLevelTuningDone:
  22 0000 00       		.space	1
  23              		.comm	CapSense_scanSpeedTbl,1,4
  24              		.global	CapSense_csdStatusVar
  25              		.type	CapSense_csdStatusVar, %object
  26              		.size	CapSense_csdStatusVar, 1
  27              	CapSense_csdStatusVar:
  28 0001 00       		.space	1
  29              		.global	CapSense_sensorIndex
  30              		.type	CapSense_sensorIndex, %object
  31              		.size	CapSense_sensorIndex, 1
  32              	CapSense_sensorIndex:
  33 0002 00       		.space	1
  34              		.global	CapSense_sensorRaw
  35 0003 00       		.align	2
  36              		.type	CapSense_sensorRaw, %object
  37              		.size	CapSense_sensorRaw, 10
  38              	CapSense_sensorRaw:
  39 0004 00000000 		.space	10
  39      00000000 
  39      0000
  40              		.comm	CapSense_csdTrim1,1,1
  41              		.comm	CapSense_unscannedSnsDriveMode,5,4
  42              		.comm	CapSense_sensorEnableMaskBackup,1,4
  43              		.global	CapSense_sensorEnableMask
  44              		.data
  45              		.align	2
  46              		.type	CapSense_sensorEnableMask, %object
  47              		.size	CapSense_sensorEnableMask, 1
  48              	CapSense_sensorEnableMask:
  49 0000 1F       		.byte	31
  50              		.global	CapSense_pcTable
  51 0001 000000   		.align	2
  52              		.type	CapSense_pcTable, %object
  53              		.size	CapSense_pcTable, 20
  54              	CapSense_pcTable:
  55 0004 08020440 		.word	1074004488
ARM GAS  C:\Users\DELL\AppData\Local\Temp\ccRYftE6.s 			page 2


  56 0008 08020440 		.word	1074004488
  57 000c 08020440 		.word	1074004488
  58 0010 08020440 		.word	1074004488
  59 0014 08020440 		.word	1074004488
  60              		.global	CapSense_portTable
  61              		.section	.rodata
  62              		.align	2
  63              		.type	CapSense_portTable, %object
  64              		.size	CapSense_portTable, 5
  65              	CapSense_portTable:
  66 0000 02       		.byte	2
  67 0001 02       		.byte	2
  68 0002 02       		.byte	2
  69 0003 02       		.byte	2
  70 0004 02       		.byte	2
  71              		.global	CapSense_maskTable
  72 0005 000000   		.align	2
  73              		.type	CapSense_maskTable, %object
  74              		.size	CapSense_maskTable, 20
  75              	CapSense_maskTable:
  76 0008 02000000 		.word	2
  77 000c 04000000 		.word	4
  78 0010 08000000 		.word	8
  79 0014 10000000 		.word	16
  80 0018 20000000 		.word	32
  81              		.global	CapSense_pinShiftTbl
  82              		.align	2
  83              		.type	CapSense_pinShiftTbl, %object
  84              		.size	CapSense_pinShiftTbl, 5
  85              	CapSense_pinShiftTbl:
  86 001c 01       		.byte	1
  87 001d 02       		.byte	2
  88 001e 03       		.byte	3
  89 001f 04       		.byte	4
  90 0020 05       		.byte	5
  91              		.comm	CapSense_modulationIDAC,5,4
  92              		.comm	CapSense_compensationIDAC,5,4
  93              		.global	CapSense_widgetResolution
  94              		.data
  95              		.align	2
  96              		.type	CapSense_widgetResolution, %object
  97              		.size	CapSense_widgetResolution, 4
  98              	CapSense_widgetResolution:
  99 0018 0000FF0F 		.word	268369920
 100              		.comm	CapSense_senseClkDividerVal,5,4
 101              		.comm	CapSense_sampleClkDividerVal,5,4
 102              		.global	CapSense_widgetNumber
 103              		.section	.rodata
 104 0021 000000   		.align	2
 105              		.type	CapSense_widgetNumber, %object
 106              		.size	CapSense_widgetNumber, 5
 107              	CapSense_widgetNumber:
 108 0024 00000000 		.space	5
 108      00
 109              		.global	CapSense_prtSelTbl
 110 0029 000000   		.align	2
 111              		.type	CapSense_prtSelTbl, %object
ARM GAS  C:\Users\DELL\AppData\Local\Temp\ccRYftE6.s 			page 3


 112              		.size	CapSense_prtSelTbl, 28
 113              	CapSense_prtSelTbl:
 114 002c 00000240 		.word	1073872896
 115 0030 00010240 		.word	1073873152
 116 0034 00020240 		.word	1073873408
 117 0038 00030240 		.word	1073873664
 118 003c 00040240 		.word	1073873920
 119 0040 00050240 		.word	1073874176
 120 0044 00060240 		.word	1073874432
 121              		.global	CapSense_prtCfgTbl
 122              		.align	2
 123              		.type	CapSense_prtCfgTbl, %object
 124              		.size	CapSense_prtCfgTbl, 28
 125              	CapSense_prtCfgTbl:
 126 0048 08000440 		.word	1074003976
 127 004c 08010440 		.word	1074004232
 128 0050 08020440 		.word	1074004488
 129 0054 08030440 		.word	1074004744
 130 0058 08040440 		.word	1074005000
 131 005c 08050440 		.word	1074005256
 132 0060 08060440 		.word	1074005512
 133              		.global	CapSense_prtDRTbl
 134              		.align	2
 135              		.type	CapSense_prtDRTbl, %object
 136              		.size	CapSense_prtDRTbl, 28
 137              	CapSense_prtDRTbl:
 138 0064 00000440 		.word	1074003968
 139 0068 00010440 		.word	1074004224
 140 006c 00020440 		.word	1074004480
 141 0070 00030440 		.word	1074004736
 142 0074 00040440 		.word	1074004992
 143 0078 00050440 		.word	1074005248
 144 007c 00060440 		.word	1074005504
 145              		.section	.text.CapSense_Init,"ax",%progbits
 146              		.align	2
 147              		.global	CapSense_Init
 148              		.code	16
 149              		.thumb_func
 150              		.type	CapSense_Init, %function
 151              	CapSense_Init:
 152              	.LFB35:
 153              		.file 1 ".\\Generated_Source\\PSoC4\\CapSense.c"
   1:.\Generated_Source\PSoC4/CapSense.c **** /*******************************************************************************
   2:.\Generated_Source\PSoC4/CapSense.c **** * File Name: CapSense.c
   3:.\Generated_Source\PSoC4/CapSense.c **** * Version 2.30
   4:.\Generated_Source\PSoC4/CapSense.c **** *
   5:.\Generated_Source\PSoC4/CapSense.c **** * Description:
   6:.\Generated_Source\PSoC4/CapSense.c **** *  This file provides the source code for scanning APIs for the CapSense CSD
   7:.\Generated_Source\PSoC4/CapSense.c **** *  component.
   8:.\Generated_Source\PSoC4/CapSense.c **** *
   9:.\Generated_Source\PSoC4/CapSense.c **** * Note:
  10:.\Generated_Source\PSoC4/CapSense.c **** *
  11:.\Generated_Source\PSoC4/CapSense.c **** ********************************************************************************
  12:.\Generated_Source\PSoC4/CapSense.c **** * Copyright 2013-2015, Cypress Semiconductor Corporation.  All rights reserved.
  13:.\Generated_Source\PSoC4/CapSense.c **** * You may use this file only in accordance with the license, terms, conditions,
  14:.\Generated_Source\PSoC4/CapSense.c **** * disclaimers, and limitations in the end user license agreement accompanying
  15:.\Generated_Source\PSoC4/CapSense.c **** * the software package with which this file was provided.
ARM GAS  C:\Users\DELL\AppData\Local\Temp\ccRYftE6.s 			page 4


  16:.\Generated_Source\PSoC4/CapSense.c **** *******************************************************************************/
  17:.\Generated_Source\PSoC4/CapSense.c **** 
  18:.\Generated_Source\PSoC4/CapSense.c **** #include "CapSense.h"
  19:.\Generated_Source\PSoC4/CapSense.c **** #include "CapSense_PVT.h"
  20:.\Generated_Source\PSoC4/CapSense.c **** #include "cypins.h"
  21:.\Generated_Source\PSoC4/CapSense.c **** 
  22:.\Generated_Source\PSoC4/CapSense.c **** 
  23:.\Generated_Source\PSoC4/CapSense.c **** #if(0u != CapSense_CSHL_API_GENERATE)
  24:.\Generated_Source\PSoC4/CapSense.c ****     #include "CapSense_CSHL.h"
  25:.\Generated_Source\PSoC4/CapSense.c **** #endif /* (0u != CapSense_CSHL_API_GENERATE) */
  26:.\Generated_Source\PSoC4/CapSense.c **** 
  27:.\Generated_Source\PSoC4/CapSense.c **** /* This definition is intended to prevent unexpected linker error.
  28:.\Generated_Source\PSoC4/CapSense.c ****    For more details please see the IAR Technical Note 49981 */
  29:.\Generated_Source\PSoC4/CapSense.c **** #if defined(__ICCARM__)
  30:.\Generated_Source\PSoC4/CapSense.c ****     extern void CapSense_EnableSensor(uint32 sensor);
  31:.\Generated_Source\PSoC4/CapSense.c ****     extern void CapSense_DisableSensor(uint32 sensor);
  32:.\Generated_Source\PSoC4/CapSense.c **** #endif /* (__ICCARM__) */
  33:.\Generated_Source\PSoC4/CapSense.c **** 
  34:.\Generated_Source\PSoC4/CapSense.c **** /* SmartSense functions */
  35:.\Generated_Source\PSoC4/CapSense.c **** #if (CapSense_TUNING_METHOD == CapSense__TUNING_AUTO)
  36:.\Generated_Source\PSoC4/CapSense.c ****     uint8 CapSense_lowLevelTuningDone = 0u;
  37:.\Generated_Source\PSoC4/CapSense.c ****     uint8 CapSense_scanSpeedTbl[((CapSense_TOTAL_SENSOR_COUNT - 1u) / 8u) + 1u];
  38:.\Generated_Source\PSoC4/CapSense.c **** #endif /* (CapSense_TUNING_METHOD == CapSense__TUNING_AUTO) */
  39:.\Generated_Source\PSoC4/CapSense.c **** 
  40:.\Generated_Source\PSoC4/CapSense.c **** #if(CapSense_PRS_OPTIONS != CapSense__PRS_NONE)
  41:.\Generated_Source\PSoC4/CapSense.c ****     uint8 CapSense_prescalersTuningDone = 0u;
  42:.\Generated_Source\PSoC4/CapSense.c **** #endif /* (CapSense_PRS_OPTIONS == CapSense__PRS_NONE) */
  43:.\Generated_Source\PSoC4/CapSense.c **** 
  44:.\Generated_Source\PSoC4/CapSense.c **** /* Global software variables */
  45:.\Generated_Source\PSoC4/CapSense.c **** volatile uint8 CapSense_csdStatusVar = 0u;   /* CapSense CSD status, variable */
  46:.\Generated_Source\PSoC4/CapSense.c **** volatile uint8 CapSense_sensorIndex = 0u;    /* Index of scannig sensor */
  47:.\Generated_Source\PSoC4/CapSense.c **** 
  48:.\Generated_Source\PSoC4/CapSense.c **** /* Global array of Raw Counts */
  49:.\Generated_Source\PSoC4/CapSense.c **** uint16 CapSense_sensorRaw[CapSense_TOTAL_SENSOR_COUNT] = {0u};
  50:.\Generated_Source\PSoC4/CapSense.c **** 
  51:.\Generated_Source\PSoC4/CapSense.c **** /* Backup variables for trim registers*/
  52:.\Generated_Source\PSoC4/CapSense.c **** #if (CapSense_IDAC1_POLARITY == CapSense__IDAC_SINK)
  53:.\Generated_Source\PSoC4/CapSense.c ****     uint8 CapSense_csdTrim2;
  54:.\Generated_Source\PSoC4/CapSense.c **** #else
  55:.\Generated_Source\PSoC4/CapSense.c ****     uint8 CapSense_csdTrim1;
  56:.\Generated_Source\PSoC4/CapSense.c **** #endif /* (CapSense_IDAC1_POLARITY == CapSense__IDAC_SINK) */
  57:.\Generated_Source\PSoC4/CapSense.c **** 
  58:.\Generated_Source\PSoC4/CapSense.c **** /* Global array of un-scanned sensors state */
  59:.\Generated_Source\PSoC4/CapSense.c **** uint8 CapSense_unscannedSnsDriveMode[CapSense_TOTAL_SENSOR_COUNT];
  60:.\Generated_Source\PSoC4/CapSense.c **** 
  61:.\Generated_Source\PSoC4/CapSense.c **** /* Backup array for CapSense_sensorEnableMask */
  62:.\Generated_Source\PSoC4/CapSense.c **** uint8 CapSense_sensorEnableMaskBackup[(((CapSense_TOTAL_SENSOR_COUNT - 1u) / 8u) + 1u)];
  63:.\Generated_Source\PSoC4/CapSense.c **** 
  64:.\Generated_Source\PSoC4/CapSense.c **** /* Configured constants and arrays by Customizer */
  65:.\Generated_Source\PSoC4/CapSense.c **** uint8 CapSense_sensorEnableMask[(((CapSense_TOTAL_SENSOR_COUNT - 1u) / 8u) + 1u)] = {
  66:.\Generated_Source\PSoC4/CapSense.c **** 0x1Fu, };
  67:.\Generated_Source\PSoC4/CapSense.c **** 
  68:.\Generated_Source\PSoC4/CapSense.c **** reg32 * CapSense_pcTable[] = {
  69:.\Generated_Source\PSoC4/CapSense.c ****     (reg32 *)CapSense_Sns__LinearSlider0_e0__LS__PC, 
  70:.\Generated_Source\PSoC4/CapSense.c ****     (reg32 *)CapSense_Sns__LinearSlider0_e1__LS__PC, 
  71:.\Generated_Source\PSoC4/CapSense.c ****     (reg32 *)CapSense_Sns__LinearSlider0_e2__LS__PC, 
  72:.\Generated_Source\PSoC4/CapSense.c ****     (reg32 *)CapSense_Sns__LinearSlider0_e3__LS__PC, 
ARM GAS  C:\Users\DELL\AppData\Local\Temp\ccRYftE6.s 			page 5


  73:.\Generated_Source\PSoC4/CapSense.c ****     (reg32 *)CapSense_Sns__LinearSlider0_e4__LS__PC, 
  74:.\Generated_Source\PSoC4/CapSense.c **** };
  75:.\Generated_Source\PSoC4/CapSense.c **** 
  76:.\Generated_Source\PSoC4/CapSense.c **** const uint8 CapSense_portTable[] = {
  77:.\Generated_Source\PSoC4/CapSense.c ****     CapSense_Sns__LinearSlider0_e0__LS__PORT, 
  78:.\Generated_Source\PSoC4/CapSense.c ****     CapSense_Sns__LinearSlider0_e1__LS__PORT, 
  79:.\Generated_Source\PSoC4/CapSense.c ****     CapSense_Sns__LinearSlider0_e2__LS__PORT, 
  80:.\Generated_Source\PSoC4/CapSense.c ****     CapSense_Sns__LinearSlider0_e3__LS__PORT, 
  81:.\Generated_Source\PSoC4/CapSense.c ****     CapSense_Sns__LinearSlider0_e4__LS__PORT, 
  82:.\Generated_Source\PSoC4/CapSense.c **** };
  83:.\Generated_Source\PSoC4/CapSense.c **** 
  84:.\Generated_Source\PSoC4/CapSense.c **** const uint32 CapSense_maskTable[] = {
  85:.\Generated_Source\PSoC4/CapSense.c ****     CapSense_Sns__LinearSlider0_e0__LS__MASK, 
  86:.\Generated_Source\PSoC4/CapSense.c ****     CapSense_Sns__LinearSlider0_e1__LS__MASK, 
  87:.\Generated_Source\PSoC4/CapSense.c ****     CapSense_Sns__LinearSlider0_e2__LS__MASK, 
  88:.\Generated_Source\PSoC4/CapSense.c ****     CapSense_Sns__LinearSlider0_e3__LS__MASK, 
  89:.\Generated_Source\PSoC4/CapSense.c ****     CapSense_Sns__LinearSlider0_e4__LS__MASK, 
  90:.\Generated_Source\PSoC4/CapSense.c **** };
  91:.\Generated_Source\PSoC4/CapSense.c **** 
  92:.\Generated_Source\PSoC4/CapSense.c **** const uint8 CapSense_pinShiftTbl[] = {
  93:.\Generated_Source\PSoC4/CapSense.c ****     (uint8) CapSense_Sns__LinearSlider0_e0__LS__SHIFT, 
  94:.\Generated_Source\PSoC4/CapSense.c ****     (uint8) CapSense_Sns__LinearSlider0_e1__LS__SHIFT, 
  95:.\Generated_Source\PSoC4/CapSense.c ****     (uint8) CapSense_Sns__LinearSlider0_e2__LS__SHIFT, 
  96:.\Generated_Source\PSoC4/CapSense.c ****     (uint8) CapSense_Sns__LinearSlider0_e3__LS__SHIFT, 
  97:.\Generated_Source\PSoC4/CapSense.c ****     (uint8) CapSense_Sns__LinearSlider0_e4__LS__SHIFT, 
  98:.\Generated_Source\PSoC4/CapSense.c **** };
  99:.\Generated_Source\PSoC4/CapSense.c **** 
 100:.\Generated_Source\PSoC4/CapSense.c **** uint8 CapSense_modulationIDAC[CapSense_TOTAL_SENSOR_COUNT];
 101:.\Generated_Source\PSoC4/CapSense.c **** uint8 CapSense_compensationIDAC[CapSense_TOTAL_SENSOR_COUNT];
 102:.\Generated_Source\PSoC4/CapSense.c **** 
 103:.\Generated_Source\PSoC4/CapSense.c **** uint32 CapSense_widgetResolution[CapSense_RESOLUTIONS_TBL_SIZE] = {
 104:.\Generated_Source\PSoC4/CapSense.c ****     CapSense_RESOLUTION_12_BITS,
 105:.\Generated_Source\PSoC4/CapSense.c **** };
 106:.\Generated_Source\PSoC4/CapSense.c **** 
 107:.\Generated_Source\PSoC4/CapSense.c **** uint8 CapSense_senseClkDividerVal[CapSense_TOTAL_SCANSLOT_COUNT];
 108:.\Generated_Source\PSoC4/CapSense.c **** uint8 CapSense_sampleClkDividerVal[CapSense_TOTAL_SCANSLOT_COUNT];
 109:.\Generated_Source\PSoC4/CapSense.c **** 
 110:.\Generated_Source\PSoC4/CapSense.c **** const uint8 CapSense_widgetNumber[CapSense_TOTAL_SENSOR_COUNT] = {
 111:.\Generated_Source\PSoC4/CapSense.c ****     0u, 0u, 0u, 0u, 0u, /* LinearSlider0__LS */
 112:.\Generated_Source\PSoC4/CapSense.c **** };
 113:.\Generated_Source\PSoC4/CapSense.c **** 
 114:.\Generated_Source\PSoC4/CapSense.c **** reg32* const CapSense_prtSelTbl[CapSense_CFG_REG_TBL_SIZE] = {
 115:.\Generated_Source\PSoC4/CapSense.c ****     ((reg32 *) CYREG_HSIOM_PORT_SEL0),
 116:.\Generated_Source\PSoC4/CapSense.c ****     ((reg32 *) CYREG_HSIOM_PORT_SEL1),
 117:.\Generated_Source\PSoC4/CapSense.c ****     ((reg32 *) CYREG_HSIOM_PORT_SEL2),
 118:.\Generated_Source\PSoC4/CapSense.c ****     ((reg32 *) CYREG_HSIOM_PORT_SEL3),
 119:.\Generated_Source\PSoC4/CapSense.c ****     ((reg32 *) CYREG_HSIOM_PORT_SEL4),
 120:.\Generated_Source\PSoC4/CapSense.c ****     ((reg32 *) CYREG_HSIOM_PORT_SEL5),
 121:.\Generated_Source\PSoC4/CapSense.c ****     ((reg32 *) CYREG_HSIOM_PORT_SEL6),
 122:.\Generated_Source\PSoC4/CapSense.c **** };
 123:.\Generated_Source\PSoC4/CapSense.c **** 
 124:.\Generated_Source\PSoC4/CapSense.c **** reg32* const CapSense_prtCfgTbl[CapSense_CFG_REG_TBL_SIZE] = {
 125:.\Generated_Source\PSoC4/CapSense.c ****     ((reg32 *) CYREG_GPIO_PRT0_PC),
 126:.\Generated_Source\PSoC4/CapSense.c ****     ((reg32 *) CYREG_GPIO_PRT1_PC),
 127:.\Generated_Source\PSoC4/CapSense.c ****     ((reg32 *) CYREG_GPIO_PRT2_PC),
 128:.\Generated_Source\PSoC4/CapSense.c ****     ((reg32 *) CYREG_GPIO_PRT3_PC),
 129:.\Generated_Source\PSoC4/CapSense.c ****     ((reg32 *) CYREG_GPIO_PRT4_PC),
ARM GAS  C:\Users\DELL\AppData\Local\Temp\ccRYftE6.s 			page 6


 130:.\Generated_Source\PSoC4/CapSense.c ****     ((reg32 *) CYREG_GPIO_PRT5_PC),
 131:.\Generated_Source\PSoC4/CapSense.c ****     ((reg32 *) CYREG_GPIO_PRT6_PC),
 132:.\Generated_Source\PSoC4/CapSense.c **** };
 133:.\Generated_Source\PSoC4/CapSense.c **** 
 134:.\Generated_Source\PSoC4/CapSense.c **** reg32* const CapSense_prtDRTbl[CapSense_CFG_REG_TBL_SIZE] = {
 135:.\Generated_Source\PSoC4/CapSense.c ****     ((reg32 *) CYREG_GPIO_PRT0_DR),
 136:.\Generated_Source\PSoC4/CapSense.c ****     ((reg32 *) CYREG_GPIO_PRT1_DR),
 137:.\Generated_Source\PSoC4/CapSense.c ****     ((reg32 *) CYREG_GPIO_PRT2_DR),
 138:.\Generated_Source\PSoC4/CapSense.c ****     ((reg32 *) CYREG_GPIO_PRT3_DR),
 139:.\Generated_Source\PSoC4/CapSense.c ****     ((reg32 *) CYREG_GPIO_PRT4_DR),
 140:.\Generated_Source\PSoC4/CapSense.c ****     ((reg32 *) CYREG_GPIO_PRT5_DR),
 141:.\Generated_Source\PSoC4/CapSense.c ****     ((reg32 *) CYREG_GPIO_PRT6_DR),
 142:.\Generated_Source\PSoC4/CapSense.c **** };
 143:.\Generated_Source\PSoC4/CapSense.c **** 
 144:.\Generated_Source\PSoC4/CapSense.c **** 
 145:.\Generated_Source\PSoC4/CapSense.c **** 
 146:.\Generated_Source\PSoC4/CapSense.c **** /*******************************************************************************
 147:.\Generated_Source\PSoC4/CapSense.c **** * Function Name: CapSense_Init
 148:.\Generated_Source\PSoC4/CapSense.c **** ********************************************************************************
 149:.\Generated_Source\PSoC4/CapSense.c **** *
 150:.\Generated_Source\PSoC4/CapSense.c **** * Summary:
 151:.\Generated_Source\PSoC4/CapSense.c **** *  API initializes default CapSense configuration provided by the customizer that defines
 152:.\Generated_Source\PSoC4/CapSense.c **** *  the mode of component operations and resets all the sensors to an inactive state.
 153:.\Generated_Source\PSoC4/CapSense.c **** *
 154:.\Generated_Source\PSoC4/CapSense.c **** * Parameters:
 155:.\Generated_Source\PSoC4/CapSense.c **** *  None
 156:.\Generated_Source\PSoC4/CapSense.c **** *
 157:.\Generated_Source\PSoC4/CapSense.c **** * Return:
 158:.\Generated_Source\PSoC4/CapSense.c **** *  None
 159:.\Generated_Source\PSoC4/CapSense.c **** *
 160:.\Generated_Source\PSoC4/CapSense.c **** * Global Variables:
 161:.\Generated_Source\PSoC4/CapSense.c **** *  CapSense_immunityIndex - defines immunity level.
 162:.\Generated_Source\PSoC4/CapSense.c **** *
 163:.\Generated_Source\PSoC4/CapSense.c **** * Side Effects:
 164:.\Generated_Source\PSoC4/CapSense.c **** *  None
 165:.\Generated_Source\PSoC4/CapSense.c **** *
 166:.\Generated_Source\PSoC4/CapSense.c **** *******************************************************************************/
 167:.\Generated_Source\PSoC4/CapSense.c **** void CapSense_Init(void)
 168:.\Generated_Source\PSoC4/CapSense.c **** {
 154              		.loc 1 168 0
 155              		.cfi_startproc
 156 0000 80B5     		push	{r7, lr}
 157              		.cfi_def_cfa_offset 8
 158              		.cfi_offset 7, -8
 159              		.cfi_offset 14, -4
 160 0002 82B0     		sub	sp, sp, #8
 161              		.cfi_def_cfa_offset 16
 162 0004 00AF     		add	r7, sp, #0
 163              		.cfi_def_cfa_register 7
 169:.\Generated_Source\PSoC4/CapSense.c ****     uint32 curSensor;
 170:.\Generated_Source\PSoC4/CapSense.c **** 
 171:.\Generated_Source\PSoC4/CapSense.c ****     #if(CapSense_IS_SHIELD_ENABLE)
 172:.\Generated_Source\PSoC4/CapSense.c **** 
 173:.\Generated_Source\PSoC4/CapSense.c ****         #if((CapSense_CSH_TANK_PREGARGE_OPTION == CapSense__CAPPRIOBUF) || (0u != CapSense_CSH_TANK
 174:.\Generated_Source\PSoC4/CapSense.c ****             uint32 newRegValue;
 175:.\Generated_Source\PSoC4/CapSense.c **** 
 176:.\Generated_Source\PSoC4/CapSense.c ****             newRegValue = CapSense_CTANK_CONNECTION_REG;
ARM GAS  C:\Users\DELL\AppData\Local\Temp\ccRYftE6.s 			page 7


 177:.\Generated_Source\PSoC4/CapSense.c ****             newRegValue &= ~(CapSense_CSD_CTANK_CONNECTION_MASK);
 178:.\Generated_Source\PSoC4/CapSense.c ****             newRegValue |= CapSense_CSD_CTANK_TO_AMUXBUS_B;
 179:.\Generated_Source\PSoC4/CapSense.c ****             CapSense_CTANK_CONNECTION_REG = newRegValue;
 180:.\Generated_Source\PSoC4/CapSense.c **** 
 181:.\Generated_Source\PSoC4/CapSense.c ****             #if(CapSense_CSH_TANK_PREGARGE_OPTION == CapSense__CAPPRIOBUF)
 182:.\Generated_Source\PSoC4/CapSense.c ****                 newRegValue = CapSense_CTANK_PORT_PC_REG;
 183:.\Generated_Source\PSoC4/CapSense.c ****                 newRegValue &= ~(CapSense_CSD_CTANK_PC_MASK);
 184:.\Generated_Source\PSoC4/CapSense.c ****                 newRegValue |= CapSense_CTANK_PC_STRONG_MODE;
 185:.\Generated_Source\PSoC4/CapSense.c ****                 CapSense_CTANK_PORT_PC_REG = newRegValue;
 186:.\Generated_Source\PSoC4/CapSense.c **** 
 187:.\Generated_Source\PSoC4/CapSense.c ****                 newRegValue = CapSense_CTANK_PORT_DR_REG;
 188:.\Generated_Source\PSoC4/CapSense.c ****                 newRegValue &= ~(CapSense_CTANK_DR_MASK);
 189:.\Generated_Source\PSoC4/CapSense.c ****                 newRegValue |= CapSense_CTANK_DR_CONFIG;
 190:.\Generated_Source\PSoC4/CapSense.c ****                 CapSense_CTANK_PORT_DR_REG = newRegValue;
 191:.\Generated_Source\PSoC4/CapSense.c ****             #endif /* (CapSense_CSH_TANK_PREGARGE_OPTION == CapSense__CAPPRIOBUF) */
 192:.\Generated_Source\PSoC4/CapSense.c **** 
 193:.\Generated_Source\PSoC4/CapSense.c ****         #endif /* ((CapSense_CSH_TANK_PREGARGE_OPTION == CapSense__CAPPRIOBUF) || (CapSense_CSH_TAN
 194:.\Generated_Source\PSoC4/CapSense.c **** 
 195:.\Generated_Source\PSoC4/CapSense.c ****         CapSense_EnableShieldElectrode((uint32)CapSense_SHIELD_PIN_NUMBER, (uint32)CapSense_SHIELD_
 196:.\Generated_Source\PSoC4/CapSense.c **** 
 197:.\Generated_Source\PSoC4/CapSense.c ****     #endif /* (CapSense_IS_SHIELD_ENABLE) */
 198:.\Generated_Source\PSoC4/CapSense.c **** 
 199:.\Generated_Source\PSoC4/CapSense.c ****     for(curSensor = 0u; curSensor < CapSense_TOTAL_SENSOR_COUNT; curSensor++)
 164              		.loc 1 199 0
 165 0006 0023     		mov	r3, #0
 166 0008 7B60     		str	r3, [r7, #4]
 167 000a 07E0     		b	.L2
 168              	.L3:
 200:.\Generated_Source\PSoC4/CapSense.c ****     {
 201:.\Generated_Source\PSoC4/CapSense.c ****         CapSense_unscannedSnsDriveMode[curSensor] = CapSense_CONNECT_INACTIVE_SNS;
 169              		.loc 1 201 0 discriminator 3
 170 000c 0A4A     		ldr	r2, .L4
 171 000e 7B68     		ldr	r3, [r7, #4]
 172 0010 D318     		add	r3, r2, r3
 173 0012 0022     		mov	r2, #0
 174 0014 1A70     		strb	r2, [r3]
 199:.\Generated_Source\PSoC4/CapSense.c ****     {
 175              		.loc 1 199 0 discriminator 3
 176 0016 7B68     		ldr	r3, [r7, #4]
 177 0018 0133     		add	r3, r3, #1
 178 001a 7B60     		str	r3, [r7, #4]
 179              	.L2:
 199:.\Generated_Source\PSoC4/CapSense.c ****     {
 180              		.loc 1 199 0 is_stmt 0 discriminator 1
 181 001c 7B68     		ldr	r3, [r7, #4]
 182 001e 042B     		cmp	r3, #4
 183 0020 F4D9     		bls	.L3
 202:.\Generated_Source\PSoC4/CapSense.c ****     }
 203:.\Generated_Source\PSoC4/CapSense.c **** 
 204:.\Generated_Source\PSoC4/CapSense.c ****     CapSense_CsdHwBlockInit();
 184              		.loc 1 204 0 is_stmt 1
 185 0022 FFF7FEFF 		bl	CapSense_CsdHwBlockInit
 205:.\Generated_Source\PSoC4/CapSense.c ****     CapSense_SetShieldDelay(CapSense_SHIELD_DELAY );
 186              		.loc 1 205 0
 187 0026 0020     		mov	r0, #0
 188 0028 FFF7FEFF 		bl	CapSense_SetShieldDelay
 206:.\Generated_Source\PSoC4/CapSense.c **** 
ARM GAS  C:\Users\DELL\AppData\Local\Temp\ccRYftE6.s 			page 8


 207:.\Generated_Source\PSoC4/CapSense.c ****     /* Clear all sensors */
 208:.\Generated_Source\PSoC4/CapSense.c ****     CapSense_ClearSensors();
 189              		.loc 1 208 0
 190 002c FFF7FEFF 		bl	CapSense_ClearSensors
 209:.\Generated_Source\PSoC4/CapSense.c **** }
 191              		.loc 1 209 0
 192 0030 BD46     		mov	sp, r7
 193 0032 02B0     		add	sp, sp, #8
 194              		@ sp needed
 195 0034 80BD     		pop	{r7, pc}
 196              	.L5:
 197 0036 C046     		.align	2
 198              	.L4:
 199 0038 00000000 		.word	CapSense_unscannedSnsDriveMode
 200              		.cfi_endproc
 201              	.LFE35:
 202              		.size	CapSense_Init, .-CapSense_Init
 203              		.section	.text.CapSense_CsdHwBlockInit,"ax",%progbits
 204              		.align	2
 205              		.global	CapSense_CsdHwBlockInit
 206              		.code	16
 207              		.thumb_func
 208              		.type	CapSense_CsdHwBlockInit, %function
 209              	CapSense_CsdHwBlockInit:
 210              	.LFB36:
 210:.\Generated_Source\PSoC4/CapSense.c **** 
 211:.\Generated_Source\PSoC4/CapSense.c **** /*******************************************************************************
 212:.\Generated_Source\PSoC4/CapSense.c **** * Function Name: CapSense_CsdHwBlockInit
 213:.\Generated_Source\PSoC4/CapSense.c **** ********************************************************************************
 214:.\Generated_Source\PSoC4/CapSense.c **** *
 215:.\Generated_Source\PSoC4/CapSense.c **** * Summary:
 216:.\Generated_Source\PSoC4/CapSense.c **** *  Initialises the hardware parameters of the CSD block
 217:.\Generated_Source\PSoC4/CapSense.c **** *
 218:.\Generated_Source\PSoC4/CapSense.c **** * Parameters:
 219:.\Generated_Source\PSoC4/CapSense.c **** *  None
 220:.\Generated_Source\PSoC4/CapSense.c **** *
 221:.\Generated_Source\PSoC4/CapSense.c **** * Return:
 222:.\Generated_Source\PSoC4/CapSense.c **** *  None
 223:.\Generated_Source\PSoC4/CapSense.c **** *
 224:.\Generated_Source\PSoC4/CapSense.c **** * Global Variables:
 225:.\Generated_Source\PSoC4/CapSense.c **** *  CapSense_csdTrim1 - Contains IDAC trim register value for Sourcing Mode.
 226:.\Generated_Source\PSoC4/CapSense.c **** *  CapSense_csdTrim2 - Contains IDAC trim register value for Sinking Mode.
 227:.\Generated_Source\PSoC4/CapSense.c **** *
 228:.\Generated_Source\PSoC4/CapSense.c **** * Side Effects:
 229:.\Generated_Source\PSoC4/CapSense.c **** *  None
 230:.\Generated_Source\PSoC4/CapSense.c **** *
 231:.\Generated_Source\PSoC4/CapSense.c **** *******************************************************************************/
 232:.\Generated_Source\PSoC4/CapSense.c **** void CapSense_CsdHwBlockInit(void)
 233:.\Generated_Source\PSoC4/CapSense.c **** {
 211              		.loc 1 233 0
 212              		.cfi_startproc
 213 0000 80B5     		push	{r7, lr}
 214              		.cfi_def_cfa_offset 8
 215              		.cfi_offset 7, -8
 216              		.cfi_offset 14, -4
 217 0002 82B0     		sub	sp, sp, #8
 218              		.cfi_def_cfa_offset 16
ARM GAS  C:\Users\DELL\AppData\Local\Temp\ccRYftE6.s 			page 9


 219 0004 00AF     		add	r7, sp, #0
 220              		.cfi_def_cfa_register 7
 234:.\Generated_Source\PSoC4/CapSense.c ****     uint32 newRegValue;
 235:.\Generated_Source\PSoC4/CapSense.c **** 
 236:.\Generated_Source\PSoC4/CapSense.c ****         /* Set trim registers for CSD Mode */
 237:.\Generated_Source\PSoC4/CapSense.c ****     #if (CapSense_IDAC1_POLARITY == CapSense__IDAC_SINK)
 238:.\Generated_Source\PSoC4/CapSense.c ****         /* iDAC1 Sinking Mode */
 239:.\Generated_Source\PSoC4/CapSense.c ****         CapSense_csdTrim2 = (uint8)CapSense_CSD_TRIM2_REG;
 240:.\Generated_Source\PSoC4/CapSense.c ****         newRegValue = CapSense_csdTrim2;
 241:.\Generated_Source\PSoC4/CapSense.c ****         newRegValue &= CapSense_CSD_IDAC1_TRIM_MASK;
 242:.\Generated_Source\PSoC4/CapSense.c ****         newRegValue |= (uint32)((uint32)CapSense_SFLASH_CSD_TRIM2_REG & (uint32)CapSense_CSFLASH_TR
 243:.\Generated_Source\PSoC4/CapSense.c **** 
 244:.\Generated_Source\PSoC4/CapSense.c ****         #if (CapSense_IDAC_CNT == 2u)
 245:.\Generated_Source\PSoC4/CapSense.c ****             /* iDAC2 Sinking Mode */
 246:.\Generated_Source\PSoC4/CapSense.c ****             newRegValue &= CapSense_CSD_IDAC2_TRIM_MASK;
 247:.\Generated_Source\PSoC4/CapSense.c ****             newRegValue |= (uint32)((uint32)CapSense_SFLASH_CSD_TRIM2_REG & (uint32)CapSense_CSFLAS
 248:.\Generated_Source\PSoC4/CapSense.c ****         #endif /* (CapSense_IDAC_CNT == 2u) */
 249:.\Generated_Source\PSoC4/CapSense.c ****         CapSense_CSD_TRIM2_REG = newRegValue;
 250:.\Generated_Source\PSoC4/CapSense.c ****     #else
 251:.\Generated_Source\PSoC4/CapSense.c ****         /* iDAC1 Sourcing Mode */
 252:.\Generated_Source\PSoC4/CapSense.c ****         CapSense_csdTrim1 = (uint8)CapSense_CSD_TRIM1_REG;
 221              		.loc 1 252 0
 222 0006 244B     		ldr	r3, .L7
 223 0008 1B68     		ldr	r3, [r3]
 224 000a DAB2     		uxtb	r2, r3
 225 000c 234B     		ldr	r3, .L7+4
 226 000e 1A70     		strb	r2, [r3]
 253:.\Generated_Source\PSoC4/CapSense.c ****         newRegValue = CapSense_csdTrim1;
 227              		.loc 1 253 0
 228 0010 224B     		ldr	r3, .L7+4
 229 0012 1B78     		ldrb	r3, [r3]
 230 0014 7B60     		str	r3, [r7, #4]
 254:.\Generated_Source\PSoC4/CapSense.c ****         newRegValue &= CapSense_CSD_IDAC1_TRIM_MASK;
 231              		.loc 1 254 0
 232 0016 7B68     		ldr	r3, [r7, #4]
 233 0018 0F22     		mov	r2, #15
 234 001a 9343     		bic	r3, r2
 235 001c 7B60     		str	r3, [r7, #4]
 255:.\Generated_Source\PSoC4/CapSense.c ****         newRegValue |= (uint32)((uint32)CapSense_SFLASH_CSD_TRIM1_REG & (uint32)CapSense_CSFLASH_TR
 236              		.loc 1 255 0
 237 001e 204B     		ldr	r3, .L7+8
 238 0020 1B78     		ldrb	r3, [r3]
 239 0022 DBB2     		uxtb	r3, r3
 240 0024 1A1C     		mov	r2, r3
 241 0026 0F23     		mov	r3, #15
 242 0028 1340     		and	r3, r2
 243 002a 7A68     		ldr	r2, [r7, #4]
 244 002c 1343     		orr	r3, r2
 245 002e 7B60     		str	r3, [r7, #4]
 256:.\Generated_Source\PSoC4/CapSense.c ****         #if (CapSense_IDAC_CNT == 2u)
 257:.\Generated_Source\PSoC4/CapSense.c ****              /* iDAC2 Sourcing Mode */
 258:.\Generated_Source\PSoC4/CapSense.c ****             newRegValue &= CapSense_CSD_IDAC2_TRIM_MASK;
 246              		.loc 1 258 0
 247 0030 7B68     		ldr	r3, [r7, #4]
 248 0032 F022     		mov	r2, #240
 249 0034 9343     		bic	r3, r2
 250 0036 7B60     		str	r3, [r7, #4]
ARM GAS  C:\Users\DELL\AppData\Local\Temp\ccRYftE6.s 			page 10


 259:.\Generated_Source\PSoC4/CapSense.c ****             newRegValue |= (uint32)((uint32)CapSense_SFLASH_CSD_TRIM1_REG & (uint32)CapSense_CSFLAS
 251              		.loc 1 259 0
 252 0038 194B     		ldr	r3, .L7+8
 253 003a 1B78     		ldrb	r3, [r3]
 254 003c DBB2     		uxtb	r3, r3
 255 003e 1A1C     		mov	r2, r3
 256 0040 F023     		mov	r3, #240
 257 0042 1340     		and	r3, r2
 258 0044 7A68     		ldr	r2, [r7, #4]
 259 0046 1343     		orr	r3, r2
 260 0048 7B60     		str	r3, [r7, #4]
 260:.\Generated_Source\PSoC4/CapSense.c ****         #endif
 261:.\Generated_Source\PSoC4/CapSense.c ****         CapSense_CSD_TRIM1_REG = newRegValue;
 261              		.loc 1 261 0
 262 004a 134B     		ldr	r3, .L7
 263 004c 7A68     		ldr	r2, [r7, #4]
 264 004e 1A60     		str	r2, [r3]
 262:.\Generated_Source\PSoC4/CapSense.c ****     #endif /* (CapSense_IDAC1_POLARITY == CapSense__IDAC_SINK) */
 263:.\Generated_Source\PSoC4/CapSense.c **** 
 264:.\Generated_Source\PSoC4/CapSense.c ****     /* Configure CSD and IDAC */
 265:.\Generated_Source\PSoC4/CapSense.c ****     #if (CapSense_IDAC_CNT > 1u)
 266:.\Generated_Source\PSoC4/CapSense.c ****         CapSense_CSD_IDAC_REG = CapSense_DEFAULT_CSD_IDAC_CONFIG;
 265              		.loc 1 266 0
 266 0050 144B     		ldr	r3, .L7+12
 267 0052 154A     		ldr	r2, .L7+16
 268 0054 1A60     		str	r2, [r3]
 267:.\Generated_Source\PSoC4/CapSense.c ****         CapSense_CSD_CFG_REG = CapSense_DEFAULT_CSD_CONFIG;
 269              		.loc 1 267 0
 270 0056 154B     		ldr	r3, .L7+20
 271 0058 154A     		ldr	r2, .L7+24
 272 005a 1A60     		str	r2, [r3]
 268:.\Generated_Source\PSoC4/CapSense.c ****     #else
 269:.\Generated_Source\PSoC4/CapSense.c ****         CapSense_CSD_IDAC_REG &= ~(CapSense_CSD_IDAC1_MODE_MASK  | CapSense_CSD_IDAC1_DATA_MASK);
 270:.\Generated_Source\PSoC4/CapSense.c ****         CapSense_CSD_IDAC_REG |= CapSense_DEFAULT_CSD_IDAC_CONFIG;
 271:.\Generated_Source\PSoC4/CapSense.c **** 
 272:.\Generated_Source\PSoC4/CapSense.c ****         CapSense_CSD_CFG_REG &= ~(CapSense_CSD_CONFIG_MASK);
 273:.\Generated_Source\PSoC4/CapSense.c ****         CapSense_CSD_CFG_REG |= (CapSense_DEFAULT_CSD_CONFIG);
 274:.\Generated_Source\PSoC4/CapSense.c ****     #endif /* (CapSense_IDAC_CNT > 1u) */
 275:.\Generated_Source\PSoC4/CapSense.c **** 
 276:.\Generated_Source\PSoC4/CapSense.c **** 
 277:.\Generated_Source\PSoC4/CapSense.c ****     /* Connect Cmod to AMUX bus */
 278:.\Generated_Source\PSoC4/CapSense.c ****     newRegValue = CapSense_CMOD_CONNECTION_REG;
 273              		.loc 1 278 0
 274 005c 154B     		ldr	r3, .L7+28
 275 005e 1B68     		ldr	r3, [r3]
 276 0060 7B60     		str	r3, [r7, #4]
 279:.\Generated_Source\PSoC4/CapSense.c ****     newRegValue &= ~(CapSense_CSD_CMOD_CONNECTION_MASK);
 277              		.loc 1 279 0
 278 0062 7B68     		ldr	r3, [r7, #4]
 279 0064 0F22     		mov	r2, #15
 280 0066 9343     		bic	r3, r2
 281 0068 7B60     		str	r3, [r7, #4]
 280:.\Generated_Source\PSoC4/CapSense.c ****     newRegValue |= CapSense_CSD_CMOD_TO_AMUXBUS_A;
 282              		.loc 1 280 0
 283 006a 7B68     		ldr	r3, [r7, #4]
 284 006c 0622     		mov	r2, #6
 285 006e 1343     		orr	r3, r2
ARM GAS  C:\Users\DELL\AppData\Local\Temp\ccRYftE6.s 			page 11


 286 0070 7B60     		str	r3, [r7, #4]
 281:.\Generated_Source\PSoC4/CapSense.c ****     CapSense_CMOD_CONNECTION_REG = newRegValue;
 287              		.loc 1 281 0
 288 0072 104B     		ldr	r3, .L7+28
 289 0074 7A68     		ldr	r2, [r7, #4]
 290 0076 1A60     		str	r2, [r3]
 282:.\Generated_Source\PSoC4/CapSense.c **** 
 283:.\Generated_Source\PSoC4/CapSense.c ****     /* Configure Dead Band PWM if it is enabled */
 284:.\Generated_Source\PSoC4/CapSense.c ****     #if(CapSense_CSD_4B_PWM_MODE != CapSense__PWM_OFF)
 285:.\Generated_Source\PSoC4/CapSense.c ****         CapSense_CSD_4B_PWM_REG = CapSense_DEFAULT_CSD_4B_PWM_CONFIG;
 286:.\Generated_Source\PSoC4/CapSense.c ****     #endif /* (CapSense_CSD_4B_PWM_MODE != CapSense__PWM_OFF) */
 287:.\Generated_Source\PSoC4/CapSense.c **** 
 288:.\Generated_Source\PSoC4/CapSense.c ****     /* Setup ISR */
 289:.\Generated_Source\PSoC4/CapSense.c ****     CyIntDisable(CapSense_ISR_NUMBER);
 291              		.loc 1 289 0
 292 0078 1020     		mov	r0, #16
 293 007a FFF7FEFF 		bl	CyIntDisable
 290:.\Generated_Source\PSoC4/CapSense.c ****     #if !defined(CY_EXTERNAL_INTERRUPT_CONFIG)
 291:.\Generated_Source\PSoC4/CapSense.c ****         (void)CyIntSetVector(CapSense_ISR_NUMBER, &CapSense_ISR);
 294              		.loc 1 291 0
 295 007e 0E4B     		ldr	r3, .L7+32
 296 0080 1020     		mov	r0, #16
 297 0082 191C     		mov	r1, r3
 298 0084 FFF7FEFF 		bl	CyIntSetVector
 292:.\Generated_Source\PSoC4/CapSense.c ****         CyIntSetPriority(CapSense_ISR_NUMBER, CapSense_ISR_PRIORITY);
 299              		.loc 1 292 0
 300 0088 1020     		mov	r0, #16
 301 008a 0321     		mov	r1, #3
 302 008c FFF7FEFF 		bl	CyIntSetPriority
 293:.\Generated_Source\PSoC4/CapSense.c ****     #endif /* (CY_EXTERNAL_INTERRUPT_CONFIG) */
 294:.\Generated_Source\PSoC4/CapSense.c **** }
 303              		.loc 1 294 0
 304 0090 BD46     		mov	sp, r7
 305 0092 02B0     		add	sp, sp, #8
 306              		@ sp needed
 307 0094 80BD     		pop	{r7, pc}
 308              	.L8:
 309 0096 C046     		.align	2
 310              	.L7:
 311 0098 00FF2840 		.word	1076428544
 312 009c 00000000 		.word	CapSense_csdTrim1
 313 00a0 62F1FF0F 		.word	268431714
 314 00a4 08002840 		.word	1076363272
 315 00a8 00020001 		.word	16777728
 316 00ac 04002840 		.word	1076363268
 317 00b0 0008A001 		.word	27265024
 318 00b4 00040240 		.word	1073873920
 319 00b8 00000000 		.word	CapSense_ISR
 320              		.cfi_endproc
 321              	.LFE36:
 322              		.size	CapSense_CsdHwBlockInit, .-CapSense_CsdHwBlockInit
 323              		.section	.text.CapSense_Enable,"ax",%progbits
 324              		.align	2
 325              		.global	CapSense_Enable
 326              		.code	16
 327              		.thumb_func
 328              		.type	CapSense_Enable, %function
ARM GAS  C:\Users\DELL\AppData\Local\Temp\ccRYftE6.s 			page 12


 329              	CapSense_Enable:
 330              	.LFB37:
 295:.\Generated_Source\PSoC4/CapSense.c **** 
 296:.\Generated_Source\PSoC4/CapSense.c **** 
 297:.\Generated_Source\PSoC4/CapSense.c **** /*******************************************************************************
 298:.\Generated_Source\PSoC4/CapSense.c **** * Function Name: CapSense_Enable
 299:.\Generated_Source\PSoC4/CapSense.c **** ********************************************************************************
 300:.\Generated_Source\PSoC4/CapSense.c **** *
 301:.\Generated_Source\PSoC4/CapSense.c **** * Summary:
 302:.\Generated_Source\PSoC4/CapSense.c **** *  Enables the CSD block and related resources to an active mode.
 303:.\Generated_Source\PSoC4/CapSense.c **** *
 304:.\Generated_Source\PSoC4/CapSense.c **** * Parameters:
 305:.\Generated_Source\PSoC4/CapSense.c **** *  None
 306:.\Generated_Source\PSoC4/CapSense.c **** *
 307:.\Generated_Source\PSoC4/CapSense.c **** * Return:
 308:.\Generated_Source\PSoC4/CapSense.c **** *  None
 309:.\Generated_Source\PSoC4/CapSense.c **** *
 310:.\Generated_Source\PSoC4/CapSense.c **** * Global Variables:
 311:.\Generated_Source\PSoC4/CapSense.c **** *  None.
 312:.\Generated_Source\PSoC4/CapSense.c **** *
 313:.\Generated_Source\PSoC4/CapSense.c **** * Side Effects:
 314:.\Generated_Source\PSoC4/CapSense.c **** *  None
 315:.\Generated_Source\PSoC4/CapSense.c **** *
 316:.\Generated_Source\PSoC4/CapSense.c **** *******************************************************************************/
 317:.\Generated_Source\PSoC4/CapSense.c **** void CapSense_Enable(void)
 318:.\Generated_Source\PSoC4/CapSense.c **** {
 331              		.loc 1 318 0
 332              		.cfi_startproc
 333 0000 80B5     		push	{r7, lr}
 334              		.cfi_def_cfa_offset 8
 335              		.cfi_offset 7, -8
 336              		.cfi_offset 14, -4
 337 0002 82B0     		sub	sp, sp, #8
 338              		.cfi_def_cfa_offset 16
 339 0004 00AF     		add	r7, sp, #0
 340              		.cfi_def_cfa_register 7
 319:.\Generated_Source\PSoC4/CapSense.c ****     uint32 newRegValue;
 320:.\Generated_Source\PSoC4/CapSense.c **** 
 321:.\Generated_Source\PSoC4/CapSense.c ****     /* Enable Clocks */
 322:.\Generated_Source\PSoC4/CapSense.c ****     CapSense_SenseClk_Stop();
 341              		.loc 1 322 0
 342 0006 FFF7FEFF 		bl	CapSense_SenseClk_Stop
 323:.\Generated_Source\PSoC4/CapSense.c ****     CapSense_SampleClk_Stop();
 343              		.loc 1 323 0
 344 000a FFF7FEFF 		bl	CapSense_SampleClk_Stop
 324:.\Generated_Source\PSoC4/CapSense.c **** 
 325:.\Generated_Source\PSoC4/CapSense.c ****     CapSense_SampleClk_SetDividerValue((uint16)CapSense_INITIAL_CLK_DIVIDER);
 345              		.loc 1 325 0
 346 000e 0020     		mov	r0, #0
 347 0010 0021     		mov	r1, #0
 348 0012 FFF7FEFF 		bl	CapSense_SampleClk_SetFractionalDividerRegister
 326:.\Generated_Source\PSoC4/CapSense.c ****     CapSense_SenseClk_SetDividerValue((uint16)CapSense_INITIAL_CLK_DIVIDER);
 349              		.loc 1 326 0
 350 0016 0020     		mov	r0, #0
 351 0018 0021     		mov	r1, #0
 352 001a FFF7FEFF 		bl	CapSense_SenseClk_SetFractionalDividerRegister
 327:.\Generated_Source\PSoC4/CapSense.c **** 
ARM GAS  C:\Users\DELL\AppData\Local\Temp\ccRYftE6.s 			page 13


 328:.\Generated_Source\PSoC4/CapSense.c ****     #if (0u == CapSense_IS_M0S8PERI_BLOCK)
 329:.\Generated_Source\PSoC4/CapSense.c ****         CapSense_SenseClk_Start();
 330:.\Generated_Source\PSoC4/CapSense.c ****         CapSense_SampleClk_Start();
 331:.\Generated_Source\PSoC4/CapSense.c ****     #else
 332:.\Generated_Source\PSoC4/CapSense.c ****         CapSense_SampleClk_Start();
 353              		.loc 1 332 0
 354 001e FF20     		mov	r0, #255
 355 0020 FFF7FEFF 		bl	CapSense_SampleClk_StartEx
 333:.\Generated_Source\PSoC4/CapSense.c ****         CapSense_SenseClk_StartEx(CapSense_SampleClk__DIV_ID);
 356              		.loc 1 333 0
 357 0024 4020     		mov	r0, #64
 358 0026 FFF7FEFF 		bl	CapSense_SenseClk_StartEx
 334:.\Generated_Source\PSoC4/CapSense.c ****     #endif /* (0u == CapSense_IS_M0S8PERI_BLOCK) */
 335:.\Generated_Source\PSoC4/CapSense.c **** 
 336:.\Generated_Source\PSoC4/CapSense.c ****     /* Enable the CSD block */
 337:.\Generated_Source\PSoC4/CapSense.c ****     newRegValue = CapSense_CSD_CFG_REG;
 359              		.loc 1 337 0
 360 002a 084B     		ldr	r3, .L10
 361 002c 1B68     		ldr	r3, [r3]
 362 002e 7B60     		str	r3, [r7, #4]
 338:.\Generated_Source\PSoC4/CapSense.c ****     newRegValue |= (CapSense_CSD_CFG_ENABLE | CapSense_CSD_CFG_SENSE_COMP_EN
 363              		.loc 1 338 0
 364 0030 7B68     		ldr	r3, [r7, #4]
 365 0032 074A     		ldr	r2, .L10+4
 366 0034 1343     		orr	r3, r2
 367 0036 7B60     		str	r3, [r7, #4]
 339:.\Generated_Source\PSoC4/CapSense.c ****                                                    | CapSense_CSD_CFG_SENSE_EN);
 340:.\Generated_Source\PSoC4/CapSense.c ****     CapSense_CSD_CFG_REG = newRegValue;
 368              		.loc 1 340 0
 369 0038 044B     		ldr	r3, .L10
 370 003a 7A68     		ldr	r2, [r7, #4]
 371 003c 1A60     		str	r2, [r3]
 341:.\Generated_Source\PSoC4/CapSense.c **** 
 342:.\Generated_Source\PSoC4/CapSense.c ****     /* Enable interrupt */
 343:.\Generated_Source\PSoC4/CapSense.c ****     CyIntEnable(CapSense_ISR_NUMBER);
 372              		.loc 1 343 0
 373 003e 1020     		mov	r0, #16
 374 0040 FFF7FEFF 		bl	CyIntEnable
 344:.\Generated_Source\PSoC4/CapSense.c **** }
 375              		.loc 1 344 0
 376 0044 BD46     		mov	sp, r7
 377 0046 02B0     		add	sp, sp, #8
 378              		@ sp needed
 379 0048 80BD     		pop	{r7, pc}
 380              	.L11:
 381 004a C046     		.align	2
 382              	.L10:
 383 004c 04002840 		.word	1076363268
 384 0050 00100880 		.word	-2146955264
 385              		.cfi_endproc
 386              	.LFE37:
 387              		.size	CapSense_Enable, .-CapSense_Enable
 388              		.section	.text.CapSense_Start,"ax",%progbits
 389              		.align	2
 390              		.global	CapSense_Start
 391              		.code	16
 392              		.thumb_func
ARM GAS  C:\Users\DELL\AppData\Local\Temp\ccRYftE6.s 			page 14


 393              		.type	CapSense_Start, %function
 394              	CapSense_Start:
 395              	.LFB38:
 345:.\Generated_Source\PSoC4/CapSense.c **** 
 346:.\Generated_Source\PSoC4/CapSense.c **** 
 347:.\Generated_Source\PSoC4/CapSense.c **** /*******************************************************************************
 348:.\Generated_Source\PSoC4/CapSense.c **** * Function Name: CapSense_Start
 349:.\Generated_Source\PSoC4/CapSense.c **** ********************************************************************************
 350:.\Generated_Source\PSoC4/CapSense.c **** *
 351:.\Generated_Source\PSoC4/CapSense.c **** * Summary:
 352:.\Generated_Source\PSoC4/CapSense.c **** *  This is the preferred method to begin the component operation. CapSense_Start()
 353:.\Generated_Source\PSoC4/CapSense.c **** *  calls the CapSense_Init() function, and then calls the CapSense_Enable()
 354:.\Generated_Source\PSoC4/CapSense.c **** *  function. Initializes the registers and starts the CSD method of the CapSense
 355:.\Generated_Source\PSoC4/CapSense.c **** *  component. Resets all the sensors to an inactive state. Enables interrupts for
 356:.\Generated_Source\PSoC4/CapSense.c **** *  sensors scanning. When the SmartSense tuning mode is selected, the tuning procedure
 357:.\Generated_Source\PSoC4/CapSense.c **** *  is applied for all the sensors. The CapSense_Start() routine must be called before
 358:.\Generated_Source\PSoC4/CapSense.c **** *  any other API routines.
 359:.\Generated_Source\PSoC4/CapSense.c **** *
 360:.\Generated_Source\PSoC4/CapSense.c **** * Parameters:
 361:.\Generated_Source\PSoC4/CapSense.c **** *  None
 362:.\Generated_Source\PSoC4/CapSense.c **** *
 363:.\Generated_Source\PSoC4/CapSense.c **** * Return:
 364:.\Generated_Source\PSoC4/CapSense.c **** *  None
 365:.\Generated_Source\PSoC4/CapSense.c **** *
 366:.\Generated_Source\PSoC4/CapSense.c **** * Global Variables:
 367:.\Generated_Source\PSoC4/CapSense.c **** *   CapSense_initVar - used to check the initial configuration,
 368:.\Generated_Source\PSoC4/CapSense.c **** *   modified on the first function call.
 369:.\Generated_Source\PSoC4/CapSense.c **** *  CapSense_lowLevelTuningDone - Used to notify the Tuner GUI that
 370:.\Generated_Source\PSoC4/CapSense.c **** *   tuning of the scanning parameters is done.
 371:.\Generated_Source\PSoC4/CapSense.c **** *
 372:.\Generated_Source\PSoC4/CapSense.c **** * Side Effects:
 373:.\Generated_Source\PSoC4/CapSense.c **** *  None
 374:.\Generated_Source\PSoC4/CapSense.c **** *
 375:.\Generated_Source\PSoC4/CapSense.c **** *******************************************************************************/
 376:.\Generated_Source\PSoC4/CapSense.c **** void CapSense_Start(void)
 377:.\Generated_Source\PSoC4/CapSense.c **** {
 396              		.loc 1 377 0
 397              		.cfi_startproc
 398 0000 80B5     		push	{r7, lr}
 399              		.cfi_def_cfa_offset 8
 400              		.cfi_offset 7, -8
 401              		.cfi_offset 14, -4
 402 0002 00AF     		add	r7, sp, #0
 403              		.cfi_def_cfa_register 7
 378:.\Generated_Source\PSoC4/CapSense.c **** 
 379:.\Generated_Source\PSoC4/CapSense.c ****     static uint8 CapSense_initVar = 0u;
 380:.\Generated_Source\PSoC4/CapSense.c **** 
 381:.\Generated_Source\PSoC4/CapSense.c ****     #if((0u != CapSense_AUTOCALIBRATION_ENABLE) && (CapSense_TUNING_METHOD != CapSense__TUNING_AUTO
 382:.\Generated_Source\PSoC4/CapSense.c ****         uint32 curSensor;
 383:.\Generated_Source\PSoC4/CapSense.c ****         uint32 rawLevel;
 384:.\Generated_Source\PSoC4/CapSense.c ****         uint32 widget;
 385:.\Generated_Source\PSoC4/CapSense.c ****     #endif /* ((0u != CapSense_AUTOCALIBRATION_ENABLE) && (CapSense_TUNING_METHOD != CapSense__TUNI
 386:.\Generated_Source\PSoC4/CapSense.c **** 
 387:.\Generated_Source\PSoC4/CapSense.c ****     if (CapSense_initVar == 0u)
 404              		.loc 1 387 0
 405 0004 0C4B     		ldr	r3, .L14
 406 0006 1B78     		ldrb	r3, [r3]
ARM GAS  C:\Users\DELL\AppData\Local\Temp\ccRYftE6.s 			page 15


 407 0008 002B     		cmp	r3, #0
 408 000a 04D1     		bne	.L13
 388:.\Generated_Source\PSoC4/CapSense.c ****     {
 389:.\Generated_Source\PSoC4/CapSense.c ****         CapSense_Init();
 409              		.loc 1 389 0
 410 000c FFF7FEFF 		bl	CapSense_Init
 390:.\Generated_Source\PSoC4/CapSense.c ****         CapSense_initVar = 1u;
 411              		.loc 1 390 0
 412 0010 094B     		ldr	r3, .L14
 413 0012 0122     		mov	r2, #1
 414 0014 1A70     		strb	r2, [r3]
 415              	.L13:
 391:.\Generated_Source\PSoC4/CapSense.c ****     }
 392:.\Generated_Source\PSoC4/CapSense.c ****     CapSense_Enable();
 416              		.loc 1 392 0
 417 0016 FFF7FEFF 		bl	CapSense_Enable
 393:.\Generated_Source\PSoC4/CapSense.c **** 
 394:.\Generated_Source\PSoC4/CapSense.c ****     /* AutoTunning start */
 395:.\Generated_Source\PSoC4/CapSense.c ****     #if(CapSense_TUNING_METHOD == CapSense__TUNING_AUTO)
 396:.\Generated_Source\PSoC4/CapSense.c ****         #if(0u != CapSense_CSHL_API_GENERATE)
 397:.\Generated_Source\PSoC4/CapSense.c ****             CapSense_AutoTune();
 418              		.loc 1 397 0
 419 001a FFF7FEFF 		bl	CapSense_AutoTune
 398:.\Generated_Source\PSoC4/CapSense.c ****             CapSense_lowLevelTuningDone = 1u;
 420              		.loc 1 398 0
 421 001e 074B     		ldr	r3, .L14+4
 422 0020 0122     		mov	r2, #1
 423 0022 1A70     		strb	r2, [r3]
 399:.\Generated_Source\PSoC4/CapSense.c ****         #endif /* (0u != CapSense_CSHL_API_GENERATE) */
 400:.\Generated_Source\PSoC4/CapSense.c ****     #else
 401:.\Generated_Source\PSoC4/CapSense.c ****         #if(0u != CapSense_AUTOCALIBRATION_ENABLE)
 402:.\Generated_Source\PSoC4/CapSense.c **** 
 403:.\Generated_Source\PSoC4/CapSense.c ****             #if(CapSense_IDAC_CNT > 1u)
 404:.\Generated_Source\PSoC4/CapSense.c ****                 CapSense_CSD_IDAC_REG &= ~(CapSense_CSD_IDAC2_MODE_MASK);
 405:.\Generated_Source\PSoC4/CapSense.c ****             #endif /* (CapSense_IDAC_CNT > 1u) */
 406:.\Generated_Source\PSoC4/CapSense.c **** 
 407:.\Generated_Source\PSoC4/CapSense.c ****             for(curSensor = 0u; curSensor < CapSense_TOTAL_SCANSLOT_COUNT; curSensor++)
 408:.\Generated_Source\PSoC4/CapSense.c ****             {
 409:.\Generated_Source\PSoC4/CapSense.c ****                 widget = CapSense_widgetNumber[curSensor];
 410:.\Generated_Source\PSoC4/CapSense.c ****                 rawLevel = CapSense_widgetResolution[widget] >> CapSense_RESOLUTION_OFFSET;
 411:.\Generated_Source\PSoC4/CapSense.c **** 
 412:.\Generated_Source\PSoC4/CapSense.c ****                 /* Calibration level should be equal to 85% from scanning resolution */
 413:.\Generated_Source\PSoC4/CapSense.c ****                 rawLevel = (rawLevel * 85u) / 100u;
 414:.\Generated_Source\PSoC4/CapSense.c **** 
 415:.\Generated_Source\PSoC4/CapSense.c ****                 CapSense_CalibrateSensor(curSensor, rawLevel, CapSense_modulationIDAC);
 416:.\Generated_Source\PSoC4/CapSense.c ****             }
 417:.\Generated_Source\PSoC4/CapSense.c **** 
 418:.\Generated_Source\PSoC4/CapSense.c ****             #if(0u != CapSense_TOTAL_CENTROIDS_COUNT)
 419:.\Generated_Source\PSoC4/CapSense.c ****                 CapSense_NormalizeWidgets(CapSense_END_OF_WIDGETS_INDEX, CapSense_modulationIDAC);
 420:.\Generated_Source\PSoC4/CapSense.c ****             #endif /* (0u != CapSense_TOTAL_CENTROIDS_COUNT)  */
 421:.\Generated_Source\PSoC4/CapSense.c **** 
 422:.\Generated_Source\PSoC4/CapSense.c ****             #if(CapSense_IDAC_CNT > 1u)
 423:.\Generated_Source\PSoC4/CapSense.c ****                 for(curSensor = 0u; curSensor < CapSense_TOTAL_SCANSLOT_COUNT; curSensor++)
 424:.\Generated_Source\PSoC4/CapSense.c ****                 {
 425:.\Generated_Source\PSoC4/CapSense.c ****                     CapSense_compensationIDAC[curSensor] = CapSense_modulationIDAC[curSensor] / 2u;
 426:.\Generated_Source\PSoC4/CapSense.c ****                     CapSense_modulationIDAC[curSensor] = (CapSense_modulationIDAC[curSensor] + 1u) 
 427:.\Generated_Source\PSoC4/CapSense.c ****                 }
ARM GAS  C:\Users\DELL\AppData\Local\Temp\ccRYftE6.s 			page 16


 428:.\Generated_Source\PSoC4/CapSense.c ****                 CapSense_CSD_IDAC_REG |= CapSense_CSD_IDAC2_MODE_FIXED;
 429:.\Generated_Source\PSoC4/CapSense.c ****             #endif /* (CapSense_IDAC_CNT > 1u) */
 430:.\Generated_Source\PSoC4/CapSense.c **** 
 431:.\Generated_Source\PSoC4/CapSense.c ****         #endif /* (0u != CapSense_AUTOCALIBRATION_ENABLE) */
 432:.\Generated_Source\PSoC4/CapSense.c **** 
 433:.\Generated_Source\PSoC4/CapSense.c ****     #endif /* ((CapSense_TUNING_METHOD == CapSense__TUNING_AUTO) */
 434:.\Generated_Source\PSoC4/CapSense.c **** 
 435:.\Generated_Source\PSoC4/CapSense.c ****     /* Initialize Advanced Centroid */
 436:.\Generated_Source\PSoC4/CapSense.c ****     #if(CapSense_TOTAL_TRACKPAD_GESTURES_COUNT > 0u)
 437:.\Generated_Source\PSoC4/CapSense.c ****         CapSense_AdvancedCentroidInit();
 438:.\Generated_Source\PSoC4/CapSense.c ****     #endif /* (CapSense_TOTAL_TRACKPAD_GESTURES_COUNT > 0u) */
 439:.\Generated_Source\PSoC4/CapSense.c **** 
 440:.\Generated_Source\PSoC4/CapSense.c ****     /* Connect sense comparator input to AMUXA */
 441:.\Generated_Source\PSoC4/CapSense.c ****     CapSense_CSD_CFG_REG |= CapSense_CSD_CFG_SENSE_INSEL;
 424              		.loc 1 441 0
 425 0024 064B     		ldr	r3, .L14+8
 426 0026 064A     		ldr	r2, .L14+8
 427 0028 1268     		ldr	r2, [r2]
 428 002a 8021     		mov	r1, #128
 429 002c C903     		lsl	r1, r1, #15
 430 002e 0A43     		orr	r2, r1
 431 0030 1A60     		str	r2, [r3]
 442:.\Generated_Source\PSoC4/CapSense.c **** }
 432              		.loc 1 442 0
 433 0032 BD46     		mov	sp, r7
 434              		@ sp needed
 435 0034 80BD     		pop	{r7, pc}
 436              	.L15:
 437 0036 C046     		.align	2
 438              	.L14:
 439 0038 0E000000 		.word	CapSense_initVar.5283
 440 003c 00000000 		.word	CapSense_lowLevelTuningDone
 441 0040 04002840 		.word	1076363268
 442              		.cfi_endproc
 443              	.LFE38:
 444              		.size	CapSense_Start, .-CapSense_Start
 445              		.section	.text.CapSense_Stop,"ax",%progbits
 446              		.align	2
 447              		.global	CapSense_Stop
 448              		.code	16
 449              		.thumb_func
 450              		.type	CapSense_Stop, %function
 451              	CapSense_Stop:
 452              	.LFB39:
 443:.\Generated_Source\PSoC4/CapSense.c **** 
 444:.\Generated_Source\PSoC4/CapSense.c **** 
 445:.\Generated_Source\PSoC4/CapSense.c **** /*******************************************************************************
 446:.\Generated_Source\PSoC4/CapSense.c **** * Function Name: CapSense_Stop
 447:.\Generated_Source\PSoC4/CapSense.c **** ********************************************************************************
 448:.\Generated_Source\PSoC4/CapSense.c **** *
 449:.\Generated_Source\PSoC4/CapSense.c **** * Summary:
 450:.\Generated_Source\PSoC4/CapSense.c **** *  Stops the sensor scanning, disables component interrupts, and resets all the
 451:.\Generated_Source\PSoC4/CapSense.c **** *  sensors to an inactive state. Disables the Active mode power template bits for
 452:.\Generated_Source\PSoC4/CapSense.c **** *  the subcomponents used within CapSense.
 453:.\Generated_Source\PSoC4/CapSense.c **** *
 454:.\Generated_Source\PSoC4/CapSense.c **** * Parameters:
 455:.\Generated_Source\PSoC4/CapSense.c **** *  None
ARM GAS  C:\Users\DELL\AppData\Local\Temp\ccRYftE6.s 			page 17


 456:.\Generated_Source\PSoC4/CapSense.c **** *
 457:.\Generated_Source\PSoC4/CapSense.c **** * Return:
 458:.\Generated_Source\PSoC4/CapSense.c **** *  None
 459:.\Generated_Source\PSoC4/CapSense.c **** *
 460:.\Generated_Source\PSoC4/CapSense.c **** * Global Variables:
 461:.\Generated_Source\PSoC4/CapSense.c **** *  CapSense_csdTrim1 - Contains the IDAC trim register value for the Sourcing Mode.
 462:.\Generated_Source\PSoC4/CapSense.c **** *  CapSense_csdTrim2 - Contains the IDAC trim register value for vSinking Mode.
 463:.\Generated_Source\PSoC4/CapSense.c **** *
 464:.\Generated_Source\PSoC4/CapSense.c **** * Side Effects:
 465:.\Generated_Source\PSoC4/CapSense.c **** *  This function should be called after scans are completed.
 466:.\Generated_Source\PSoC4/CapSense.c **** *
 467:.\Generated_Source\PSoC4/CapSense.c **** *******************************************************************************/
 468:.\Generated_Source\PSoC4/CapSense.c **** void CapSense_Stop(void)
 469:.\Generated_Source\PSoC4/CapSense.c **** {
 453              		.loc 1 469 0
 454              		.cfi_startproc
 455 0000 80B5     		push	{r7, lr}
 456              		.cfi_def_cfa_offset 8
 457              		.cfi_offset 7, -8
 458              		.cfi_offset 14, -4
 459 0002 00AF     		add	r7, sp, #0
 460              		.cfi_def_cfa_register 7
 470:.\Generated_Source\PSoC4/CapSense.c ****     /* Disable interrupt */
 471:.\Generated_Source\PSoC4/CapSense.c ****     CyIntDisable(CapSense_ISR_NUMBER);
 461              		.loc 1 471 0
 462 0004 1020     		mov	r0, #16
 463 0006 FFF7FEFF 		bl	CyIntDisable
 472:.\Generated_Source\PSoC4/CapSense.c **** 
 473:.\Generated_Source\PSoC4/CapSense.c ****     CapSense_CSD_CFG_REG &= ~(CapSense_CSD_CFG_SENSE_COMP_EN | CapSense_CSD_CFG_SENSE_EN);
 464              		.loc 1 473 0
 465 000a 094B     		ldr	r3, .L17
 466 000c 084A     		ldr	r2, .L17
 467 000e 1268     		ldr	r2, [r2]
 468 0010 0849     		ldr	r1, .L17+4
 469 0012 0A40     		and	r2, r1
 470 0014 1A60     		str	r2, [r3]
 474:.\Generated_Source\PSoC4/CapSense.c **** 
 475:.\Generated_Source\PSoC4/CapSense.c ****     #if(CapSense_IDAC_CNT == 2u)
 476:.\Generated_Source\PSoC4/CapSense.c ****         CapSense_CSD_CFG_REG &= ~(CapSense_CSD_CFG_ENABLE);
 471              		.loc 1 476 0
 472 0016 064B     		ldr	r3, .L17
 473 0018 054A     		ldr	r2, .L17
 474 001a 1268     		ldr	r2, [r2]
 475 001c 5200     		lsl	r2, r2, #1
 476 001e 5208     		lsr	r2, r2, #1
 477 0020 1A60     		str	r2, [r3]
 477:.\Generated_Source\PSoC4/CapSense.c ****     #endif /* (CapSense_IDAC_CNT == 2u) */
 478:.\Generated_Source\PSoC4/CapSense.c **** 
 479:.\Generated_Source\PSoC4/CapSense.c ****     /* Disable the Clocks */
 480:.\Generated_Source\PSoC4/CapSense.c ****     CapSense_SenseClk_Stop();
 478              		.loc 1 480 0
 479 0022 FFF7FEFF 		bl	CapSense_SenseClk_Stop
 481:.\Generated_Source\PSoC4/CapSense.c ****     CapSense_SampleClk_Stop();
 480              		.loc 1 481 0
 481 0026 FFF7FEFF 		bl	CapSense_SampleClk_Stop
 482:.\Generated_Source\PSoC4/CapSense.c **** }
 482              		.loc 1 482 0
ARM GAS  C:\Users\DELL\AppData\Local\Temp\ccRYftE6.s 			page 18


 483 002a BD46     		mov	sp, r7
 484              		@ sp needed
 485 002c 80BD     		pop	{r7, pc}
 486              	.L18:
 487 002e C046     		.align	2
 488              	.L17:
 489 0030 04002840 		.word	1076363268
 490 0034 FFEFF7FF 		.word	-528385
 491              		.cfi_endproc
 492              	.LFE39:
 493              		.size	CapSense_Stop, .-CapSense_Stop
 494              		.section	.text.CapSense_FindNextSensor,"ax",%progbits
 495              		.align	2
 496              		.global	CapSense_FindNextSensor
 497              		.code	16
 498              		.thumb_func
 499              		.type	CapSense_FindNextSensor, %function
 500              	CapSense_FindNextSensor:
 501              	.LFB40:
 483:.\Generated_Source\PSoC4/CapSense.c **** 
 484:.\Generated_Source\PSoC4/CapSense.c **** 
 485:.\Generated_Source\PSoC4/CapSense.c **** /*******************************************************************************
 486:.\Generated_Source\PSoC4/CapSense.c **** * Function Name: CapSense_FindNextSensor
 487:.\Generated_Source\PSoC4/CapSense.c **** ********************************************************************************
 488:.\Generated_Source\PSoC4/CapSense.c **** *
 489:.\Generated_Source\PSoC4/CapSense.c **** * Summary:
 490:.\Generated_Source\PSoC4/CapSense.c **** *  Finds the next sensor to scan.
 491:.\Generated_Source\PSoC4/CapSense.c **** *
 492:.\Generated_Source\PSoC4/CapSense.c **** * Parameters:
 493:.\Generated_Source\PSoC4/CapSense.c **** *  snsIndex:  Current index of sensor.
 494:.\Generated_Source\PSoC4/CapSense.c **** *
 495:.\Generated_Source\PSoC4/CapSense.c **** * Return:
 496:.\Generated_Source\PSoC4/CapSense.c **** *  Returns the next sensor index to scan.
 497:.\Generated_Source\PSoC4/CapSense.c **** *
 498:.\Generated_Source\PSoC4/CapSense.c **** * Global Variables:
 499:.\Generated_Source\PSoC4/CapSense.c **** *  CapSense_sensorEnableMask[] - used to store bit masks of the enabled sensors.
 500:.\Generated_Source\PSoC4/CapSense.c **** *
 501:.\Generated_Source\PSoC4/CapSense.c **** * Side Effects:
 502:.\Generated_Source\PSoC4/CapSense.c **** *  This function affects the  current scanning and should not
 503:.\Generated_Source\PSoC4/CapSense.c **** *  be used outside the component.
 504:.\Generated_Source\PSoC4/CapSense.c **** *
 505:.\Generated_Source\PSoC4/CapSense.c **** *******************************************************************************/
 506:.\Generated_Source\PSoC4/CapSense.c **** uint8 CapSense_FindNextSensor(uint8 snsIndex)
 507:.\Generated_Source\PSoC4/CapSense.c **** {
 502              		.loc 1 507 0
 503              		.cfi_startproc
 504 0000 80B5     		push	{r7, lr}
 505              		.cfi_def_cfa_offset 8
 506              		.cfi_offset 7, -8
 507              		.cfi_offset 14, -4
 508 0002 84B0     		sub	sp, sp, #16
 509              		.cfi_def_cfa_offset 24
 510 0004 00AF     		add	r7, sp, #0
 511              		.cfi_def_cfa_register 7
 512 0006 021C     		mov	r2, r0
 513 0008 FB1D     		add	r3, r7, #7
 514 000a 1A70     		strb	r2, [r3]
ARM GAS  C:\Users\DELL\AppData\Local\Temp\ccRYftE6.s 			page 19


 515              	.L22:
 508:.\Generated_Source\PSoC4/CapSense.c ****     uint32 enableFlag;
 509:.\Generated_Source\PSoC4/CapSense.c **** 
 510:.\Generated_Source\PSoC4/CapSense.c ****     /* Check if sensor enabled */
 511:.\Generated_Source\PSoC4/CapSense.c ****     do
 512:.\Generated_Source\PSoC4/CapSense.c ****     {
 513:.\Generated_Source\PSoC4/CapSense.c ****         /* Proceed with next sensor */
 514:.\Generated_Source\PSoC4/CapSense.c ****         snsIndex++;
 516              		.loc 1 514 0
 517 000c FB1D     		add	r3, r7, #7
 518 000e 1A78     		ldrb	r2, [r3]
 519 0010 FB1D     		add	r3, r7, #7
 520 0012 0132     		add	r2, r2, #1
 521 0014 1A70     		strb	r2, [r3]
 515:.\Generated_Source\PSoC4/CapSense.c ****         if(snsIndex == CapSense_TOTAL_SENSOR_COUNT)
 522              		.loc 1 515 0
 523 0016 FB1D     		add	r3, r7, #7
 524 0018 1B78     		ldrb	r3, [r3]
 525 001a 052B     		cmp	r3, #5
 526 001c 00D1     		bne	.L20
 516:.\Generated_Source\PSoC4/CapSense.c ****         {
 517:.\Generated_Source\PSoC4/CapSense.c ****             break;
 527              		.loc 1 517 0
 528 001e 0BE0     		b	.L21
 529              	.L20:
 518:.\Generated_Source\PSoC4/CapSense.c ****         }
 519:.\Generated_Source\PSoC4/CapSense.c ****         enableFlag = CapSense_GetBitValue(CapSense_sensorEnableMask, (uint32)snsIndex);
 530              		.loc 1 519 0
 531 0020 FB1D     		add	r3, r7, #7
 532 0022 1B78     		ldrb	r3, [r3]
 533 0024 074A     		ldr	r2, .L24
 534 0026 101C     		mov	r0, r2
 535 0028 191C     		mov	r1, r3
 536 002a FFF7FEFF 		bl	CapSense_GetBitValue
 537 002e 031C     		mov	r3, r0
 538 0030 FB60     		str	r3, [r7, #12]
 520:.\Generated_Source\PSoC4/CapSense.c ****     }
 521:.\Generated_Source\PSoC4/CapSense.c ****     while(enableFlag == 0u);
 539              		.loc 1 521 0
 540 0032 FB68     		ldr	r3, [r7, #12]
 541 0034 002B     		cmp	r3, #0
 542 0036 E9D0     		beq	.L22
 543              	.L21:
 522:.\Generated_Source\PSoC4/CapSense.c **** 
 523:.\Generated_Source\PSoC4/CapSense.c ****     return ((uint8)snsIndex);
 544              		.loc 1 523 0
 545 0038 FB1D     		add	r3, r7, #7
 546 003a 1B78     		ldrb	r3, [r3]
 524:.\Generated_Source\PSoC4/CapSense.c **** }
 547              		.loc 1 524 0
 548 003c 181C     		mov	r0, r3
 549 003e BD46     		mov	sp, r7
 550 0040 04B0     		add	sp, sp, #16
 551              		@ sp needed
 552 0042 80BD     		pop	{r7, pc}
 553              	.L25:
 554              		.align	2
ARM GAS  C:\Users\DELL\AppData\Local\Temp\ccRYftE6.s 			page 20


 555              	.L24:
 556 0044 00000000 		.word	CapSense_sensorEnableMask
 557              		.cfi_endproc
 558              	.LFE40:
 559              		.size	CapSense_FindNextSensor, .-CapSense_FindNextSensor
 560              		.section	.text.CapSense_ScanSensor,"ax",%progbits
 561              		.align	2
 562              		.global	CapSense_ScanSensor
 563              		.code	16
 564              		.thumb_func
 565              		.type	CapSense_ScanSensor, %function
 566              	CapSense_ScanSensor:
 567              	.LFB41:
 525:.\Generated_Source\PSoC4/CapSense.c **** 
 526:.\Generated_Source\PSoC4/CapSense.c **** 
 527:.\Generated_Source\PSoC4/CapSense.c **** /*******************************************************************************
 528:.\Generated_Source\PSoC4/CapSense.c **** * Function Name: CapSense_ScanSensor
 529:.\Generated_Source\PSoC4/CapSense.c **** ********************************************************************************
 530:.\Generated_Source\PSoC4/CapSense.c **** *
 531:.\Generated_Source\PSoC4/CapSense.c **** * Summary:
 532:.\Generated_Source\PSoC4/CapSense.c **** *  Sets the scan settings and starts scanning a sensor. After scanning is complete,
 533:.\Generated_Source\PSoC4/CapSense.c **** *  the ISR copies the measured sensor raw data to the global raw sensor array.
 534:.\Generated_Source\PSoC4/CapSense.c **** *  Use of the ISR ensures this function is non-blocking.
 535:.\Generated_Source\PSoC4/CapSense.c **** *  Each sensor has a unique number within the sensor array.
 536:.\Generated_Source\PSoC4/CapSense.c **** *  This number is assigned by the CapSense customizer in sequence.
 537:.\Generated_Source\PSoC4/CapSense.c **** *
 538:.\Generated_Source\PSoC4/CapSense.c **** * Parameters:
 539:.\Generated_Source\PSoC4/CapSense.c **** *  sensor:  Sensor number.
 540:.\Generated_Source\PSoC4/CapSense.c **** *
 541:.\Generated_Source\PSoC4/CapSense.c **** * Return:
 542:.\Generated_Source\PSoC4/CapSense.c **** *  None
 543:.\Generated_Source\PSoC4/CapSense.c **** *
 544:.\Generated_Source\PSoC4/CapSense.c **** * Global Variables:
 545:.\Generated_Source\PSoC4/CapSense.c **** *  CapSense_csdStatusVar - used to provide the status and mode of the scanning process.
 546:.\Generated_Source\PSoC4/CapSense.c **** *  Sets the busy status(scan in progress) and mode of scan as single scan.
 547:.\Generated_Source\PSoC4/CapSense.c **** *  CapSense_sensorIndex - used to store a sensor scanning sensor number.
 548:.\Generated_Source\PSoC4/CapSense.c **** *  Sets to the provided sensor argument.
 549:.\Generated_Source\PSoC4/CapSense.c **** *
 550:.\Generated_Source\PSoC4/CapSense.c **** * Side Effects:
 551:.\Generated_Source\PSoC4/CapSense.c **** *  None
 552:.\Generated_Source\PSoC4/CapSense.c **** *
 553:.\Generated_Source\PSoC4/CapSense.c **** *******************************************************************************/
 554:.\Generated_Source\PSoC4/CapSense.c **** void CapSense_ScanSensor(uint32 sensor)
 555:.\Generated_Source\PSoC4/CapSense.c **** {
 568              		.loc 1 555 0
 569              		.cfi_startproc
 570 0000 80B5     		push	{r7, lr}
 571              		.cfi_def_cfa_offset 8
 572              		.cfi_offset 7, -8
 573              		.cfi_offset 14, -4
 574 0002 82B0     		sub	sp, sp, #8
 575              		.cfi_def_cfa_offset 16
 576 0004 00AF     		add	r7, sp, #0
 577              		.cfi_def_cfa_register 7
 578 0006 7860     		str	r0, [r7, #4]
 556:.\Generated_Source\PSoC4/CapSense.c ****     /* Clears status/control variable and set sensorIndex */
 557:.\Generated_Source\PSoC4/CapSense.c ****     CapSense_csdStatusVar = 0u;
ARM GAS  C:\Users\DELL\AppData\Local\Temp\ccRYftE6.s 			page 21


 579              		.loc 1 557 0
 580 0008 084B     		ldr	r3, .L27
 581 000a 0022     		mov	r2, #0
 582 000c 1A70     		strb	r2, [r3]
 558:.\Generated_Source\PSoC4/CapSense.c ****     CapSense_sensorIndex = (uint8)sensor;
 583              		.loc 1 558 0
 584 000e 7B68     		ldr	r3, [r7, #4]
 585 0010 DAB2     		uxtb	r2, r3
 586 0012 074B     		ldr	r3, .L27+4
 587 0014 1A70     		strb	r2, [r3]
 559:.\Generated_Source\PSoC4/CapSense.c **** 
 560:.\Generated_Source\PSoC4/CapSense.c ****     /* Start of sensor scan */
 561:.\Generated_Source\PSoC4/CapSense.c ****     CapSense_csdStatusVar = (CapSense_SW_STS_BUSY | CapSense_SW_CTRL_SINGLE_SCAN);
 588              		.loc 1 561 0
 589 0016 054B     		ldr	r3, .L27
 590 0018 8122     		mov	r2, #129
 591 001a 1A70     		strb	r2, [r3]
 562:.\Generated_Source\PSoC4/CapSense.c ****     CapSense_PreScan(sensor);
 592              		.loc 1 562 0
 593 001c 7B68     		ldr	r3, [r7, #4]
 594 001e 181C     		mov	r0, r3
 595 0020 FFF7FEFF 		bl	CapSense_PreScan
 563:.\Generated_Source\PSoC4/CapSense.c **** }
 596              		.loc 1 563 0
 597 0024 BD46     		mov	sp, r7
 598 0026 02B0     		add	sp, sp, #8
 599              		@ sp needed
 600 0028 80BD     		pop	{r7, pc}
 601              	.L28:
 602 002a C046     		.align	2
 603              	.L27:
 604 002c 00000000 		.word	CapSense_csdStatusVar
 605 0030 00000000 		.word	CapSense_sensorIndex
 606              		.cfi_endproc
 607              	.LFE41:
 608              		.size	CapSense_ScanSensor, .-CapSense_ScanSensor
 609              		.section	.text.CapSense_ScanWidget,"ax",%progbits
 610              		.align	2
 611              		.global	CapSense_ScanWidget
 612              		.code	16
 613              		.thumb_func
 614              		.type	CapSense_ScanWidget, %function
 615              	CapSense_ScanWidget:
 616              	.LFB42:
 564:.\Generated_Source\PSoC4/CapSense.c **** 
 565:.\Generated_Source\PSoC4/CapSense.c **** 
 566:.\Generated_Source\PSoC4/CapSense.c **** #if(0u != CapSense_CSHL_API_GENERATE)
 567:.\Generated_Source\PSoC4/CapSense.c **** /*******************************************************************************
 568:.\Generated_Source\PSoC4/CapSense.c **** * Function Name: CapSense_ScanWidget
 569:.\Generated_Source\PSoC4/CapSense.c **** ********************************************************************************
 570:.\Generated_Source\PSoC4/CapSense.c **** *
 571:.\Generated_Source\PSoC4/CapSense.c **** * Summary:
 572:.\Generated_Source\PSoC4/CapSense.c **** *  Sets the scan settings and starts scanning a widget.
 573:.\Generated_Source\PSoC4/CapSense.c **** *
 574:.\Generated_Source\PSoC4/CapSense.c **** * Parameters:
 575:.\Generated_Source\PSoC4/CapSense.c **** *  uint32 widget: Widget number.
 576:.\Generated_Source\PSoC4/CapSense.c **** *
ARM GAS  C:\Users\DELL\AppData\Local\Temp\ccRYftE6.s 			page 22


 577:.\Generated_Source\PSoC4/CapSense.c **** * Return:
 578:.\Generated_Source\PSoC4/CapSense.c **** *  None
 579:.\Generated_Source\PSoC4/CapSense.c **** *
 580:.\Generated_Source\PSoC4/CapSense.c **** * Global Variables:
 581:.\Generated_Source\PSoC4/CapSense.c **** *  CapSense_csdStatusVar - used to provide the status and mode of the scanning process.
 582:.\Generated_Source\PSoC4/CapSense.c **** *  Sets the busy status(scan in progress) and clears the single scan mode.
 583:.\Generated_Source\PSoC4/CapSense.c **** *  CapSense_sensorIndex - used to store a sensor scanning sensor number.
 584:.\Generated_Source\PSoC4/CapSense.c **** *  Sets to 0xFF and provided to function CapSense_FindNextSensor or
 585:.\Generated_Source\PSoC4/CapSense.c **** *  CapSense_sensorEnableMask[] - used to store bit masks of the enabled sensors.
 586:.\Generated_Source\PSoC4/CapSense.c **** *  CapSense_sensorEnableMaskBackup[] - used to backup bit masks of the enabled
 587:.\Generated_Source\PSoC4/CapSense.c **** *   sensors.
 588:.\Generated_Source\PSoC4/CapSense.c **** *
 589:.\Generated_Source\PSoC4/CapSense.c **** * Side Effects:
 590:.\Generated_Source\PSoC4/CapSense.c **** *  None
 591:.\Generated_Source\PSoC4/CapSense.c **** *
 592:.\Generated_Source\PSoC4/CapSense.c **** *******************************************************************************/
 593:.\Generated_Source\PSoC4/CapSense.c **** void CapSense_ScanWidget(uint32 widget)
 594:.\Generated_Source\PSoC4/CapSense.c **** {
 617              		.loc 1 594 0
 618              		.cfi_startproc
 619 0000 80B5     		push	{r7, lr}
 620              		.cfi_def_cfa_offset 8
 621              		.cfi_offset 7, -8
 622              		.cfi_offset 14, -4
 623 0002 86B0     		sub	sp, sp, #24
 624              		.cfi_def_cfa_offset 32
 625 0004 00AF     		add	r7, sp, #0
 626              		.cfi_def_cfa_register 7
 627 0006 7860     		str	r0, [r7, #4]
 595:.\Generated_Source\PSoC4/CapSense.c ****     uint32 sensorsPerWidget;
 596:.\Generated_Source\PSoC4/CapSense.c ****     uint32 lastSensor;
 597:.\Generated_Source\PSoC4/CapSense.c ****     uint32 snsIndex;
 598:.\Generated_Source\PSoC4/CapSense.c **** 
 599:.\Generated_Source\PSoC4/CapSense.c ****     /* Get first sensor in widget */
 600:.\Generated_Source\PSoC4/CapSense.c ****     CapSense_sensorIndex = CapSense_rawDataIndex[widget];
 628              		.loc 1 600 0
 629 0008 2F4A     		ldr	r2, .L38
 630 000a 7B68     		ldr	r3, [r7, #4]
 631 000c D318     		add	r3, r2, r3
 632 000e 1A78     		ldrb	r2, [r3]
 633 0010 2E4B     		ldr	r3, .L38+4
 634 0012 1A70     		strb	r2, [r3]
 601:.\Generated_Source\PSoC4/CapSense.c **** 
 602:.\Generated_Source\PSoC4/CapSense.c ****     /* Get number of sensors in widget */
 603:.\Generated_Source\PSoC4/CapSense.c ****     sensorsPerWidget = CapSense_numberOfSensors[widget];
 635              		.loc 1 603 0
 636 0014 2E4A     		ldr	r2, .L38+8
 637 0016 7B68     		ldr	r3, [r7, #4]
 638 0018 D318     		add	r3, r2, r3
 639 001a 1B78     		ldrb	r3, [r3]
 640 001c 7B61     		str	r3, [r7, #20]
 604:.\Generated_Source\PSoC4/CapSense.c **** 
 605:.\Generated_Source\PSoC4/CapSense.c ****     /* Check if generic Sensor */
 606:.\Generated_Source\PSoC4/CapSense.c ****     if(sensorsPerWidget == 0u)
 641              		.loc 1 606 0
 642 001e 7B69     		ldr	r3, [r7, #20]
 643 0020 002B     		cmp	r3, #0
ARM GAS  C:\Users\DELL\AppData\Local\Temp\ccRYftE6.s 			page 23


 644 0022 01D1     		bne	.L30
 607:.\Generated_Source\PSoC4/CapSense.c ****     {
 608:.\Generated_Source\PSoC4/CapSense.c ****         sensorsPerWidget = 1u;
 645              		.loc 1 608 0
 646 0024 0123     		mov	r3, #1
 647 0026 7B61     		str	r3, [r7, #20]
 648              	.L30:
 609:.\Generated_Source\PSoC4/CapSense.c ****     }
 610:.\Generated_Source\PSoC4/CapSense.c **** 
 611:.\Generated_Source\PSoC4/CapSense.c ****     /* Get last sensor in widget */
 612:.\Generated_Source\PSoC4/CapSense.c ****     lastSensor = (CapSense_rawDataIndex[widget] + sensorsPerWidget) - 1u;
 649              		.loc 1 612 0
 650 0028 274A     		ldr	r2, .L38
 651 002a 7B68     		ldr	r3, [r7, #4]
 652 002c D318     		add	r3, r2, r3
 653 002e 1B78     		ldrb	r3, [r3]
 654 0030 1A1C     		mov	r2, r3
 655 0032 7B69     		ldr	r3, [r7, #20]
 656 0034 D318     		add	r3, r2, r3
 657 0036 013B     		sub	r3, r3, #1
 658 0038 FB60     		str	r3, [r7, #12]
 613:.\Generated_Source\PSoC4/CapSense.c **** 
 614:.\Generated_Source\PSoC4/CapSense.c ****     /* Backup sensorEnableMask array */
 615:.\Generated_Source\PSoC4/CapSense.c ****     for(snsIndex = 0u; snsIndex < CapSense_TOTAL_SENSOR_MASK; snsIndex++)
 659              		.loc 1 615 0
 660 003a 0023     		mov	r3, #0
 661 003c 3B61     		str	r3, [r7, #16]
 662 003e 0BE0     		b	.L31
 663              	.L32:
 616:.\Generated_Source\PSoC4/CapSense.c ****     {
 617:.\Generated_Source\PSoC4/CapSense.c ****         /* Backup sensorEnableMask array */
 618:.\Generated_Source\PSoC4/CapSense.c ****         CapSense_sensorEnableMaskBackup[snsIndex] = CapSense_sensorEnableMask[snsIndex];
 664              		.loc 1 618 0 discriminator 3
 665 0040 244A     		ldr	r2, .L38+12
 666 0042 3B69     		ldr	r3, [r7, #16]
 667 0044 D318     		add	r3, r2, r3
 668 0046 1978     		ldrb	r1, [r3]
 669 0048 234A     		ldr	r2, .L38+16
 670 004a 3B69     		ldr	r3, [r7, #16]
 671 004c D318     		add	r3, r2, r3
 672 004e 0A1C     		add	r2, r1, #0
 673 0050 1A70     		strb	r2, [r3]
 615:.\Generated_Source\PSoC4/CapSense.c ****     {
 674              		.loc 1 615 0 discriminator 3
 675 0052 3B69     		ldr	r3, [r7, #16]
 676 0054 0133     		add	r3, r3, #1
 677 0056 3B61     		str	r3, [r7, #16]
 678              	.L31:
 615:.\Generated_Source\PSoC4/CapSense.c ****     {
 679              		.loc 1 615 0 is_stmt 0 discriminator 1
 680 0058 3B69     		ldr	r3, [r7, #16]
 681 005a 002B     		cmp	r3, #0
 682 005c F0D0     		beq	.L32
 619:.\Generated_Source\PSoC4/CapSense.c ****     }
 620:.\Generated_Source\PSoC4/CapSense.c **** 
 621:.\Generated_Source\PSoC4/CapSense.c ****     /* Update sensorEnableMask to scan the sensors that belong to widget */
 622:.\Generated_Source\PSoC4/CapSense.c ****     for(snsIndex = 0u; snsIndex < CapSense_TOTAL_SENSOR_COUNT; snsIndex++)
ARM GAS  C:\Users\DELL\AppData\Local\Temp\ccRYftE6.s 			page 24


 683              		.loc 1 622 0 is_stmt 1
 684 005e 0023     		mov	r3, #0
 685 0060 3B61     		str	r3, [r7, #16]
 686 0062 1CE0     		b	.L33
 687              	.L36:
 623:.\Generated_Source\PSoC4/CapSense.c ****     {
 624:.\Generated_Source\PSoC4/CapSense.c ****         /* Update sensorEnableMask array bits to scan the widget only */
 625:.\Generated_Source\PSoC4/CapSense.c ****         if((snsIndex >= CapSense_sensorIndex) && (snsIndex <= lastSensor))
 688              		.loc 1 625 0
 689 0064 194B     		ldr	r3, .L38+4
 690 0066 1B78     		ldrb	r3, [r3]
 691 0068 DBB2     		uxtb	r3, r3
 692 006a 1A1E     		sub	r2, r3, #0
 693 006c 3B69     		ldr	r3, [r7, #16]
 694 006e 9A42     		cmp	r2, r3
 695 0070 0BD8     		bhi	.L34
 696              		.loc 1 625 0 is_stmt 0 discriminator 1
 697 0072 3A69     		ldr	r2, [r7, #16]
 698 0074 FB68     		ldr	r3, [r7, #12]
 699 0076 9A42     		cmp	r2, r3
 700 0078 07D8     		bhi	.L34
 626:.\Generated_Source\PSoC4/CapSense.c ****         {
 627:.\Generated_Source\PSoC4/CapSense.c ****             /* Set sensor bit to scan */
 628:.\Generated_Source\PSoC4/CapSense.c ****             CapSense_SetBitValue(CapSense_sensorEnableMask, snsIndex, 1u);
 701              		.loc 1 628 0 is_stmt 1
 702 007a 164A     		ldr	r2, .L38+12
 703 007c 3B69     		ldr	r3, [r7, #16]
 704 007e 101C     		mov	r0, r2
 705 0080 191C     		mov	r1, r3
 706 0082 0122     		mov	r2, #1
 707 0084 FFF7FEFF 		bl	CapSense_SetBitValue
 708 0088 06E0     		b	.L35
 709              	.L34:
 629:.\Generated_Source\PSoC4/CapSense.c ****         }
 630:.\Generated_Source\PSoC4/CapSense.c ****         else
 631:.\Generated_Source\PSoC4/CapSense.c ****         {
 632:.\Generated_Source\PSoC4/CapSense.c ****             /* Reset sensor bit to do not scan */
 633:.\Generated_Source\PSoC4/CapSense.c ****             CapSense_SetBitValue(CapSense_sensorEnableMask, snsIndex, 0u);
 710              		.loc 1 633 0
 711 008a 124A     		ldr	r2, .L38+12
 712 008c 3B69     		ldr	r3, [r7, #16]
 713 008e 101C     		mov	r0, r2
 714 0090 191C     		mov	r1, r3
 715 0092 0022     		mov	r2, #0
 716 0094 FFF7FEFF 		bl	CapSense_SetBitValue
 717              	.L35:
 622:.\Generated_Source\PSoC4/CapSense.c ****     {
 718              		.loc 1 622 0 discriminator 2
 719 0098 3B69     		ldr	r3, [r7, #16]
 720 009a 0133     		add	r3, r3, #1
 721 009c 3B61     		str	r3, [r7, #16]
 722              	.L33:
 622:.\Generated_Source\PSoC4/CapSense.c ****     {
 723              		.loc 1 622 0 is_stmt 0 discriminator 1
 724 009e 3B69     		ldr	r3, [r7, #16]
 725 00a0 042B     		cmp	r3, #4
 726 00a2 DFD9     		bls	.L36
ARM GAS  C:\Users\DELL\AppData\Local\Temp\ccRYftE6.s 			page 25


 634:.\Generated_Source\PSoC4/CapSense.c ****         }
 635:.\Generated_Source\PSoC4/CapSense.c ****     }
 636:.\Generated_Source\PSoC4/CapSense.c **** 
 637:.\Generated_Source\PSoC4/CapSense.c ****     /* Check end of scan condition */
 638:.\Generated_Source\PSoC4/CapSense.c ****     if(CapSense_sensorIndex < CapSense_TOTAL_SENSOR_COUNT)
 727              		.loc 1 638 0 is_stmt 1
 728 00a4 094B     		ldr	r3, .L38+4
 729 00a6 1B78     		ldrb	r3, [r3]
 730 00a8 DBB2     		uxtb	r3, r3
 731 00aa 042B     		cmp	r3, #4
 732 00ac 08D8     		bhi	.L29
 639:.\Generated_Source\PSoC4/CapSense.c ****     {
 640:.\Generated_Source\PSoC4/CapSense.c ****         /* Set widget busy bit in status/control variable*/
 641:.\Generated_Source\PSoC4/CapSense.c ****         CapSense_csdStatusVar = (CapSense_SW_STS_BUSY | CapSense_SW_CTRL_WIDGET_SCAN);
 733              		.loc 1 641 0
 734 00ae 0B4B     		ldr	r3, .L38+20
 735 00b0 4122     		mov	r2, #65
 736 00b2 1A70     		strb	r2, [r3]
 642:.\Generated_Source\PSoC4/CapSense.c ****         /* Scan first sensor of widget*/
 643:.\Generated_Source\PSoC4/CapSense.c ****         CapSense_PreScan((uint32)CapSense_sensorIndex);
 737              		.loc 1 643 0
 738 00b4 054B     		ldr	r3, .L38+4
 739 00b6 1B78     		ldrb	r3, [r3]
 740 00b8 DBB2     		uxtb	r3, r3
 741 00ba 181C     		mov	r0, r3
 742 00bc FFF7FEFF 		bl	CapSense_PreScan
 743              	.L29:
 644:.\Generated_Source\PSoC4/CapSense.c ****     }
 645:.\Generated_Source\PSoC4/CapSense.c **** }
 744              		.loc 1 645 0
 745 00c0 BD46     		mov	sp, r7
 746 00c2 06B0     		add	sp, sp, #24
 747              		@ sp needed
 748 00c4 80BD     		pop	{r7, pc}
 749              	.L39:
 750 00c6 C046     		.align	2
 751              	.L38:
 752 00c8 00000000 		.word	CapSense_rawDataIndex
 753 00cc 00000000 		.word	CapSense_sensorIndex
 754 00d0 00000000 		.word	CapSense_numberOfSensors
 755 00d4 00000000 		.word	CapSense_sensorEnableMask
 756 00d8 00000000 		.word	CapSense_sensorEnableMaskBackup
 757 00dc 00000000 		.word	CapSense_csdStatusVar
 758              		.cfi_endproc
 759              	.LFE42:
 760              		.size	CapSense_ScanWidget, .-CapSense_ScanWidget
 761              		.section	.text.CapSense_ScanEnabledWidgets,"ax",%progbits
 762              		.align	2
 763              		.global	CapSense_ScanEnabledWidgets
 764              		.code	16
 765              		.thumb_func
 766              		.type	CapSense_ScanEnabledWidgets, %function
 767              	CapSense_ScanEnabledWidgets:
 768              	.LFB43:
 646:.\Generated_Source\PSoC4/CapSense.c **** #endif /* (0u != CapSense_CSHL_API_GENERATE) */
 647:.\Generated_Source\PSoC4/CapSense.c **** 
 648:.\Generated_Source\PSoC4/CapSense.c **** 
ARM GAS  C:\Users\DELL\AppData\Local\Temp\ccRYftE6.s 			page 26


 649:.\Generated_Source\PSoC4/CapSense.c **** /*******************************************************************************
 650:.\Generated_Source\PSoC4/CapSense.c **** * Function Name: CapSense_ScanEnableWidgets
 651:.\Generated_Source\PSoC4/CapSense.c **** ********************************************************************************
 652:.\Generated_Source\PSoC4/CapSense.c **** *
 653:.\Generated_Source\PSoC4/CapSense.c **** * Summary:
 654:.\Generated_Source\PSoC4/CapSense.c **** *  This is the preferred method to scan all of the enabled widgets.
 655:.\Generated_Source\PSoC4/CapSense.c **** *  The API starts scanning a sensor within the enabled widgets.
 656:.\Generated_Source\PSoC4/CapSense.c **** *  The ISR continues scanning the sensors until all the enabled widgets are scanned.
 657:.\Generated_Source\PSoC4/CapSense.c **** *  Use of the ISR ensures this function is non-blocking.
 658:.\Generated_Source\PSoC4/CapSense.c **** *  All the widgets are enabled by default except proximity widgets.
 659:.\Generated_Source\PSoC4/CapSense.c **** *  The proximity widgets must be manually enabled as their long scan time
 660:.\Generated_Source\PSoC4/CapSense.c **** *  is incompatible with a fast response required of other widget types.
 661:.\Generated_Source\PSoC4/CapSense.c **** *
 662:.\Generated_Source\PSoC4/CapSense.c **** * Parameters:
 663:.\Generated_Source\PSoC4/CapSense.c **** *  None
 664:.\Generated_Source\PSoC4/CapSense.c **** *
 665:.\Generated_Source\PSoC4/CapSense.c **** * Return:
 666:.\Generated_Source\PSoC4/CapSense.c **** *  None
 667:.\Generated_Source\PSoC4/CapSense.c **** *
 668:.\Generated_Source\PSoC4/CapSense.c **** * Global Variables:
 669:.\Generated_Source\PSoC4/CapSense.c **** *  CapSense_csdStatusVar - used to provide the status and mode of the scanning process.
 670:.\Generated_Source\PSoC4/CapSense.c **** *  Sets the busy status(scan in progress) and clears the single scan mode.
 671:.\Generated_Source\PSoC4/CapSense.c **** *  CapSense_sensorIndex - used to store a sensor scanning sensor number.
 672:.\Generated_Source\PSoC4/CapSense.c **** *  Sets to 0xFF and provided to function CapSense_FindNextSensor or
 673:.\Generated_Source\PSoC4/CapSense.c **** *
 674:.\Generated_Source\PSoC4/CapSense.c **** * Side Effects:
 675:.\Generated_Source\PSoC4/CapSense.c **** *  None
 676:.\Generated_Source\PSoC4/CapSense.c **** *
 677:.\Generated_Source\PSoC4/CapSense.c **** *******************************************************************************/
 678:.\Generated_Source\PSoC4/CapSense.c **** void CapSense_ScanEnabledWidgets(void)
 679:.\Generated_Source\PSoC4/CapSense.c **** {
 769              		.loc 1 679 0
 770              		.cfi_startproc
 771 0000 80B5     		push	{r7, lr}
 772              		.cfi_def_cfa_offset 8
 773              		.cfi_offset 7, -8
 774              		.cfi_offset 14, -4
 775 0002 00AF     		add	r7, sp, #0
 776              		.cfi_def_cfa_register 7
 680:.\Generated_Source\PSoC4/CapSense.c ****     /* Clears status/control variable and set sensorIndex */
 681:.\Generated_Source\PSoC4/CapSense.c ****     CapSense_csdStatusVar = 0u;
 777              		.loc 1 681 0
 778 0004 124B     		ldr	r3, .L42
 779 0006 0022     		mov	r2, #0
 780 0008 1A70     		strb	r2, [r3]
 682:.\Generated_Source\PSoC4/CapSense.c ****     CapSense_sensorIndex = 0xFFu;
 781              		.loc 1 682 0
 782 000a 124B     		ldr	r3, .L42+4
 783 000c FF22     		mov	r2, #255
 784 000e 1A70     		strb	r2, [r3]
 683:.\Generated_Source\PSoC4/CapSense.c **** 
 684:.\Generated_Source\PSoC4/CapSense.c ****     /* Find next sensor */
 685:.\Generated_Source\PSoC4/CapSense.c ****     CapSense_sensorIndex = (uint8)CapSense_FindNextSensor(CapSense_sensorIndex);
 785              		.loc 1 685 0
 786 0010 104B     		ldr	r3, .L42+4
 787 0012 1B78     		ldrb	r3, [r3]
 788 0014 DBB2     		uxtb	r3, r3
ARM GAS  C:\Users\DELL\AppData\Local\Temp\ccRYftE6.s 			page 27


 789 0016 181C     		mov	r0, r3
 790 0018 FFF7FEFF 		bl	CapSense_FindNextSensor
 791 001c 031C     		mov	r3, r0
 792 001e 1A1C     		mov	r2, r3
 793 0020 0C4B     		ldr	r3, .L42+4
 794 0022 1A70     		strb	r2, [r3]
 686:.\Generated_Source\PSoC4/CapSense.c **** 
 687:.\Generated_Source\PSoC4/CapSense.c ****     /* Check end of scan condition */
 688:.\Generated_Source\PSoC4/CapSense.c ****     if(CapSense_sensorIndex < CapSense_TOTAL_SENSOR_COUNT)
 795              		.loc 1 688 0
 796 0024 0B4B     		ldr	r3, .L42+4
 797 0026 1B78     		ldrb	r3, [r3]
 798 0028 DBB2     		uxtb	r3, r3
 799 002a 042B     		cmp	r3, #4
 800 002c 0DD8     		bhi	.L40
 689:.\Generated_Source\PSoC4/CapSense.c ****     {
 690:.\Generated_Source\PSoC4/CapSense.c ****         CapSense_csdStatusVar |= CapSense_SW_STS_BUSY;
 801              		.loc 1 690 0
 802 002e 084B     		ldr	r3, .L42
 803 0030 1B78     		ldrb	r3, [r3]
 804 0032 DBB2     		uxtb	r3, r3
 805 0034 0122     		mov	r2, #1
 806 0036 1343     		orr	r3, r2
 807 0038 DAB2     		uxtb	r2, r3
 808 003a 054B     		ldr	r3, .L42
 809 003c 1A70     		strb	r2, [r3]
 691:.\Generated_Source\PSoC4/CapSense.c ****         CapSense_PreScan((uint32)CapSense_sensorIndex);
 810              		.loc 1 691 0
 811 003e 054B     		ldr	r3, .L42+4
 812 0040 1B78     		ldrb	r3, [r3]
 813 0042 DBB2     		uxtb	r3, r3
 814 0044 181C     		mov	r0, r3
 815 0046 FFF7FEFF 		bl	CapSense_PreScan
 816              	.L40:
 692:.\Generated_Source\PSoC4/CapSense.c ****     }
 693:.\Generated_Source\PSoC4/CapSense.c **** }
 817              		.loc 1 693 0
 818 004a BD46     		mov	sp, r7
 819              		@ sp needed
 820 004c 80BD     		pop	{r7, pc}
 821              	.L43:
 822 004e C046     		.align	2
 823              	.L42:
 824 0050 00000000 		.word	CapSense_csdStatusVar
 825 0054 00000000 		.word	CapSense_sensorIndex
 826              		.cfi_endproc
 827              	.LFE43:
 828              		.size	CapSense_ScanEnabledWidgets, .-CapSense_ScanEnabledWidgets
 829              		.section	.text.CapSense_IsBusy,"ax",%progbits
 830              		.align	2
 831              		.global	CapSense_IsBusy
 832              		.code	16
 833              		.thumb_func
 834              		.type	CapSense_IsBusy, %function
 835              	CapSense_IsBusy:
 836              	.LFB44:
 694:.\Generated_Source\PSoC4/CapSense.c **** 
ARM GAS  C:\Users\DELL\AppData\Local\Temp\ccRYftE6.s 			page 28


 695:.\Generated_Source\PSoC4/CapSense.c **** 
 696:.\Generated_Source\PSoC4/CapSense.c **** /*******************************************************************************
 697:.\Generated_Source\PSoC4/CapSense.c **** * Function Name: CapSense_IsBusy
 698:.\Generated_Source\PSoC4/CapSense.c **** ********************************************************************************
 699:.\Generated_Source\PSoC4/CapSense.c **** *
 700:.\Generated_Source\PSoC4/CapSense.c **** * Summary:
 701:.\Generated_Source\PSoC4/CapSense.c **** *  Returns the state of the CapSense component. 1 means that scanning in
 702:.\Generated_Source\PSoC4/CapSense.c **** *  progress and 0 means that scanning is complete.
 703:.\Generated_Source\PSoC4/CapSense.c **** *
 704:.\Generated_Source\PSoC4/CapSense.c **** * Parameters:
 705:.\Generated_Source\PSoC4/CapSense.c **** *  None
 706:.\Generated_Source\PSoC4/CapSense.c **** *
 707:.\Generated_Source\PSoC4/CapSense.c **** * Return:
 708:.\Generated_Source\PSoC4/CapSense.c **** *  Returns the state of scanning. 1 - scanning in progress, 0 - scanning
 709:.\Generated_Source\PSoC4/CapSense.c **** *  completed.
 710:.\Generated_Source\PSoC4/CapSense.c **** *
 711:.\Generated_Source\PSoC4/CapSense.c **** * Global Variables:
 712:.\Generated_Source\PSoC4/CapSense.c **** *  CapSense_csdStatusVar - used to provide the status and mode of the scanning process.
 713:.\Generated_Source\PSoC4/CapSense.c **** *  Checks the busy status.
 714:.\Generated_Source\PSoC4/CapSense.c **** *
 715:.\Generated_Source\PSoC4/CapSense.c **** * Side Effects:
 716:.\Generated_Source\PSoC4/CapSense.c **** *  None
 717:.\Generated_Source\PSoC4/CapSense.c **** *
 718:.\Generated_Source\PSoC4/CapSense.c **** *******************************************************************************/
 719:.\Generated_Source\PSoC4/CapSense.c **** uint32 CapSense_IsBusy(void)
 720:.\Generated_Source\PSoC4/CapSense.c **** {
 837              		.loc 1 720 0
 838              		.cfi_startproc
 839 0000 80B5     		push	{r7, lr}
 840              		.cfi_def_cfa_offset 8
 841              		.cfi_offset 7, -8
 842              		.cfi_offset 14, -4
 843 0002 00AF     		add	r7, sp, #0
 844              		.cfi_def_cfa_register 7
 721:.\Generated_Source\PSoC4/CapSense.c ****     return ((uint32)((0u != (CapSense_csdStatusVar & CapSense_SW_STS_BUSY)) ? 1u : 0u));
 845              		.loc 1 721 0
 846 0004 044B     		ldr	r3, .L46
 847 0006 1B78     		ldrb	r3, [r3]
 848 0008 DBB2     		uxtb	r3, r3
 849 000a 1A1C     		mov	r2, r3
 850 000c 0123     		mov	r3, #1
 851 000e 1340     		and	r3, r2
 722:.\Generated_Source\PSoC4/CapSense.c **** }
 852              		.loc 1 722 0
 853 0010 181C     		mov	r0, r3
 854 0012 BD46     		mov	sp, r7
 855              		@ sp needed
 856 0014 80BD     		pop	{r7, pc}
 857              	.L47:
 858 0016 C046     		.align	2
 859              	.L46:
 860 0018 00000000 		.word	CapSense_csdStatusVar
 861              		.cfi_endproc
 862              	.LFE44:
 863              		.size	CapSense_IsBusy, .-CapSense_IsBusy
 864              		.section	.text.CapSense_ReadSensorRaw,"ax",%progbits
 865              		.align	2
ARM GAS  C:\Users\DELL\AppData\Local\Temp\ccRYftE6.s 			page 29


 866              		.global	CapSense_ReadSensorRaw
 867              		.code	16
 868              		.thumb_func
 869              		.type	CapSense_ReadSensorRaw, %function
 870              	CapSense_ReadSensorRaw:
 871              	.LFB45:
 723:.\Generated_Source\PSoC4/CapSense.c **** 
 724:.\Generated_Source\PSoC4/CapSense.c **** 
 725:.\Generated_Source\PSoC4/CapSense.c **** /*******************************************************************************
 726:.\Generated_Source\PSoC4/CapSense.c **** * Function Name: CapSense_ReadSensorRaw
 727:.\Generated_Source\PSoC4/CapSense.c **** ********************************************************************************
 728:.\Generated_Source\PSoC4/CapSense.c **** *
 729:.\Generated_Source\PSoC4/CapSense.c **** * Summary:
 730:.\Generated_Source\PSoC4/CapSense.c **** *  Returns sensor raw data from the global CapSense_sensorRaw[ ] array.
 731:.\Generated_Source\PSoC4/CapSense.c **** *  Each scan sensor has a unique number within the sensor array.
 732:.\Generated_Source\PSoC4/CapSense.c **** *  This number is assigned by the CapSense customizer in sequence.
 733:.\Generated_Source\PSoC4/CapSense.c **** *  Raw data can be used to perform calculations outside of the CapSense
 734:.\Generated_Source\PSoC4/CapSense.c **** *  provided framework.
 735:.\Generated_Source\PSoC4/CapSense.c **** *
 736:.\Generated_Source\PSoC4/CapSense.c **** * Parameters:
 737:.\Generated_Source\PSoC4/CapSense.c **** *  sensor:  Sensor number.
 738:.\Generated_Source\PSoC4/CapSense.c **** *
 739:.\Generated_Source\PSoC4/CapSense.c **** * Return:
 740:.\Generated_Source\PSoC4/CapSense.c **** *  Returns the current raw data value for a defined sensor number.
 741:.\Generated_Source\PSoC4/CapSense.c **** *
 742:.\Generated_Source\PSoC4/CapSense.c **** * Global Variables:
 743:.\Generated_Source\PSoC4/CapSense.c **** *  CapSense_sensorRaw[] - used to store sensors raw data.
 744:.\Generated_Source\PSoC4/CapSense.c **** *
 745:.\Generated_Source\PSoC4/CapSense.c **** * Side Effects:
 746:.\Generated_Source\PSoC4/CapSense.c **** *  None
 747:.\Generated_Source\PSoC4/CapSense.c **** *
 748:.\Generated_Source\PSoC4/CapSense.c **** *******************************************************************************/
 749:.\Generated_Source\PSoC4/CapSense.c **** uint16 CapSense_ReadSensorRaw(uint32 sensor)
 750:.\Generated_Source\PSoC4/CapSense.c **** {
 872              		.loc 1 750 0
 873              		.cfi_startproc
 874 0000 80B5     		push	{r7, lr}
 875              		.cfi_def_cfa_offset 8
 876              		.cfi_offset 7, -8
 877              		.cfi_offset 14, -4
 878 0002 82B0     		sub	sp, sp, #8
 879              		.cfi_def_cfa_offset 16
 880 0004 00AF     		add	r7, sp, #0
 881              		.cfi_def_cfa_register 7
 882 0006 7860     		str	r0, [r7, #4]
 751:.\Generated_Source\PSoC4/CapSense.c ****     return CapSense_sensorRaw[sensor];
 883              		.loc 1 751 0
 884 0008 034B     		ldr	r3, .L50
 885 000a 7A68     		ldr	r2, [r7, #4]
 886 000c 5200     		lsl	r2, r2, #1
 887 000e D35A     		ldrh	r3, [r2, r3]
 752:.\Generated_Source\PSoC4/CapSense.c **** }
 888              		.loc 1 752 0
 889 0010 181C     		mov	r0, r3
 890 0012 BD46     		mov	sp, r7
 891 0014 02B0     		add	sp, sp, #8
 892              		@ sp needed
ARM GAS  C:\Users\DELL\AppData\Local\Temp\ccRYftE6.s 			page 30


 893 0016 80BD     		pop	{r7, pc}
 894              	.L51:
 895              		.align	2
 896              	.L50:
 897 0018 00000000 		.word	CapSense_sensorRaw
 898              		.cfi_endproc
 899              	.LFE45:
 900              		.size	CapSense_ReadSensorRaw, .-CapSense_ReadSensorRaw
 901              		.section	.text.CapSense_WriteSensorRaw,"ax",%progbits
 902              		.align	2
 903              		.global	CapSense_WriteSensorRaw
 904              		.code	16
 905              		.thumb_func
 906              		.type	CapSense_WriteSensorRaw, %function
 907              	CapSense_WriteSensorRaw:
 908              	.LFB46:
 753:.\Generated_Source\PSoC4/CapSense.c **** 
 754:.\Generated_Source\PSoC4/CapSense.c **** 
 755:.\Generated_Source\PSoC4/CapSense.c **** /*******************************************************************************
 756:.\Generated_Source\PSoC4/CapSense.c **** * Function Name: CapSense_WriteSensorRaw
 757:.\Generated_Source\PSoC4/CapSense.c **** ********************************************************************************
 758:.\Generated_Source\PSoC4/CapSense.c **** *
 759:.\Generated_Source\PSoC4/CapSense.c **** * Summary:
 760:.\Generated_Source\PSoC4/CapSense.c **** *  This API writes the raw count value passed as an argument to the sensor Raw count array.
 761:.\Generated_Source\PSoC4/CapSense.c **** *
 762:.\Generated_Source\PSoC4/CapSense.c **** * Parameters:
 763:.\Generated_Source\PSoC4/CapSense.c **** *  sensor:  Sensor number.
 764:.\Generated_Source\PSoC4/CapSense.c **** *  value: Raw count value.
 765:.\Generated_Source\PSoC4/CapSense.c **** *
 766:.\Generated_Source\PSoC4/CapSense.c **** * Global Variables:
 767:.\Generated_Source\PSoC4/CapSense.c **** *  CapSense_sensorRaw[] - used to store sensors raw data.
 768:.\Generated_Source\PSoC4/CapSense.c **** *
 769:.\Generated_Source\PSoC4/CapSense.c **** * Return:
 770:.\Generated_Source\PSoC4/CapSense.c **** *  None
 771:.\Generated_Source\PSoC4/CapSense.c **** *
 772:.\Generated_Source\PSoC4/CapSense.c **** * Side Effects:
 773:.\Generated_Source\PSoC4/CapSense.c **** *  None
 774:.\Generated_Source\PSoC4/CapSense.c **** *
 775:.\Generated_Source\PSoC4/CapSense.c **** *******************************************************************************/
 776:.\Generated_Source\PSoC4/CapSense.c **** void CapSense_WriteSensorRaw(uint32 sensor, uint16 value)
 777:.\Generated_Source\PSoC4/CapSense.c **** {
 909              		.loc 1 777 0
 910              		.cfi_startproc
 911 0000 80B5     		push	{r7, lr}
 912              		.cfi_def_cfa_offset 8
 913              		.cfi_offset 7, -8
 914              		.cfi_offset 14, -4
 915 0002 82B0     		sub	sp, sp, #8
 916              		.cfi_def_cfa_offset 16
 917 0004 00AF     		add	r7, sp, #0
 918              		.cfi_def_cfa_register 7
 919 0006 7860     		str	r0, [r7, #4]
 920 0008 0A1C     		mov	r2, r1
 921 000a BB1C     		add	r3, r7, #2
 922 000c 1A80     		strh	r2, [r3]
 778:.\Generated_Source\PSoC4/CapSense.c ****     CapSense_sensorRaw[sensor] = value;
 923              		.loc 1 778 0
ARM GAS  C:\Users\DELL\AppData\Local\Temp\ccRYftE6.s 			page 31


 924 000e 044B     		ldr	r3, .L53
 925 0010 7A68     		ldr	r2, [r7, #4]
 926 0012 5200     		lsl	r2, r2, #1
 927 0014 B91C     		add	r1, r7, #2
 928 0016 0988     		ldrh	r1, [r1]
 929 0018 D152     		strh	r1, [r2, r3]
 779:.\Generated_Source\PSoC4/CapSense.c **** }
 930              		.loc 1 779 0
 931 001a BD46     		mov	sp, r7
 932 001c 02B0     		add	sp, sp, #8
 933              		@ sp needed
 934 001e 80BD     		pop	{r7, pc}
 935              	.L54:
 936              		.align	2
 937              	.L53:
 938 0020 00000000 		.word	CapSense_sensorRaw
 939              		.cfi_endproc
 940              	.LFE46:
 941              		.size	CapSense_WriteSensorRaw, .-CapSense_WriteSensorRaw
 942              		.section	.text.CapSense_SetScanResolution,"ax",%progbits
 943              		.align	2
 944              		.global	CapSense_SetScanResolution
 945              		.code	16
 946              		.thumb_func
 947              		.type	CapSense_SetScanResolution, %function
 948              	CapSense_SetScanResolution:
 949              	.LFB47:
 780:.\Generated_Source\PSoC4/CapSense.c **** 
 781:.\Generated_Source\PSoC4/CapSense.c **** 
 782:.\Generated_Source\PSoC4/CapSense.c **** #if (CapSense_TUNING_METHOD != CapSense__TUNING_NONE)
 783:.\Generated_Source\PSoC4/CapSense.c ****     /*******************************************************************************
 784:.\Generated_Source\PSoC4/CapSense.c ****     * Function Name: CapSense_SetScanResolution
 785:.\Generated_Source\PSoC4/CapSense.c ****     ********************************************************************************
 786:.\Generated_Source\PSoC4/CapSense.c ****     *
 787:.\Generated_Source\PSoC4/CapSense.c ****     * Summary:
 788:.\Generated_Source\PSoC4/CapSense.c ****     *  Sets a value of the sensor scan resolution for a widget.
 789:.\Generated_Source\PSoC4/CapSense.c ****     *  The MIN resolution can be set 8-bit. The MAX Resolution can be set 16 bit.
 790:.\Generated_Source\PSoC4/CapSense.c ****     *  This function is not available for the tuning mode "None".
 791:.\Generated_Source\PSoC4/CapSense.c ****     *
 792:.\Generated_Source\PSoC4/CapSense.c ****     * Parameters:
 793:.\Generated_Source\PSoC4/CapSense.c ****     *  widget:     Widget index.
 794:.\Generated_Source\PSoC4/CapSense.c ****     *  resolution: Represents the resolution value. The following defines which are available in th
 795:.\Generated_Source\PSoC4/CapSense.c ****     *              CapSense.h file should be used:
 796:.\Generated_Source\PSoC4/CapSense.c ****     *              CapSense_RESOLUTION_6_BITS
 797:.\Generated_Source\PSoC4/CapSense.c ****     *              CapSense_RESOLUTION_7_BITS
 798:.\Generated_Source\PSoC4/CapSense.c ****     *              CapSense_RESOLUTION_8_BITS
 799:.\Generated_Source\PSoC4/CapSense.c ****     *              CapSense_RESOLUTION_9_BITS
 800:.\Generated_Source\PSoC4/CapSense.c ****     *              CapSense_RESOLUTION_10_BITS
 801:.\Generated_Source\PSoC4/CapSense.c ****     *              CapSense_RESOLUTION_11_BITS
 802:.\Generated_Source\PSoC4/CapSense.c ****     *              CapSense_RESOLUTION_12_BITS
 803:.\Generated_Source\PSoC4/CapSense.c ****     *              CapSense_RESOLUTION_13_BITS
 804:.\Generated_Source\PSoC4/CapSense.c ****     *              CapSense_RESOLUTION_14_BITS
 805:.\Generated_Source\PSoC4/CapSense.c ****     *              CapSense_RESOLUTION_15_BITS
 806:.\Generated_Source\PSoC4/CapSense.c ****     *              CapSense_RESOLUTION_16_BITS
 807:.\Generated_Source\PSoC4/CapSense.c ****     *
 808:.\Generated_Source\PSoC4/CapSense.c ****     * Return:
 809:.\Generated_Source\PSoC4/CapSense.c ****     *  None
ARM GAS  C:\Users\DELL\AppData\Local\Temp\ccRYftE6.s 			page 32


 810:.\Generated_Source\PSoC4/CapSense.c ****     *
 811:.\Generated_Source\PSoC4/CapSense.c ****     * Global Variables:
 812:.\Generated_Source\PSoC4/CapSense.c ****     *  CapSense_widgetResolution[] - used to store scan resolution of each widget.
 813:.\Generated_Source\PSoC4/CapSense.c ****     *
 814:.\Generated_Source\PSoC4/CapSense.c ****     * Side Effects:
 815:.\Generated_Source\PSoC4/CapSense.c ****     *  None
 816:.\Generated_Source\PSoC4/CapSense.c ****     *
 817:.\Generated_Source\PSoC4/CapSense.c ****     *******************************************************************************/
 818:.\Generated_Source\PSoC4/CapSense.c ****     void CapSense_SetScanResolution(uint32 widget, uint32 resolution)
 819:.\Generated_Source\PSoC4/CapSense.c ****     {
 950              		.loc 1 819 0
 951              		.cfi_startproc
 952 0000 80B5     		push	{r7, lr}
 953              		.cfi_def_cfa_offset 8
 954              		.cfi_offset 7, -8
 955              		.cfi_offset 14, -4
 956 0002 82B0     		sub	sp, sp, #8
 957              		.cfi_def_cfa_offset 16
 958 0004 00AF     		add	r7, sp, #0
 959              		.cfi_def_cfa_register 7
 960 0006 7860     		str	r0, [r7, #4]
 961 0008 3960     		str	r1, [r7]
 820:.\Generated_Source\PSoC4/CapSense.c ****         CapSense_widgetResolution[widget] = resolution;
 962              		.loc 1 820 0
 963 000a 044B     		ldr	r3, .L56
 964 000c 7A68     		ldr	r2, [r7, #4]
 965 000e 9200     		lsl	r2, r2, #2
 966 0010 3968     		ldr	r1, [r7]
 967 0012 D150     		str	r1, [r2, r3]
 821:.\Generated_Source\PSoC4/CapSense.c ****     }
 968              		.loc 1 821 0
 969 0014 BD46     		mov	sp, r7
 970 0016 02B0     		add	sp, sp, #8
 971              		@ sp needed
 972 0018 80BD     		pop	{r7, pc}
 973              	.L57:
 974 001a C046     		.align	2
 975              	.L56:
 976 001c 00000000 		.word	CapSense_widgetResolution
 977              		.cfi_endproc
 978              	.LFE47:
 979              		.size	CapSense_SetScanResolution, .-CapSense_SetScanResolution
 980              		.section	.text.CapSense_GetScanResolution,"ax",%progbits
 981              		.align	2
 982              		.global	CapSense_GetScanResolution
 983              		.code	16
 984              		.thumb_func
 985              		.type	CapSense_GetScanResolution, %function
 986              	CapSense_GetScanResolution:
 987              	.LFB48:
 822:.\Generated_Source\PSoC4/CapSense.c **** #endif /* (CapSense_TUNING_METHOD != CapSense__TUNING_NONE) */
 823:.\Generated_Source\PSoC4/CapSense.c **** 
 824:.\Generated_Source\PSoC4/CapSense.c **** 
 825:.\Generated_Source\PSoC4/CapSense.c **** /*******************************************************************************
 826:.\Generated_Source\PSoC4/CapSense.c **** * Function Name: CapSense_GetScanResolution
 827:.\Generated_Source\PSoC4/CapSense.c **** ********************************************************************************
 828:.\Generated_Source\PSoC4/CapSense.c **** *
ARM GAS  C:\Users\DELL\AppData\Local\Temp\ccRYftE6.s 			page 33


 829:.\Generated_Source\PSoC4/CapSense.c **** * Summary:
 830:.\Generated_Source\PSoC4/CapSense.c **** *  Returns the resolution value for the appropriate sensor.
 831:.\Generated_Source\PSoC4/CapSense.c **** *  This function is not available for tuning mode "None".
 832:.\Generated_Source\PSoC4/CapSense.c **** *
 833:.\Generated_Source\PSoC4/CapSense.c **** * Parameters:
 834:.\Generated_Source\PSoC4/CapSense.c **** *  widget:     Widget index.
 835:.\Generated_Source\PSoC4/CapSense.c **** *
 836:.\Generated_Source\PSoC4/CapSense.c **** * Return:
 837:.\Generated_Source\PSoC4/CapSense.c **** *  resolution: Returns the resolution value for the appropriate sensor.
 838:.\Generated_Source\PSoC4/CapSense.c **** *              The resolution values are defined in the CapSense.h file
 839:.\Generated_Source\PSoC4/CapSense.c **** *              The defines are encountered below:
 840:.\Generated_Source\PSoC4/CapSense.c **** *              CapSense_RESOLUTION_6_BITS
 841:.\Generated_Source\PSoC4/CapSense.c **** *              CapSense_RESOLUTION_7_BITS
 842:.\Generated_Source\PSoC4/CapSense.c **** *              CapSense_RESOLUTION_8_BITS
 843:.\Generated_Source\PSoC4/CapSense.c **** *              CapSense_RESOLUTION_9_BITS
 844:.\Generated_Source\PSoC4/CapSense.c **** *              CapSense_RESOLUTION_10_BITS
 845:.\Generated_Source\PSoC4/CapSense.c **** *              CapSense_RESOLUTION_11_BITS
 846:.\Generated_Source\PSoC4/CapSense.c **** *              CapSense_RESOLUTION_12_BITS
 847:.\Generated_Source\PSoC4/CapSense.c **** *              CapSense_RESOLUTION_13_BITS
 848:.\Generated_Source\PSoC4/CapSense.c **** *              CapSense_RESOLUTION_14_BITS
 849:.\Generated_Source\PSoC4/CapSense.c **** *              CapSense_RESOLUTION_15_BITS
 850:.\Generated_Source\PSoC4/CapSense.c **** *              CapSense_RESOLUTION_16_BITS
 851:.\Generated_Source\PSoC4/CapSense.c **** *
 852:.\Generated_Source\PSoC4/CapSense.c **** * Global Variables:
 853:.\Generated_Source\PSoC4/CapSense.c **** *  CapSense_widgetResolution[] - used to store scan resolution of every widget.
 854:.\Generated_Source\PSoC4/CapSense.c **** *
 855:.\Generated_Source\PSoC4/CapSense.c **** * Side Effects:
 856:.\Generated_Source\PSoC4/CapSense.c **** *  None
 857:.\Generated_Source\PSoC4/CapSense.c **** *
 858:.\Generated_Source\PSoC4/CapSense.c **** *******************************************************************************/
 859:.\Generated_Source\PSoC4/CapSense.c **** uint32 CapSense_GetScanResolution(uint32 widget)
 860:.\Generated_Source\PSoC4/CapSense.c **** {
 988              		.loc 1 860 0
 989              		.cfi_startproc
 990 0000 80B5     		push	{r7, lr}
 991              		.cfi_def_cfa_offset 8
 992              		.cfi_offset 7, -8
 993              		.cfi_offset 14, -4
 994 0002 82B0     		sub	sp, sp, #8
 995              		.cfi_def_cfa_offset 16
 996 0004 00AF     		add	r7, sp, #0
 997              		.cfi_def_cfa_register 7
 998 0006 7860     		str	r0, [r7, #4]
 861:.\Generated_Source\PSoC4/CapSense.c ****     return(CapSense_widgetResolution[widget]);
 999              		.loc 1 861 0
 1000 0008 034B     		ldr	r3, .L60
 1001 000a 7A68     		ldr	r2, [r7, #4]
 1002 000c 9200     		lsl	r2, r2, #2
 1003 000e D358     		ldr	r3, [r2, r3]
 862:.\Generated_Source\PSoC4/CapSense.c **** }
 1004              		.loc 1 862 0
 1005 0010 181C     		mov	r0, r3
 1006 0012 BD46     		mov	sp, r7
 1007 0014 02B0     		add	sp, sp, #8
 1008              		@ sp needed
 1009 0016 80BD     		pop	{r7, pc}
 1010              	.L61:
ARM GAS  C:\Users\DELL\AppData\Local\Temp\ccRYftE6.s 			page 34


 1011              		.align	2
 1012              	.L60:
 1013 0018 00000000 		.word	CapSense_widgetResolution
 1014              		.cfi_endproc
 1015              	.LFE48:
 1016              		.size	CapSense_GetScanResolution, .-CapSense_GetScanResolution
 1017              		.section	.text.CapSense_ClearSensors,"ax",%progbits
 1018              		.align	2
 1019              		.global	CapSense_ClearSensors
 1020              		.code	16
 1021              		.thumb_func
 1022              		.type	CapSense_ClearSensors, %function
 1023              	CapSense_ClearSensors:
 1024              	.LFB49:
 863:.\Generated_Source\PSoC4/CapSense.c **** 
 864:.\Generated_Source\PSoC4/CapSense.c **** 
 865:.\Generated_Source\PSoC4/CapSense.c **** /*******************************************************************************
 866:.\Generated_Source\PSoC4/CapSense.c **** * Function Name: CapSense_ClearSensors
 867:.\Generated_Source\PSoC4/CapSense.c **** ********************************************************************************
 868:.\Generated_Source\PSoC4/CapSense.c **** *
 869:.\Generated_Source\PSoC4/CapSense.c **** * Summary:
 870:.\Generated_Source\PSoC4/CapSense.c **** *  Resets all the sensors to the non-sampling state by sequentially disconnecting
 871:.\Generated_Source\PSoC4/CapSense.c **** *  all the sensors from Analog MUX Bus and putting them to an inactive state.
 872:.\Generated_Source\PSoC4/CapSense.c **** *
 873:.\Generated_Source\PSoC4/CapSense.c **** * Parameters:
 874:.\Generated_Source\PSoC4/CapSense.c **** *  None
 875:.\Generated_Source\PSoC4/CapSense.c **** *
 876:.\Generated_Source\PSoC4/CapSense.c **** * Return:
 877:.\Generated_Source\PSoC4/CapSense.c **** *  None
 878:.\Generated_Source\PSoC4/CapSense.c **** *
 879:.\Generated_Source\PSoC4/CapSense.c **** * Global Variables:
 880:.\Generated_Source\PSoC4/CapSense.c **** *  None
 881:.\Generated_Source\PSoC4/CapSense.c **** *
 882:.\Generated_Source\PSoC4/CapSense.c **** * Side Effects:
 883:.\Generated_Source\PSoC4/CapSense.c **** *  None
 884:.\Generated_Source\PSoC4/CapSense.c **** *
 885:.\Generated_Source\PSoC4/CapSense.c **** *******************************************************************************/
 886:.\Generated_Source\PSoC4/CapSense.c **** void CapSense_ClearSensors(void)
 887:.\Generated_Source\PSoC4/CapSense.c **** {
 1025              		.loc 1 887 0
 1026              		.cfi_startproc
 1027 0000 80B5     		push	{r7, lr}
 1028              		.cfi_def_cfa_offset 8
 1029              		.cfi_offset 7, -8
 1030              		.cfi_offset 14, -4
 1031 0002 82B0     		sub	sp, sp, #8
 1032              		.cfi_def_cfa_offset 16
 1033 0004 00AF     		add	r7, sp, #0
 1034              		.cfi_def_cfa_register 7
 888:.\Generated_Source\PSoC4/CapSense.c ****     uint32 snsIndex;
 889:.\Generated_Source\PSoC4/CapSense.c **** 
 890:.\Generated_Source\PSoC4/CapSense.c ****     for (snsIndex = 0u; snsIndex < CapSense_TOTAL_SENSOR_COUNT; snsIndex++)
 1035              		.loc 1 890 0
 1036 0006 0023     		mov	r3, #0
 1037 0008 7B60     		str	r3, [r7, #4]
 1038 000a 06E0     		b	.L63
 1039              	.L64:
ARM GAS  C:\Users\DELL\AppData\Local\Temp\ccRYftE6.s 			page 35


 891:.\Generated_Source\PSoC4/CapSense.c ****     {
 892:.\Generated_Source\PSoC4/CapSense.c ****         CapSense_DisableScanSlot(snsIndex);
 1040              		.loc 1 892 0 discriminator 3
 1041 000c 7B68     		ldr	r3, [r7, #4]
 1042 000e 181C     		mov	r0, r3
 1043 0010 FFF7FEFF 		bl	CapSense_DisableSensor
 890:.\Generated_Source\PSoC4/CapSense.c ****     {
 1044              		.loc 1 890 0 discriminator 3
 1045 0014 7B68     		ldr	r3, [r7, #4]
 1046 0016 0133     		add	r3, r3, #1
 1047 0018 7B60     		str	r3, [r7, #4]
 1048              	.L63:
 890:.\Generated_Source\PSoC4/CapSense.c ****     {
 1049              		.loc 1 890 0 is_stmt 0 discriminator 1
 1050 001a 7B68     		ldr	r3, [r7, #4]
 1051 001c 042B     		cmp	r3, #4
 1052 001e F5D9     		bls	.L64
 893:.\Generated_Source\PSoC4/CapSense.c ****     }
 894:.\Generated_Source\PSoC4/CapSense.c **** }
 1053              		.loc 1 894 0 is_stmt 1
 1054 0020 BD46     		mov	sp, r7
 1055 0022 02B0     		add	sp, sp, #8
 1056              		@ sp needed
 1057 0024 80BD     		pop	{r7, pc}
 1058              		.cfi_endproc
 1059              	.LFE49:
 1060              		.size	CapSense_ClearSensors, .-CapSense_ClearSensors
 1061 0026 C046     		.section	.text.CapSense_EnableSensor,"ax",%progbits
 1062              		.align	2
 1063              		.global	CapSense_EnableSensor
 1064              		.code	16
 1065              		.thumb_func
 1066              		.type	CapSense_EnableSensor, %function
 1067              	CapSense_EnableSensor:
 1068              	.LFB50:
 895:.\Generated_Source\PSoC4/CapSense.c **** 
 896:.\Generated_Source\PSoC4/CapSense.c **** 
 897:.\Generated_Source\PSoC4/CapSense.c **** #if (CapSense_IS_COMPLEX_SCANSLOTS)
 898:.\Generated_Source\PSoC4/CapSense.c ****     /*******************************************************************************
 899:.\Generated_Source\PSoC4/CapSense.c ****     * Function Name: CapSense_EnableScanSlot
 900:.\Generated_Source\PSoC4/CapSense.c ****     ********************************************************************************
 901:.\Generated_Source\PSoC4/CapSense.c ****     *
 902:.\Generated_Source\PSoC4/CapSense.c ****     * Summary:
 903:.\Generated_Source\PSoC4/CapSense.c ****     *  Configures the selected slot to measure during the next measurement
 904:.\Generated_Source\PSoC4/CapSense.c ****     *  cycle. The corresponding pin/pins are set to Analog High-Z mode and
 905:.\Generated_Source\PSoC4/CapSense.c ****     *  connected to the Analog Mux Bus. This also enables the comparator function.
 906:.\Generated_Source\PSoC4/CapSense.c ****     *
 907:.\Generated_Source\PSoC4/CapSense.c ****     * Parameters:
 908:.\Generated_Source\PSoC4/CapSense.c ****     *  slot:  Slot number.
 909:.\Generated_Source\PSoC4/CapSense.c ****     *
 910:.\Generated_Source\PSoC4/CapSense.c ****     * Return:
 911:.\Generated_Source\PSoC4/CapSense.c ****     *  None
 912:.\Generated_Source\PSoC4/CapSense.c ****     *
 913:.\Generated_Source\PSoC4/CapSense.c ****     * Global Constants:
 914:.\Generated_Source\PSoC4/CapSense.c ****     *  CapSense_portTable[]  - used to store the port number that pin
 915:.\Generated_Source\PSoC4/CapSense.c ****     *  belongs to for each sensor.
 916:.\Generated_Source\PSoC4/CapSense.c ****     *  CapSense_maskTable[]  - used to store the pin within the port for
ARM GAS  C:\Users\DELL\AppData\Local\Temp\ccRYftE6.s 			page 36


 917:.\Generated_Source\PSoC4/CapSense.c ****     *  each sensor.
 918:.\Generated_Source\PSoC4/CapSense.c ****     *  CapSense_indexTable[] - used to store indexes of complex sensors.
 919:.\Generated_Source\PSoC4/CapSense.c ****     *  The offset and position in this array are stored in a port and mask table for
 920:.\Generated_Source\PSoC4/CapSense.c ****     *  complex sensors.
 921:.\Generated_Source\PSoC4/CapSense.c ****     *  Bit 7 (msb) is used to define the sensor type: single or complex.
 922:.\Generated_Source\PSoC4/CapSense.c ****     *
 923:.\Generated_Source\PSoC4/CapSense.c ****     * Side Effects:
 924:.\Generated_Source\PSoC4/CapSense.c ****     *  None
 925:.\Generated_Source\PSoC4/CapSense.c ****     *
 926:.\Generated_Source\PSoC4/CapSense.c ****     *******************************************************************************/
 927:.\Generated_Source\PSoC4/CapSense.c ****     void CapSense_EnableScanSlot(uint32 slot)
 928:.\Generated_Source\PSoC4/CapSense.c ****     {
 929:.\Generated_Source\PSoC4/CapSense.c ****         uint8 j;
 930:.\Generated_Source\PSoC4/CapSense.c ****         uint8 snsNumber;
 931:.\Generated_Source\PSoC4/CapSense.c ****         const uint8 *index;
 932:.\Generated_Source\PSoC4/CapSense.c ****         /* Read sensor type: single or complex */
 933:.\Generated_Source\PSoC4/CapSense.c ****         uint8 snsType = CapSense_portTable[slot];
 934:.\Generated_Source\PSoC4/CapSense.c **** 
 935:.\Generated_Source\PSoC4/CapSense.c ****         /* Check if sensor is complex */
 936:.\Generated_Source\PSoC4/CapSense.c ****         if ((snsType & CapSense_COMPLEX_SS_FLAG) == 0u)
 937:.\Generated_Source\PSoC4/CapSense.c ****         {
 938:.\Generated_Source\PSoC4/CapSense.c ****             /* Enable sensor (single) */
 939:.\Generated_Source\PSoC4/CapSense.c ****             CapSense_EnableSensor(slot);
 940:.\Generated_Source\PSoC4/CapSense.c ****         }
 941:.\Generated_Source\PSoC4/CapSense.c ****         else
 942:.\Generated_Source\PSoC4/CapSense.c ****         {
 943:.\Generated_Source\PSoC4/CapSense.c ****             /* Enable complex sensor */
 944:.\Generated_Source\PSoC4/CapSense.c ****             snsType &= ~CapSense_COMPLEX_SS_FLAG;
 945:.\Generated_Source\PSoC4/CapSense.c ****             index = &CapSense_indexTable[snsType];
 946:.\Generated_Source\PSoC4/CapSense.c ****             snsNumber = CapSense_maskTable[slot];
 947:.\Generated_Source\PSoC4/CapSense.c **** 
 948:.\Generated_Source\PSoC4/CapSense.c ****             for (j = 0u; j < snsNumber; j++)
 949:.\Generated_Source\PSoC4/CapSense.c ****             {
 950:.\Generated_Source\PSoC4/CapSense.c ****                 CapSense_EnableSensor(index[j]);
 951:.\Generated_Source\PSoC4/CapSense.c ****             }
 952:.\Generated_Source\PSoC4/CapSense.c ****         }
 953:.\Generated_Source\PSoC4/CapSense.c ****     }
 954:.\Generated_Source\PSoC4/CapSense.c **** 
 955:.\Generated_Source\PSoC4/CapSense.c **** 
 956:.\Generated_Source\PSoC4/CapSense.c ****     /*******************************************************************************
 957:.\Generated_Source\PSoC4/CapSense.c ****     * Function Name: CapSense_DisableScanSlot
 958:.\Generated_Source\PSoC4/CapSense.c ****     ********************************************************************************
 959:.\Generated_Source\PSoC4/CapSense.c ****     *
 960:.\Generated_Source\PSoC4/CapSense.c ****     * Summary:
 961:.\Generated_Source\PSoC4/CapSense.c ****     *  Disables the selected slot. The corresponding pin/pins is/are disconnected
 962:.\Generated_Source\PSoC4/CapSense.c ****     *  from the Analog Mux Bus and connected to GND, High_Z or Shield electrode.
 963:.\Generated_Source\PSoC4/CapSense.c ****     *
 964:.\Generated_Source\PSoC4/CapSense.c ****     * Parameters:
 965:.\Generated_Source\PSoC4/CapSense.c ****     *  slot:  Slot number.
 966:.\Generated_Source\PSoC4/CapSense.c ****     *
 967:.\Generated_Source\PSoC4/CapSense.c ****     * Return:
 968:.\Generated_Source\PSoC4/CapSense.c ****     *  None
 969:.\Generated_Source\PSoC4/CapSense.c ****     *
 970:.\Generated_Source\PSoC4/CapSense.c ****     * Global Variables:
 971:.\Generated_Source\PSoC4/CapSense.c ****     *  CapSense_portTable[]  - used to store the port number that pin
 972:.\Generated_Source\PSoC4/CapSense.c ****     *  belongs to for each sensor.
 973:.\Generated_Source\PSoC4/CapSense.c ****     *  CapSense_maskTable[]  - used to store the pin within the port for
ARM GAS  C:\Users\DELL\AppData\Local\Temp\ccRYftE6.s 			page 37


 974:.\Generated_Source\PSoC4/CapSense.c ****     *  each sensor.
 975:.\Generated_Source\PSoC4/CapSense.c ****     *  CapSense_indexTable[] - used to store indexes of complex sensors.
 976:.\Generated_Source\PSoC4/CapSense.c ****     *  The offset and position in this array are stored in a port and mask table for
 977:.\Generated_Source\PSoC4/CapSense.c ****     *  complex sensors.
 978:.\Generated_Source\PSoC4/CapSense.c ****     *  7bit(msb) is used to define the sensor type: single or complex.
 979:.\Generated_Source\PSoC4/CapSense.c ****     *
 980:.\Generated_Source\PSoC4/CapSense.c ****     * Side Effects:
 981:.\Generated_Source\PSoC4/CapSense.c ****     *  None
 982:.\Generated_Source\PSoC4/CapSense.c ****     *
 983:.\Generated_Source\PSoC4/CapSense.c ****     *******************************************************************************/
 984:.\Generated_Source\PSoC4/CapSense.c ****     void CapSense_DisableScanSlot(uint32 slot)
 985:.\Generated_Source\PSoC4/CapSense.c ****     {
 986:.\Generated_Source\PSoC4/CapSense.c ****         uint8 j;
 987:.\Generated_Source\PSoC4/CapSense.c ****         uint8 snsNumber;
 988:.\Generated_Source\PSoC4/CapSense.c ****         const uint8 *index;
 989:.\Generated_Source\PSoC4/CapSense.c **** 
 990:.\Generated_Source\PSoC4/CapSense.c ****         /* Read sensor type: single or complex */
 991:.\Generated_Source\PSoC4/CapSense.c ****         uint8 snsType = CapSense_portTable[slot];
 992:.\Generated_Source\PSoC4/CapSense.c **** 
 993:.\Generated_Source\PSoC4/CapSense.c ****         /* Check if sensor is complex */
 994:.\Generated_Source\PSoC4/CapSense.c ****         if ((snsType & CapSense_COMPLEX_SS_FLAG) == 0u)
 995:.\Generated_Source\PSoC4/CapSense.c ****         {
 996:.\Generated_Source\PSoC4/CapSense.c ****             /* Disable sensor (single) */
 997:.\Generated_Source\PSoC4/CapSense.c ****             CapSense_DisableSensor(slot);
 998:.\Generated_Source\PSoC4/CapSense.c ****         }
 999:.\Generated_Source\PSoC4/CapSense.c ****         else
1000:.\Generated_Source\PSoC4/CapSense.c ****         {
1001:.\Generated_Source\PSoC4/CapSense.c ****             /* Disable complex sensor */
1002:.\Generated_Source\PSoC4/CapSense.c ****             snsType &= ~CapSense_COMPLEX_SS_FLAG;
1003:.\Generated_Source\PSoC4/CapSense.c ****             index = &CapSense_indexTable[snsType];
1004:.\Generated_Source\PSoC4/CapSense.c ****             snsNumber = CapSense_maskTable[slot];
1005:.\Generated_Source\PSoC4/CapSense.c **** 
1006:.\Generated_Source\PSoC4/CapSense.c ****             for (j=0; j < snsNumber; j++)
1007:.\Generated_Source\PSoC4/CapSense.c ****             {
1008:.\Generated_Source\PSoC4/CapSense.c ****                 CapSense_DisableSensor(index[j]);
1009:.\Generated_Source\PSoC4/CapSense.c ****             }
1010:.\Generated_Source\PSoC4/CapSense.c ****         }
1011:.\Generated_Source\PSoC4/CapSense.c ****     }
1012:.\Generated_Source\PSoC4/CapSense.c **** #endif  /* CapSense_IS_COMPLEX_SCANSLOTS */
1013:.\Generated_Source\PSoC4/CapSense.c **** 
1014:.\Generated_Source\PSoC4/CapSense.c **** 
1015:.\Generated_Source\PSoC4/CapSense.c **** /*******************************************************************************
1016:.\Generated_Source\PSoC4/CapSense.c **** * Function Name: CapSense_EnableSensor
1017:.\Generated_Source\PSoC4/CapSense.c **** ********************************************************************************
1018:.\Generated_Source\PSoC4/CapSense.c **** *
1019:.\Generated_Source\PSoC4/CapSense.c **** * Summary:
1020:.\Generated_Source\PSoC4/CapSense.c **** *  Configures the selected sensor to measure during the next measurement cycle.
1021:.\Generated_Source\PSoC4/CapSense.c **** *  The corresponding pins are set to Analog High-Z mode and connected to the
1022:.\Generated_Source\PSoC4/CapSense.c **** *  Analog Mux Bus. This also enables the comparator function.
1023:.\Generated_Source\PSoC4/CapSense.c **** *
1024:.\Generated_Source\PSoC4/CapSense.c **** * Parameters:
1025:.\Generated_Source\PSoC4/CapSense.c **** *  sensor:  Sensor number.
1026:.\Generated_Source\PSoC4/CapSense.c **** *
1027:.\Generated_Source\PSoC4/CapSense.c **** * Return:
1028:.\Generated_Source\PSoC4/CapSense.c **** *  None
1029:.\Generated_Source\PSoC4/CapSense.c **** *
1030:.\Generated_Source\PSoC4/CapSense.c **** * Global Variables:
ARM GAS  C:\Users\DELL\AppData\Local\Temp\ccRYftE6.s 			page 38


1031:.\Generated_Source\PSoC4/CapSense.c **** *  CapSense_portTable[] - used to store the port number that pin
1032:.\Generated_Source\PSoC4/CapSense.c **** *  belongs to for each sensor.
1033:.\Generated_Source\PSoC4/CapSense.c **** *  CapSense_pinShiftTbl[] - used to store position of pin that
1034:.\Generated_Source\PSoC4/CapSense.c **** *  configured as sensor in port.
1035:.\Generated_Source\PSoC4/CapSense.c **** *  CapSense_prtSelTbl[] - Contains pointers to the HSIOM
1036:.\Generated_Source\PSoC4/CapSense.c **** *  registers for each port.
1037:.\Generated_Source\PSoC4/CapSense.c **** *  CapSense_PrtCfgTb[] - Contains pointers to the port config
1038:.\Generated_Source\PSoC4/CapSense.c **** *  registers for each port.
1039:.\Generated_Source\PSoC4/CapSense.c **** *
1040:.\Generated_Source\PSoC4/CapSense.c **** * Side Effects:
1041:.\Generated_Source\PSoC4/CapSense.c **** *  None
1042:.\Generated_Source\PSoC4/CapSense.c **** *
1043:.\Generated_Source\PSoC4/CapSense.c **** *******************************************************************************/
1044:.\Generated_Source\PSoC4/CapSense.c **** void CapSense_EnableSensor(uint32 sensor)
1045:.\Generated_Source\PSoC4/CapSense.c **** {
 1069              		.loc 1 1045 0
 1070              		.cfi_startproc
 1071 0000 90B5     		push	{r4, r7, lr}
 1072              		.cfi_def_cfa_offset 12
 1073              		.cfi_offset 4, -12
 1074              		.cfi_offset 7, -8
 1075              		.cfi_offset 14, -4
 1076 0002 87B0     		sub	sp, sp, #28
 1077              		.cfi_def_cfa_offset 40
 1078 0004 00AF     		add	r7, sp, #0
 1079              		.cfi_def_cfa_register 7
 1080 0006 7860     		str	r0, [r7, #4]
1046:.\Generated_Source\PSoC4/CapSense.c ****     uint8  pinModeShift;
1047:.\Generated_Source\PSoC4/CapSense.c ****     uint8  pinHSIOMShift;
1048:.\Generated_Source\PSoC4/CapSense.c ****     uint8 interruptState;
1049:.\Generated_Source\PSoC4/CapSense.c ****     uint32 newRegisterValue;
1050:.\Generated_Source\PSoC4/CapSense.c ****     uint32 port;
1051:.\Generated_Source\PSoC4/CapSense.c **** 
1052:.\Generated_Source\PSoC4/CapSense.c ****     port = (uint32) CapSense_portTable[sensor];
 1081              		.loc 1 1052 0
 1082 0008 2B4A     		ldr	r2, .L66
 1083 000a 7B68     		ldr	r3, [r7, #4]
 1084 000c D318     		add	r3, r2, r3
 1085 000e 1B78     		ldrb	r3, [r3]
 1086 0010 7B61     		str	r3, [r7, #20]
1053:.\Generated_Source\PSoC4/CapSense.c ****     pinModeShift = CapSense_pinShiftTbl[sensor]  * CapSense_PC_PIN_CFG_SIZE;
 1087              		.loc 1 1053 0
 1088 0012 2A4A     		ldr	r2, .L66+4
 1089 0014 7B68     		ldr	r3, [r7, #4]
 1090 0016 D318     		add	r3, r2, r3
 1091 0018 1B78     		ldrb	r3, [r3]
 1092 001a 1322     		mov	r2, #19
 1093 001c BA18     		add	r2, r7, r2
 1094 001e 191C     		add	r1, r3, #0
 1095 0020 0B1C     		add	r3, r1, #0
 1096 0022 DB18     		add	r3, r3, r3
 1097 0024 5B18     		add	r3, r3, r1
 1098 0026 1370     		strb	r3, [r2]
1054:.\Generated_Source\PSoC4/CapSense.c ****     pinHSIOMShift = CapSense_pinShiftTbl[sensor] * CapSense_HSIOM_PIN_CFG_SIZE;
 1099              		.loc 1 1054 0
 1100 0028 244A     		ldr	r2, .L66+4
 1101 002a 7B68     		ldr	r3, [r7, #4]
ARM GAS  C:\Users\DELL\AppData\Local\Temp\ccRYftE6.s 			page 39


 1102 002c D318     		add	r3, r2, r3
 1103 002e 1A78     		ldrb	r2, [r3]
 1104 0030 1223     		mov	r3, #18
 1105 0032 FB18     		add	r3, r7, r3
 1106 0034 9200     		lsl	r2, r2, #2
 1107 0036 1A70     		strb	r2, [r3]
1055:.\Generated_Source\PSoC4/CapSense.c **** 
1056:.\Generated_Source\PSoC4/CapSense.c ****     interruptState = CyEnterCriticalSection();
 1108              		.loc 1 1056 0
 1109 0038 1123     		mov	r3, #17
 1110 003a FC18     		add	r4, r7, r3
 1111 003c FFF7FEFF 		bl	CyEnterCriticalSection
 1112 0040 031C     		mov	r3, r0
 1113 0042 2370     		strb	r3, [r4]
1057:.\Generated_Source\PSoC4/CapSense.c **** 
1058:.\Generated_Source\PSoC4/CapSense.c ****     newRegisterValue = *CapSense_prtSelTbl[port];
 1114              		.loc 1 1058 0
 1115 0044 1E4B     		ldr	r3, .L66+8
 1116 0046 7A69     		ldr	r2, [r7, #20]
 1117 0048 9200     		lsl	r2, r2, #2
 1118 004a D358     		ldr	r3, [r2, r3]
 1119 004c 1B68     		ldr	r3, [r3]
 1120 004e FB60     		str	r3, [r7, #12]
1059:.\Generated_Source\PSoC4/CapSense.c ****     newRegisterValue &= ~(CapSense_CSD_HSIOM_MASK << pinHSIOMShift);
 1121              		.loc 1 1059 0
 1122 0050 1223     		mov	r3, #18
 1123 0052 FB18     		add	r3, r7, r3
 1124 0054 1B78     		ldrb	r3, [r3]
 1125 0056 0F22     		mov	r2, #15
 1126 0058 9A40     		lsl	r2, r2, r3
 1127 005a 131C     		mov	r3, r2
 1128 005c DA43     		mvn	r2, r3
 1129 005e FB68     		ldr	r3, [r7, #12]
 1130 0060 1340     		and	r3, r2
 1131 0062 FB60     		str	r3, [r7, #12]
1060:.\Generated_Source\PSoC4/CapSense.c ****     newRegisterValue |= (uint32)((uint32)CapSense_CSD_SENSE_PORT_MODE << pinHSIOMShift);
 1132              		.loc 1 1060 0
 1133 0064 1223     		mov	r3, #18
 1134 0066 FB18     		add	r3, r7, r3
 1135 0068 1B78     		ldrb	r3, [r3]
 1136 006a 0422     		mov	r2, #4
 1137 006c 9A40     		lsl	r2, r2, r3
 1138 006e 131C     		mov	r3, r2
 1139 0070 FA68     		ldr	r2, [r7, #12]
 1140 0072 1343     		orr	r3, r2
 1141 0074 FB60     		str	r3, [r7, #12]
1061:.\Generated_Source\PSoC4/CapSense.c **** 
1062:.\Generated_Source\PSoC4/CapSense.c ****     *CapSense_prtCfgTbl[port] &= (uint32)~((uint32)CapSense_CSD_PIN_MODE_MASK << pinModeShift);
 1142              		.loc 1 1062 0
 1143 0076 134B     		ldr	r3, .L66+12
 1144 0078 7A69     		ldr	r2, [r7, #20]
 1145 007a 9200     		lsl	r2, r2, #2
 1146 007c D358     		ldr	r3, [r2, r3]
 1147 007e 114A     		ldr	r2, .L66+12
 1148 0080 7969     		ldr	r1, [r7, #20]
 1149 0082 8900     		lsl	r1, r1, #2
 1150 0084 8A58     		ldr	r2, [r1, r2]
ARM GAS  C:\Users\DELL\AppData\Local\Temp\ccRYftE6.s 			page 40


 1151 0086 1268     		ldr	r2, [r2]
 1152 0088 1321     		mov	r1, #19
 1153 008a 7918     		add	r1, r7, r1
 1154 008c 0978     		ldrb	r1, [r1]
 1155 008e 0720     		mov	r0, #7
 1156 0090 8840     		lsl	r0, r0, r1
 1157 0092 011C     		mov	r1, r0
 1158 0094 C943     		mvn	r1, r1
 1159 0096 0A40     		and	r2, r1
 1160 0098 1A60     		str	r2, [r3]
1063:.\Generated_Source\PSoC4/CapSense.c ****     *CapSense_prtSelTbl[port] = newRegisterValue;
 1161              		.loc 1 1063 0
 1162 009a 094B     		ldr	r3, .L66+8
 1163 009c 7A69     		ldr	r2, [r7, #20]
 1164 009e 9200     		lsl	r2, r2, #2
 1165 00a0 D358     		ldr	r3, [r2, r3]
 1166 00a2 FA68     		ldr	r2, [r7, #12]
 1167 00a4 1A60     		str	r2, [r3]
1064:.\Generated_Source\PSoC4/CapSense.c **** 
1065:.\Generated_Source\PSoC4/CapSense.c ****     CyExitCriticalSection(interruptState);
 1168              		.loc 1 1065 0
 1169 00a6 1123     		mov	r3, #17
 1170 00a8 FB18     		add	r3, r7, r3
 1171 00aa 1B78     		ldrb	r3, [r3]
 1172 00ac 181C     		mov	r0, r3
 1173 00ae FFF7FEFF 		bl	CyExitCriticalSection
1066:.\Generated_Source\PSoC4/CapSense.c **** }
 1174              		.loc 1 1066 0
 1175 00b2 BD46     		mov	sp, r7
 1176 00b4 07B0     		add	sp, sp, #28
 1177              		@ sp needed
 1178 00b6 90BD     		pop	{r4, r7, pc}
 1179              	.L67:
 1180              		.align	2
 1181              	.L66:
 1182 00b8 00000000 		.word	CapSense_portTable
 1183 00bc 00000000 		.word	CapSense_pinShiftTbl
 1184 00c0 00000000 		.word	CapSense_prtSelTbl
 1185 00c4 00000000 		.word	CapSense_prtCfgTbl
 1186              		.cfi_endproc
 1187              	.LFE50:
 1188              		.size	CapSense_EnableSensor, .-CapSense_EnableSensor
 1189              		.section	.text.CapSense_DisableSensor,"ax",%progbits
 1190              		.align	2
 1191              		.global	CapSense_DisableSensor
 1192              		.code	16
 1193              		.thumb_func
 1194              		.type	CapSense_DisableSensor, %function
 1195              	CapSense_DisableSensor:
 1196              	.LFB51:
1067:.\Generated_Source\PSoC4/CapSense.c **** 
1068:.\Generated_Source\PSoC4/CapSense.c **** 
1069:.\Generated_Source\PSoC4/CapSense.c **** /*******************************************************************************
1070:.\Generated_Source\PSoC4/CapSense.c **** * Function Name: CapSense_DisableSensor
1071:.\Generated_Source\PSoC4/CapSense.c **** ********************************************************************************
1072:.\Generated_Source\PSoC4/CapSense.c **** *
1073:.\Generated_Source\PSoC4/CapSense.c **** * Summary:
ARM GAS  C:\Users\DELL\AppData\Local\Temp\ccRYftE6.s 			page 41


1074:.\Generated_Source\PSoC4/CapSense.c **** *  Disables the selected sensor. The corresponding pin is disconnected from the
1075:.\Generated_Source\PSoC4/CapSense.c **** *  Analog Mux Bus and connected to GND, High_Z or Shield electrode.
1076:.\Generated_Source\PSoC4/CapSense.c **** *
1077:.\Generated_Source\PSoC4/CapSense.c **** * Parameters:
1078:.\Generated_Source\PSoC4/CapSense.c **** *  sensor:  Sensor number
1079:.\Generated_Source\PSoC4/CapSense.c **** *
1080:.\Generated_Source\PSoC4/CapSense.c **** * Return:
1081:.\Generated_Source\PSoC4/CapSense.c **** *  None
1082:.\Generated_Source\PSoC4/CapSense.c **** *
1083:.\Generated_Source\PSoC4/CapSense.c **** * Global Variables:
1084:.\Generated_Source\PSoC4/CapSense.c **** *  CapSense_portTable[] - used to store the port number that pin
1085:.\Generated_Source\PSoC4/CapSense.c **** *  belongs to for each sensor.
1086:.\Generated_Source\PSoC4/CapSense.c **** *  CapSense_pinShiftTbl[] - used to store position of pin that
1087:.\Generated_Source\PSoC4/CapSense.c **** *  configured as a sensor in the port.
1088:.\Generated_Source\PSoC4/CapSense.c **** *  CapSense_prtSelTbl[] - Contains pointers to the HSIOM
1089:.\Generated_Source\PSoC4/CapSense.c **** *  registers for each port.
1090:.\Generated_Source\PSoC4/CapSense.c **** *  CapSense_PrtCfgTb[] - Contains pointers to the port config
1091:.\Generated_Source\PSoC4/CapSense.c **** *  registers for each port.
1092:.\Generated_Source\PSoC4/CapSense.c **** *
1093:.\Generated_Source\PSoC4/CapSense.c **** * Side Effects:
1094:.\Generated_Source\PSoC4/CapSense.c **** *  None
1095:.\Generated_Source\PSoC4/CapSense.c **** *
1096:.\Generated_Source\PSoC4/CapSense.c **** *******************************************************************************/
1097:.\Generated_Source\PSoC4/CapSense.c **** void CapSense_DisableSensor(uint32 sensor)
1098:.\Generated_Source\PSoC4/CapSense.c **** {
 1197              		.loc 1 1098 0
 1198              		.cfi_startproc
 1199 0000 90B5     		push	{r4, r7, lr}
 1200              		.cfi_def_cfa_offset 12
 1201              		.cfi_offset 4, -12
 1202              		.cfi_offset 7, -8
 1203              		.cfi_offset 14, -4
 1204 0002 89B0     		sub	sp, sp, #36
 1205              		.cfi_def_cfa_offset 48
 1206 0004 00AF     		add	r7, sp, #0
 1207              		.cfi_def_cfa_register 7
 1208 0006 7860     		str	r0, [r7, #4]
1099:.\Generated_Source\PSoC4/CapSense.c ****     uint8 interruptState;
1100:.\Generated_Source\PSoC4/CapSense.c ****     uint32 newRegisterValue;
1101:.\Generated_Source\PSoC4/CapSense.c **** 
1102:.\Generated_Source\PSoC4/CapSense.c ****     uint32 port = (uint32) CapSense_portTable[sensor];
 1209              		.loc 1 1102 0
 1210 0008 3D4A     		ldr	r2, .L71
 1211 000a 7B68     		ldr	r3, [r7, #4]
 1212 000c D318     		add	r3, r2, r3
 1213 000e 1B78     		ldrb	r3, [r3]
 1214 0010 7B61     		str	r3, [r7, #20]
1103:.\Generated_Source\PSoC4/CapSense.c ****     uint8  pinHSIOMShift = CapSense_pinShiftTbl[sensor] * CapSense_HSIOM_PIN_CFG_SIZE;
 1215              		.loc 1 1103 0
 1216 0012 3C4A     		ldr	r2, .L71+4
 1217 0014 7B68     		ldr	r3, [r7, #4]
 1218 0016 D318     		add	r3, r2, r3
 1219 0018 1A78     		ldrb	r2, [r3]
 1220 001a 1323     		mov	r3, #19
 1221 001c FB18     		add	r3, r7, r3
 1222 001e 9200     		lsl	r2, r2, #2
 1223 0020 1A70     		strb	r2, [r3]
ARM GAS  C:\Users\DELL\AppData\Local\Temp\ccRYftE6.s 			page 42


1104:.\Generated_Source\PSoC4/CapSense.c ****     uint8  pinModeShift = CapSense_pinShiftTbl[sensor]  * CapSense_PC_PIN_CFG_SIZE;
 1224              		.loc 1 1104 0
 1225 0022 384A     		ldr	r2, .L71+4
 1226 0024 7B68     		ldr	r3, [r7, #4]
 1227 0026 D318     		add	r3, r2, r3
 1228 0028 1B78     		ldrb	r3, [r3]
 1229 002a 1222     		mov	r2, #18
 1230 002c BA18     		add	r2, r7, r2
 1231 002e 191C     		add	r1, r3, #0
 1232 0030 0B1C     		add	r3, r1, #0
 1233 0032 DB18     		add	r3, r3, r3
 1234 0034 5B18     		add	r3, r3, r1
 1235 0036 1370     		strb	r3, [r2]
1105:.\Generated_Source\PSoC4/CapSense.c **** 
1106:.\Generated_Source\PSoC4/CapSense.c ****     uint32 inactiveConnect = CapSense_SNS_HIZANALOG_CONNECT;
 1236              		.loc 1 1106 0
 1237 0038 0023     		mov	r3, #0
 1238 003a FB61     		str	r3, [r7, #28]
1107:.\Generated_Source\PSoC4/CapSense.c ****     uint32 sensorState = CapSense_unscannedSnsDriveMode[sensor];
 1239              		.loc 1 1107 0
 1240 003c 324A     		ldr	r2, .L71+8
 1241 003e 7B68     		ldr	r3, [r7, #4]
 1242 0040 D318     		add	r3, r2, r3
 1243 0042 1B78     		ldrb	r3, [r3]
 1244 0044 BB61     		str	r3, [r7, #24]
1108:.\Generated_Source\PSoC4/CapSense.c **** 
1109:.\Generated_Source\PSoC4/CapSense.c ****     *CapSense_prtSelTbl[port] &= ~(CapSense_CSD_HSIOM_MASK << pinHSIOMShift);
 1245              		.loc 1 1109 0
 1246 0046 314B     		ldr	r3, .L71+12
 1247 0048 7A69     		ldr	r2, [r7, #20]
 1248 004a 9200     		lsl	r2, r2, #2
 1249 004c D358     		ldr	r3, [r2, r3]
 1250 004e 2F4A     		ldr	r2, .L71+12
 1251 0050 7969     		ldr	r1, [r7, #20]
 1252 0052 8900     		lsl	r1, r1, #2
 1253 0054 8A58     		ldr	r2, [r1, r2]
 1254 0056 1268     		ldr	r2, [r2]
 1255 0058 1321     		mov	r1, #19
 1256 005a 7918     		add	r1, r7, r1
 1257 005c 0978     		ldrb	r1, [r1]
 1258 005e 0F20     		mov	r0, #15
 1259 0060 8840     		lsl	r0, r0, r1
 1260 0062 011C     		mov	r1, r0
 1261 0064 C943     		mvn	r1, r1
 1262 0066 0A40     		and	r2, r1
 1263 0068 1A60     		str	r2, [r3]
1110:.\Generated_Source\PSoC4/CapSense.c **** 
1111:.\Generated_Source\PSoC4/CapSense.c ****     #if(CapSense_IS_SHIELD_ENABLE != 0)
1112:.\Generated_Source\PSoC4/CapSense.c ****     if(sensorState != (uint32)CapSense__SHIELD)
1113:.\Generated_Source\PSoC4/CapSense.c ****     {
1114:.\Generated_Source\PSoC4/CapSense.c ****     #else
1115:.\Generated_Source\PSoC4/CapSense.c ****         /* Connected to Ground if shield is disabled */
1116:.\Generated_Source\PSoC4/CapSense.c ****         if(sensorState == (uint32)CapSense__SHIELD)
 1264              		.loc 1 1116 0
 1265 006a BB69     		ldr	r3, [r7, #24]
 1266 006c 022B     		cmp	r3, #2
 1267 006e 01D1     		bne	.L69
ARM GAS  C:\Users\DELL\AppData\Local\Temp\ccRYftE6.s 			page 43


1117:.\Generated_Source\PSoC4/CapSense.c ****         {
1118:.\Generated_Source\PSoC4/CapSense.c ****             sensorState = (uint32)CapSense__GROUND;
 1268              		.loc 1 1118 0
 1269 0070 0023     		mov	r3, #0
 1270 0072 BB61     		str	r3, [r7, #24]
 1271              	.L69:
1119:.\Generated_Source\PSoC4/CapSense.c ****         }
1120:.\Generated_Source\PSoC4/CapSense.c ****     #endif /* (CapSense_IS_SHIELD_ENABLE) */
1121:.\Generated_Source\PSoC4/CapSense.c ****         if(sensorState != (uint32)CapSense__HIZ_ANALOG)
 1272              		.loc 1 1121 0
 1273 0074 BB69     		ldr	r3, [r7, #24]
 1274 0076 012B     		cmp	r3, #1
 1275 0078 01D0     		beq	.L70
1122:.\Generated_Source\PSoC4/CapSense.c ****         {
1123:.\Generated_Source\PSoC4/CapSense.c ****             /* Connected to Ground */
1124:.\Generated_Source\PSoC4/CapSense.c ****             inactiveConnect = (uint32)CapSense_SNS_GROUND_CONNECT;
 1276              		.loc 1 1124 0
 1277 007a 0623     		mov	r3, #6
 1278 007c FB61     		str	r3, [r7, #28]
 1279              	.L70:
1125:.\Generated_Source\PSoC4/CapSense.c ****         }
1126:.\Generated_Source\PSoC4/CapSense.c **** 
1127:.\Generated_Source\PSoC4/CapSense.c ****         interruptState = CyEnterCriticalSection();
 1280              		.loc 1 1127 0
 1281 007e 1123     		mov	r3, #17
 1282 0080 FC18     		add	r4, r7, r3
 1283 0082 FFF7FEFF 		bl	CyEnterCriticalSection
 1284 0086 031C     		mov	r3, r0
 1285 0088 2370     		strb	r3, [r4]
1128:.\Generated_Source\PSoC4/CapSense.c **** 
1129:.\Generated_Source\PSoC4/CapSense.c ****         /* Set drive mode */
1130:.\Generated_Source\PSoC4/CapSense.c ****         newRegisterValue = *CapSense_prtCfgTbl[port];
 1286              		.loc 1 1130 0
 1287 008a 214B     		ldr	r3, .L71+16
 1288 008c 7A69     		ldr	r2, [r7, #20]
 1289 008e 9200     		lsl	r2, r2, #2
 1290 0090 D358     		ldr	r3, [r2, r3]
 1291 0092 1B68     		ldr	r3, [r3]
 1292 0094 FB60     		str	r3, [r7, #12]
1131:.\Generated_Source\PSoC4/CapSense.c ****         newRegisterValue &= ~(CapSense_CSD_PIN_MODE_MASK << pinModeShift);
 1293              		.loc 1 1131 0
 1294 0096 1223     		mov	r3, #18
 1295 0098 FB18     		add	r3, r7, r3
 1296 009a 1B78     		ldrb	r3, [r3]
 1297 009c 0722     		mov	r2, #7
 1298 009e 9A40     		lsl	r2, r2, r3
 1299 00a0 131C     		mov	r3, r2
 1300 00a2 DA43     		mvn	r2, r3
 1301 00a4 FB68     		ldr	r3, [r7, #12]
 1302 00a6 1340     		and	r3, r2
 1303 00a8 FB60     		str	r3, [r7, #12]
1132:.\Generated_Source\PSoC4/CapSense.c ****         newRegisterValue |=  (uint32)(inactiveConnect << pinModeShift);
 1304              		.loc 1 1132 0
 1305 00aa 1223     		mov	r3, #18
 1306 00ac FB18     		add	r3, r7, r3
 1307 00ae 1B78     		ldrb	r3, [r3]
 1308 00b0 FA69     		ldr	r2, [r7, #28]
ARM GAS  C:\Users\DELL\AppData\Local\Temp\ccRYftE6.s 			page 44


 1309 00b2 9A40     		lsl	r2, r2, r3
 1310 00b4 131C     		mov	r3, r2
 1311 00b6 FA68     		ldr	r2, [r7, #12]
 1312 00b8 1343     		orr	r3, r2
 1313 00ba FB60     		str	r3, [r7, #12]
1133:.\Generated_Source\PSoC4/CapSense.c ****         *CapSense_prtCfgTbl[port] =  newRegisterValue;
 1314              		.loc 1 1133 0
 1315 00bc 144B     		ldr	r3, .L71+16
 1316 00be 7A69     		ldr	r2, [r7, #20]
 1317 00c0 9200     		lsl	r2, r2, #2
 1318 00c2 D358     		ldr	r3, [r2, r3]
 1319 00c4 FA68     		ldr	r2, [r7, #12]
 1320 00c6 1A60     		str	r2, [r3]
1134:.\Generated_Source\PSoC4/CapSense.c **** 
1135:.\Generated_Source\PSoC4/CapSense.c ****         CyExitCriticalSection(interruptState);
 1321              		.loc 1 1135 0
 1322 00c8 1123     		mov	r3, #17
 1323 00ca FB18     		add	r3, r7, r3
 1324 00cc 1B78     		ldrb	r3, [r3]
 1325 00ce 181C     		mov	r0, r3
 1326 00d0 FFF7FEFF 		bl	CyExitCriticalSection
1136:.\Generated_Source\PSoC4/CapSense.c **** 
1137:.\Generated_Source\PSoC4/CapSense.c ****         *CapSense_prtDRTbl[port]  &=  (uint32)~(uint32)((uint32)1u << CapSense_pinShiftTbl[sensor])
 1327              		.loc 1 1137 0
 1328 00d4 0F4B     		ldr	r3, .L71+20
 1329 00d6 7A69     		ldr	r2, [r7, #20]
 1330 00d8 9200     		lsl	r2, r2, #2
 1331 00da D358     		ldr	r3, [r2, r3]
 1332 00dc 0D4A     		ldr	r2, .L71+20
 1333 00de 7969     		ldr	r1, [r7, #20]
 1334 00e0 8900     		lsl	r1, r1, #2
 1335 00e2 8A58     		ldr	r2, [r1, r2]
 1336 00e4 1268     		ldr	r2, [r2]
 1337 00e6 0748     		ldr	r0, .L71+4
 1338 00e8 7968     		ldr	r1, [r7, #4]
 1339 00ea 4118     		add	r1, r0, r1
 1340 00ec 0978     		ldrb	r1, [r1]
 1341 00ee 081C     		mov	r0, r1
 1342 00f0 0121     		mov	r1, #1
 1343 00f2 8140     		lsl	r1, r1, r0
 1344 00f4 C943     		mvn	r1, r1
 1345 00f6 0A40     		and	r2, r1
 1346 00f8 1A60     		str	r2, [r3]
1138:.\Generated_Source\PSoC4/CapSense.c ****     #if(CapSense_IS_SHIELD_ENABLE != 0)
1139:.\Generated_Source\PSoC4/CapSense.c ****     }
1140:.\Generated_Source\PSoC4/CapSense.c ****     else
1141:.\Generated_Source\PSoC4/CapSense.c ****     {
1142:.\Generated_Source\PSoC4/CapSense.c ****         /* Connect to Shield */
1143:.\Generated_Source\PSoC4/CapSense.c ****         *CapSense_prtSelTbl[port] |= (CapSense_CSD_SHIELD_PORT_MODE << pinHSIOMShift);
1144:.\Generated_Source\PSoC4/CapSense.c ****     }
1145:.\Generated_Source\PSoC4/CapSense.c ****     #endif /* (CapSense_IS_SHIELD_ENABLE) */
1146:.\Generated_Source\PSoC4/CapSense.c **** }
 1347              		.loc 1 1146 0
 1348 00fa BD46     		mov	sp, r7
 1349 00fc 09B0     		add	sp, sp, #36
 1350              		@ sp needed
 1351 00fe 90BD     		pop	{r4, r7, pc}
ARM GAS  C:\Users\DELL\AppData\Local\Temp\ccRYftE6.s 			page 45


 1352              	.L72:
 1353              		.align	2
 1354              	.L71:
 1355 0100 00000000 		.word	CapSense_portTable
 1356 0104 00000000 		.word	CapSense_pinShiftTbl
 1357 0108 00000000 		.word	CapSense_unscannedSnsDriveMode
 1358 010c 00000000 		.word	CapSense_prtSelTbl
 1359 0110 00000000 		.word	CapSense_prtCfgTbl
 1360 0114 00000000 		.word	CapSense_prtDRTbl
 1361              		.cfi_endproc
 1362              	.LFE51:
 1363              		.size	CapSense_DisableSensor, .-CapSense_DisableSensor
 1364              		.section	.text.CapSense_SetDriveModeAllPins,"ax",%progbits
 1365              		.align	2
 1366              		.global	CapSense_SetDriveModeAllPins
 1367              		.code	16
 1368              		.thumb_func
 1369              		.type	CapSense_SetDriveModeAllPins, %function
 1370              	CapSense_SetDriveModeAllPins:
 1371              	.LFB52:
1147:.\Generated_Source\PSoC4/CapSense.c **** 
1148:.\Generated_Source\PSoC4/CapSense.c **** 
1149:.\Generated_Source\PSoC4/CapSense.c **** /*******************************************************************************
1150:.\Generated_Source\PSoC4/CapSense.c **** * Function Name: CapSense_SetDriveModeAllPins
1151:.\Generated_Source\PSoC4/CapSense.c **** ********************************************************************************
1152:.\Generated_Source\PSoC4/CapSense.c **** *
1153:.\Generated_Source\PSoC4/CapSense.c **** * Summary:
1154:.\Generated_Source\PSoC4/CapSense.c **** * This API sets the drive mode of port pins used by the CapSense
1155:.\Generated_Source\PSoC4/CapSense.c **** * component (sensors, guard, shield, shield tank and Cmod) to drive the
1156:.\Generated_Source\PSoC4/CapSense.c **** * mode specified by the argument.
1157:.\Generated_Source\PSoC4/CapSense.c **** *
1158:.\Generated_Source\PSoC4/CapSense.c **** * Parameters:
1159:.\Generated_Source\PSoC4/CapSense.c **** *  driveMode:  Drive mode definition.
1160:.\Generated_Source\PSoC4/CapSense.c **** *
1161:.\Generated_Source\PSoC4/CapSense.c **** * Return:
1162:.\Generated_Source\PSoC4/CapSense.c **** *  None
1163:.\Generated_Source\PSoC4/CapSense.c **** *
1164:.\Generated_Source\PSoC4/CapSense.c **** * Global Variables:
1165:.\Generated_Source\PSoC4/CapSense.c **** *  CapSense_portTable[] - used to store the port number that pin
1166:.\Generated_Source\PSoC4/CapSense.c **** *  belongs to for each sensor.
1167:.\Generated_Source\PSoC4/CapSense.c **** *  CapSense_pinShiftTbl[] - used to store position of pin that
1168:.\Generated_Source\PSoC4/CapSense.c **** *  configured as a sensor in the port.
1169:.\Generated_Source\PSoC4/CapSense.c **** *
1170:.\Generated_Source\PSoC4/CapSense.c **** * Side Effects:
1171:.\Generated_Source\PSoC4/CapSense.c **** *  This API shall be called only after CapSense component is stopped.
1172:.\Generated_Source\PSoC4/CapSense.c **** *
1173:.\Generated_Source\PSoC4/CapSense.c **** *******************************************************************************/
1174:.\Generated_Source\PSoC4/CapSense.c **** void CapSense_SetDriveModeAllPins(uint32 driveMode)
1175:.\Generated_Source\PSoC4/CapSense.c **** {
 1372              		.loc 1 1175 0
 1373              		.cfi_startproc
 1374 0000 80B5     		push	{r7, lr}
 1375              		.cfi_def_cfa_offset 8
 1376              		.cfi_offset 7, -8
 1377              		.cfi_offset 14, -4
 1378 0002 86B0     		sub	sp, sp, #24
 1379              		.cfi_def_cfa_offset 32
ARM GAS  C:\Users\DELL\AppData\Local\Temp\ccRYftE6.s 			page 46


 1380 0004 00AF     		add	r7, sp, #0
 1381              		.cfi_def_cfa_register 7
 1382 0006 7860     		str	r0, [r7, #4]
1176:.\Generated_Source\PSoC4/CapSense.c ****     uint8 curSensor;
1177:.\Generated_Source\PSoC4/CapSense.c ****     #if (CapSense_IS_COMPLEX_SCANSLOTS)
1178:.\Generated_Source\PSoC4/CapSense.c ****         uint8 snsNumber;
1179:.\Generated_Source\PSoC4/CapSense.c ****         uint8 snsType;
1180:.\Generated_Source\PSoC4/CapSense.c ****     #endif  /* CapSense_IS_COMPLEX_SCANSLOTS */
1181:.\Generated_Source\PSoC4/CapSense.c ****     uint32 prtNumberTmp;
1182:.\Generated_Source\PSoC4/CapSense.c ****     uint32 pinNumberTmp;
1183:.\Generated_Source\PSoC4/CapSense.c **** 
1184:.\Generated_Source\PSoC4/CapSense.c ****     for(curSensor = 0u; curSensor < CapSense_TOTAL_SENSOR_COUNT; curSensor++)
 1383              		.loc 1 1184 0
 1384 0008 1723     		mov	r3, #23
 1385 000a FB18     		add	r3, r7, r3
 1386 000c 0022     		mov	r2, #0
 1387 000e 1A70     		strb	r2, [r3]
 1388 0010 1AE0     		b	.L74
 1389              	.L75:
1185:.\Generated_Source\PSoC4/CapSense.c ****     {
1186:.\Generated_Source\PSoC4/CapSense.c ****         #if (CapSense_IS_COMPLEX_SCANSLOTS)
1187:.\Generated_Source\PSoC4/CapSense.c ****             /* Read sensor type: single or complex */
1188:.\Generated_Source\PSoC4/CapSense.c ****             snsType = CapSense_portTable[curSensor];
1189:.\Generated_Source\PSoC4/CapSense.c **** 
1190:.\Generated_Source\PSoC4/CapSense.c ****             /* Check if sensor is complex */
1191:.\Generated_Source\PSoC4/CapSense.c ****             if ((snsType & CapSense_COMPLEX_SS_FLAG) == 0u)
1192:.\Generated_Source\PSoC4/CapSense.c ****             {
1193:.\Generated_Source\PSoC4/CapSense.c ****                 /* The sensor is not complex */
1194:.\Generated_Source\PSoC4/CapSense.c ****                 snsNumber = curSensor;
1195:.\Generated_Source\PSoC4/CapSense.c ****             }
1196:.\Generated_Source\PSoC4/CapSense.c ****             else
1197:.\Generated_Source\PSoC4/CapSense.c ****             {
1198:.\Generated_Source\PSoC4/CapSense.c ****                 /* Get dedicated sensor ID of the complex sensor */
1199:.\Generated_Source\PSoC4/CapSense.c ****                 snsType &= ~CapSense_COMPLEX_SS_FLAG;
1200:.\Generated_Source\PSoC4/CapSense.c ****                 snsNumber = CapSense_indexTable[snsType];
1201:.\Generated_Source\PSoC4/CapSense.c ****             }
1202:.\Generated_Source\PSoC4/CapSense.c **** 
1203:.\Generated_Source\PSoC4/CapSense.c ****             prtNumberTmp = CapSense_portTable[snsNumber];
1204:.\Generated_Source\PSoC4/CapSense.c ****             pinNumberTmp = CapSense_pinShiftTbl[snsNumber];
1205:.\Generated_Source\PSoC4/CapSense.c ****         #else
1206:.\Generated_Source\PSoC4/CapSense.c ****             prtNumberTmp = CapSense_portTable[curSensor];
 1390              		.loc 1 1206 0 discriminator 3
 1391 0012 1723     		mov	r3, #23
 1392 0014 FB18     		add	r3, r7, r3
 1393 0016 1B78     		ldrb	r3, [r3]
 1394 0018 124A     		ldr	r2, .L76
 1395 001a D35C     		ldrb	r3, [r2, r3]
 1396 001c 3B61     		str	r3, [r7, #16]
1207:.\Generated_Source\PSoC4/CapSense.c ****             pinNumberTmp = CapSense_pinShiftTbl[curSensor];
 1397              		.loc 1 1207 0 discriminator 3
 1398 001e 1723     		mov	r3, #23
 1399 0020 FB18     		add	r3, r7, r3
 1400 0022 1B78     		ldrb	r3, [r3]
 1401 0024 104A     		ldr	r2, .L76+4
 1402 0026 D35C     		ldrb	r3, [r2, r3]
 1403 0028 FB60     		str	r3, [r7, #12]
1208:.\Generated_Source\PSoC4/CapSense.c ****         #endif  /* CapSense_IS_COMPLEX_SCANSLOTS */
ARM GAS  C:\Users\DELL\AppData\Local\Temp\ccRYftE6.s 			page 47


1209:.\Generated_Source\PSoC4/CapSense.c **** 
1210:.\Generated_Source\PSoC4/CapSense.c ****         CapSense_SetPinDriveMode(driveMode, pinNumberTmp, prtNumberTmp);
 1404              		.loc 1 1210 0 discriminator 3
 1405 002a 7968     		ldr	r1, [r7, #4]
 1406 002c FA68     		ldr	r2, [r7, #12]
 1407 002e 3B69     		ldr	r3, [r7, #16]
 1408 0030 081C     		mov	r0, r1
 1409 0032 111C     		mov	r1, r2
 1410 0034 1A1C     		mov	r2, r3
 1411 0036 FFF7FEFF 		bl	CapSense_SetPinDriveMode
1184:.\Generated_Source\PSoC4/CapSense.c ****     {
 1412              		.loc 1 1184 0 discriminator 3
 1413 003a 1723     		mov	r3, #23
 1414 003c FB18     		add	r3, r7, r3
 1415 003e 1A78     		ldrb	r2, [r3]
 1416 0040 1723     		mov	r3, #23
 1417 0042 FB18     		add	r3, r7, r3
 1418 0044 0132     		add	r2, r2, #1
 1419 0046 1A70     		strb	r2, [r3]
 1420              	.L74:
1184:.\Generated_Source\PSoC4/CapSense.c ****     {
 1421              		.loc 1 1184 0 is_stmt 0 discriminator 1
 1422 0048 1723     		mov	r3, #23
 1423 004a FB18     		add	r3, r7, r3
 1424 004c 1B78     		ldrb	r3, [r3]
 1425 004e 042B     		cmp	r3, #4
 1426 0050 DFD9     		bls	.L75
1211:.\Generated_Source\PSoC4/CapSense.c ****     }
1212:.\Generated_Source\PSoC4/CapSense.c **** 
1213:.\Generated_Source\PSoC4/CapSense.c ****     CapSense_SetPinDriveMode(driveMode, (uint32)CapSense_CMOD_PIN_NUMBER, (uint32)CapSense_CMOD_PRT
 1427              		.loc 1 1213 0 is_stmt 1
 1428 0052 7B68     		ldr	r3, [r7, #4]
 1429 0054 181C     		mov	r0, r3
 1430 0056 0021     		mov	r1, #0
 1431 0058 0422     		mov	r2, #4
 1432 005a FFF7FEFF 		bl	CapSense_SetPinDriveMode
1214:.\Generated_Source\PSoC4/CapSense.c **** 
1215:.\Generated_Source\PSoC4/CapSense.c ****     #if(0u != CapSense_CSH_TANK_ENABLE)
1216:.\Generated_Source\PSoC4/CapSense.c ****         CapSense_SetPinDriveMode(driveMode, (uint32)CapSense_CTANK_PIN_NUMBER, (uint32)CapSense_CTA
1217:.\Generated_Source\PSoC4/CapSense.c ****     #endif /* (0u != CapSense_CSH_TANK_ENABLE) */
1218:.\Generated_Source\PSoC4/CapSense.c **** 
1219:.\Generated_Source\PSoC4/CapSense.c ****     #if(0u != CapSense_IS_SHIELD_ENABLE)
1220:.\Generated_Source\PSoC4/CapSense.c ****         CapSense_SetPinDriveMode(driveMode, (uint32)CapSense_SHIELD_PIN_NUMBER, (uint32)CapSense_SH
1221:.\Generated_Source\PSoC4/CapSense.c ****     #endif /* (0u != CapSense_IS_SHIELD_ENABLE) */
1222:.\Generated_Source\PSoC4/CapSense.c **** }
 1433              		.loc 1 1222 0
 1434 005e BD46     		mov	sp, r7
 1435 0060 06B0     		add	sp, sp, #24
 1436              		@ sp needed
 1437 0062 80BD     		pop	{r7, pc}
 1438              	.L77:
 1439              		.align	2
 1440              	.L76:
 1441 0064 00000000 		.word	CapSense_portTable
 1442 0068 00000000 		.word	CapSense_pinShiftTbl
 1443              		.cfi_endproc
 1444              	.LFE52:
ARM GAS  C:\Users\DELL\AppData\Local\Temp\ccRYftE6.s 			page 48


 1445              		.size	CapSense_SetDriveModeAllPins, .-CapSense_SetDriveModeAllPins
 1446              		.section	.text.CapSense_RestoreDriveModeAllPins,"ax",%progbits
 1447              		.align	2
 1448              		.global	CapSense_RestoreDriveModeAllPins
 1449              		.code	16
 1450              		.thumb_func
 1451              		.type	CapSense_RestoreDriveModeAllPins, %function
 1452              	CapSense_RestoreDriveModeAllPins:
 1453              	.LFB53:
1223:.\Generated_Source\PSoC4/CapSense.c **** 
1224:.\Generated_Source\PSoC4/CapSense.c **** 
1225:.\Generated_Source\PSoC4/CapSense.c **** /*******************************************************************************
1226:.\Generated_Source\PSoC4/CapSense.c **** * Function Name: CapSense_RestoreDriveModeAllPins
1227:.\Generated_Source\PSoC4/CapSense.c **** ********************************************************************************
1228:.\Generated_Source\PSoC4/CapSense.c **** *
1229:.\Generated_Source\PSoC4/CapSense.c **** * Summary:
1230:.\Generated_Source\PSoC4/CapSense.c **** *  This API restores the drive for all the CapSense port pins to the original
1231:.\Generated_Source\PSoC4/CapSense.c **** *  state.
1232:.\Generated_Source\PSoC4/CapSense.c **** *
1233:.\Generated_Source\PSoC4/CapSense.c **** * Parameters:
1234:.\Generated_Source\PSoC4/CapSense.c **** *  None
1235:.\Generated_Source\PSoC4/CapSense.c **** *
1236:.\Generated_Source\PSoC4/CapSense.c **** * Return:
1237:.\Generated_Source\PSoC4/CapSense.c **** *  None
1238:.\Generated_Source\PSoC4/CapSense.c **** *
1239:.\Generated_Source\PSoC4/CapSense.c **** * Global Variables:
1240:.\Generated_Source\PSoC4/CapSense.c **** *  CapSense_prtSelTbl[] - Contains pointers to the HSIOM
1241:.\Generated_Source\PSoC4/CapSense.c **** *  registers for each port.
1242:.\Generated_Source\PSoC4/CapSense.c **** *
1243:.\Generated_Source\PSoC4/CapSense.c **** * Side Effects:
1244:.\Generated_Source\PSoC4/CapSense.c **** *  This API is called only after the CapSense component is stopped.
1245:.\Generated_Source\PSoC4/CapSense.c **** *
1246:.\Generated_Source\PSoC4/CapSense.c **** *******************************************************************************/
1247:.\Generated_Source\PSoC4/CapSense.c **** void CapSense_RestoreDriveModeAllPins(void)
1248:.\Generated_Source\PSoC4/CapSense.c **** {
 1454              		.loc 1 1248 0
 1455              		.cfi_startproc
 1456 0000 80B5     		push	{r7, lr}
 1457              		.cfi_def_cfa_offset 8
 1458              		.cfi_offset 7, -8
 1459              		.cfi_offset 14, -4
 1460 0002 82B0     		sub	sp, sp, #8
 1461              		.cfi_def_cfa_offset 16
 1462 0004 00AF     		add	r7, sp, #0
 1463              		.cfi_def_cfa_register 7
1249:.\Generated_Source\PSoC4/CapSense.c ****     uint32 newRegisterValue;
1250:.\Generated_Source\PSoC4/CapSense.c **** 
1251:.\Generated_Source\PSoC4/CapSense.c ****     CapSense_SetDriveModeAllPins(CY_SYS_PINS_DM_ALG_HIZ);
 1464              		.loc 1 1251 0
 1465 0006 0020     		mov	r0, #0
 1466 0008 FFF7FEFF 		bl	CapSense_SetDriveModeAllPins
1252:.\Generated_Source\PSoC4/CapSense.c **** 
1253:.\Generated_Source\PSoC4/CapSense.c ****     newRegisterValue = CapSense_CMOD_CONNECTION_REG;
 1467              		.loc 1 1253 0
 1468 000c 084B     		ldr	r3, .L79
 1469 000e 1B68     		ldr	r3, [r3]
 1470 0010 7B60     		str	r3, [r7, #4]
ARM GAS  C:\Users\DELL\AppData\Local\Temp\ccRYftE6.s 			page 49


1254:.\Generated_Source\PSoC4/CapSense.c ****     newRegisterValue &= ~(CapSense_CSD_CMOD_CONNECTION_MASK);
 1471              		.loc 1 1254 0
 1472 0012 7B68     		ldr	r3, [r7, #4]
 1473 0014 0F22     		mov	r2, #15
 1474 0016 9343     		bic	r3, r2
 1475 0018 7B60     		str	r3, [r7, #4]
1255:.\Generated_Source\PSoC4/CapSense.c ****     newRegisterValue |= CapSense_CSD_CMOD_TO_AMUXBUS_A;
 1476              		.loc 1 1255 0
 1477 001a 7B68     		ldr	r3, [r7, #4]
 1478 001c 0622     		mov	r2, #6
 1479 001e 1343     		orr	r3, r2
 1480 0020 7B60     		str	r3, [r7, #4]
1256:.\Generated_Source\PSoC4/CapSense.c ****     CapSense_CMOD_CONNECTION_REG = newRegisterValue;
 1481              		.loc 1 1256 0
 1482 0022 034B     		ldr	r3, .L79
 1483 0024 7A68     		ldr	r2, [r7, #4]
 1484 0026 1A60     		str	r2, [r3]
1257:.\Generated_Source\PSoC4/CapSense.c **** 
1258:.\Generated_Source\PSoC4/CapSense.c ****     #if(0u != CapSense_CSH_TANK_ENABLE)
1259:.\Generated_Source\PSoC4/CapSense.c ****         newRegisterValue = CapSense_CTANK_CONNECTION_REG;
1260:.\Generated_Source\PSoC4/CapSense.c ****         newRegisterValue &= ~(CapSense_CSD_CTANK_CONNECTION_MASK);
1261:.\Generated_Source\PSoC4/CapSense.c ****         newRegisterValue |= CapSense_CSD_CTANK_TO_AMUXBUS_B;
1262:.\Generated_Source\PSoC4/CapSense.c ****         CapSense_CTANK_CONNECTION_REG = newRegisterValue;
1263:.\Generated_Source\PSoC4/CapSense.c ****     #endif/* (0u != CapSense_CSH_TANK_ENABLE) */
1264:.\Generated_Source\PSoC4/CapSense.c **** 
1265:.\Generated_Source\PSoC4/CapSense.c ****     #if(0u != CapSense_IS_SHIELD_ENABLE)
1266:.\Generated_Source\PSoC4/CapSense.c ****         newRegisterValue = *CapSense_prtSelTbl[CapSense_SHIELD_PORT_NUMBER];
1267:.\Generated_Source\PSoC4/CapSense.c ****         newRegisterValue &= ~(CapSense_CSD_HSIOM_MASK << ((uint32)CapSense_SHIELD_PIN_NUMBER * CapS
1268:.\Generated_Source\PSoC4/CapSense.c ****         newRegisterValue |= (CapSense_CSD_SHIELD_PORT_MODE << ((uint32)CapSense_SHIELD_PIN_NUMBER *
1269:.\Generated_Source\PSoC4/CapSense.c ****         *CapSense_prtSelTbl[CapSense_SHIELD_PORT_NUMBER] = newRegisterValue;
1270:.\Generated_Source\PSoC4/CapSense.c ****     #endif /* (0u != CapSense_IS_SHIELD_ENABLE) */
1271:.\Generated_Source\PSoC4/CapSense.c **** }
 1485              		.loc 1 1271 0
 1486 0028 BD46     		mov	sp, r7
 1487 002a 02B0     		add	sp, sp, #8
 1488              		@ sp needed
 1489 002c 80BD     		pop	{r7, pc}
 1490              	.L80:
 1491 002e C046     		.align	2
 1492              	.L79:
 1493 0030 00040240 		.word	1073873920
 1494              		.cfi_endproc
 1495              	.LFE53:
 1496              		.size	CapSense_RestoreDriveModeAllPins, .-CapSense_RestoreDriveModeAllPins
 1497              		.section	.text.CapSense_SetPinDriveMode,"ax",%progbits
 1498              		.align	2
 1499              		.global	CapSense_SetPinDriveMode
 1500              		.code	16
 1501              		.thumb_func
 1502              		.type	CapSense_SetPinDriveMode, %function
 1503              	CapSense_SetPinDriveMode:
 1504              	.LFB54:
1272:.\Generated_Source\PSoC4/CapSense.c **** 
1273:.\Generated_Source\PSoC4/CapSense.c **** 
1274:.\Generated_Source\PSoC4/CapSense.c **** /*******************************************************************************
1275:.\Generated_Source\PSoC4/CapSense.c **** * Function Name: CapSense_SetPinDriveMode
1276:.\Generated_Source\PSoC4/CapSense.c **** ********************************************************************************
ARM GAS  C:\Users\DELL\AppData\Local\Temp\ccRYftE6.s 			page 50


1277:.\Generated_Source\PSoC4/CapSense.c **** *
1278:.\Generated_Source\PSoC4/CapSense.c **** * Summary:
1279:.\Generated_Source\PSoC4/CapSense.c **** * This API sets the drive mode for the appropriate port/pin.
1280:.\Generated_Source\PSoC4/CapSense.c **** *
1281:.\Generated_Source\PSoC4/CapSense.c **** * Parameters:
1282:.\Generated_Source\PSoC4/CapSense.c **** *  driveMode:  Drive mode definition.
1283:.\Generated_Source\PSoC4/CapSense.c **** *  portNumber: contains port number (0, 1, 2).
1284:.\Generated_Source\PSoC4/CapSense.c **** *  pinNumber: contains pin number (0, 1, 2, ... , 7).
1285:.\Generated_Source\PSoC4/CapSense.c **** *
1286:.\Generated_Source\PSoC4/CapSense.c **** * Return:
1287:.\Generated_Source\PSoC4/CapSense.c **** *  None
1288:.\Generated_Source\PSoC4/CapSense.c **** *
1289:.\Generated_Source\PSoC4/CapSense.c **** * Global Variables:
1290:.\Generated_Source\PSoC4/CapSense.c **** *  CapSense_prtSelTbl[] - Contains pointers to the HSIOM
1291:.\Generated_Source\PSoC4/CapSense.c **** *  registers for each port.
1292:.\Generated_Source\PSoC4/CapSense.c **** *  CapSense_prtCfgTb[] - Contains pointers to the port config
1293:.\Generated_Source\PSoC4/CapSense.c **** *  registers for each port.
1294:.\Generated_Source\PSoC4/CapSense.c **** *
1295:.\Generated_Source\PSoC4/CapSense.c **** * Side Effects:
1296:.\Generated_Source\PSoC4/CapSense.c **** *  This API is called only after CapSense component is stopped.
1297:.\Generated_Source\PSoC4/CapSense.c **** *
1298:.\Generated_Source\PSoC4/CapSense.c **** *******************************************************************************/
1299:.\Generated_Source\PSoC4/CapSense.c **** void CapSense_SetPinDriveMode(uint32 driveMode, uint32 pinNumber, uint32 portNumber)
1300:.\Generated_Source\PSoC4/CapSense.c **** {
 1505              		.loc 1 1300 0
 1506              		.cfi_startproc
 1507 0000 80B5     		push	{r7, lr}
 1508              		.cfi_def_cfa_offset 8
 1509              		.cfi_offset 7, -8
 1510              		.cfi_offset 14, -4
 1511 0002 86B0     		sub	sp, sp, #24
 1512              		.cfi_def_cfa_offset 32
 1513 0004 00AF     		add	r7, sp, #0
 1514              		.cfi_def_cfa_register 7
 1515 0006 F860     		str	r0, [r7, #12]
 1516 0008 B960     		str	r1, [r7, #8]
 1517 000a 7A60     		str	r2, [r7, #4]
1301:.\Generated_Source\PSoC4/CapSense.c ****     uint32  pinModeShift;
1302:.\Generated_Source\PSoC4/CapSense.c ****     uint32 newRegisterValue;
1303:.\Generated_Source\PSoC4/CapSense.c **** 
1304:.\Generated_Source\PSoC4/CapSense.c ****     pinModeShift  = pinNumber * CapSense_PC_PIN_CFG_SIZE;
 1518              		.loc 1 1304 0
 1519 000c BA68     		ldr	r2, [r7, #8]
 1520 000e 131C     		mov	r3, r2
 1521 0010 5B00     		lsl	r3, r3, #1
 1522 0012 9B18     		add	r3, r3, r2
 1523 0014 7B61     		str	r3, [r7, #20]
1305:.\Generated_Source\PSoC4/CapSense.c **** 
1306:.\Generated_Source\PSoC4/CapSense.c ****     newRegisterValue = *CapSense_prtCfgTbl[portNumber];
 1524              		.loc 1 1306 0
 1525 0016 0F4B     		ldr	r3, .L82
 1526 0018 7A68     		ldr	r2, [r7, #4]
 1527 001a 9200     		lsl	r2, r2, #2
 1528 001c D358     		ldr	r3, [r2, r3]
 1529 001e 1B68     		ldr	r3, [r3]
 1530 0020 3B61     		str	r3, [r7, #16]
1307:.\Generated_Source\PSoC4/CapSense.c ****     newRegisterValue &= ~(CapSense_CSD_PIN_MODE_MASK << pinModeShift);
ARM GAS  C:\Users\DELL\AppData\Local\Temp\ccRYftE6.s 			page 51


 1531              		.loc 1 1307 0
 1532 0022 7B69     		ldr	r3, [r7, #20]
 1533 0024 0722     		mov	r2, #7
 1534 0026 9A40     		lsl	r2, r2, r3
 1535 0028 131C     		mov	r3, r2
 1536 002a DA43     		mvn	r2, r3
 1537 002c 3B69     		ldr	r3, [r7, #16]
 1538 002e 1340     		and	r3, r2
 1539 0030 3B61     		str	r3, [r7, #16]
1308:.\Generated_Source\PSoC4/CapSense.c ****     newRegisterValue |=  (uint32)((uint32)driveMode << pinModeShift);
 1540              		.loc 1 1308 0
 1541 0032 7B69     		ldr	r3, [r7, #20]
 1542 0034 FA68     		ldr	r2, [r7, #12]
 1543 0036 9A40     		lsl	r2, r2, r3
 1544 0038 131C     		mov	r3, r2
 1545 003a 3A69     		ldr	r2, [r7, #16]
 1546 003c 1343     		orr	r3, r2
 1547 003e 3B61     		str	r3, [r7, #16]
1309:.\Generated_Source\PSoC4/CapSense.c ****     *CapSense_prtCfgTbl[portNumber] =  newRegisterValue;
 1548              		.loc 1 1309 0
 1549 0040 044B     		ldr	r3, .L82
 1550 0042 7A68     		ldr	r2, [r7, #4]
 1551 0044 9200     		lsl	r2, r2, #2
 1552 0046 D358     		ldr	r3, [r2, r3]
 1553 0048 3A69     		ldr	r2, [r7, #16]
 1554 004a 1A60     		str	r2, [r3]
1310:.\Generated_Source\PSoC4/CapSense.c **** }
 1555              		.loc 1 1310 0
 1556 004c BD46     		mov	sp, r7
 1557 004e 06B0     		add	sp, sp, #24
 1558              		@ sp needed
 1559 0050 80BD     		pop	{r7, pc}
 1560              	.L83:
 1561 0052 C046     		.align	2
 1562              	.L82:
 1563 0054 00000000 		.word	CapSense_prtCfgTbl
 1564              		.cfi_endproc
 1565              	.LFE54:
 1566              		.size	CapSense_SetPinDriveMode, .-CapSense_SetPinDriveMode
 1567              		.section	.text.CapSense_PreScan,"ax",%progbits
 1568              		.align	2
 1569              		.global	CapSense_PreScan
 1570              		.code	16
 1571              		.thumb_func
 1572              		.type	CapSense_PreScan, %function
 1573              	CapSense_PreScan:
 1574              	.LFB55:
1311:.\Generated_Source\PSoC4/CapSense.c **** 
1312:.\Generated_Source\PSoC4/CapSense.c **** 
1313:.\Generated_Source\PSoC4/CapSense.c **** /*******************************************************************************
1314:.\Generated_Source\PSoC4/CapSense.c **** * Function Name: CapSense_PreScan
1315:.\Generated_Source\PSoC4/CapSense.c **** ********************************************************************************
1316:.\Generated_Source\PSoC4/CapSense.c **** *
1317:.\Generated_Source\PSoC4/CapSense.c **** * Summary:
1318:.\Generated_Source\PSoC4/CapSense.c **** *  Sets required settings, enables a sensor, removes Vref from AMUX and starts the
1319:.\Generated_Source\PSoC4/CapSense.c **** *  scanning process of the sensor.
1320:.\Generated_Source\PSoC4/CapSense.c **** *
ARM GAS  C:\Users\DELL\AppData\Local\Temp\ccRYftE6.s 			page 52


1321:.\Generated_Source\PSoC4/CapSense.c **** * Parameters:
1322:.\Generated_Source\PSoC4/CapSense.c **** *  sensor:  Sensor number.
1323:.\Generated_Source\PSoC4/CapSense.c **** *
1324:.\Generated_Source\PSoC4/CapSense.c **** * Return:
1325:.\Generated_Source\PSoC4/CapSense.c **** *  None
1326:.\Generated_Source\PSoC4/CapSense.c **** *
1327:.\Generated_Source\PSoC4/CapSense.c **** * Global Variables:
1328:.\Generated_Source\PSoC4/CapSense.c **** * CapSense_widgetNumber[] - This array contains numbers of widgets for each sensor.
1329:.\Generated_Source\PSoC4/CapSense.c **** * CapSense_widgetResolution[] - Contains the widget resolution.
1330:.\Generated_Source\PSoC4/CapSense.c **** *
1331:.\Generated_Source\PSoC4/CapSense.c **** * Side Effects:
1332:.\Generated_Source\PSoC4/CapSense.c **** *  None
1333:.\Generated_Source\PSoC4/CapSense.c **** *
1334:.\Generated_Source\PSoC4/CapSense.c **** *******************************************************************************/
1335:.\Generated_Source\PSoC4/CapSense.c **** void CapSense_PreScan(uint32 sensor)
1336:.\Generated_Source\PSoC4/CapSense.c **** {
 1575              		.loc 1 1336 0
 1576              		.cfi_startproc
 1577 0000 90B5     		push	{r4, r7, lr}
 1578              		.cfi_def_cfa_offset 12
 1579              		.cfi_offset 4, -12
 1580              		.cfi_offset 7, -8
 1581              		.cfi_offset 14, -4
 1582 0002 89B0     		sub	sp, sp, #36
 1583              		.cfi_def_cfa_offset 48
 1584 0004 00AF     		add	r7, sp, #0
 1585              		.cfi_def_cfa_register 7
 1586 0006 7860     		str	r0, [r7, #4]
1337:.\Generated_Source\PSoC4/CapSense.c ****     uint8 widget;
1338:.\Generated_Source\PSoC4/CapSense.c ****     uint8 interruptState;
1339:.\Generated_Source\PSoC4/CapSense.c ****     uint32 newRegValue;
1340:.\Generated_Source\PSoC4/CapSense.c ****     uint32 counterResolution;
1341:.\Generated_Source\PSoC4/CapSense.c **** 
1342:.\Generated_Source\PSoC4/CapSense.c ****     #if(CapSense_PRS_OPTIONS == CapSense__PRS_AUTO)
1343:.\Generated_Source\PSoC4/CapSense.c ****         uint8 senseClkDivMath;
1344:.\Generated_Source\PSoC4/CapSense.c ****         uint8 sampleClkDivMath;
1345:.\Generated_Source\PSoC4/CapSense.c ****     #endif /* (CapSense_PRS_OPTIONS == CapSense__PRS_AUTO) */
1346:.\Generated_Source\PSoC4/CapSense.c **** 
1347:.\Generated_Source\PSoC4/CapSense.c ****     #if ((CapSense_TUNING_METHOD == CapSense__TUNING_AUTO) &&\
1348:.\Generated_Source\PSoC4/CapSense.c ****          (0 != CapSense_IS_OVERSAMPLING_EN))
1349:.\Generated_Source\PSoC4/CapSense.c ****         uint32 oversamplingFactor;
1350:.\Generated_Source\PSoC4/CapSense.c ****     #endif /* ((CapSense_TUNING_METHOD == CapSense__TUNING_AUTO) &&\
1351:.\Generated_Source\PSoC4/CapSense.c ****                (0 != CapSense_IS_OVERSAMPLING_EN)) */
1352:.\Generated_Source\PSoC4/CapSense.c **** 
1353:.\Generated_Source\PSoC4/CapSense.c ****     /* Define widget sensor belongs to */
1354:.\Generated_Source\PSoC4/CapSense.c ****     widget = CapSense_widgetNumber[sensor];
 1587              		.loc 1 1354 0
 1588 0008 1B23     		mov	r3, #27
 1589 000a FB18     		add	r3, r7, r3
 1590 000c 4E49     		ldr	r1, .L87
 1591 000e 7A68     		ldr	r2, [r7, #4]
 1592 0010 8A18     		add	r2, r1, r2
 1593 0012 1278     		ldrb	r2, [r2]
 1594 0014 1A70     		strb	r2, [r3]
1355:.\Generated_Source\PSoC4/CapSense.c **** 
1356:.\Generated_Source\PSoC4/CapSense.c ****     /* Recalculate Counter Resolution to MSB 16 bits */
1357:.\Generated_Source\PSoC4/CapSense.c ****     counterResolution = CapSense_widgetResolution[widget];
ARM GAS  C:\Users\DELL\AppData\Local\Temp\ccRYftE6.s 			page 53


 1595              		.loc 1 1357 0
 1596 0016 1B23     		mov	r3, #27
 1597 0018 FB18     		add	r3, r7, r3
 1598 001a 1A78     		ldrb	r2, [r3]
 1599 001c 4B4B     		ldr	r3, .L87+4
 1600 001e 9200     		lsl	r2, r2, #2
 1601 0020 D358     		ldr	r3, [r2, r3]
 1602 0022 FB61     		str	r3, [r7, #28]
1358:.\Generated_Source\PSoC4/CapSense.c **** 
1359:.\Generated_Source\PSoC4/CapSense.c ****     #if ((CapSense_TUNING_METHOD == CapSense__TUNING_AUTO) &&\
1360:.\Generated_Source\PSoC4/CapSense.c ****          (0 != CapSense_IS_OVERSAMPLING_EN))
1361:.\Generated_Source\PSoC4/CapSense.c ****         oversamplingFactor = CapSense_GetBitValue(CapSense_scanSpeedTbl, sensor);
 1603              		.loc 1 1361 0
 1604 0024 4A4A     		ldr	r2, .L87+8
 1605 0026 7B68     		ldr	r3, [r7, #4]
 1606 0028 101C     		mov	r0, r2
 1607 002a 191C     		mov	r1, r3
 1608 002c FFF7FEFF 		bl	CapSense_GetBitValue
 1609 0030 031C     		mov	r3, r0
 1610 0032 7B61     		str	r3, [r7, #20]
1362:.\Generated_Source\PSoC4/CapSense.c **** 
1363:.\Generated_Source\PSoC4/CapSense.c ****         if(counterResolution < CapSense_RESOLUTION_16_BITS)
 1611              		.loc 1 1363 0
 1612 0034 FB69     		ldr	r3, [r7, #28]
 1613 0036 474A     		ldr	r2, .L87+12
 1614 0038 9342     		cmp	r3, r2
 1615 003a 09D8     		bhi	.L85
1364:.\Generated_Source\PSoC4/CapSense.c ****         {
1365:.\Generated_Source\PSoC4/CapSense.c ****             counterResolution <<= oversamplingFactor;
 1616              		.loc 1 1365 0
 1617 003c 7B69     		ldr	r3, [r7, #20]
 1618 003e FA69     		ldr	r2, [r7, #28]
 1619 0040 9A40     		lsl	r2, r2, r3
 1620 0042 131C     		mov	r3, r2
 1621 0044 FB61     		str	r3, [r7, #28]
1366:.\Generated_Source\PSoC4/CapSense.c ****             counterResolution |= (uint32)(CapSense_RESOLUTION_8_BITS);
 1622              		.loc 1 1366 0
 1623 0046 FB69     		ldr	r3, [r7, #28]
 1624 0048 FF22     		mov	r2, #255
 1625 004a 1204     		lsl	r2, r2, #16
 1626 004c 1343     		orr	r3, r2
 1627 004e FB61     		str	r3, [r7, #28]
 1628              	.L85:
1367:.\Generated_Source\PSoC4/CapSense.c ****         }
1368:.\Generated_Source\PSoC4/CapSense.c ****     #endif /* ((CapSense_TUNING_METHOD == CapSense__TUNING_AUTO) &&\
1369:.\Generated_Source\PSoC4/CapSense.c ****                (0 != CapSense_IS_OVERSAMPLING_EN)) */
1370:.\Generated_Source\PSoC4/CapSense.c **** 
1371:.\Generated_Source\PSoC4/CapSense.c ****     #if (0u != CapSense_IS_M0S8PERI_BLOCK)
1372:.\Generated_Source\PSoC4/CapSense.c ****         CapSense_SenseClk_Stop();
 1629              		.loc 1 1372 0
 1630 0050 FFF7FEFF 		bl	CapSense_SenseClk_Stop
1373:.\Generated_Source\PSoC4/CapSense.c ****         CapSense_SampleClk_Stop();
 1631              		.loc 1 1373 0
 1632 0054 FFF7FEFF 		bl	CapSense_SampleClk_Stop
1374:.\Generated_Source\PSoC4/CapSense.c ****     #endif /* (0u != CapSense_IS_M0S8PERI_BLOCK) */
1375:.\Generated_Source\PSoC4/CapSense.c **** 
1376:.\Generated_Source\PSoC4/CapSense.c ****     #if (0u != CapSense_MULTIPLE_FREQUENCY_SET)
ARM GAS  C:\Users\DELL\AppData\Local\Temp\ccRYftE6.s 			page 54


1377:.\Generated_Source\PSoC4/CapSense.c ****         CapSense_SampleClk_SetDividerValue((uint16)CapSense_sampleClkDividerVal[sensor]);
 1633              		.loc 1 1377 0
 1634 0058 3F4A     		ldr	r2, .L87+16
 1635 005a 7B68     		ldr	r3, [r7, #4]
 1636 005c D318     		add	r3, r2, r3
 1637 005e 1B78     		ldrb	r3, [r3]
 1638 0060 9BB2     		uxth	r3, r3
 1639 0062 013B     		sub	r3, r3, #1
 1640 0064 9BB2     		uxth	r3, r3
 1641 0066 181C     		mov	r0, r3
 1642 0068 0021     		mov	r1, #0
 1643 006a FFF7FEFF 		bl	CapSense_SampleClk_SetFractionalDividerRegister
1378:.\Generated_Source\PSoC4/CapSense.c ****         CapSense_SenseClk_SetDividerValue((uint16)CapSense_senseClkDividerVal[sensor]);
 1644              		.loc 1 1378 0
 1645 006e 3B4A     		ldr	r2, .L87+20
 1646 0070 7B68     		ldr	r3, [r7, #4]
 1647 0072 D318     		add	r3, r2, r3
 1648 0074 1B78     		ldrb	r3, [r3]
 1649 0076 9BB2     		uxth	r3, r3
 1650 0078 013B     		sub	r3, r3, #1
 1651 007a 9BB2     		uxth	r3, r3
 1652 007c 181C     		mov	r0, r3
 1653 007e 0021     		mov	r1, #0
 1654 0080 FFF7FEFF 		bl	CapSense_SenseClk_SetFractionalDividerRegister
1379:.\Generated_Source\PSoC4/CapSense.c ****     #else
1380:.\Generated_Source\PSoC4/CapSense.c ****         CapSense_SampleClk_SetDividerValue((uint16)CapSense_sampleClkDividerVal);
1381:.\Generated_Source\PSoC4/CapSense.c ****         CapSense_SenseClk_SetDividerValue((uint16)CapSense_senseClkDividerVal);
1382:.\Generated_Source\PSoC4/CapSense.c ****     #endif /* (0u != CapSense_MULTIPLE_FREQUENCY_SET) */
1383:.\Generated_Source\PSoC4/CapSense.c **** 
1384:.\Generated_Source\PSoC4/CapSense.c ****     #if (0u != CapSense_IS_M0S8PERI_BLOCK)
1385:.\Generated_Source\PSoC4/CapSense.c ****         CapSense_SampleClk_Start();
 1655              		.loc 1 1385 0
 1656 0084 FF20     		mov	r0, #255
 1657 0086 FFF7FEFF 		bl	CapSense_SampleClk_StartEx
1386:.\Generated_Source\PSoC4/CapSense.c ****         CapSense_SenseClk_StartEx(CapSense_SampleClk__DIV_ID);
 1658              		.loc 1 1386 0
 1659 008a 4020     		mov	r0, #64
 1660 008c FFF7FEFF 		bl	CapSense_SenseClk_StartEx
1387:.\Generated_Source\PSoC4/CapSense.c **** 
1388:.\Generated_Source\PSoC4/CapSense.c ****         #if(CapSense_PRS_OPTIONS == CapSense__PRS_NONE)
1389:.\Generated_Source\PSoC4/CapSense.c ****             CyIntDisable(CapSense_ISR_NUMBER);
 1661              		.loc 1 1389 0
 1662 0090 1020     		mov	r0, #16
 1663 0092 FFF7FEFF 		bl	CyIntDisable
1390:.\Generated_Source\PSoC4/CapSense.c ****             CapSense_CSD_CNT_REG = CapSense_ONE_CYCLE;
 1664              		.loc 1 1390 0
 1665 0096 324B     		ldr	r3, .L87+24
 1666 0098 8022     		mov	r2, #128
 1667 009a 5202     		lsl	r2, r2, #9
 1668 009c 1A60     		str	r2, [r3]
1391:.\Generated_Source\PSoC4/CapSense.c ****             while(0u != (CapSense_CSD_CNT_REG & CapSense_RESOLUTION_16_BITS))
 1669              		.loc 1 1391 0
 1670 009e C046     		mov	r8, r8
 1671              	.L86:
 1672              		.loc 1 1391 0 is_stmt 0 discriminator 1
 1673 00a0 2F4B     		ldr	r3, .L87+24
 1674 00a2 1B68     		ldr	r3, [r3]
ARM GAS  C:\Users\DELL\AppData\Local\Temp\ccRYftE6.s 			page 55


 1675 00a4 1B0C     		lsr	r3, r3, #16
 1676 00a6 1B04     		lsl	r3, r3, #16
 1677 00a8 FAD1     		bne	.L86
1392:.\Generated_Source\PSoC4/CapSense.c ****             {
1393:.\Generated_Source\PSoC4/CapSense.c ****             /* Wait until scanning is complete */
1394:.\Generated_Source\PSoC4/CapSense.c ****             }
1395:.\Generated_Source\PSoC4/CapSense.c ****             CapSense_CSD_INTR_REG = 1u;
 1678              		.loc 1 1395 0 is_stmt 1
 1679 00aa 2E4B     		ldr	r3, .L87+28
 1680 00ac 0122     		mov	r2, #1
 1681 00ae 1A60     		str	r2, [r3]
1396:.\Generated_Source\PSoC4/CapSense.c ****             CyIntClearPending(CapSense_ISR_NUMBER);
 1682              		.loc 1 1396 0
 1683 00b0 1020     		mov	r0, #16
 1684 00b2 FFF7FEFF 		bl	CyIntClearPending
1397:.\Generated_Source\PSoC4/CapSense.c ****             CyIntEnable(CapSense_ISR_NUMBER);
 1685              		.loc 1 1397 0
 1686 00b6 1020     		mov	r0, #16
 1687 00b8 FFF7FEFF 		bl	CyIntEnable
1398:.\Generated_Source\PSoC4/CapSense.c ****         #endif /* CapSense_PRS_OPTIONS == CapSense__PRS_NONE */
1399:.\Generated_Source\PSoC4/CapSense.c ****     #endif /* (0u != CapSense_IS_M0S8PERI_BLOCK) */
1400:.\Generated_Source\PSoC4/CapSense.c **** 
1401:.\Generated_Source\PSoC4/CapSense.c **** #if(CapSense_PRS_OPTIONS != CapSense__PRS_NONE)
1402:.\Generated_Source\PSoC4/CapSense.c **** 
1403:.\Generated_Source\PSoC4/CapSense.c ****     #if(CapSense_TUNING_METHOD == CapSense__TUNING_AUTO)
1404:.\Generated_Source\PSoC4/CapSense.c ****         if(CapSense_prescalersTuningDone != 0u)
1405:.\Generated_Source\PSoC4/CapSense.c ****         {
1406:.\Generated_Source\PSoC4/CapSense.c ****     #endif /* (CapSense_TUNING_METHOD == CapSense__TUNING_AUTO) */
1407:.\Generated_Source\PSoC4/CapSense.c **** 
1408:.\Generated_Source\PSoC4/CapSense.c ****             CyIntDisable(CapSense_ISR_NUMBER);
1409:.\Generated_Source\PSoC4/CapSense.c **** 
1410:.\Generated_Source\PSoC4/CapSense.c ****             newRegValue = CapSense_CSD_CFG_REG;
1411:.\Generated_Source\PSoC4/CapSense.c ****             newRegValue |= CapSense_CSD_CFG_PRS_SELECT;
1412:.\Generated_Source\PSoC4/CapSense.c **** 
1413:.\Generated_Source\PSoC4/CapSense.c ****             #if(CapSense_PRS_OPTIONS == CapSense__PRS_AUTO)
1414:.\Generated_Source\PSoC4/CapSense.c **** 
1415:.\Generated_Source\PSoC4/CapSense.c ****                 newRegValue &= ~(CapSense_PRS_MODE_MASK);
1416:.\Generated_Source\PSoC4/CapSense.c **** 
1417:.\Generated_Source\PSoC4/CapSense.c ****                 #if (0u != CapSense_MULTIPLE_FREQUENCY_SET)
1418:.\Generated_Source\PSoC4/CapSense.c ****                     senseClkDivMath = CapSense_senseClkDividerVal[sensor];
1419:.\Generated_Source\PSoC4/CapSense.c ****                     sampleClkDivMath = CapSense_sampleClkDividerVal[sensor];
1420:.\Generated_Source\PSoC4/CapSense.c ****                 #else
1421:.\Generated_Source\PSoC4/CapSense.c ****                     senseClkDivMath = CapSense_senseClkDividerVal;
1422:.\Generated_Source\PSoC4/CapSense.c ****                     sampleClkDivMath = CapSense_sampleClkDividerVal;
1423:.\Generated_Source\PSoC4/CapSense.c ****                 #endif /* ( CapSense_MULTIPLE_FREQUENCY_SET) */
1424:.\Generated_Source\PSoC4/CapSense.c **** 
1425:.\Generated_Source\PSoC4/CapSense.c ****                 #if(0u == CapSense_IS_M0S8PERI_BLOCK)
1426:.\Generated_Source\PSoC4/CapSense.c ****                     senseClkDivMath *= sampleClkDivMath;
1427:.\Generated_Source\PSoC4/CapSense.c ****                 #endif /* (0u == CapSense_IS_M0S8PERI_BLOCK) */
1428:.\Generated_Source\PSoC4/CapSense.c **** 
1429:.\Generated_Source\PSoC4/CapSense.c ****                 if((senseClkDivMath * CapSense_RESOLUTION_12_BITS) <
1430:.\Generated_Source\PSoC4/CapSense.c ****                    (sampleClkDivMath * CapSense_widgetResolution[widget]))
1431:.\Generated_Source\PSoC4/CapSense.c ****                 {
1432:.\Generated_Source\PSoC4/CapSense.c ****                     newRegValue |= CapSense_CSD_PRS_12_BIT;
1433:.\Generated_Source\PSoC4/CapSense.c ****                 }
1434:.\Generated_Source\PSoC4/CapSense.c ****             #endif /* (CapSense_PRS_OPTIONS == CapSense__PRS_AUTO) */
1435:.\Generated_Source\PSoC4/CapSense.c **** 
ARM GAS  C:\Users\DELL\AppData\Local\Temp\ccRYftE6.s 			page 56


1436:.\Generated_Source\PSoC4/CapSense.c ****             CapSense_CSD_CFG_REG = newRegValue;
1437:.\Generated_Source\PSoC4/CapSense.c **** 
1438:.\Generated_Source\PSoC4/CapSense.c ****             CyIntEnable(CapSense_ISR_NUMBER);
1439:.\Generated_Source\PSoC4/CapSense.c **** 
1440:.\Generated_Source\PSoC4/CapSense.c ****     #if(CapSense_TUNING_METHOD == CapSense__TUNING_AUTO)
1441:.\Generated_Source\PSoC4/CapSense.c ****         }
1442:.\Generated_Source\PSoC4/CapSense.c ****     #endif /* (CapSense_PRS_OPTIONS != CapSense__PRS_NONE) */
1443:.\Generated_Source\PSoC4/CapSense.c **** 
1444:.\Generated_Source\PSoC4/CapSense.c **** #endif /* (CapSense_PRS_OPTIONS == CapSense__PRS_NONE) */
1445:.\Generated_Source\PSoC4/CapSense.c **** 
1446:.\Generated_Source\PSoC4/CapSense.c ****     /* Set Idac Value */
1447:.\Generated_Source\PSoC4/CapSense.c ****     CyIntDisable(CapSense_ISR_NUMBER);
 1688              		.loc 1 1447 0
 1689 00bc 1020     		mov	r0, #16
 1690 00be FFF7FEFF 		bl	CyIntDisable
1448:.\Generated_Source\PSoC4/CapSense.c ****     newRegValue = CapSense_CSD_IDAC_REG;
 1691              		.loc 1 1448 0
 1692 00c2 294B     		ldr	r3, .L87+32
 1693 00c4 1B68     		ldr	r3, [r3]
 1694 00c6 3B61     		str	r3, [r7, #16]
1449:.\Generated_Source\PSoC4/CapSense.c **** 
1450:.\Generated_Source\PSoC4/CapSense.c **** #if (CapSense_IDAC_CNT == 1u)
1451:.\Generated_Source\PSoC4/CapSense.c ****     newRegValue &= ~(CapSense_CSD_IDAC1_DATA_MASK);
1452:.\Generated_Source\PSoC4/CapSense.c ****     newRegValue |= CapSense_modulationIDAC[sensor];
1453:.\Generated_Source\PSoC4/CapSense.c **** #else
1454:.\Generated_Source\PSoC4/CapSense.c ****     newRegValue &= ~(CapSense_CSD_IDAC1_DATA_MASK | CapSense_CSD_IDAC2_DATA_MASK);
 1695              		.loc 1 1454 0
 1696 00c8 3B69     		ldr	r3, [r7, #16]
 1697 00ca 284A     		ldr	r2, .L87+36
 1698 00cc 1340     		and	r3, r2
 1699 00ce 3B61     		str	r3, [r7, #16]
1455:.\Generated_Source\PSoC4/CapSense.c ****     newRegValue |= (CapSense_modulationIDAC[sensor] |
 1700              		.loc 1 1455 0
 1701 00d0 274A     		ldr	r2, .L87+40
 1702 00d2 7B68     		ldr	r3, [r7, #4]
 1703 00d4 D318     		add	r3, r2, r3
 1704 00d6 1B78     		ldrb	r3, [r3]
 1705 00d8 191C     		mov	r1, r3
1456:.\Generated_Source\PSoC4/CapSense.c ****                             (uint32)((uint32)CapSense_compensationIDAC[sensor] <<
 1706              		.loc 1 1456 0
 1707 00da 264A     		ldr	r2, .L87+44
 1708 00dc 7B68     		ldr	r3, [r7, #4]
 1709 00de D318     		add	r3, r2, r3
 1710 00e0 1B78     		ldrb	r3, [r3]
 1711 00e2 1B04     		lsl	r3, r3, #16
1455:.\Generated_Source\PSoC4/CapSense.c ****     newRegValue |= (CapSense_modulationIDAC[sensor] |
 1712              		.loc 1 1455 0
 1713 00e4 0B43     		orr	r3, r1
 1714 00e6 3A69     		ldr	r2, [r7, #16]
 1715 00e8 1343     		orr	r3, r2
 1716 00ea 3B61     		str	r3, [r7, #16]
1457:.\Generated_Source\PSoC4/CapSense.c ****                             CapSense_CSD_IDAC2_DATA_OFFSET));
1458:.\Generated_Source\PSoC4/CapSense.c **** #endif /* (CapSense_IDAC_CNT == 1u) */
1459:.\Generated_Source\PSoC4/CapSense.c **** 
1460:.\Generated_Source\PSoC4/CapSense.c ****     CapSense_CSD_IDAC_REG = newRegValue;
 1717              		.loc 1 1460 0
 1718 00ec 1E4B     		ldr	r3, .L87+32
ARM GAS  C:\Users\DELL\AppData\Local\Temp\ccRYftE6.s 			page 57


 1719 00ee 3A69     		ldr	r2, [r7, #16]
 1720 00f0 1A60     		str	r2, [r3]
1461:.\Generated_Source\PSoC4/CapSense.c **** 
1462:.\Generated_Source\PSoC4/CapSense.c **** #if(CapSense_CMOD_PREGARGE_OPTION == CapSense__CAPPRIOBUF)
1463:.\Generated_Source\PSoC4/CapSense.c ****     newRegValue = CapSense_CMOD_CONNECTION_REG;
1464:.\Generated_Source\PSoC4/CapSense.c ****     newRegValue &= ~(CapSense_CSD_CMOD_CONNECTION_MASK);
1465:.\Generated_Source\PSoC4/CapSense.c ****     newRegValue |= CapSense_CSD_CMOD_TO_AMUXBUS_A;
1466:.\Generated_Source\PSoC4/CapSense.c ****     CapSense_CMOD_CONNECTION_REG = newRegValue;
1467:.\Generated_Source\PSoC4/CapSense.c **** 
1468:.\Generated_Source\PSoC4/CapSense.c ****     newRegValue = CapSense_CMOD_PORT_PC_REG;
1469:.\Generated_Source\PSoC4/CapSense.c ****     newRegValue &= ~(CapSense_CSD_CMOD_PC_MASK);
1470:.\Generated_Source\PSoC4/CapSense.c ****     newRegValue |= CapSense_CMOD_PC_HIGH_Z_MODE;
1471:.\Generated_Source\PSoC4/CapSense.c ****     CapSense_CMOD_PORT_PC_REG = newRegValue;
1472:.\Generated_Source\PSoC4/CapSense.c **** #endif /* (CapSense_CMOD_PREGARGE_OPTION == CapSense__CAPPRIOBUF) */
1473:.\Generated_Source\PSoC4/CapSense.c **** 
1474:.\Generated_Source\PSoC4/CapSense.c ****     /* Disconnect Vref Buffer from AMUX */
1475:.\Generated_Source\PSoC4/CapSense.c ****     newRegValue = CapSense_CSD_CFG_REG;
 1721              		.loc 1 1475 0
 1722 00f2 214B     		ldr	r3, .L87+48
 1723 00f4 1B68     		ldr	r3, [r3]
 1724 00f6 3B61     		str	r3, [r7, #16]
1476:.\Generated_Source\PSoC4/CapSense.c ****     newRegValue &= ~(CapSense_PRECHARGE_CONFIG_MASK);
 1725              		.loc 1 1476 0
 1726 00f8 3B69     		ldr	r3, [r7, #16]
 1727 00fa 204A     		ldr	r2, .L87+52
 1728 00fc 1340     		and	r3, r2
 1729 00fe 3B61     		str	r3, [r7, #16]
1477:.\Generated_Source\PSoC4/CapSense.c ****     newRegValue |= CapSense_CTANK_PRECHARGE_CONFIG;
 1730              		.loc 1 1477 0
 1731 0100 3B69     		ldr	r3, [r7, #16]
 1732 0102 1F4A     		ldr	r2, .L87+56
 1733 0104 1343     		orr	r3, r2
 1734 0106 3B61     		str	r3, [r7, #16]
1478:.\Generated_Source\PSoC4/CapSense.c **** 
1479:.\Generated_Source\PSoC4/CapSense.c ****     CyIntEnable(CapSense_ISR_NUMBER);
 1735              		.loc 1 1479 0
 1736 0108 1020     		mov	r0, #16
 1737 010a FFF7FEFF 		bl	CyIntEnable
1480:.\Generated_Source\PSoC4/CapSense.c **** 
1481:.\Generated_Source\PSoC4/CapSense.c ****     /* Enable Sensor */
1482:.\Generated_Source\PSoC4/CapSense.c ****     CapSense_EnableScanSlot(sensor);
 1738              		.loc 1 1482 0
 1739 010e 7B68     		ldr	r3, [r7, #4]
 1740 0110 181C     		mov	r0, r3
 1741 0112 FFF7FEFF 		bl	CapSense_EnableSensor
1483:.\Generated_Source\PSoC4/CapSense.c **** 
1484:.\Generated_Source\PSoC4/CapSense.c ****     interruptState = CyEnterCriticalSection();
 1742              		.loc 1 1484 0
 1743 0116 0F23     		mov	r3, #15
 1744 0118 FC18     		add	r4, r7, r3
 1745 011a FFF7FEFF 		bl	CyEnterCriticalSection
 1746 011e 031C     		mov	r3, r0
 1747 0120 2370     		strb	r3, [r4]
1485:.\Generated_Source\PSoC4/CapSense.c ****     CapSense_CSD_CFG_REG = newRegValue;
 1748              		.loc 1 1485 0
 1749 0122 154B     		ldr	r3, .L87+48
 1750 0124 3A69     		ldr	r2, [r7, #16]
ARM GAS  C:\Users\DELL\AppData\Local\Temp\ccRYftE6.s 			page 58


 1751 0126 1A60     		str	r2, [r3]
1486:.\Generated_Source\PSoC4/CapSense.c **** 
1487:.\Generated_Source\PSoC4/CapSense.c ****     /* `#START CapSense_PreSettlingDelay_Debug` */
1488:.\Generated_Source\PSoC4/CapSense.c **** 
1489:.\Generated_Source\PSoC4/CapSense.c ****     /* `#END` */
1490:.\Generated_Source\PSoC4/CapSense.c ****     
1491:.\Generated_Source\PSoC4/CapSense.c **** #ifdef CapSense_PRE_SCAN_PRE_SETTLING_DELAY_DEBUG_CALLBACK
1492:.\Generated_Source\PSoC4/CapSense.c ****     CapSense_PreScan_Pre_SettlingDelay_Debug_Callback();
1493:.\Generated_Source\PSoC4/CapSense.c **** #endif /* CapSense_PRE_SCAN_PRE_SETTLING_DELAY_DEBUG_CALLBACK */
1494:.\Generated_Source\PSoC4/CapSense.c **** 
1495:.\Generated_Source\PSoC4/CapSense.c ****     CyDelayCycles(CapSense_GLITCH_ELIMINATION_CYCLES);
 1752              		.loc 1 1495 0
 1753 0128 0020     		mov	r0, #0
 1754 012a FFF7FEFF 		bl	CyDelayCycles
1496:.\Generated_Source\PSoC4/CapSense.c **** 
1497:.\Generated_Source\PSoC4/CapSense.c ****     /* `#START CapSense_PreScan_Debug` */
1498:.\Generated_Source\PSoC4/CapSense.c **** 
1499:.\Generated_Source\PSoC4/CapSense.c ****     /* `#END` */
1500:.\Generated_Source\PSoC4/CapSense.c ****     
1501:.\Generated_Source\PSoC4/CapSense.c **** #ifdef CapSense_PRE_SCAN_DEBUG_CALLBACK
1502:.\Generated_Source\PSoC4/CapSense.c ****     CapSense_PreScan_Debug_Callback();
1503:.\Generated_Source\PSoC4/CapSense.c **** #endif /* CapSense_PRE_SCAN_DEBUG_CALLBACK */
1504:.\Generated_Source\PSoC4/CapSense.c **** 
1505:.\Generated_Source\PSoC4/CapSense.c ****     CapSense_CSD_CNT_REG = counterResolution;
 1755              		.loc 1 1505 0
 1756 012e 0C4B     		ldr	r3, .L87+24
 1757 0130 FA69     		ldr	r2, [r7, #28]
 1758 0132 1A60     		str	r2, [r3]
1506:.\Generated_Source\PSoC4/CapSense.c ****     CyExitCriticalSection(interruptState);
 1759              		.loc 1 1506 0
 1760 0134 0F23     		mov	r3, #15
 1761 0136 FB18     		add	r3, r7, r3
 1762 0138 1B78     		ldrb	r3, [r3]
 1763 013a 181C     		mov	r0, r3
 1764 013c FFF7FEFF 		bl	CyExitCriticalSection
1507:.\Generated_Source\PSoC4/CapSense.c **** }
 1765              		.loc 1 1507 0
 1766 0140 BD46     		mov	sp, r7
 1767 0142 09B0     		add	sp, sp, #36
 1768              		@ sp needed
 1769 0144 90BD     		pop	{r4, r7, pc}
 1770              	.L88:
 1771 0146 C046     		.align	2
 1772              	.L87:
 1773 0148 00000000 		.word	CapSense_widgetNumber
 1774 014c 00000000 		.word	CapSense_widgetResolution
 1775 0150 00000000 		.word	CapSense_scanSpeedTbl
 1776 0154 FFFFFEFF 		.word	-65537
 1777 0158 00000000 		.word	CapSense_sampleClkDividerVal
 1778 015c 00000000 		.word	CapSense_senseClkDividerVal
 1779 0160 0C002840 		.word	1076363276
 1780 0164 14002840 		.word	1076363284
 1781 0168 08002840 		.word	1076363272
 1782 016c 00FF80FF 		.word	-8323328
 1783 0170 00000000 		.word	CapSense_modulationIDAC
 1784 0174 00000000 		.word	CapSense_compensationIDAC
 1785 0178 04002840 		.word	1076363268
ARM GAS  C:\Users\DELL\AppData\Local\Temp\ccRYftE6.s 			page 59


 1786 017c FF1FDFFF 		.word	-2154497
 1787 0180 20002000 		.word	2097184
 1788              		.cfi_endproc
 1789              	.LFE55:
 1790              		.size	CapSense_PreScan, .-CapSense_PreScan
 1791              		.section	.text.CapSense_PostScan,"ax",%progbits
 1792              		.align	2
 1793              		.global	CapSense_PostScan
 1794              		.code	16
 1795              		.thumb_func
 1796              		.type	CapSense_PostScan, %function
 1797              	CapSense_PostScan:
 1798              	.LFB56:
1508:.\Generated_Source\PSoC4/CapSense.c **** 
1509:.\Generated_Source\PSoC4/CapSense.c **** 
1510:.\Generated_Source\PSoC4/CapSense.c **** /*******************************************************************************
1511:.\Generated_Source\PSoC4/CapSense.c **** * Function Name: CapSense_PostScan
1512:.\Generated_Source\PSoC4/CapSense.c **** ********************************************************************************
1513:.\Generated_Source\PSoC4/CapSense.c **** *
1514:.\Generated_Source\PSoC4/CapSense.c **** * Summary:
1515:.\Generated_Source\PSoC4/CapSense.c **** *  Stores the results of measurement in the CapSense_sensorRaw[] array,
1516:.\Generated_Source\PSoC4/CapSense.c **** *  sets the scanning sensor in the non-sampling state, turns off Idac(Current Source IDAC),
1517:.\Generated_Source\PSoC4/CapSense.c **** *  disconnects the IDAC(Sink mode), and applies Vref on AMUX.
1518:.\Generated_Source\PSoC4/CapSense.c **** *
1519:.\Generated_Source\PSoC4/CapSense.c **** * Parameters:
1520:.\Generated_Source\PSoC4/CapSense.c **** *  sensor:  Sensor number.
1521:.\Generated_Source\PSoC4/CapSense.c **** *
1522:.\Generated_Source\PSoC4/CapSense.c **** * Return:
1523:.\Generated_Source\PSoC4/CapSense.c **** *  None
1524:.\Generated_Source\PSoC4/CapSense.c **** *
1525:.\Generated_Source\PSoC4/CapSense.c **** * Global Variables:
1526:.\Generated_Source\PSoC4/CapSense.c **** *  CapSense_sensorRaw[] - used to store sensors raw data.
1527:.\Generated_Source\PSoC4/CapSense.c **** *
1528:.\Generated_Source\PSoC4/CapSense.c **** * Side Effects:
1529:.\Generated_Source\PSoC4/CapSense.c **** *  None
1530:.\Generated_Source\PSoC4/CapSense.c **** *
1531:.\Generated_Source\PSoC4/CapSense.c **** *******************************************************************************/
1532:.\Generated_Source\PSoC4/CapSense.c **** void CapSense_PostScan(uint32 sensor)
1533:.\Generated_Source\PSoC4/CapSense.c **** {
 1799              		.loc 1 1533 0
 1800              		.cfi_startproc
 1801 0000 80B5     		push	{r7, lr}
 1802              		.cfi_def_cfa_offset 8
 1803              		.cfi_offset 7, -8
 1804              		.cfi_offset 14, -4
 1805 0002 86B0     		sub	sp, sp, #24
 1806              		.cfi_def_cfa_offset 32
 1807 0004 00AF     		add	r7, sp, #0
 1808              		.cfi_def_cfa_register 7
 1809 0006 7860     		str	r0, [r7, #4]
1534:.\Generated_Source\PSoC4/CapSense.c ****     uint32 newRegValue;
1535:.\Generated_Source\PSoC4/CapSense.c **** #if ((CapSense_TUNING_METHOD == CapSense__TUNING_AUTO) &&\
1536:.\Generated_Source\PSoC4/CapSense.c ****      (0 != CapSense_IS_OVERSAMPLING_EN))
1537:.\Generated_Source\PSoC4/CapSense.c ****     uint32 oversamplingFactor;
1538:.\Generated_Source\PSoC4/CapSense.c ****     uint32 widget;
1539:.\Generated_Source\PSoC4/CapSense.c **** #endif /* ((CapSense_TUNING_METHOD == CapSense__TUNING_AUTO) &&\
1540:.\Generated_Source\PSoC4/CapSense.c ****            (0 != CapSense_IS_OVERSAMPLING_EN)) */
ARM GAS  C:\Users\DELL\AppData\Local\Temp\ccRYftE6.s 			page 60


1541:.\Generated_Source\PSoC4/CapSense.c **** 
1542:.\Generated_Source\PSoC4/CapSense.c ****     /* `#START CapSense_PostScan_Debug` */
1543:.\Generated_Source\PSoC4/CapSense.c **** 
1544:.\Generated_Source\PSoC4/CapSense.c ****     /* `#END` */
1545:.\Generated_Source\PSoC4/CapSense.c ****     
1546:.\Generated_Source\PSoC4/CapSense.c **** #ifdef CapSense_POST_SCAN_DEBUG_CALLBACK
1547:.\Generated_Source\PSoC4/CapSense.c ****     CapSense_PostScan_Debug_Callback();
1548:.\Generated_Source\PSoC4/CapSense.c **** #endif /* CapSense_POST_SCAN_DEBUG_Callback */
1549:.\Generated_Source\PSoC4/CapSense.c **** 
1550:.\Generated_Source\PSoC4/CapSense.c ****     /* Read SlotResult from Raw Counter */
1551:.\Generated_Source\PSoC4/CapSense.c ****     CapSense_sensorRaw[sensor]  = (uint16)CapSense_CSD_CNT_REG;
 1810              		.loc 1 1551 0
 1811 0008 244B     		ldr	r3, .L91
 1812 000a 1B68     		ldr	r3, [r3]
 1813 000c 99B2     		uxth	r1, r3
 1814 000e 244B     		ldr	r3, .L91+4
 1815 0010 7A68     		ldr	r2, [r7, #4]
 1816 0012 5200     		lsl	r2, r2, #1
 1817 0014 D152     		strh	r1, [r2, r3]
1552:.\Generated_Source\PSoC4/CapSense.c **** 
1553:.\Generated_Source\PSoC4/CapSense.c **** #if ((CapSense_TUNING_METHOD == CapSense__TUNING_AUTO) &&\
1554:.\Generated_Source\PSoC4/CapSense.c ****      (0 != CapSense_IS_OVERSAMPLING_EN))
1555:.\Generated_Source\PSoC4/CapSense.c ****     widget = CapSense_widgetNumber[sensor];
 1818              		.loc 1 1555 0
 1819 0016 234A     		ldr	r2, .L91+8
 1820 0018 7B68     		ldr	r3, [r7, #4]
 1821 001a D318     		add	r3, r2, r3
 1822 001c 1B78     		ldrb	r3, [r3]
 1823 001e 7B61     		str	r3, [r7, #20]
1556:.\Generated_Source\PSoC4/CapSense.c ****     if(CapSense_widgetResolution[widget] < CapSense_RESOLUTION_16_BITS)
 1824              		.loc 1 1556 0
 1825 0020 214B     		ldr	r3, .L91+12
 1826 0022 7A69     		ldr	r2, [r7, #20]
 1827 0024 9200     		lsl	r2, r2, #2
 1828 0026 D358     		ldr	r3, [r2, r3]
 1829 0028 204A     		ldr	r2, .L91+16
 1830 002a 9342     		cmp	r3, r2
 1831 002c 14D8     		bhi	.L90
1557:.\Generated_Source\PSoC4/CapSense.c ****     {
1558:.\Generated_Source\PSoC4/CapSense.c ****         oversamplingFactor = CapSense_GetBitValue(CapSense_scanSpeedTbl, sensor);
 1832              		.loc 1 1558 0
 1833 002e 204A     		ldr	r2, .L91+20
 1834 0030 7B68     		ldr	r3, [r7, #4]
 1835 0032 101C     		mov	r0, r2
 1836 0034 191C     		mov	r1, r3
 1837 0036 FFF7FEFF 		bl	CapSense_GetBitValue
 1838 003a 031C     		mov	r3, r0
 1839 003c 3B61     		str	r3, [r7, #16]
1559:.\Generated_Source\PSoC4/CapSense.c ****         CapSense_sensorRaw[sensor] >>= oversamplingFactor;
 1840              		.loc 1 1559 0
 1841 003e 184B     		ldr	r3, .L91+4
 1842 0040 7A68     		ldr	r2, [r7, #4]
 1843 0042 5200     		lsl	r2, r2, #1
 1844 0044 D35A     		ldrh	r3, [r2, r3]
 1845 0046 1A1C     		mov	r2, r3
 1846 0048 3B69     		ldr	r3, [r7, #16]
 1847 004a 1A41     		asr	r2, r2, r3
ARM GAS  C:\Users\DELL\AppData\Local\Temp\ccRYftE6.s 			page 61


 1848 004c 131C     		mov	r3, r2
 1849 004e 99B2     		uxth	r1, r3
 1850 0050 134B     		ldr	r3, .L91+4
 1851 0052 7A68     		ldr	r2, [r7, #4]
 1852 0054 5200     		lsl	r2, r2, #1
 1853 0056 D152     		strh	r1, [r2, r3]
 1854              	.L90:
1560:.\Generated_Source\PSoC4/CapSense.c ****     }
1561:.\Generated_Source\PSoC4/CapSense.c **** #endif /* ((CapSense_TUNING_METHOD == CapSense__TUNING_AUTO) &&\
1562:.\Generated_Source\PSoC4/CapSense.c ****            (0 != CapSense_IS_OVERSAMPLING_EN)) */
1563:.\Generated_Source\PSoC4/CapSense.c **** 
1564:.\Generated_Source\PSoC4/CapSense.c ****     /* Disable Sensor */
1565:.\Generated_Source\PSoC4/CapSense.c ****     CapSense_DisableScanSlot(sensor);
