ARM GAS  C:\Users\DELL\AppData\Local\Temp\ccrMH2TV.s 			page 1


   1              		.cpu cortex-m0
   2              		.fpu softvfp
   3              		.eabi_attribute 20, 1
   4              		.eabi_attribute 21, 1
   5              		.eabi_attribute 23, 3
   6              		.eabi_attribute 24, 1
   7              		.eabi_attribute 25, 1
   8              		.eabi_attribute 26, 1
   9              		.eabi_attribute 30, 6
  10              		.eabi_attribute 34, 0
  11              		.eabi_attribute 18, 4
  12              		.code	16
  13              		.file	"PrISM_1.c"
  14              		.text
  15              	.Ltext0:
  16              		.cfi_sections	.debug_frame
  17              		.global	PrISM_1_initVar
  18              		.bss
  19              		.type	PrISM_1_initVar, %object
  20              		.size	PrISM_1_initVar, 1
  21              	PrISM_1_initVar:
  22 0000 00       		.space	1
  23              		.section	.text.PrISM_1_Start,"ax",%progbits
  24              		.align	2
  25              		.global	PrISM_1_Start
  26              		.code	16
  27              		.thumb_func
  28              		.type	PrISM_1_Start, %function
  29              	PrISM_1_Start:
  30              	.LFB2:
  31              		.file 1 ".\\Generated_Source\\PSoC4\\PrISM_1.c"
   1:.\Generated_Source\PSoC4/PrISM_1.c **** /*******************************************************************************
   2:.\Generated_Source\PSoC4/PrISM_1.c **** * File Name: PrISM_1.c
   3:.\Generated_Source\PSoC4/PrISM_1.c **** * Version 2.20
   4:.\Generated_Source\PSoC4/PrISM_1.c **** *
   5:.\Generated_Source\PSoC4/PrISM_1.c **** * Description:
   6:.\Generated_Source\PSoC4/PrISM_1.c **** *  This file provides the source code of the API for the PrISM Component.
   7:.\Generated_Source\PSoC4/PrISM_1.c **** *
   8:.\Generated_Source\PSoC4/PrISM_1.c **** * Note:
   9:.\Generated_Source\PSoC4/PrISM_1.c **** *  The PRiSM Component consists of a 8, 16, 24, 32 - bit PrISM, it
  10:.\Generated_Source\PSoC4/PrISM_1.c **** *  depends on length Polynomial value and user selected Seed Value. 
  11:.\Generated_Source\PSoC4/PrISM_1.c **** *
  12:.\Generated_Source\PSoC4/PrISM_1.c **** ********************************************************************************
  13:.\Generated_Source\PSoC4/PrISM_1.c **** * Copyright 2008-2012, Cypress Semiconductor Corporation.  All rights reserved.
  14:.\Generated_Source\PSoC4/PrISM_1.c **** * You may use this file only in accordance with the license, terms, conditions, 
  15:.\Generated_Source\PSoC4/PrISM_1.c **** * disclaimers, and limitations in the end user license agreement accompanying 
  16:.\Generated_Source\PSoC4/PrISM_1.c **** * the software package with which this file was provided.
  17:.\Generated_Source\PSoC4/PrISM_1.c **** *******************************************************************************/
  18:.\Generated_Source\PSoC4/PrISM_1.c **** 
  19:.\Generated_Source\PSoC4/PrISM_1.c **** #include "PrISM_1.h"
  20:.\Generated_Source\PSoC4/PrISM_1.c **** 
  21:.\Generated_Source\PSoC4/PrISM_1.c **** 
  22:.\Generated_Source\PSoC4/PrISM_1.c **** /***************************************
  23:.\Generated_Source\PSoC4/PrISM_1.c **** * Local data allocation
  24:.\Generated_Source\PSoC4/PrISM_1.c **** ***************************************/
  25:.\Generated_Source\PSoC4/PrISM_1.c **** 
  26:.\Generated_Source\PSoC4/PrISM_1.c **** uint8 PrISM_1_initVar = 0u;
ARM GAS  C:\Users\DELL\AppData\Local\Temp\ccrMH2TV.s 			page 2


  27:.\Generated_Source\PSoC4/PrISM_1.c **** 
  28:.\Generated_Source\PSoC4/PrISM_1.c **** 
  29:.\Generated_Source\PSoC4/PrISM_1.c **** /*******************************************************************************
  30:.\Generated_Source\PSoC4/PrISM_1.c **** * FUNCTION NAME:   PrISM_1_Start
  31:.\Generated_Source\PSoC4/PrISM_1.c **** ********************************************************************************
  32:.\Generated_Source\PSoC4/PrISM_1.c **** *
  33:.\Generated_Source\PSoC4/PrISM_1.c **** * Summary:
  34:.\Generated_Source\PSoC4/PrISM_1.c **** *  The start function sets Polynomial, Seed and Pulse Density registers provided
  35:.\Generated_Source\PSoC4/PrISM_1.c **** *  by customizer. PrISM computation starts on rising edge of input clock.
  36:.\Generated_Source\PSoC4/PrISM_1.c **** *
  37:.\Generated_Source\PSoC4/PrISM_1.c **** * Parameters:  
  38:.\Generated_Source\PSoC4/PrISM_1.c **** *  None.
  39:.\Generated_Source\PSoC4/PrISM_1.c **** *
  40:.\Generated_Source\PSoC4/PrISM_1.c **** * Return:  
  41:.\Generated_Source\PSoC4/PrISM_1.c **** *  None.
  42:.\Generated_Source\PSoC4/PrISM_1.c **** *
  43:.\Generated_Source\PSoC4/PrISM_1.c **** * Global variables:
  44:.\Generated_Source\PSoC4/PrISM_1.c **** *  The PrISM_1_initVar variable is used to indicate initial
  45:.\Generated_Source\PSoC4/PrISM_1.c **** *  configuration of this component.  The variable is initialized to zero and
  46:.\Generated_Source\PSoC4/PrISM_1.c **** *  set to 1 the first time PrISM_1_Start() is called. This allows for
  47:.\Generated_Source\PSoC4/PrISM_1.c **** *  component initialization without re-initialization in all subsequent calls
  48:.\Generated_Source\PSoC4/PrISM_1.c **** *  to the PrISM_1_Start() routine. 
  49:.\Generated_Source\PSoC4/PrISM_1.c **** 
  50:.\Generated_Source\PSoC4/PrISM_1.c **** * Reentrant:
  51:.\Generated_Source\PSoC4/PrISM_1.c **** *  No.
  52:.\Generated_Source\PSoC4/PrISM_1.c **** *
  53:.\Generated_Source\PSoC4/PrISM_1.c **** *******************************************************************************/
  54:.\Generated_Source\PSoC4/PrISM_1.c **** void PrISM_1_Start(void) 
  55:.\Generated_Source\PSoC4/PrISM_1.c **** {
  32              		.loc 1 55 0
  33              		.cfi_startproc
  34 0000 80B5     		push	{r7, lr}
  35              		.cfi_def_cfa_offset 8
  36              		.cfi_offset 7, -8
  37              		.cfi_offset 14, -4
  38 0002 00AF     		add	r7, sp, #0
  39              		.cfi_def_cfa_register 7
  56:.\Generated_Source\PSoC4/PrISM_1.c ****     /* If not Initialized then initialize all required hardware and software */
  57:.\Generated_Source\PSoC4/PrISM_1.c ****     if(PrISM_1_initVar == 0u)
  40              		.loc 1 57 0
  41 0004 064B     		ldr	r3, .L3
  42 0006 1B78     		ldrb	r3, [r3]
  43 0008 002B     		cmp	r3, #0
  44 000a 04D1     		bne	.L2
  58:.\Generated_Source\PSoC4/PrISM_1.c ****     {
  59:.\Generated_Source\PSoC4/PrISM_1.c ****         PrISM_1_Init();
  45              		.loc 1 59 0
  46 000c FFF7FEFF 		bl	PrISM_1_Init
  60:.\Generated_Source\PSoC4/PrISM_1.c ****         PrISM_1_initVar = 1u;
  47              		.loc 1 60 0
  48 0010 034B     		ldr	r3, .L3
  49 0012 0122     		mov	r2, #1
  50 0014 1A70     		strb	r2, [r3]
  51              	.L2:
  61:.\Generated_Source\PSoC4/PrISM_1.c ****     }
  62:.\Generated_Source\PSoC4/PrISM_1.c ****     PrISM_1_Enable();
  52              		.loc 1 62 0
ARM GAS  C:\Users\DELL\AppData\Local\Temp\ccrMH2TV.s 			page 3


  53 0016 FFF7FEFF 		bl	PrISM_1_Enable
  63:.\Generated_Source\PSoC4/PrISM_1.c **** }
  54              		.loc 1 63 0
  55 001a BD46     		mov	sp, r7
  56              		@ sp needed
  57 001c 80BD     		pop	{r7, pc}
  58              	.L4:
  59 001e C046     		.align	2
  60              	.L3:
  61 0020 00000000 		.word	PrISM_1_initVar
  62              		.cfi_endproc
  63              	.LFE2:
  64              		.size	PrISM_1_Start, .-PrISM_1_Start
  65              		.section	.text.PrISM_1_Init,"ax",%progbits
  66              		.align	2
  67              		.global	PrISM_1_Init
  68              		.code	16
  69              		.thumb_func
  70              		.type	PrISM_1_Init, %function
  71              	PrISM_1_Init:
  72              	.LFB3:
  64:.\Generated_Source\PSoC4/PrISM_1.c **** 
  65:.\Generated_Source\PSoC4/PrISM_1.c **** 
  66:.\Generated_Source\PSoC4/PrISM_1.c **** /*******************************************************************************
  67:.\Generated_Source\PSoC4/PrISM_1.c **** * Function Name: PrISM_1_Init
  68:.\Generated_Source\PSoC4/PrISM_1.c **** ********************************************************************************
  69:.\Generated_Source\PSoC4/PrISM_1.c **** *
  70:.\Generated_Source\PSoC4/PrISM_1.c **** * Summary:
  71:.\Generated_Source\PSoC4/PrISM_1.c **** *  Initialize component's parameters to the parameters set by user in the 
  72:.\Generated_Source\PSoC4/PrISM_1.c **** *  customizer of the component placed onto schematic. Usually called in 
  73:.\Generated_Source\PSoC4/PrISM_1.c **** *  PrISM_1_Start().
  74:.\Generated_Source\PSoC4/PrISM_1.c **** *
  75:.\Generated_Source\PSoC4/PrISM_1.c **** * Parameters:  
  76:.\Generated_Source\PSoC4/PrISM_1.c **** *  None.
  77:.\Generated_Source\PSoC4/PrISM_1.c **** *
  78:.\Generated_Source\PSoC4/PrISM_1.c **** * Return: 
  79:.\Generated_Source\PSoC4/PrISM_1.c **** *  None.
  80:.\Generated_Source\PSoC4/PrISM_1.c **** *
  81:.\Generated_Source\PSoC4/PrISM_1.c **** *******************************************************************************/
  82:.\Generated_Source\PSoC4/PrISM_1.c **** void PrISM_1_Init(void) 
  83:.\Generated_Source\PSoC4/PrISM_1.c **** {
  73              		.loc 1 83 0
  74              		.cfi_startproc
  75 0000 90B5     		push	{r4, r7, lr}
  76              		.cfi_def_cfa_offset 12
  77              		.cfi_offset 4, -12
  78              		.cfi_offset 7, -8
  79              		.cfi_offset 14, -4
  80 0002 83B0     		sub	sp, sp, #12
  81              		.cfi_def_cfa_offset 24
  82 0004 00AF     		add	r7, sp, #0
  83              		.cfi_def_cfa_register 7
  84:.\Generated_Source\PSoC4/PrISM_1.c ****     uint8 enableInterrupts;
  85:.\Generated_Source\PSoC4/PrISM_1.c ****     
  86:.\Generated_Source\PSoC4/PrISM_1.c ****     /* Writes Seed value, polynom value and density provided by customizer */
  87:.\Generated_Source\PSoC4/PrISM_1.c ****     PrISM_1_WriteSeed(PrISM_1_SEED);
  84              		.loc 1 87 0
ARM GAS  C:\Users\DELL\AppData\Local\Temp\ccrMH2TV.s 			page 4


  85 0006 FF20     		mov	r0, #255
  86 0008 FFF7FEFF 		bl	PrISM_1_WriteSeed
  88:.\Generated_Source\PSoC4/PrISM_1.c ****     PrISM_1_WritePolynomial(PrISM_1_POLYNOM);
  87              		.loc 1 88 0
  88 000c B820     		mov	r0, #184
  89 000e FFF7FEFF 		bl	PrISM_1_WritePolynomial
  89:.\Generated_Source\PSoC4/PrISM_1.c ****     PrISM_1_WritePulse0(PrISM_1_DENSITY0);
  90              		.loc 1 89 0
  91 0012 0120     		mov	r0, #1
  92 0014 FFF7FEFF 		bl	PrISM_1_WritePulse0
  90:.\Generated_Source\PSoC4/PrISM_1.c ****     PrISM_1_WritePulse1(PrISM_1_DENSITY1);
  93              		.loc 1 90 0
  94 0018 0120     		mov	r0, #1
  95 001a FFF7FEFF 		bl	PrISM_1_WritePulse1
  91:.\Generated_Source\PSoC4/PrISM_1.c ****     
  92:.\Generated_Source\PSoC4/PrISM_1.c ****     enableInterrupts = CyEnterCriticalSection();
  96              		.loc 1 92 0
  97 001e FC1D     		add	r4, r7, #7
  98 0020 FFF7FEFF 		bl	CyEnterCriticalSection
  99 0024 031C     		mov	r3, r0
 100 0026 2370     		strb	r3, [r4]
  93:.\Generated_Source\PSoC4/PrISM_1.c ****     /* Set FIFO0_CLR bit to use FIFO0 as a simple one-byte buffer*/
  94:.\Generated_Source\PSoC4/PrISM_1.c ****     CY_SET_REG8(PrISM_1_AUX_CONTROL_PTR, 
 101              		.loc 1 94 0
 102 0028 0F4A     		ldr	r2, .L6
 103 002a 0F4B     		ldr	r3, .L6
 104 002c 1B78     		ldrb	r3, [r3]
 105 002e DBB2     		uxtb	r3, r3
 106 0030 0121     		mov	r1, #1
 107 0032 0B43     		orr	r3, r1
 108 0034 DBB2     		uxtb	r3, r3
 109 0036 1370     		strb	r3, [r2]
  95:.\Generated_Source\PSoC4/PrISM_1.c ****                         CY_GET_REG8(PrISM_1_AUX_CONTROL_PTR) | PrISM_1_FIFO0_CLR);
  96:.\Generated_Source\PSoC4/PrISM_1.c ****     CyExitCriticalSection(enableInterrupts);
 110              		.loc 1 96 0
 111 0038 FB1D     		add	r3, r7, #7
 112 003a 1B78     		ldrb	r3, [r3]
 113 003c 181C     		mov	r0, r3
 114 003e FFF7FEFF 		bl	CyExitCriticalSection
  97:.\Generated_Source\PSoC4/PrISM_1.c ****     
  98:.\Generated_Source\PSoC4/PrISM_1.c ****     #if(!PrISM_1_PULSE_TYPE_HARDCODED)
  99:.\Generated_Source\PSoC4/PrISM_1.c ****         /* Writes density type provided by customizer */
 100:.\Generated_Source\PSoC4/PrISM_1.c ****         #if(PrISM_1_GREATERTHAN_OR_EQUAL == PrISM_1_COMPARE0)
 101:.\Generated_Source\PSoC4/PrISM_1.c ****             PrISM_1_CONTROL_REG |= PrISM_1_CTRL_COMPARE_TYPE0_GREATER_THAN_OR_EQUAL;
 102:.\Generated_Source\PSoC4/PrISM_1.c ****         #else
 103:.\Generated_Source\PSoC4/PrISM_1.c ****             PrISM_1_CONTROL_REG &= (uint8)~PrISM_1_CTRL_COMPARE_TYPE0_GREATER_THAN_OR_EQUAL;
 115              		.loc 1 103 0
 116 0042 0A4A     		ldr	r2, .L6+4
 117 0044 094B     		ldr	r3, .L6+4
 118 0046 1B78     		ldrb	r3, [r3]
 119 0048 DBB2     		uxtb	r3, r3
 120 004a 0221     		mov	r1, #2
 121 004c 8B43     		bic	r3, r1
 122 004e DBB2     		uxtb	r3, r3
 123 0050 1370     		strb	r3, [r2]
 104:.\Generated_Source\PSoC4/PrISM_1.c ****         #endif /* End PrISM_1_COMPARE0 */    
 105:.\Generated_Source\PSoC4/PrISM_1.c ****     
ARM GAS  C:\Users\DELL\AppData\Local\Temp\ccrMH2TV.s 			page 5


 106:.\Generated_Source\PSoC4/PrISM_1.c ****         #if(PrISM_1_GREATERTHAN_OR_EQUAL == PrISM_1_COMPARE1)
 107:.\Generated_Source\PSoC4/PrISM_1.c ****             PrISM_1_CONTROL_REG |= PrISM_1_CTRL_COMPARE_TYPE1_GREATER_THAN_OR_EQUAL;
 108:.\Generated_Source\PSoC4/PrISM_1.c ****         #else
 109:.\Generated_Source\PSoC4/PrISM_1.c ****             PrISM_1_CONTROL_REG &= (uint8)~PrISM_1_CTRL_COMPARE_TYPE1_GREATER_THAN_OR_EQUAL;
 124              		.loc 1 109 0
 125 0052 064A     		ldr	r2, .L6+4
 126 0054 054B     		ldr	r3, .L6+4
 127 0056 1B78     		ldrb	r3, [r3]
 128 0058 DBB2     		uxtb	r3, r3
 129 005a 0421     		mov	r1, #4
 130 005c 8B43     		bic	r3, r1
 131 005e DBB2     		uxtb	r3, r3
 132 0060 1370     		strb	r3, [r2]
 110:.\Generated_Source\PSoC4/PrISM_1.c ****         #endif /* End PrISM_1_COMPARE1 */    
 111:.\Generated_Source\PSoC4/PrISM_1.c ****     #endif /* End PrISM_1_PULSE_TYPE_HARDCODED */
 112:.\Generated_Source\PSoC4/PrISM_1.c **** }
 133              		.loc 1 112 0
 134 0062 BD46     		mov	sp, r7
 135 0064 03B0     		add	sp, sp, #12
 136              		@ sp needed
 137 0066 90BD     		pop	{r4, r7, pc}
 138              	.L7:
 139              		.align	2
 140              	.L6:
 141 0068 93000F40 		.word	1074725011
 142 006c 73000F40 		.word	1074724979
 143              		.cfi_endproc
 144              	.LFE3:
 145              		.size	PrISM_1_Init, .-PrISM_1_Init
 146              		.section	.text.PrISM_1_Enable,"ax",%progbits
 147              		.align	2
 148              		.global	PrISM_1_Enable
 149              		.code	16
 150              		.thumb_func
 151              		.type	PrISM_1_Enable, %function
 152              	PrISM_1_Enable:
 153              	.LFB4:
 113:.\Generated_Source\PSoC4/PrISM_1.c **** 
 114:.\Generated_Source\PSoC4/PrISM_1.c **** 
 115:.\Generated_Source\PSoC4/PrISM_1.c **** /*******************************************************************************
 116:.\Generated_Source\PSoC4/PrISM_1.c **** * Function Name: PrISM_1_Enable
 117:.\Generated_Source\PSoC4/PrISM_1.c **** ********************************************************************************
 118:.\Generated_Source\PSoC4/PrISM_1.c **** *  
 119:.\Generated_Source\PSoC4/PrISM_1.c **** * Summary: 
 120:.\Generated_Source\PSoC4/PrISM_1.c **** *  Enables the PrISM block operation
 121:.\Generated_Source\PSoC4/PrISM_1.c **** *
 122:.\Generated_Source\PSoC4/PrISM_1.c **** * Parameters:  
 123:.\Generated_Source\PSoC4/PrISM_1.c **** *  None.
 124:.\Generated_Source\PSoC4/PrISM_1.c **** *
 125:.\Generated_Source\PSoC4/PrISM_1.c **** * Return: 
 126:.\Generated_Source\PSoC4/PrISM_1.c **** *  None.
 127:.\Generated_Source\PSoC4/PrISM_1.c **** *
 128:.\Generated_Source\PSoC4/PrISM_1.c **** *******************************************************************************/
 129:.\Generated_Source\PSoC4/PrISM_1.c **** void PrISM_1_Enable(void) 
 130:.\Generated_Source\PSoC4/PrISM_1.c **** {
 154              		.loc 1 130 0
 155              		.cfi_startproc
ARM GAS  C:\Users\DELL\AppData\Local\Temp\ccrMH2TV.s 			page 6


 156 0000 80B5     		push	{r7, lr}
 157              		.cfi_def_cfa_offset 8
 158              		.cfi_offset 7, -8
 159              		.cfi_offset 14, -4
 160 0002 00AF     		add	r7, sp, #0
 161              		.cfi_def_cfa_register 7
 131:.\Generated_Source\PSoC4/PrISM_1.c ****     #if(!PrISM_1_PULSE_TYPE_HARDCODED)
 132:.\Generated_Source\PSoC4/PrISM_1.c ****         /* Enable the PrISM computation */
 133:.\Generated_Source\PSoC4/PrISM_1.c ****         PrISM_1_CONTROL_REG |= PrISM_1_CTRL_ENABLE;
 162              		.loc 1 133 0
 163 0004 044A     		ldr	r2, .L9
 164 0006 044B     		ldr	r3, .L9
 165 0008 1B78     		ldrb	r3, [r3]
 166 000a DBB2     		uxtb	r3, r3
 167 000c 0121     		mov	r1, #1
 168 000e 0B43     		orr	r3, r1
 169 0010 DBB2     		uxtb	r3, r3
 170 0012 1370     		strb	r3, [r2]
 134:.\Generated_Source\PSoC4/PrISM_1.c ****     #endif /* End PrISM_1_PULSE_TYPE_HARDCODED */
 135:.\Generated_Source\PSoC4/PrISM_1.c **** }
 171              		.loc 1 135 0
 172 0014 BD46     		mov	sp, r7
 173              		@ sp needed
 174 0016 80BD     		pop	{r7, pc}
 175              	.L10:
 176              		.align	2
 177              	.L9:
 178 0018 73000F40 		.word	1074724979
 179              		.cfi_endproc
 180              	.LFE4:
 181              		.size	PrISM_1_Enable, .-PrISM_1_Enable
 182              		.section	.text.PrISM_1_Stop,"ax",%progbits
 183              		.align	2
 184              		.global	PrISM_1_Stop
 185              		.code	16
 186              		.thumb_func
 187              		.type	PrISM_1_Stop, %function
 188              	PrISM_1_Stop:
 189              	.LFB5:
 136:.\Generated_Source\PSoC4/PrISM_1.c **** 
 137:.\Generated_Source\PSoC4/PrISM_1.c **** 
 138:.\Generated_Source\PSoC4/PrISM_1.c **** /*******************************************************************************
 139:.\Generated_Source\PSoC4/PrISM_1.c **** * FUNCTION NAME:   PrISM_1_Stop
 140:.\Generated_Source\PSoC4/PrISM_1.c **** ********************************************************************************
 141:.\Generated_Source\PSoC4/PrISM_1.c **** *
 142:.\Generated_Source\PSoC4/PrISM_1.c **** * Summary:
 143:.\Generated_Source\PSoC4/PrISM_1.c **** *  Stops PrISM computation. Outputs remain constant.
 144:.\Generated_Source\PSoC4/PrISM_1.c **** *
 145:.\Generated_Source\PSoC4/PrISM_1.c **** * Parameters:  
 146:.\Generated_Source\PSoC4/PrISM_1.c **** *  None.
 147:.\Generated_Source\PSoC4/PrISM_1.c **** *
 148:.\Generated_Source\PSoC4/PrISM_1.c **** * Return: 
 149:.\Generated_Source\PSoC4/PrISM_1.c **** *  None.
 150:.\Generated_Source\PSoC4/PrISM_1.c **** *
 151:.\Generated_Source\PSoC4/PrISM_1.c **** *******************************************************************************/
 152:.\Generated_Source\PSoC4/PrISM_1.c **** void PrISM_1_Stop(void) 
 153:.\Generated_Source\PSoC4/PrISM_1.c **** {
ARM GAS  C:\Users\DELL\AppData\Local\Temp\ccrMH2TV.s 			page 7


 190              		.loc 1 153 0
 191              		.cfi_startproc
 192 0000 80B5     		push	{r7, lr}
 193              		.cfi_def_cfa_offset 8
 194              		.cfi_offset 7, -8
 195              		.cfi_offset 14, -4
 196 0002 00AF     		add	r7, sp, #0
 197              		.cfi_def_cfa_register 7
 154:.\Generated_Source\PSoC4/PrISM_1.c ****     #if(!PrISM_1_PULSE_TYPE_HARDCODED)
 155:.\Generated_Source\PSoC4/PrISM_1.c ****         PrISM_1_CONTROL_REG &= (uint8)~PrISM_1_CTRL_ENABLE;
 198              		.loc 1 155 0
 199 0004 044A     		ldr	r2, .L12
 200 0006 044B     		ldr	r3, .L12
 201 0008 1B78     		ldrb	r3, [r3]
 202 000a DBB2     		uxtb	r3, r3
 203 000c 0121     		mov	r1, #1
 204 000e 8B43     		bic	r3, r1
 205 0010 DBB2     		uxtb	r3, r3
 206 0012 1370     		strb	r3, [r2]
 156:.\Generated_Source\PSoC4/PrISM_1.c ****     #else
 157:.\Generated_Source\PSoC4/PrISM_1.c ****         /* PulseTypeHardoded option enabled - to stop PrISM use enable input */
 158:.\Generated_Source\PSoC4/PrISM_1.c ****     #endif /* End $INSTANCE_NAME`_PULSE_TYPE_HARDCODED */
 159:.\Generated_Source\PSoC4/PrISM_1.c **** }
 207              		.loc 1 159 0
 208 0014 BD46     		mov	sp, r7
 209              		@ sp needed
 210 0016 80BD     		pop	{r7, pc}
 211              	.L13:
 212              		.align	2
 213              	.L12:
 214 0018 73000F40 		.word	1074724979
 215              		.cfi_endproc
 216              	.LFE5:
 217              		.size	PrISM_1_Stop, .-PrISM_1_Stop
 218              		.section	.text.PrISM_1_SetPulse0Mode,"ax",%progbits
 219              		.align	2
 220              		.global	PrISM_1_SetPulse0Mode
 221              		.code	16
 222              		.thumb_func
 223              		.type	PrISM_1_SetPulse0Mode, %function
 224              	PrISM_1_SetPulse0Mode:
 225              	.LFB6:
 160:.\Generated_Source\PSoC4/PrISM_1.c **** 
 161:.\Generated_Source\PSoC4/PrISM_1.c **** #if(!PrISM_1_PULSE_TYPE_HARDCODED)
 162:.\Generated_Source\PSoC4/PrISM_1.c **** 
 163:.\Generated_Source\PSoC4/PrISM_1.c **** 
 164:.\Generated_Source\PSoC4/PrISM_1.c ****     /***************************************************************************
 165:.\Generated_Source\PSoC4/PrISM_1.c ****     * FUNCTION NAME:     PrISM_1_SetPulse0Mode
 166:.\Generated_Source\PSoC4/PrISM_1.c ****     ****************************************************************************
 167:.\Generated_Source\PSoC4/PrISM_1.c ****     *
 168:.\Generated_Source\PSoC4/PrISM_1.c ****     * Summary:
 169:.\Generated_Source\PSoC4/PrISM_1.c ****     *  Sets the pulse density type for Density0. Less than or Equal(<=) or 
 170:.\Generated_Source\PSoC4/PrISM_1.c ****     *  Greater than or Equal(>=).
 171:.\Generated_Source\PSoC4/PrISM_1.c ****     *
 172:.\Generated_Source\PSoC4/PrISM_1.c ****     * Parameters:
 173:.\Generated_Source\PSoC4/PrISM_1.c ****     *  pulse0Type: Selected pulse density type.
 174:.\Generated_Source\PSoC4/PrISM_1.c ****     *
ARM GAS  C:\Users\DELL\AppData\Local\Temp\ccrMH2TV.s 			page 8


 175:.\Generated_Source\PSoC4/PrISM_1.c ****     * Return:
 176:.\Generated_Source\PSoC4/PrISM_1.c ****     *  None.
 177:.\Generated_Source\PSoC4/PrISM_1.c ****     *
 178:.\Generated_Source\PSoC4/PrISM_1.c ****     ***************************************************************************/
 179:.\Generated_Source\PSoC4/PrISM_1.c ****     void PrISM_1_SetPulse0Mode(uint8 pulse0Type) 
 180:.\Generated_Source\PSoC4/PrISM_1.c ****     {
 226              		.loc 1 180 0
 227              		.cfi_startproc
 228 0000 80B5     		push	{r7, lr}
 229              		.cfi_def_cfa_offset 8
 230              		.cfi_offset 7, -8
 231              		.cfi_offset 14, -4
 232 0002 82B0     		sub	sp, sp, #8
 233              		.cfi_def_cfa_offset 16
 234 0004 00AF     		add	r7, sp, #0
 235              		.cfi_def_cfa_register 7
 236 0006 021C     		mov	r2, r0
 237 0008 FB1D     		add	r3, r7, #7
 238 000a 1A70     		strb	r2, [r3]
 181:.\Generated_Source\PSoC4/PrISM_1.c ****         if(pulse0Type == PrISM_1_GREATERTHAN_OR_EQUAL)
 239              		.loc 1 181 0
 240 000c FB1D     		add	r3, r7, #7
 241 000e 1B78     		ldrb	r3, [r3]
 242 0010 012B     		cmp	r3, #1
 243 0012 08D1     		bne	.L15
 182:.\Generated_Source\PSoC4/PrISM_1.c ****         {
 183:.\Generated_Source\PSoC4/PrISM_1.c ****             PrISM_1_CONTROL_REG |= PrISM_1_CTRL_COMPARE_TYPE0_GREATER_THAN_OR_EQUAL;
 244              		.loc 1 183 0
 245 0014 094A     		ldr	r2, .L17
 246 0016 094B     		ldr	r3, .L17
 247 0018 1B78     		ldrb	r3, [r3]
 248 001a DBB2     		uxtb	r3, r3
 249 001c 0221     		mov	r1, #2
 250 001e 0B43     		orr	r3, r1
 251 0020 DBB2     		uxtb	r3, r3
 252 0022 1370     		strb	r3, [r2]
 253 0024 07E0     		b	.L14
 254              	.L15:
 184:.\Generated_Source\PSoC4/PrISM_1.c ****         }
 185:.\Generated_Source\PSoC4/PrISM_1.c ****         else
 186:.\Generated_Source\PSoC4/PrISM_1.c ****         {
 187:.\Generated_Source\PSoC4/PrISM_1.c ****             PrISM_1_CONTROL_REG &= (uint8)~PrISM_1_CTRL_COMPARE_TYPE0_GREATER_THAN_OR_EQUAL;
 255              		.loc 1 187 0
 256 0026 054A     		ldr	r2, .L17
 257 0028 044B     		ldr	r3, .L17
 258 002a 1B78     		ldrb	r3, [r3]
 259 002c DBB2     		uxtb	r3, r3
 260 002e 0221     		mov	r1, #2
 261 0030 8B43     		bic	r3, r1
 262 0032 DBB2     		uxtb	r3, r3
 263 0034 1370     		strb	r3, [r2]
 264              	.L14:
 188:.\Generated_Source\PSoC4/PrISM_1.c ****         }
 189:.\Generated_Source\PSoC4/PrISM_1.c ****     }
 265              		.loc 1 189 0
 266 0036 BD46     		mov	sp, r7
 267 0038 02B0     		add	sp, sp, #8
ARM GAS  C:\Users\DELL\AppData\Local\Temp\ccrMH2TV.s 			page 9


 268              		@ sp needed
 269 003a 80BD     		pop	{r7, pc}
 270              	.L18:
 271              		.align	2
 272              	.L17:
 273 003c 73000F40 		.word	1074724979
 274              		.cfi_endproc
 275              	.LFE6:
 276              		.size	PrISM_1_SetPulse0Mode, .-PrISM_1_SetPulse0Mode
 277              		.section	.text.PrISM_1_SetPulse1Mode,"ax",%progbits
 278              		.align	2
 279              		.global	PrISM_1_SetPulse1Mode
 280              		.code	16
 281              		.thumb_func
 282              		.type	PrISM_1_SetPulse1Mode, %function
 283              	PrISM_1_SetPulse1Mode:
 284              	.LFB7:
 190:.\Generated_Source\PSoC4/PrISM_1.c ****     
 191:.\Generated_Source\PSoC4/PrISM_1.c ****     
 192:.\Generated_Source\PSoC4/PrISM_1.c ****     /***************************************************************************
 193:.\Generated_Source\PSoC4/PrISM_1.c ****     * FUNCTION NAME:   PrISM_1_SetPulse1Mode
 194:.\Generated_Source\PSoC4/PrISM_1.c ****     ****************************************************************************
 195:.\Generated_Source\PSoC4/PrISM_1.c ****     *
 196:.\Generated_Source\PSoC4/PrISM_1.c ****     * Summary:
 197:.\Generated_Source\PSoC4/PrISM_1.c ****     *  Sets the pulse density type for Density1. Less than or Equal(<=) or 
 198:.\Generated_Source\PSoC4/PrISM_1.c ****     *  Greater than or Equal(>=).
 199:.\Generated_Source\PSoC4/PrISM_1.c ****     *
 200:.\Generated_Source\PSoC4/PrISM_1.c ****     * Parameters:  
 201:.\Generated_Source\PSoC4/PrISM_1.c ****     *  pulse1Type: Selected pulse density type.
 202:.\Generated_Source\PSoC4/PrISM_1.c ****     *
 203:.\Generated_Source\PSoC4/PrISM_1.c ****     * Return:
 204:.\Generated_Source\PSoC4/PrISM_1.c ****     *  None.
 205:.\Generated_Source\PSoC4/PrISM_1.c ****     *
 206:.\Generated_Source\PSoC4/PrISM_1.c ****     ***************************************************************************/
 207:.\Generated_Source\PSoC4/PrISM_1.c ****     void PrISM_1_SetPulse1Mode(uint8 pulse1Type) 
 208:.\Generated_Source\PSoC4/PrISM_1.c ****     {
 285              		.loc 1 208 0
 286              		.cfi_startproc
 287 0000 80B5     		push	{r7, lr}
 288              		.cfi_def_cfa_offset 8
 289              		.cfi_offset 7, -8
 290              		.cfi_offset 14, -4
 291 0002 82B0     		sub	sp, sp, #8
 292              		.cfi_def_cfa_offset 16
 293 0004 00AF     		add	r7, sp, #0
 294              		.cfi_def_cfa_register 7
 295 0006 021C     		mov	r2, r0
 296 0008 FB1D     		add	r3, r7, #7
 297 000a 1A70     		strb	r2, [r3]
 209:.\Generated_Source\PSoC4/PrISM_1.c ****         if(pulse1Type == PrISM_1_GREATERTHAN_OR_EQUAL)
 298              		.loc 1 209 0
 299 000c FB1D     		add	r3, r7, #7
 300 000e 1B78     		ldrb	r3, [r3]
 301 0010 012B     		cmp	r3, #1
 302 0012 08D1     		bne	.L20
 210:.\Generated_Source\PSoC4/PrISM_1.c ****         {
 211:.\Generated_Source\PSoC4/PrISM_1.c ****             PrISM_1_CONTROL_REG |= PrISM_1_CTRL_COMPARE_TYPE1_GREATER_THAN_OR_EQUAL;
ARM GAS  C:\Users\DELL\AppData\Local\Temp\ccrMH2TV.s 			page 10


 303              		.loc 1 211 0
 304 0014 094A     		ldr	r2, .L22
 305 0016 094B     		ldr	r3, .L22
 306 0018 1B78     		ldrb	r3, [r3]
 307 001a DBB2     		uxtb	r3, r3
 308 001c 0421     		mov	r1, #4
 309 001e 0B43     		orr	r3, r1
 310 0020 DBB2     		uxtb	r3, r3
 311 0022 1370     		strb	r3, [r2]
 312 0024 07E0     		b	.L19
 313              	.L20:
 212:.\Generated_Source\PSoC4/PrISM_1.c ****         }
 213:.\Generated_Source\PSoC4/PrISM_1.c ****         else
 214:.\Generated_Source\PSoC4/PrISM_1.c ****         {
 215:.\Generated_Source\PSoC4/PrISM_1.c ****             PrISM_1_CONTROL_REG &= (uint8)~PrISM_1_CTRL_COMPARE_TYPE1_GREATER_THAN_OR_EQUAL;
 314              		.loc 1 215 0
 315 0026 054A     		ldr	r2, .L22
 316 0028 044B     		ldr	r3, .L22
 317 002a 1B78     		ldrb	r3, [r3]
 318 002c DBB2     		uxtb	r3, r3
 319 002e 0421     		mov	r1, #4
 320 0030 8B43     		bic	r3, r1
 321 0032 DBB2     		uxtb	r3, r3
 322 0034 1370     		strb	r3, [r2]
 323              	.L19:
 216:.\Generated_Source\PSoC4/PrISM_1.c ****         }
 217:.\Generated_Source\PSoC4/PrISM_1.c ****     }
 324              		.loc 1 217 0
 325 0036 BD46     		mov	sp, r7
 326 0038 02B0     		add	sp, sp, #8
 327              		@ sp needed
 328 003a 80BD     		pop	{r7, pc}
 329              	.L23:
 330              		.align	2
 331              	.L22:
 332 003c 73000F40 		.word	1074724979
 333              		.cfi_endproc
 334              	.LFE7:
 335              		.size	PrISM_1_SetPulse1Mode, .-PrISM_1_SetPulse1Mode
 336              		.section	.text.PrISM_1_ReadSeed,"ax",%progbits
 337              		.align	2
 338              		.global	PrISM_1_ReadSeed
 339              		.code	16
 340              		.thumb_func
 341              		.type	PrISM_1_ReadSeed, %function
 342              	PrISM_1_ReadSeed:
 343              	.LFB8:
 218:.\Generated_Source\PSoC4/PrISM_1.c **** 
 219:.\Generated_Source\PSoC4/PrISM_1.c **** #endif /* End PrISM_1_PULSE_TYPE_HARDCODED == 0 */
 220:.\Generated_Source\PSoC4/PrISM_1.c **** 
 221:.\Generated_Source\PSoC4/PrISM_1.c **** 
 222:.\Generated_Source\PSoC4/PrISM_1.c **** /*******************************************************************************
 223:.\Generated_Source\PSoC4/PrISM_1.c **** * FUNCTION NAME:   PrISM_1_ReadSeed
 224:.\Generated_Source\PSoC4/PrISM_1.c **** ********************************************************************************
 225:.\Generated_Source\PSoC4/PrISM_1.c **** *
 226:.\Generated_Source\PSoC4/PrISM_1.c **** * Summary:
 227:.\Generated_Source\PSoC4/PrISM_1.c **** *  Reads the PrISM Seed register.
ARM GAS  C:\Users\DELL\AppData\Local\Temp\ccrMH2TV.s 			page 11


 228:.\Generated_Source\PSoC4/PrISM_1.c **** *
 229:.\Generated_Source\PSoC4/PrISM_1.c **** * Parameters:
 230:.\Generated_Source\PSoC4/PrISM_1.c **** *  None.
 231:.\Generated_Source\PSoC4/PrISM_1.c **** *
 232:.\Generated_Source\PSoC4/PrISM_1.c **** * Return:
 233:.\Generated_Source\PSoC4/PrISM_1.c **** *  Current Period register value.
 234:.\Generated_Source\PSoC4/PrISM_1.c **** *
 235:.\Generated_Source\PSoC4/PrISM_1.c **** *******************************************************************************/
 236:.\Generated_Source\PSoC4/PrISM_1.c **** uint8 PrISM_1_ReadSeed(void) 
 237:.\Generated_Source\PSoC4/PrISM_1.c **** {
 344              		.loc 1 237 0
 345              		.cfi_startproc
 346 0000 80B5     		push	{r7, lr}
 347              		.cfi_def_cfa_offset 8
 348              		.cfi_offset 7, -8
 349              		.cfi_offset 14, -4
 350 0002 00AF     		add	r7, sp, #0
 351              		.cfi_def_cfa_register 7
 238:.\Generated_Source\PSoC4/PrISM_1.c ****     return( CY_GET_REG8(PrISM_1_SEED_PTR) );
 352              		.loc 1 238 0
 353 0004 024B     		ldr	r3, .L26
 354 0006 1B78     		ldrb	r3, [r3]
 355 0008 DBB2     		uxtb	r3, r3
 239:.\Generated_Source\PSoC4/PrISM_1.c **** }
 356              		.loc 1 239 0
 357 000a 181C     		mov	r0, r3
 358 000c BD46     		mov	sp, r7
 359              		@ sp needed
 360 000e 80BD     		pop	{r7, pc}
 361              	.L27:
 362              		.align	2
 363              	.L26:
 364 0010 03000F40 		.word	1074724867
 365              		.cfi_endproc
 366              	.LFE8:
 367              		.size	PrISM_1_ReadSeed, .-PrISM_1_ReadSeed
 368              		.section	.text.PrISM_1_WriteSeed,"ax",%progbits
 369              		.align	2
 370              		.global	PrISM_1_WriteSeed
 371              		.code	16
 372              		.thumb_func
 373              		.type	PrISM_1_WriteSeed, %function
 374              	PrISM_1_WriteSeed:
 375              	.LFB9:
 240:.\Generated_Source\PSoC4/PrISM_1.c **** 
 241:.\Generated_Source\PSoC4/PrISM_1.c **** 
 242:.\Generated_Source\PSoC4/PrISM_1.c **** /*******************************************************************************
 243:.\Generated_Source\PSoC4/PrISM_1.c **** * FUNCTION NAME:   PrISM_1_WriteSeed
 244:.\Generated_Source\PSoC4/PrISM_1.c **** ********************************************************************************
 245:.\Generated_Source\PSoC4/PrISM_1.c **** *
 246:.\Generated_Source\PSoC4/PrISM_1.c **** * Summary:
 247:.\Generated_Source\PSoC4/PrISM_1.c **** *  Writes the PrISM Seed register with the start value.
 248:.\Generated_Source\PSoC4/PrISM_1.c **** *
 249:.\Generated_Source\PSoC4/PrISM_1.c **** * Parameters:
 250:.\Generated_Source\PSoC4/PrISM_1.c **** *  seed: Seed register value.
 251:.\Generated_Source\PSoC4/PrISM_1.c **** *
 252:.\Generated_Source\PSoC4/PrISM_1.c **** * Return:
ARM GAS  C:\Users\DELL\AppData\Local\Temp\ccrMH2TV.s 			page 12


 253:.\Generated_Source\PSoC4/PrISM_1.c **** *  None.
 254:.\Generated_Source\PSoC4/PrISM_1.c **** *
 255:.\Generated_Source\PSoC4/PrISM_1.c **** *******************************************************************************/
 256:.\Generated_Source\PSoC4/PrISM_1.c **** void PrISM_1_WriteSeed(uint8 seed) 
 257:.\Generated_Source\PSoC4/PrISM_1.c **** {
 376              		.loc 1 257 0
 377              		.cfi_startproc
 378 0000 80B5     		push	{r7, lr}
 379              		.cfi_def_cfa_offset 8
 380              		.cfi_offset 7, -8
 381              		.cfi_offset 14, -4
 382 0002 82B0     		sub	sp, sp, #8
 383              		.cfi_def_cfa_offset 16
 384 0004 00AF     		add	r7, sp, #0
 385              		.cfi_def_cfa_register 7
 386 0006 021C     		mov	r2, r0
 387 0008 FB1D     		add	r3, r7, #7
 388 000a 1A70     		strb	r2, [r3]
 258:.\Generated_Source\PSoC4/PrISM_1.c ****     if(seed != 0u)
 389              		.loc 1 258 0
 390 000c FB1D     		add	r3, r7, #7
 391 000e 1B78     		ldrb	r3, [r3]
 392 0010 002B     		cmp	r3, #0
 393 0012 07D0     		beq	.L28
 259:.\Generated_Source\PSoC4/PrISM_1.c ****     {
 260:.\Generated_Source\PSoC4/PrISM_1.c ****         CY_SET_REG8(PrISM_1_SEED_COPY_PTR, seed);
 394              		.loc 1 260 0
 395 0014 054A     		ldr	r2, .L30
 396 0016 FB1D     		add	r3, r7, #7
 397 0018 1B78     		ldrb	r3, [r3]
 398 001a 1370     		strb	r3, [r2]
 261:.\Generated_Source\PSoC4/PrISM_1.c ****         CY_SET_REG8(PrISM_1_SEED_PTR, seed);
 399              		.loc 1 261 0
 400 001c 044A     		ldr	r2, .L30+4
 401 001e FB1D     		add	r3, r7, #7
 402 0020 1B78     		ldrb	r3, [r3]
 403 0022 1370     		strb	r3, [r2]
 404              	.L28:
 262:.\Generated_Source\PSoC4/PrISM_1.c ****     }
 263:.\Generated_Source\PSoC4/PrISM_1.c **** }
 405              		.loc 1 263 0
 406 0024 BD46     		mov	sp, r7
 407 0026 02B0     		add	sp, sp, #8
 408              		@ sp needed
 409 0028 80BD     		pop	{r7, pc}
 410              	.L31:
 411 002a C046     		.align	2
 412              	.L30:
 413 002c 43000F40 		.word	1074724931
 414 0030 03000F40 		.word	1074724867
 415              		.cfi_endproc
 416              	.LFE9:
 417              		.size	PrISM_1_WriteSeed, .-PrISM_1_WriteSeed
 418              		.section	.text.PrISM_1_ReadPolynomial,"ax",%progbits
 419              		.align	2
 420              		.global	PrISM_1_ReadPolynomial
 421              		.code	16
ARM GAS  C:\Users\DELL\AppData\Local\Temp\ccrMH2TV.s 			page 13


 422              		.thumb_func
 423              		.type	PrISM_1_ReadPolynomial, %function
 424              	PrISM_1_ReadPolynomial:
 425              	.LFB10:
 264:.\Generated_Source\PSoC4/PrISM_1.c **** 
 265:.\Generated_Source\PSoC4/PrISM_1.c **** 
 266:.\Generated_Source\PSoC4/PrISM_1.c **** /*******************************************************************************
 267:.\Generated_Source\PSoC4/PrISM_1.c **** * FUNCTION NAME:   PrISM_1_ReadPolynomial
 268:.\Generated_Source\PSoC4/PrISM_1.c **** ********************************************************************************
 269:.\Generated_Source\PSoC4/PrISM_1.c **** *
 270:.\Generated_Source\PSoC4/PrISM_1.c **** * Summary:
 271:.\Generated_Source\PSoC4/PrISM_1.c **** *  Reads the PrISM polynomial.
 272:.\Generated_Source\PSoC4/PrISM_1.c **** *
 273:.\Generated_Source\PSoC4/PrISM_1.c **** * Parameters:
 274:.\Generated_Source\PSoC4/PrISM_1.c **** *  None.
 275:.\Generated_Source\PSoC4/PrISM_1.c **** *
 276:.\Generated_Source\PSoC4/PrISM_1.c **** * Return:
 277:.\Generated_Source\PSoC4/PrISM_1.c **** *  PrISM polynomial.
 278:.\Generated_Source\PSoC4/PrISM_1.c **** *
 279:.\Generated_Source\PSoC4/PrISM_1.c **** *******************************************************************************/
 280:.\Generated_Source\PSoC4/PrISM_1.c **** uint8 PrISM_1_ReadPolynomial(void) 
 281:.\Generated_Source\PSoC4/PrISM_1.c **** {
 426              		.loc 1 281 0
 427              		.cfi_startproc
 428 0000 80B5     		push	{r7, lr}
 429              		.cfi_def_cfa_offset 8
 430              		.cfi_offset 7, -8
 431              		.cfi_offset 14, -4
 432 0002 00AF     		add	r7, sp, #0
 433              		.cfi_def_cfa_register 7
 282:.\Generated_Source\PSoC4/PrISM_1.c ****     return( CY_GET_REG8(PrISM_1_POLYNOM_PTR) );
 434              		.loc 1 282 0
 435 0004 024B     		ldr	r3, .L34
 436 0006 1B78     		ldrb	r3, [r3]
 437 0008 DBB2     		uxtb	r3, r3
 283:.\Generated_Source\PSoC4/PrISM_1.c **** }
 438              		.loc 1 283 0
 439 000a 181C     		mov	r0, r3
 440 000c BD46     		mov	sp, r7
 441              		@ sp needed
 442 000e 80BD     		pop	{r7, pc}
 443              	.L35:
 444              		.align	2
 445              	.L34:
 446 0010 13000F40 		.word	1074724883
 447              		.cfi_endproc
 448              	.LFE10:
 449              		.size	PrISM_1_ReadPolynomial, .-PrISM_1_ReadPolynomial
 450              		.section	.text.PrISM_1_WritePolynomial,"ax",%progbits
 451              		.align	2
 452              		.global	PrISM_1_WritePolynomial
 453              		.code	16
 454              		.thumb_func
 455              		.type	PrISM_1_WritePolynomial, %function
 456              	PrISM_1_WritePolynomial:
 457              	.LFB11:
 284:.\Generated_Source\PSoC4/PrISM_1.c **** 
ARM GAS  C:\Users\DELL\AppData\Local\Temp\ccrMH2TV.s 			page 14


 285:.\Generated_Source\PSoC4/PrISM_1.c **** 
 286:.\Generated_Source\PSoC4/PrISM_1.c **** /*******************************************************************************
 287:.\Generated_Source\PSoC4/PrISM_1.c **** * FUNCTION NAME:   PrISM_1_WritePolynomial
 288:.\Generated_Source\PSoC4/PrISM_1.c **** ********************************************************************************
 289:.\Generated_Source\PSoC4/PrISM_1.c **** *
 290:.\Generated_Source\PSoC4/PrISM_1.c **** * Summary:
 291:.\Generated_Source\PSoC4/PrISM_1.c **** *  Writes the PrISM polynomial.
 292:.\Generated_Source\PSoC4/PrISM_1.c **** *
 293:.\Generated_Source\PSoC4/PrISM_1.c **** * Parameters:
 294:.\Generated_Source\PSoC4/PrISM_1.c **** *  polynomial: PrISM polynomial.
 295:.\Generated_Source\PSoC4/PrISM_1.c **** *
 296:.\Generated_Source\PSoC4/PrISM_1.c **** * Return:
 297:.\Generated_Source\PSoC4/PrISM_1.c **** *  None.
 298:.\Generated_Source\PSoC4/PrISM_1.c **** *
 299:.\Generated_Source\PSoC4/PrISM_1.c **** *******************************************************************************/
 300:.\Generated_Source\PSoC4/PrISM_1.c **** void PrISM_1_WritePolynomial(uint8 polynomial) \
 301:.\Generated_Source\PSoC4/PrISM_1.c ****                                                                 
 302:.\Generated_Source\PSoC4/PrISM_1.c **** {
 458              		.loc 1 302 0
 459              		.cfi_startproc
 460 0000 80B5     		push	{r7, lr}
 461              		.cfi_def_cfa_offset 8
 462              		.cfi_offset 7, -8
 463              		.cfi_offset 14, -4
 464 0002 82B0     		sub	sp, sp, #8
 465              		.cfi_def_cfa_offset 16
 466 0004 00AF     		add	r7, sp, #0
 467              		.cfi_def_cfa_register 7
 468 0006 021C     		mov	r2, r0
 469 0008 FB1D     		add	r3, r7, #7
 470 000a 1A70     		strb	r2, [r3]
 303:.\Generated_Source\PSoC4/PrISM_1.c ****     CY_SET_REG8(PrISM_1_POLYNOM_PTR, polynomial);
 471              		.loc 1 303 0
 472 000c 034A     		ldr	r2, .L37
 473 000e FB1D     		add	r3, r7, #7
 474 0010 1B78     		ldrb	r3, [r3]
 475 0012 1370     		strb	r3, [r2]
 304:.\Generated_Source\PSoC4/PrISM_1.c ****     
 305:.\Generated_Source\PSoC4/PrISM_1.c **** }
 476              		.loc 1 305 0
 477 0014 BD46     		mov	sp, r7
 478 0016 02B0     		add	sp, sp, #8
 479              		@ sp needed
 480 0018 80BD     		pop	{r7, pc}
 481              	.L38:
 482 001a C046     		.align	2
 483              	.L37:
 484 001c 13000F40 		.word	1074724883
 485              		.cfi_endproc
 486              	.LFE11:
 487              		.size	PrISM_1_WritePolynomial, .-PrISM_1_WritePolynomial
 488              		.section	.text.PrISM_1_ReadPulse0,"ax",%progbits
 489              		.align	2
 490              		.global	PrISM_1_ReadPulse0
 491              		.code	16
 492              		.thumb_func
 493              		.type	PrISM_1_ReadPulse0, %function
ARM GAS  C:\Users\DELL\AppData\Local\Temp\ccrMH2TV.s 			page 15


 494              	PrISM_1_ReadPulse0:
 495              	.LFB12:
 306:.\Generated_Source\PSoC4/PrISM_1.c **** 
 307:.\Generated_Source\PSoC4/PrISM_1.c **** 
 308:.\Generated_Source\PSoC4/PrISM_1.c **** /*******************************************************************************
 309:.\Generated_Source\PSoC4/PrISM_1.c **** * FUNCTION NAME:   PrISM_1_ReadPulse0
 310:.\Generated_Source\PSoC4/PrISM_1.c **** ********************************************************************************
 311:.\Generated_Source\PSoC4/PrISM_1.c **** *
 312:.\Generated_Source\PSoC4/PrISM_1.c **** * Summary:
 313:.\Generated_Source\PSoC4/PrISM_1.c **** *  Reads the PrISM Pulse Density0 register.
 314:.\Generated_Source\PSoC4/PrISM_1.c **** *
 315:.\Generated_Source\PSoC4/PrISM_1.c **** * Parameters:
 316:.\Generated_Source\PSoC4/PrISM_1.c **** *  None.
 317:.\Generated_Source\PSoC4/PrISM_1.c **** *
 318:.\Generated_Source\PSoC4/PrISM_1.c **** * Return:
 319:.\Generated_Source\PSoC4/PrISM_1.c **** *  Pulse Density0 register value.
 320:.\Generated_Source\PSoC4/PrISM_1.c **** *
 321:.\Generated_Source\PSoC4/PrISM_1.c **** *******************************************************************************/
 322:.\Generated_Source\PSoC4/PrISM_1.c **** uint8 PrISM_1_ReadPulse0(void) 
 323:.\Generated_Source\PSoC4/PrISM_1.c **** {
 496              		.loc 1 323 0
 497              		.cfi_startproc
 498 0000 80B5     		push	{r7, lr}
 499              		.cfi_def_cfa_offset 8
 500              		.cfi_offset 7, -8
 501              		.cfi_offset 14, -4
 502 0002 00AF     		add	r7, sp, #0
 503              		.cfi_def_cfa_register 7
 324:.\Generated_Source\PSoC4/PrISM_1.c ****     return( CY_GET_REG8(PrISM_1_DENSITY0_PTR) );
 504              		.loc 1 324 0
 505 0004 024B     		ldr	r3, .L41
 506 0006 1B78     		ldrb	r3, [r3]
 507 0008 DBB2     		uxtb	r3, r3
 325:.\Generated_Source\PSoC4/PrISM_1.c **** }
 508              		.loc 1 325 0
 509 000a 181C     		mov	r0, r3
 510 000c BD46     		mov	sp, r7
 511              		@ sp needed
 512 000e 80BD     		pop	{r7, pc}
 513              	.L42:
 514              		.align	2
 515              	.L41:
 516 0010 23000F40 		.word	1074724899
 517              		.cfi_endproc
 518              	.LFE12:
 519              		.size	PrISM_1_ReadPulse0, .-PrISM_1_ReadPulse0
 520              		.section	.text.PrISM_1_WritePulse0,"ax",%progbits
 521              		.align	2
 522              		.global	PrISM_1_WritePulse0
 523              		.code	16
 524              		.thumb_func
 525              		.type	PrISM_1_WritePulse0, %function
 526              	PrISM_1_WritePulse0:
 527              	.LFB13:
 326:.\Generated_Source\PSoC4/PrISM_1.c **** 
 327:.\Generated_Source\PSoC4/PrISM_1.c **** 
 328:.\Generated_Source\PSoC4/PrISM_1.c **** /*******************************************************************************
ARM GAS  C:\Users\DELL\AppData\Local\Temp\ccrMH2TV.s 			page 16


 329:.\Generated_Source\PSoC4/PrISM_1.c **** * FUNCTION NAME:   PrISM_1_WritePulse0
 330:.\Generated_Source\PSoC4/PrISM_1.c **** ********************************************************************************
 331:.\Generated_Source\PSoC4/PrISM_1.c **** *
 332:.\Generated_Source\PSoC4/PrISM_1.c **** * Summary:
 333:.\Generated_Source\PSoC4/PrISM_1.c **** *  Writes the PrISM Pulse Density0 register with the Pulse Density value.
 334:.\Generated_Source\PSoC4/PrISM_1.c **** *
 335:.\Generated_Source\PSoC4/PrISM_1.c **** * Parameters:
 336:.\Generated_Source\PSoC4/PrISM_1.c **** *  pulseDensity0: Pulse Density value.
 337:.\Generated_Source\PSoC4/PrISM_1.c **** *
 338:.\Generated_Source\PSoC4/PrISM_1.c **** * Return:
 339:.\Generated_Source\PSoC4/PrISM_1.c **** *  None.
 340:.\Generated_Source\PSoC4/PrISM_1.c **** *
 341:.\Generated_Source\PSoC4/PrISM_1.c **** *******************************************************************************/
 342:.\Generated_Source\PSoC4/PrISM_1.c **** void PrISM_1_WritePulse0(uint8 pulseDensity0) \
 343:.\Generated_Source\PSoC4/PrISM_1.c ****                                                                 
 344:.\Generated_Source\PSoC4/PrISM_1.c **** {
 528              		.loc 1 344 0
 529              		.cfi_startproc
 530 0000 80B5     		push	{r7, lr}
 531              		.cfi_def_cfa_offset 8
 532              		.cfi_offset 7, -8
 533              		.cfi_offset 14, -4
 534 0002 82B0     		sub	sp, sp, #8
 535              		.cfi_def_cfa_offset 16
 536 0004 00AF     		add	r7, sp, #0
 537              		.cfi_def_cfa_register 7
 538 0006 021C     		mov	r2, r0
 539 0008 FB1D     		add	r3, r7, #7
 540 000a 1A70     		strb	r2, [r3]
 345:.\Generated_Source\PSoC4/PrISM_1.c ****     CY_SET_REG8(PrISM_1_DENSITY0_PTR, pulseDensity0);
 541              		.loc 1 345 0
 542 000c 034A     		ldr	r2, .L44
 543 000e FB1D     		add	r3, r7, #7
 544 0010 1B78     		ldrb	r3, [r3]
 545 0012 1370     		strb	r3, [r2]
 346:.\Generated_Source\PSoC4/PrISM_1.c **** }
 546              		.loc 1 346 0
 547 0014 BD46     		mov	sp, r7
 548 0016 02B0     		add	sp, sp, #8
 549              		@ sp needed
 550 0018 80BD     		pop	{r7, pc}
 551              	.L45:
 552 001a C046     		.align	2
 553              	.L44:
 554 001c 23000F40 		.word	1074724899
 555              		.cfi_endproc
 556              	.LFE13:
 557              		.size	PrISM_1_WritePulse0, .-PrISM_1_WritePulse0
 558              		.section	.text.PrISM_1_ReadPulse1,"ax",%progbits
 559              		.align	2
 560              		.global	PrISM_1_ReadPulse1
 561              		.code	16
 562              		.thumb_func
 563              		.type	PrISM_1_ReadPulse1, %function
 564              	PrISM_1_ReadPulse1:
 565              	.LFB14:
 347:.\Generated_Source\PSoC4/PrISM_1.c **** 
ARM GAS  C:\Users\DELL\AppData\Local\Temp\ccrMH2TV.s 			page 17


 348:.\Generated_Source\PSoC4/PrISM_1.c **** 
 349:.\Generated_Source\PSoC4/PrISM_1.c **** /*******************************************************************************
 350:.\Generated_Source\PSoC4/PrISM_1.c **** * FUNCTION NAME:   PrISM_1_ReadPulse1
 351:.\Generated_Source\PSoC4/PrISM_1.c **** ********************************************************************************
 352:.\Generated_Source\PSoC4/PrISM_1.c **** *
 353:.\Generated_Source\PSoC4/PrISM_1.c **** * Summary:
 354:.\Generated_Source\PSoC4/PrISM_1.c **** *  Reads the PrISM Pulse Density1 register.
 355:.\Generated_Source\PSoC4/PrISM_1.c **** *
 356:.\Generated_Source\PSoC4/PrISM_1.c **** * Parameters:
 357:.\Generated_Source\PSoC4/PrISM_1.c **** *  None.
 358:.\Generated_Source\PSoC4/PrISM_1.c **** *
 359:.\Generated_Source\PSoC4/PrISM_1.c **** * Return:
 360:.\Generated_Source\PSoC4/PrISM_1.c **** *  Pulse Density1 register value.
 361:.\Generated_Source\PSoC4/PrISM_1.c **** *
 362:.\Generated_Source\PSoC4/PrISM_1.c **** *******************************************************************************/
 363:.\Generated_Source\PSoC4/PrISM_1.c **** uint8 PrISM_1_ReadPulse1(void) 
 364:.\Generated_Source\PSoC4/PrISM_1.c **** {
 566              		.loc 1 364 0
 567              		.cfi_startproc
 568 0000 80B5     		push	{r7, lr}
 569              		.cfi_def_cfa_offset 8
 570              		.cfi_offset 7, -8
 571              		.cfi_offset 14, -4
 572 0002 00AF     		add	r7, sp, #0
 573              		.cfi_def_cfa_register 7
 365:.\Generated_Source\PSoC4/PrISM_1.c ****     return( CY_GET_REG8(PrISM_1_DENSITY1_PTR) );
 574              		.loc 1 365 0
 575 0004 024B     		ldr	r3, .L48
 576 0006 1B78     		ldrb	r3, [r3]
 577 0008 DBB2     		uxtb	r3, r3
 366:.\Generated_Source\PSoC4/PrISM_1.c **** }
 578              		.loc 1 366 0
 579 000a 181C     		mov	r0, r3
 580 000c BD46     		mov	sp, r7
 581              		@ sp needed
 582 000e 80BD     		pop	{r7, pc}
 583              	.L49:
 584              		.align	2
 585              	.L48:
 586 0010 33000F40 		.word	1074724915
 587              		.cfi_endproc
 588              	.LFE14:
 589              		.size	PrISM_1_ReadPulse1, .-PrISM_1_ReadPulse1
 590              		.section	.text.PrISM_1_WritePulse1,"ax",%progbits
 591              		.align	2
 592              		.global	PrISM_1_WritePulse1
 593              		.code	16
 594              		.thumb_func
 595              		.type	PrISM_1_WritePulse1, %function
 596              	PrISM_1_WritePulse1:
 597              	.LFB15:
 367:.\Generated_Source\PSoC4/PrISM_1.c **** 
 368:.\Generated_Source\PSoC4/PrISM_1.c **** 
 369:.\Generated_Source\PSoC4/PrISM_1.c **** /*******************************************************************************
 370:.\Generated_Source\PSoC4/PrISM_1.c **** * FUNCTION NAME:   PrISM_1_WritePulse1
 371:.\Generated_Source\PSoC4/PrISM_1.c **** ********************************************************************************
 372:.\Generated_Source\PSoC4/PrISM_1.c **** *
ARM GAS  C:\Users\DELL\AppData\Local\Temp\ccrMH2TV.s 			page 18


 373:.\Generated_Source\PSoC4/PrISM_1.c **** * Summary:
 374:.\Generated_Source\PSoC4/PrISM_1.c **** *  Writes the PrISM Pulse Density1 register with the Pulse Density value.
 375:.\Generated_Source\PSoC4/PrISM_1.c **** *
 376:.\Generated_Source\PSoC4/PrISM_1.c **** * Parameters:
 377:.\Generated_Source\PSoC4/PrISM_1.c **** *  pulseDensity1: Pulse Density value.
 378:.\Generated_Source\PSoC4/PrISM_1.c **** *
 379:.\Generated_Source\PSoC4/PrISM_1.c **** * Return:
 380:.\Generated_Source\PSoC4/PrISM_1.c **** *  None.
 381:.\Generated_Source\PSoC4/PrISM_1.c **** *
 382:.\Generated_Source\PSoC4/PrISM_1.c **** *******************************************************************************/
 383:.\Generated_Source\PSoC4/PrISM_1.c **** void PrISM_1_WritePulse1(uint8 pulseDensity1) \
 384:.\Generated_Source\PSoC4/PrISM_1.c ****                                                                     
 385:.\Generated_Source\PSoC4/PrISM_1.c **** {
 598              		.loc 1 385 0
 599              		.cfi_startproc
 600 0000 80B5     		push	{r7, lr}
 601              		.cfi_def_cfa_offset 8
 602              		.cfi_offset 7, -8
 603              		.cfi_offset 14, -4
 604 0002 82B0     		sub	sp, sp, #8
 605              		.cfi_def_cfa_offset 16
 606 0004 00AF     		add	r7, sp, #0
 607              		.cfi_def_cfa_register 7
 608 0006 021C     		mov	r2, r0
 609 0008 FB1D     		add	r3, r7, #7
 610 000a 1A70     		strb	r2, [r3]
 386:.\Generated_Source\PSoC4/PrISM_1.c ****     CY_SET_REG8(PrISM_1_DENSITY1_PTR, pulseDensity1);
 611              		.loc 1 386 0
 612 000c 034A     		ldr	r2, .L51
 613 000e FB1D     		add	r3, r7, #7
 614 0010 1B78     		ldrb	r3, [r3]
 615 0012 1370     		strb	r3, [r2]
 387:.\Generated_Source\PSoC4/PrISM_1.c **** }
 616              		.loc 1 387 0
 617 0014 BD46     		mov	sp, r7
 618 0016 02B0     		add	sp, sp, #8
 619              		@ sp needed
 620 0018 80BD     		pop	{r7, pc}
 621              	.L52:
 622 001a C046     		.align	2
 623              	.L51:
 624 001c 33000F40 		.word	1074724915
 625              		.cfi_endproc
 626              	.LFE15:
 627              		.size	PrISM_1_WritePulse1, .-PrISM_1_WritePulse1
 628              		.text
 629              	.Letext0:
 630              		.file 2 ".\\Generated_Source\\PSoC4\\cytypes.h"
