ARM GAS  C:\Users\DELL\AppData\Local\Temp\cczUhRo6.s 			page 1


   1              		.cpu cortex-m0
   2              		.fpu softvfp
   3              		.eabi_attribute 20, 1
   4              		.eabi_attribute 21, 1
   5              		.eabi_attribute 23, 3
   6              		.eabi_attribute 24, 1
   7              		.eabi_attribute 25, 1
   8              		.eabi_attribute 26, 1
   9              		.eabi_attribute 30, 6
  10              		.eabi_attribute 34, 0
  11              		.eabi_attribute 18, 4
  12              		.code	16
  13              		.file	"cyutils.c"
  14              		.text
  15              	.Ltext0:
  16              		.cfi_sections	.debug_frame
  17              		.section	.text.CySetReg24,"ax",%progbits
  18              		.align	2
  19              		.global	CySetReg24
  20              		.code	16
  21              		.thumb_func
  22              		.type	CySetReg24, %function
  23              	CySetReg24:
  24              	.LFB0:
  25              		.file 1 ".\\Generated_Source\\PSoC4\\cyutils.c"
   1:.\Generated_Source\PSoC4/cyutils.c **** /*******************************************************************************
   2:.\Generated_Source\PSoC4/cyutils.c **** * FILENAME: cyutils.c
   3:.\Generated_Source\PSoC4/cyutils.c **** * Version 5.30
   4:.\Generated_Source\PSoC4/cyutils.c **** *
   5:.\Generated_Source\PSoC4/cyutils.c **** *  Description:
   6:.\Generated_Source\PSoC4/cyutils.c **** *   CyUtils provides a function to handle 24-bit value writes.
   7:.\Generated_Source\PSoC4/cyutils.c **** *
   8:.\Generated_Source\PSoC4/cyutils.c **** ********************************************************************************
   9:.\Generated_Source\PSoC4/cyutils.c **** * Copyright 2008-2015, Cypress Semiconductor Corporation.  All rights reserved.
  10:.\Generated_Source\PSoC4/cyutils.c **** * You may use this file only in accordance with the license, terms, conditions,
  11:.\Generated_Source\PSoC4/cyutils.c **** * disclaimers, and limitations in the end user license agreement accompanying
  12:.\Generated_Source\PSoC4/cyutils.c **** * the software package with which this file was provided.
  13:.\Generated_Source\PSoC4/cyutils.c **** *******************************************************************************/
  14:.\Generated_Source\PSoC4/cyutils.c **** 
  15:.\Generated_Source\PSoC4/cyutils.c **** #include "cytypes.h"
  16:.\Generated_Source\PSoC4/cyutils.c **** 
  17:.\Generated_Source\PSoC4/cyutils.c **** #if (!CY_PSOC3)
  18:.\Generated_Source\PSoC4/cyutils.c **** 
  19:.\Generated_Source\PSoC4/cyutils.c ****     /***************************************************************************
  20:.\Generated_Source\PSoC4/cyutils.c ****     * Function Name: CySetReg24
  21:.\Generated_Source\PSoC4/cyutils.c ****     ****************************************************************************
  22:.\Generated_Source\PSoC4/cyutils.c ****     *
  23:.\Generated_Source\PSoC4/cyutils.c ****     * Summary:
  24:.\Generated_Source\PSoC4/cyutils.c ****     *  Writes a 24-bit value to the specified register.
  25:.\Generated_Source\PSoC4/cyutils.c ****     *
  26:.\Generated_Source\PSoC4/cyutils.c ****     * Parameters:
  27:.\Generated_Source\PSoC4/cyutils.c ****     *  addr : the address where data must be written.
  28:.\Generated_Source\PSoC4/cyutils.c ****     *  value: the data that must be written.
  29:.\Generated_Source\PSoC4/cyutils.c ****     *
  30:.\Generated_Source\PSoC4/cyutils.c ****     * Return:
  31:.\Generated_Source\PSoC4/cyutils.c ****     *  None
  32:.\Generated_Source\PSoC4/cyutils.c ****     *
ARM GAS  C:\Users\DELL\AppData\Local\Temp\cczUhRo6.s 			page 2


  33:.\Generated_Source\PSoC4/cyutils.c ****     * Reentrant:
  34:.\Generated_Source\PSoC4/cyutils.c ****     *  No
  35:.\Generated_Source\PSoC4/cyutils.c ****     *
  36:.\Generated_Source\PSoC4/cyutils.c ****     ***************************************************************************/
  37:.\Generated_Source\PSoC4/cyutils.c ****     void CySetReg24(uint32 volatile * addr, uint32 value)
  38:.\Generated_Source\PSoC4/cyutils.c ****     {
  26              		.loc 1 38 0
  27              		.cfi_startproc
  28 0000 80B5     		push	{r7, lr}
  29              		.cfi_def_cfa_offset 8
  30              		.cfi_offset 7, -8
  31              		.cfi_offset 14, -4
  32 0002 84B0     		sub	sp, sp, #16
  33              		.cfi_def_cfa_offset 24
  34 0004 00AF     		add	r7, sp, #0
  35              		.cfi_def_cfa_register 7
  36 0006 7860     		str	r0, [r7, #4]
  37 0008 3960     		str	r1, [r7]
  39:.\Generated_Source\PSoC4/cyutils.c ****         uint8 volatile *tmpAddr;
  40:.\Generated_Source\PSoC4/cyutils.c **** 
  41:.\Generated_Source\PSoC4/cyutils.c ****         tmpAddr = (uint8 volatile *) addr;
  38              		.loc 1 41 0
  39 000a 7B68     		ldr	r3, [r7, #4]
  40 000c FB60     		str	r3, [r7, #12]
  42:.\Generated_Source\PSoC4/cyutils.c **** 
  43:.\Generated_Source\PSoC4/cyutils.c ****         tmpAddr[0u] = (uint8) value;
  41              		.loc 1 43 0
  42 000e 3B68     		ldr	r3, [r7]
  43 0010 DAB2     		uxtb	r2, r3
  44 0012 FB68     		ldr	r3, [r7, #12]
  45 0014 1A70     		strb	r2, [r3]
  44:.\Generated_Source\PSoC4/cyutils.c ****         tmpAddr[1u] = (uint8) (value >> 8u);
  46              		.loc 1 44 0
  47 0016 FB68     		ldr	r3, [r7, #12]
  48 0018 0133     		add	r3, r3, #1
  49 001a 3A68     		ldr	r2, [r7]
  50 001c 120A     		lsr	r2, r2, #8
  51 001e D2B2     		uxtb	r2, r2
  52 0020 1A70     		strb	r2, [r3]
  45:.\Generated_Source\PSoC4/cyutils.c ****         tmpAddr[2u] = (uint8) (value >> 16u);
  53              		.loc 1 45 0
  54 0022 FB68     		ldr	r3, [r7, #12]
  55 0024 0233     		add	r3, r3, #2
  56 0026 3A68     		ldr	r2, [r7]
  57 0028 120C     		lsr	r2, r2, #16
  58 002a D2B2     		uxtb	r2, r2
  59 002c 1A70     		strb	r2, [r3]
  46:.\Generated_Source\PSoC4/cyutils.c ****     }
  60              		.loc 1 46 0
  61 002e BD46     		mov	sp, r7
  62 0030 04B0     		add	sp, sp, #16
  63              		@ sp needed
  64 0032 80BD     		pop	{r7, pc}
  65              		.cfi_endproc
  66              	.LFE0:
  67              		.size	CySetReg24, .-CySetReg24
  68              		.section	.text.CyGetReg24,"ax",%progbits
ARM GAS  C:\Users\DELL\AppData\Local\Temp\cczUhRo6.s 			page 3


  69              		.align	2
  70              		.global	CyGetReg24
  71              		.code	16
  72              		.thumb_func
  73              		.type	CyGetReg24, %function
  74              	CyGetReg24:
  75              	.LFB1:
  47:.\Generated_Source\PSoC4/cyutils.c **** 
  48:.\Generated_Source\PSoC4/cyutils.c **** 
  49:.\Generated_Source\PSoC4/cyutils.c ****     #if(CY_PSOC4)
  50:.\Generated_Source\PSoC4/cyutils.c **** 
  51:.\Generated_Source\PSoC4/cyutils.c ****         /***************************************************************************
  52:.\Generated_Source\PSoC4/cyutils.c ****         * Function Name: CyGetReg24
  53:.\Generated_Source\PSoC4/cyutils.c ****         ****************************************************************************
  54:.\Generated_Source\PSoC4/cyutils.c ****         *
  55:.\Generated_Source\PSoC4/cyutils.c ****         * Summary:
  56:.\Generated_Source\PSoC4/cyutils.c ****         *  Reads the 24-bit value from the specified register.
  57:.\Generated_Source\PSoC4/cyutils.c ****         *
  58:.\Generated_Source\PSoC4/cyutils.c ****         * Parameters:
  59:.\Generated_Source\PSoC4/cyutils.c ****         *  addr : the address where data must be read.
  60:.\Generated_Source\PSoC4/cyutils.c ****         *
  61:.\Generated_Source\PSoC4/cyutils.c ****         * Return:
  62:.\Generated_Source\PSoC4/cyutils.c ****         *  None
  63:.\Generated_Source\PSoC4/cyutils.c ****         *
  64:.\Generated_Source\PSoC4/cyutils.c ****         * Reentrant:
  65:.\Generated_Source\PSoC4/cyutils.c ****         *  No
  66:.\Generated_Source\PSoC4/cyutils.c ****         *
  67:.\Generated_Source\PSoC4/cyutils.c ****         ***************************************************************************/
  68:.\Generated_Source\PSoC4/cyutils.c ****         uint32 CyGetReg24(uint32 const volatile * addr)
  69:.\Generated_Source\PSoC4/cyutils.c ****         {
  76              		.loc 1 69 0
  77              		.cfi_startproc
  78 0000 80B5     		push	{r7, lr}
  79              		.cfi_def_cfa_offset 8
  80              		.cfi_offset 7, -8
  81              		.cfi_offset 14, -4
  82 0002 84B0     		sub	sp, sp, #16
  83              		.cfi_def_cfa_offset 24
  84 0004 00AF     		add	r7, sp, #0
  85              		.cfi_def_cfa_register 7
  86 0006 7860     		str	r0, [r7, #4]
  70:.\Generated_Source\PSoC4/cyutils.c ****             uint8 const volatile *tmpAddr;
  71:.\Generated_Source\PSoC4/cyutils.c ****             uint32 value;
  72:.\Generated_Source\PSoC4/cyutils.c **** 
  73:.\Generated_Source\PSoC4/cyutils.c ****             tmpAddr = (uint8 const volatile *) addr;
  87              		.loc 1 73 0
  88 0008 7B68     		ldr	r3, [r7, #4]
  89 000a FB60     		str	r3, [r7, #12]
  74:.\Generated_Source\PSoC4/cyutils.c **** 
  75:.\Generated_Source\PSoC4/cyutils.c ****             value  =  (uint32) tmpAddr[0u];
  90              		.loc 1 75 0
  91 000c FB68     		ldr	r3, [r7, #12]
  92 000e 1B78     		ldrb	r3, [r3]
  93 0010 DBB2     		uxtb	r3, r3
  94 0012 BB60     		str	r3, [r7, #8]
  76:.\Generated_Source\PSoC4/cyutils.c ****             value |= ((uint32) tmpAddr[1u] << 8u );
  95              		.loc 1 76 0
ARM GAS  C:\Users\DELL\AppData\Local\Temp\cczUhRo6.s 			page 4


  96 0014 FB68     		ldr	r3, [r7, #12]
  97 0016 0133     		add	r3, r3, #1
  98 0018 1B78     		ldrb	r3, [r3]
  99 001a DBB2     		uxtb	r3, r3
 100 001c 1B02     		lsl	r3, r3, #8
 101 001e BA68     		ldr	r2, [r7, #8]
 102 0020 1343     		orr	r3, r2
 103 0022 BB60     		str	r3, [r7, #8]
  77:.\Generated_Source\PSoC4/cyutils.c ****             value |= ((uint32) tmpAddr[2u] << 16u);
 104              		.loc 1 77 0
 105 0024 FB68     		ldr	r3, [r7, #12]
 106 0026 0233     		add	r3, r3, #2
 107 0028 1B78     		ldrb	r3, [r3]
 108 002a DBB2     		uxtb	r3, r3
 109 002c 1B04     		lsl	r3, r3, #16
 110 002e BA68     		ldr	r2, [r7, #8]
 111 0030 1343     		orr	r3, r2
 112 0032 BB60     		str	r3, [r7, #8]
  78:.\Generated_Source\PSoC4/cyutils.c **** 
  79:.\Generated_Source\PSoC4/cyutils.c ****             return(value);
 113              		.loc 1 79 0
 114 0034 BB68     		ldr	r3, [r7, #8]
  80:.\Generated_Source\PSoC4/cyutils.c ****         }
 115              		.loc 1 80 0
 116 0036 181C     		mov	r0, r3
 117 0038 BD46     		mov	sp, r7
 118 003a 04B0     		add	sp, sp, #16
 119              		@ sp needed
 120 003c 80BD     		pop	{r7, pc}
 121              		.cfi_endproc
 122              	.LFE1:
 123              		.size	CyGetReg24, .-CyGetReg24
 124 003e C046     		.text
 125              	.Letext0:
 126              		.file 2 ".\\Generated_Source\\PSoC4\\cytypes.h"
