ARM GAS  C:\Users\DELL\AppData\Local\Temp\cc1fUPMg.s 			page 1


   1              		.cpu cortex-m0
   2              		.fpu softvfp
   3              		.eabi_attribute 20, 1
   4              		.eabi_attribute 21, 1
   5              		.eabi_attribute 23, 3
   6              		.eabi_attribute 24, 1
   7              		.eabi_attribute 25, 1
   8              		.eabi_attribute 26, 1
   9              		.eabi_attribute 30, 6
  10              		.eabi_attribute 34, 0
  11              		.eabi_attribute 18, 4
  12              		.code	16
  13              		.file	"I2CS.c"
  14              		.text
  15              	.Ltext0:
  16              		.cfi_sections	.debug_frame
  17              		.global	I2CS_initVar
  18              		.bss
  19              		.type	I2CS_initVar, %object
  20              		.size	I2CS_initVar, 1
  21              	I2CS_initVar:
  22 0000 00       		.space	1
  23              		.global	I2CS_customIntrHandler
  24 0001 000000   		.align	2
  25              		.type	I2CS_customIntrHandler, %object
  26              		.size	I2CS_customIntrHandler, 4
  27              	I2CS_customIntrHandler:
  28 0004 00000000 		.space	4
  29              		.section	.text.I2CS_Init,"ax",%progbits
  30              		.align	2
  31              		.global	I2CS_Init
  32              		.code	16
  33              		.thumb_func
  34              		.type	I2CS_Init, %function
  35              	I2CS_Init:
  36              	.LFB2:
  37              		.file 1 ".\\Generated_Source\\PSoC4\\I2CS.c"
   1:.\Generated_Source\PSoC4/I2CS.c **** /*******************************************************************************
   2:.\Generated_Source\PSoC4/I2CS.c **** * File Name: I2CS.c
   3:.\Generated_Source\PSoC4/I2CS.c **** * Version 3.10
   4:.\Generated_Source\PSoC4/I2CS.c **** *
   5:.\Generated_Source\PSoC4/I2CS.c **** * Description:
   6:.\Generated_Source\PSoC4/I2CS.c **** *  This file provides the source code to the API for the SCB Component.
   7:.\Generated_Source\PSoC4/I2CS.c **** *
   8:.\Generated_Source\PSoC4/I2CS.c **** * Note:
   9:.\Generated_Source\PSoC4/I2CS.c **** *
  10:.\Generated_Source\PSoC4/I2CS.c **** *******************************************************************************
  11:.\Generated_Source\PSoC4/I2CS.c **** * Copyright 2013-2015, Cypress Semiconductor Corporation.  All rights reserved.
  12:.\Generated_Source\PSoC4/I2CS.c **** * You may use this file only in accordance with the license, terms, conditions,
  13:.\Generated_Source\PSoC4/I2CS.c **** * disclaimers, and limitations in the end user license agreement accompanying
  14:.\Generated_Source\PSoC4/I2CS.c **** * the software package with which this file was provided.
  15:.\Generated_Source\PSoC4/I2CS.c **** *******************************************************************************/
  16:.\Generated_Source\PSoC4/I2CS.c **** 
  17:.\Generated_Source\PSoC4/I2CS.c **** #include "I2CS_PVT.h"
  18:.\Generated_Source\PSoC4/I2CS.c **** 
  19:.\Generated_Source\PSoC4/I2CS.c **** #if (I2CS_SCB_MODE_I2C_INC)
  20:.\Generated_Source\PSoC4/I2CS.c ****     #include "I2CS_I2C_PVT.h"
ARM GAS  C:\Users\DELL\AppData\Local\Temp\cc1fUPMg.s 			page 2


  21:.\Generated_Source\PSoC4/I2CS.c **** #endif /* (I2CS_SCB_MODE_I2C_INC) */
  22:.\Generated_Source\PSoC4/I2CS.c **** 
  23:.\Generated_Source\PSoC4/I2CS.c **** #if (I2CS_SCB_MODE_EZI2C_INC)
  24:.\Generated_Source\PSoC4/I2CS.c ****     #include "I2CS_EZI2C_PVT.h"
  25:.\Generated_Source\PSoC4/I2CS.c **** #endif /* (I2CS_SCB_MODE_EZI2C_INC) */
  26:.\Generated_Source\PSoC4/I2CS.c **** 
  27:.\Generated_Source\PSoC4/I2CS.c **** #if (I2CS_SCB_MODE_SPI_INC || I2CS_SCB_MODE_UART_INC)
  28:.\Generated_Source\PSoC4/I2CS.c ****     #include "I2CS_SPI_UART_PVT.h"
  29:.\Generated_Source\PSoC4/I2CS.c **** #endif /* (I2CS_SCB_MODE_SPI_INC || I2CS_SCB_MODE_UART_INC) */
  30:.\Generated_Source\PSoC4/I2CS.c **** 
  31:.\Generated_Source\PSoC4/I2CS.c **** 
  32:.\Generated_Source\PSoC4/I2CS.c **** /***************************************
  33:.\Generated_Source\PSoC4/I2CS.c **** *    Run Time Configuration Vars
  34:.\Generated_Source\PSoC4/I2CS.c **** ***************************************/
  35:.\Generated_Source\PSoC4/I2CS.c **** 
  36:.\Generated_Source\PSoC4/I2CS.c **** /* Stores internal component configuration for Unconfigured mode */
  37:.\Generated_Source\PSoC4/I2CS.c **** #if (I2CS_SCB_MODE_UNCONFIG_CONST_CFG)
  38:.\Generated_Source\PSoC4/I2CS.c ****     /* Common configuration variables */
  39:.\Generated_Source\PSoC4/I2CS.c ****     uint8 I2CS_scbMode = I2CS_SCB_MODE_UNCONFIG;
  40:.\Generated_Source\PSoC4/I2CS.c ****     uint8 I2CS_scbEnableWake;
  41:.\Generated_Source\PSoC4/I2CS.c ****     uint8 I2CS_scbEnableIntr;
  42:.\Generated_Source\PSoC4/I2CS.c **** 
  43:.\Generated_Source\PSoC4/I2CS.c ****     /* I2C configuration variables */
  44:.\Generated_Source\PSoC4/I2CS.c ****     uint8 I2CS_mode;
  45:.\Generated_Source\PSoC4/I2CS.c ****     uint8 I2CS_acceptAddr;
  46:.\Generated_Source\PSoC4/I2CS.c **** 
  47:.\Generated_Source\PSoC4/I2CS.c ****     /* SPI/UART configuration variables */
  48:.\Generated_Source\PSoC4/I2CS.c ****     volatile uint8 * I2CS_rxBuffer;
  49:.\Generated_Source\PSoC4/I2CS.c ****     uint8  I2CS_rxDataBits;
  50:.\Generated_Source\PSoC4/I2CS.c ****     uint32 I2CS_rxBufferSize;
  51:.\Generated_Source\PSoC4/I2CS.c **** 
  52:.\Generated_Source\PSoC4/I2CS.c ****     volatile uint8 * I2CS_txBuffer;
  53:.\Generated_Source\PSoC4/I2CS.c ****     uint8  I2CS_txDataBits;
  54:.\Generated_Source\PSoC4/I2CS.c ****     uint32 I2CS_txBufferSize;
  55:.\Generated_Source\PSoC4/I2CS.c **** 
  56:.\Generated_Source\PSoC4/I2CS.c ****     /* EZI2C configuration variables */
  57:.\Generated_Source\PSoC4/I2CS.c ****     uint8 I2CS_numberOfAddr;
  58:.\Generated_Source\PSoC4/I2CS.c ****     uint8 I2CS_subAddrSize;
  59:.\Generated_Source\PSoC4/I2CS.c **** #endif /* (I2CS_SCB_MODE_UNCONFIG_CONST_CFG) */
  60:.\Generated_Source\PSoC4/I2CS.c **** 
  61:.\Generated_Source\PSoC4/I2CS.c **** 
  62:.\Generated_Source\PSoC4/I2CS.c **** /***************************************
  63:.\Generated_Source\PSoC4/I2CS.c **** *     Common SCB Vars
  64:.\Generated_Source\PSoC4/I2CS.c **** ***************************************/
  65:.\Generated_Source\PSoC4/I2CS.c **** 
  66:.\Generated_Source\PSoC4/I2CS.c **** uint8 I2CS_initVar = 0u;
  67:.\Generated_Source\PSoC4/I2CS.c **** 
  68:.\Generated_Source\PSoC4/I2CS.c **** #if (I2CS_SCB_IRQ_INTERNAL)
  69:.\Generated_Source\PSoC4/I2CS.c **** #if !defined (CY_REMOVE_I2CS_CUSTOM_INTR_HANDLER)
  70:.\Generated_Source\PSoC4/I2CS.c ****     void (*I2CS_customIntrHandler)(void) = NULL;
  71:.\Generated_Source\PSoC4/I2CS.c **** #endif /* !defined (CY_REMOVE_I2CS_CUSTOM_INTR_HANDLER) */
  72:.\Generated_Source\PSoC4/I2CS.c **** #endif /* (I2CS_SCB_IRQ_INTERNAL) */
  73:.\Generated_Source\PSoC4/I2CS.c **** 
  74:.\Generated_Source\PSoC4/I2CS.c **** 
  75:.\Generated_Source\PSoC4/I2CS.c **** /***************************************
  76:.\Generated_Source\PSoC4/I2CS.c **** *    Private Function Prototypes
  77:.\Generated_Source\PSoC4/I2CS.c **** ***************************************/
ARM GAS  C:\Users\DELL\AppData\Local\Temp\cc1fUPMg.s 			page 3


  78:.\Generated_Source\PSoC4/I2CS.c **** 
  79:.\Generated_Source\PSoC4/I2CS.c **** static void I2CS_ScbEnableIntr(void);
  80:.\Generated_Source\PSoC4/I2CS.c **** static void I2CS_ScbModeStop(void);
  81:.\Generated_Source\PSoC4/I2CS.c **** static void I2CS_ScbModePostEnable(void);
  82:.\Generated_Source\PSoC4/I2CS.c **** 
  83:.\Generated_Source\PSoC4/I2CS.c **** 
  84:.\Generated_Source\PSoC4/I2CS.c **** /*******************************************************************************
  85:.\Generated_Source\PSoC4/I2CS.c **** * Function Name: I2CS_Init
  86:.\Generated_Source\PSoC4/I2CS.c **** ********************************************************************************
  87:.\Generated_Source\PSoC4/I2CS.c **** *
  88:.\Generated_Source\PSoC4/I2CS.c **** * Summary:
  89:.\Generated_Source\PSoC4/I2CS.c **** *  Initializes the SCB component to operate in one of the selected
  90:.\Generated_Source\PSoC4/I2CS.c **** *  configurations: I2C, SPI, UART or EZI2C.
  91:.\Generated_Source\PSoC4/I2CS.c **** *  When the configuration is set to "Unconfigured SCB", this function does
  92:.\Generated_Source\PSoC4/I2CS.c **** *  not do any initialization. Use mode-specific initialization APIs instead:
  93:.\Generated_Source\PSoC4/I2CS.c **** *  SCB_I2CInit, SCB_SpiInit, SCB_UartInit or SCB_EzI2CInit.
  94:.\Generated_Source\PSoC4/I2CS.c **** *
  95:.\Generated_Source\PSoC4/I2CS.c **** * Parameters:
  96:.\Generated_Source\PSoC4/I2CS.c **** *  None
  97:.\Generated_Source\PSoC4/I2CS.c **** *
  98:.\Generated_Source\PSoC4/I2CS.c **** * Return:
  99:.\Generated_Source\PSoC4/I2CS.c **** *  None
 100:.\Generated_Source\PSoC4/I2CS.c **** *
 101:.\Generated_Source\PSoC4/I2CS.c **** *******************************************************************************/
 102:.\Generated_Source\PSoC4/I2CS.c **** void I2CS_Init(void)
 103:.\Generated_Source\PSoC4/I2CS.c **** {
  38              		.loc 1 103 0
  39              		.cfi_startproc
  40 0000 80B5     		push	{r7, lr}
  41              		.cfi_def_cfa_offset 8
  42              		.cfi_offset 7, -8
  43              		.cfi_offset 14, -4
  44 0002 00AF     		add	r7, sp, #0
  45              		.cfi_def_cfa_register 7
 104:.\Generated_Source\PSoC4/I2CS.c **** #if (I2CS_SCB_MODE_UNCONFIG_CONST_CFG)
 105:.\Generated_Source\PSoC4/I2CS.c ****     if (I2CS_SCB_MODE_UNCONFIG_RUNTM_CFG)
 106:.\Generated_Source\PSoC4/I2CS.c ****     {
 107:.\Generated_Source\PSoC4/I2CS.c ****         I2CS_initVar = 0u;
 108:.\Generated_Source\PSoC4/I2CS.c ****     }
 109:.\Generated_Source\PSoC4/I2CS.c ****     else
 110:.\Generated_Source\PSoC4/I2CS.c ****     {
 111:.\Generated_Source\PSoC4/I2CS.c ****         /* Initialization was done before this function call */
 112:.\Generated_Source\PSoC4/I2CS.c ****     }
 113:.\Generated_Source\PSoC4/I2CS.c **** 
 114:.\Generated_Source\PSoC4/I2CS.c **** #elif (I2CS_SCB_MODE_I2C_CONST_CFG)
 115:.\Generated_Source\PSoC4/I2CS.c ****     I2CS_I2CInit();
  46              		.loc 1 115 0
  47 0004 FFF7FEFF 		bl	I2CS_I2CInit
 116:.\Generated_Source\PSoC4/I2CS.c **** 
 117:.\Generated_Source\PSoC4/I2CS.c **** #elif (I2CS_SCB_MODE_SPI_CONST_CFG)
 118:.\Generated_Source\PSoC4/I2CS.c ****     I2CS_SpiInit();
 119:.\Generated_Source\PSoC4/I2CS.c **** 
 120:.\Generated_Source\PSoC4/I2CS.c **** #elif (I2CS_SCB_MODE_UART_CONST_CFG)
 121:.\Generated_Source\PSoC4/I2CS.c ****     I2CS_UartInit();
 122:.\Generated_Source\PSoC4/I2CS.c **** 
 123:.\Generated_Source\PSoC4/I2CS.c **** #elif (I2CS_SCB_MODE_EZI2C_CONST_CFG)
 124:.\Generated_Source\PSoC4/I2CS.c ****     I2CS_EzI2CInit();
ARM GAS  C:\Users\DELL\AppData\Local\Temp\cc1fUPMg.s 			page 4


 125:.\Generated_Source\PSoC4/I2CS.c **** 
 126:.\Generated_Source\PSoC4/I2CS.c **** #endif /* (I2CS_SCB_MODE_UNCONFIG_CONST_CFG) */
 127:.\Generated_Source\PSoC4/I2CS.c **** }
  48              		.loc 1 127 0
  49 0008 BD46     		mov	sp, r7
  50              		@ sp needed
  51 000a 80BD     		pop	{r7, pc}
  52              		.cfi_endproc
  53              	.LFE2:
  54              		.size	I2CS_Init, .-I2CS_Init
  55              		.section	.text.I2CS_Enable,"ax",%progbits
  56              		.align	2
  57              		.global	I2CS_Enable
  58              		.code	16
  59              		.thumb_func
  60              		.type	I2CS_Enable, %function
  61              	I2CS_Enable:
  62              	.LFB3:
 128:.\Generated_Source\PSoC4/I2CS.c **** 
 129:.\Generated_Source\PSoC4/I2CS.c **** 
 130:.\Generated_Source\PSoC4/I2CS.c **** /*******************************************************************************
 131:.\Generated_Source\PSoC4/I2CS.c **** * Function Name: I2CS_Enable
 132:.\Generated_Source\PSoC4/I2CS.c **** ********************************************************************************
 133:.\Generated_Source\PSoC4/I2CS.c **** *
 134:.\Generated_Source\PSoC4/I2CS.c **** * Summary:
 135:.\Generated_Source\PSoC4/I2CS.c **** *  Enables the SCB component operation.
 136:.\Generated_Source\PSoC4/I2CS.c **** *  The SCB configuration should be not changed when the component is enabled.
 137:.\Generated_Source\PSoC4/I2CS.c **** *  Any configuration changes should be made after disabling the component.
 138:.\Generated_Source\PSoC4/I2CS.c **** *
 139:.\Generated_Source\PSoC4/I2CS.c **** * Parameters:
 140:.\Generated_Source\PSoC4/I2CS.c **** *  None
 141:.\Generated_Source\PSoC4/I2CS.c **** *
 142:.\Generated_Source\PSoC4/I2CS.c **** * Return:
 143:.\Generated_Source\PSoC4/I2CS.c **** *  None
 144:.\Generated_Source\PSoC4/I2CS.c **** *
 145:.\Generated_Source\PSoC4/I2CS.c **** *******************************************************************************/
 146:.\Generated_Source\PSoC4/I2CS.c **** void I2CS_Enable(void)
 147:.\Generated_Source\PSoC4/I2CS.c **** {
  63              		.loc 1 147 0
  64              		.cfi_startproc
  65 0000 80B5     		push	{r7, lr}
  66              		.cfi_def_cfa_offset 8
  67              		.cfi_offset 7, -8
  68              		.cfi_offset 14, -4
  69 0002 00AF     		add	r7, sp, #0
  70              		.cfi_def_cfa_register 7
 148:.\Generated_Source\PSoC4/I2CS.c **** #if (I2CS_SCB_MODE_UNCONFIG_CONST_CFG)
 149:.\Generated_Source\PSoC4/I2CS.c ****     /* Enable SCB block, only if it is already configured */
 150:.\Generated_Source\PSoC4/I2CS.c ****     if (!I2CS_SCB_MODE_UNCONFIG_RUNTM_CFG)
 151:.\Generated_Source\PSoC4/I2CS.c ****     {
 152:.\Generated_Source\PSoC4/I2CS.c ****         I2CS_CTRL_REG |= I2CS_CTRL_ENABLED;
 153:.\Generated_Source\PSoC4/I2CS.c **** 
 154:.\Generated_Source\PSoC4/I2CS.c ****         I2CS_ScbEnableIntr();
 155:.\Generated_Source\PSoC4/I2CS.c **** 
 156:.\Generated_Source\PSoC4/I2CS.c ****         /* Call PostEnable function specific to current operation mode */
 157:.\Generated_Source\PSoC4/I2CS.c ****         I2CS_ScbModePostEnable();
 158:.\Generated_Source\PSoC4/I2CS.c ****     }
ARM GAS  C:\Users\DELL\AppData\Local\Temp\cc1fUPMg.s 			page 5


 159:.\Generated_Source\PSoC4/I2CS.c **** #else
 160:.\Generated_Source\PSoC4/I2CS.c ****     I2CS_CTRL_REG |= I2CS_CTRL_ENABLED;
  71              		.loc 1 160 0
  72 0004 064B     		ldr	r3, .L3
  73 0006 064A     		ldr	r2, .L3
  74 0008 1268     		ldr	r2, [r2]
  75 000a 8021     		mov	r1, #128
  76 000c 0906     		lsl	r1, r1, #24
  77 000e 0A43     		orr	r2, r1
  78 0010 1A60     		str	r2, [r3]
 161:.\Generated_Source\PSoC4/I2CS.c **** 
 162:.\Generated_Source\PSoC4/I2CS.c ****     I2CS_ScbEnableIntr();
  79              		.loc 1 162 0
  80 0012 FFF7FEFF 		bl	I2CS_ScbEnableIntr
 163:.\Generated_Source\PSoC4/I2CS.c **** 
 164:.\Generated_Source\PSoC4/I2CS.c ****     /* Call PostEnable function specific to current operation mode */
 165:.\Generated_Source\PSoC4/I2CS.c ****     I2CS_ScbModePostEnable();
  81              		.loc 1 165 0
  82 0016 FFF7FEFF 		bl	I2CS_ScbModePostEnable
 166:.\Generated_Source\PSoC4/I2CS.c **** #endif /* (I2CS_SCB_MODE_UNCONFIG_CONST_CFG) */
 167:.\Generated_Source\PSoC4/I2CS.c **** }
  83              		.loc 1 167 0
  84 001a BD46     		mov	sp, r7
  85              		@ sp needed
  86 001c 80BD     		pop	{r7, pc}
  87              	.L4:
  88 001e C046     		.align	2
  89              	.L3:
  90 0020 00002540 		.word	1076166656
  91              		.cfi_endproc
  92              	.LFE3:
  93              		.size	I2CS_Enable, .-I2CS_Enable
  94              		.section	.text.I2CS_Start,"ax",%progbits
  95              		.align	2
  96              		.global	I2CS_Start
  97              		.code	16
  98              		.thumb_func
  99              		.type	I2CS_Start, %function
 100              	I2CS_Start:
 101              	.LFB4:
 168:.\Generated_Source\PSoC4/I2CS.c **** 
 169:.\Generated_Source\PSoC4/I2CS.c **** 
 170:.\Generated_Source\PSoC4/I2CS.c **** /*******************************************************************************
 171:.\Generated_Source\PSoC4/I2CS.c **** * Function Name: I2CS_Start
 172:.\Generated_Source\PSoC4/I2CS.c **** ********************************************************************************
 173:.\Generated_Source\PSoC4/I2CS.c **** *
 174:.\Generated_Source\PSoC4/I2CS.c **** * Summary:
 175:.\Generated_Source\PSoC4/I2CS.c **** *  Invokes SCB_Init() and SCB_Enable().
 176:.\Generated_Source\PSoC4/I2CS.c **** *  After this function call, the component is enabled and ready for operation.
 177:.\Generated_Source\PSoC4/I2CS.c **** *  When configuration is set to "Unconfigured SCB", the component must first be
 178:.\Generated_Source\PSoC4/I2CS.c **** *  initialized to operate in one of the following configurations: I2C, SPI, UART
 179:.\Generated_Source\PSoC4/I2CS.c **** *  or EZ I2C. Otherwise this function does not enable the component.
 180:.\Generated_Source\PSoC4/I2CS.c **** *
 181:.\Generated_Source\PSoC4/I2CS.c **** * Parameters:
 182:.\Generated_Source\PSoC4/I2CS.c **** *  None
 183:.\Generated_Source\PSoC4/I2CS.c **** *
 184:.\Generated_Source\PSoC4/I2CS.c **** * Return:
ARM GAS  C:\Users\DELL\AppData\Local\Temp\cc1fUPMg.s 			page 6


 185:.\Generated_Source\PSoC4/I2CS.c **** *  None
 186:.\Generated_Source\PSoC4/I2CS.c **** *
 187:.\Generated_Source\PSoC4/I2CS.c **** * Global variables:
 188:.\Generated_Source\PSoC4/I2CS.c **** *  I2CS_initVar - used to check initial configuration, modified
 189:.\Generated_Source\PSoC4/I2CS.c **** *  on first function call.
 190:.\Generated_Source\PSoC4/I2CS.c **** *
 191:.\Generated_Source\PSoC4/I2CS.c **** *******************************************************************************/
 192:.\Generated_Source\PSoC4/I2CS.c **** void I2CS_Start(void)
 193:.\Generated_Source\PSoC4/I2CS.c **** {
 102              		.loc 1 193 0
 103              		.cfi_startproc
 104 0000 80B5     		push	{r7, lr}
 105              		.cfi_def_cfa_offset 8
 106              		.cfi_offset 7, -8
 107              		.cfi_offset 14, -4
 108 0002 00AF     		add	r7, sp, #0
 109              		.cfi_def_cfa_register 7
 194:.\Generated_Source\PSoC4/I2CS.c ****     if (0u == I2CS_initVar)
 110              		.loc 1 194 0
 111 0004 064B     		ldr	r3, .L7
 112 0006 1B78     		ldrb	r3, [r3]
 113 0008 002B     		cmp	r3, #0
 114 000a 04D1     		bne	.L6
 195:.\Generated_Source\PSoC4/I2CS.c ****     {
 196:.\Generated_Source\PSoC4/I2CS.c ****         I2CS_Init();
 115              		.loc 1 196 0
 116 000c FFF7FEFF 		bl	I2CS_Init
 197:.\Generated_Source\PSoC4/I2CS.c ****         I2CS_initVar = 1u; /* Component was initialized */
 117              		.loc 1 197 0
 118 0010 034B     		ldr	r3, .L7
 119 0012 0122     		mov	r2, #1
 120 0014 1A70     		strb	r2, [r3]
 121              	.L6:
 198:.\Generated_Source\PSoC4/I2CS.c ****     }
 199:.\Generated_Source\PSoC4/I2CS.c **** 
 200:.\Generated_Source\PSoC4/I2CS.c ****     I2CS_Enable();
 122              		.loc 1 200 0
 123 0016 FFF7FEFF 		bl	I2CS_Enable
 201:.\Generated_Source\PSoC4/I2CS.c **** }
 124              		.loc 1 201 0
 125 001a BD46     		mov	sp, r7
 126              		@ sp needed
 127 001c 80BD     		pop	{r7, pc}
 128              	.L8:
 129 001e C046     		.align	2
 130              	.L7:
 131 0020 00000000 		.word	I2CS_initVar
 132              		.cfi_endproc
 133              	.LFE4:
 134              		.size	I2CS_Start, .-I2CS_Start
 135              		.section	.text.I2CS_Stop,"ax",%progbits
 136              		.align	2
 137              		.global	I2CS_Stop
 138              		.code	16
 139              		.thumb_func
 140              		.type	I2CS_Stop, %function
 141              	I2CS_Stop:
ARM GAS  C:\Users\DELL\AppData\Local\Temp\cc1fUPMg.s 			page 7


 142              	.LFB5:
 202:.\Generated_Source\PSoC4/I2CS.c **** 
 203:.\Generated_Source\PSoC4/I2CS.c **** 
 204:.\Generated_Source\PSoC4/I2CS.c **** /*******************************************************************************
 205:.\Generated_Source\PSoC4/I2CS.c **** * Function Name: I2CS_Stop
 206:.\Generated_Source\PSoC4/I2CS.c **** ********************************************************************************
 207:.\Generated_Source\PSoC4/I2CS.c **** *
 208:.\Generated_Source\PSoC4/I2CS.c **** * Summary:
 209:.\Generated_Source\PSoC4/I2CS.c **** *  Disables the SCB component and its interrupt.
 210:.\Generated_Source\PSoC4/I2CS.c **** *  It also disables all TX interrupt sources so as not to cause an unexpected
 211:.\Generated_Source\PSoC4/I2CS.c **** *  interrupt trigger because after the component is enabled, the TX FIFO 
 212:.\Generated_Source\PSoC4/I2CS.c **** *  is empty.
 213:.\Generated_Source\PSoC4/I2CS.c **** *
 214:.\Generated_Source\PSoC4/I2CS.c **** * Parameters:
 215:.\Generated_Source\PSoC4/I2CS.c **** *  None
 216:.\Generated_Source\PSoC4/I2CS.c **** *
 217:.\Generated_Source\PSoC4/I2CS.c **** * Return:
 218:.\Generated_Source\PSoC4/I2CS.c **** *  None
 219:.\Generated_Source\PSoC4/I2CS.c **** * 
 220:.\Generated_Source\PSoC4/I2CS.c **** *******************************************************************************/
 221:.\Generated_Source\PSoC4/I2CS.c **** void I2CS_Stop(void)
 222:.\Generated_Source\PSoC4/I2CS.c **** {
 143              		.loc 1 222 0
 144              		.cfi_startproc
 145 0000 80B5     		push	{r7, lr}
 146              		.cfi_def_cfa_offset 8
 147              		.cfi_offset 7, -8
 148              		.cfi_offset 14, -4
 149 0002 00AF     		add	r7, sp, #0
 150              		.cfi_def_cfa_register 7
 223:.\Generated_Source\PSoC4/I2CS.c **** #if (I2CS_SCB_IRQ_INTERNAL)
 224:.\Generated_Source\PSoC4/I2CS.c ****     I2CS_DisableInt();
 151              		.loc 1 224 0
 152 0004 0A20     		mov	r0, #10
 153 0006 FFF7FEFF 		bl	CyIntDisable
 225:.\Generated_Source\PSoC4/I2CS.c **** #endif /* (I2CS_SCB_IRQ_INTERNAL) */
 226:.\Generated_Source\PSoC4/I2CS.c **** 
 227:.\Generated_Source\PSoC4/I2CS.c ****     /* Call Stop function specific to current operation mode */
 228:.\Generated_Source\PSoC4/I2CS.c ****     I2CS_ScbModeStop();
 154              		.loc 1 228 0
 155 000a FFF7FEFF 		bl	I2CS_ScbModeStop
 229:.\Generated_Source\PSoC4/I2CS.c **** 
 230:.\Generated_Source\PSoC4/I2CS.c ****     /* Disable SCB IP */
 231:.\Generated_Source\PSoC4/I2CS.c ****     I2CS_CTRL_REG &= (uint32) ~I2CS_CTRL_ENABLED;
 156              		.loc 1 231 0
 157 000e 074B     		ldr	r3, .L10
 158 0010 064A     		ldr	r2, .L10
 159 0012 1268     		ldr	r2, [r2]
 160 0014 5200     		lsl	r2, r2, #1
 161 0016 5208     		lsr	r2, r2, #1
 162 0018 1A60     		str	r2, [r3]
 232:.\Generated_Source\PSoC4/I2CS.c **** 
 233:.\Generated_Source\PSoC4/I2CS.c ****     /* Disable all TX interrupt sources so as not to cause an unexpected
 234:.\Generated_Source\PSoC4/I2CS.c ****     * interrupt trigger because after the component is enabled, the TX FIFO
 235:.\Generated_Source\PSoC4/I2CS.c ****     * is empty.
 236:.\Generated_Source\PSoC4/I2CS.c ****     * For SCB IP v0, it is critical as it does not mask-out interrupt
 237:.\Generated_Source\PSoC4/I2CS.c ****     * sources when they are disabled. This can cause a code lock-up in the
ARM GAS  C:\Users\DELL\AppData\Local\Temp\cc1fUPMg.s 			page 8


 238:.\Generated_Source\PSoC4/I2CS.c ****     * interrupt handler because TX FIFO cannot be loaded after the block
 239:.\Generated_Source\PSoC4/I2CS.c ****     * is disabled.
 240:.\Generated_Source\PSoC4/I2CS.c ****     */
 241:.\Generated_Source\PSoC4/I2CS.c ****     I2CS_SetTxInterruptMode(I2CS_NO_INTR_SOURCES);
 163              		.loc 1 241 0
 164 001a 054B     		ldr	r3, .L10+4
 165 001c 0022     		mov	r2, #0
 166 001e 1A60     		str	r2, [r3]
 242:.\Generated_Source\PSoC4/I2CS.c **** 
 243:.\Generated_Source\PSoC4/I2CS.c **** #if (I2CS_SCB_IRQ_INTERNAL)
 244:.\Generated_Source\PSoC4/I2CS.c ****     I2CS_ClearPendingInt();
 167              		.loc 1 244 0
 168 0020 0A20     		mov	r0, #10
 169 0022 FFF7FEFF 		bl	CyIntClearPending
 245:.\Generated_Source\PSoC4/I2CS.c **** #endif /* (I2CS_SCB_IRQ_INTERNAL) */
 246:.\Generated_Source\PSoC4/I2CS.c **** }
 170              		.loc 1 246 0
 171 0026 BD46     		mov	sp, r7
 172              		@ sp needed
 173 0028 80BD     		pop	{r7, pc}
 174              	.L11:
 175 002a C046     		.align	2
 176              	.L10:
 177 002c 00002540 		.word	1076166656
 178 0030 880F2540 		.word	1076170632
 179              		.cfi_endproc
 180              	.LFE5:
 181              		.size	I2CS_Stop, .-I2CS_Stop
 182              		.section	.text.I2CS_SetRxFifoLevel,"ax",%progbits
 183              		.align	2
 184              		.global	I2CS_SetRxFifoLevel
 185              		.code	16
 186              		.thumb_func
 187              		.type	I2CS_SetRxFifoLevel, %function
 188              	I2CS_SetRxFifoLevel:
 189              	.LFB6:
 247:.\Generated_Source\PSoC4/I2CS.c **** 
 248:.\Generated_Source\PSoC4/I2CS.c **** 
 249:.\Generated_Source\PSoC4/I2CS.c **** /*******************************************************************************
 250:.\Generated_Source\PSoC4/I2CS.c **** * Function Name: I2CS_SetRxFifoLevel
 251:.\Generated_Source\PSoC4/I2CS.c **** ********************************************************************************
 252:.\Generated_Source\PSoC4/I2CS.c **** *
 253:.\Generated_Source\PSoC4/I2CS.c **** * Summary:
 254:.\Generated_Source\PSoC4/I2CS.c **** *  Sets level in the RX FIFO to generate a RX level interrupt.
 255:.\Generated_Source\PSoC4/I2CS.c **** *  When the RX FIFO has more entries than the RX FIFO level an RX level
 256:.\Generated_Source\PSoC4/I2CS.c **** *  interrupt request is generated.
 257:.\Generated_Source\PSoC4/I2CS.c **** *
 258:.\Generated_Source\PSoC4/I2CS.c **** * Parameters:
 259:.\Generated_Source\PSoC4/I2CS.c **** *  level: Level in the RX FIFO to generate RX level interrupt.
 260:.\Generated_Source\PSoC4/I2CS.c **** *         The range of valid level values is between 0 and RX FIFO depth - 1.
 261:.\Generated_Source\PSoC4/I2CS.c **** *
 262:.\Generated_Source\PSoC4/I2CS.c **** * Return:
 263:.\Generated_Source\PSoC4/I2CS.c **** *  None
 264:.\Generated_Source\PSoC4/I2CS.c **** *
 265:.\Generated_Source\PSoC4/I2CS.c **** *******************************************************************************/
 266:.\Generated_Source\PSoC4/I2CS.c **** void I2CS_SetRxFifoLevel(uint32 level)
 267:.\Generated_Source\PSoC4/I2CS.c **** {
ARM GAS  C:\Users\DELL\AppData\Local\Temp\cc1fUPMg.s 			page 9


 190              		.loc 1 267 0
 191              		.cfi_startproc
 192 0000 80B5     		push	{r7, lr}
 193              		.cfi_def_cfa_offset 8
 194              		.cfi_offset 7, -8
 195              		.cfi_offset 14, -4
 196 0002 84B0     		sub	sp, sp, #16
 197              		.cfi_def_cfa_offset 24
 198 0004 00AF     		add	r7, sp, #0
 199              		.cfi_def_cfa_register 7
 200 0006 7860     		str	r0, [r7, #4]
 268:.\Generated_Source\PSoC4/I2CS.c ****     uint32 rxFifoCtrl;
 269:.\Generated_Source\PSoC4/I2CS.c **** 
 270:.\Generated_Source\PSoC4/I2CS.c ****     rxFifoCtrl = I2CS_RX_FIFO_CTRL_REG;
 201              		.loc 1 270 0
 202 0008 094B     		ldr	r3, .L13
 203 000a 1B68     		ldr	r3, [r3]
 204 000c FB60     		str	r3, [r7, #12]
 271:.\Generated_Source\PSoC4/I2CS.c **** 
 272:.\Generated_Source\PSoC4/I2CS.c ****     rxFifoCtrl &= ((uint32) ~I2CS_RX_FIFO_CTRL_TRIGGER_LEVEL_MASK); /* Clear level mask bits */
 205              		.loc 1 272 0
 206 000e FB68     		ldr	r3, [r7, #12]
 207 0010 0F22     		mov	r2, #15
 208 0012 9343     		bic	r3, r2
 209 0014 FB60     		str	r3, [r7, #12]
 273:.\Generated_Source\PSoC4/I2CS.c ****     rxFifoCtrl |= ((uint32) (I2CS_RX_FIFO_CTRL_TRIGGER_LEVEL_MASK & level));
 210              		.loc 1 273 0
 211 0016 7B68     		ldr	r3, [r7, #4]
 212 0018 0F22     		mov	r2, #15
 213 001a 1340     		and	r3, r2
 214 001c FA68     		ldr	r2, [r7, #12]
 215 001e 1343     		orr	r3, r2
 216 0020 FB60     		str	r3, [r7, #12]
 274:.\Generated_Source\PSoC4/I2CS.c **** 
 275:.\Generated_Source\PSoC4/I2CS.c ****     I2CS_RX_FIFO_CTRL_REG = rxFifoCtrl;
 217              		.loc 1 275 0
 218 0022 034B     		ldr	r3, .L13
 219 0024 FA68     		ldr	r2, [r7, #12]
 220 0026 1A60     		str	r2, [r3]
 276:.\Generated_Source\PSoC4/I2CS.c **** }
 221              		.loc 1 276 0
 222 0028 BD46     		mov	sp, r7
 223 002a 04B0     		add	sp, sp, #16
 224              		@ sp needed
 225 002c 80BD     		pop	{r7, pc}
 226              	.L14:
 227 002e C046     		.align	2
 228              	.L13:
 229 0030 04032540 		.word	1076167428
 230              		.cfi_endproc
 231              	.LFE6:
 232              		.size	I2CS_SetRxFifoLevel, .-I2CS_SetRxFifoLevel
 233              		.section	.text.I2CS_SetTxFifoLevel,"ax",%progbits
 234              		.align	2
 235              		.global	I2CS_SetTxFifoLevel
 236              		.code	16
 237              		.thumb_func
ARM GAS  C:\Users\DELL\AppData\Local\Temp\cc1fUPMg.s 			page 10


 238              		.type	I2CS_SetTxFifoLevel, %function
 239              	I2CS_SetTxFifoLevel:
 240              	.LFB7:
 277:.\Generated_Source\PSoC4/I2CS.c **** 
 278:.\Generated_Source\PSoC4/I2CS.c **** 
 279:.\Generated_Source\PSoC4/I2CS.c **** /*******************************************************************************
 280:.\Generated_Source\PSoC4/I2CS.c **** * Function Name: I2CS_SetTxFifoLevel
 281:.\Generated_Source\PSoC4/I2CS.c **** ********************************************************************************
 282:.\Generated_Source\PSoC4/I2CS.c **** *
 283:.\Generated_Source\PSoC4/I2CS.c **** * Summary:
 284:.\Generated_Source\PSoC4/I2CS.c **** *  Sets level in the TX FIFO to generate a TX level interrupt.
 285:.\Generated_Source\PSoC4/I2CS.c **** *  When the TX FIFO has more entries than the TX FIFO level an TX level
 286:.\Generated_Source\PSoC4/I2CS.c **** *  interrupt request is generated.
 287:.\Generated_Source\PSoC4/I2CS.c **** *
 288:.\Generated_Source\PSoC4/I2CS.c **** * Parameters:
 289:.\Generated_Source\PSoC4/I2CS.c **** *  level: Level in the TX FIFO to generate TX level interrupt.
 290:.\Generated_Source\PSoC4/I2CS.c **** *         The range of valid level values is between 0 and TX FIFO depth - 1.
 291:.\Generated_Source\PSoC4/I2CS.c **** *
 292:.\Generated_Source\PSoC4/I2CS.c **** * Return:
 293:.\Generated_Source\PSoC4/I2CS.c **** *  None
 294:.\Generated_Source\PSoC4/I2CS.c **** *
 295:.\Generated_Source\PSoC4/I2CS.c **** *******************************************************************************/
 296:.\Generated_Source\PSoC4/I2CS.c **** void I2CS_SetTxFifoLevel(uint32 level)
 297:.\Generated_Source\PSoC4/I2CS.c **** {
 241              		.loc 1 297 0
 242              		.cfi_startproc
 243 0000 80B5     		push	{r7, lr}
 244              		.cfi_def_cfa_offset 8
 245              		.cfi_offset 7, -8
 246              		.cfi_offset 14, -4
 247 0002 84B0     		sub	sp, sp, #16
 248              		.cfi_def_cfa_offset 24
 249 0004 00AF     		add	r7, sp, #0
 250              		.cfi_def_cfa_register 7
 251 0006 7860     		str	r0, [r7, #4]
 298:.\Generated_Source\PSoC4/I2CS.c ****     uint32 txFifoCtrl;
 299:.\Generated_Source\PSoC4/I2CS.c **** 
 300:.\Generated_Source\PSoC4/I2CS.c ****     txFifoCtrl = I2CS_TX_FIFO_CTRL_REG;
 252              		.loc 1 300 0
 253 0008 094B     		ldr	r3, .L16
 254 000a 1B68     		ldr	r3, [r3]
 255 000c FB60     		str	r3, [r7, #12]
 301:.\Generated_Source\PSoC4/I2CS.c **** 
 302:.\Generated_Source\PSoC4/I2CS.c ****     txFifoCtrl &= ((uint32) ~I2CS_TX_FIFO_CTRL_TRIGGER_LEVEL_MASK); /* Clear level mask bits */
 256              		.loc 1 302 0
 257 000e FB68     		ldr	r3, [r7, #12]
 258 0010 0F22     		mov	r2, #15
 259 0012 9343     		bic	r3, r2
 260 0014 FB60     		str	r3, [r7, #12]
 303:.\Generated_Source\PSoC4/I2CS.c ****     txFifoCtrl |= ((uint32) (I2CS_TX_FIFO_CTRL_TRIGGER_LEVEL_MASK & level));
 261              		.loc 1 303 0
 262 0016 7B68     		ldr	r3, [r7, #4]
 263 0018 0F22     		mov	r2, #15
 264 001a 1340     		and	r3, r2
 265 001c FA68     		ldr	r2, [r7, #12]
 266 001e 1343     		orr	r3, r2
 267 0020 FB60     		str	r3, [r7, #12]
ARM GAS  C:\Users\DELL\AppData\Local\Temp\cc1fUPMg.s 			page 11


 304:.\Generated_Source\PSoC4/I2CS.c **** 
 305:.\Generated_Source\PSoC4/I2CS.c ****     I2CS_TX_FIFO_CTRL_REG = txFifoCtrl;
 268              		.loc 1 305 0
 269 0022 034B     		ldr	r3, .L16
 270 0024 FA68     		ldr	r2, [r7, #12]
 271 0026 1A60     		str	r2, [r3]
 306:.\Generated_Source\PSoC4/I2CS.c **** }
 272              		.loc 1 306 0
 273 0028 BD46     		mov	sp, r7
 274 002a 04B0     		add	sp, sp, #16
 275              		@ sp needed
 276 002c 80BD     		pop	{r7, pc}
 277              	.L17:
 278 002e C046     		.align	2
 279              	.L16:
 280 0030 04022540 		.word	1076167172
 281              		.cfi_endproc
 282              	.LFE7:
 283              		.size	I2CS_SetTxFifoLevel, .-I2CS_SetTxFifoLevel
 284              		.section	.text.I2CS_SetCustomInterruptHandler,"ax",%progbits
 285              		.align	2
 286              		.global	I2CS_SetCustomInterruptHandler
 287              		.code	16
 288              		.thumb_func
 289              		.type	I2CS_SetCustomInterruptHandler, %function
 290              	I2CS_SetCustomInterruptHandler:
 291              	.LFB8:
 307:.\Generated_Source\PSoC4/I2CS.c **** 
 308:.\Generated_Source\PSoC4/I2CS.c **** 
 309:.\Generated_Source\PSoC4/I2CS.c **** #if (I2CS_SCB_IRQ_INTERNAL)
 310:.\Generated_Source\PSoC4/I2CS.c ****     /*******************************************************************************
 311:.\Generated_Source\PSoC4/I2CS.c ****     * Function Name: I2CS_SetCustomInterruptHandler
 312:.\Generated_Source\PSoC4/I2CS.c ****     ********************************************************************************
 313:.\Generated_Source\PSoC4/I2CS.c ****     *
 314:.\Generated_Source\PSoC4/I2CS.c ****     * Summary:
 315:.\Generated_Source\PSoC4/I2CS.c ****     *  Registers a function to be called by the internal interrupt handler.
 316:.\Generated_Source\PSoC4/I2CS.c ****     *  First the function that is registered is called, then the internal interrupt
 317:.\Generated_Source\PSoC4/I2CS.c ****     *  handler performs any operation such as software buffer management functions
 318:.\Generated_Source\PSoC4/I2CS.c ****     *  before the interrupt returns.  It is the user's responsibility not to break
 319:.\Generated_Source\PSoC4/I2CS.c ****     *  the software buffer operations. Only one custom handler is supported, which
 320:.\Generated_Source\PSoC4/I2CS.c ****     *  is the function provided by the most recent call.
 321:.\Generated_Source\PSoC4/I2CS.c ****     *  At the initialization time no custom handler is registered.
 322:.\Generated_Source\PSoC4/I2CS.c ****     *
 323:.\Generated_Source\PSoC4/I2CS.c ****     * Parameters:
 324:.\Generated_Source\PSoC4/I2CS.c ****     *  func: Pointer to the function to register.
 325:.\Generated_Source\PSoC4/I2CS.c ****     *        The value NULL indicates to remove the current custom interrupt
 326:.\Generated_Source\PSoC4/I2CS.c ****     *        handler.
 327:.\Generated_Source\PSoC4/I2CS.c ****     *
 328:.\Generated_Source\PSoC4/I2CS.c ****     * Return:
 329:.\Generated_Source\PSoC4/I2CS.c ****     *  None
 330:.\Generated_Source\PSoC4/I2CS.c ****     *
 331:.\Generated_Source\PSoC4/I2CS.c ****     *******************************************************************************/
 332:.\Generated_Source\PSoC4/I2CS.c ****     void I2CS_SetCustomInterruptHandler(void (*func)(void))
 333:.\Generated_Source\PSoC4/I2CS.c ****     {
 292              		.loc 1 333 0
 293              		.cfi_startproc
 294 0000 80B5     		push	{r7, lr}
ARM GAS  C:\Users\DELL\AppData\Local\Temp\cc1fUPMg.s 			page 12


 295              		.cfi_def_cfa_offset 8
 296              		.cfi_offset 7, -8
 297              		.cfi_offset 14, -4
 298 0002 82B0     		sub	sp, sp, #8
 299              		.cfi_def_cfa_offset 16
 300 0004 00AF     		add	r7, sp, #0
 301              		.cfi_def_cfa_register 7
 302 0006 7860     		str	r0, [r7, #4]
 334:.\Generated_Source\PSoC4/I2CS.c ****     #if !defined (CY_REMOVE_I2CS_CUSTOM_INTR_HANDLER)
 335:.\Generated_Source\PSoC4/I2CS.c ****         I2CS_customIntrHandler = func; /* Register interrupt handler */
 303              		.loc 1 335 0
 304 0008 024B     		ldr	r3, .L19
 305 000a 7A68     		ldr	r2, [r7, #4]
 306 000c 1A60     		str	r2, [r3]
 336:.\Generated_Source\PSoC4/I2CS.c ****     #else
 337:.\Generated_Source\PSoC4/I2CS.c ****         if (NULL != func)
 338:.\Generated_Source\PSoC4/I2CS.c ****         {
 339:.\Generated_Source\PSoC4/I2CS.c ****             /* Suppress compiler warning */
 340:.\Generated_Source\PSoC4/I2CS.c ****         }
 341:.\Generated_Source\PSoC4/I2CS.c ****     #endif /* !defined (CY_REMOVE_I2CS_CUSTOM_INTR_HANDLER) */
 342:.\Generated_Source\PSoC4/I2CS.c ****     }
 307              		.loc 1 342 0
 308 000e BD46     		mov	sp, r7
 309 0010 02B0     		add	sp, sp, #8
 310              		@ sp needed
 311 0012 80BD     		pop	{r7, pc}
 312              	.L20:
 313              		.align	2
 314              	.L19:
 315 0014 00000000 		.word	I2CS_customIntrHandler
 316              		.cfi_endproc
 317              	.LFE8:
 318              		.size	I2CS_SetCustomInterruptHandler, .-I2CS_SetCustomInterruptHandler
 319              		.section	.text.I2CS_ScbEnableIntr,"ax",%progbits
 320              		.align	2
 321              		.code	16
 322              		.thumb_func
 323              		.type	I2CS_ScbEnableIntr, %function
 324              	I2CS_ScbEnableIntr:
 325              	.LFB9:
 343:.\Generated_Source\PSoC4/I2CS.c **** #endif /* (I2CS_SCB_IRQ_INTERNAL) */
 344:.\Generated_Source\PSoC4/I2CS.c **** 
 345:.\Generated_Source\PSoC4/I2CS.c **** 
 346:.\Generated_Source\PSoC4/I2CS.c **** /*******************************************************************************
 347:.\Generated_Source\PSoC4/I2CS.c **** * Function Name: I2CS_ScbModeEnableIntr
 348:.\Generated_Source\PSoC4/I2CS.c **** ********************************************************************************
 349:.\Generated_Source\PSoC4/I2CS.c **** *
 350:.\Generated_Source\PSoC4/I2CS.c **** * Summary:
 351:.\Generated_Source\PSoC4/I2CS.c **** *  Enables an interrupt for a specific mode.
 352:.\Generated_Source\PSoC4/I2CS.c **** *
 353:.\Generated_Source\PSoC4/I2CS.c **** * Parameters:
 354:.\Generated_Source\PSoC4/I2CS.c **** *  None
 355:.\Generated_Source\PSoC4/I2CS.c **** *
 356:.\Generated_Source\PSoC4/I2CS.c **** * Return:
 357:.\Generated_Source\PSoC4/I2CS.c **** *  None
 358:.\Generated_Source\PSoC4/I2CS.c **** *
 359:.\Generated_Source\PSoC4/I2CS.c **** *******************************************************************************/
ARM GAS  C:\Users\DELL\AppData\Local\Temp\cc1fUPMg.s 			page 13


 360:.\Generated_Source\PSoC4/I2CS.c **** static void I2CS_ScbEnableIntr(void)
 361:.\Generated_Source\PSoC4/I2CS.c **** {
 326              		.loc 1 361 0
 327              		.cfi_startproc
 328 0000 80B5     		push	{r7, lr}
 329              		.cfi_def_cfa_offset 8
 330              		.cfi_offset 7, -8
 331              		.cfi_offset 14, -4
 332 0002 00AF     		add	r7, sp, #0
 333              		.cfi_def_cfa_register 7
 362:.\Generated_Source\PSoC4/I2CS.c **** #if (I2CS_SCB_IRQ_INTERNAL)
 363:.\Generated_Source\PSoC4/I2CS.c ****     /* Enable interrupt in NVIC */
 364:.\Generated_Source\PSoC4/I2CS.c ****     #if (I2CS_SCB_MODE_UNCONFIG_CONST_CFG)
 365:.\Generated_Source\PSoC4/I2CS.c ****         if (0u != I2CS_scbEnableIntr)
 366:.\Generated_Source\PSoC4/I2CS.c ****         {
 367:.\Generated_Source\PSoC4/I2CS.c ****             I2CS_EnableInt();
 368:.\Generated_Source\PSoC4/I2CS.c ****         }
 369:.\Generated_Source\PSoC4/I2CS.c **** 
 370:.\Generated_Source\PSoC4/I2CS.c ****     #else
 371:.\Generated_Source\PSoC4/I2CS.c ****         I2CS_EnableInt();
 334              		.loc 1 371 0
 335 0004 0A20     		mov	r0, #10
 336 0006 FFF7FEFF 		bl	CyIntEnable
 372:.\Generated_Source\PSoC4/I2CS.c **** 
 373:.\Generated_Source\PSoC4/I2CS.c ****     #endif /* (I2CS_SCB_MODE_UNCONFIG_CONST_CFG) */
 374:.\Generated_Source\PSoC4/I2CS.c **** #endif /* (I2CS_SCB_IRQ_INTERNAL) */
 375:.\Generated_Source\PSoC4/I2CS.c **** }
 337              		.loc 1 375 0
 338 000a BD46     		mov	sp, r7
 339              		@ sp needed
 340 000c 80BD     		pop	{r7, pc}
 341              		.cfi_endproc
 342              	.LFE9:
 343              		.size	I2CS_ScbEnableIntr, .-I2CS_ScbEnableIntr
 344              		.section	.text.I2CS_ScbModePostEnable,"ax",%progbits
 345              		.align	2
 346              		.code	16
 347              		.thumb_func
 348              		.type	I2CS_ScbModePostEnable, %function
 349              	I2CS_ScbModePostEnable:
 350              	.LFB10:
 376:.\Generated_Source\PSoC4/I2CS.c **** 
 377:.\Generated_Source\PSoC4/I2CS.c **** 
 378:.\Generated_Source\PSoC4/I2CS.c **** /*******************************************************************************
 379:.\Generated_Source\PSoC4/I2CS.c **** * Function Name: I2CS_ScbModePostEnable
 380:.\Generated_Source\PSoC4/I2CS.c **** ********************************************************************************
 381:.\Generated_Source\PSoC4/I2CS.c **** *
 382:.\Generated_Source\PSoC4/I2CS.c **** * Summary:
 383:.\Generated_Source\PSoC4/I2CS.c **** *  Calls the PostEnable function for a specific operation mode.
 384:.\Generated_Source\PSoC4/I2CS.c **** *
 385:.\Generated_Source\PSoC4/I2CS.c **** * Parameters:
 386:.\Generated_Source\PSoC4/I2CS.c **** *  None
 387:.\Generated_Source\PSoC4/I2CS.c **** *
 388:.\Generated_Source\PSoC4/I2CS.c **** * Return:
 389:.\Generated_Source\PSoC4/I2CS.c **** *  None
 390:.\Generated_Source\PSoC4/I2CS.c **** *
 391:.\Generated_Source\PSoC4/I2CS.c **** *******************************************************************************/
ARM GAS  C:\Users\DELL\AppData\Local\Temp\cc1fUPMg.s 			page 14


 392:.\Generated_Source\PSoC4/I2CS.c **** static void I2CS_ScbModePostEnable(void)
 393:.\Generated_Source\PSoC4/I2CS.c **** {
 351              		.loc 1 393 0
 352              		.cfi_startproc
 353 0000 80B5     		push	{r7, lr}
 354              		.cfi_def_cfa_offset 8
 355              		.cfi_offset 7, -8
 356              		.cfi_offset 14, -4
 357 0002 00AF     		add	r7, sp, #0
 358              		.cfi_def_cfa_register 7
 394:.\Generated_Source\PSoC4/I2CS.c **** #if (I2CS_SCB_MODE_UNCONFIG_CONST_CFG)
 395:.\Generated_Source\PSoC4/I2CS.c **** #if (!I2CS_CY_SCBIP_V1)
 396:.\Generated_Source\PSoC4/I2CS.c ****     if (I2CS_SCB_MODE_SPI_RUNTM_CFG)
 397:.\Generated_Source\PSoC4/I2CS.c ****     {
 398:.\Generated_Source\PSoC4/I2CS.c ****         I2CS_SpiPostEnable();
 399:.\Generated_Source\PSoC4/I2CS.c ****     }
 400:.\Generated_Source\PSoC4/I2CS.c ****     else if (I2CS_SCB_MODE_UART_RUNTM_CFG)
 401:.\Generated_Source\PSoC4/I2CS.c ****     {
 402:.\Generated_Source\PSoC4/I2CS.c ****         I2CS_UartPostEnable();
 403:.\Generated_Source\PSoC4/I2CS.c ****     }
 404:.\Generated_Source\PSoC4/I2CS.c ****     else
 405:.\Generated_Source\PSoC4/I2CS.c ****     {
 406:.\Generated_Source\PSoC4/I2CS.c ****         /* Unknown mode: do nothing */
 407:.\Generated_Source\PSoC4/I2CS.c ****     }
 408:.\Generated_Source\PSoC4/I2CS.c **** #endif /* (!I2CS_CY_SCBIP_V1) */
 409:.\Generated_Source\PSoC4/I2CS.c **** 
 410:.\Generated_Source\PSoC4/I2CS.c **** #elif (I2CS_SCB_MODE_SPI_CONST_CFG)
 411:.\Generated_Source\PSoC4/I2CS.c ****     I2CS_SpiPostEnable();
 412:.\Generated_Source\PSoC4/I2CS.c **** 
 413:.\Generated_Source\PSoC4/I2CS.c **** #elif (I2CS_SCB_MODE_UART_CONST_CFG)
 414:.\Generated_Source\PSoC4/I2CS.c ****     I2CS_UartPostEnable();
 415:.\Generated_Source\PSoC4/I2CS.c **** 
 416:.\Generated_Source\PSoC4/I2CS.c **** #else
 417:.\Generated_Source\PSoC4/I2CS.c ****     /* Unknown mode: do nothing */
 418:.\Generated_Source\PSoC4/I2CS.c **** #endif /* (I2CS_SCB_MODE_UNCONFIG_CONST_CFG) */
 419:.\Generated_Source\PSoC4/I2CS.c **** }
 359              		.loc 1 419 0
 360 0004 BD46     		mov	sp, r7
 361              		@ sp needed
 362 0006 80BD     		pop	{r7, pc}
 363              		.cfi_endproc
 364              	.LFE10:
 365              		.size	I2CS_ScbModePostEnable, .-I2CS_ScbModePostEnable
 366              		.section	.text.I2CS_ScbModeStop,"ax",%progbits
 367              		.align	2
 368              		.code	16
 369              		.thumb_func
 370              		.type	I2CS_ScbModeStop, %function
 371              	I2CS_ScbModeStop:
 372              	.LFB11:
 420:.\Generated_Source\PSoC4/I2CS.c **** 
 421:.\Generated_Source\PSoC4/I2CS.c **** 
 422:.\Generated_Source\PSoC4/I2CS.c **** /*******************************************************************************
 423:.\Generated_Source\PSoC4/I2CS.c **** * Function Name: I2CS_ScbModeStop
 424:.\Generated_Source\PSoC4/I2CS.c **** ********************************************************************************
 425:.\Generated_Source\PSoC4/I2CS.c **** *
 426:.\Generated_Source\PSoC4/I2CS.c **** * Summary:
ARM GAS  C:\Users\DELL\AppData\Local\Temp\cc1fUPMg.s 			page 15


 427:.\Generated_Source\PSoC4/I2CS.c **** *  Calls the Stop function for a specific operation mode.
 428:.\Generated_Source\PSoC4/I2CS.c **** *
 429:.\Generated_Source\PSoC4/I2CS.c **** * Parameters:
 430:.\Generated_Source\PSoC4/I2CS.c **** *  None
 431:.\Generated_Source\PSoC4/I2CS.c **** *
 432:.\Generated_Source\PSoC4/I2CS.c **** * Return:
 433:.\Generated_Source\PSoC4/I2CS.c **** *  None
 434:.\Generated_Source\PSoC4/I2CS.c **** *
 435:.\Generated_Source\PSoC4/I2CS.c **** *******************************************************************************/
 436:.\Generated_Source\PSoC4/I2CS.c **** static void I2CS_ScbModeStop(void)
 437:.\Generated_Source\PSoC4/I2CS.c **** {
 373              		.loc 1 437 0
 374              		.cfi_startproc
 375 0000 80B5     		push	{r7, lr}
 376              		.cfi_def_cfa_offset 8
 377              		.cfi_offset 7, -8
 378              		.cfi_offset 14, -4
 379 0002 00AF     		add	r7, sp, #0
 380              		.cfi_def_cfa_register 7
 438:.\Generated_Source\PSoC4/I2CS.c **** #if (I2CS_SCB_MODE_UNCONFIG_CONST_CFG)
 439:.\Generated_Source\PSoC4/I2CS.c ****     if (I2CS_SCB_MODE_I2C_RUNTM_CFG)
 440:.\Generated_Source\PSoC4/I2CS.c ****     {
 441:.\Generated_Source\PSoC4/I2CS.c ****         I2CS_I2CStop();
 442:.\Generated_Source\PSoC4/I2CS.c ****     }
 443:.\Generated_Source\PSoC4/I2CS.c ****     else if (I2CS_SCB_MODE_EZI2C_RUNTM_CFG)
 444:.\Generated_Source\PSoC4/I2CS.c ****     {
 445:.\Generated_Source\PSoC4/I2CS.c ****         I2CS_EzI2CStop();
 446:.\Generated_Source\PSoC4/I2CS.c ****     }
 447:.\Generated_Source\PSoC4/I2CS.c **** #if (!I2CS_CY_SCBIP_V1)
 448:.\Generated_Source\PSoC4/I2CS.c ****     else if (I2CS_SCB_MODE_SPI_RUNTM_CFG)
 449:.\Generated_Source\PSoC4/I2CS.c ****     {
 450:.\Generated_Source\PSoC4/I2CS.c ****         I2CS_SpiStop();
 451:.\Generated_Source\PSoC4/I2CS.c ****     }
 452:.\Generated_Source\PSoC4/I2CS.c ****     else if (I2CS_SCB_MODE_UART_RUNTM_CFG)
 453:.\Generated_Source\PSoC4/I2CS.c ****     {
 454:.\Generated_Source\PSoC4/I2CS.c ****         I2CS_UartStop();
 455:.\Generated_Source\PSoC4/I2CS.c ****     }
 456:.\Generated_Source\PSoC4/I2CS.c **** #endif /* (!I2CS_CY_SCBIP_V1) */
 457:.\Generated_Source\PSoC4/I2CS.c ****     else
 458:.\Generated_Source\PSoC4/I2CS.c ****     {
 459:.\Generated_Source\PSoC4/I2CS.c ****         /* Unknown mode: do nothing */
 460:.\Generated_Source\PSoC4/I2CS.c ****     }
 461:.\Generated_Source\PSoC4/I2CS.c **** #elif (I2CS_SCB_MODE_I2C_CONST_CFG)
 462:.\Generated_Source\PSoC4/I2CS.c ****     I2CS_I2CStop();
 381              		.loc 1 462 0
 382 0004 FFF7FEFF 		bl	I2CS_I2CStop
 463:.\Generated_Source\PSoC4/I2CS.c **** 
 464:.\Generated_Source\PSoC4/I2CS.c **** #elif (I2CS_SCB_MODE_EZI2C_CONST_CFG)
 465:.\Generated_Source\PSoC4/I2CS.c ****     I2CS_EzI2CStop();
 466:.\Generated_Source\PSoC4/I2CS.c **** 
 467:.\Generated_Source\PSoC4/I2CS.c **** #elif (I2CS_SCB_MODE_SPI_CONST_CFG)
 468:.\Generated_Source\PSoC4/I2CS.c ****     I2CS_SpiStop();
 469:.\Generated_Source\PSoC4/I2CS.c **** 
 470:.\Generated_Source\PSoC4/I2CS.c **** #elif (I2CS_SCB_MODE_UART_CONST_CFG)
 471:.\Generated_Source\PSoC4/I2CS.c ****     I2CS_UartStop();
 472:.\Generated_Source\PSoC4/I2CS.c **** 
 473:.\Generated_Source\PSoC4/I2CS.c **** #else
ARM GAS  C:\Users\DELL\AppData\Local\Temp\cc1fUPMg.s 			page 16


 474:.\Generated_Source\PSoC4/I2CS.c ****     /* Unknown mode: do nothing */
 475:.\Generated_Source\PSoC4/I2CS.c **** #endif /* (I2CS_SCB_MODE_UNCONFIG_CONST_CFG) */
 476:.\Generated_Source\PSoC4/I2CS.c **** }
 383              		.loc 1 476 0
 384 0008 BD46     		mov	sp, r7
 385              		@ sp needed
 386 000a 80BD     		pop	{r7, pc}
 387              		.cfi_endproc
 388              	.LFE11:
 389              		.size	I2CS_ScbModeStop, .-I2CS_ScbModeStop
 390              		.text
 391              	.Letext0:
 392              		.file 2 "Generated_Source\\PSoC4/cytypes.h"
