ARM GAS  C:\Users\DELL\AppData\Local\Temp\ccJsgsgQ.s 			page 1


   1              		.cpu cortex-m0
   2              		.fpu softvfp
   3              		.eabi_attribute 20, 1
   4              		.eabi_attribute 21, 1
   5              		.eabi_attribute 23, 3
   6              		.eabi_attribute 24, 1
   7              		.eabi_attribute 25, 1
   8              		.eabi_attribute 26, 1
   9              		.eabi_attribute 30, 6
  10              		.eabi_attribute 34, 0
  11              		.eabi_attribute 18, 4
  12              		.code	16
  13              		.file	"LED_GREEN.c"
  14              		.text
  15              	.Ltext0:
  16              		.cfi_sections	.debug_frame
  17              		.section	.text.LED_GREEN_SetDriveMode,"ax",%progbits
  18              		.align	2
  19              		.global	LED_GREEN_SetDriveMode
  20              		.code	16
  21              		.thumb_func
  22              		.type	LED_GREEN_SetDriveMode, %function
  23              	LED_GREEN_SetDriveMode:
  24              	.LFB0:
  25              		.file 1 ".\\Generated_Source\\PSoC4\\LED_GREEN.c"
   1:.\Generated_Source\PSoC4/LED_GREEN.c **** /*******************************************************************************
   2:.\Generated_Source\PSoC4/LED_GREEN.c **** * File Name: LED_GREEN.c  
   3:.\Generated_Source\PSoC4/LED_GREEN.c **** * Version 2.20
   4:.\Generated_Source\PSoC4/LED_GREEN.c **** *
   5:.\Generated_Source\PSoC4/LED_GREEN.c **** * Description:
   6:.\Generated_Source\PSoC4/LED_GREEN.c **** *  This file contains API to enable firmware control of a Pins component.
   7:.\Generated_Source\PSoC4/LED_GREEN.c **** *
   8:.\Generated_Source\PSoC4/LED_GREEN.c **** ********************************************************************************
   9:.\Generated_Source\PSoC4/LED_GREEN.c **** * Copyright 2008-2015, Cypress Semiconductor Corporation.  All rights reserved.
  10:.\Generated_Source\PSoC4/LED_GREEN.c **** * You may use this file only in accordance with the license, terms, conditions, 
  11:.\Generated_Source\PSoC4/LED_GREEN.c **** * disclaimers, and limitations in the end user license agreement accompanying 
  12:.\Generated_Source\PSoC4/LED_GREEN.c **** * the software package with which this file was provided.
  13:.\Generated_Source\PSoC4/LED_GREEN.c **** *******************************************************************************/
  14:.\Generated_Source\PSoC4/LED_GREEN.c **** 
  15:.\Generated_Source\PSoC4/LED_GREEN.c **** #include "cytypes.h"
  16:.\Generated_Source\PSoC4/LED_GREEN.c **** #include "LED_GREEN.h"
  17:.\Generated_Source\PSoC4/LED_GREEN.c **** 
  18:.\Generated_Source\PSoC4/LED_GREEN.c **** 
  19:.\Generated_Source\PSoC4/LED_GREEN.c **** #if defined(LED_GREEN__PC)
  20:.\Generated_Source\PSoC4/LED_GREEN.c ****     #define LED_GREEN_SetP4PinDriveMode(shift, mode)  \
  21:.\Generated_Source\PSoC4/LED_GREEN.c ****     do { \
  22:.\Generated_Source\PSoC4/LED_GREEN.c ****         LED_GREEN_PC =   (LED_GREEN_PC & \
  23:.\Generated_Source\PSoC4/LED_GREEN.c ****                                 (uint32)(~(uint32)(LED_GREEN_DRIVE_MODE_IND_MASK << \
  24:.\Generated_Source\PSoC4/LED_GREEN.c ****                                 (LED_GREEN_DRIVE_MODE_BITS * (shift))))) | \
  25:.\Generated_Source\PSoC4/LED_GREEN.c ****                                 (uint32)((uint32)(mode) << \
  26:.\Generated_Source\PSoC4/LED_GREEN.c ****                                 (LED_GREEN_DRIVE_MODE_BITS * (shift))); \
  27:.\Generated_Source\PSoC4/LED_GREEN.c ****     } while (0)
  28:.\Generated_Source\PSoC4/LED_GREEN.c **** #else
  29:.\Generated_Source\PSoC4/LED_GREEN.c ****     #if (CY_PSOC4_4200L)
  30:.\Generated_Source\PSoC4/LED_GREEN.c ****         #define LED_GREEN_SetP4PinDriveMode(shift, mode)  \
  31:.\Generated_Source\PSoC4/LED_GREEN.c ****         do { \
  32:.\Generated_Source\PSoC4/LED_GREEN.c ****             LED_GREEN_USBIO_CTRL_REG = (LED_GREEN_USBIO_CTRL_REG & \
ARM GAS  C:\Users\DELL\AppData\Local\Temp\ccJsgsgQ.s 			page 2


  33:.\Generated_Source\PSoC4/LED_GREEN.c ****                                     (uint32)(~(uint32)(LED_GREEN_DRIVE_MODE_IND_MASK << \
  34:.\Generated_Source\PSoC4/LED_GREEN.c ****                                     (LED_GREEN_DRIVE_MODE_BITS * (shift))))) | \
  35:.\Generated_Source\PSoC4/LED_GREEN.c ****                                     (uint32)((uint32)(mode) << \
  36:.\Generated_Source\PSoC4/LED_GREEN.c ****                                     (LED_GREEN_DRIVE_MODE_BITS * (shift))); \
  37:.\Generated_Source\PSoC4/LED_GREEN.c ****         } while (0)
  38:.\Generated_Source\PSoC4/LED_GREEN.c ****     #endif
  39:.\Generated_Source\PSoC4/LED_GREEN.c **** #endif
  40:.\Generated_Source\PSoC4/LED_GREEN.c ****   
  41:.\Generated_Source\PSoC4/LED_GREEN.c **** 
  42:.\Generated_Source\PSoC4/LED_GREEN.c **** #if defined(LED_GREEN__PC) || (CY_PSOC4_4200L) 
  43:.\Generated_Source\PSoC4/LED_GREEN.c ****     /*******************************************************************************
  44:.\Generated_Source\PSoC4/LED_GREEN.c ****     * Function Name: LED_GREEN_SetDriveMode
  45:.\Generated_Source\PSoC4/LED_GREEN.c ****     ****************************************************************************//**
  46:.\Generated_Source\PSoC4/LED_GREEN.c ****     *
  47:.\Generated_Source\PSoC4/LED_GREEN.c ****     * \brief Sets the drive mode for each of the Pins component's pins.
  48:.\Generated_Source\PSoC4/LED_GREEN.c ****     * 
  49:.\Generated_Source\PSoC4/LED_GREEN.c ****     * <b>Note</b> This affects all pins in the Pins component instance. Use the
  50:.\Generated_Source\PSoC4/LED_GREEN.c ****     * Per-Pin APIs if you wish to control individual pin's drive modes.
  51:.\Generated_Source\PSoC4/LED_GREEN.c ****     *
  52:.\Generated_Source\PSoC4/LED_GREEN.c ****     * <b>Note</b> USBIOs have limited drive functionality. Refer to the Drive Mode
  53:.\Generated_Source\PSoC4/LED_GREEN.c ****     * parameter for more information.
  54:.\Generated_Source\PSoC4/LED_GREEN.c ****     *
  55:.\Generated_Source\PSoC4/LED_GREEN.c ****     * \param mode
  56:.\Generated_Source\PSoC4/LED_GREEN.c ****     *  Mode for the selected signals. Valid options are documented in 
  57:.\Generated_Source\PSoC4/LED_GREEN.c ****     *  \ref driveMode.
  58:.\Generated_Source\PSoC4/LED_GREEN.c ****     *
  59:.\Generated_Source\PSoC4/LED_GREEN.c ****     * \return
  60:.\Generated_Source\PSoC4/LED_GREEN.c ****     *  None
  61:.\Generated_Source\PSoC4/LED_GREEN.c ****     *
  62:.\Generated_Source\PSoC4/LED_GREEN.c ****     * \sideeffect
  63:.\Generated_Source\PSoC4/LED_GREEN.c ****     *  If you use read-modify-write operations that are not atomic, the ISR can
  64:.\Generated_Source\PSoC4/LED_GREEN.c ****     *  cause corruption of this function. An ISR that interrupts this function 
  65:.\Generated_Source\PSoC4/LED_GREEN.c ****     *  and performs writes to the Pins component Drive Mode registers can cause 
  66:.\Generated_Source\PSoC4/LED_GREEN.c ****     *  corrupted port data. To avoid this issue, you should either use the Per-Pin
  67:.\Generated_Source\PSoC4/LED_GREEN.c ****     *  APIs (primary method) or disable interrupts around this function.
  68:.\Generated_Source\PSoC4/LED_GREEN.c ****     *
  69:.\Generated_Source\PSoC4/LED_GREEN.c ****     * \funcusage
  70:.\Generated_Source\PSoC4/LED_GREEN.c ****     *  \snippet LED_GREEN_SUT.c usage_LED_GREEN_SetDriveMode
  71:.\Generated_Source\PSoC4/LED_GREEN.c ****     *******************************************************************************/
  72:.\Generated_Source\PSoC4/LED_GREEN.c ****     void LED_GREEN_SetDriveMode(uint8 mode)
  73:.\Generated_Source\PSoC4/LED_GREEN.c ****     {
  26              		.loc 1 73 0
  27              		.cfi_startproc
  28 0000 80B5     		push	{r7, lr}
  29              		.cfi_def_cfa_offset 8
  30              		.cfi_offset 7, -8
  31              		.cfi_offset 14, -4
  32 0002 82B0     		sub	sp, sp, #8
  33              		.cfi_def_cfa_offset 16
  34 0004 00AF     		add	r7, sp, #0
  35              		.cfi_def_cfa_register 7
  36 0006 021C     		mov	r2, r0
  37 0008 FB1D     		add	r3, r7, #7
  38 000a 1A70     		strb	r2, [r3]
  74:.\Generated_Source\PSoC4/LED_GREEN.c **** 		LED_GREEN_SetP4PinDriveMode(LED_GREEN__0__SHIFT, mode);
  39              		.loc 1 74 0
  40 000c 064B     		ldr	r3, .L2
ARM GAS  C:\Users\DELL\AppData\Local\Temp\ccJsgsgQ.s 			page 3


  41 000e 064A     		ldr	r2, .L2
  42 0010 1268     		ldr	r2, [r2]
  43 0012 0649     		ldr	r1, .L2+4
  44 0014 1140     		and	r1, r2
  45 0016 FA1D     		add	r2, r7, #7
  46 0018 1278     		ldrb	r2, [r2]
  47 001a 9204     		lsl	r2, r2, #18
  48 001c 0A43     		orr	r2, r1
  49 001e 1A60     		str	r2, [r3]
  75:.\Generated_Source\PSoC4/LED_GREEN.c ****     }
  50              		.loc 1 75 0
  51 0020 BD46     		mov	sp, r7
  52 0022 02B0     		add	sp, sp, #8
  53              		@ sp needed
  54 0024 80BD     		pop	{r7, pc}
  55              	.L3:
  56 0026 C046     		.align	2
  57              	.L2:
  58 0028 08030440 		.word	1074004744
  59 002c FFFFE3FF 		.word	-1835009
  60              		.cfi_endproc
  61              	.LFE0:
  62              		.size	LED_GREEN_SetDriveMode, .-LED_GREEN_SetDriveMode
  63              		.section	.text.LED_GREEN_Write,"ax",%progbits
  64              		.align	2
  65              		.global	LED_GREEN_Write
  66              		.code	16
  67              		.thumb_func
  68              		.type	LED_GREEN_Write, %function
  69              	LED_GREEN_Write:
  70              	.LFB1:
  76:.\Generated_Source\PSoC4/LED_GREEN.c **** #endif
  77:.\Generated_Source\PSoC4/LED_GREEN.c **** 
  78:.\Generated_Source\PSoC4/LED_GREEN.c **** 
  79:.\Generated_Source\PSoC4/LED_GREEN.c **** /*******************************************************************************
  80:.\Generated_Source\PSoC4/LED_GREEN.c **** * Function Name: LED_GREEN_Write
  81:.\Generated_Source\PSoC4/LED_GREEN.c **** ****************************************************************************//**
  82:.\Generated_Source\PSoC4/LED_GREEN.c **** *
  83:.\Generated_Source\PSoC4/LED_GREEN.c **** * \brief Writes the value to the physical port (data output register), masking
  84:.\Generated_Source\PSoC4/LED_GREEN.c **** *  and shifting the bits appropriately. 
  85:.\Generated_Source\PSoC4/LED_GREEN.c **** *
  86:.\Generated_Source\PSoC4/LED_GREEN.c **** * The data output register controls the signal applied to the physical pin in 
  87:.\Generated_Source\PSoC4/LED_GREEN.c **** * conjunction with the drive mode parameter. This function avoids changing 
  88:.\Generated_Source\PSoC4/LED_GREEN.c **** * other bits in the port by using the appropriate method (read-modify-write or
  89:.\Generated_Source\PSoC4/LED_GREEN.c **** * bit banding).
  90:.\Generated_Source\PSoC4/LED_GREEN.c **** *
  91:.\Generated_Source\PSoC4/LED_GREEN.c **** * <b>Note</b> This function should not be used on a hardware digital output pin 
  92:.\Generated_Source\PSoC4/LED_GREEN.c **** * as it is driven by the hardware signal attached to it.
  93:.\Generated_Source\PSoC4/LED_GREEN.c **** *
  94:.\Generated_Source\PSoC4/LED_GREEN.c **** * \param value
  95:.\Generated_Source\PSoC4/LED_GREEN.c **** *  Value to write to the component instance.
  96:.\Generated_Source\PSoC4/LED_GREEN.c **** *
  97:.\Generated_Source\PSoC4/LED_GREEN.c **** * \return 
  98:.\Generated_Source\PSoC4/LED_GREEN.c **** *  None 
  99:.\Generated_Source\PSoC4/LED_GREEN.c **** *
 100:.\Generated_Source\PSoC4/LED_GREEN.c **** * \sideeffect
 101:.\Generated_Source\PSoC4/LED_GREEN.c **** *  If you use read-modify-write operations that are not atomic; the Interrupt 
ARM GAS  C:\Users\DELL\AppData\Local\Temp\ccJsgsgQ.s 			page 4


 102:.\Generated_Source\PSoC4/LED_GREEN.c **** *  Service Routines (ISR) can cause corruption of this function. An ISR that 
 103:.\Generated_Source\PSoC4/LED_GREEN.c **** *  interrupts this function and performs writes to the Pins component data 
 104:.\Generated_Source\PSoC4/LED_GREEN.c **** *  register can cause corrupted port data. To avoid this issue, you should 
 105:.\Generated_Source\PSoC4/LED_GREEN.c **** *  either use the Per-Pin APIs (primary method) or disable interrupts around 
 106:.\Generated_Source\PSoC4/LED_GREEN.c **** *  this function.
 107:.\Generated_Source\PSoC4/LED_GREEN.c **** *
 108:.\Generated_Source\PSoC4/LED_GREEN.c **** * \funcusage
 109:.\Generated_Source\PSoC4/LED_GREEN.c **** *  \snippet LED_GREEN_SUT.c usage_LED_GREEN_Write
 110:.\Generated_Source\PSoC4/LED_GREEN.c **** *******************************************************************************/
 111:.\Generated_Source\PSoC4/LED_GREEN.c **** void LED_GREEN_Write(uint8 value)
 112:.\Generated_Source\PSoC4/LED_GREEN.c **** {
  71              		.loc 1 112 0
  72              		.cfi_startproc
  73 0000 80B5     		push	{r7, lr}
  74              		.cfi_def_cfa_offset 8
  75              		.cfi_offset 7, -8
  76              		.cfi_offset 14, -4
  77 0002 84B0     		sub	sp, sp, #16
  78              		.cfi_def_cfa_offset 24
  79 0004 00AF     		add	r7, sp, #0
  80              		.cfi_def_cfa_register 7
  81 0006 021C     		mov	r2, r0
  82 0008 FB1D     		add	r3, r7, #7
  83 000a 1A70     		strb	r2, [r3]
 113:.\Generated_Source\PSoC4/LED_GREEN.c ****     uint8 drVal = (uint8)(LED_GREEN_DR & (uint8)(~LED_GREEN_MASK));
  84              		.loc 1 113 0
  85 000c 0E4B     		ldr	r3, .L5
  86 000e 1B68     		ldr	r3, [r3]
  87 0010 DAB2     		uxtb	r2, r3
  88 0012 0F23     		mov	r3, #15
  89 0014 FB18     		add	r3, r7, r3
  90 0016 4021     		mov	r1, #64
  91 0018 8A43     		bic	r2, r1
  92 001a 1A70     		strb	r2, [r3]
 114:.\Generated_Source\PSoC4/LED_GREEN.c ****     drVal = (drVal | ((uint8)(value << LED_GREEN_SHIFT) & LED_GREEN_MASK));
  93              		.loc 1 114 0
  94 001c FB1D     		add	r3, r7, #7
  95 001e 1B78     		ldrb	r3, [r3]
  96 0020 9B01     		lsl	r3, r3, #6
  97 0022 DBB2     		uxtb	r3, r3
  98 0024 4022     		mov	r2, #64
  99 0026 1340     		and	r3, r2
 100 0028 D9B2     		uxtb	r1, r3
 101 002a 0F23     		mov	r3, #15
 102 002c FB18     		add	r3, r7, r3
 103 002e 0F22     		mov	r2, #15
 104 0030 BA18     		add	r2, r7, r2
 105 0032 1278     		ldrb	r2, [r2]
 106 0034 0A43     		orr	r2, r1
 107 0036 1A70     		strb	r2, [r3]
 115:.\Generated_Source\PSoC4/LED_GREEN.c ****     LED_GREEN_DR = (uint32)drVal;
 108              		.loc 1 115 0
 109 0038 034B     		ldr	r3, .L5
 110 003a 0F22     		mov	r2, #15
 111 003c BA18     		add	r2, r7, r2
 112 003e 1278     		ldrb	r2, [r2]
 113 0040 1A60     		str	r2, [r3]
ARM GAS  C:\Users\DELL\AppData\Local\Temp\ccJsgsgQ.s 			page 5


 116:.\Generated_Source\PSoC4/LED_GREEN.c **** }
 114              		.loc 1 116 0
 115 0042 BD46     		mov	sp, r7
 116 0044 04B0     		add	sp, sp, #16
 117              		@ sp needed
 118 0046 80BD     		pop	{r7, pc}
 119              	.L6:
 120              		.align	2
 121              	.L5:
 122 0048 00030440 		.word	1074004736
 123              		.cfi_endproc
 124              	.LFE1:
 125              		.size	LED_GREEN_Write, .-LED_GREEN_Write
 126              		.section	.text.LED_GREEN_Read,"ax",%progbits
 127              		.align	2
 128              		.global	LED_GREEN_Read
 129              		.code	16
 130              		.thumb_func
 131              		.type	LED_GREEN_Read, %function
 132              	LED_GREEN_Read:
 133              	.LFB2:
 117:.\Generated_Source\PSoC4/LED_GREEN.c **** 
 118:.\Generated_Source\PSoC4/LED_GREEN.c **** 
 119:.\Generated_Source\PSoC4/LED_GREEN.c **** /*******************************************************************************
 120:.\Generated_Source\PSoC4/LED_GREEN.c **** * Function Name: LED_GREEN_Read
 121:.\Generated_Source\PSoC4/LED_GREEN.c **** ****************************************************************************//**
 122:.\Generated_Source\PSoC4/LED_GREEN.c **** *
 123:.\Generated_Source\PSoC4/LED_GREEN.c **** * \brief Reads the associated physical port (pin status register) and masks 
 124:.\Generated_Source\PSoC4/LED_GREEN.c **** *  the required bits according to the width and bit position of the component
 125:.\Generated_Source\PSoC4/LED_GREEN.c **** *  instance. 
 126:.\Generated_Source\PSoC4/LED_GREEN.c **** *
 127:.\Generated_Source\PSoC4/LED_GREEN.c **** * The pin's status register returns the current logic level present on the 
 128:.\Generated_Source\PSoC4/LED_GREEN.c **** * physical pin.
 129:.\Generated_Source\PSoC4/LED_GREEN.c **** *
 130:.\Generated_Source\PSoC4/LED_GREEN.c **** * \return 
 131:.\Generated_Source\PSoC4/LED_GREEN.c **** *  The current value for the pins in the component as a right justified number.
 132:.\Generated_Source\PSoC4/LED_GREEN.c **** *
 133:.\Generated_Source\PSoC4/LED_GREEN.c **** * \funcusage
 134:.\Generated_Source\PSoC4/LED_GREEN.c **** *  \snippet LED_GREEN_SUT.c usage_LED_GREEN_Read  
 135:.\Generated_Source\PSoC4/LED_GREEN.c **** *******************************************************************************/
 136:.\Generated_Source\PSoC4/LED_GREEN.c **** uint8 LED_GREEN_Read(void)
 137:.\Generated_Source\PSoC4/LED_GREEN.c **** {
 134              		.loc 1 137 0
 135              		.cfi_startproc
 136 0000 80B5     		push	{r7, lr}
 137              		.cfi_def_cfa_offset 8
 138              		.cfi_offset 7, -8
 139              		.cfi_offset 14, -4
 140 0002 00AF     		add	r7, sp, #0
 141              		.cfi_def_cfa_register 7
 138:.\Generated_Source\PSoC4/LED_GREEN.c ****     return (uint8)((LED_GREEN_PS & LED_GREEN_MASK) >> LED_GREEN_SHIFT);
 142              		.loc 1 138 0
 143 0004 044B     		ldr	r3, .L9
 144 0006 1B68     		ldr	r3, [r3]
 145 0008 4022     		mov	r2, #64
 146 000a 1340     		and	r3, r2
 147 000c 9B09     		lsr	r3, r3, #6
ARM GAS  C:\Users\DELL\AppData\Local\Temp\ccJsgsgQ.s 			page 6


 148 000e DBB2     		uxtb	r3, r3
 139:.\Generated_Source\PSoC4/LED_GREEN.c **** }
 149              		.loc 1 139 0
 150 0010 181C     		mov	r0, r3
 151 0012 BD46     		mov	sp, r7
 152              		@ sp needed
 153 0014 80BD     		pop	{r7, pc}
 154              	.L10:
 155 0016 C046     		.align	2
 156              	.L9:
 157 0018 04030440 		.word	1074004740
 158              		.cfi_endproc
 159              	.LFE2:
 160              		.size	LED_GREEN_Read, .-LED_GREEN_Read
 161              		.section	.text.LED_GREEN_ReadDataReg,"ax",%progbits
 162              		.align	2
 163              		.global	LED_GREEN_ReadDataReg
 164              		.code	16
 165              		.thumb_func
 166              		.type	LED_GREEN_ReadDataReg, %function
 167              	LED_GREEN_ReadDataReg:
 168              	.LFB3:
 140:.\Generated_Source\PSoC4/LED_GREEN.c **** 
 141:.\Generated_Source\PSoC4/LED_GREEN.c **** 
 142:.\Generated_Source\PSoC4/LED_GREEN.c **** /*******************************************************************************
 143:.\Generated_Source\PSoC4/LED_GREEN.c **** * Function Name: LED_GREEN_ReadDataReg
 144:.\Generated_Source\PSoC4/LED_GREEN.c **** ****************************************************************************//**
 145:.\Generated_Source\PSoC4/LED_GREEN.c **** *
 146:.\Generated_Source\PSoC4/LED_GREEN.c **** * \brief Reads the associated physical port's data output register and masks 
 147:.\Generated_Source\PSoC4/LED_GREEN.c **** *  the correct bits according to the width and bit position of the component 
 148:.\Generated_Source\PSoC4/LED_GREEN.c **** *  instance. 
 149:.\Generated_Source\PSoC4/LED_GREEN.c **** *
 150:.\Generated_Source\PSoC4/LED_GREEN.c **** * The data output register controls the signal applied to the physical pin in 
 151:.\Generated_Source\PSoC4/LED_GREEN.c **** * conjunction with the drive mode parameter. This is not the same as the 
 152:.\Generated_Source\PSoC4/LED_GREEN.c **** * preferred LED_GREEN_Read() API because the 
 153:.\Generated_Source\PSoC4/LED_GREEN.c **** * LED_GREEN_ReadDataReg() reads the data register instead of the status 
 154:.\Generated_Source\PSoC4/LED_GREEN.c **** * register. For output pins this is a useful function to determine the value 
 155:.\Generated_Source\PSoC4/LED_GREEN.c **** * just written to the pin.
 156:.\Generated_Source\PSoC4/LED_GREEN.c **** *
 157:.\Generated_Source\PSoC4/LED_GREEN.c **** * \return 
 158:.\Generated_Source\PSoC4/LED_GREEN.c **** *  The current value of the data register masked and shifted into a right 
 159:.\Generated_Source\PSoC4/LED_GREEN.c **** *  justified number for the component instance.
 160:.\Generated_Source\PSoC4/LED_GREEN.c **** *
 161:.\Generated_Source\PSoC4/LED_GREEN.c **** * \funcusage
 162:.\Generated_Source\PSoC4/LED_GREEN.c **** *  \snippet LED_GREEN_SUT.c usage_LED_GREEN_ReadDataReg 
 163:.\Generated_Source\PSoC4/LED_GREEN.c **** *******************************************************************************/
 164:.\Generated_Source\PSoC4/LED_GREEN.c **** uint8 LED_GREEN_ReadDataReg(void)
 165:.\Generated_Source\PSoC4/LED_GREEN.c **** {
 169              		.loc 1 165 0
 170              		.cfi_startproc
 171 0000 80B5     		push	{r7, lr}
 172              		.cfi_def_cfa_offset 8
 173              		.cfi_offset 7, -8
 174              		.cfi_offset 14, -4
 175 0002 00AF     		add	r7, sp, #0
 176              		.cfi_def_cfa_register 7
 166:.\Generated_Source\PSoC4/LED_GREEN.c ****     return (uint8)((LED_GREEN_DR & LED_GREEN_MASK) >> LED_GREEN_SHIFT);
ARM GAS  C:\Users\DELL\AppData\Local\Temp\ccJsgsgQ.s 			page 7


 177              		.loc 1 166 0
 178 0004 044B     		ldr	r3, .L13
 179 0006 1B68     		ldr	r3, [r3]
 180 0008 4022     		mov	r2, #64
 181 000a 1340     		and	r3, r2
 182 000c 9B09     		lsr	r3, r3, #6
 183 000e DBB2     		uxtb	r3, r3
 167:.\Generated_Source\PSoC4/LED_GREEN.c **** }
 184              		.loc 1 167 0
 185 0010 181C     		mov	r0, r3
 186 0012 BD46     		mov	sp, r7
 187              		@ sp needed
 188 0014 80BD     		pop	{r7, pc}
 189              	.L14:
 190 0016 C046     		.align	2
 191              	.L13:
 192 0018 00030440 		.word	1074004736
 193              		.cfi_endproc
 194              	.LFE3:
 195              		.size	LED_GREEN_ReadDataReg, .-LED_GREEN_ReadDataReg
 196              		.section	.text.LED_GREEN_SetInterruptMode,"ax",%progbits
 197              		.align	2
 198              		.global	LED_GREEN_SetInterruptMode
 199              		.code	16
 200              		.thumb_func
 201              		.type	LED_GREEN_SetInterruptMode, %function
 202              	LED_GREEN_SetInterruptMode:
 203              	.LFB4:
 168:.\Generated_Source\PSoC4/LED_GREEN.c **** 
 169:.\Generated_Source\PSoC4/LED_GREEN.c **** 
 170:.\Generated_Source\PSoC4/LED_GREEN.c **** /*******************************************************************************
 171:.\Generated_Source\PSoC4/LED_GREEN.c **** * Function Name: LED_GREEN_SetInterruptMode
 172:.\Generated_Source\PSoC4/LED_GREEN.c **** ****************************************************************************//**
 173:.\Generated_Source\PSoC4/LED_GREEN.c **** *
 174:.\Generated_Source\PSoC4/LED_GREEN.c **** * \brief Configures the interrupt mode for each of the Pins component's
 175:.\Generated_Source\PSoC4/LED_GREEN.c **** *  pins. Alternatively you may set the interrupt mode for all the pins
 176:.\Generated_Source\PSoC4/LED_GREEN.c **** *  specified in the Pins component.
 177:.\Generated_Source\PSoC4/LED_GREEN.c **** *
 178:.\Generated_Source\PSoC4/LED_GREEN.c **** *  <b>Note</b> The interrupt is port-wide and therefore any enabled pin
 179:.\Generated_Source\PSoC4/LED_GREEN.c **** *  interrupt may trigger it.
 180:.\Generated_Source\PSoC4/LED_GREEN.c **** *
 181:.\Generated_Source\PSoC4/LED_GREEN.c **** * \param position
 182:.\Generated_Source\PSoC4/LED_GREEN.c **** *  The pin position as listed in the Pins component. You may OR these to be 
 183:.\Generated_Source\PSoC4/LED_GREEN.c **** *  able to configure the interrupt mode of multiple pins within a Pins 
 184:.\Generated_Source\PSoC4/LED_GREEN.c **** *  component. Or you may use LED_GREEN_INTR_ALL to configure the
 185:.\Generated_Source\PSoC4/LED_GREEN.c **** *  interrupt mode of all the pins in the Pins component.       
 186:.\Generated_Source\PSoC4/LED_GREEN.c **** *  - LED_GREEN_0_INTR       (First pin in the list)
 187:.\Generated_Source\PSoC4/LED_GREEN.c **** *  - LED_GREEN_1_INTR       (Second pin in the list)
 188:.\Generated_Source\PSoC4/LED_GREEN.c **** *  - ...
 189:.\Generated_Source\PSoC4/LED_GREEN.c **** *  - LED_GREEN_INTR_ALL     (All pins in Pins component)
 190:.\Generated_Source\PSoC4/LED_GREEN.c **** *
 191:.\Generated_Source\PSoC4/LED_GREEN.c **** * \param mode
 192:.\Generated_Source\PSoC4/LED_GREEN.c **** *  Interrupt mode for the selected pins. Valid options are documented in
 193:.\Generated_Source\PSoC4/LED_GREEN.c **** *  \ref intrMode.
 194:.\Generated_Source\PSoC4/LED_GREEN.c **** *
 195:.\Generated_Source\PSoC4/LED_GREEN.c **** * \return 
 196:.\Generated_Source\PSoC4/LED_GREEN.c **** *  None
ARM GAS  C:\Users\DELL\AppData\Local\Temp\ccJsgsgQ.s 			page 8


 197:.\Generated_Source\PSoC4/LED_GREEN.c **** *  
 198:.\Generated_Source\PSoC4/LED_GREEN.c **** * \sideeffect
 199:.\Generated_Source\PSoC4/LED_GREEN.c **** *  It is recommended that the interrupt be disabled before calling this 
 200:.\Generated_Source\PSoC4/LED_GREEN.c **** *  function to avoid unintended interrupt requests. Note that the interrupt
 201:.\Generated_Source\PSoC4/LED_GREEN.c **** *  type is port wide, and therefore will trigger for any enabled pin on the 
 202:.\Generated_Source\PSoC4/LED_GREEN.c **** *  port.
 203:.\Generated_Source\PSoC4/LED_GREEN.c **** *
 204:.\Generated_Source\PSoC4/LED_GREEN.c **** * \funcusage
 205:.\Generated_Source\PSoC4/LED_GREEN.c **** *  \snippet LED_GREEN_SUT.c usage_LED_GREEN_SetInterruptMode
 206:.\Generated_Source\PSoC4/LED_GREEN.c **** *******************************************************************************/
 207:.\Generated_Source\PSoC4/LED_GREEN.c **** void LED_GREEN_SetInterruptMode(uint16 position, uint16 mode)
 208:.\Generated_Source\PSoC4/LED_GREEN.c **** {
 204              		.loc 1 208 0
 205              		.cfi_startproc
 206 0000 80B5     		push	{r7, lr}
 207              		.cfi_def_cfa_offset 8
 208              		.cfi_offset 7, -8
 209              		.cfi_offset 14, -4
 210 0002 84B0     		sub	sp, sp, #16
 211              		.cfi_def_cfa_offset 24
 212 0004 00AF     		add	r7, sp, #0
 213              		.cfi_def_cfa_register 7
 214 0006 021C     		mov	r2, r0
 215 0008 BB1D     		add	r3, r7, #6
 216 000a 1A80     		strh	r2, [r3]
 217 000c 3B1D     		add	r3, r7, #4
 218 000e 0A1C     		add	r2, r1, #0
 219 0010 1A80     		strh	r2, [r3]
 209:.\Generated_Source\PSoC4/LED_GREEN.c ****     uint32 intrCfg;
 210:.\Generated_Source\PSoC4/LED_GREEN.c ****     
 211:.\Generated_Source\PSoC4/LED_GREEN.c ****     intrCfg =  LED_GREEN_INTCFG & (uint32)(~(uint32)position);
 220              		.loc 1 211 0
 221 0012 0A4B     		ldr	r3, .L16
 222 0014 1B68     		ldr	r3, [r3]
 223 0016 BA1D     		add	r2, r7, #6
 224 0018 1288     		ldrh	r2, [r2]
 225 001a D243     		mvn	r2, r2
 226 001c 1340     		and	r3, r2
 227 001e FB60     		str	r3, [r7, #12]
 212:.\Generated_Source\PSoC4/LED_GREEN.c ****     LED_GREEN_INTCFG = intrCfg | ((uint32)position & (uint32)mode);
 228              		.loc 1 212 0
 229 0020 064B     		ldr	r3, .L16
 230 0022 BA1D     		add	r2, r7, #6
 231 0024 391D     		add	r1, r7, #4
 232 0026 1288     		ldrh	r2, [r2]
 233 0028 0988     		ldrh	r1, [r1]
 234 002a 0A40     		and	r2, r1
 235 002c 92B2     		uxth	r2, r2
 236 002e 111C     		mov	r1, r2
 237 0030 FA68     		ldr	r2, [r7, #12]
 238 0032 0A43     		orr	r2, r1
 239 0034 1A60     		str	r2, [r3]
 213:.\Generated_Source\PSoC4/LED_GREEN.c **** }
 240              		.loc 1 213 0
 241 0036 BD46     		mov	sp, r7
 242 0038 04B0     		add	sp, sp, #16
 243              		@ sp needed
ARM GAS  C:\Users\DELL\AppData\Local\Temp\ccJsgsgQ.s 			page 9


 244 003a 80BD     		pop	{r7, pc}
 245              	.L17:
 246              		.align	2
 247              	.L16:
 248 003c 0C030440 		.word	1074004748
 249              		.cfi_endproc
 250              	.LFE4:
 251              		.size	LED_GREEN_SetInterruptMode, .-LED_GREEN_SetInterruptMode
 252              		.section	.text.LED_GREEN_ClearInterrupt,"ax",%progbits
 253              		.align	2
 254              		.global	LED_GREEN_ClearInterrupt
 255              		.code	16
 256              		.thumb_func
 257              		.type	LED_GREEN_ClearInterrupt, %function
 258              	LED_GREEN_ClearInterrupt:
 259              	.LFB5:
 214:.\Generated_Source\PSoC4/LED_GREEN.c **** 
 215:.\Generated_Source\PSoC4/LED_GREEN.c **** 
 216:.\Generated_Source\PSoC4/LED_GREEN.c **** /*******************************************************************************
 217:.\Generated_Source\PSoC4/LED_GREEN.c **** * Function Name: LED_GREEN_ClearInterrupt
 218:.\Generated_Source\PSoC4/LED_GREEN.c **** ****************************************************************************//**
 219:.\Generated_Source\PSoC4/LED_GREEN.c **** *
 220:.\Generated_Source\PSoC4/LED_GREEN.c **** * \brief Clears any active interrupts attached with the component and returns 
 221:.\Generated_Source\PSoC4/LED_GREEN.c **** *  the value of the interrupt status register allowing determination of which
 222:.\Generated_Source\PSoC4/LED_GREEN.c **** *  pins generated an interrupt event.
 223:.\Generated_Source\PSoC4/LED_GREEN.c **** *
 224:.\Generated_Source\PSoC4/LED_GREEN.c **** * \return 
 225:.\Generated_Source\PSoC4/LED_GREEN.c **** *  The right-shifted current value of the interrupt status register. Each pin 
 226:.\Generated_Source\PSoC4/LED_GREEN.c **** *  has one bit set if it generated an interrupt event. For example, bit 0 is 
 227:.\Generated_Source\PSoC4/LED_GREEN.c **** *  for pin 0 and bit 1 is for pin 1 of the Pins component.
 228:.\Generated_Source\PSoC4/LED_GREEN.c **** *  
 229:.\Generated_Source\PSoC4/LED_GREEN.c **** * \sideeffect
 230:.\Generated_Source\PSoC4/LED_GREEN.c **** *  Clears all bits of the physical port's interrupt status register, not just
 231:.\Generated_Source\PSoC4/LED_GREEN.c **** *  those associated with the Pins component.
 232:.\Generated_Source\PSoC4/LED_GREEN.c **** *
 233:.\Generated_Source\PSoC4/LED_GREEN.c **** * \funcusage
 234:.\Generated_Source\PSoC4/LED_GREEN.c **** *  \snippet LED_GREEN_SUT.c usage_LED_GREEN_ClearInterrupt
 235:.\Generated_Source\PSoC4/LED_GREEN.c **** *******************************************************************************/
 236:.\Generated_Source\PSoC4/LED_GREEN.c **** uint8 LED_GREEN_ClearInterrupt(void)
 237:.\Generated_Source\PSoC4/LED_GREEN.c **** {
 260              		.loc 1 237 0
 261              		.cfi_startproc
 262 0000 80B5     		push	{r7, lr}
 263              		.cfi_def_cfa_offset 8
 264              		.cfi_offset 7, -8
 265              		.cfi_offset 14, -4
 266 0002 82B0     		sub	sp, sp, #8
 267              		.cfi_def_cfa_offset 16
 268 0004 00AF     		add	r7, sp, #0
 269              		.cfi_def_cfa_register 7
 238:.\Generated_Source\PSoC4/LED_GREEN.c **** 	uint8 maskedStatus = (uint8)(LED_GREEN_INTSTAT & LED_GREEN_MASK);
 270              		.loc 1 238 0
 271 0006 094B     		ldr	r3, .L20
 272 0008 1B68     		ldr	r3, [r3]
 273 000a DAB2     		uxtb	r2, r3
 274 000c FB1D     		add	r3, r7, #7
 275 000e 4021     		mov	r1, #64
ARM GAS  C:\Users\DELL\AppData\Local\Temp\ccJsgsgQ.s 			page 10


 276 0010 0A40     		and	r2, r1
 277 0012 1A70     		strb	r2, [r3]
 239:.\Generated_Source\PSoC4/LED_GREEN.c **** 	LED_GREEN_INTSTAT = maskedStatus;
 278              		.loc 1 239 0
 279 0014 054B     		ldr	r3, .L20
 280 0016 FA1D     		add	r2, r7, #7
 281 0018 1278     		ldrb	r2, [r2]
 282 001a 1A60     		str	r2, [r3]
 240:.\Generated_Source\PSoC4/LED_GREEN.c ****     return maskedStatus >> LED_GREEN_SHIFT;
 283              		.loc 1 240 0
 284 001c FB1D     		add	r3, r7, #7
 285 001e 1B78     		ldrb	r3, [r3]
 286 0020 9B09     		lsr	r3, r3, #6
 287 0022 DBB2     		uxtb	r3, r3
 241:.\Generated_Source\PSoC4/LED_GREEN.c **** }
 288              		.loc 1 241 0
 289 0024 181C     		mov	r0, r3
 290 0026 BD46     		mov	sp, r7
 291 0028 02B0     		add	sp, sp, #8
 292              		@ sp needed
 293 002a 80BD     		pop	{r7, pc}
 294              	.L21:
 295              		.align	2
 296              	.L20:
 297 002c 10030440 		.word	1074004752
 298              		.cfi_endproc
 299              	.LFE5:
 300              		.size	LED_GREEN_ClearInterrupt, .-LED_GREEN_ClearInterrupt
 301              		.text
 302              	.Letext0:
 303              		.file 2 ".\\Generated_Source\\PSoC4\\cytypes.h"
