ARM GAS  C:\Users\DELL\AppData\Local\Temp\ccwus5ek.s 			page 1


   1              		.cpu cortex-m0
   2              		.fpu softvfp
   3              		.eabi_attribute 20, 1
   4              		.eabi_attribute 21, 1
   5              		.eabi_attribute 23, 3
   6              		.eabi_attribute 24, 1
   7              		.eabi_attribute 25, 1
   8              		.eabi_attribute 26, 1
   9              		.eabi_attribute 30, 6
  10              		.eabi_attribute 34, 0
  11              		.eabi_attribute 18, 4
  12              		.code	16
  13              		.file	"I2CM_I2C_MASTER.c"
  14              		.text
  15              	.Ltext0:
  16              		.cfi_sections	.debug_frame
  17              		.comm	I2CM_mstrStatus,2,2
  18              		.comm	I2CM_mstrControl,1,1
  19              		.comm	I2CM_mstrRdBufPtr,4,4
  20              		.comm	I2CM_mstrRdBufSize,4,4
  21              		.comm	I2CM_mstrRdBufIndex,4,4
  22              		.comm	I2CM_mstrWrBufPtr,4,4
  23              		.comm	I2CM_mstrWrBufSize,4,4
  24              		.comm	I2CM_mstrWrBufIndex,4,4
  25              		.comm	I2CM_mstrWrBufIndexTmp,4,4
  26              		.section	.text.I2CM_I2CMasterWriteBuf,"ax",%progbits
  27              		.align	2
  28              		.global	I2CM_I2CMasterWriteBuf
  29              		.code	16
  30              		.thumb_func
  31              		.type	I2CM_I2CMasterWriteBuf, %function
  32              	I2CM_I2CMasterWriteBuf:
  33              	.LFB2:
  34              		.file 1 ".\\Generated_Source\\PSoC4\\I2CM_I2C_MASTER.c"
   1:.\Generated_Source\PSoC4/I2CM_I2C_MASTER.c **** /*******************************************************************************
   2:.\Generated_Source\PSoC4/I2CM_I2C_MASTER.c **** * File Name: I2CM_I2C_MASTER.c
   3:.\Generated_Source\PSoC4/I2CM_I2C_MASTER.c **** * Version 3.10
   4:.\Generated_Source\PSoC4/I2CM_I2C_MASTER.c **** *
   5:.\Generated_Source\PSoC4/I2CM_I2C_MASTER.c **** * Description:
   6:.\Generated_Source\PSoC4/I2CM_I2C_MASTER.c **** *  This file provides the source code to the API for the SCB Component in
   7:.\Generated_Source\PSoC4/I2CM_I2C_MASTER.c **** *  I2C Master mode.
   8:.\Generated_Source\PSoC4/I2CM_I2C_MASTER.c **** *
   9:.\Generated_Source\PSoC4/I2CM_I2C_MASTER.c **** * Note:
  10:.\Generated_Source\PSoC4/I2CM_I2C_MASTER.c **** *
  11:.\Generated_Source\PSoC4/I2CM_I2C_MASTER.c **** *******************************************************************************
  12:.\Generated_Source\PSoC4/I2CM_I2C_MASTER.c **** * Copyright 2013-2015, Cypress Semiconductor Corporation.  All rights reserved.
  13:.\Generated_Source\PSoC4/I2CM_I2C_MASTER.c **** * You may use this file only in accordance with the license, terms, conditions,
  14:.\Generated_Source\PSoC4/I2CM_I2C_MASTER.c **** * disclaimers, and limitations in the end user license agreement accompanying
  15:.\Generated_Source\PSoC4/I2CM_I2C_MASTER.c **** * the software package with which this file was provided.
  16:.\Generated_Source\PSoC4/I2CM_I2C_MASTER.c **** *******************************************************************************/
  17:.\Generated_Source\PSoC4/I2CM_I2C_MASTER.c **** 
  18:.\Generated_Source\PSoC4/I2CM_I2C_MASTER.c **** #include "I2CM_PVT.h"
  19:.\Generated_Source\PSoC4/I2CM_I2C_MASTER.c **** #include "I2CM_I2C_PVT.h"
  20:.\Generated_Source\PSoC4/I2CM_I2C_MASTER.c **** 
  21:.\Generated_Source\PSoC4/I2CM_I2C_MASTER.c **** #if(I2CM_I2C_MASTER_CONST)
  22:.\Generated_Source\PSoC4/I2CM_I2C_MASTER.c **** 
  23:.\Generated_Source\PSoC4/I2CM_I2C_MASTER.c **** /***************************************
ARM GAS  C:\Users\DELL\AppData\Local\Temp\ccwus5ek.s 			page 2


  24:.\Generated_Source\PSoC4/I2CM_I2C_MASTER.c **** *      I2C Master Private Vars
  25:.\Generated_Source\PSoC4/I2CM_I2C_MASTER.c **** ***************************************/
  26:.\Generated_Source\PSoC4/I2CM_I2C_MASTER.c **** 
  27:.\Generated_Source\PSoC4/I2CM_I2C_MASTER.c **** /* Master variables */
  28:.\Generated_Source\PSoC4/I2CM_I2C_MASTER.c **** volatile uint16 I2CM_mstrStatus;      /* Master Status byte  */
  29:.\Generated_Source\PSoC4/I2CM_I2C_MASTER.c **** volatile uint8  I2CM_mstrControl;     /* Master Control byte */
  30:.\Generated_Source\PSoC4/I2CM_I2C_MASTER.c **** 
  31:.\Generated_Source\PSoC4/I2CM_I2C_MASTER.c **** /* Receive buffer variables */
  32:.\Generated_Source\PSoC4/I2CM_I2C_MASTER.c **** volatile uint8 * I2CM_mstrRdBufPtr;   /* Pointer to Master Read buffer */
  33:.\Generated_Source\PSoC4/I2CM_I2C_MASTER.c **** volatile uint32  I2CM_mstrRdBufSize;  /* Master Read buffer size       */
  34:.\Generated_Source\PSoC4/I2CM_I2C_MASTER.c **** volatile uint32  I2CM_mstrRdBufIndex; /* Master Read buffer Index      */
  35:.\Generated_Source\PSoC4/I2CM_I2C_MASTER.c **** 
  36:.\Generated_Source\PSoC4/I2CM_I2C_MASTER.c **** /* Transmit buffer variables */
  37:.\Generated_Source\PSoC4/I2CM_I2C_MASTER.c **** volatile uint8 * I2CM_mstrWrBufPtr;   /* Pointer to Master Write buffer */
  38:.\Generated_Source\PSoC4/I2CM_I2C_MASTER.c **** volatile uint32  I2CM_mstrWrBufSize;  /* Master Write buffer size       */
  39:.\Generated_Source\PSoC4/I2CM_I2C_MASTER.c **** volatile uint32  I2CM_mstrWrBufIndex; /* Master Write buffer Index      */
  40:.\Generated_Source\PSoC4/I2CM_I2C_MASTER.c **** volatile uint32  I2CM_mstrWrBufIndexTmp; /* Master Write buffer Index Tmp */
  41:.\Generated_Source\PSoC4/I2CM_I2C_MASTER.c **** 
  42:.\Generated_Source\PSoC4/I2CM_I2C_MASTER.c **** #if (!I2CM_CY_SCBIP_V0 && \
  43:.\Generated_Source\PSoC4/I2CM_I2C_MASTER.c ****     I2CM_I2C_MULTI_MASTER_SLAVE_CONST && I2CM_I2C_WAKE_ENABLE_CONST)
  44:.\Generated_Source\PSoC4/I2CM_I2C_MASTER.c ****     static void I2CM_I2CMasterDisableEcAm(void);
  45:.\Generated_Source\PSoC4/I2CM_I2C_MASTER.c **** #endif /* (!I2CM_CY_SCBIP_V0) */
  46:.\Generated_Source\PSoC4/I2CM_I2C_MASTER.c **** 
  47:.\Generated_Source\PSoC4/I2CM_I2C_MASTER.c **** 
  48:.\Generated_Source\PSoC4/I2CM_I2C_MASTER.c **** /*******************************************************************************
  49:.\Generated_Source\PSoC4/I2CM_I2C_MASTER.c **** * Function Name: I2CM_I2CMasterWriteBuf
  50:.\Generated_Source\PSoC4/I2CM_I2C_MASTER.c **** ********************************************************************************
  51:.\Generated_Source\PSoC4/I2CM_I2C_MASTER.c **** *
  52:.\Generated_Source\PSoC4/I2CM_I2C_MASTER.c **** * Summary:
  53:.\Generated_Source\PSoC4/I2CM_I2C_MASTER.c **** * Automatically writes an entire buffer of data to a slave device.
  54:.\Generated_Source\PSoC4/I2CM_I2C_MASTER.c **** * Once the data transfer is initiated by this function, further data transfer
  55:.\Generated_Source\PSoC4/I2CM_I2C_MASTER.c **** * is handled by the included ISR.
  56:.\Generated_Source\PSoC4/I2CM_I2C_MASTER.c **** * Enables the I2C interrupt and clears SCB_ I2C_MSTAT_WR_CMPLT status.
  57:.\Generated_Source\PSoC4/I2CM_I2C_MASTER.c **** *
  58:.\Generated_Source\PSoC4/I2CM_I2C_MASTER.c **** * Parameters:
  59:.\Generated_Source\PSoC4/I2CM_I2C_MASTER.c **** *  slaveAddr: 7-bit slave address.
  60:.\Generated_Source\PSoC4/I2CM_I2C_MASTER.c **** *  xferData:  Pointer to buffer of data to be sent.
  61:.\Generated_Source\PSoC4/I2CM_I2C_MASTER.c **** *  cnt:       Size of buffer to send.
  62:.\Generated_Source\PSoC4/I2CM_I2C_MASTER.c **** *  mode:      Transfer mode defines: start or restart condition generation at
  63:.\Generated_Source\PSoC4/I2CM_I2C_MASTER.c **** *             begin of the transfer and complete the transfer or halt before
  64:.\Generated_Source\PSoC4/I2CM_I2C_MASTER.c **** *             generating a stop.
  65:.\Generated_Source\PSoC4/I2CM_I2C_MASTER.c **** *
  66:.\Generated_Source\PSoC4/I2CM_I2C_MASTER.c **** * Return:
  67:.\Generated_Source\PSoC4/I2CM_I2C_MASTER.c **** *  Error status.
  68:.\Generated_Source\PSoC4/I2CM_I2C_MASTER.c **** *
  69:.\Generated_Source\PSoC4/I2CM_I2C_MASTER.c **** * Global variables:
  70:.\Generated_Source\PSoC4/I2CM_I2C_MASTER.c **** *  I2CM_mstrStatus  - used to store current status of I2C Master.
  71:.\Generated_Source\PSoC4/I2CM_I2C_MASTER.c **** *  I2CM_state       - used to store current state of software FSM.
  72:.\Generated_Source\PSoC4/I2CM_I2C_MASTER.c **** *  I2CM_mstrControl - used to control master end of transaction with
  73:.\Generated_Source\PSoC4/I2CM_I2C_MASTER.c **** *  or without the Stop generation.
  74:.\Generated_Source\PSoC4/I2CM_I2C_MASTER.c **** *  I2CM_mstrWrBufPtr - used to store pointer to master write buffer.
  75:.\Generated_Source\PSoC4/I2CM_I2C_MASTER.c **** *  I2CM_mstrWrBufIndex - used to current index within master write
  76:.\Generated_Source\PSoC4/I2CM_I2C_MASTER.c **** *  buffer.
  77:.\Generated_Source\PSoC4/I2CM_I2C_MASTER.c **** *  I2CM_mstrWrBufSize - used to store master write buffer size.
  78:.\Generated_Source\PSoC4/I2CM_I2C_MASTER.c **** *
  79:.\Generated_Source\PSoC4/I2CM_I2C_MASTER.c **** *******************************************************************************/
  80:.\Generated_Source\PSoC4/I2CM_I2C_MASTER.c **** uint32 I2CM_I2CMasterWriteBuf(uint32 slaveAddress, uint8 * wrData, uint32 cnt, uint32 mode)
ARM GAS  C:\Users\DELL\AppData\Local\Temp\ccwus5ek.s 			page 3


  81:.\Generated_Source\PSoC4/I2CM_I2C_MASTER.c **** {
  35              		.loc 1 81 0
  36              		.cfi_startproc
  37 0000 80B5     		push	{r7, lr}
  38              		.cfi_def_cfa_offset 8
  39              		.cfi_offset 7, -8
  40              		.cfi_offset 14, -4
  41 0002 86B0     		sub	sp, sp, #24
  42              		.cfi_def_cfa_offset 32
  43 0004 00AF     		add	r7, sp, #0
  44              		.cfi_def_cfa_register 7
  45 0006 F860     		str	r0, [r7, #12]
  46 0008 B960     		str	r1, [r7, #8]
  47 000a 7A60     		str	r2, [r7, #4]
  48 000c 3B60     		str	r3, [r7]
  82:.\Generated_Source\PSoC4/I2CM_I2C_MASTER.c ****     uint32 errStatus;
  83:.\Generated_Source\PSoC4/I2CM_I2C_MASTER.c **** 
  84:.\Generated_Source\PSoC4/I2CM_I2C_MASTER.c ****     errStatus = I2CM_I2C_MSTR_NOT_READY;
  49              		.loc 1 84 0
  50 000e 0423     		mov	r3, #4
  51 0010 7B61     		str	r3, [r7, #20]
  85:.\Generated_Source\PSoC4/I2CM_I2C_MASTER.c **** 
  86:.\Generated_Source\PSoC4/I2CM_I2C_MASTER.c ****     if(NULL != wrData)  /* Check buffer pointer */
  52              		.loc 1 86 0
  53 0012 BB68     		ldr	r3, [r7, #8]
  54 0014 002B     		cmp	r3, #0
  55 0016 20D0     		beq	.L2
  87:.\Generated_Source\PSoC4/I2CM_I2C_MASTER.c ****     {
  88:.\Generated_Source\PSoC4/I2CM_I2C_MASTER.c ****         /* Check FSM state and bus before generating Start/ReStart condition */
  89:.\Generated_Source\PSoC4/I2CM_I2C_MASTER.c ****         if(I2CM_CHECK_I2C_FSM_IDLE)
  56              		.loc 1 89 0
  57 0018 324B     		ldr	r3, .L9
  58 001a 1B78     		ldrb	r3, [r3]
  59 001c DBB2     		uxtb	r3, r3
  60 001e 102B     		cmp	r3, #16
  61 0020 0CD1     		bne	.L3
  90:.\Generated_Source\PSoC4/I2CM_I2C_MASTER.c ****         {
  91:.\Generated_Source\PSoC4/I2CM_I2C_MASTER.c ****             I2CM_DisableInt();  /* Lock from interruption */
  62              		.loc 1 91 0
  63 0022 0A20     		mov	r0, #10
  64 0024 FFF7FEFF 		bl	CyIntDisable
  92:.\Generated_Source\PSoC4/I2CM_I2C_MASTER.c **** 
  93:.\Generated_Source\PSoC4/I2CM_I2C_MASTER.c ****             /* Check bus state */
  94:.\Generated_Source\PSoC4/I2CM_I2C_MASTER.c ****             errStatus = I2CM_CHECK_I2C_STATUS(I2CM_I2C_STATUS_BUS_BUSY) ?
  65              		.loc 1 94 0
  66 0028 2F4B     		ldr	r3, .L9+4
  67 002a 1B68     		ldr	r3, [r3]
  68 002c 0122     		mov	r2, #1
  69 002e 1340     		and	r3, r2
  70 0030 01D0     		beq	.L4
  71              		.loc 1 94 0 is_stmt 0 discriminator 1
  72 0032 0823     		mov	r3, #8
  73 0034 00E0     		b	.L5
  74              	.L4:
  75              		.loc 1 94 0 discriminator 2
  76 0036 0023     		mov	r3, #0
  77              	.L5:
ARM GAS  C:\Users\DELL\AppData\Local\Temp\ccwus5ek.s 			page 4


  78              		.loc 1 94 0 discriminator 4
  79 0038 7B61     		str	r3, [r7, #20]
  80 003a 0EE0     		b	.L2
  81              	.L3:
  95:.\Generated_Source\PSoC4/I2CM_I2C_MASTER.c ****                             I2CM_I2C_MSTR_BUS_BUSY : I2CM_I2C_MSTR_NO_ERROR;
  96:.\Generated_Source\PSoC4/I2CM_I2C_MASTER.c ****         }
  97:.\Generated_Source\PSoC4/I2CM_I2C_MASTER.c ****         else if(I2CM_CHECK_I2C_FSM_HALT)
  82              		.loc 1 97 0 is_stmt 1
  83 003c 294B     		ldr	r3, .L9
  84 003e 1B78     		ldrb	r3, [r3]
  85 0040 DBB2     		uxtb	r3, r3
  86 0042 602B     		cmp	r3, #96
  87 0044 09D1     		bne	.L2
  98:.\Generated_Source\PSoC4/I2CM_I2C_MASTER.c ****         {
  99:.\Generated_Source\PSoC4/I2CM_I2C_MASTER.c ****             I2CM_mstrStatus &= (uint16) ~I2CM_I2C_MSTAT_XFER_HALT;
  88              		.loc 1 99 0
  89 0046 294B     		ldr	r3, .L9+8
  90 0048 1B88     		ldrh	r3, [r3]
  91 004a 9BB2     		uxth	r3, r3
  92 004c 0822     		mov	r2, #8
  93 004e 9343     		bic	r3, r2
  94 0050 9AB2     		uxth	r2, r3
  95 0052 264B     		ldr	r3, .L9+8
  96 0054 1A80     		strh	r2, [r3]
 100:.\Generated_Source\PSoC4/I2CM_I2C_MASTER.c ****                               errStatus  = I2CM_I2C_MSTR_NO_ERROR;
  97              		.loc 1 100 0
  98 0056 0023     		mov	r3, #0
  99 0058 7B61     		str	r3, [r7, #20]
 100              	.L2:
 101:.\Generated_Source\PSoC4/I2CM_I2C_MASTER.c ****         }
 102:.\Generated_Source\PSoC4/I2CM_I2C_MASTER.c ****         else
 103:.\Generated_Source\PSoC4/I2CM_I2C_MASTER.c ****         {
 104:.\Generated_Source\PSoC4/I2CM_I2C_MASTER.c ****             /* Unexpected FSM state: exit */
 105:.\Generated_Source\PSoC4/I2CM_I2C_MASTER.c ****         }
 106:.\Generated_Source\PSoC4/I2CM_I2C_MASTER.c ****     }
 107:.\Generated_Source\PSoC4/I2CM_I2C_MASTER.c **** 
 108:.\Generated_Source\PSoC4/I2CM_I2C_MASTER.c ****     /* Check if master is ready to start  */
 109:.\Generated_Source\PSoC4/I2CM_I2C_MASTER.c ****     if(I2CM_I2C_MSTR_NO_ERROR == errStatus) /* No error proceed */
 101              		.loc 1 109 0
 102 005a 7B69     		ldr	r3, [r7, #20]
 103 005c 002B     		cmp	r3, #0
 104 005e 38D1     		bne	.L6
 110:.\Generated_Source\PSoC4/I2CM_I2C_MASTER.c ****     {
 111:.\Generated_Source\PSoC4/I2CM_I2C_MASTER.c ****     #if (!I2CM_CY_SCBIP_V0 && \
 112:.\Generated_Source\PSoC4/I2CM_I2C_MASTER.c ****         I2CM_I2C_MULTI_MASTER_SLAVE_CONST && I2CM_I2C_WAKE_ENABLE_CONST)
 113:.\Generated_Source\PSoC4/I2CM_I2C_MASTER.c ****             I2CM_I2CMasterDisableEcAm();
 114:.\Generated_Source\PSoC4/I2CM_I2C_MASTER.c ****     #endif /* (!I2CM_CY_SCBIP_V0) */
 115:.\Generated_Source\PSoC4/I2CM_I2C_MASTER.c **** 
 116:.\Generated_Source\PSoC4/I2CM_I2C_MASTER.c ****         /* Set up write transaction */
 117:.\Generated_Source\PSoC4/I2CM_I2C_MASTER.c ****         I2CM_state = I2CM_I2C_FSM_MSTR_WR_ADDR;
 105              		.loc 1 117 0
 106 0060 204B     		ldr	r3, .L9
 107 0062 2822     		mov	r2, #40
 108 0064 1A70     		strb	r2, [r3]
 118:.\Generated_Source\PSoC4/I2CM_I2C_MASTER.c ****         I2CM_mstrWrBufIndexTmp = 0u;
 109              		.loc 1 118 0
 110 0066 224B     		ldr	r3, .L9+12
ARM GAS  C:\Users\DELL\AppData\Local\Temp\ccwus5ek.s 			page 5


 111 0068 0022     		mov	r2, #0
 112 006a 1A60     		str	r2, [r3]
 119:.\Generated_Source\PSoC4/I2CM_I2C_MASTER.c ****         I2CM_mstrWrBufIndex    = 0u;
 113              		.loc 1 119 0
 114 006c 214B     		ldr	r3, .L9+16
 115 006e 0022     		mov	r2, #0
 116 0070 1A60     		str	r2, [r3]
 120:.\Generated_Source\PSoC4/I2CM_I2C_MASTER.c ****         I2CM_mstrWrBufSize     = cnt;
 117              		.loc 1 120 0
 118 0072 214B     		ldr	r3, .L9+20
 119 0074 7A68     		ldr	r2, [r7, #4]
 120 0076 1A60     		str	r2, [r3]
 121:.\Generated_Source\PSoC4/I2CM_I2C_MASTER.c ****         I2CM_mstrWrBufPtr      = (volatile uint8 *) wrData;
 121              		.loc 1 121 0
 122 0078 204B     		ldr	r3, .L9+24
 123 007a BA68     		ldr	r2, [r7, #8]
 124 007c 1A60     		str	r2, [r3]
 122:.\Generated_Source\PSoC4/I2CM_I2C_MASTER.c ****         I2CM_mstrControl       = (uint8) mode;
 125              		.loc 1 122 0
 126 007e 3B68     		ldr	r3, [r7]
 127 0080 DAB2     		uxtb	r2, r3
 128 0082 1F4B     		ldr	r3, .L9+28
 129 0084 1A70     		strb	r2, [r3]
 123:.\Generated_Source\PSoC4/I2CM_I2C_MASTER.c **** 
 124:.\Generated_Source\PSoC4/I2CM_I2C_MASTER.c ****         slaveAddress = I2CM_GET_I2C_8BIT_ADDRESS(slaveAddress);
 130              		.loc 1 124 0
 131 0086 FB68     		ldr	r3, [r7, #12]
 132 0088 5B00     		lsl	r3, r3, #1
 133 008a FF22     		mov	r2, #255
 134 008c 1340     		and	r3, r2
 135 008e FB60     		str	r3, [r7, #12]
 125:.\Generated_Source\PSoC4/I2CM_I2C_MASTER.c **** 
 126:.\Generated_Source\PSoC4/I2CM_I2C_MASTER.c ****         I2CM_mstrStatus &= (uint16) ~I2CM_I2C_MSTAT_WR_CMPLT;
 136              		.loc 1 126 0
 137 0090 164B     		ldr	r3, .L9+8
 138 0092 1B88     		ldrh	r3, [r3]
 139 0094 9BB2     		uxth	r3, r3
 140 0096 0222     		mov	r2, #2
 141 0098 9343     		bic	r3, r2
 142 009a 9AB2     		uxth	r2, r3
 143 009c 134B     		ldr	r3, .L9+8
 144 009e 1A80     		strh	r2, [r3]
 127:.\Generated_Source\PSoC4/I2CM_I2C_MASTER.c **** 
 128:.\Generated_Source\PSoC4/I2CM_I2C_MASTER.c ****         I2CM_ClearMasterInterruptSource(I2CM_INTR_MASTER_ALL);
 145              		.loc 1 128 0
 146 00a0 184B     		ldr	r3, .L9+32
 147 00a2 194A     		ldr	r2, .L9+36
 148 00a4 1A60     		str	r2, [r3]
 129:.\Generated_Source\PSoC4/I2CM_I2C_MASTER.c ****         I2CM_ClearTxInterruptSource(I2CM_INTR_TX_UNDERFLOW);
 149              		.loc 1 129 0
 150 00a6 194B     		ldr	r3, .L9+40
 151 00a8 4022     		mov	r2, #64
 152 00aa 1A60     		str	r2, [r3]
 130:.\Generated_Source\PSoC4/I2CM_I2C_MASTER.c **** 
 131:.\Generated_Source\PSoC4/I2CM_I2C_MASTER.c ****         /* The TX and RX FIFO have to be EMPTY */
 132:.\Generated_Source\PSoC4/I2CM_I2C_MASTER.c **** 
 133:.\Generated_Source\PSoC4/I2CM_I2C_MASTER.c ****         /* Enable interrupt source to catch when address is sent */
ARM GAS  C:\Users\DELL\AppData\Local\Temp\ccwus5ek.s 			page 6


 134:.\Generated_Source\PSoC4/I2CM_I2C_MASTER.c ****         I2CM_SetTxInterruptMode(I2CM_INTR_TX_UNDERFLOW);
 153              		.loc 1 134 0
 154 00ac 184B     		ldr	r3, .L9+44
 155 00ae 4022     		mov	r2, #64
 156 00b0 1A60     		str	r2, [r3]
 135:.\Generated_Source\PSoC4/I2CM_I2C_MASTER.c **** 
 136:.\Generated_Source\PSoC4/I2CM_I2C_MASTER.c ****         /* Generate Start or ReStart */
 137:.\Generated_Source\PSoC4/I2CM_I2C_MASTER.c ****         if(I2CM_CHECK_I2C_MODE_RESTART(mode))
 157              		.loc 1 137 0
 158 00b2 3B68     		ldr	r3, [r7]
 159 00b4 0122     		mov	r2, #1
 160 00b6 1340     		and	r3, r2
 161 00b8 05D0     		beq	.L7
 138:.\Generated_Source\PSoC4/I2CM_I2C_MASTER.c ****         {
 139:.\Generated_Source\PSoC4/I2CM_I2C_MASTER.c ****             I2CM_I2C_MASTER_GENERATE_RESTART;
 162              		.loc 1 139 0
 163 00ba FFF7FEFF 		bl	I2CM_I2CReStartGeneration
 140:.\Generated_Source\PSoC4/I2CM_I2C_MASTER.c ****             I2CM_TX_FIFO_WR_REG = slaveAddress;
 164              		.loc 1 140 0
 165 00be 154B     		ldr	r3, .L9+48
 166 00c0 FA68     		ldr	r2, [r7, #12]
 167 00c2 1A60     		str	r2, [r3]
 168 00c4 05E0     		b	.L6
 169              	.L7:
 141:.\Generated_Source\PSoC4/I2CM_I2C_MASTER.c ****         }
 142:.\Generated_Source\PSoC4/I2CM_I2C_MASTER.c ****         else
 143:.\Generated_Source\PSoC4/I2CM_I2C_MASTER.c ****         {
 144:.\Generated_Source\PSoC4/I2CM_I2C_MASTER.c ****             I2CM_TX_FIFO_WR_REG = slaveAddress;
 170              		.loc 1 144 0
 171 00c6 134B     		ldr	r3, .L9+48
 172 00c8 FA68     		ldr	r2, [r7, #12]
 173 00ca 1A60     		str	r2, [r3]
 145:.\Generated_Source\PSoC4/I2CM_I2C_MASTER.c ****             I2CM_I2C_MASTER_GENERATE_START;
 174              		.loc 1 145 0
 175 00cc 124B     		ldr	r3, .L9+52
 176 00ce 0222     		mov	r2, #2
 177 00d0 1A60     		str	r2, [r3]
 178              	.L6:
 146:.\Generated_Source\PSoC4/I2CM_I2C_MASTER.c ****         }
 147:.\Generated_Source\PSoC4/I2CM_I2C_MASTER.c ****     }
 148:.\Generated_Source\PSoC4/I2CM_I2C_MASTER.c **** 
 149:.\Generated_Source\PSoC4/I2CM_I2C_MASTER.c ****     I2CM_EnableInt();   /* Release lock */
 179              		.loc 1 149 0
 180 00d2 0A20     		mov	r0, #10
 181 00d4 FFF7FEFF 		bl	CyIntEnable
 150:.\Generated_Source\PSoC4/I2CM_I2C_MASTER.c **** 
 151:.\Generated_Source\PSoC4/I2CM_I2C_MASTER.c ****     return(errStatus);
 182              		.loc 1 151 0
 183 00d8 7B69     		ldr	r3, [r7, #20]
 152:.\Generated_Source\PSoC4/I2CM_I2C_MASTER.c **** }
 184              		.loc 1 152 0
 185 00da 181C     		mov	r0, r3
 186 00dc BD46     		mov	sp, r7
 187 00de 06B0     		add	sp, sp, #24
 188              		@ sp needed
 189 00e0 80BD     		pop	{r7, pc}
 190              	.L10:
ARM GAS  C:\Users\DELL\AppData\Local\Temp\ccwus5ek.s 			page 7


 191 00e2 C046     		.align	2
 192              	.L9:
 193 00e4 00000000 		.word	I2CM_state
 194 00e8 64002540 		.word	1076166756
 195 00ec 00000000 		.word	I2CM_mstrStatus
 196 00f0 00000000 		.word	I2CM_mstrWrBufIndexTmp
 197 00f4 00000000 		.word	I2CM_mstrWrBufIndex
 198 00f8 00000000 		.word	I2CM_mstrWrBufSize
 199 00fc 00000000 		.word	I2CM_mstrWrBufPtr
 200 0100 00000000 		.word	I2CM_mstrControl
 201 0104 000F2540 		.word	1076170496
 202 0108 17030000 		.word	791
 203 010c 800F2540 		.word	1076170624
 204 0110 880F2540 		.word	1076170632
 205 0114 40022540 		.word	1076167232
 206 0118 68002540 		.word	1076166760
 207              		.cfi_endproc
 208              	.LFE2:
 209              		.size	I2CM_I2CMasterWriteBuf, .-I2CM_I2CMasterWriteBuf
 210              		.section	.text.I2CM_I2CMasterReadBuf,"ax",%progbits
 211              		.align	2
 212              		.global	I2CM_I2CMasterReadBuf
 213              		.code	16
 214              		.thumb_func
 215              		.type	I2CM_I2CMasterReadBuf, %function
 216              	I2CM_I2CMasterReadBuf:
 217              	.LFB3:
 153:.\Generated_Source\PSoC4/I2CM_I2C_MASTER.c **** 
 154:.\Generated_Source\PSoC4/I2CM_I2C_MASTER.c **** 
 155:.\Generated_Source\PSoC4/I2CM_I2C_MASTER.c **** /*******************************************************************************
 156:.\Generated_Source\PSoC4/I2CM_I2C_MASTER.c **** * Function Name: I2CM_I2CMasterReadBuf
 157:.\Generated_Source\PSoC4/I2CM_I2C_MASTER.c **** ********************************************************************************
 158:.\Generated_Source\PSoC4/I2CM_I2C_MASTER.c **** *
 159:.\Generated_Source\PSoC4/I2CM_I2C_MASTER.c **** * Summary:
 160:.\Generated_Source\PSoC4/I2CM_I2C_MASTER.c **** *  Automatically reads an entire buffer of data from a slave device.
 161:.\Generated_Source\PSoC4/I2CM_I2C_MASTER.c **** *  Once the data transfer is initiated by this function, further data transfer
 162:.\Generated_Source\PSoC4/I2CM_I2C_MASTER.c **** *  is handled by the included ISR.
 163:.\Generated_Source\PSoC4/I2CM_I2C_MASTER.c **** * Enables the I2C interrupt and clears SCB_ I2C_MSTAT_RD_CMPLT status.
 164:.\Generated_Source\PSoC4/I2CM_I2C_MASTER.c **** *
 165:.\Generated_Source\PSoC4/I2CM_I2C_MASTER.c **** * Parameters:
 166:.\Generated_Source\PSoC4/I2CM_I2C_MASTER.c **** *  slaveAddr: 7-bit slave address.
 167:.\Generated_Source\PSoC4/I2CM_I2C_MASTER.c **** *  xferData:  Pointer to buffer where to put data from slave.
 168:.\Generated_Source\PSoC4/I2CM_I2C_MASTER.c **** *  cnt:       Size of buffer to read.
 169:.\Generated_Source\PSoC4/I2CM_I2C_MASTER.c **** *  mode:      Transfer mode defines: start or restart condition generation at
 170:.\Generated_Source\PSoC4/I2CM_I2C_MASTER.c **** *             begin of the transfer and complete the transfer or halt before
 171:.\Generated_Source\PSoC4/I2CM_I2C_MASTER.c **** *             generating a stop.
 172:.\Generated_Source\PSoC4/I2CM_I2C_MASTER.c **** *
 173:.\Generated_Source\PSoC4/I2CM_I2C_MASTER.c **** * Return:
 174:.\Generated_Source\PSoC4/I2CM_I2C_MASTER.c **** *  Error status.
 175:.\Generated_Source\PSoC4/I2CM_I2C_MASTER.c **** *
 176:.\Generated_Source\PSoC4/I2CM_I2C_MASTER.c **** * Global variables:
 177:.\Generated_Source\PSoC4/I2CM_I2C_MASTER.c **** *  I2CM_mstrStatus  - used to store current status of I2C Master.
 178:.\Generated_Source\PSoC4/I2CM_I2C_MASTER.c **** *  I2CM_state       - used to store current state of software FSM.
 179:.\Generated_Source\PSoC4/I2CM_I2C_MASTER.c **** *  I2CM_mstrControl - used to control master end of transaction with
 180:.\Generated_Source\PSoC4/I2CM_I2C_MASTER.c **** *  or without the Stop generation.
 181:.\Generated_Source\PSoC4/I2CM_I2C_MASTER.c **** *  I2CM_mstrRdBufPtr - used to store pointer to master write buffer.
 182:.\Generated_Source\PSoC4/I2CM_I2C_MASTER.c **** *  I2CM_mstrRdBufIndex - used to current index within master write
ARM GAS  C:\Users\DELL\AppData\Local\Temp\ccwus5ek.s 			page 8


 183:.\Generated_Source\PSoC4/I2CM_I2C_MASTER.c **** *  buffer.
 184:.\Generated_Source\PSoC4/I2CM_I2C_MASTER.c **** *  I2CM_mstrRdBufSize - used to store master write buffer size.
 185:.\Generated_Source\PSoC4/I2CM_I2C_MASTER.c **** *
 186:.\Generated_Source\PSoC4/I2CM_I2C_MASTER.c **** *******************************************************************************/
 187:.\Generated_Source\PSoC4/I2CM_I2C_MASTER.c **** uint32 I2CM_I2CMasterReadBuf(uint32 slaveAddress, uint8 * rdData, uint32 cnt, uint32 mode)
 188:.\Generated_Source\PSoC4/I2CM_I2C_MASTER.c **** {
 218              		.loc 1 188 0
 219              		.cfi_startproc
 220 0000 80B5     		push	{r7, lr}
 221              		.cfi_def_cfa_offset 8
 222              		.cfi_offset 7, -8
 223              		.cfi_offset 14, -4
 224 0002 86B0     		sub	sp, sp, #24
 225              		.cfi_def_cfa_offset 32
 226 0004 00AF     		add	r7, sp, #0
 227              		.cfi_def_cfa_register 7
 228 0006 F860     		str	r0, [r7, #12]
 229 0008 B960     		str	r1, [r7, #8]
 230 000a 7A60     		str	r2, [r7, #4]
 231 000c 3B60     		str	r3, [r7]
 189:.\Generated_Source\PSoC4/I2CM_I2C_MASTER.c ****     uint32 errStatus;
 190:.\Generated_Source\PSoC4/I2CM_I2C_MASTER.c **** 
 191:.\Generated_Source\PSoC4/I2CM_I2C_MASTER.c ****     errStatus = I2CM_I2C_MSTR_NOT_READY;
 232              		.loc 1 191 0
 233 000e 0423     		mov	r3, #4
 234 0010 7B61     		str	r3, [r7, #20]
 192:.\Generated_Source\PSoC4/I2CM_I2C_MASTER.c **** 
 193:.\Generated_Source\PSoC4/I2CM_I2C_MASTER.c ****     if(NULL != rdData)
 235              		.loc 1 193 0
 236 0012 BB68     		ldr	r3, [r7, #8]
 237 0014 002B     		cmp	r3, #0
 238 0016 20D0     		beq	.L12
 194:.\Generated_Source\PSoC4/I2CM_I2C_MASTER.c ****     {
 195:.\Generated_Source\PSoC4/I2CM_I2C_MASTER.c ****         /* Check FSM state and bus before generating Start/ReStart condition */
 196:.\Generated_Source\PSoC4/I2CM_I2C_MASTER.c ****         if(I2CM_CHECK_I2C_FSM_IDLE)
 239              		.loc 1 196 0
 240 0018 374B     		ldr	r3, .L21
 241 001a 1B78     		ldrb	r3, [r3]
 242 001c DBB2     		uxtb	r3, r3
 243 001e 102B     		cmp	r3, #16
 244 0020 0CD1     		bne	.L13
 197:.\Generated_Source\PSoC4/I2CM_I2C_MASTER.c ****         {
 198:.\Generated_Source\PSoC4/I2CM_I2C_MASTER.c ****             I2CM_DisableInt();  /* Lock from interruption */
 245              		.loc 1 198 0
 246 0022 0A20     		mov	r0, #10
 247 0024 FFF7FEFF 		bl	CyIntDisable
 199:.\Generated_Source\PSoC4/I2CM_I2C_MASTER.c **** 
 200:.\Generated_Source\PSoC4/I2CM_I2C_MASTER.c ****             /* Check bus state */
 201:.\Generated_Source\PSoC4/I2CM_I2C_MASTER.c ****             errStatus = I2CM_CHECK_I2C_STATUS(I2CM_I2C_STATUS_BUS_BUSY) ?
 248              		.loc 1 201 0
 249 0028 344B     		ldr	r3, .L21+4
 250 002a 1B68     		ldr	r3, [r3]
 251 002c 0122     		mov	r2, #1
 252 002e 1340     		and	r3, r2
 253 0030 01D0     		beq	.L14
 254              		.loc 1 201 0 is_stmt 0 discriminator 1
 255 0032 0823     		mov	r3, #8
ARM GAS  C:\Users\DELL\AppData\Local\Temp\ccwus5ek.s 			page 9


 256 0034 00E0     		b	.L15
 257              	.L14:
 258              		.loc 1 201 0 discriminator 2
 259 0036 0023     		mov	r3, #0
 260              	.L15:
 261              		.loc 1 201 0 discriminator 4
 262 0038 7B61     		str	r3, [r7, #20]
 263 003a 0EE0     		b	.L12
 264              	.L13:
 202:.\Generated_Source\PSoC4/I2CM_I2C_MASTER.c ****                             I2CM_I2C_MSTR_BUS_BUSY : I2CM_I2C_MSTR_NO_ERROR;
 203:.\Generated_Source\PSoC4/I2CM_I2C_MASTER.c ****         }
 204:.\Generated_Source\PSoC4/I2CM_I2C_MASTER.c ****         else if(I2CM_CHECK_I2C_FSM_HALT)
 265              		.loc 1 204 0 is_stmt 1
 266 003c 2E4B     		ldr	r3, .L21
 267 003e 1B78     		ldrb	r3, [r3]
 268 0040 DBB2     		uxtb	r3, r3
 269 0042 602B     		cmp	r3, #96
 270 0044 09D1     		bne	.L12
 205:.\Generated_Source\PSoC4/I2CM_I2C_MASTER.c ****         {
 206:.\Generated_Source\PSoC4/I2CM_I2C_MASTER.c ****             I2CM_mstrStatus &= (uint16) ~I2CM_I2C_MSTAT_XFER_HALT;
 271              		.loc 1 206 0
 272 0046 2E4B     		ldr	r3, .L21+8
 273 0048 1B88     		ldrh	r3, [r3]
 274 004a 9BB2     		uxth	r3, r3
 275 004c 0822     		mov	r2, #8
 276 004e 9343     		bic	r3, r2
 277 0050 9AB2     		uxth	r2, r3
 278 0052 2B4B     		ldr	r3, .L21+8
 279 0054 1A80     		strh	r2, [r3]
 207:.\Generated_Source\PSoC4/I2CM_I2C_MASTER.c ****                               errStatus  =  I2CM_I2C_MSTR_NO_ERROR;
 280              		.loc 1 207 0
 281 0056 0023     		mov	r3, #0
 282 0058 7B61     		str	r3, [r7, #20]
 283              	.L12:
 208:.\Generated_Source\PSoC4/I2CM_I2C_MASTER.c ****         }
 209:.\Generated_Source\PSoC4/I2CM_I2C_MASTER.c ****         else
 210:.\Generated_Source\PSoC4/I2CM_I2C_MASTER.c ****         {
 211:.\Generated_Source\PSoC4/I2CM_I2C_MASTER.c ****             /* Unexpected FSM state: exit */
 212:.\Generated_Source\PSoC4/I2CM_I2C_MASTER.c ****         }
 213:.\Generated_Source\PSoC4/I2CM_I2C_MASTER.c ****     }
 214:.\Generated_Source\PSoC4/I2CM_I2C_MASTER.c **** 
 215:.\Generated_Source\PSoC4/I2CM_I2C_MASTER.c ****     /* Check master ready to proceed */
 216:.\Generated_Source\PSoC4/I2CM_I2C_MASTER.c ****     if(I2CM_I2C_MSTR_NO_ERROR == errStatus) /* No error proceed */
 284              		.loc 1 216 0
 285 005a 7B69     		ldr	r3, [r7, #20]
 286 005c 002B     		cmp	r3, #0
 287 005e 43D1     		bne	.L16
 217:.\Generated_Source\PSoC4/I2CM_I2C_MASTER.c ****     {
 218:.\Generated_Source\PSoC4/I2CM_I2C_MASTER.c ****         #if (!I2CM_CY_SCBIP_V0 && \
 219:.\Generated_Source\PSoC4/I2CM_I2C_MASTER.c ****         I2CM_I2C_MULTI_MASTER_SLAVE_CONST && I2CM_I2C_WAKE_ENABLE_CONST)
 220:.\Generated_Source\PSoC4/I2CM_I2C_MASTER.c ****             I2CM_I2CMasterDisableEcAm();
 221:.\Generated_Source\PSoC4/I2CM_I2C_MASTER.c ****         #endif /* (!I2CM_CY_SCBIP_V0) */
 222:.\Generated_Source\PSoC4/I2CM_I2C_MASTER.c **** 
 223:.\Generated_Source\PSoC4/I2CM_I2C_MASTER.c ****         /* Set up read transaction */
 224:.\Generated_Source\PSoC4/I2CM_I2C_MASTER.c ****         I2CM_state = I2CM_I2C_FSM_MSTR_RD_ADDR;
 288              		.loc 1 224 0
 289 0060 254B     		ldr	r3, .L21
ARM GAS  C:\Users\DELL\AppData\Local\Temp\ccwus5ek.s 			page 10


 290 0062 2922     		mov	r2, #41
 291 0064 1A70     		strb	r2, [r3]
 225:.\Generated_Source\PSoC4/I2CM_I2C_MASTER.c ****         I2CM_mstrRdBufIndex = 0u;
 292              		.loc 1 225 0
 293 0066 274B     		ldr	r3, .L21+12
 294 0068 0022     		mov	r2, #0
 295 006a 1A60     		str	r2, [r3]
 226:.\Generated_Source\PSoC4/I2CM_I2C_MASTER.c ****         I2CM_mstrRdBufSize  = cnt;
 296              		.loc 1 226 0
 297 006c 264B     		ldr	r3, .L21+16
 298 006e 7A68     		ldr	r2, [r7, #4]
 299 0070 1A60     		str	r2, [r3]
 227:.\Generated_Source\PSoC4/I2CM_I2C_MASTER.c ****         I2CM_mstrRdBufPtr   = (volatile uint8 *) rdData;
 300              		.loc 1 227 0
 301 0072 264B     		ldr	r3, .L21+20
 302 0074 BA68     		ldr	r2, [r7, #8]
 303 0076 1A60     		str	r2, [r3]
 228:.\Generated_Source\PSoC4/I2CM_I2C_MASTER.c ****         I2CM_mstrControl    = (uint8) mode;
 304              		.loc 1 228 0
 305 0078 3B68     		ldr	r3, [r7]
 306 007a DAB2     		uxtb	r2, r3
 307 007c 244B     		ldr	r3, .L21+24
 308 007e 1A70     		strb	r2, [r3]
 229:.\Generated_Source\PSoC4/I2CM_I2C_MASTER.c **** 
 230:.\Generated_Source\PSoC4/I2CM_I2C_MASTER.c ****         slaveAddress = (I2CM_GET_I2C_8BIT_ADDRESS(slaveAddress) | I2CM_I2C_READ_FLAG);
 309              		.loc 1 230 0
 310 0080 FB68     		ldr	r3, [r7, #12]
 311 0082 5B00     		lsl	r3, r3, #1
 312 0084 FF22     		mov	r2, #255
 313 0086 1340     		and	r3, r2
 314 0088 0122     		mov	r2, #1
 315 008a 1343     		orr	r3, r2
 316 008c FB60     		str	r3, [r7, #12]
 231:.\Generated_Source\PSoC4/I2CM_I2C_MASTER.c **** 
 232:.\Generated_Source\PSoC4/I2CM_I2C_MASTER.c ****         I2CM_mstrStatus &= (uint16) ~I2CM_I2C_MSTAT_RD_CMPLT;
 317              		.loc 1 232 0
 318 008e 1C4B     		ldr	r3, .L21+8
 319 0090 1B88     		ldrh	r3, [r3]
 320 0092 9BB2     		uxth	r3, r3
 321 0094 0122     		mov	r2, #1
 322 0096 9343     		bic	r3, r2
 323 0098 9AB2     		uxth	r2, r3
 324 009a 194B     		ldr	r3, .L21+8
 325 009c 1A80     		strh	r2, [r3]
 233:.\Generated_Source\PSoC4/I2CM_I2C_MASTER.c **** 
 234:.\Generated_Source\PSoC4/I2CM_I2C_MASTER.c ****         I2CM_ClearMasterInterruptSource(I2CM_INTR_MASTER_ALL);
 326              		.loc 1 234 0
 327 009e 1D4B     		ldr	r3, .L21+28
 328 00a0 1D4A     		ldr	r2, .L21+32
 329 00a2 1A60     		str	r2, [r3]
 235:.\Generated_Source\PSoC4/I2CM_I2C_MASTER.c **** 
 236:.\Generated_Source\PSoC4/I2CM_I2C_MASTER.c ****         /* TX and RX FIFO have to be EMPTY */
 237:.\Generated_Source\PSoC4/I2CM_I2C_MASTER.c **** 
 238:.\Generated_Source\PSoC4/I2CM_I2C_MASTER.c ****         /* Prepare reading */
 239:.\Generated_Source\PSoC4/I2CM_I2C_MASTER.c ****         if(I2CM_mstrRdBufSize < I2CM_I2C_FIFO_SIZE)
 330              		.loc 1 239 0
 331 00a4 184B     		ldr	r3, .L21+16
ARM GAS  C:\Users\DELL\AppData\Local\Temp\ccwus5ek.s 			page 11


 332 00a6 1B68     		ldr	r3, [r3]
 333 00a8 072B     		cmp	r3, #7
 334 00aa 03D8     		bhi	.L17
 240:.\Generated_Source\PSoC4/I2CM_I2C_MASTER.c ****         {
 241:.\Generated_Source\PSoC4/I2CM_I2C_MASTER.c ****             /* Reading byte-by-byte */
 242:.\Generated_Source\PSoC4/I2CM_I2C_MASTER.c ****             I2CM_SetRxInterruptMode(I2CM_INTR_RX_NOT_EMPTY);
 335              		.loc 1 242 0
 336 00ac 1B4B     		ldr	r3, .L21+36
 337 00ae 0422     		mov	r2, #4
 338 00b0 1A60     		str	r2, [r3]
 339 00b2 09E0     		b	.L18
 340              	.L17:
 243:.\Generated_Source\PSoC4/I2CM_I2C_MASTER.c ****         }
 244:.\Generated_Source\PSoC4/I2CM_I2C_MASTER.c ****         else
 245:.\Generated_Source\PSoC4/I2CM_I2C_MASTER.c ****         {
 246:.\Generated_Source\PSoC4/I2CM_I2C_MASTER.c ****             /* Receive RX FIFO chunks */
 247:.\Generated_Source\PSoC4/I2CM_I2C_MASTER.c ****             I2CM_ENABLE_MASTER_AUTO_DATA_ACK;
 341              		.loc 1 247 0
 342 00b4 1A4B     		ldr	r3, .L21+40
 343 00b6 1A4A     		ldr	r2, .L21+40
 344 00b8 1268     		ldr	r2, [r2]
 345 00ba 8021     		mov	r1, #128
 346 00bc 4900     		lsl	r1, r1, #1
 347 00be 0A43     		orr	r2, r1
 348 00c0 1A60     		str	r2, [r3]
 248:.\Generated_Source\PSoC4/I2CM_I2C_MASTER.c ****             I2CM_SetRxInterruptMode(I2CM_INTR_RX_FULL);
 349              		.loc 1 248 0
 350 00c2 164B     		ldr	r3, .L21+36
 351 00c4 0822     		mov	r2, #8
 352 00c6 1A60     		str	r2, [r3]
 353              	.L18:
 249:.\Generated_Source\PSoC4/I2CM_I2C_MASTER.c ****         }
 250:.\Generated_Source\PSoC4/I2CM_I2C_MASTER.c **** 
 251:.\Generated_Source\PSoC4/I2CM_I2C_MASTER.c ****         /* Generate Start or ReStart */
 252:.\Generated_Source\PSoC4/I2CM_I2C_MASTER.c ****         if(I2CM_CHECK_I2C_MODE_RESTART(mode))
 354              		.loc 1 252 0
 355 00c8 3B68     		ldr	r3, [r7]
 356 00ca 0122     		mov	r2, #1
 357 00cc 1340     		and	r3, r2
 358 00ce 05D0     		beq	.L19
 253:.\Generated_Source\PSoC4/I2CM_I2C_MASTER.c ****         {
 254:.\Generated_Source\PSoC4/I2CM_I2C_MASTER.c ****             I2CM_I2C_MASTER_GENERATE_RESTART;
 359              		.loc 1 254 0
 360 00d0 FFF7FEFF 		bl	I2CM_I2CReStartGeneration
 255:.\Generated_Source\PSoC4/I2CM_I2C_MASTER.c ****             I2CM_TX_FIFO_WR_REG = (slaveAddress);
 361              		.loc 1 255 0
 362 00d4 134B     		ldr	r3, .L21+44
 363 00d6 FA68     		ldr	r2, [r7, #12]
 364 00d8 1A60     		str	r2, [r3]
 365 00da 05E0     		b	.L16
 366              	.L19:
 256:.\Generated_Source\PSoC4/I2CM_I2C_MASTER.c ****         }
 257:.\Generated_Source\PSoC4/I2CM_I2C_MASTER.c ****         else
 258:.\Generated_Source\PSoC4/I2CM_I2C_MASTER.c ****         {
 259:.\Generated_Source\PSoC4/I2CM_I2C_MASTER.c ****             I2CM_TX_FIFO_WR_REG = (slaveAddress);
 367              		.loc 1 259 0
 368 00dc 114B     		ldr	r3, .L21+44
ARM GAS  C:\Users\DELL\AppData\Local\Temp\ccwus5ek.s 			page 12


 369 00de FA68     		ldr	r2, [r7, #12]
 370 00e0 1A60     		str	r2, [r3]
 260:.\Generated_Source\PSoC4/I2CM_I2C_MASTER.c ****             I2CM_I2C_MASTER_GENERATE_START;
 371              		.loc 1 260 0
 372 00e2 114B     		ldr	r3, .L21+48
 373 00e4 0222     		mov	r2, #2
 374 00e6 1A60     		str	r2, [r3]
 375              	.L16:
 261:.\Generated_Source\PSoC4/I2CM_I2C_MASTER.c ****         }
 262:.\Generated_Source\PSoC4/I2CM_I2C_MASTER.c ****     }
 263:.\Generated_Source\PSoC4/I2CM_I2C_MASTER.c **** 
 264:.\Generated_Source\PSoC4/I2CM_I2C_MASTER.c ****     I2CM_EnableInt();   /* Release lock */
 376              		.loc 1 264 0
 377 00e8 0A20     		mov	r0, #10
 378 00ea FFF7FEFF 		bl	CyIntEnable
 265:.\Generated_Source\PSoC4/I2CM_I2C_MASTER.c **** 
 266:.\Generated_Source\PSoC4/I2CM_I2C_MASTER.c ****     return(errStatus);
 379              		.loc 1 266 0
 380 00ee 7B69     		ldr	r3, [r7, #20]
 267:.\Generated_Source\PSoC4/I2CM_I2C_MASTER.c **** }
 381              		.loc 1 267 0
 382 00f0 181C     		mov	r0, r3
 383 00f2 BD46     		mov	sp, r7
 384 00f4 06B0     		add	sp, sp, #24
 385              		@ sp needed
 386 00f6 80BD     		pop	{r7, pc}
 387              	.L22:
 388              		.align	2
 389              	.L21:
 390 00f8 00000000 		.word	I2CM_state
 391 00fc 64002540 		.word	1076166756
 392 0100 00000000 		.word	I2CM_mstrStatus
 393 0104 00000000 		.word	I2CM_mstrRdBufIndex
 394 0108 00000000 		.word	I2CM_mstrRdBufSize
 395 010c 00000000 		.word	I2CM_mstrRdBufPtr
 396 0110 00000000 		.word	I2CM_mstrControl
 397 0114 000F2540 		.word	1076170496
 398 0118 17030000 		.word	791
 399 011c C80F2540 		.word	1076170696
 400 0120 60002540 		.word	1076166752
 401 0124 40022540 		.word	1076167232
 402 0128 68002540 		.word	1076166760
 403              		.cfi_endproc
 404              	.LFE3:
 405              		.size	I2CM_I2CMasterReadBuf, .-I2CM_I2CMasterReadBuf
 406              		.section	.text.I2CM_I2CMasterSendStart,"ax",%progbits
 407              		.align	2
 408              		.global	I2CM_I2CMasterSendStart
 409              		.code	16
 410              		.thumb_func
 411              		.type	I2CM_I2CMasterSendStart, %function
 412              	I2CM_I2CMasterSendStart:
 413              	.LFB4:
 268:.\Generated_Source\PSoC4/I2CM_I2C_MASTER.c **** 
 269:.\Generated_Source\PSoC4/I2CM_I2C_MASTER.c **** 
 270:.\Generated_Source\PSoC4/I2CM_I2C_MASTER.c **** /*******************************************************************************
 271:.\Generated_Source\PSoC4/I2CM_I2C_MASTER.c **** * Function Name: I2CM_I2CMasterSendStart
ARM GAS  C:\Users\DELL\AppData\Local\Temp\ccwus5ek.s 			page 13


 272:.\Generated_Source\PSoC4/I2CM_I2C_MASTER.c **** ********************************************************************************
 273:.\Generated_Source\PSoC4/I2CM_I2C_MASTER.c **** *
 274:.\Generated_Source\PSoC4/I2CM_I2C_MASTER.c **** * Summary:
 275:.\Generated_Source\PSoC4/I2CM_I2C_MASTER.c **** *  Generates Start condition and sends slave address with read/write bit.
 276:.\Generated_Source\PSoC4/I2CM_I2C_MASTER.c **** *  Disables the I2C interrupt.
 277:.\Generated_Source\PSoC4/I2CM_I2C_MASTER.c **** *  This function is blocking and does not return until start condition and
 278:.\Generated_Source\PSoC4/I2CM_I2C_MASTER.c **** *  address byte are sent and ACK/NACK response is received or errors occurred.
 279:.\Generated_Source\PSoC4/I2CM_I2C_MASTER.c **** *
 280:.\Generated_Source\PSoC4/I2CM_I2C_MASTER.c **** * Parameters:
 281:.\Generated_Source\PSoC4/I2CM_I2C_MASTER.c **** *  slaveAddress: Right justified 7-bit Slave address (valid range 8 to 120).
 282:.\Generated_Source\PSoC4/I2CM_I2C_MASTER.c **** *  bitRnW:       Direction of the following transfer. It is defined by
 283:.\Generated_Source\PSoC4/I2CM_I2C_MASTER.c **** *                read/write bit within address byte.
 284:.\Generated_Source\PSoC4/I2CM_I2C_MASTER.c **** *
 285:.\Generated_Source\PSoC4/I2CM_I2C_MASTER.c **** * Return:
 286:.\Generated_Source\PSoC4/I2CM_I2C_MASTER.c **** *  Error status.
 287:.\Generated_Source\PSoC4/I2CM_I2C_MASTER.c **** *
 288:.\Generated_Source\PSoC4/I2CM_I2C_MASTER.c **** * Global variables:
 289:.\Generated_Source\PSoC4/I2CM_I2C_MASTER.c **** *  I2CM_state - used to store current state of software FSM.
 290:.\Generated_Source\PSoC4/I2CM_I2C_MASTER.c **** *
 291:.\Generated_Source\PSoC4/I2CM_I2C_MASTER.c **** *******************************************************************************/
 292:.\Generated_Source\PSoC4/I2CM_I2C_MASTER.c **** uint32 I2CM_I2CMasterSendStart(uint32 slaveAddress, uint32 bitRnW)
 293:.\Generated_Source\PSoC4/I2CM_I2C_MASTER.c **** {
 414              		.loc 1 293 0
 415              		.cfi_startproc
 416 0000 80B5     		push	{r7, lr}
 417              		.cfi_def_cfa_offset 8
 418              		.cfi_offset 7, -8
 419              		.cfi_offset 14, -4
 420 0002 84B0     		sub	sp, sp, #16
 421              		.cfi_def_cfa_offset 24
 422 0004 00AF     		add	r7, sp, #0
 423              		.cfi_def_cfa_register 7
 424 0006 7860     		str	r0, [r7, #4]
 425 0008 3960     		str	r1, [r7]
 294:.\Generated_Source\PSoC4/I2CM_I2C_MASTER.c ****     uint32  resetIp;
 295:.\Generated_Source\PSoC4/I2CM_I2C_MASTER.c ****     uint32 errStatus;
 296:.\Generated_Source\PSoC4/I2CM_I2C_MASTER.c **** 
 297:.\Generated_Source\PSoC4/I2CM_I2C_MASTER.c ****     resetIp   = 0u;
 426              		.loc 1 297 0
 427 000a 0023     		mov	r3, #0
 428 000c FB60     		str	r3, [r7, #12]
 298:.\Generated_Source\PSoC4/I2CM_I2C_MASTER.c ****     errStatus = I2CM_I2C_MSTR_NOT_READY;
 429              		.loc 1 298 0
 430 000e 0423     		mov	r3, #4
 431 0010 BB60     		str	r3, [r7, #8]
 299:.\Generated_Source\PSoC4/I2CM_I2C_MASTER.c **** 
 300:.\Generated_Source\PSoC4/I2CM_I2C_MASTER.c ****     /* Check FSM state before generating Start condition */
 301:.\Generated_Source\PSoC4/I2CM_I2C_MASTER.c ****     if(I2CM_CHECK_I2C_FSM_IDLE)
 432              		.loc 1 301 0
 433 0012 384B     		ldr	r3, .L34
 434 0014 1B78     		ldrb	r3, [r3]
 435 0016 DBB2     		uxtb	r3, r3
 436 0018 102B     		cmp	r3, #16
 437 001a 66D1     		bne	.L24
 302:.\Generated_Source\PSoC4/I2CM_I2C_MASTER.c ****     {
 303:.\Generated_Source\PSoC4/I2CM_I2C_MASTER.c ****         /* If bus is free, generate Start condition */
 304:.\Generated_Source\PSoC4/I2CM_I2C_MASTER.c ****         if(I2CM_CHECK_I2C_STATUS(I2CM_I2C_STATUS_BUS_BUSY))
ARM GAS  C:\Users\DELL\AppData\Local\Temp\ccwus5ek.s 			page 14


 438              		.loc 1 304 0
 439 001c 364B     		ldr	r3, .L34+4
 440 001e 1B68     		ldr	r3, [r3]
 441 0020 0122     		mov	r2, #1
 442 0022 1340     		and	r3, r2
 443 0024 02D0     		beq	.L25
 305:.\Generated_Source\PSoC4/I2CM_I2C_MASTER.c ****         {
 306:.\Generated_Source\PSoC4/I2CM_I2C_MASTER.c ****             errStatus = I2CM_I2C_MSTR_BUS_BUSY;
 444              		.loc 1 306 0
 445 0026 0823     		mov	r3, #8
 446 0028 BB60     		str	r3, [r7, #8]
 447 002a 5EE0     		b	.L24
 448              	.L25:
 307:.\Generated_Source\PSoC4/I2CM_I2C_MASTER.c ****         }
 308:.\Generated_Source\PSoC4/I2CM_I2C_MASTER.c ****         else
 309:.\Generated_Source\PSoC4/I2CM_I2C_MASTER.c ****         {
 310:.\Generated_Source\PSoC4/I2CM_I2C_MASTER.c ****             I2CM_DisableInt();  /* Lock from interruption */
 449              		.loc 1 310 0
 450 002c 0A20     		mov	r0, #10
 451 002e FFF7FEFF 		bl	CyIntDisable
 311:.\Generated_Source\PSoC4/I2CM_I2C_MASTER.c **** 
 312:.\Generated_Source\PSoC4/I2CM_I2C_MASTER.c ****         #if (!I2CM_CY_SCBIP_V0 && \
 313:.\Generated_Source\PSoC4/I2CM_I2C_MASTER.c ****             I2CM_I2C_MULTI_MASTER_SLAVE_CONST && I2CM_I2C_WAKE_ENABLE_CONST)
 314:.\Generated_Source\PSoC4/I2CM_I2C_MASTER.c ****             I2CM_I2CMasterDisableEcAm();
 315:.\Generated_Source\PSoC4/I2CM_I2C_MASTER.c ****         #endif /* (!I2CM_CY_SCBIP_V0) */
 316:.\Generated_Source\PSoC4/I2CM_I2C_MASTER.c **** 
 317:.\Generated_Source\PSoC4/I2CM_I2C_MASTER.c ****             slaveAddress = I2CM_GET_I2C_8BIT_ADDRESS(slaveAddress);
 452              		.loc 1 317 0
 453 0032 7B68     		ldr	r3, [r7, #4]
 454 0034 5B00     		lsl	r3, r3, #1
 455 0036 FF22     		mov	r2, #255
 456 0038 1340     		and	r3, r2
 457 003a 7B60     		str	r3, [r7, #4]
 318:.\Generated_Source\PSoC4/I2CM_I2C_MASTER.c **** 
 319:.\Generated_Source\PSoC4/I2CM_I2C_MASTER.c ****             if(0u == bitRnW) /* Write direction */
 458              		.loc 1 319 0
 459 003c 3B68     		ldr	r3, [r7]
 460 003e 002B     		cmp	r3, #0
 461 0040 03D1     		bne	.L26
 320:.\Generated_Source\PSoC4/I2CM_I2C_MASTER.c ****             {
 321:.\Generated_Source\PSoC4/I2CM_I2C_MASTER.c ****                 I2CM_state = I2CM_I2C_FSM_MSTR_WR_DATA;
 462              		.loc 1 321 0
 463 0042 2C4B     		ldr	r3, .L34
 464 0044 2422     		mov	r2, #36
 465 0046 1A70     		strb	r2, [r3]
 466 0048 06E0     		b	.L27
 467              	.L26:
 322:.\Generated_Source\PSoC4/I2CM_I2C_MASTER.c ****             }
 323:.\Generated_Source\PSoC4/I2CM_I2C_MASTER.c ****             else /* Read direction */
 324:.\Generated_Source\PSoC4/I2CM_I2C_MASTER.c ****             {
 325:.\Generated_Source\PSoC4/I2CM_I2C_MASTER.c ****                 I2CM_state = I2CM_I2C_FSM_MSTR_RD_DATA;
 468              		.loc 1 325 0
 469 004a 2A4B     		ldr	r3, .L34
 470 004c 2522     		mov	r2, #37
 471 004e 1A70     		strb	r2, [r3]
 326:.\Generated_Source\PSoC4/I2CM_I2C_MASTER.c ****                          slaveAddress |= I2CM_I2C_READ_FLAG;
 472              		.loc 1 326 0
ARM GAS  C:\Users\DELL\AppData\Local\Temp\ccwus5ek.s 			page 15


 473 0050 7B68     		ldr	r3, [r7, #4]
 474 0052 0122     		mov	r2, #1
 475 0054 1343     		orr	r3, r2
 476 0056 7B60     		str	r3, [r7, #4]
 477              	.L27:
 327:.\Generated_Source\PSoC4/I2CM_I2C_MASTER.c ****             }
 328:.\Generated_Source\PSoC4/I2CM_I2C_MASTER.c **** 
 329:.\Generated_Source\PSoC4/I2CM_I2C_MASTER.c ****             /* TX and RX FIFO have to be EMPTY */
 330:.\Generated_Source\PSoC4/I2CM_I2C_MASTER.c **** 
 331:.\Generated_Source\PSoC4/I2CM_I2C_MASTER.c ****             I2CM_TX_FIFO_WR_REG = slaveAddress; /* Put address in TX FIFO */
 478              		.loc 1 331 0
 479 0058 284B     		ldr	r3, .L34+8
 480 005a 7A68     		ldr	r2, [r7, #4]
 481 005c 1A60     		str	r2, [r3]
 332:.\Generated_Source\PSoC4/I2CM_I2C_MASTER.c ****             I2CM_ClearMasterInterruptSource(I2CM_INTR_MASTER_ALL);
 482              		.loc 1 332 0
 483 005e 284B     		ldr	r3, .L34+12
 484 0060 284A     		ldr	r2, .L34+16
 485 0062 1A60     		str	r2, [r3]
 333:.\Generated_Source\PSoC4/I2CM_I2C_MASTER.c **** 
 334:.\Generated_Source\PSoC4/I2CM_I2C_MASTER.c ****             I2CM_I2C_MASTER_GENERATE_START;
 486              		.loc 1 334 0
 487 0064 284B     		ldr	r3, .L34+20
 488 0066 0222     		mov	r2, #2
 489 0068 1A60     		str	r2, [r3]
 335:.\Generated_Source\PSoC4/I2CM_I2C_MASTER.c **** 
 336:.\Generated_Source\PSoC4/I2CM_I2C_MASTER.c **** 
 337:.\Generated_Source\PSoC4/I2CM_I2C_MASTER.c ****             while(!I2CM_CHECK_INTR_MASTER(I2CM_INTR_MASTER_I2C_ACK      |
 490              		.loc 1 337 0
 491 006a C046     		mov	r8, r8
 492              	.L28:
 493              		.loc 1 337 0 is_stmt 0 discriminator 1
 494 006c 244B     		ldr	r3, .L34+12
 495 006e 1A68     		ldr	r2, [r3]
 496 0070 0823     		mov	r3, #8
 497 0072 FF33     		add	r3, r3, #255
 498 0074 1340     		and	r3, r2
 499 0076 F9D0     		beq	.L28
 338:.\Generated_Source\PSoC4/I2CM_I2C_MASTER.c ****                                                       I2CM_INTR_MASTER_I2C_NACK     |
 339:.\Generated_Source\PSoC4/I2CM_I2C_MASTER.c ****                                                       I2CM_INTR_MASTER_I2C_ARB_LOST |
 340:.\Generated_Source\PSoC4/I2CM_I2C_MASTER.c ****                                                       I2CM_INTR_MASTER_I2C_BUS_ERROR))
 341:.\Generated_Source\PSoC4/I2CM_I2C_MASTER.c ****             {
 342:.\Generated_Source\PSoC4/I2CM_I2C_MASTER.c ****                 /*
 343:.\Generated_Source\PSoC4/I2CM_I2C_MASTER.c ****                 * Write: wait until address has been transferred
 344:.\Generated_Source\PSoC4/I2CM_I2C_MASTER.c ****                 * Read : wait until address has been transferred, data byte is going to RX FIFO as 
 345:.\Generated_Source\PSoC4/I2CM_I2C_MASTER.c ****                 */
 346:.\Generated_Source\PSoC4/I2CM_I2C_MASTER.c ****             }
 347:.\Generated_Source\PSoC4/I2CM_I2C_MASTER.c **** 
 348:.\Generated_Source\PSoC4/I2CM_I2C_MASTER.c ****             /* Check the results of the address phase */
 349:.\Generated_Source\PSoC4/I2CM_I2C_MASTER.c ****             if(I2CM_CHECK_INTR_MASTER(I2CM_INTR_MASTER_I2C_ACK))
 500              		.loc 1 349 0 is_stmt 1
 501 0078 214B     		ldr	r3, .L34+12
 502 007a 1B68     		ldr	r3, [r3]
 503 007c 0422     		mov	r2, #4
 504 007e 1340     		and	r3, r2
 505 0080 02D0     		beq	.L29
 350:.\Generated_Source\PSoC4/I2CM_I2C_MASTER.c ****             {
ARM GAS  C:\Users\DELL\AppData\Local\Temp\ccwus5ek.s 			page 16


 351:.\Generated_Source\PSoC4/I2CM_I2C_MASTER.c ****                 errStatus = I2CM_I2C_MSTR_NO_ERROR;
 506              		.loc 1 351 0
 507 0082 0023     		mov	r3, #0
 508 0084 BB60     		str	r3, [r7, #8]
 509 0086 1CE0     		b	.L30
 510              	.L29:
 352:.\Generated_Source\PSoC4/I2CM_I2C_MASTER.c ****             }
 353:.\Generated_Source\PSoC4/I2CM_I2C_MASTER.c ****             else if(I2CM_CHECK_INTR_MASTER(I2CM_INTR_MASTER_I2C_NACK))
 511              		.loc 1 353 0
 512 0088 1D4B     		ldr	r3, .L34+12
 513 008a 1B68     		ldr	r3, [r3]
 514 008c 0222     		mov	r2, #2
 515 008e 1340     		and	r3, r2
 516 0090 02D0     		beq	.L31
 354:.\Generated_Source\PSoC4/I2CM_I2C_MASTER.c ****             {
 355:.\Generated_Source\PSoC4/I2CM_I2C_MASTER.c ****                 errStatus = I2CM_I2C_MSTR_ERR_LB_NAK;
 517              		.loc 1 355 0
 518 0092 0223     		mov	r3, #2
 519 0094 BB60     		str	r3, [r7, #8]
 520 0096 14E0     		b	.L30
 521              	.L31:
 356:.\Generated_Source\PSoC4/I2CM_I2C_MASTER.c ****             }
 357:.\Generated_Source\PSoC4/I2CM_I2C_MASTER.c ****             else if(I2CM_CHECK_INTR_MASTER(I2CM_INTR_MASTER_I2C_ARB_LOST))
 522              		.loc 1 357 0
 523 0098 194B     		ldr	r3, .L34+12
 524 009a 1B68     		ldr	r3, [r3]
 525 009c 0122     		mov	r2, #1
 526 009e 1340     		and	r3, r2
 527 00a0 07D0     		beq	.L32
 358:.\Generated_Source\PSoC4/I2CM_I2C_MASTER.c ****             {
 359:.\Generated_Source\PSoC4/I2CM_I2C_MASTER.c ****                 I2CM_state = I2CM_I2C_FSM_IDLE;
 528              		.loc 1 359 0
 529 00a2 144B     		ldr	r3, .L34
 530 00a4 1022     		mov	r2, #16
 531 00a6 1A70     		strb	r2, [r3]
 360:.\Generated_Source\PSoC4/I2CM_I2C_MASTER.c ****                              errStatus = I2CM_I2C_MSTR_ERR_ARB_LOST;
 532              		.loc 1 360 0
 533 00a8 0123     		mov	r3, #1
 534 00aa BB60     		str	r3, [r7, #8]
 361:.\Generated_Source\PSoC4/I2CM_I2C_MASTER.c ****                              resetIp   = I2CM_I2C_RESET_ERROR;
 535              		.loc 1 361 0
 536 00ac 0123     		mov	r3, #1
 537 00ae FB60     		str	r3, [r7, #12]
 538 00b0 07E0     		b	.L30
 539              	.L32:
 362:.\Generated_Source\PSoC4/I2CM_I2C_MASTER.c ****             }
 363:.\Generated_Source\PSoC4/I2CM_I2C_MASTER.c ****             else /* I2CM_INTR_MASTER_I2C_BUS_ERROR set is else condition */
 364:.\Generated_Source\PSoC4/I2CM_I2C_MASTER.c ****             {
 365:.\Generated_Source\PSoC4/I2CM_I2C_MASTER.c ****                 I2CM_state = I2CM_I2C_FSM_IDLE;
 540              		.loc 1 365 0
 541 00b2 104B     		ldr	r3, .L34
 542 00b4 1022     		mov	r2, #16
 543 00b6 1A70     		strb	r2, [r3]
 366:.\Generated_Source\PSoC4/I2CM_I2C_MASTER.c ****                              errStatus = I2CM_I2C_MSTR_ERR_BUS_ERR;
 544              		.loc 1 366 0
 545 00b8 8023     		mov	r3, #128
 546 00ba 5B00     		lsl	r3, r3, #1
ARM GAS  C:\Users\DELL\AppData\Local\Temp\ccwus5ek.s 			page 17


 547 00bc BB60     		str	r3, [r7, #8]
 367:.\Generated_Source\PSoC4/I2CM_I2C_MASTER.c ****                              resetIp   = I2CM_I2C_RESET_ERROR;
 548              		.loc 1 367 0
 549 00be 0123     		mov	r3, #1
 550 00c0 FB60     		str	r3, [r7, #12]
 551              	.L30:
 368:.\Generated_Source\PSoC4/I2CM_I2C_MASTER.c ****             }
 369:.\Generated_Source\PSoC4/I2CM_I2C_MASTER.c **** 
 370:.\Generated_Source\PSoC4/I2CM_I2C_MASTER.c ****             I2CM_ClearMasterInterruptSource(I2CM_INTR_MASTER_I2C_ACK      |
 552              		.loc 1 370 0
 553 00c2 0F4B     		ldr	r3, .L34+12
 554 00c4 0822     		mov	r2, #8
 555 00c6 FF32     		add	r2, r2, #255
 556 00c8 1A60     		str	r2, [r3]
 371:.\Generated_Source\PSoC4/I2CM_I2C_MASTER.c ****                                                         I2CM_INTR_MASTER_I2C_NACK     |
 372:.\Generated_Source\PSoC4/I2CM_I2C_MASTER.c ****                                                         I2CM_INTR_MASTER_I2C_ARB_LOST |
 373:.\Generated_Source\PSoC4/I2CM_I2C_MASTER.c ****                                                         I2CM_INTR_MASTER_I2C_BUS_ERROR);
 374:.\Generated_Source\PSoC4/I2CM_I2C_MASTER.c **** 
 375:.\Generated_Source\PSoC4/I2CM_I2C_MASTER.c ****             /* Reset block in case of: LOST_ARB or BUS_ERR */
 376:.\Generated_Source\PSoC4/I2CM_I2C_MASTER.c ****             if(0u != resetIp)
 557              		.loc 1 376 0
 558 00ca FB68     		ldr	r3, [r7, #12]
 559 00cc 002B     		cmp	r3, #0
 560 00ce 0CD0     		beq	.L24
 377:.\Generated_Source\PSoC4/I2CM_I2C_MASTER.c ****             {
 378:.\Generated_Source\PSoC4/I2CM_I2C_MASTER.c ****                 I2CM_SCB_SW_RESET;
 561              		.loc 1 378 0
 562 00d0 0E4B     		ldr	r3, .L34+24
 563 00d2 0E4A     		ldr	r2, .L34+24
 564 00d4 1268     		ldr	r2, [r2]
 565 00d6 5200     		lsl	r2, r2, #1
 566 00d8 5208     		lsr	r2, r2, #1
 567 00da 1A60     		str	r2, [r3]
 568 00dc 0B4B     		ldr	r3, .L34+24
 569 00de 0B4A     		ldr	r2, .L34+24
 570 00e0 1268     		ldr	r2, [r2]
 571 00e2 8021     		mov	r1, #128
 572 00e4 0906     		lsl	r1, r1, #24
 573 00e6 0A43     		orr	r2, r1
 574 00e8 1A60     		str	r2, [r3]
 575              	.L24:
 379:.\Generated_Source\PSoC4/I2CM_I2C_MASTER.c ****             }
 380:.\Generated_Source\PSoC4/I2CM_I2C_MASTER.c ****         }
 381:.\Generated_Source\PSoC4/I2CM_I2C_MASTER.c ****     }
 382:.\Generated_Source\PSoC4/I2CM_I2C_MASTER.c **** 
 383:.\Generated_Source\PSoC4/I2CM_I2C_MASTER.c ****     return(errStatus);
 576              		.loc 1 383 0
 577 00ea BB68     		ldr	r3, [r7, #8]
 384:.\Generated_Source\PSoC4/I2CM_I2C_MASTER.c **** }
 578              		.loc 1 384 0
 579 00ec 181C     		mov	r0, r3
 580 00ee BD46     		mov	sp, r7
 581 00f0 04B0     		add	sp, sp, #16
 582              		@ sp needed
 583 00f2 80BD     		pop	{r7, pc}
 584              	.L35:
 585              		.align	2
ARM GAS  C:\Users\DELL\AppData\Local\Temp\ccwus5ek.s 			page 18


 586              	.L34:
 587 00f4 00000000 		.word	I2CM_state
 588 00f8 64002540 		.word	1076166756
 589 00fc 40022540 		.word	1076167232
 590 0100 000F2540 		.word	1076170496
 591 0104 17030000 		.word	791
 592 0108 68002540 		.word	1076166760
 593 010c 00002540 		.word	1076166656
 594              		.cfi_endproc
 595              	.LFE4:
 596              		.size	I2CM_I2CMasterSendStart, .-I2CM_I2CMasterSendStart
 597              		.section	.text.I2CM_I2CMasterSendRestart,"ax",%progbits
 598              		.align	2
 599              		.global	I2CM_I2CMasterSendRestart
 600              		.code	16
 601              		.thumb_func
 602              		.type	I2CM_I2CMasterSendRestart, %function
 603              	I2CM_I2CMasterSendRestart:
 604              	.LFB5:
 385:.\Generated_Source\PSoC4/I2CM_I2C_MASTER.c **** 
 386:.\Generated_Source\PSoC4/I2CM_I2C_MASTER.c **** 
 387:.\Generated_Source\PSoC4/I2CM_I2C_MASTER.c **** /*******************************************************************************
 388:.\Generated_Source\PSoC4/I2CM_I2C_MASTER.c **** * Function Name: I2CM_I2CMasterSendRestart
 389:.\Generated_Source\PSoC4/I2CM_I2C_MASTER.c **** ********************************************************************************
 390:.\Generated_Source\PSoC4/I2CM_I2C_MASTER.c **** *
 391:.\Generated_Source\PSoC4/I2CM_I2C_MASTER.c **** * Summary:
 392:.\Generated_Source\PSoC4/I2CM_I2C_MASTER.c **** *  Generates Restart condition and sends slave address with read/write bit.
 393:.\Generated_Source\PSoC4/I2CM_I2C_MASTER.c **** *  This function is blocking and does not return until start condition and
 394:.\Generated_Source\PSoC4/I2CM_I2C_MASTER.c **** *  address are sent and ACK/NACK response is received or errors occurred.
 395:.\Generated_Source\PSoC4/I2CM_I2C_MASTER.c **** *
 396:.\Generated_Source\PSoC4/I2CM_I2C_MASTER.c **** * Parameters:
 397:.\Generated_Source\PSoC4/I2CM_I2C_MASTER.c **** *  slaveAddress: Right justified 7-bit Slave address (valid range 8 to 120).
 398:.\Generated_Source\PSoC4/I2CM_I2C_MASTER.c **** *  bitRnW:       Direction of the following transfer. It is defined by
 399:.\Generated_Source\PSoC4/I2CM_I2C_MASTER.c **** *                read/write bit within address byte.
 400:.\Generated_Source\PSoC4/I2CM_I2C_MASTER.c **** *
 401:.\Generated_Source\PSoC4/I2CM_I2C_MASTER.c **** * Return:
 402:.\Generated_Source\PSoC4/I2CM_I2C_MASTER.c **** *  Error status
 403:.\Generated_Source\PSoC4/I2CM_I2C_MASTER.c **** *
 404:.\Generated_Source\PSoC4/I2CM_I2C_MASTER.c **** *
 405:.\Generated_Source\PSoC4/I2CM_I2C_MASTER.c **** * Global variables:
 406:.\Generated_Source\PSoC4/I2CM_I2C_MASTER.c **** *  I2CM_state - used to store current state of software FSM.
 407:.\Generated_Source\PSoC4/I2CM_I2C_MASTER.c **** *
 408:.\Generated_Source\PSoC4/I2CM_I2C_MASTER.c **** *******************************************************************************/
 409:.\Generated_Source\PSoC4/I2CM_I2C_MASTER.c **** uint32 I2CM_I2CMasterSendRestart(uint32 slaveAddress, uint32 bitRnW)
 410:.\Generated_Source\PSoC4/I2CM_I2C_MASTER.c **** {
 605              		.loc 1 410 0
 606              		.cfi_startproc
 607 0000 80B5     		push	{r7, lr}
 608              		.cfi_def_cfa_offset 8
 609              		.cfi_offset 7, -8
 610              		.cfi_offset 14, -4
 611 0002 84B0     		sub	sp, sp, #16
 612              		.cfi_def_cfa_offset 24
 613 0004 00AF     		add	r7, sp, #0
 614              		.cfi_def_cfa_register 7
 615 0006 7860     		str	r0, [r7, #4]
 616 0008 3960     		str	r1, [r7]
ARM GAS  C:\Users\DELL\AppData\Local\Temp\ccwus5ek.s 			page 19


 411:.\Generated_Source\PSoC4/I2CM_I2C_MASTER.c ****     uint32 resetIp;
 412:.\Generated_Source\PSoC4/I2CM_I2C_MASTER.c ****     uint32 errStatus;
 413:.\Generated_Source\PSoC4/I2CM_I2C_MASTER.c **** 
 414:.\Generated_Source\PSoC4/I2CM_I2C_MASTER.c ****     resetIp   = 0u;
 617              		.loc 1 414 0
 618 000a 0023     		mov	r3, #0
 619 000c FB60     		str	r3, [r7, #12]
 415:.\Generated_Source\PSoC4/I2CM_I2C_MASTER.c ****     errStatus = I2CM_I2C_MSTR_NOT_READY;
 620              		.loc 1 415 0
 621 000e 0423     		mov	r3, #4
 622 0010 BB60     		str	r3, [r7, #8]
 416:.\Generated_Source\PSoC4/I2CM_I2C_MASTER.c **** 
 417:.\Generated_Source\PSoC4/I2CM_I2C_MASTER.c ****     /* Check FSM state before generating ReStart condition */
 418:.\Generated_Source\PSoC4/I2CM_I2C_MASTER.c ****     if(I2CM_CHECK_I2C_MASTER_ACTIVE)
 623              		.loc 1 418 0
 624 0012 374B     		ldr	r3, .L47
 625 0014 1B78     		ldrb	r3, [r3]
 626 0016 DBB2     		uxtb	r3, r3
 627 0018 2022     		mov	r2, #32
 628 001a 1340     		and	r3, r2
 629 001c DBB2     		uxtb	r3, r3
 630 001e 002B     		cmp	r3, #0
 631 0020 60D0     		beq	.L37
 419:.\Generated_Source\PSoC4/I2CM_I2C_MASTER.c ****     {
 420:.\Generated_Source\PSoC4/I2CM_I2C_MASTER.c ****         slaveAddress = I2CM_GET_I2C_8BIT_ADDRESS(slaveAddress);
 632              		.loc 1 420 0
 633 0022 7B68     		ldr	r3, [r7, #4]
 634 0024 5B00     		lsl	r3, r3, #1
 635 0026 FF22     		mov	r2, #255
 636 0028 1340     		and	r3, r2
 637 002a 7B60     		str	r3, [r7, #4]
 421:.\Generated_Source\PSoC4/I2CM_I2C_MASTER.c **** 
 422:.\Generated_Source\PSoC4/I2CM_I2C_MASTER.c ****         if(0u == bitRnW) /* Write direction */
 638              		.loc 1 422 0
 639 002c 3B68     		ldr	r3, [r7]
 640 002e 002B     		cmp	r3, #0
 641 0030 03D1     		bne	.L38
 423:.\Generated_Source\PSoC4/I2CM_I2C_MASTER.c ****         {
 424:.\Generated_Source\PSoC4/I2CM_I2C_MASTER.c ****             I2CM_state = I2CM_I2C_FSM_MSTR_WR_DATA;
 642              		.loc 1 424 0
 643 0032 2F4B     		ldr	r3, .L47
 644 0034 2422     		mov	r2, #36
 645 0036 1A70     		strb	r2, [r3]
 646 0038 06E0     		b	.L39
 647              	.L38:
 425:.\Generated_Source\PSoC4/I2CM_I2C_MASTER.c ****         }
 426:.\Generated_Source\PSoC4/I2CM_I2C_MASTER.c ****         else  /* Read direction */
 427:.\Generated_Source\PSoC4/I2CM_I2C_MASTER.c ****         {
 428:.\Generated_Source\PSoC4/I2CM_I2C_MASTER.c ****             I2CM_state  = I2CM_I2C_FSM_MSTR_RD_DATA;
 648              		.loc 1 428 0
 649 003a 2D4B     		ldr	r3, .L47
 650 003c 2522     		mov	r2, #37
 651 003e 1A70     		strb	r2, [r3]
 429:.\Generated_Source\PSoC4/I2CM_I2C_MASTER.c ****                       slaveAddress |= I2CM_I2C_READ_FLAG;
 652              		.loc 1 429 0
 653 0040 7B68     		ldr	r3, [r7, #4]
 654 0042 0122     		mov	r2, #1
ARM GAS  C:\Users\DELL\AppData\Local\Temp\ccwus5ek.s 			page 20


 655 0044 1343     		orr	r3, r2
 656 0046 7B60     		str	r3, [r7, #4]
 657              	.L39:
 430:.\Generated_Source\PSoC4/I2CM_I2C_MASTER.c ****         }
 431:.\Generated_Source\PSoC4/I2CM_I2C_MASTER.c **** 
 432:.\Generated_Source\PSoC4/I2CM_I2C_MASTER.c ****         /* TX and RX FIFO have to be EMPTY */
 433:.\Generated_Source\PSoC4/I2CM_I2C_MASTER.c **** 
 434:.\Generated_Source\PSoC4/I2CM_I2C_MASTER.c ****         /* Clean-up interrupt status */
 435:.\Generated_Source\PSoC4/I2CM_I2C_MASTER.c ****         I2CM_ClearMasterInterruptSource(I2CM_INTR_MASTER_ALL);
 658              		.loc 1 435 0
 659 0048 2A4B     		ldr	r3, .L47+4
 660 004a 2B4A     		ldr	r2, .L47+8
 661 004c 1A60     		str	r2, [r3]
 436:.\Generated_Source\PSoC4/I2CM_I2C_MASTER.c **** 
 437:.\Generated_Source\PSoC4/I2CM_I2C_MASTER.c ****         /* A proper ReStart sequence is: generate ReStart, then put an address byte in the TX FIFO.
 438:.\Generated_Source\PSoC4/I2CM_I2C_MASTER.c ****         * Otherwise the master treats the address in the TX FIFO as a data byte if a previous trans
 439:.\Generated_Source\PSoC4/I2CM_I2C_MASTER.c ****         * The write transfer continues instead of ReStart.
 440:.\Generated_Source\PSoC4/I2CM_I2C_MASTER.c ****         */
 441:.\Generated_Source\PSoC4/I2CM_I2C_MASTER.c ****         I2CM_I2C_MASTER_GENERATE_RESTART;
 662              		.loc 1 441 0
 663 004e FFF7FEFF 		bl	I2CM_I2CReStartGeneration
 442:.\Generated_Source\PSoC4/I2CM_I2C_MASTER.c **** 
 443:.\Generated_Source\PSoC4/I2CM_I2C_MASTER.c ****         while(I2CM_CHECK_I2C_MASTER_CMD(I2CM_I2C_MASTER_CMD_M_START))
 664              		.loc 1 443 0
 665 0052 C046     		mov	r8, r8
 666              	.L40:
 667              		.loc 1 443 0 is_stmt 0 discriminator 1
 668 0054 294B     		ldr	r3, .L47+12
 669 0056 1B68     		ldr	r3, [r3]
 670 0058 0122     		mov	r2, #1
 671 005a 1340     		and	r3, r2
 672 005c FAD1     		bne	.L40
 444:.\Generated_Source\PSoC4/I2CM_I2C_MASTER.c ****         {
 445:.\Generated_Source\PSoC4/I2CM_I2C_MASTER.c ****             /* Wait until ReStart has been generated */
 446:.\Generated_Source\PSoC4/I2CM_I2C_MASTER.c ****         }
 447:.\Generated_Source\PSoC4/I2CM_I2C_MASTER.c **** 
 448:.\Generated_Source\PSoC4/I2CM_I2C_MASTER.c ****         /* Put address into TX FIFO */
 449:.\Generated_Source\PSoC4/I2CM_I2C_MASTER.c ****         I2CM_TX_FIFO_WR_REG = slaveAddress;
 673              		.loc 1 449 0 is_stmt 1
 674 005e 284B     		ldr	r3, .L47+16
 675 0060 7A68     		ldr	r2, [r7, #4]
 676 0062 1A60     		str	r2, [r3]
 450:.\Generated_Source\PSoC4/I2CM_I2C_MASTER.c **** 
 451:.\Generated_Source\PSoC4/I2CM_I2C_MASTER.c ****         /* Wait for address to be transferred */
 452:.\Generated_Source\PSoC4/I2CM_I2C_MASTER.c ****         while(!I2CM_CHECK_INTR_MASTER(I2CM_INTR_MASTER_I2C_ACK      |
 677              		.loc 1 452 0
 678 0064 C046     		mov	r8, r8
 679              	.L41:
 680              		.loc 1 452 0 is_stmt 0 discriminator 1
 681 0066 234B     		ldr	r3, .L47+4
 682 0068 1A68     		ldr	r2, [r3]
 683 006a 0823     		mov	r3, #8
 684 006c FF33     		add	r3, r3, #255
 685 006e 1340     		and	r3, r2
 686 0070 F9D0     		beq	.L41
 453:.\Generated_Source\PSoC4/I2CM_I2C_MASTER.c ****                                                   I2CM_INTR_MASTER_I2C_NACK     |
 454:.\Generated_Source\PSoC4/I2CM_I2C_MASTER.c ****                                                   I2CM_INTR_MASTER_I2C_ARB_LOST |
ARM GAS  C:\Users\DELL\AppData\Local\Temp\ccwus5ek.s 			page 21


 455:.\Generated_Source\PSoC4/I2CM_I2C_MASTER.c ****                                                   I2CM_INTR_MASTER_I2C_BUS_ERROR))
 456:.\Generated_Source\PSoC4/I2CM_I2C_MASTER.c ****         {
 457:.\Generated_Source\PSoC4/I2CM_I2C_MASTER.c ****             /* Wait until address has been transferred */
 458:.\Generated_Source\PSoC4/I2CM_I2C_MASTER.c ****         }
 459:.\Generated_Source\PSoC4/I2CM_I2C_MASTER.c **** 
 460:.\Generated_Source\PSoC4/I2CM_I2C_MASTER.c ****         /* Check results of address phase */
 461:.\Generated_Source\PSoC4/I2CM_I2C_MASTER.c ****         if(I2CM_CHECK_INTR_MASTER(I2CM_INTR_MASTER_I2C_ACK))
 687              		.loc 1 461 0 is_stmt 1
 688 0072 204B     		ldr	r3, .L47+4
 689 0074 1B68     		ldr	r3, [r3]
 690 0076 0422     		mov	r2, #4
 691 0078 1340     		and	r3, r2
 692 007a 02D0     		beq	.L42
 462:.\Generated_Source\PSoC4/I2CM_I2C_MASTER.c ****         {
 463:.\Generated_Source\PSoC4/I2CM_I2C_MASTER.c ****             errStatus = I2CM_I2C_MSTR_NO_ERROR;
 693              		.loc 1 463 0
 694 007c 0023     		mov	r3, #0
 695 007e BB60     		str	r3, [r7, #8]
 696 0080 1CE0     		b	.L43
 697              	.L42:
 464:.\Generated_Source\PSoC4/I2CM_I2C_MASTER.c ****         }
 465:.\Generated_Source\PSoC4/I2CM_I2C_MASTER.c ****         else if(I2CM_CHECK_INTR_MASTER(I2CM_INTR_MASTER_I2C_NACK))
 698              		.loc 1 465 0
 699 0082 1C4B     		ldr	r3, .L47+4
 700 0084 1B68     		ldr	r3, [r3]
 701 0086 0222     		mov	r2, #2
 702 0088 1340     		and	r3, r2
 703 008a 02D0     		beq	.L44
 466:.\Generated_Source\PSoC4/I2CM_I2C_MASTER.c ****         {
 467:.\Generated_Source\PSoC4/I2CM_I2C_MASTER.c ****              errStatus = I2CM_I2C_MSTR_ERR_LB_NAK;
 704              		.loc 1 467 0
 705 008c 0223     		mov	r3, #2
 706 008e BB60     		str	r3, [r7, #8]
 707 0090 14E0     		b	.L43
 708              	.L44:
 468:.\Generated_Source\PSoC4/I2CM_I2C_MASTER.c ****         }
 469:.\Generated_Source\PSoC4/I2CM_I2C_MASTER.c ****         else if(I2CM_CHECK_INTR_MASTER(I2CM_INTR_MASTER_I2C_ARB_LOST))
 709              		.loc 1 469 0
 710 0092 184B     		ldr	r3, .L47+4
 711 0094 1B68     		ldr	r3, [r3]
 712 0096 0122     		mov	r2, #1
 713 0098 1340     		and	r3, r2
 714 009a 07D0     		beq	.L45
 470:.\Generated_Source\PSoC4/I2CM_I2C_MASTER.c ****         {
 471:.\Generated_Source\PSoC4/I2CM_I2C_MASTER.c ****             I2CM_state = I2CM_I2C_FSM_IDLE;
 715              		.loc 1 471 0
 716 009c 144B     		ldr	r3, .L47
 717 009e 1022     		mov	r2, #16
 718 00a0 1A70     		strb	r2, [r3]
 472:.\Generated_Source\PSoC4/I2CM_I2C_MASTER.c ****                          errStatus = I2CM_I2C_MSTR_ERR_ARB_LOST;
 719              		.loc 1 472 0
 720 00a2 0123     		mov	r3, #1
 721 00a4 BB60     		str	r3, [r7, #8]
 473:.\Generated_Source\PSoC4/I2CM_I2C_MASTER.c ****                          resetIp   = I2CM_I2C_RESET_ERROR;
 722              		.loc 1 473 0
 723 00a6 0123     		mov	r3, #1
 724 00a8 FB60     		str	r3, [r7, #12]
ARM GAS  C:\Users\DELL\AppData\Local\Temp\ccwus5ek.s 			page 22


 725 00aa 07E0     		b	.L43
 726              	.L45:
 474:.\Generated_Source\PSoC4/I2CM_I2C_MASTER.c ****         }
 475:.\Generated_Source\PSoC4/I2CM_I2C_MASTER.c ****         else /* I2CM_INTR_MASTER_I2C_BUS_ERROR set is else condition */
 476:.\Generated_Source\PSoC4/I2CM_I2C_MASTER.c ****         {
 477:.\Generated_Source\PSoC4/I2CM_I2C_MASTER.c ****             I2CM_state = I2CM_I2C_FSM_IDLE;
 727              		.loc 1 477 0
 728 00ac 104B     		ldr	r3, .L47
 729 00ae 1022     		mov	r2, #16
 730 00b0 1A70     		strb	r2, [r3]
 478:.\Generated_Source\PSoC4/I2CM_I2C_MASTER.c ****                          errStatus = I2CM_I2C_MSTR_ERR_BUS_ERR;
 731              		.loc 1 478 0
 732 00b2 8023     		mov	r3, #128
 733 00b4 5B00     		lsl	r3, r3, #1
 734 00b6 BB60     		str	r3, [r7, #8]
 479:.\Generated_Source\PSoC4/I2CM_I2C_MASTER.c ****                          resetIp   = I2CM_I2C_RESET_ERROR;
 735              		.loc 1 479 0
 736 00b8 0123     		mov	r3, #1
 737 00ba FB60     		str	r3, [r7, #12]
 738              	.L43:
 480:.\Generated_Source\PSoC4/I2CM_I2C_MASTER.c ****         }
 481:.\Generated_Source\PSoC4/I2CM_I2C_MASTER.c **** 
 482:.\Generated_Source\PSoC4/I2CM_I2C_MASTER.c ****         I2CM_ClearMasterInterruptSource(I2CM_INTR_MASTER_I2C_ACK      |
 739              		.loc 1 482 0
 740 00bc 0D4B     		ldr	r3, .L47+4
 741 00be 0822     		mov	r2, #8
 742 00c0 FF32     		add	r2, r2, #255
 743 00c2 1A60     		str	r2, [r3]
 483:.\Generated_Source\PSoC4/I2CM_I2C_MASTER.c ****                                                     I2CM_INTR_MASTER_I2C_NACK     |
 484:.\Generated_Source\PSoC4/I2CM_I2C_MASTER.c ****                                                     I2CM_INTR_MASTER_I2C_ARB_LOST |
 485:.\Generated_Source\PSoC4/I2CM_I2C_MASTER.c ****                                                     I2CM_INTR_MASTER_I2C_BUS_ERROR);
 486:.\Generated_Source\PSoC4/I2CM_I2C_MASTER.c **** 
 487:.\Generated_Source\PSoC4/I2CM_I2C_MASTER.c ****         /* Reset block in case of: LOST_ARB or BUS_ERR */
 488:.\Generated_Source\PSoC4/I2CM_I2C_MASTER.c ****         if(0u != resetIp)
 744              		.loc 1 488 0
 745 00c4 FB68     		ldr	r3, [r7, #12]
 746 00c6 002B     		cmp	r3, #0
 747 00c8 0CD0     		beq	.L37
 489:.\Generated_Source\PSoC4/I2CM_I2C_MASTER.c ****         {
 490:.\Generated_Source\PSoC4/I2CM_I2C_MASTER.c ****             I2CM_SCB_SW_RESET;
 748              		.loc 1 490 0
 749 00ca 0E4B     		ldr	r3, .L47+20
 750 00cc 0D4A     		ldr	r2, .L47+20
 751 00ce 1268     		ldr	r2, [r2]
 752 00d0 5200     		lsl	r2, r2, #1
 753 00d2 5208     		lsr	r2, r2, #1
 754 00d4 1A60     		str	r2, [r3]
 755 00d6 0B4B     		ldr	r3, .L47+20
 756 00d8 0A4A     		ldr	r2, .L47+20
 757 00da 1268     		ldr	r2, [r2]
 758 00dc 8021     		mov	r1, #128
 759 00de 0906     		lsl	r1, r1, #24
 760 00e0 0A43     		orr	r2, r1
 761 00e2 1A60     		str	r2, [r3]
 762              	.L37:
 491:.\Generated_Source\PSoC4/I2CM_I2C_MASTER.c ****         }
 492:.\Generated_Source\PSoC4/I2CM_I2C_MASTER.c ****     }
ARM GAS  C:\Users\DELL\AppData\Local\Temp\ccwus5ek.s 			page 23


 493:.\Generated_Source\PSoC4/I2CM_I2C_MASTER.c **** 
 494:.\Generated_Source\PSoC4/I2CM_I2C_MASTER.c ****     return(errStatus);
 763              		.loc 1 494 0
 764 00e4 BB68     		ldr	r3, [r7, #8]
 495:.\Generated_Source\PSoC4/I2CM_I2C_MASTER.c **** }
 765              		.loc 1 495 0
 766 00e6 181C     		mov	r0, r3
 767 00e8 BD46     		mov	sp, r7
 768 00ea 04B0     		add	sp, sp, #16
 769              		@ sp needed
 770 00ec 80BD     		pop	{r7, pc}
 771              	.L48:
 772 00ee C046     		.align	2
 773              	.L47:
 774 00f0 00000000 		.word	I2CM_state
 775 00f4 000F2540 		.word	1076170496
 776 00f8 17030000 		.word	791
 777 00fc 68002540 		.word	1076166760
 778 0100 40022540 		.word	1076167232
 779 0104 00002540 		.word	1076166656
 780              		.cfi_endproc
 781              	.LFE5:
 782              		.size	I2CM_I2CMasterSendRestart, .-I2CM_I2CMasterSendRestart
 783              		.section	.text.I2CM_I2CMasterSendStop,"ax",%progbits
 784              		.align	2
 785              		.global	I2CM_I2CMasterSendStop
 786              		.code	16
 787              		.thumb_func
 788              		.type	I2CM_I2CMasterSendStop, %function
 789              	I2CM_I2CMasterSendStop:
 790              	.LFB6:
 496:.\Generated_Source\PSoC4/I2CM_I2C_MASTER.c **** 
 497:.\Generated_Source\PSoC4/I2CM_I2C_MASTER.c **** 
 498:.\Generated_Source\PSoC4/I2CM_I2C_MASTER.c **** /*******************************************************************************
 499:.\Generated_Source\PSoC4/I2CM_I2C_MASTER.c **** * Function Name: I2CM_I2CMasterSendStop
 500:.\Generated_Source\PSoC4/I2CM_I2C_MASTER.c **** ********************************************************************************
 501:.\Generated_Source\PSoC4/I2CM_I2C_MASTER.c **** *
 502:.\Generated_Source\PSoC4/I2CM_I2C_MASTER.c **** * Summary:
 503:.\Generated_Source\PSoC4/I2CM_I2C_MASTER.c **** *  Generates Stop condition on the bus.
 504:.\Generated_Source\PSoC4/I2CM_I2C_MASTER.c **** *  At least one byte has to be read if start or restart condition with read
 505:.\Generated_Source\PSoC4/I2CM_I2C_MASTER.c **** *  direction was generated before.
 506:.\Generated_Source\PSoC4/I2CM_I2C_MASTER.c **** *  This function is blocking and does not return until a stop condition
 507:.\Generated_Source\PSoC4/I2CM_I2C_MASTER.c **** *  is generated or error occurred.
 508:.\Generated_Source\PSoC4/I2CM_I2C_MASTER.c **** *
 509:.\Generated_Source\PSoC4/I2CM_I2C_MASTER.c **** * Parameters:
 510:.\Generated_Source\PSoC4/I2CM_I2C_MASTER.c **** *  None
 511:.\Generated_Source\PSoC4/I2CM_I2C_MASTER.c **** *
 512:.\Generated_Source\PSoC4/I2CM_I2C_MASTER.c **** * Return:
 513:.\Generated_Source\PSoC4/I2CM_I2C_MASTER.c **** *  Error status
 514:.\Generated_Source\PSoC4/I2CM_I2C_MASTER.c **** *
 515:.\Generated_Source\PSoC4/I2CM_I2C_MASTER.c **** * Side Effects:
 516:.\Generated_Source\PSoC4/I2CM_I2C_MASTER.c **** *  A valid Start or ReStart condition must be generated before calling
 517:.\Generated_Source\PSoC4/I2CM_I2C_MASTER.c **** *  this function. This function does nothing if Start or ReStart condition
 518:.\Generated_Source\PSoC4/I2CM_I2C_MASTER.c **** *  failed before this function was called.
 519:.\Generated_Source\PSoC4/I2CM_I2C_MASTER.c **** *  For read transfer, at least one byte has to be read before Stop generation.
 520:.\Generated_Source\PSoC4/I2CM_I2C_MASTER.c **** *
 521:.\Generated_Source\PSoC4/I2CM_I2C_MASTER.c **** * Global variables:
ARM GAS  C:\Users\DELL\AppData\Local\Temp\ccwus5ek.s 			page 24


 522:.\Generated_Source\PSoC4/I2CM_I2C_MASTER.c **** *  I2CM_state - used to store current state of software FSM.
 523:.\Generated_Source\PSoC4/I2CM_I2C_MASTER.c **** *
 524:.\Generated_Source\PSoC4/I2CM_I2C_MASTER.c **** *******************************************************************************/
 525:.\Generated_Source\PSoC4/I2CM_I2C_MASTER.c **** uint32 I2CM_I2CMasterSendStop(void)
 526:.\Generated_Source\PSoC4/I2CM_I2C_MASTER.c **** {
 791              		.loc 1 526 0
 792              		.cfi_startproc
 793 0000 80B5     		push	{r7, lr}
 794              		.cfi_def_cfa_offset 8
 795              		.cfi_offset 7, -8
 796              		.cfi_offset 14, -4
 797 0002 82B0     		sub	sp, sp, #8
 798              		.cfi_def_cfa_offset 16
 799 0004 00AF     		add	r7, sp, #0
 800              		.cfi_def_cfa_register 7
 527:.\Generated_Source\PSoC4/I2CM_I2C_MASTER.c ****     uint32 resetIp;
 528:.\Generated_Source\PSoC4/I2CM_I2C_MASTER.c ****     uint32 errStatus;
 529:.\Generated_Source\PSoC4/I2CM_I2C_MASTER.c **** 
 530:.\Generated_Source\PSoC4/I2CM_I2C_MASTER.c ****     resetIp   = 0u;
 801              		.loc 1 530 0
 802 0006 0023     		mov	r3, #0
 803 0008 7B60     		str	r3, [r7, #4]
 531:.\Generated_Source\PSoC4/I2CM_I2C_MASTER.c ****     errStatus = I2CM_I2C_MSTR_NOT_READY;
 804              		.loc 1 531 0
 805 000a 0423     		mov	r3, #4
 806 000c 3B60     		str	r3, [r7]
 532:.\Generated_Source\PSoC4/I2CM_I2C_MASTER.c **** 
 533:.\Generated_Source\PSoC4/I2CM_I2C_MASTER.c ****     /* Check FSM state before generating Stop condition */
 534:.\Generated_Source\PSoC4/I2CM_I2C_MASTER.c ****     if(I2CM_CHECK_I2C_MASTER_ACTIVE)
 807              		.loc 1 534 0
 808 000e 264B     		ldr	r3, .L58
 809 0010 1B78     		ldrb	r3, [r3]
 810 0012 DBB2     		uxtb	r3, r3
 811 0014 2022     		mov	r2, #32
 812 0016 1340     		and	r3, r2
 813 0018 DBB2     		uxtb	r3, r3
 814 001a 002B     		cmp	r3, #0
 815 001c 3ED0     		beq	.L50
 535:.\Generated_Source\PSoC4/I2CM_I2C_MASTER.c ****     {
 536:.\Generated_Source\PSoC4/I2CM_I2C_MASTER.c ****         /*
 537:.\Generated_Source\PSoC4/I2CM_I2C_MASTER.c ****         * Write direction: generates Stop
 538:.\Generated_Source\PSoC4/I2CM_I2C_MASTER.c ****         * Read  direction: generates NACK and Stop
 539:.\Generated_Source\PSoC4/I2CM_I2C_MASTER.c ****         */
 540:.\Generated_Source\PSoC4/I2CM_I2C_MASTER.c ****         I2CM_I2C_MASTER_GENERATE_STOP;
 816              		.loc 1 540 0
 817 001e 234B     		ldr	r3, .L58+4
 818 0020 234A     		ldr	r2, .L58+8
 819 0022 1268     		ldr	r2, [r2]
 820 0024 2021     		mov	r1, #32
 821 0026 0A40     		and	r2, r1
 822 0028 01D0     		beq	.L51
 823              		.loc 1 540 0 is_stmt 0 discriminator 1
 824 002a 1822     		mov	r2, #24
 825 002c 00E0     		b	.L52
 826              	.L51:
 827              		.loc 1 540 0 discriminator 2
 828 002e 1022     		mov	r2, #16
ARM GAS  C:\Users\DELL\AppData\Local\Temp\ccwus5ek.s 			page 25


 829              	.L52:
 830              		.loc 1 540 0 discriminator 4
 831 0030 1A60     		str	r2, [r3]
 541:.\Generated_Source\PSoC4/I2CM_I2C_MASTER.c **** 
 542:.\Generated_Source\PSoC4/I2CM_I2C_MASTER.c ****         while(!I2CM_CHECK_INTR_MASTER(I2CM_INTR_MASTER_I2C_STOP     |
 832              		.loc 1 542 0 is_stmt 1 discriminator 4
 833 0032 C046     		mov	r8, r8
 834              	.L53:
 835              		.loc 1 542 0 is_stmt 0 discriminator 1
 836 0034 1F4B     		ldr	r3, .L58+12
 837 0036 1A68     		ldr	r2, [r3]
 838 0038 1223     		mov	r3, #18
 839 003a FF33     		add	r3, r3, #255
 840 003c 1340     		and	r3, r2
 841 003e F9D0     		beq	.L53
 543:.\Generated_Source\PSoC4/I2CM_I2C_MASTER.c ****                                                   I2CM_INTR_MASTER_I2C_ARB_LOST |
 544:.\Generated_Source\PSoC4/I2CM_I2C_MASTER.c ****                                                   I2CM_INTR_MASTER_I2C_BUS_ERROR))
 545:.\Generated_Source\PSoC4/I2CM_I2C_MASTER.c ****         {
 546:.\Generated_Source\PSoC4/I2CM_I2C_MASTER.c ****             /* Wait until Stop has been generated */
 547:.\Generated_Source\PSoC4/I2CM_I2C_MASTER.c ****         }
 548:.\Generated_Source\PSoC4/I2CM_I2C_MASTER.c **** 
 549:.\Generated_Source\PSoC4/I2CM_I2C_MASTER.c ****         /* Check Stop generation */
 550:.\Generated_Source\PSoC4/I2CM_I2C_MASTER.c ****         if(I2CM_CHECK_INTR_MASTER(I2CM_INTR_MASTER_I2C_STOP))
 842              		.loc 1 550 0 is_stmt 1
 843 0040 1C4B     		ldr	r3, .L58+12
 844 0042 1B68     		ldr	r3, [r3]
 845 0044 1022     		mov	r2, #16
 846 0046 1340     		and	r3, r2
 847 0048 02D0     		beq	.L54
 551:.\Generated_Source\PSoC4/I2CM_I2C_MASTER.c ****         {
 552:.\Generated_Source\PSoC4/I2CM_I2C_MASTER.c ****             errStatus = I2CM_I2C_MSTR_NO_ERROR;
 848              		.loc 1 552 0
 849 004a 0023     		mov	r3, #0
 850 004c 3B60     		str	r3, [r7]
 851 004e 0EE0     		b	.L55
 852              	.L54:
 553:.\Generated_Source\PSoC4/I2CM_I2C_MASTER.c ****         }
 554:.\Generated_Source\PSoC4/I2CM_I2C_MASTER.c ****         else if(I2CM_CHECK_INTR_MASTER(I2CM_INTR_MASTER_I2C_ARB_LOST))
 853              		.loc 1 554 0
 854 0050 184B     		ldr	r3, .L58+12
 855 0052 1B68     		ldr	r3, [r3]
 856 0054 0122     		mov	r2, #1
 857 0056 1340     		and	r3, r2
 858 0058 04D0     		beq	.L56
 555:.\Generated_Source\PSoC4/I2CM_I2C_MASTER.c ****         {
 556:.\Generated_Source\PSoC4/I2CM_I2C_MASTER.c ****             errStatus = I2CM_I2C_MSTR_ERR_ARB_LOST;
 859              		.loc 1 556 0
 860 005a 0123     		mov	r3, #1
 861 005c 3B60     		str	r3, [r7]
 557:.\Generated_Source\PSoC4/I2CM_I2C_MASTER.c ****             resetIp   = I2CM_I2C_RESET_ERROR;
 862              		.loc 1 557 0
 863 005e 0123     		mov	r3, #1
 864 0060 7B60     		str	r3, [r7, #4]
 865 0062 04E0     		b	.L55
 866              	.L56:
 558:.\Generated_Source\PSoC4/I2CM_I2C_MASTER.c ****         }
 559:.\Generated_Source\PSoC4/I2CM_I2C_MASTER.c ****         else /* I2CM_INTR_MASTER_I2C_BUS_ERROR is set */
ARM GAS  C:\Users\DELL\AppData\Local\Temp\ccwus5ek.s 			page 26


 560:.\Generated_Source\PSoC4/I2CM_I2C_MASTER.c ****         {
 561:.\Generated_Source\PSoC4/I2CM_I2C_MASTER.c ****             errStatus = I2CM_I2C_MSTR_ERR_BUS_ERR;
 867              		.loc 1 561 0
 868 0064 8023     		mov	r3, #128
 869 0066 5B00     		lsl	r3, r3, #1
 870 0068 3B60     		str	r3, [r7]
 562:.\Generated_Source\PSoC4/I2CM_I2C_MASTER.c ****             resetIp   = I2CM_I2C_RESET_ERROR;
 871              		.loc 1 562 0
 872 006a 0123     		mov	r3, #1
 873 006c 7B60     		str	r3, [r7, #4]
 874              	.L55:
 563:.\Generated_Source\PSoC4/I2CM_I2C_MASTER.c ****         }
 564:.\Generated_Source\PSoC4/I2CM_I2C_MASTER.c **** 
 565:.\Generated_Source\PSoC4/I2CM_I2C_MASTER.c ****         I2CM_ClearMasterInterruptSource(I2CM_INTR_MASTER_I2C_STOP     |
 875              		.loc 1 565 0
 876 006e 114B     		ldr	r3, .L58+12
 877 0070 1222     		mov	r2, #18
 878 0072 FF32     		add	r2, r2, #255
 879 0074 1A60     		str	r2, [r3]
 566:.\Generated_Source\PSoC4/I2CM_I2C_MASTER.c ****                                                     I2CM_INTR_MASTER_I2C_ARB_LOST |
 567:.\Generated_Source\PSoC4/I2CM_I2C_MASTER.c ****                                                     I2CM_INTR_MASTER_I2C_BUS_ERROR);
 568:.\Generated_Source\PSoC4/I2CM_I2C_MASTER.c **** 
 569:.\Generated_Source\PSoC4/I2CM_I2C_MASTER.c ****         I2CM_state = I2CM_I2C_FSM_IDLE;
 880              		.loc 1 569 0
 881 0076 0C4B     		ldr	r3, .L58
 882 0078 1022     		mov	r2, #16
 883 007a 1A70     		strb	r2, [r3]
 570:.\Generated_Source\PSoC4/I2CM_I2C_MASTER.c **** 
 571:.\Generated_Source\PSoC4/I2CM_I2C_MASTER.c ****         /* Reset block in case of: LOST_ARB or BUS_ERR */
 572:.\Generated_Source\PSoC4/I2CM_I2C_MASTER.c ****         if(0u != resetIp)
 884              		.loc 1 572 0
 885 007c 7B68     		ldr	r3, [r7, #4]
 886 007e 002B     		cmp	r3, #0
 887 0080 0CD0     		beq	.L50
 573:.\Generated_Source\PSoC4/I2CM_I2C_MASTER.c ****         {
 574:.\Generated_Source\PSoC4/I2CM_I2C_MASTER.c ****             I2CM_SCB_SW_RESET;
 888              		.loc 1 574 0
 889 0082 0D4B     		ldr	r3, .L58+16
 890 0084 0C4A     		ldr	r2, .L58+16
 891 0086 1268     		ldr	r2, [r2]
 892 0088 5200     		lsl	r2, r2, #1
 893 008a 5208     		lsr	r2, r2, #1
 894 008c 1A60     		str	r2, [r3]
 895 008e 0A4B     		ldr	r3, .L58+16
 896 0090 094A     		ldr	r2, .L58+16
 897 0092 1268     		ldr	r2, [r2]
 898 0094 8021     		mov	r1, #128
 899 0096 0906     		lsl	r1, r1, #24
 900 0098 0A43     		orr	r2, r1
 901 009a 1A60     		str	r2, [r3]
 902              	.L50:
 575:.\Generated_Source\PSoC4/I2CM_I2C_MASTER.c ****         }
 576:.\Generated_Source\PSoC4/I2CM_I2C_MASTER.c ****     }
 577:.\Generated_Source\PSoC4/I2CM_I2C_MASTER.c **** 
 578:.\Generated_Source\PSoC4/I2CM_I2C_MASTER.c ****     return(errStatus);
 903              		.loc 1 578 0
 904 009c 3B68     		ldr	r3, [r7]
ARM GAS  C:\Users\DELL\AppData\Local\Temp\ccwus5ek.s 			page 27


 579:.\Generated_Source\PSoC4/I2CM_I2C_MASTER.c **** }
 905              		.loc 1 579 0
 906 009e 181C     		mov	r0, r3
 907 00a0 BD46     		mov	sp, r7
 908 00a2 02B0     		add	sp, sp, #8
 909              		@ sp needed
 910 00a4 80BD     		pop	{r7, pc}
 911              	.L59:
 912 00a6 C046     		.align	2
 913              	.L58:
 914 00a8 00000000 		.word	I2CM_state
 915 00ac 68002540 		.word	1076166760
 916 00b0 64002540 		.word	1076166756
 917 00b4 000F2540 		.word	1076170496
 918 00b8 00002540 		.word	1076166656
 919              		.cfi_endproc
 920              	.LFE6:
 921              		.size	I2CM_I2CMasterSendStop, .-I2CM_I2CMasterSendStop
 922              		.section	.text.I2CM_I2CMasterWriteByte,"ax",%progbits
 923              		.align	2
 924              		.global	I2CM_I2CMasterWriteByte
 925              		.code	16
 926              		.thumb_func
 927              		.type	I2CM_I2CMasterWriteByte, %function
 928              	I2CM_I2CMasterWriteByte:
 929              	.LFB7:
 580:.\Generated_Source\PSoC4/I2CM_I2C_MASTER.c **** 
 581:.\Generated_Source\PSoC4/I2CM_I2C_MASTER.c **** 
 582:.\Generated_Source\PSoC4/I2CM_I2C_MASTER.c **** /*******************************************************************************
 583:.\Generated_Source\PSoC4/I2CM_I2C_MASTER.c **** * Function Name: I2CM_I2CMasterWriteByte
 584:.\Generated_Source\PSoC4/I2CM_I2C_MASTER.c **** ********************************************************************************
 585:.\Generated_Source\PSoC4/I2CM_I2C_MASTER.c **** *
 586:.\Generated_Source\PSoC4/I2CM_I2C_MASTER.c **** * Summary:
 587:.\Generated_Source\PSoC4/I2CM_I2C_MASTER.c **** *  Sends one byte to a slave.
 588:.\Generated_Source\PSoC4/I2CM_I2C_MASTER.c **** *  This function is blocking and does not return until byte is transmitted
 589:.\Generated_Source\PSoC4/I2CM_I2C_MASTER.c **** *  or error occurred.
 590:.\Generated_Source\PSoC4/I2CM_I2C_MASTER.c **** *
 591:.\Generated_Source\PSoC4/I2CM_I2C_MASTER.c **** * Parameters:
 592:.\Generated_Source\PSoC4/I2CM_I2C_MASTER.c **** *  data: The data byte to send to the slave.
 593:.\Generated_Source\PSoC4/I2CM_I2C_MASTER.c **** *
 594:.\Generated_Source\PSoC4/I2CM_I2C_MASTER.c **** * Return:
 595:.\Generated_Source\PSoC4/I2CM_I2C_MASTER.c **** *  Error status
 596:.\Generated_Source\PSoC4/I2CM_I2C_MASTER.c **** *
 597:.\Generated_Source\PSoC4/I2CM_I2C_MASTER.c **** * Side Effects:
 598:.\Generated_Source\PSoC4/I2CM_I2C_MASTER.c **** *  A valid Start or ReStart condition must be generated before calling
 599:.\Generated_Source\PSoC4/I2CM_I2C_MASTER.c **** *  this function. This function does nothing if Start or ReStart condition
 600:.\Generated_Source\PSoC4/I2CM_I2C_MASTER.c **** *  failed before this function was called.
 601:.\Generated_Source\PSoC4/I2CM_I2C_MASTER.c **** *
 602:.\Generated_Source\PSoC4/I2CM_I2C_MASTER.c **** * Global variables:
 603:.\Generated_Source\PSoC4/I2CM_I2C_MASTER.c **** *  I2CM_state - used to store current state of software FSM.
 604:.\Generated_Source\PSoC4/I2CM_I2C_MASTER.c **** *
 605:.\Generated_Source\PSoC4/I2CM_I2C_MASTER.c **** *******************************************************************************/
 606:.\Generated_Source\PSoC4/I2CM_I2C_MASTER.c **** uint32 I2CM_I2CMasterWriteByte(uint32 theByte)
 607:.\Generated_Source\PSoC4/I2CM_I2C_MASTER.c **** {
 930              		.loc 1 607 0
 931              		.cfi_startproc
 932 0000 80B5     		push	{r7, lr}
ARM GAS  C:\Users\DELL\AppData\Local\Temp\ccwus5ek.s 			page 28


 933              		.cfi_def_cfa_offset 8
 934              		.cfi_offset 7, -8
 935              		.cfi_offset 14, -4
 936 0002 84B0     		sub	sp, sp, #16
 937              		.cfi_def_cfa_offset 24
 938 0004 00AF     		add	r7, sp, #0
 939              		.cfi_def_cfa_register 7
 940 0006 7860     		str	r0, [r7, #4]
 608:.\Generated_Source\PSoC4/I2CM_I2C_MASTER.c ****     uint32 resetIp;
 609:.\Generated_Source\PSoC4/I2CM_I2C_MASTER.c ****     uint32 errStatus;
 610:.\Generated_Source\PSoC4/I2CM_I2C_MASTER.c **** 
 611:.\Generated_Source\PSoC4/I2CM_I2C_MASTER.c ****     resetIp   = 0u;
 941              		.loc 1 611 0
 942 0008 0023     		mov	r3, #0
 943 000a FB60     		str	r3, [r7, #12]
 612:.\Generated_Source\PSoC4/I2CM_I2C_MASTER.c ****     errStatus = I2CM_I2C_MSTR_NOT_READY;
 944              		.loc 1 612 0
 945 000c 0423     		mov	r3, #4
 946 000e BB60     		str	r3, [r7, #8]
 613:.\Generated_Source\PSoC4/I2CM_I2C_MASTER.c **** 
 614:.\Generated_Source\PSoC4/I2CM_I2C_MASTER.c ****     /* Check FSM state before write byte */
 615:.\Generated_Source\PSoC4/I2CM_I2C_MASTER.c ****     if(I2CM_CHECK_I2C_MASTER_ACTIVE)
 947              		.loc 1 615 0
 948 0010 2A4B     		ldr	r3, .L68
 949 0012 1B78     		ldrb	r3, [r3]
 950 0014 DBB2     		uxtb	r3, r3
 951 0016 2022     		mov	r2, #32
 952 0018 1340     		and	r3, r2
 953 001a DBB2     		uxtb	r3, r3
 954 001c 002B     		cmp	r3, #0
 955 001e 48D0     		beq	.L61
 616:.\Generated_Source\PSoC4/I2CM_I2C_MASTER.c ****     {
 617:.\Generated_Source\PSoC4/I2CM_I2C_MASTER.c ****         I2CM_TX_FIFO_WR_REG = theByte;
 956              		.loc 1 617 0
 957 0020 274B     		ldr	r3, .L68+4
 958 0022 7A68     		ldr	r2, [r7, #4]
 959 0024 1A60     		str	r2, [r3]
 618:.\Generated_Source\PSoC4/I2CM_I2C_MASTER.c **** 
 619:.\Generated_Source\PSoC4/I2CM_I2C_MASTER.c ****         while(!I2CM_CHECK_INTR_MASTER(I2CM_INTR_MASTER_I2C_ACK      |
 960              		.loc 1 619 0
 961 0026 C046     		mov	r8, r8
 962              	.L62:
 963              		.loc 1 619 0 is_stmt 0 discriminator 1
 964 0028 264B     		ldr	r3, .L68+8
 965 002a 1A68     		ldr	r2, [r3]
 966 002c 0823     		mov	r3, #8
 967 002e FF33     		add	r3, r3, #255
 968 0030 1340     		and	r3, r2
 969 0032 F9D0     		beq	.L62
 620:.\Generated_Source\PSoC4/I2CM_I2C_MASTER.c ****                                                   I2CM_INTR_MASTER_I2C_NACK     |
 621:.\Generated_Source\PSoC4/I2CM_I2C_MASTER.c ****                                                   I2CM_INTR_MASTER_I2C_ARB_LOST |
 622:.\Generated_Source\PSoC4/I2CM_I2C_MASTER.c ****                                                   I2CM_INTR_MASTER_I2C_BUS_ERROR))
 623:.\Generated_Source\PSoC4/I2CM_I2C_MASTER.c ****         {
 624:.\Generated_Source\PSoC4/I2CM_I2C_MASTER.c ****             /* Wait until byte has been transferred */
 625:.\Generated_Source\PSoC4/I2CM_I2C_MASTER.c ****         }
 626:.\Generated_Source\PSoC4/I2CM_I2C_MASTER.c **** 
 627:.\Generated_Source\PSoC4/I2CM_I2C_MASTER.c ****         /* Check results after byte was sent */
ARM GAS  C:\Users\DELL\AppData\Local\Temp\ccwus5ek.s 			page 29


 628:.\Generated_Source\PSoC4/I2CM_I2C_MASTER.c ****         if(I2CM_CHECK_INTR_MASTER(I2CM_INTR_MASTER_I2C_ACK))
 970              		.loc 1 628 0 is_stmt 1
 971 0034 234B     		ldr	r3, .L68+8
 972 0036 1B68     		ldr	r3, [r3]
 973 0038 0422     		mov	r2, #4
 974 003a 1340     		and	r3, r2
 975 003c 05D0     		beq	.L63
 629:.\Generated_Source\PSoC4/I2CM_I2C_MASTER.c ****         {
 630:.\Generated_Source\PSoC4/I2CM_I2C_MASTER.c ****             I2CM_state = I2CM_I2C_FSM_MSTR_HALT;
 976              		.loc 1 630 0
 977 003e 1F4B     		ldr	r3, .L68
 978 0040 6022     		mov	r2, #96
 979 0042 1A70     		strb	r2, [r3]
 631:.\Generated_Source\PSoC4/I2CM_I2C_MASTER.c ****                          errStatus = I2CM_I2C_MSTR_NO_ERROR;
 980              		.loc 1 631 0
 981 0044 0023     		mov	r3, #0
 982 0046 BB60     		str	r3, [r7, #8]
 983 0048 1FE0     		b	.L64
 984              	.L63:
 632:.\Generated_Source\PSoC4/I2CM_I2C_MASTER.c ****         }
 633:.\Generated_Source\PSoC4/I2CM_I2C_MASTER.c ****         else if(I2CM_CHECK_INTR_MASTER(I2CM_INTR_MASTER_I2C_NACK))
 985              		.loc 1 633 0
 986 004a 1E4B     		ldr	r3, .L68+8
 987 004c 1B68     		ldr	r3, [r3]
 988 004e 0222     		mov	r2, #2
 989 0050 1340     		and	r3, r2
 990 0052 05D0     		beq	.L65
 634:.\Generated_Source\PSoC4/I2CM_I2C_MASTER.c ****         {
 635:.\Generated_Source\PSoC4/I2CM_I2C_MASTER.c ****             I2CM_state = I2CM_I2C_FSM_MSTR_HALT;
 991              		.loc 1 635 0
 992 0054 194B     		ldr	r3, .L68
 993 0056 6022     		mov	r2, #96
 994 0058 1A70     		strb	r2, [r3]
 636:.\Generated_Source\PSoC4/I2CM_I2C_MASTER.c ****                          errStatus = I2CM_I2C_MSTR_ERR_LB_NAK;
 995              		.loc 1 636 0
 996 005a 0223     		mov	r3, #2
 997 005c BB60     		str	r3, [r7, #8]
 998 005e 14E0     		b	.L64
 999              	.L65:
 637:.\Generated_Source\PSoC4/I2CM_I2C_MASTER.c ****         }
 638:.\Generated_Source\PSoC4/I2CM_I2C_MASTER.c ****         else if(I2CM_CHECK_INTR_MASTER(I2CM_INTR_MASTER_I2C_ARB_LOST))
 1000              		.loc 1 638 0
 1001 0060 184B     		ldr	r3, .L68+8
 1002 0062 1B68     		ldr	r3, [r3]
 1003 0064 0122     		mov	r2, #1
 1004 0066 1340     		and	r3, r2
 1005 0068 07D0     		beq	.L66
 639:.\Generated_Source\PSoC4/I2CM_I2C_MASTER.c ****         {
 640:.\Generated_Source\PSoC4/I2CM_I2C_MASTER.c ****             I2CM_state = I2CM_I2C_FSM_IDLE;
 1006              		.loc 1 640 0
 1007 006a 144B     		ldr	r3, .L68
 1008 006c 1022     		mov	r2, #16
 1009 006e 1A70     		strb	r2, [r3]
 641:.\Generated_Source\PSoC4/I2CM_I2C_MASTER.c ****                          errStatus = I2CM_I2C_MSTR_ERR_ARB_LOST;
 1010              		.loc 1 641 0
 1011 0070 0123     		mov	r3, #1
 1012 0072 BB60     		str	r3, [r7, #8]
ARM GAS  C:\Users\DELL\AppData\Local\Temp\ccwus5ek.s 			page 30


 642:.\Generated_Source\PSoC4/I2CM_I2C_MASTER.c ****                          resetIp   = I2CM_I2C_RESET_ERROR;
 1013              		.loc 1 642 0
 1014 0074 0123     		mov	r3, #1
 1015 0076 FB60     		str	r3, [r7, #12]
 1016 0078 07E0     		b	.L64
 1017              	.L66:
 643:.\Generated_Source\PSoC4/I2CM_I2C_MASTER.c ****         }
 644:.\Generated_Source\PSoC4/I2CM_I2C_MASTER.c ****         else /* I2CM_INTR_MASTER_I2C_BUS_ERROR set is */
 645:.\Generated_Source\PSoC4/I2CM_I2C_MASTER.c ****         {
 646:.\Generated_Source\PSoC4/I2CM_I2C_MASTER.c ****             I2CM_state = I2CM_I2C_FSM_IDLE;
 1018              		.loc 1 646 0
 1019 007a 104B     		ldr	r3, .L68
 1020 007c 1022     		mov	r2, #16
 1021 007e 1A70     		strb	r2, [r3]
 647:.\Generated_Source\PSoC4/I2CM_I2C_MASTER.c ****                          errStatus = I2CM_I2C_MSTR_ERR_BUS_ERR;
 1022              		.loc 1 647 0
 1023 0080 8023     		mov	r3, #128
 1024 0082 5B00     		lsl	r3, r3, #1
 1025 0084 BB60     		str	r3, [r7, #8]
 648:.\Generated_Source\PSoC4/I2CM_I2C_MASTER.c ****                          resetIp   = I2CM_I2C_RESET_ERROR;
 1026              		.loc 1 648 0
 1027 0086 0123     		mov	r3, #1
 1028 0088 FB60     		str	r3, [r7, #12]
 1029              	.L64:
 649:.\Generated_Source\PSoC4/I2CM_I2C_MASTER.c ****         }
 650:.\Generated_Source\PSoC4/I2CM_I2C_MASTER.c **** 
 651:.\Generated_Source\PSoC4/I2CM_I2C_MASTER.c ****         I2CM_ClearMasterInterruptSource(I2CM_INTR_MASTER_I2C_ACK      |
 1030              		.loc 1 651 0
 1031 008a 0E4B     		ldr	r3, .L68+8
 1032 008c 0822     		mov	r2, #8
 1033 008e FF32     		add	r2, r2, #255
 1034 0090 1A60     		str	r2, [r3]
 652:.\Generated_Source\PSoC4/I2CM_I2C_MASTER.c ****                                                     I2CM_INTR_MASTER_I2C_NACK     |
 653:.\Generated_Source\PSoC4/I2CM_I2C_MASTER.c ****                                                     I2CM_INTR_MASTER_I2C_ARB_LOST |
 654:.\Generated_Source\PSoC4/I2CM_I2C_MASTER.c ****                                                     I2CM_INTR_MASTER_I2C_BUS_ERROR);
 655:.\Generated_Source\PSoC4/I2CM_I2C_MASTER.c **** 
 656:.\Generated_Source\PSoC4/I2CM_I2C_MASTER.c ****         /* Reset block in case of: LOST_ARB or BUS_ERR */
 657:.\Generated_Source\PSoC4/I2CM_I2C_MASTER.c ****         if(0u != resetIp)
 1035              		.loc 1 657 0
 1036 0092 FB68     		ldr	r3, [r7, #12]
 1037 0094 002B     		cmp	r3, #0
 1038 0096 0CD0     		beq	.L61
 658:.\Generated_Source\PSoC4/I2CM_I2C_MASTER.c ****         {
 659:.\Generated_Source\PSoC4/I2CM_I2C_MASTER.c ****             I2CM_SCB_SW_RESET;
 1039              		.loc 1 659 0
 1040 0098 0B4B     		ldr	r3, .L68+12
 1041 009a 0B4A     		ldr	r2, .L68+12
 1042 009c 1268     		ldr	r2, [r2]
 1043 009e 5200     		lsl	r2, r2, #1
 1044 00a0 5208     		lsr	r2, r2, #1
 1045 00a2 1A60     		str	r2, [r3]
 1046 00a4 084B     		ldr	r3, .L68+12
 1047 00a6 084A     		ldr	r2, .L68+12
 1048 00a8 1268     		ldr	r2, [r2]
 1049 00aa 8021     		mov	r1, #128
 1050 00ac 0906     		lsl	r1, r1, #24
 1051 00ae 0A43     		orr	r2, r1
ARM GAS  C:\Users\DELL\AppData\Local\Temp\ccwus5ek.s 			page 31


 1052 00b0 1A60     		str	r2, [r3]
 1053              	.L61:
 660:.\Generated_Source\PSoC4/I2CM_I2C_MASTER.c ****         }
 661:.\Generated_Source\PSoC4/I2CM_I2C_MASTER.c ****     }
 662:.\Generated_Source\PSoC4/I2CM_I2C_MASTER.c **** 
 663:.\Generated_Source\PSoC4/I2CM_I2C_MASTER.c ****     return(errStatus);
 1054              		.loc 1 663 0
 1055 00b2 BB68     		ldr	r3, [r7, #8]
 664:.\Generated_Source\PSoC4/I2CM_I2C_MASTER.c **** }
 1056              		.loc 1 664 0
 1057 00b4 181C     		mov	r0, r3
 1058 00b6 BD46     		mov	sp, r7
 1059 00b8 04B0     		add	sp, sp, #16
 1060              		@ sp needed
 1061 00ba 80BD     		pop	{r7, pc}
 1062              	.L69:
 1063              		.align	2
 1064              	.L68:
 1065 00bc 00000000 		.word	I2CM_state
 1066 00c0 40022540 		.word	1076167232
 1067 00c4 000F2540 		.word	1076170496
 1068 00c8 00002540 		.word	1076166656
 1069              		.cfi_endproc
 1070              	.LFE7:
 1071              		.size	I2CM_I2CMasterWriteByte, .-I2CM_I2CMasterWriteByte
 1072              		.section	.text.I2CM_I2CMasterReadByte,"ax",%progbits
 1073              		.align	2
 1074              		.global	I2CM_I2CMasterReadByte
 1075              		.code	16
 1076              		.thumb_func
 1077              		.type	I2CM_I2CMasterReadByte, %function
 1078              	I2CM_I2CMasterReadByte:
 1079              	.LFB8:
 665:.\Generated_Source\PSoC4/I2CM_I2C_MASTER.c **** 
 666:.\Generated_Source\PSoC4/I2CM_I2C_MASTER.c **** 
 667:.\Generated_Source\PSoC4/I2CM_I2C_MASTER.c **** /*******************************************************************************
 668:.\Generated_Source\PSoC4/I2CM_I2C_MASTER.c **** * Function Name: I2CM_I2CMasterReadByte
 669:.\Generated_Source\PSoC4/I2CM_I2C_MASTER.c **** ********************************************************************************
 670:.\Generated_Source\PSoC4/I2CM_I2C_MASTER.c **** *
 671:.\Generated_Source\PSoC4/I2CM_I2C_MASTER.c **** * Summary:
 672:.\Generated_Source\PSoC4/I2CM_I2C_MASTER.c **** *  Reads one byte from a slave and ACKs or NAKs received byte.
 673:.\Generated_Source\PSoC4/I2CM_I2C_MASTER.c **** *  This function does not generate NAK explicitly. The following call
 674:.\Generated_Source\PSoC4/I2CM_I2C_MASTER.c **** *  SCB_I2CMasterSendStop() or SCB_I2CMasterSendRestart() will generate NAK and
 675:.\Generated_Source\PSoC4/I2CM_I2C_MASTER.c **** *  Stop or ReStart condition appropriately.
 676:.\Generated_Source\PSoC4/I2CM_I2C_MASTER.c **** *  This function is blocking and does not return until byte is received
 677:.\Generated_Source\PSoC4/I2CM_I2C_MASTER.c **** *  or error occurred.
 678:.\Generated_Source\PSoC4/I2CM_I2C_MASTER.c **** *
 679:.\Generated_Source\PSoC4/I2CM_I2C_MASTER.c **** * Parameters:
 680:.\Generated_Source\PSoC4/I2CM_I2C_MASTER.c **** *  ackNack: Response to received byte.
 681:.\Generated_Source\PSoC4/I2CM_I2C_MASTER.c **** *
 682:.\Generated_Source\PSoC4/I2CM_I2C_MASTER.c **** * Return:
 683:.\Generated_Source\PSoC4/I2CM_I2C_MASTER.c **** *  Byte read from the slave. In case of error the MSB of returned data
 684:.\Generated_Source\PSoC4/I2CM_I2C_MASTER.c **** *  is set to 1.
 685:.\Generated_Source\PSoC4/I2CM_I2C_MASTER.c **** *
 686:.\Generated_Source\PSoC4/I2CM_I2C_MASTER.c **** * Side Effects:
 687:.\Generated_Source\PSoC4/I2CM_I2C_MASTER.c **** *  A valid Start or ReStart condition must be generated before calling this
 688:.\Generated_Source\PSoC4/I2CM_I2C_MASTER.c **** *  function. This function does nothing and returns invalid byte value
ARM GAS  C:\Users\DELL\AppData\Local\Temp\ccwus5ek.s 			page 32


 689:.\Generated_Source\PSoC4/I2CM_I2C_MASTER.c **** *  if Start or ReStart conditions failed before this function was called.
 690:.\Generated_Source\PSoC4/I2CM_I2C_MASTER.c **** *
 691:.\Generated_Source\PSoC4/I2CM_I2C_MASTER.c **** * Global variables:
 692:.\Generated_Source\PSoC4/I2CM_I2C_MASTER.c **** *  I2CM_state - used to store current state of software FSM.
 693:.\Generated_Source\PSoC4/I2CM_I2C_MASTER.c **** *
 694:.\Generated_Source\PSoC4/I2CM_I2C_MASTER.c **** *******************************************************************************/
 695:.\Generated_Source\PSoC4/I2CM_I2C_MASTER.c **** uint32 I2CM_I2CMasterReadByte(uint32 ackNack)
 696:.\Generated_Source\PSoC4/I2CM_I2C_MASTER.c **** {
 1080              		.loc 1 696 0
 1081              		.cfi_startproc
 1082 0000 80B5     		push	{r7, lr}
 1083              		.cfi_def_cfa_offset 8
 1084              		.cfi_offset 7, -8
 1085              		.cfi_offset 14, -4
 1086 0002 84B0     		sub	sp, sp, #16
 1087              		.cfi_def_cfa_offset 24
 1088 0004 00AF     		add	r7, sp, #0
 1089              		.cfi_def_cfa_register 7
 1090 0006 7860     		str	r0, [r7, #4]
 697:.\Generated_Source\PSoC4/I2CM_I2C_MASTER.c ****     uint32 theByte;
 698:.\Generated_Source\PSoC4/I2CM_I2C_MASTER.c **** 
 699:.\Generated_Source\PSoC4/I2CM_I2C_MASTER.c ****     /* Return invalid byte in case BUS_ERR happen during receiving */
 700:.\Generated_Source\PSoC4/I2CM_I2C_MASTER.c ****     theByte = I2CM_I2C_INVALID_BYTE;
 1091              		.loc 1 700 0
 1092 0008 0123     		mov	r3, #1
 1093 000a 5B42     		neg	r3, r3
 1094 000c FB60     		str	r3, [r7, #12]
 701:.\Generated_Source\PSoC4/I2CM_I2C_MASTER.c **** 
 702:.\Generated_Source\PSoC4/I2CM_I2C_MASTER.c ****     /* Check FSM state before read byte */
 703:.\Generated_Source\PSoC4/I2CM_I2C_MASTER.c ****     if(I2CM_CHECK_I2C_MASTER_ACTIVE)
 1095              		.loc 1 703 0
 1096 000e 1F4B     		ldr	r3, .L78
 1097 0010 1B78     		ldrb	r3, [r3]
 1098 0012 DBB2     		uxtb	r3, r3
 1099 0014 2022     		mov	r2, #32
 1100 0016 1340     		and	r3, r2
 1101 0018 DBB2     		uxtb	r3, r3
 1102 001a 002B     		cmp	r3, #0
 1103 001c 31D0     		beq	.L71
 704:.\Generated_Source\PSoC4/I2CM_I2C_MASTER.c ****     {
 705:.\Generated_Source\PSoC4/I2CM_I2C_MASTER.c ****         while((!I2CM_CHECK_INTR_RX(I2CM_INTR_RX_NOT_EMPTY)) &&
 1104              		.loc 1 705 0
 1105 001e C046     		mov	r8, r8
 1106              	.L73:
 1107              		.loc 1 705 0 is_stmt 0 discriminator 2
 1108 0020 1B4B     		ldr	r3, .L78+4
 1109 0022 1B68     		ldr	r3, [r3]
 1110 0024 0422     		mov	r2, #4
 1111 0026 1340     		and	r3, r2
 1112 0028 05D1     		bne	.L72
 706:.\Generated_Source\PSoC4/I2CM_I2C_MASTER.c ****               (!I2CM_CHECK_INTR_MASTER(I2CM_INTR_MASTER_I2C_ARB_LOST |
 1113              		.loc 1 706 0 is_stmt 1 discriminator 1
 1114 002a 1A4B     		ldr	r3, .L78+8
 1115 002c 1A68     		ldr	r2, [r3]
 1116 002e 0223     		mov	r3, #2
 1117 0030 FF33     		add	r3, r3, #255
 1118 0032 1340     		and	r3, r2
ARM GAS  C:\Users\DELL\AppData\Local\Temp\ccwus5ek.s 			page 33


 705:.\Generated_Source\PSoC4/I2CM_I2C_MASTER.c ****               (!I2CM_CHECK_INTR_MASTER(I2CM_INTR_MASTER_I2C_ARB_LOST |
 1119              		.loc 1 705 0 discriminator 1
 1120 0034 F4D0     		beq	.L73
 1121              	.L72:
 707:.\Generated_Source\PSoC4/I2CM_I2C_MASTER.c ****                                                   I2CM_INTR_MASTER_I2C_BUS_ERROR)))
 708:.\Generated_Source\PSoC4/I2CM_I2C_MASTER.c ****         {
 709:.\Generated_Source\PSoC4/I2CM_I2C_MASTER.c ****             /* Wait until byte has been received */
 710:.\Generated_Source\PSoC4/I2CM_I2C_MASTER.c ****         }
 711:.\Generated_Source\PSoC4/I2CM_I2C_MASTER.c **** 
 712:.\Generated_Source\PSoC4/I2CM_I2C_MASTER.c ****         /* Check the results after the byte was sent */
 713:.\Generated_Source\PSoC4/I2CM_I2C_MASTER.c ****         if(I2CM_CHECK_INTR_RX(I2CM_INTR_RX_NOT_EMPTY))
 1122              		.loc 1 713 0
 1123 0036 164B     		ldr	r3, .L78+4
 1124 0038 1B68     		ldr	r3, [r3]
 1125 003a 0422     		mov	r2, #4
 1126 003c 1340     		and	r3, r2
 1127 003e 10D0     		beq	.L74
 714:.\Generated_Source\PSoC4/I2CM_I2C_MASTER.c ****         {
 715:.\Generated_Source\PSoC4/I2CM_I2C_MASTER.c ****             theByte = I2CM_RX_FIFO_RD_REG;
 1128              		.loc 1 715 0
 1129 0040 154B     		ldr	r3, .L78+12
 1130 0042 1B68     		ldr	r3, [r3]
 1131 0044 FB60     		str	r3, [r7, #12]
 716:.\Generated_Source\PSoC4/I2CM_I2C_MASTER.c **** 
 717:.\Generated_Source\PSoC4/I2CM_I2C_MASTER.c ****             I2CM_ClearRxInterruptSource(I2CM_INTR_RX_NOT_EMPTY);
 1132              		.loc 1 717 0
 1133 0046 124B     		ldr	r3, .L78+4
 1134 0048 0422     		mov	r2, #4
 1135 004a 1A60     		str	r2, [r3]
 718:.\Generated_Source\PSoC4/I2CM_I2C_MASTER.c **** 
 719:.\Generated_Source\PSoC4/I2CM_I2C_MASTER.c ****             if(0u == ackNack)
 1136              		.loc 1 719 0
 1137 004c 7B68     		ldr	r3, [r7, #4]
 1138 004e 002B     		cmp	r3, #0
 1139 0050 03D1     		bne	.L75
 720:.\Generated_Source\PSoC4/I2CM_I2C_MASTER.c ****             {
 721:.\Generated_Source\PSoC4/I2CM_I2C_MASTER.c ****                 I2CM_I2C_MASTER_GENERATE_ACK;
 1140              		.loc 1 721 0
 1141 0052 124B     		ldr	r3, .L78+16
 1142 0054 0422     		mov	r2, #4
 1143 0056 1A60     		str	r2, [r3]
 1144 0058 13E0     		b	.L71
 1145              	.L75:
 722:.\Generated_Source\PSoC4/I2CM_I2C_MASTER.c ****             }
 723:.\Generated_Source\PSoC4/I2CM_I2C_MASTER.c ****             else
 724:.\Generated_Source\PSoC4/I2CM_I2C_MASTER.c ****             {
 725:.\Generated_Source\PSoC4/I2CM_I2C_MASTER.c ****                 /* NACK is generated by Stop or ReStart command */
 726:.\Generated_Source\PSoC4/I2CM_I2C_MASTER.c ****                 I2CM_state = I2CM_I2C_FSM_MSTR_HALT;
 1146              		.loc 1 726 0
 1147 005a 0C4B     		ldr	r3, .L78
 1148 005c 6022     		mov	r2, #96
 1149 005e 1A70     		strb	r2, [r3]
 1150 0060 0FE0     		b	.L71
 1151              	.L74:
 727:.\Generated_Source\PSoC4/I2CM_I2C_MASTER.c ****             }
 728:.\Generated_Source\PSoC4/I2CM_I2C_MASTER.c ****         }
 729:.\Generated_Source\PSoC4/I2CM_I2C_MASTER.c ****         else
ARM GAS  C:\Users\DELL\AppData\Local\Temp\ccwus5ek.s 			page 34


 730:.\Generated_Source\PSoC4/I2CM_I2C_MASTER.c ****         {
 731:.\Generated_Source\PSoC4/I2CM_I2C_MASTER.c ****             I2CM_ClearMasterInterruptSource(I2CM_INTR_MASTER_ALL);
 1152              		.loc 1 731 0
 1153 0062 0C4B     		ldr	r3, .L78+8
 1154 0064 0E4A     		ldr	r2, .L78+20
 1155 0066 1A60     		str	r2, [r3]
 732:.\Generated_Source\PSoC4/I2CM_I2C_MASTER.c **** 
 733:.\Generated_Source\PSoC4/I2CM_I2C_MASTER.c ****             /* Reset block in case of: LOST_ARB or BUS_ERR */
 734:.\Generated_Source\PSoC4/I2CM_I2C_MASTER.c ****             I2CM_SCB_SW_RESET;
 1156              		.loc 1 734 0
 1157 0068 0E4B     		ldr	r3, .L78+24
 1158 006a 0E4A     		ldr	r2, .L78+24
 1159 006c 1268     		ldr	r2, [r2]
 1160 006e 5200     		lsl	r2, r2, #1
 1161 0070 5208     		lsr	r2, r2, #1
 1162 0072 1A60     		str	r2, [r3]
 1163 0074 0B4B     		ldr	r3, .L78+24
 1164 0076 0B4A     		ldr	r2, .L78+24
 1165 0078 1268     		ldr	r2, [r2]
 1166 007a 8021     		mov	r1, #128
 1167 007c 0906     		lsl	r1, r1, #24
 1168 007e 0A43     		orr	r2, r1
 1169 0080 1A60     		str	r2, [r3]
 1170              	.L71:
 735:.\Generated_Source\PSoC4/I2CM_I2C_MASTER.c ****         }
 736:.\Generated_Source\PSoC4/I2CM_I2C_MASTER.c ****     }
 737:.\Generated_Source\PSoC4/I2CM_I2C_MASTER.c **** 
 738:.\Generated_Source\PSoC4/I2CM_I2C_MASTER.c ****     return(theByte);
 1171              		.loc 1 738 0
 1172 0082 FB68     		ldr	r3, [r7, #12]
 739:.\Generated_Source\PSoC4/I2CM_I2C_MASTER.c **** }
 1173              		.loc 1 739 0
 1174 0084 181C     		mov	r0, r3
 1175 0086 BD46     		mov	sp, r7
 1176 0088 04B0     		add	sp, sp, #16
 1177              		@ sp needed
 1178 008a 80BD     		pop	{r7, pc}
 1179              	.L79:
 1180              		.align	2
 1181              	.L78:
 1182 008c 00000000 		.word	I2CM_state
 1183 0090 C00F2540 		.word	1076170688
 1184 0094 000F2540 		.word	1076170496
 1185 0098 40032540 		.word	1076167488
 1186 009c 68002540 		.word	1076166760
 1187 00a0 17030000 		.word	791
 1188 00a4 00002540 		.word	1076166656
 1189              		.cfi_endproc
 1190              	.LFE8:
 1191              		.size	I2CM_I2CMasterReadByte, .-I2CM_I2CMasterReadByte
 1192              		.section	.text.I2CM_I2CMasterGetReadBufSize,"ax",%progbits
 1193              		.align	2
 1194              		.global	I2CM_I2CMasterGetReadBufSize
 1195              		.code	16
 1196              		.thumb_func
 1197              		.type	I2CM_I2CMasterGetReadBufSize, %function
 1198              	I2CM_I2CMasterGetReadBufSize:
ARM GAS  C:\Users\DELL\AppData\Local\Temp\ccwus5ek.s 			page 35


 1199              	.LFB9:
 740:.\Generated_Source\PSoC4/I2CM_I2C_MASTER.c **** 
 741:.\Generated_Source\PSoC4/I2CM_I2C_MASTER.c **** 
 742:.\Generated_Source\PSoC4/I2CM_I2C_MASTER.c **** /*******************************************************************************
 743:.\Generated_Source\PSoC4/I2CM_I2C_MASTER.c **** * Function Name: I2CM_I2CMasterGetReadBufSize
 744:.\Generated_Source\PSoC4/I2CM_I2C_MASTER.c **** ********************************************************************************
 745:.\Generated_Source\PSoC4/I2CM_I2C_MASTER.c **** *
 746:.\Generated_Source\PSoC4/I2CM_I2C_MASTER.c **** * Summary:
 747:.\Generated_Source\PSoC4/I2CM_I2C_MASTER.c **** *  Returns the number of bytes that has been transferred with an
 748:.\Generated_Source\PSoC4/I2CM_I2C_MASTER.c **** *  SCB_I2CMasterReadBuf() function.
 749:.\Generated_Source\PSoC4/I2CM_I2C_MASTER.c **** *
 750:.\Generated_Source\PSoC4/I2CM_I2C_MASTER.c **** * Parameters:
 751:.\Generated_Source\PSoC4/I2CM_I2C_MASTER.c **** *  None
 752:.\Generated_Source\PSoC4/I2CM_I2C_MASTER.c **** *
 753:.\Generated_Source\PSoC4/I2CM_I2C_MASTER.c **** * Return:
 754:.\Generated_Source\PSoC4/I2CM_I2C_MASTER.c **** *  Byte count of transfer. If the transfer is not yet complete, it returns
 755:.\Generated_Source\PSoC4/I2CM_I2C_MASTER.c **** *  the byte count transferred so far.
 756:.\Generated_Source\PSoC4/I2CM_I2C_MASTER.c **** *
 757:.\Generated_Source\PSoC4/I2CM_I2C_MASTER.c **** * Side Effects:
 758:.\Generated_Source\PSoC4/I2CM_I2C_MASTER.c **** *  This function returns not valid value if SCB_I2C_MSTAT_ERR_ARB_LOST
 759:.\Generated_Source\PSoC4/I2CM_I2C_MASTER.c **** *  or SCB_I2C_MSTAT_ERR_BUS_ERROR occurred while read transfer.
 760:.\Generated_Source\PSoC4/I2CM_I2C_MASTER.c **** *
 761:.\Generated_Source\PSoC4/I2CM_I2C_MASTER.c **** * Global variables:
 762:.\Generated_Source\PSoC4/I2CM_I2C_MASTER.c **** *  I2CM_mstrRdBufIndex - used to current index within master read
 763:.\Generated_Source\PSoC4/I2CM_I2C_MASTER.c **** *  buffer.
 764:.\Generated_Source\PSoC4/I2CM_I2C_MASTER.c **** *
 765:.\Generated_Source\PSoC4/I2CM_I2C_MASTER.c **** *******************************************************************************/
 766:.\Generated_Source\PSoC4/I2CM_I2C_MASTER.c **** uint32 I2CM_I2CMasterGetReadBufSize(void)
 767:.\Generated_Source\PSoC4/I2CM_I2C_MASTER.c **** {
 1200              		.loc 1 767 0
 1201              		.cfi_startproc
 1202 0000 80B5     		push	{r7, lr}
 1203              		.cfi_def_cfa_offset 8
 1204              		.cfi_offset 7, -8
 1205              		.cfi_offset 14, -4
 1206 0002 00AF     		add	r7, sp, #0
 1207              		.cfi_def_cfa_register 7
 768:.\Generated_Source\PSoC4/I2CM_I2C_MASTER.c ****     return(I2CM_mstrRdBufIndex);
 1208              		.loc 1 768 0
 1209 0004 024B     		ldr	r3, .L82
 1210 0006 1B68     		ldr	r3, [r3]
 769:.\Generated_Source\PSoC4/I2CM_I2C_MASTER.c **** }
 1211              		.loc 1 769 0
 1212 0008 181C     		mov	r0, r3
 1213 000a BD46     		mov	sp, r7
 1214              		@ sp needed
 1215 000c 80BD     		pop	{r7, pc}
 1216              	.L83:
 1217 000e C046     		.align	2
 1218              	.L82:
 1219 0010 00000000 		.word	I2CM_mstrRdBufIndex
 1220              		.cfi_endproc
 1221              	.LFE9:
 1222              		.size	I2CM_I2CMasterGetReadBufSize, .-I2CM_I2CMasterGetReadBufSize
 1223              		.section	.text.I2CM_I2CMasterGetWriteBufSize,"ax",%progbits
 1224              		.align	2
 1225              		.global	I2CM_I2CMasterGetWriteBufSize
ARM GAS  C:\Users\DELL\AppData\Local\Temp\ccwus5ek.s 			page 36


 1226              		.code	16
 1227              		.thumb_func
 1228              		.type	I2CM_I2CMasterGetWriteBufSize, %function
 1229              	I2CM_I2CMasterGetWriteBufSize:
 1230              	.LFB10:
 770:.\Generated_Source\PSoC4/I2CM_I2C_MASTER.c **** 
 771:.\Generated_Source\PSoC4/I2CM_I2C_MASTER.c **** 
 772:.\Generated_Source\PSoC4/I2CM_I2C_MASTER.c **** /*******************************************************************************
 773:.\Generated_Source\PSoC4/I2CM_I2C_MASTER.c **** * Function Name: I2CM_I2CMasterGetWriteBufSize
 774:.\Generated_Source\PSoC4/I2CM_I2C_MASTER.c **** ********************************************************************************
 775:.\Generated_Source\PSoC4/I2CM_I2C_MASTER.c **** *
 776:.\Generated_Source\PSoC4/I2CM_I2C_MASTER.c **** * Summary:
 777:.\Generated_Source\PSoC4/I2CM_I2C_MASTER.c **** *  Returns the number of bytes that have been transferred with an
 778:.\Generated_Source\PSoC4/I2CM_I2C_MASTER.c **** *  SCB_I2CMasterWriteBuf() function.
 779:.\Generated_Source\PSoC4/I2CM_I2C_MASTER.c **** *
 780:.\Generated_Source\PSoC4/I2CM_I2C_MASTER.c **** * Parameters:
 781:.\Generated_Source\PSoC4/I2CM_I2C_MASTER.c **** *  None
 782:.\Generated_Source\PSoC4/I2CM_I2C_MASTER.c **** *
 783:.\Generated_Source\PSoC4/I2CM_I2C_MASTER.c **** * Return:
 784:.\Generated_Source\PSoC4/I2CM_I2C_MASTER.c **** *  Byte count of transfer. If the transfer is not yet complete, it returns
 785:.\Generated_Source\PSoC4/I2CM_I2C_MASTER.c **** *  zero unit transfer completion.
 786:.\Generated_Source\PSoC4/I2CM_I2C_MASTER.c **** *
 787:.\Generated_Source\PSoC4/I2CM_I2C_MASTER.c **** * Side Effects:
 788:.\Generated_Source\PSoC4/I2CM_I2C_MASTER.c **** *  This function returns not valid value if SCB_I2C_MSTAT_ERR_ARB_LOST
 789:.\Generated_Source\PSoC4/I2CM_I2C_MASTER.c **** *  or SCB_I2C_MSTAT_ERR_BUS_ERROR occurred while read transfer.
 790:.\Generated_Source\PSoC4/I2CM_I2C_MASTER.c **** *
 791:.\Generated_Source\PSoC4/I2CM_I2C_MASTER.c **** * Global variables:
 792:.\Generated_Source\PSoC4/I2CM_I2C_MASTER.c **** *  I2CM_mstrWrBufIndex - used to current index within master write
 793:.\Generated_Source\PSoC4/I2CM_I2C_MASTER.c **** *  buffer.
 794:.\Generated_Source\PSoC4/I2CM_I2C_MASTER.c **** *
 795:.\Generated_Source\PSoC4/I2CM_I2C_MASTER.c **** *******************************************************************************/
 796:.\Generated_Source\PSoC4/I2CM_I2C_MASTER.c **** uint32 I2CM_I2CMasterGetWriteBufSize(void)
 797:.\Generated_Source\PSoC4/I2CM_I2C_MASTER.c **** {
 1231              		.loc 1 797 0
 1232              		.cfi_startproc
 1233 0000 80B5     		push	{r7, lr}
 1234              		.cfi_def_cfa_offset 8
 1235              		.cfi_offset 7, -8
 1236              		.cfi_offset 14, -4
 1237 0002 00AF     		add	r7, sp, #0
 1238              		.cfi_def_cfa_register 7
 798:.\Generated_Source\PSoC4/I2CM_I2C_MASTER.c ****     return(I2CM_mstrWrBufIndex);
 1239              		.loc 1 798 0
 1240 0004 024B     		ldr	r3, .L86
 1241 0006 1B68     		ldr	r3, [r3]
 799:.\Generated_Source\PSoC4/I2CM_I2C_MASTER.c **** }
 1242              		.loc 1 799 0
 1243 0008 181C     		mov	r0, r3
 1244 000a BD46     		mov	sp, r7
 1245              		@ sp needed
 1246 000c 80BD     		pop	{r7, pc}
 1247              	.L87:
 1248 000e C046     		.align	2
 1249              	.L86:
 1250 0010 00000000 		.word	I2CM_mstrWrBufIndex
 1251              		.cfi_endproc
 1252              	.LFE10:
ARM GAS  C:\Users\DELL\AppData\Local\Temp\ccwus5ek.s 			page 37


 1253              		.size	I2CM_I2CMasterGetWriteBufSize, .-I2CM_I2CMasterGetWriteBufSize
 1254              		.section	.text.I2CM_I2CMasterClearReadBuf,"ax",%progbits
 1255              		.align	2
 1256              		.global	I2CM_I2CMasterClearReadBuf
 1257              		.code	16
 1258              		.thumb_func
 1259              		.type	I2CM_I2CMasterClearReadBuf, %function
 1260              	I2CM_I2CMasterClearReadBuf:
 1261              	.LFB11:
 800:.\Generated_Source\PSoC4/I2CM_I2C_MASTER.c **** 
 801:.\Generated_Source\PSoC4/I2CM_I2C_MASTER.c **** 
 802:.\Generated_Source\PSoC4/I2CM_I2C_MASTER.c **** /*******************************************************************************
 803:.\Generated_Source\PSoC4/I2CM_I2C_MASTER.c **** * Function Name: I2CM_I2CMasterClearReadBuf
 804:.\Generated_Source\PSoC4/I2CM_I2C_MASTER.c **** ********************************************************************************
 805:.\Generated_Source\PSoC4/I2CM_I2C_MASTER.c **** *
 806:.\Generated_Source\PSoC4/I2CM_I2C_MASTER.c **** * Summary:
 807:.\Generated_Source\PSoC4/I2CM_I2C_MASTER.c **** *  Resets the read buffer pointer back to the first byte in the buffer.
 808:.\Generated_Source\PSoC4/I2CM_I2C_MASTER.c **** *
 809:.\Generated_Source\PSoC4/I2CM_I2C_MASTER.c **** * Parameters:
 810:.\Generated_Source\PSoC4/I2CM_I2C_MASTER.c **** *  None
 811:.\Generated_Source\PSoC4/I2CM_I2C_MASTER.c **** *
 812:.\Generated_Source\PSoC4/I2CM_I2C_MASTER.c **** * Return:
 813:.\Generated_Source\PSoC4/I2CM_I2C_MASTER.c **** *  None
 814:.\Generated_Source\PSoC4/I2CM_I2C_MASTER.c **** *
 815:.\Generated_Source\PSoC4/I2CM_I2C_MASTER.c **** * Global variables:
 816:.\Generated_Source\PSoC4/I2CM_I2C_MASTER.c **** *  I2CM_mstrRdBufIndex - used to current index within master read
 817:.\Generated_Source\PSoC4/I2CM_I2C_MASTER.c **** *   buffer.
 818:.\Generated_Source\PSoC4/I2CM_I2C_MASTER.c **** *  I2CM_mstrStatus - used to store current status of I2C Master.
 819:.\Generated_Source\PSoC4/I2CM_I2C_MASTER.c **** *
 820:.\Generated_Source\PSoC4/I2CM_I2C_MASTER.c **** *******************************************************************************/
 821:.\Generated_Source\PSoC4/I2CM_I2C_MASTER.c **** void I2CM_I2CMasterClearReadBuf(void)
 822:.\Generated_Source\PSoC4/I2CM_I2C_MASTER.c **** {
 1262              		.loc 1 822 0
 1263              		.cfi_startproc
 1264 0000 80B5     		push	{r7, lr}
 1265              		.cfi_def_cfa_offset 8
 1266              		.cfi_offset 7, -8
 1267              		.cfi_offset 14, -4
 1268 0002 00AF     		add	r7, sp, #0
 1269              		.cfi_def_cfa_register 7
 823:.\Generated_Source\PSoC4/I2CM_I2C_MASTER.c ****     I2CM_DisableInt();  /* Lock from interruption */
 1270              		.loc 1 823 0
 1271 0004 0A20     		mov	r0, #10
 1272 0006 FFF7FEFF 		bl	CyIntDisable
 824:.\Generated_Source\PSoC4/I2CM_I2C_MASTER.c **** 
 825:.\Generated_Source\PSoC4/I2CM_I2C_MASTER.c ****     I2CM_mstrRdBufIndex = 0u;
 1273              		.loc 1 825 0
 1274 000a 084B     		ldr	r3, .L89
 1275 000c 0022     		mov	r2, #0
 1276 000e 1A60     		str	r2, [r3]
 826:.\Generated_Source\PSoC4/I2CM_I2C_MASTER.c ****     I2CM_mstrStatus    &= (uint16) ~I2CM_I2C_MSTAT_RD_CMPLT;
 1277              		.loc 1 826 0
 1278 0010 074B     		ldr	r3, .L89+4
 1279 0012 1B88     		ldrh	r3, [r3]
 1280 0014 9BB2     		uxth	r3, r3
 1281 0016 0122     		mov	r2, #1
 1282 0018 9343     		bic	r3, r2
ARM GAS  C:\Users\DELL\AppData\Local\Temp\ccwus5ek.s 			page 38


 1283 001a 9AB2     		uxth	r2, r3
 1284 001c 044B     		ldr	r3, .L89+4
 1285 001e 1A80     		strh	r2, [r3]
 827:.\Generated_Source\PSoC4/I2CM_I2C_MASTER.c **** 
 828:.\Generated_Source\PSoC4/I2CM_I2C_MASTER.c ****     I2CM_EnableInt();   /* Release lock */
 1286              		.loc 1 828 0
 1287 0020 0A20     		mov	r0, #10
 1288 0022 FFF7FEFF 		bl	CyIntEnable
 829:.\Generated_Source\PSoC4/I2CM_I2C_MASTER.c **** }
 1289              		.loc 1 829 0
 1290 0026 BD46     		mov	sp, r7
 1291              		@ sp needed
 1292 0028 80BD     		pop	{r7, pc}
 1293              	.L90:
 1294 002a C046     		.align	2
 1295              	.L89:
 1296 002c 00000000 		.word	I2CM_mstrRdBufIndex
 1297 0030 00000000 		.word	I2CM_mstrStatus
 1298              		.cfi_endproc
 1299              	.LFE11:
 1300              		.size	I2CM_I2CMasterClearReadBuf, .-I2CM_I2CMasterClearReadBuf
 1301              		.section	.text.I2CM_I2CMasterClearWriteBuf,"ax",%progbits
 1302              		.align	2
 1303              		.global	I2CM_I2CMasterClearWriteBuf
 1304              		.code	16
 1305              		.thumb_func
 1306              		.type	I2CM_I2CMasterClearWriteBuf, %function
 1307              	I2CM_I2CMasterClearWriteBuf:
 1308              	.LFB12:
 830:.\Generated_Source\PSoC4/I2CM_I2C_MASTER.c **** 
 831:.\Generated_Source\PSoC4/I2CM_I2C_MASTER.c **** 
 832:.\Generated_Source\PSoC4/I2CM_I2C_MASTER.c **** /*******************************************************************************
 833:.\Generated_Source\PSoC4/I2CM_I2C_MASTER.c **** * Function Name: I2CM_I2CMasterClearWriteBuf
 834:.\Generated_Source\PSoC4/I2CM_I2C_MASTER.c **** ********************************************************************************
 835:.\Generated_Source\PSoC4/I2CM_I2C_MASTER.c **** *
 836:.\Generated_Source\PSoC4/I2CM_I2C_MASTER.c **** * Summary:
 837:.\Generated_Source\PSoC4/I2CM_I2C_MASTER.c **** *  Resets the write buffer pointer back to the first byte in the buffer.
 838:.\Generated_Source\PSoC4/I2CM_I2C_MASTER.c **** *
 839:.\Generated_Source\PSoC4/I2CM_I2C_MASTER.c **** * Parameters:
 840:.\Generated_Source\PSoC4/I2CM_I2C_MASTER.c **** *  None
 841:.\Generated_Source\PSoC4/I2CM_I2C_MASTER.c **** *
 842:.\Generated_Source\PSoC4/I2CM_I2C_MASTER.c **** * Return:
 843:.\Generated_Source\PSoC4/I2CM_I2C_MASTER.c **** *  None
 844:.\Generated_Source\PSoC4/I2CM_I2C_MASTER.c **** *
 845:.\Generated_Source\PSoC4/I2CM_I2C_MASTER.c **** * Global variables:
 846:.\Generated_Source\PSoC4/I2CM_I2C_MASTER.c **** *  I2CM_mstrRdBufIndex - used to current index within master read
 847:.\Generated_Source\PSoC4/I2CM_I2C_MASTER.c **** *   buffer.
 848:.\Generated_Source\PSoC4/I2CM_I2C_MASTER.c **** *  I2CM_mstrStatus - used to store current status of I2C Master.
 849:.\Generated_Source\PSoC4/I2CM_I2C_MASTER.c **** *
 850:.\Generated_Source\PSoC4/I2CM_I2C_MASTER.c **** *******************************************************************************/
 851:.\Generated_Source\PSoC4/I2CM_I2C_MASTER.c **** void I2CM_I2CMasterClearWriteBuf(void)
 852:.\Generated_Source\PSoC4/I2CM_I2C_MASTER.c **** {
 1309              		.loc 1 852 0
 1310              		.cfi_startproc
 1311 0000 80B5     		push	{r7, lr}
 1312              		.cfi_def_cfa_offset 8
 1313              		.cfi_offset 7, -8
ARM GAS  C:\Users\DELL\AppData\Local\Temp\ccwus5ek.s 			page 39


 1314              		.cfi_offset 14, -4
 1315 0002 00AF     		add	r7, sp, #0
 1316              		.cfi_def_cfa_register 7
 853:.\Generated_Source\PSoC4/I2CM_I2C_MASTER.c ****     I2CM_DisableInt();  /* Lock from interruption */
 1317              		.loc 1 853 0
 1318 0004 0A20     		mov	r0, #10
 1319 0006 FFF7FEFF 		bl	CyIntDisable
 854:.\Generated_Source\PSoC4/I2CM_I2C_MASTER.c **** 
 855:.\Generated_Source\PSoC4/I2CM_I2C_MASTER.c ****     I2CM_mstrWrBufIndex = 0u;
 1320              		.loc 1 855 0
 1321 000a 084B     		ldr	r3, .L92
 1322 000c 0022     		mov	r2, #0
 1323 000e 1A60     		str	r2, [r3]
 856:.\Generated_Source\PSoC4/I2CM_I2C_MASTER.c ****     I2CM_mstrStatus    &= (uint16) ~I2CM_I2C_MSTAT_WR_CMPLT;
 1324              		.loc 1 856 0
 1325 0010 074B     		ldr	r3, .L92+4
 1326 0012 1B88     		ldrh	r3, [r3]
 1327 0014 9BB2     		uxth	r3, r3
 1328 0016 0222     		mov	r2, #2
 1329 0018 9343     		bic	r3, r2
 1330 001a 9AB2     		uxth	r2, r3
 1331 001c 044B     		ldr	r3, .L92+4
 1332 001e 1A80     		strh	r2, [r3]
 857:.\Generated_Source\PSoC4/I2CM_I2C_MASTER.c **** 
 858:.\Generated_Source\PSoC4/I2CM_I2C_MASTER.c ****     I2CM_EnableInt();   /* Release lock */
 1333              		.loc 1 858 0
 1334 0020 0A20     		mov	r0, #10
 1335 0022 FFF7FEFF 		bl	CyIntEnable
 859:.\Generated_Source\PSoC4/I2CM_I2C_MASTER.c **** }
 1336              		.loc 1 859 0
 1337 0026 BD46     		mov	sp, r7
 1338              		@ sp needed
 1339 0028 80BD     		pop	{r7, pc}
 1340              	.L93:
 1341 002a C046     		.align	2
 1342              	.L92:
 1343 002c 00000000 		.word	I2CM_mstrWrBufIndex
 1344 0030 00000000 		.word	I2CM_mstrStatus
 1345              		.cfi_endproc
 1346              	.LFE12:
 1347              		.size	I2CM_I2CMasterClearWriteBuf, .-I2CM_I2CMasterClearWriteBuf
 1348              		.section	.text.I2CM_I2CMasterStatus,"ax",%progbits
 1349              		.align	2
 1350              		.global	I2CM_I2CMasterStatus
 1351              		.code	16
 1352              		.thumb_func
 1353              		.type	I2CM_I2CMasterStatus, %function
 1354              	I2CM_I2CMasterStatus:
 1355              	.LFB13:
 860:.\Generated_Source\PSoC4/I2CM_I2C_MASTER.c **** 
 861:.\Generated_Source\PSoC4/I2CM_I2C_MASTER.c **** 
 862:.\Generated_Source\PSoC4/I2CM_I2C_MASTER.c **** /*******************************************************************************
 863:.\Generated_Source\PSoC4/I2CM_I2C_MASTER.c **** * Function Name: I2CM_I2CMasterStatus
 864:.\Generated_Source\PSoC4/I2CM_I2C_MASTER.c **** ********************************************************************************
 865:.\Generated_Source\PSoC4/I2CM_I2C_MASTER.c **** *
 866:.\Generated_Source\PSoC4/I2CM_I2C_MASTER.c **** * Summary:
 867:.\Generated_Source\PSoC4/I2CM_I2C_MASTER.c **** *  Returns the master's communication status.
ARM GAS  C:\Users\DELL\AppData\Local\Temp\ccwus5ek.s 			page 40


 868:.\Generated_Source\PSoC4/I2CM_I2C_MASTER.c **** *
 869:.\Generated_Source\PSoC4/I2CM_I2C_MASTER.c **** * Parameters:
 870:.\Generated_Source\PSoC4/I2CM_I2C_MASTER.c **** *  None
 871:.\Generated_Source\PSoC4/I2CM_I2C_MASTER.c **** *
 872:.\Generated_Source\PSoC4/I2CM_I2C_MASTER.c **** * Return:
 873:.\Generated_Source\PSoC4/I2CM_I2C_MASTER.c **** *  Current status of I2C master.
 874:.\Generated_Source\PSoC4/I2CM_I2C_MASTER.c **** *
 875:.\Generated_Source\PSoC4/I2CM_I2C_MASTER.c **** * Global variables:
 876:.\Generated_Source\PSoC4/I2CM_I2C_MASTER.c **** *  I2CM_mstrStatus - used to store current status of I2C Master.
 877:.\Generated_Source\PSoC4/I2CM_I2C_MASTER.c **** *
 878:.\Generated_Source\PSoC4/I2CM_I2C_MASTER.c **** *******************************************************************************/
 879:.\Generated_Source\PSoC4/I2CM_I2C_MASTER.c **** uint32 I2CM_I2CMasterStatus(void)
 880:.\Generated_Source\PSoC4/I2CM_I2C_MASTER.c **** {
 1356              		.loc 1 880 0
 1357              		.cfi_startproc
 1358 0000 80B5     		push	{r7, lr}
 1359              		.cfi_def_cfa_offset 8
 1360              		.cfi_offset 7, -8
 1361              		.cfi_offset 14, -4
 1362 0002 82B0     		sub	sp, sp, #8
 1363              		.cfi_def_cfa_offset 16
 1364 0004 00AF     		add	r7, sp, #0
 1365              		.cfi_def_cfa_register 7
 881:.\Generated_Source\PSoC4/I2CM_I2C_MASTER.c ****     uint32 status;
 882:.\Generated_Source\PSoC4/I2CM_I2C_MASTER.c **** 
 883:.\Generated_Source\PSoC4/I2CM_I2C_MASTER.c ****     I2CM_DisableInt();  /* Lock from interruption */
 1366              		.loc 1 883 0
 1367 0006 0A20     		mov	r0, #10
 1368 0008 FFF7FEFF 		bl	CyIntDisable
 884:.\Generated_Source\PSoC4/I2CM_I2C_MASTER.c **** 
 885:.\Generated_Source\PSoC4/I2CM_I2C_MASTER.c ****     status = (uint32) I2CM_mstrStatus;
 1369              		.loc 1 885 0
 1370 000c 0B4B     		ldr	r3, .L97
 1371 000e 1B88     		ldrh	r3, [r3]
 1372 0010 9BB2     		uxth	r3, r3
 1373 0012 7B60     		str	r3, [r7, #4]
 886:.\Generated_Source\PSoC4/I2CM_I2C_MASTER.c **** 
 887:.\Generated_Source\PSoC4/I2CM_I2C_MASTER.c ****     if (I2CM_CHECK_I2C_MASTER_ACTIVE)
 1374              		.loc 1 887 0
 1375 0014 0A4B     		ldr	r3, .L97+4
 1376 0016 1B78     		ldrb	r3, [r3]
 1377 0018 DBB2     		uxtb	r3, r3
 1378 001a 2022     		mov	r2, #32
 1379 001c 1340     		and	r3, r2
 1380 001e DBB2     		uxtb	r3, r3
 1381 0020 002B     		cmp	r3, #0
 1382 0022 03D0     		beq	.L95
 888:.\Generated_Source\PSoC4/I2CM_I2C_MASTER.c ****     {
 889:.\Generated_Source\PSoC4/I2CM_I2C_MASTER.c ****         /* Add status of master pending transaction: MSTAT_XFER_INP */
 890:.\Generated_Source\PSoC4/I2CM_I2C_MASTER.c ****         status |= (uint32) I2CM_I2C_MSTAT_XFER_INP;
 1383              		.loc 1 890 0
 1384 0024 7B68     		ldr	r3, [r7, #4]
 1385 0026 0422     		mov	r2, #4
 1386 0028 1343     		orr	r3, r2
 1387 002a 7B60     		str	r3, [r7, #4]
 1388              	.L95:
 891:.\Generated_Source\PSoC4/I2CM_I2C_MASTER.c ****     }
ARM GAS  C:\Users\DELL\AppData\Local\Temp\ccwus5ek.s 			page 41


 892:.\Generated_Source\PSoC4/I2CM_I2C_MASTER.c **** 
 893:.\Generated_Source\PSoC4/I2CM_I2C_MASTER.c ****     I2CM_EnableInt();   /* Release lock */
 1389              		.loc 1 893 0
 1390 002c 0A20     		mov	r0, #10
 1391 002e FFF7FEFF 		bl	CyIntEnable
 894:.\Generated_Source\PSoC4/I2CM_I2C_MASTER.c **** 
 895:.\Generated_Source\PSoC4/I2CM_I2C_MASTER.c ****     return(status);
 1392              		.loc 1 895 0
 1393 0032 7B68     		ldr	r3, [r7, #4]
 896:.\Generated_Source\PSoC4/I2CM_I2C_MASTER.c **** }
 1394              		.loc 1 896 0
 1395 0034 181C     		mov	r0, r3
 1396 0036 BD46     		mov	sp, r7
 1397 0038 02B0     		add	sp, sp, #8
 1398              		@ sp needed
 1399 003a 80BD     		pop	{r7, pc}
 1400              	.L98:
 1401              		.align	2
 1402              	.L97:
 1403 003c 00000000 		.word	I2CM_mstrStatus
 1404 0040 00000000 		.word	I2CM_state
 1405              		.cfi_endproc
 1406              	.LFE13:
 1407              		.size	I2CM_I2CMasterStatus, .-I2CM_I2CMasterStatus
 1408              		.section	.text.I2CM_I2CMasterClearStatus,"ax",%progbits
 1409              		.align	2
 1410              		.global	I2CM_I2CMasterClearStatus
 1411              		.code	16
 1412              		.thumb_func
 1413              		.type	I2CM_I2CMasterClearStatus, %function
 1414              	I2CM_I2CMasterClearStatus:
 1415              	.LFB14:
 897:.\Generated_Source\PSoC4/I2CM_I2C_MASTER.c **** 
 898:.\Generated_Source\PSoC4/I2CM_I2C_MASTER.c **** 
 899:.\Generated_Source\PSoC4/I2CM_I2C_MASTER.c **** /*******************************************************************************
 900:.\Generated_Source\PSoC4/I2CM_I2C_MASTER.c **** * Function Name: I2CM_I2CMasterClearStatus
 901:.\Generated_Source\PSoC4/I2CM_I2C_MASTER.c **** ********************************************************************************
 902:.\Generated_Source\PSoC4/I2CM_I2C_MASTER.c **** *
 903:.\Generated_Source\PSoC4/I2CM_I2C_MASTER.c **** * Summary:
 904:.\Generated_Source\PSoC4/I2CM_I2C_MASTER.c **** *  Clears all status flags and returns the master status.
 905:.\Generated_Source\PSoC4/I2CM_I2C_MASTER.c **** *
 906:.\Generated_Source\PSoC4/I2CM_I2C_MASTER.c **** * Parameters:
 907:.\Generated_Source\PSoC4/I2CM_I2C_MASTER.c **** *  None
 908:.\Generated_Source\PSoC4/I2CM_I2C_MASTER.c **** *
 909:.\Generated_Source\PSoC4/I2CM_I2C_MASTER.c **** * Return:
 910:.\Generated_Source\PSoC4/I2CM_I2C_MASTER.c **** *  Current status of I2C master.
 911:.\Generated_Source\PSoC4/I2CM_I2C_MASTER.c **** *
 912:.\Generated_Source\PSoC4/I2CM_I2C_MASTER.c **** * Global variables:
 913:.\Generated_Source\PSoC4/I2CM_I2C_MASTER.c **** *  I2CM_mstrStatus - used to store current status of I2C Master.
 914:.\Generated_Source\PSoC4/I2CM_I2C_MASTER.c **** *
 915:.\Generated_Source\PSoC4/I2CM_I2C_MASTER.c **** *******************************************************************************/
 916:.\Generated_Source\PSoC4/I2CM_I2C_MASTER.c **** uint32 I2CM_I2CMasterClearStatus(void)
 917:.\Generated_Source\PSoC4/I2CM_I2C_MASTER.c **** {
 1416              		.loc 1 917 0
 1417              		.cfi_startproc
 1418 0000 80B5     		push	{r7, lr}
 1419              		.cfi_def_cfa_offset 8
ARM GAS  C:\Users\DELL\AppData\Local\Temp\ccwus5ek.s 			page 42


 1420              		.cfi_offset 7, -8
 1421              		.cfi_offset 14, -4
 1422 0002 82B0     		sub	sp, sp, #8
 1423              		.cfi_def_cfa_offset 16
 1424 0004 00AF     		add	r7, sp, #0
 1425              		.cfi_def_cfa_register 7
 918:.\Generated_Source\PSoC4/I2CM_I2C_MASTER.c ****     uint32 status;
 919:.\Generated_Source\PSoC4/I2CM_I2C_MASTER.c **** 
 920:.\Generated_Source\PSoC4/I2CM_I2C_MASTER.c ****     I2CM_DisableInt();  /* Lock from interruption */
 1426              		.loc 1 920 0
 1427 0006 0A20     		mov	r0, #10
 1428 0008 FFF7FEFF 		bl	CyIntDisable
 921:.\Generated_Source\PSoC4/I2CM_I2C_MASTER.c **** 
 922:.\Generated_Source\PSoC4/I2CM_I2C_MASTER.c ****     /* Read and clear master status */
 923:.\Generated_Source\PSoC4/I2CM_I2C_MASTER.c ****     status = (uint32) I2CM_mstrStatus;
 1429              		.loc 1 923 0
 1430 000c 074B     		ldr	r3, .L101
 1431 000e 1B88     		ldrh	r3, [r3]
 1432 0010 9BB2     		uxth	r3, r3
 1433 0012 7B60     		str	r3, [r7, #4]
 924:.\Generated_Source\PSoC4/I2CM_I2C_MASTER.c ****     I2CM_mstrStatus = I2CM_I2C_MSTAT_CLEAR;
 1434              		.loc 1 924 0
 1435 0014 054B     		ldr	r3, .L101
 1436 0016 0022     		mov	r2, #0
 1437 0018 1A80     		strh	r2, [r3]
 925:.\Generated_Source\PSoC4/I2CM_I2C_MASTER.c **** 
 926:.\Generated_Source\PSoC4/I2CM_I2C_MASTER.c ****     I2CM_EnableInt();   /* Release lock */
 1438              		.loc 1 926 0
 1439 001a 0A20     		mov	r0, #10
 1440 001c FFF7FEFF 		bl	CyIntEnable
 927:.\Generated_Source\PSoC4/I2CM_I2C_MASTER.c **** 
 928:.\Generated_Source\PSoC4/I2CM_I2C_MASTER.c ****     return(status);
 1441              		.loc 1 928 0
 1442 0020 7B68     		ldr	r3, [r7, #4]
 929:.\Generated_Source\PSoC4/I2CM_I2C_MASTER.c **** }
 1443              		.loc 1 929 0
 1444 0022 181C     		mov	r0, r3
 1445 0024 BD46     		mov	sp, r7
 1446 0026 02B0     		add	sp, sp, #8
 1447              		@ sp needed
 1448 0028 80BD     		pop	{r7, pc}
 1449              	.L102:
 1450 002a C046     		.align	2
 1451              	.L101:
 1452 002c 00000000 		.word	I2CM_mstrStatus
 1453              		.cfi_endproc
 1454              	.LFE14:
 1455              		.size	I2CM_I2CMasterClearStatus, .-I2CM_I2CMasterClearStatus
 1456              		.section	.text.I2CM_I2CReStartGeneration,"ax",%progbits
 1457              		.align	2
 1458              		.global	I2CM_I2CReStartGeneration
 1459              		.code	16
 1460              		.thumb_func
 1461              		.type	I2CM_I2CReStartGeneration, %function
 1462              	I2CM_I2CReStartGeneration:
 1463              	.LFB15:
 930:.\Generated_Source\PSoC4/I2CM_I2C_MASTER.c **** 
ARM GAS  C:\Users\DELL\AppData\Local\Temp\ccwus5ek.s 			page 43


 931:.\Generated_Source\PSoC4/I2CM_I2C_MASTER.c **** 
 932:.\Generated_Source\PSoC4/I2CM_I2C_MASTER.c **** /*******************************************************************************
 933:.\Generated_Source\PSoC4/I2CM_I2C_MASTER.c **** * Function Name: I2CM_I2CReStartGeneration
 934:.\Generated_Source\PSoC4/I2CM_I2C_MASTER.c **** ********************************************************************************
 935:.\Generated_Source\PSoC4/I2CM_I2C_MASTER.c **** *
 936:.\Generated_Source\PSoC4/I2CM_I2C_MASTER.c **** * Summary:
 937:.\Generated_Source\PSoC4/I2CM_I2C_MASTER.c **** *  Generates a ReStart condition:
 938:.\Generated_Source\PSoC4/I2CM_I2C_MASTER.c **** *  SCB IP V1 and later: Generates ReStart using the scb IP functionality
 939:.\Generated_Source\PSoC4/I2CM_I2C_MASTER.c **** *    Sets the I2C_MASTER_CMD_M_START and I2C_MASTER_CMD_M_NACK (if the previous
 940:.\Generated_Source\PSoC4/I2CM_I2C_MASTER.c **** *    transaction was read) bits in the SCB.I2C_MASTER_CMD register.
 941:.\Generated_Source\PSoC4/I2CM_I2C_MASTER.c **** *    This combination forces the master to generate ReStart.
 942:.\Generated_Source\PSoC4/I2CM_I2C_MASTER.c **** *
 943:.\Generated_Source\PSoC4/I2CM_I2C_MASTER.c **** *  SCB IP V0: Generates Restart using the GPIO and scb IP functionality.
 944:.\Generated_Source\PSoC4/I2CM_I2C_MASTER.c **** *   After the master completes write or read, the SCL is stretched.
 945:.\Generated_Source\PSoC4/I2CM_I2C_MASTER.c **** *   The master waits until SDA line is released by the slave. Then the GPIO
 946:.\Generated_Source\PSoC4/I2CM_I2C_MASTER.c **** *   function is enabled and the scb IP disabled as it already does not drive
 947:.\Generated_Source\PSoC4/I2CM_I2C_MASTER.c **** *   the bus. In case of the previous transfer was read, the NACK is generated
 948:.\Generated_Source\PSoC4/I2CM_I2C_MASTER.c **** *   by the GPIO. The delay of tLOW is added to manage the hold time.
 949:.\Generated_Source\PSoC4/I2CM_I2C_MASTER.c **** *   Set I2C_M_CMD.START and enable the scb IP. The ReStart generation
 950:.\Generated_Source\PSoC4/I2CM_I2C_MASTER.c **** *   is started after the I2C function is enabled for the SCL.
 951:.\Generated_Source\PSoC4/I2CM_I2C_MASTER.c **** *   Note1: the scb IP due re-enable generates Start but on the I2C bus it
 952:.\Generated_Source\PSoC4/I2CM_I2C_MASTER.c **** *          appears as ReStart.
 953:.\Generated_Source\PSoC4/I2CM_I2C_MASTER.c **** *   Note2: the I2C_M_CMD.START is queued if scb IP is disabled.
 954:.\Generated_Source\PSoC4/I2CM_I2C_MASTER.c **** *   Note3: the I2C_STATUS_M_READ is cleared is address was NACKed before.
 955:.\Generated_Source\PSoC4/I2CM_I2C_MASTER.c **** *
 956:.\Generated_Source\PSoC4/I2CM_I2C_MASTER.c **** * Parameters:
 957:.\Generated_Source\PSoC4/I2CM_I2C_MASTER.c **** *  None
 958:.\Generated_Source\PSoC4/I2CM_I2C_MASTER.c **** *
 959:.\Generated_Source\PSoC4/I2CM_I2C_MASTER.c **** * Return:
 960:.\Generated_Source\PSoC4/I2CM_I2C_MASTER.c **** *  None
 961:.\Generated_Source\PSoC4/I2CM_I2C_MASTER.c **** *
 962:.\Generated_Source\PSoC4/I2CM_I2C_MASTER.c **** * Side Effects:
 963:.\Generated_Source\PSoC4/I2CM_I2C_MASTER.c **** *  SCB IP V0: The NACK generation by the GPIO may cause a greater SCL period
 964:.\Generated_Source\PSoC4/I2CM_I2C_MASTER.c **** *             than expected for the selected master data rate.
 965:.\Generated_Source\PSoC4/I2CM_I2C_MASTER.c **** *
 966:.\Generated_Source\PSoC4/I2CM_I2C_MASTER.c **** *******************************************************************************/
 967:.\Generated_Source\PSoC4/I2CM_I2C_MASTER.c **** void I2CM_I2CReStartGeneration(void)
 968:.\Generated_Source\PSoC4/I2CM_I2C_MASTER.c **** {
 1464              		.loc 1 968 0
 1465              		.cfi_startproc
 1466 0000 80B5     		push	{r7, lr}
 1467              		.cfi_def_cfa_offset 8
 1468              		.cfi_offset 7, -8
 1469              		.cfi_offset 14, -4
 1470 0002 82B0     		sub	sp, sp, #8
 1471              		.cfi_def_cfa_offset 16
 1472 0004 00AF     		add	r7, sp, #0
 1473              		.cfi_def_cfa_register 7
 969:.\Generated_Source\PSoC4/I2CM_I2C_MASTER.c **** #if(I2CM_CY_SCBIP_V0)
 970:.\Generated_Source\PSoC4/I2CM_I2C_MASTER.c ****     /* Generates Restart use GPIO and scb IP functionality. Ticket ID#143715,
 971:.\Generated_Source\PSoC4/I2CM_I2C_MASTER.c ****     ID#145238 and ID#173656 */
 972:.\Generated_Source\PSoC4/I2CM_I2C_MASTER.c ****     uint32 status = I2CM_I2C_STATUS_REG;
 973:.\Generated_Source\PSoC4/I2CM_I2C_MASTER.c **** 
 974:.\Generated_Source\PSoC4/I2CM_I2C_MASTER.c ****     while(I2CM_WAIT_SDA_SET_HIGH)
 975:.\Generated_Source\PSoC4/I2CM_I2C_MASTER.c ****     {
 976:.\Generated_Source\PSoC4/I2CM_I2C_MASTER.c ****         /* Wait when slave release SDA line: SCL tHIGH is complete */
 977:.\Generated_Source\PSoC4/I2CM_I2C_MASTER.c ****     }
ARM GAS  C:\Users\DELL\AppData\Local\Temp\ccwus5ek.s 			page 44


 978:.\Generated_Source\PSoC4/I2CM_I2C_MASTER.c **** 
 979:.\Generated_Source\PSoC4/I2CM_I2C_MASTER.c ****     /* Prepare DR register to drive SCL line */
 980:.\Generated_Source\PSoC4/I2CM_I2C_MASTER.c ****     I2CM_SET_I2C_SCL_DR(I2CM_I2C_SCL_LOW);
 981:.\Generated_Source\PSoC4/I2CM_I2C_MASTER.c **** 
 982:.\Generated_Source\PSoC4/I2CM_I2C_MASTER.c ****     /* Switch HSIOM to GPIO: SCL goes low */
 983:.\Generated_Source\PSoC4/I2CM_I2C_MASTER.c ****     I2CM_SET_I2C_SCL_HSIOM_SEL(I2CM_HSIOM_GPIO_SEL);
 984:.\Generated_Source\PSoC4/I2CM_I2C_MASTER.c **** 
 985:.\Generated_Source\PSoC4/I2CM_I2C_MASTER.c ****     /* Disable SCB block */
 986:.\Generated_Source\PSoC4/I2CM_I2C_MASTER.c ****     I2CM_CTRL_REG &= (uint32) ~I2CM_CTRL_ENABLED;
 987:.\Generated_Source\PSoC4/I2CM_I2C_MASTER.c **** 
 988:.\Generated_Source\PSoC4/I2CM_I2C_MASTER.c ****     if(0u != (status & I2CM_I2C_STATUS_M_READ))
 989:.\Generated_Source\PSoC4/I2CM_I2C_MASTER.c ****     {
 990:.\Generated_Source\PSoC4/I2CM_I2C_MASTER.c ****         /* Generate NACK use GPIO functionality */
 991:.\Generated_Source\PSoC4/I2CM_I2C_MASTER.c ****         I2CM_SET_I2C_SCL_DR(I2CM_I2C_SCL_LOW);
 992:.\Generated_Source\PSoC4/I2CM_I2C_MASTER.c ****         CyDelayUs(I2CM_I2C_TLOW_TIME); /* Count tLOW */
 993:.\Generated_Source\PSoC4/I2CM_I2C_MASTER.c **** 
 994:.\Generated_Source\PSoC4/I2CM_I2C_MASTER.c ****         I2CM_SET_I2C_SCL_DR(I2CM_I2C_SCL_HIGH);
 995:.\Generated_Source\PSoC4/I2CM_I2C_MASTER.c ****         while(I2CM_WAIT_SCL_SET_HIGH)
 996:.\Generated_Source\PSoC4/I2CM_I2C_MASTER.c ****         {
 997:.\Generated_Source\PSoC4/I2CM_I2C_MASTER.c ****             /* Wait until slave releases SCL in case if it stretches */
 998:.\Generated_Source\PSoC4/I2CM_I2C_MASTER.c ****         }
 999:.\Generated_Source\PSoC4/I2CM_I2C_MASTER.c ****         CyDelayUs(I2CM_I2C_THIGH_TIME); /* Count tHIGH */
1000:.\Generated_Source\PSoC4/I2CM_I2C_MASTER.c ****     }
1001:.\Generated_Source\PSoC4/I2CM_I2C_MASTER.c **** 
1002:.\Generated_Source\PSoC4/I2CM_I2C_MASTER.c ****     /* Count tLOW as hold time for write and read */
1003:.\Generated_Source\PSoC4/I2CM_I2C_MASTER.c ****     I2CM_SET_I2C_SCL_DR(I2CM_I2C_SCL_LOW);
1004:.\Generated_Source\PSoC4/I2CM_I2C_MASTER.c ****     CyDelayUs(I2CM_I2C_TLOW_TIME); /* Count tLOW */
1005:.\Generated_Source\PSoC4/I2CM_I2C_MASTER.c **** 
1006:.\Generated_Source\PSoC4/I2CM_I2C_MASTER.c ****     /* Set command for Start generation: it will appear */
1007:.\Generated_Source\PSoC4/I2CM_I2C_MASTER.c ****     I2CM_I2C_MASTER_CMD_REG = I2CM_I2C_MASTER_CMD_M_START;
1008:.\Generated_Source\PSoC4/I2CM_I2C_MASTER.c **** 
1009:.\Generated_Source\PSoC4/I2CM_I2C_MASTER.c ****     /* Enable SCB block */
1010:.\Generated_Source\PSoC4/I2CM_I2C_MASTER.c ****     I2CM_CTRL_REG |= (uint32) I2CM_CTRL_ENABLED;
1011:.\Generated_Source\PSoC4/I2CM_I2C_MASTER.c **** 
1012:.\Generated_Source\PSoC4/I2CM_I2C_MASTER.c ****     /* Switch HSIOM to I2C: */
1013:.\Generated_Source\PSoC4/I2CM_I2C_MASTER.c ****     I2CM_SET_I2C_SCL_HSIOM_SEL(I2CM_HSIOM_I2C_SEL);
1014:.\Generated_Source\PSoC4/I2CM_I2C_MASTER.c **** 
1015:.\Generated_Source\PSoC4/I2CM_I2C_MASTER.c ****     /* Revert SCL DR register */
1016:.\Generated_Source\PSoC4/I2CM_I2C_MASTER.c ****     I2CM_SET_I2C_SCL_DR(I2CM_I2C_SCL_HIGH);
1017:.\Generated_Source\PSoC4/I2CM_I2C_MASTER.c **** #else
1018:.\Generated_Source\PSoC4/I2CM_I2C_MASTER.c ****     uint32 cmd;
1019:.\Generated_Source\PSoC4/I2CM_I2C_MASTER.c **** 
1020:.\Generated_Source\PSoC4/I2CM_I2C_MASTER.c ****     /* Generates ReStart use scb IP functionality */
1021:.\Generated_Source\PSoC4/I2CM_I2C_MASTER.c ****     cmd  = I2CM_I2C_MASTER_CMD_M_START;
 1474              		.loc 1 1021 0
 1475 0006 0123     		mov	r3, #1
 1476 0008 7B60     		str	r3, [r7, #4]
1022:.\Generated_Source\PSoC4/I2CM_I2C_MASTER.c ****     cmd |= I2CM_CHECK_I2C_STATUS(I2CM_I2C_STATUS_M_READ) ?
 1477              		.loc 1 1022 0
 1478 000a 084B     		ldr	r3, .L106
 1479 000c 1B68     		ldr	r3, [r3]
 1480 000e 2022     		mov	r2, #32
 1481 0010 1340     		and	r3, r2
1023:.\Generated_Source\PSoC4/I2CM_I2C_MASTER.c ****                 (I2CM_I2C_MASTER_CMD_M_NACK) : (0u);
 1482              		.loc 1 1023 0
 1483 0012 01D0     		beq	.L104
 1484              		.loc 1 1023 0 is_stmt 0 discriminator 1
ARM GAS  C:\Users\DELL\AppData\Local\Temp\ccwus5ek.s 			page 45


 1485 0014 0823     		mov	r3, #8
 1486 0016 00E0     		b	.L105
 1487              	.L104:
 1488              		.loc 1 1023 0 discriminator 2
 1489 0018 0023     		mov	r3, #0
 1490              	.L105:
1022:.\Generated_Source\PSoC4/I2CM_I2C_MASTER.c ****     cmd |= I2CM_CHECK_I2C_STATUS(I2CM_I2C_STATUS_M_READ) ?
 1491              		.loc 1 1022 0 is_stmt 1 discriminator 4
 1492 001a 7A68     		ldr	r2, [r7, #4]
 1493 001c 1343     		orr	r3, r2
 1494 001e 7B60     		str	r3, [r7, #4]
1024:.\Generated_Source\PSoC4/I2CM_I2C_MASTER.c **** 
1025:.\Generated_Source\PSoC4/I2CM_I2C_MASTER.c ****     I2CM_I2C_MASTER_CMD_REG = cmd;
 1495              		.loc 1 1025 0 discriminator 4
 1496 0020 034B     		ldr	r3, .L106+4
 1497 0022 7A68     		ldr	r2, [r7, #4]
 1498 0024 1A60     		str	r2, [r3]
1026:.\Generated_Source\PSoC4/I2CM_I2C_MASTER.c **** #endif /* (I2CM_CY_SCBIP_V1) */
1027:.\Generated_Source\PSoC4/I2CM_I2C_MASTER.c **** }
 1499              		.loc 1 1027 0 discriminator 4
 1500 0026 BD46     		mov	sp, r7
 1501 0028 02B0     		add	sp, sp, #8
 1502              		@ sp needed
 1503 002a 80BD     		pop	{r7, pc}
 1504              	.L107:
 1505              		.align	2
 1506              	.L106:
 1507 002c 64002540 		.word	1076166756
 1508 0030 68002540 		.word	1076166760
 1509              		.cfi_endproc
 1510              	.LFE15:
 1511              		.size	I2CM_I2CReStartGeneration, .-I2CM_I2CReStartGeneration
 1512              		.text
 1513              	.Letext0:
 1514              		.file 2 "Generated_Source\\PSoC4/cytypes.h"
 1515              		.file 3 ".\\Generated_Source\\PSoC4\\I2CM_I2C_PVT.h"
