ARM GAS  C:\Users\DELL\AppData\Local\Temp\ccmlPVnr.s 			page 1


   1              		.cpu cortex-m0
   2              		.fpu softvfp
   3              		.eabi_attribute 20, 1
   4              		.eabi_attribute 21, 1
   5              		.eabi_attribute 23, 3
   6              		.eabi_attribute 24, 1
   7              		.eabi_attribute 25, 1
   8              		.eabi_attribute 26, 1
   9              		.eabi_attribute 30, 6
  10              		.eabi_attribute 34, 0
  11              		.eabi_attribute 18, 4
  12              		.code	16
  13              		.file	"Button_Isr.c"
  14              		.text
  15              	.Ltext0:
  16              		.cfi_sections	.debug_frame
  17              		.section	.text.Button_Isr_Start,"ax",%progbits
  18              		.align	2
  19              		.global	Button_Isr_Start
  20              		.code	16
  21              		.thumb_func
  22              		.type	Button_Isr_Start, %function
  23              	Button_Isr_Start:
  24              	.LFB2:
  25              		.file 1 ".\\Generated_Source\\PSoC4\\Button_Isr.c"
   1:.\Generated_Source\PSoC4/Button_Isr.c **** /*******************************************************************************
   2:.\Generated_Source\PSoC4/Button_Isr.c **** * File Name: Button_Isr.c  
   3:.\Generated_Source\PSoC4/Button_Isr.c **** * Version 1.70
   4:.\Generated_Source\PSoC4/Button_Isr.c **** *
   5:.\Generated_Source\PSoC4/Button_Isr.c **** *  Description:
   6:.\Generated_Source\PSoC4/Button_Isr.c **** *   API for controlling the state of an interrupt.
   7:.\Generated_Source\PSoC4/Button_Isr.c **** *
   8:.\Generated_Source\PSoC4/Button_Isr.c **** *
   9:.\Generated_Source\PSoC4/Button_Isr.c **** *  Note:
  10:.\Generated_Source\PSoC4/Button_Isr.c **** *
  11:.\Generated_Source\PSoC4/Button_Isr.c **** ********************************************************************************
  12:.\Generated_Source\PSoC4/Button_Isr.c **** * Copyright 2008-2015, Cypress Semiconductor Corporation.  All rights reserved.
  13:.\Generated_Source\PSoC4/Button_Isr.c **** * You may use this file only in accordance with the license, terms, conditions, 
  14:.\Generated_Source\PSoC4/Button_Isr.c **** * disclaimers, and limitations in the end user license agreement accompanying 
  15:.\Generated_Source\PSoC4/Button_Isr.c **** * the software package with which this file was provided.
  16:.\Generated_Source\PSoC4/Button_Isr.c **** *******************************************************************************/
  17:.\Generated_Source\PSoC4/Button_Isr.c **** 
  18:.\Generated_Source\PSoC4/Button_Isr.c **** 
  19:.\Generated_Source\PSoC4/Button_Isr.c **** #include <cydevice_trm.h>
  20:.\Generated_Source\PSoC4/Button_Isr.c **** #include <CyLib.h>
  21:.\Generated_Source\PSoC4/Button_Isr.c **** #include <Button_Isr.h>
  22:.\Generated_Source\PSoC4/Button_Isr.c **** #include "cyapicallbacks.h"
  23:.\Generated_Source\PSoC4/Button_Isr.c **** 
  24:.\Generated_Source\PSoC4/Button_Isr.c **** #if !defined(Button_Isr__REMOVED) /* Check for removal by optimization */
  25:.\Generated_Source\PSoC4/Button_Isr.c **** 
  26:.\Generated_Source\PSoC4/Button_Isr.c **** /*******************************************************************************
  27:.\Generated_Source\PSoC4/Button_Isr.c **** *  Place your includes, defines and code here 
  28:.\Generated_Source\PSoC4/Button_Isr.c **** ********************************************************************************/
  29:.\Generated_Source\PSoC4/Button_Isr.c **** /* `#START Button_Isr_intc` */
  30:.\Generated_Source\PSoC4/Button_Isr.c **** 
  31:.\Generated_Source\PSoC4/Button_Isr.c **** /* `#END` */
  32:.\Generated_Source\PSoC4/Button_Isr.c **** 
ARM GAS  C:\Users\DELL\AppData\Local\Temp\ccmlPVnr.s 			page 2


  33:.\Generated_Source\PSoC4/Button_Isr.c **** extern cyisraddress CyRamVectors[CYINT_IRQ_BASE + CY_NUM_INTERRUPTS];
  34:.\Generated_Source\PSoC4/Button_Isr.c **** 
  35:.\Generated_Source\PSoC4/Button_Isr.c **** /* Declared in startup, used to set unused interrupts to. */
  36:.\Generated_Source\PSoC4/Button_Isr.c **** CY_ISR_PROTO(IntDefaultHandler);
  37:.\Generated_Source\PSoC4/Button_Isr.c **** 
  38:.\Generated_Source\PSoC4/Button_Isr.c **** 
  39:.\Generated_Source\PSoC4/Button_Isr.c **** /*******************************************************************************
  40:.\Generated_Source\PSoC4/Button_Isr.c **** * Function Name: Button_Isr_Start
  41:.\Generated_Source\PSoC4/Button_Isr.c **** ********************************************************************************
  42:.\Generated_Source\PSoC4/Button_Isr.c **** *
  43:.\Generated_Source\PSoC4/Button_Isr.c **** * Summary:
  44:.\Generated_Source\PSoC4/Button_Isr.c **** *  Set up the interrupt and enable it. This function disables the interrupt, 
  45:.\Generated_Source\PSoC4/Button_Isr.c **** *  sets the default interrupt vector, sets the priority from the value in the
  46:.\Generated_Source\PSoC4/Button_Isr.c **** *  Design Wide Resources Interrupt Editor, then enables the interrupt to the 
  47:.\Generated_Source\PSoC4/Button_Isr.c **** *  interrupt controller.
  48:.\Generated_Source\PSoC4/Button_Isr.c **** *
  49:.\Generated_Source\PSoC4/Button_Isr.c **** * Parameters:  
  50:.\Generated_Source\PSoC4/Button_Isr.c **** *   None
  51:.\Generated_Source\PSoC4/Button_Isr.c **** *
  52:.\Generated_Source\PSoC4/Button_Isr.c **** * Return:
  53:.\Generated_Source\PSoC4/Button_Isr.c **** *   None
  54:.\Generated_Source\PSoC4/Button_Isr.c **** *
  55:.\Generated_Source\PSoC4/Button_Isr.c **** *******************************************************************************/
  56:.\Generated_Source\PSoC4/Button_Isr.c **** void Button_Isr_Start(void)
  57:.\Generated_Source\PSoC4/Button_Isr.c **** {
  26              		.loc 1 57 0
  27              		.cfi_startproc
  28 0000 80B5     		push	{r7, lr}
  29              		.cfi_def_cfa_offset 8
  30              		.cfi_offset 7, -8
  31              		.cfi_offset 14, -4
  32 0002 00AF     		add	r7, sp, #0
  33              		.cfi_def_cfa_register 7
  58:.\Generated_Source\PSoC4/Button_Isr.c ****     /* For all we know the interrupt is active. */
  59:.\Generated_Source\PSoC4/Button_Isr.c ****     Button_Isr_Disable();
  34              		.loc 1 59 0
  35 0004 FFF7FEFF 		bl	Button_Isr_Disable
  60:.\Generated_Source\PSoC4/Button_Isr.c **** 
  61:.\Generated_Source\PSoC4/Button_Isr.c ****     /* Set the ISR to point to the Button_Isr Interrupt. */
  62:.\Generated_Source\PSoC4/Button_Isr.c ****     Button_Isr_SetVector(&Button_Isr_Interrupt);
  36              		.loc 1 62 0
  37 0008 054B     		ldr	r3, .L2
  38 000a 181C     		mov	r0, r3
  39 000c FFF7FEFF 		bl	Button_Isr_SetVector
  63:.\Generated_Source\PSoC4/Button_Isr.c **** 
  64:.\Generated_Source\PSoC4/Button_Isr.c ****     /* Set the priority. */
  65:.\Generated_Source\PSoC4/Button_Isr.c ****     Button_Isr_SetPriority((uint8)Button_Isr_INTC_PRIOR_NUMBER);
  40              		.loc 1 65 0
  41 0010 0320     		mov	r0, #3
  42 0012 FFF7FEFF 		bl	Button_Isr_SetPriority
  66:.\Generated_Source\PSoC4/Button_Isr.c **** 
  67:.\Generated_Source\PSoC4/Button_Isr.c ****     /* Enable it. */
  68:.\Generated_Source\PSoC4/Button_Isr.c ****     Button_Isr_Enable();
  43              		.loc 1 68 0
  44 0016 FFF7FEFF 		bl	Button_Isr_Enable
  69:.\Generated_Source\PSoC4/Button_Isr.c **** }
  45              		.loc 1 69 0
ARM GAS  C:\Users\DELL\AppData\Local\Temp\ccmlPVnr.s 			page 3


  46 001a BD46     		mov	sp, r7
  47              		@ sp needed
  48 001c 80BD     		pop	{r7, pc}
  49              	.L3:
  50 001e C046     		.align	2
  51              	.L2:
  52 0020 00000000 		.word	Button_Isr_Interrupt
  53              		.cfi_endproc
  54              	.LFE2:
  55              		.size	Button_Isr_Start, .-Button_Isr_Start
  56              		.section	.text.Button_Isr_StartEx,"ax",%progbits
  57              		.align	2
  58              		.global	Button_Isr_StartEx
  59              		.code	16
  60              		.thumb_func
  61              		.type	Button_Isr_StartEx, %function
  62              	Button_Isr_StartEx:
  63              	.LFB3:
  70:.\Generated_Source\PSoC4/Button_Isr.c **** 
  71:.\Generated_Source\PSoC4/Button_Isr.c **** 
  72:.\Generated_Source\PSoC4/Button_Isr.c **** /*******************************************************************************
  73:.\Generated_Source\PSoC4/Button_Isr.c **** * Function Name: Button_Isr_StartEx
  74:.\Generated_Source\PSoC4/Button_Isr.c **** ********************************************************************************
  75:.\Generated_Source\PSoC4/Button_Isr.c **** *
  76:.\Generated_Source\PSoC4/Button_Isr.c **** * Summary:
  77:.\Generated_Source\PSoC4/Button_Isr.c **** *  Sets up the interrupt and enables it. This function disables the interrupt,
  78:.\Generated_Source\PSoC4/Button_Isr.c **** *  sets the interrupt vector based on the address passed in, sets the priority 
  79:.\Generated_Source\PSoC4/Button_Isr.c **** *  from the value in the Design Wide Resources Interrupt Editor, then enables 
  80:.\Generated_Source\PSoC4/Button_Isr.c **** *  the interrupt to the interrupt controller.
  81:.\Generated_Source\PSoC4/Button_Isr.c **** *  
  82:.\Generated_Source\PSoC4/Button_Isr.c **** *  When defining ISR functions, the CY_ISR and CY_ISR_PROTO macros should be 
  83:.\Generated_Source\PSoC4/Button_Isr.c **** *  used to provide consistent definition across compilers:
  84:.\Generated_Source\PSoC4/Button_Isr.c **** *  
  85:.\Generated_Source\PSoC4/Button_Isr.c **** *  Function definition example:
  86:.\Generated_Source\PSoC4/Button_Isr.c **** *   CY_ISR(MyISR)
  87:.\Generated_Source\PSoC4/Button_Isr.c **** *   {
  88:.\Generated_Source\PSoC4/Button_Isr.c **** *   }
  89:.\Generated_Source\PSoC4/Button_Isr.c **** *   Function prototype example:
  90:.\Generated_Source\PSoC4/Button_Isr.c **** *   CY_ISR_PROTO(MyISR);
  91:.\Generated_Source\PSoC4/Button_Isr.c **** *
  92:.\Generated_Source\PSoC4/Button_Isr.c **** * Parameters:  
  93:.\Generated_Source\PSoC4/Button_Isr.c **** *   address: Address of the ISR to set in the interrupt vector table.
  94:.\Generated_Source\PSoC4/Button_Isr.c **** *
  95:.\Generated_Source\PSoC4/Button_Isr.c **** * Return:
  96:.\Generated_Source\PSoC4/Button_Isr.c **** *   None
  97:.\Generated_Source\PSoC4/Button_Isr.c **** *
  98:.\Generated_Source\PSoC4/Button_Isr.c **** *******************************************************************************/
  99:.\Generated_Source\PSoC4/Button_Isr.c **** void Button_Isr_StartEx(cyisraddress address)
 100:.\Generated_Source\PSoC4/Button_Isr.c **** {
  64              		.loc 1 100 0
  65              		.cfi_startproc
  66 0000 80B5     		push	{r7, lr}
  67              		.cfi_def_cfa_offset 8
  68              		.cfi_offset 7, -8
  69              		.cfi_offset 14, -4
  70 0002 82B0     		sub	sp, sp, #8
  71              		.cfi_def_cfa_offset 16
ARM GAS  C:\Users\DELL\AppData\Local\Temp\ccmlPVnr.s 			page 4


  72 0004 00AF     		add	r7, sp, #0
  73              		.cfi_def_cfa_register 7
  74 0006 7860     		str	r0, [r7, #4]
 101:.\Generated_Source\PSoC4/Button_Isr.c ****     /* For all we know the interrupt is active. */
 102:.\Generated_Source\PSoC4/Button_Isr.c ****     Button_Isr_Disable();
  75              		.loc 1 102 0
  76 0008 FFF7FEFF 		bl	Button_Isr_Disable
 103:.\Generated_Source\PSoC4/Button_Isr.c **** 
 104:.\Generated_Source\PSoC4/Button_Isr.c ****     /* Set the ISR to point to the Button_Isr Interrupt. */
 105:.\Generated_Source\PSoC4/Button_Isr.c ****     Button_Isr_SetVector(address);
  77              		.loc 1 105 0
  78 000c 7B68     		ldr	r3, [r7, #4]
  79 000e 181C     		mov	r0, r3
  80 0010 FFF7FEFF 		bl	Button_Isr_SetVector
 106:.\Generated_Source\PSoC4/Button_Isr.c **** 
 107:.\Generated_Source\PSoC4/Button_Isr.c ****     /* Set the priority. */
 108:.\Generated_Source\PSoC4/Button_Isr.c ****     Button_Isr_SetPriority((uint8)Button_Isr_INTC_PRIOR_NUMBER);
  81              		.loc 1 108 0
  82 0014 0320     		mov	r0, #3
  83 0016 FFF7FEFF 		bl	Button_Isr_SetPriority
 109:.\Generated_Source\PSoC4/Button_Isr.c **** 
 110:.\Generated_Source\PSoC4/Button_Isr.c ****     /* Enable it. */
 111:.\Generated_Source\PSoC4/Button_Isr.c ****     Button_Isr_Enable();
  84              		.loc 1 111 0
  85 001a FFF7FEFF 		bl	Button_Isr_Enable
 112:.\Generated_Source\PSoC4/Button_Isr.c **** }
  86              		.loc 1 112 0
  87 001e BD46     		mov	sp, r7
  88 0020 02B0     		add	sp, sp, #8
  89              		@ sp needed
  90 0022 80BD     		pop	{r7, pc}
  91              		.cfi_endproc
  92              	.LFE3:
  93              		.size	Button_Isr_StartEx, .-Button_Isr_StartEx
  94              		.section	.text.Button_Isr_Stop,"ax",%progbits
  95              		.align	2
  96              		.global	Button_Isr_Stop
  97              		.code	16
  98              		.thumb_func
  99              		.type	Button_Isr_Stop, %function
 100              	Button_Isr_Stop:
 101              	.LFB4:
 113:.\Generated_Source\PSoC4/Button_Isr.c **** 
 114:.\Generated_Source\PSoC4/Button_Isr.c **** 
 115:.\Generated_Source\PSoC4/Button_Isr.c **** /*******************************************************************************
 116:.\Generated_Source\PSoC4/Button_Isr.c **** * Function Name: Button_Isr_Stop
 117:.\Generated_Source\PSoC4/Button_Isr.c **** ********************************************************************************
 118:.\Generated_Source\PSoC4/Button_Isr.c **** *
 119:.\Generated_Source\PSoC4/Button_Isr.c **** * Summary:
 120:.\Generated_Source\PSoC4/Button_Isr.c **** *   Disables and removes the interrupt.
 121:.\Generated_Source\PSoC4/Button_Isr.c **** *
 122:.\Generated_Source\PSoC4/Button_Isr.c **** * Parameters:  
 123:.\Generated_Source\PSoC4/Button_Isr.c **** *   None
 124:.\Generated_Source\PSoC4/Button_Isr.c **** *
 125:.\Generated_Source\PSoC4/Button_Isr.c **** * Return:
 126:.\Generated_Source\PSoC4/Button_Isr.c **** *   None
 127:.\Generated_Source\PSoC4/Button_Isr.c **** *
ARM GAS  C:\Users\DELL\AppData\Local\Temp\ccmlPVnr.s 			page 5


 128:.\Generated_Source\PSoC4/Button_Isr.c **** *******************************************************************************/
 129:.\Generated_Source\PSoC4/Button_Isr.c **** void Button_Isr_Stop(void)
 130:.\Generated_Source\PSoC4/Button_Isr.c **** {
 102              		.loc 1 130 0
 103              		.cfi_startproc
 104 0000 80B5     		push	{r7, lr}
 105              		.cfi_def_cfa_offset 8
 106              		.cfi_offset 7, -8
 107              		.cfi_offset 14, -4
 108 0002 00AF     		add	r7, sp, #0
 109              		.cfi_def_cfa_register 7
 131:.\Generated_Source\PSoC4/Button_Isr.c ****     /* Disable this interrupt. */
 132:.\Generated_Source\PSoC4/Button_Isr.c ****     Button_Isr_Disable();
 110              		.loc 1 132 0
 111 0004 FFF7FEFF 		bl	Button_Isr_Disable
 133:.\Generated_Source\PSoC4/Button_Isr.c **** 
 134:.\Generated_Source\PSoC4/Button_Isr.c ****     /* Set the ISR to point to the passive one. */
 135:.\Generated_Source\PSoC4/Button_Isr.c ****     Button_Isr_SetVector(&IntDefaultHandler);
 112              		.loc 1 135 0
 113 0008 024B     		ldr	r3, .L6
 114 000a 181C     		mov	r0, r3
 115 000c FFF7FEFF 		bl	Button_Isr_SetVector
 136:.\Generated_Source\PSoC4/Button_Isr.c **** }
 116              		.loc 1 136 0
 117 0010 BD46     		mov	sp, r7
 118              		@ sp needed
 119 0012 80BD     		pop	{r7, pc}
 120              	.L7:
 121              		.align	2
 122              	.L6:
 123 0014 00000000 		.word	IntDefaultHandler
 124              		.cfi_endproc
 125              	.LFE4:
 126              		.size	Button_Isr_Stop, .-Button_Isr_Stop
 127              		.section	.text.Button_Isr_Interrupt,"ax",%progbits
 128              		.align	2
 129              		.global	Button_Isr_Interrupt
 130              		.code	16
 131              		.thumb_func
 132              		.type	Button_Isr_Interrupt, %function
 133              	Button_Isr_Interrupt:
 134              	.LFB5:
 137:.\Generated_Source\PSoC4/Button_Isr.c **** 
 138:.\Generated_Source\PSoC4/Button_Isr.c **** 
 139:.\Generated_Source\PSoC4/Button_Isr.c **** /*******************************************************************************
 140:.\Generated_Source\PSoC4/Button_Isr.c **** * Function Name: Button_Isr_Interrupt
 141:.\Generated_Source\PSoC4/Button_Isr.c **** ********************************************************************************
 142:.\Generated_Source\PSoC4/Button_Isr.c **** *
 143:.\Generated_Source\PSoC4/Button_Isr.c **** * Summary:
 144:.\Generated_Source\PSoC4/Button_Isr.c **** *   The default Interrupt Service Routine for Button_Isr.
 145:.\Generated_Source\PSoC4/Button_Isr.c **** *
 146:.\Generated_Source\PSoC4/Button_Isr.c **** *   Add custom code between the START and END comments to keep the next version
 147:.\Generated_Source\PSoC4/Button_Isr.c **** *   of this file from over-writing your code.
 148:.\Generated_Source\PSoC4/Button_Isr.c **** *
 149:.\Generated_Source\PSoC4/Button_Isr.c **** *   Note You may use either the default ISR by using this API, or you may define
 150:.\Generated_Source\PSoC4/Button_Isr.c **** *   your own separate ISR through ISR_StartEx().
 151:.\Generated_Source\PSoC4/Button_Isr.c **** *
ARM GAS  C:\Users\DELL\AppData\Local\Temp\ccmlPVnr.s 			page 6


 152:.\Generated_Source\PSoC4/Button_Isr.c **** * Parameters:  
 153:.\Generated_Source\PSoC4/Button_Isr.c **** *   None
 154:.\Generated_Source\PSoC4/Button_Isr.c **** *
 155:.\Generated_Source\PSoC4/Button_Isr.c **** * Return:
 156:.\Generated_Source\PSoC4/Button_Isr.c **** *   None
 157:.\Generated_Source\PSoC4/Button_Isr.c **** *
 158:.\Generated_Source\PSoC4/Button_Isr.c **** *******************************************************************************/
 159:.\Generated_Source\PSoC4/Button_Isr.c **** CY_ISR(Button_Isr_Interrupt)
 160:.\Generated_Source\PSoC4/Button_Isr.c **** {
 135              		.loc 1 160 0
 136              		.cfi_startproc
 137 0000 80B5     		push	{r7, lr}
 138              		.cfi_def_cfa_offset 8
 139              		.cfi_offset 7, -8
 140              		.cfi_offset 14, -4
 141 0002 00AF     		add	r7, sp, #0
 142              		.cfi_def_cfa_register 7
 161:.\Generated_Source\PSoC4/Button_Isr.c ****     #ifdef Button_Isr_INTERRUPT_INTERRUPT_CALLBACK
 162:.\Generated_Source\PSoC4/Button_Isr.c ****         Button_Isr_Interrupt_InterruptCallback();
 163:.\Generated_Source\PSoC4/Button_Isr.c ****     #endif /* Button_Isr_INTERRUPT_INTERRUPT_CALLBACK */ 
 164:.\Generated_Source\PSoC4/Button_Isr.c **** 
 165:.\Generated_Source\PSoC4/Button_Isr.c ****     /*  Place your Interrupt code here. */
 166:.\Generated_Source\PSoC4/Button_Isr.c ****     /* `#START Button_Isr_Interrupt` */
 167:.\Generated_Source\PSoC4/Button_Isr.c **** 
 168:.\Generated_Source\PSoC4/Button_Isr.c ****     /* `#END` */
 169:.\Generated_Source\PSoC4/Button_Isr.c **** }
 143              		.loc 1 169 0
 144 0004 BD46     		mov	sp, r7
 145              		@ sp needed
 146 0006 80BD     		pop	{r7, pc}
 147              		.cfi_endproc
 148              	.LFE5:
 149              		.size	Button_Isr_Interrupt, .-Button_Isr_Interrupt
 150              		.section	.text.Button_Isr_SetVector,"ax",%progbits
 151              		.align	2
 152              		.global	Button_Isr_SetVector
 153              		.code	16
 154              		.thumb_func
 155              		.type	Button_Isr_SetVector, %function
 156              	Button_Isr_SetVector:
 157              	.LFB6:
 170:.\Generated_Source\PSoC4/Button_Isr.c **** 
 171:.\Generated_Source\PSoC4/Button_Isr.c **** 
 172:.\Generated_Source\PSoC4/Button_Isr.c **** /*******************************************************************************
 173:.\Generated_Source\PSoC4/Button_Isr.c **** * Function Name: Button_Isr_SetVector
 174:.\Generated_Source\PSoC4/Button_Isr.c **** ********************************************************************************
 175:.\Generated_Source\PSoC4/Button_Isr.c **** *
 176:.\Generated_Source\PSoC4/Button_Isr.c **** * Summary:
 177:.\Generated_Source\PSoC4/Button_Isr.c **** *   Change the ISR vector for the Interrupt. Note calling Button_Isr_Start
 178:.\Generated_Source\PSoC4/Button_Isr.c **** *   will override any effect this method would have had. To set the vector 
 179:.\Generated_Source\PSoC4/Button_Isr.c **** *   before the component has been started use Button_Isr_StartEx instead.
 180:.\Generated_Source\PSoC4/Button_Isr.c **** * 
 181:.\Generated_Source\PSoC4/Button_Isr.c **** *   When defining ISR functions, the CY_ISR and CY_ISR_PROTO macros should be 
 182:.\Generated_Source\PSoC4/Button_Isr.c **** *   used to provide consistent definition across compilers:
 183:.\Generated_Source\PSoC4/Button_Isr.c **** *
 184:.\Generated_Source\PSoC4/Button_Isr.c **** *   Function definition example:
 185:.\Generated_Source\PSoC4/Button_Isr.c **** *   CY_ISR(MyISR)
ARM GAS  C:\Users\DELL\AppData\Local\Temp\ccmlPVnr.s 			page 7


 186:.\Generated_Source\PSoC4/Button_Isr.c **** *   {
 187:.\Generated_Source\PSoC4/Button_Isr.c **** *   }
 188:.\Generated_Source\PSoC4/Button_Isr.c **** *
 189:.\Generated_Source\PSoC4/Button_Isr.c **** *   Function prototype example:
 190:.\Generated_Source\PSoC4/Button_Isr.c **** *     CY_ISR_PROTO(MyISR);
 191:.\Generated_Source\PSoC4/Button_Isr.c **** *
 192:.\Generated_Source\PSoC4/Button_Isr.c **** * Parameters:
 193:.\Generated_Source\PSoC4/Button_Isr.c **** *   address: Address of the ISR to set in the interrupt vector table.
 194:.\Generated_Source\PSoC4/Button_Isr.c **** *
 195:.\Generated_Source\PSoC4/Button_Isr.c **** * Return:
 196:.\Generated_Source\PSoC4/Button_Isr.c **** *   None
 197:.\Generated_Source\PSoC4/Button_Isr.c **** *
 198:.\Generated_Source\PSoC4/Button_Isr.c **** *******************************************************************************/
 199:.\Generated_Source\PSoC4/Button_Isr.c **** void Button_Isr_SetVector(cyisraddress address)
 200:.\Generated_Source\PSoC4/Button_Isr.c **** {
 158              		.loc 1 200 0
 159              		.cfi_startproc
 160 0000 80B5     		push	{r7, lr}
 161              		.cfi_def_cfa_offset 8
 162              		.cfi_offset 7, -8
 163              		.cfi_offset 14, -4
 164 0002 82B0     		sub	sp, sp, #8
 165              		.cfi_def_cfa_offset 16
 166 0004 00AF     		add	r7, sp, #0
 167              		.cfi_def_cfa_register 7
 168 0006 7860     		str	r0, [r7, #4]
 201:.\Generated_Source\PSoC4/Button_Isr.c ****     CyRamVectors[CYINT_IRQ_BASE + Button_Isr__INTC_NUMBER] = address;
 169              		.loc 1 201 0
 170 0008 024B     		ldr	r3, .L10
 171 000a 7A68     		ldr	r2, [r7, #4]
 172 000c 9A64     		str	r2, [r3, #72]
 202:.\Generated_Source\PSoC4/Button_Isr.c **** }
 173              		.loc 1 202 0
 174 000e BD46     		mov	sp, r7
 175 0010 02B0     		add	sp, sp, #8
 176              		@ sp needed
 177 0012 80BD     		pop	{r7, pc}
 178              	.L11:
 179              		.align	2
 180              	.L10:
 181 0014 00000000 		.word	CyRamVectors
 182              		.cfi_endproc
 183              	.LFE6:
 184              		.size	Button_Isr_SetVector, .-Button_Isr_SetVector
 185              		.section	.text.Button_Isr_GetVector,"ax",%progbits
 186              		.align	2
 187              		.global	Button_Isr_GetVector
 188              		.code	16
 189              		.thumb_func
 190              		.type	Button_Isr_GetVector, %function
 191              	Button_Isr_GetVector:
 192              	.LFB7:
 203:.\Generated_Source\PSoC4/Button_Isr.c **** 
 204:.\Generated_Source\PSoC4/Button_Isr.c **** 
 205:.\Generated_Source\PSoC4/Button_Isr.c **** /*******************************************************************************
 206:.\Generated_Source\PSoC4/Button_Isr.c **** * Function Name: Button_Isr_GetVector
 207:.\Generated_Source\PSoC4/Button_Isr.c **** ********************************************************************************
ARM GAS  C:\Users\DELL\AppData\Local\Temp\ccmlPVnr.s 			page 8


 208:.\Generated_Source\PSoC4/Button_Isr.c **** *
 209:.\Generated_Source\PSoC4/Button_Isr.c **** * Summary:
 210:.\Generated_Source\PSoC4/Button_Isr.c **** *   Gets the "address" of the current ISR vector for the Interrupt.
 211:.\Generated_Source\PSoC4/Button_Isr.c **** *
 212:.\Generated_Source\PSoC4/Button_Isr.c **** * Parameters:
 213:.\Generated_Source\PSoC4/Button_Isr.c **** *   None
 214:.\Generated_Source\PSoC4/Button_Isr.c **** *
 215:.\Generated_Source\PSoC4/Button_Isr.c **** * Return:
 216:.\Generated_Source\PSoC4/Button_Isr.c **** *   Address of the ISR in the interrupt vector table.
 217:.\Generated_Source\PSoC4/Button_Isr.c **** *
 218:.\Generated_Source\PSoC4/Button_Isr.c **** *******************************************************************************/
 219:.\Generated_Source\PSoC4/Button_Isr.c **** cyisraddress Button_Isr_GetVector(void)
 220:.\Generated_Source\PSoC4/Button_Isr.c **** {
 193              		.loc 1 220 0
 194              		.cfi_startproc
 195 0000 80B5     		push	{r7, lr}
 196              		.cfi_def_cfa_offset 8
 197              		.cfi_offset 7, -8
 198              		.cfi_offset 14, -4
 199 0002 00AF     		add	r7, sp, #0
 200              		.cfi_def_cfa_register 7
 221:.\Generated_Source\PSoC4/Button_Isr.c ****     return CyRamVectors[CYINT_IRQ_BASE + Button_Isr__INTC_NUMBER];
 201              		.loc 1 221 0
 202 0004 024B     		ldr	r3, .L14
 203 0006 9B6C     		ldr	r3, [r3, #72]
 222:.\Generated_Source\PSoC4/Button_Isr.c **** }
 204              		.loc 1 222 0
 205 0008 181C     		mov	r0, r3
 206 000a BD46     		mov	sp, r7
 207              		@ sp needed
 208 000c 80BD     		pop	{r7, pc}
 209              	.L15:
 210 000e C046     		.align	2
 211              	.L14:
 212 0010 00000000 		.word	CyRamVectors
 213              		.cfi_endproc
 214              	.LFE7:
 215              		.size	Button_Isr_GetVector, .-Button_Isr_GetVector
 216              		.section	.text.Button_Isr_SetPriority,"ax",%progbits
 217              		.align	2
 218              		.global	Button_Isr_SetPriority
 219              		.code	16
 220              		.thumb_func
 221              		.type	Button_Isr_SetPriority, %function
 222              	Button_Isr_SetPriority:
 223              	.LFB8:
 223:.\Generated_Source\PSoC4/Button_Isr.c **** 
 224:.\Generated_Source\PSoC4/Button_Isr.c **** 
 225:.\Generated_Source\PSoC4/Button_Isr.c **** /*******************************************************************************
 226:.\Generated_Source\PSoC4/Button_Isr.c **** * Function Name: Button_Isr_SetPriority
 227:.\Generated_Source\PSoC4/Button_Isr.c **** ********************************************************************************
 228:.\Generated_Source\PSoC4/Button_Isr.c **** *
 229:.\Generated_Source\PSoC4/Button_Isr.c **** * Summary:
 230:.\Generated_Source\PSoC4/Button_Isr.c **** *   Sets the Priority of the Interrupt. 
 231:.\Generated_Source\PSoC4/Button_Isr.c **** *
 232:.\Generated_Source\PSoC4/Button_Isr.c **** *   Note calling Button_Isr_Start or Button_Isr_StartEx will 
 233:.\Generated_Source\PSoC4/Button_Isr.c **** *   override any effect this API would have had. This API should only be called
ARM GAS  C:\Users\DELL\AppData\Local\Temp\ccmlPVnr.s 			page 9


 234:.\Generated_Source\PSoC4/Button_Isr.c **** *   after Button_Isr_Start or Button_Isr_StartEx has been called. 
 235:.\Generated_Source\PSoC4/Button_Isr.c **** *   To set the initial priority for the component, use the Design-Wide Resources
 236:.\Generated_Source\PSoC4/Button_Isr.c **** *   Interrupt Editor.
 237:.\Generated_Source\PSoC4/Button_Isr.c **** *
 238:.\Generated_Source\PSoC4/Button_Isr.c **** *   Note This API has no effect on Non-maskable interrupt NMI).
 239:.\Generated_Source\PSoC4/Button_Isr.c **** *
 240:.\Generated_Source\PSoC4/Button_Isr.c **** * Parameters:
 241:.\Generated_Source\PSoC4/Button_Isr.c **** *   priority: Priority of the interrupt, 0 being the highest priority
 242:.\Generated_Source\PSoC4/Button_Isr.c **** *             PSoC 3 and PSoC 5LP: Priority is from 0 to 7.
 243:.\Generated_Source\PSoC4/Button_Isr.c **** *             PSoC 4: Priority is from 0 to 3.
 244:.\Generated_Source\PSoC4/Button_Isr.c **** *
 245:.\Generated_Source\PSoC4/Button_Isr.c **** * Return:
 246:.\Generated_Source\PSoC4/Button_Isr.c **** *   None
 247:.\Generated_Source\PSoC4/Button_Isr.c **** *
 248:.\Generated_Source\PSoC4/Button_Isr.c **** *******************************************************************************/
 249:.\Generated_Source\PSoC4/Button_Isr.c **** void Button_Isr_SetPriority(uint8 priority)
 250:.\Generated_Source\PSoC4/Button_Isr.c **** {
 224              		.loc 1 250 0
 225              		.cfi_startproc
 226 0000 90B5     		push	{r4, r7, lr}
 227              		.cfi_def_cfa_offset 12
 228              		.cfi_offset 4, -12
 229              		.cfi_offset 7, -8
 230              		.cfi_offset 14, -4
 231 0002 85B0     		sub	sp, sp, #20
 232              		.cfi_def_cfa_offset 32
 233 0004 00AF     		add	r7, sp, #0
 234              		.cfi_def_cfa_register 7
 235 0006 021C     		mov	r2, r0
 236 0008 FB1D     		add	r3, r7, #7
 237 000a 1A70     		strb	r2, [r3]
 251:.\Generated_Source\PSoC4/Button_Isr.c **** 	uint8 interruptState;
 252:.\Generated_Source\PSoC4/Button_Isr.c ****     uint32 priorityOffset = ((Button_Isr__INTC_NUMBER % 4u) * 8u) + 6u;
 238              		.loc 1 252 0
 239 000c 1623     		mov	r3, #22
 240 000e FB60     		str	r3, [r7, #12]
 253:.\Generated_Source\PSoC4/Button_Isr.c ****     
 254:.\Generated_Source\PSoC4/Button_Isr.c **** 	interruptState = CyEnterCriticalSection();
 241              		.loc 1 254 0
 242 0010 0B23     		mov	r3, #11
 243 0012 FC18     		add	r4, r7, r3
 244 0014 FFF7FEFF 		bl	CyEnterCriticalSection
 245 0018 031C     		mov	r3, r0
 246 001a 2370     		strb	r3, [r4]
 255:.\Generated_Source\PSoC4/Button_Isr.c ****     *Button_Isr_INTC_PRIOR = (*Button_Isr_INTC_PRIOR & (uint32)(~Button_Isr__INTC_PRIOR_MASK)) |
 247              		.loc 1 255 0
 248 001c 0A4B     		ldr	r3, .L17
 249 001e 0A4A     		ldr	r2, .L17
 250 0020 1268     		ldr	r2, [r2]
 251 0022 0A49     		ldr	r1, .L17+4
 252 0024 1140     		and	r1, r2
 256:.\Generated_Source\PSoC4/Button_Isr.c ****                                     ((uint32)priority << priorityOffset);
 253              		.loc 1 256 0
 254 0026 FA1D     		add	r2, r7, #7
 255 0028 1078     		ldrb	r0, [r2]
 256 002a FA68     		ldr	r2, [r7, #12]
 257 002c 9040     		lsl	r0, r0, r2
ARM GAS  C:\Users\DELL\AppData\Local\Temp\ccmlPVnr.s 			page 10


 258 002e 021C     		mov	r2, r0
 255:.\Generated_Source\PSoC4/Button_Isr.c ****     *Button_Isr_INTC_PRIOR = (*Button_Isr_INTC_PRIOR & (uint32)(~Button_Isr__INTC_PRIOR_MASK)) |
 259              		.loc 1 255 0
 260 0030 0A43     		orr	r2, r1
 261 0032 1A60     		str	r2, [r3]
 257:.\Generated_Source\PSoC4/Button_Isr.c **** 	CyExitCriticalSection(interruptState);
 262              		.loc 1 257 0
 263 0034 0B23     		mov	r3, #11
 264 0036 FB18     		add	r3, r7, r3
 265 0038 1B78     		ldrb	r3, [r3]
 266 003a 181C     		mov	r0, r3
 267 003c FFF7FEFF 		bl	CyExitCriticalSection
 258:.\Generated_Source\PSoC4/Button_Isr.c **** }
 268              		.loc 1 258 0
 269 0040 BD46     		mov	sp, r7
 270 0042 05B0     		add	sp, sp, #20
 271              		@ sp needed
 272 0044 90BD     		pop	{r4, r7, pc}
 273              	.L18:
 274 0046 C046     		.align	2
 275              	.L17:
 276 0048 00E400E0 		.word	-536812544
 277 004c FFFF3FFF 		.word	-12582913
 278              		.cfi_endproc
 279              	.LFE8:
 280              		.size	Button_Isr_SetPriority, .-Button_Isr_SetPriority
 281              		.section	.text.Button_Isr_GetPriority,"ax",%progbits
 282              		.align	2
 283              		.global	Button_Isr_GetPriority
 284              		.code	16
 285              		.thumb_func
 286              		.type	Button_Isr_GetPriority, %function
 287              	Button_Isr_GetPriority:
 288              	.LFB9:
 259:.\Generated_Source\PSoC4/Button_Isr.c **** 
 260:.\Generated_Source\PSoC4/Button_Isr.c **** 
 261:.\Generated_Source\PSoC4/Button_Isr.c **** /*******************************************************************************
 262:.\Generated_Source\PSoC4/Button_Isr.c **** * Function Name: Button_Isr_GetPriority
 263:.\Generated_Source\PSoC4/Button_Isr.c **** ********************************************************************************
 264:.\Generated_Source\PSoC4/Button_Isr.c **** *
 265:.\Generated_Source\PSoC4/Button_Isr.c **** * Summary:
 266:.\Generated_Source\PSoC4/Button_Isr.c **** *   Gets the Priority of the Interrupt.
 267:.\Generated_Source\PSoC4/Button_Isr.c **** *
 268:.\Generated_Source\PSoC4/Button_Isr.c **** * Parameters:
 269:.\Generated_Source\PSoC4/Button_Isr.c **** *   None
 270:.\Generated_Source\PSoC4/Button_Isr.c **** *
 271:.\Generated_Source\PSoC4/Button_Isr.c **** * Return:
 272:.\Generated_Source\PSoC4/Button_Isr.c **** *   Priority of the interrupt, 0 being the highest priority
 273:.\Generated_Source\PSoC4/Button_Isr.c **** *    PSoC 3 and PSoC 5LP: Priority is from 0 to 7.
 274:.\Generated_Source\PSoC4/Button_Isr.c **** *    PSoC 4: Priority is from 0 to 3.
 275:.\Generated_Source\PSoC4/Button_Isr.c **** *
 276:.\Generated_Source\PSoC4/Button_Isr.c **** *******************************************************************************/
 277:.\Generated_Source\PSoC4/Button_Isr.c **** uint8 Button_Isr_GetPriority(void)
 278:.\Generated_Source\PSoC4/Button_Isr.c **** {
 289              		.loc 1 278 0
 290              		.cfi_startproc
 291 0000 80B5     		push	{r7, lr}
ARM GAS  C:\Users\DELL\AppData\Local\Temp\ccmlPVnr.s 			page 11


 292              		.cfi_def_cfa_offset 8
 293              		.cfi_offset 7, -8
 294              		.cfi_offset 14, -4
 295 0002 82B0     		sub	sp, sp, #8
 296              		.cfi_def_cfa_offset 16
 297 0004 00AF     		add	r7, sp, #0
 298              		.cfi_def_cfa_register 7
 279:.\Generated_Source\PSoC4/Button_Isr.c ****     uint32 priority;
 280:.\Generated_Source\PSoC4/Button_Isr.c **** 	uint32 priorityOffset = ((Button_Isr__INTC_NUMBER % 4u) * 8u) + 6u;
 299              		.loc 1 280 0
 300 0006 1623     		mov	r3, #22
 301 0008 7B60     		str	r3, [r7, #4]
 281:.\Generated_Source\PSoC4/Button_Isr.c **** 
 282:.\Generated_Source\PSoC4/Button_Isr.c ****     priority = (*Button_Isr_INTC_PRIOR & Button_Isr__INTC_PRIOR_MASK) >> priorityOffset;
 302              		.loc 1 282 0
 303 000a 074B     		ldr	r3, .L21
 304 000c 1A68     		ldr	r2, [r3]
 305 000e C023     		mov	r3, #192
 306 0010 1B04     		lsl	r3, r3, #16
 307 0012 1A40     		and	r2, r3
 308 0014 7B68     		ldr	r3, [r7, #4]
 309 0016 DA40     		lsr	r2, r2, r3
 310 0018 131C     		mov	r3, r2
 311 001a 3B60     		str	r3, [r7]
 283:.\Generated_Source\PSoC4/Button_Isr.c **** 
 284:.\Generated_Source\PSoC4/Button_Isr.c ****     return (uint8)priority;
 312              		.loc 1 284 0
 313 001c 3B68     		ldr	r3, [r7]
 314 001e DBB2     		uxtb	r3, r3
 285:.\Generated_Source\PSoC4/Button_Isr.c **** }
 315              		.loc 1 285 0
 316 0020 181C     		mov	r0, r3
 317 0022 BD46     		mov	sp, r7
 318 0024 02B0     		add	sp, sp, #8
 319              		@ sp needed
 320 0026 80BD     		pop	{r7, pc}
 321              	.L22:
 322              		.align	2
 323              	.L21:
 324 0028 00E400E0 		.word	-536812544
 325              		.cfi_endproc
 326              	.LFE9:
 327              		.size	Button_Isr_GetPriority, .-Button_Isr_GetPriority
 328              		.section	.text.Button_Isr_Enable,"ax",%progbits
 329              		.align	2
 330              		.global	Button_Isr_Enable
 331              		.code	16
 332              		.thumb_func
 333              		.type	Button_Isr_Enable, %function
 334              	Button_Isr_Enable:
 335              	.LFB10:
 286:.\Generated_Source\PSoC4/Button_Isr.c **** 
 287:.\Generated_Source\PSoC4/Button_Isr.c **** 
 288:.\Generated_Source\PSoC4/Button_Isr.c **** /*******************************************************************************
 289:.\Generated_Source\PSoC4/Button_Isr.c **** * Function Name: Button_Isr_Enable
 290:.\Generated_Source\PSoC4/Button_Isr.c **** ********************************************************************************
 291:.\Generated_Source\PSoC4/Button_Isr.c **** *
ARM GAS  C:\Users\DELL\AppData\Local\Temp\ccmlPVnr.s 			page 12


 292:.\Generated_Source\PSoC4/Button_Isr.c **** * Summary:
 293:.\Generated_Source\PSoC4/Button_Isr.c **** *   Enables the interrupt to the interrupt controller. Do not call this function
 294:.\Generated_Source\PSoC4/Button_Isr.c **** *   unless ISR_Start() has been called or the functionality of the ISR_Start() 
 295:.\Generated_Source\PSoC4/Button_Isr.c **** *   function, which sets the vector and the priority, has been called.
 296:.\Generated_Source\PSoC4/Button_Isr.c **** *
 297:.\Generated_Source\PSoC4/Button_Isr.c **** * Parameters:
 298:.\Generated_Source\PSoC4/Button_Isr.c **** *   None
 299:.\Generated_Source\PSoC4/Button_Isr.c **** *
 300:.\Generated_Source\PSoC4/Button_Isr.c **** * Return:
 301:.\Generated_Source\PSoC4/Button_Isr.c **** *   None
 302:.\Generated_Source\PSoC4/Button_Isr.c **** *
 303:.\Generated_Source\PSoC4/Button_Isr.c **** *******************************************************************************/
 304:.\Generated_Source\PSoC4/Button_Isr.c **** void Button_Isr_Enable(void)
 305:.\Generated_Source\PSoC4/Button_Isr.c **** {
 336              		.loc 1 305 0
 337              		.cfi_startproc
 338 0000 80B5     		push	{r7, lr}
 339              		.cfi_def_cfa_offset 8
 340              		.cfi_offset 7, -8
 341              		.cfi_offset 14, -4
 342 0002 00AF     		add	r7, sp, #0
 343              		.cfi_def_cfa_register 7
 306:.\Generated_Source\PSoC4/Button_Isr.c ****     /* Enable the general interrupt. */
 307:.\Generated_Source\PSoC4/Button_Isr.c ****     *Button_Isr_INTC_SET_EN = Button_Isr__INTC_MASK;
 344              		.loc 1 307 0
 345 0004 024B     		ldr	r3, .L24
 346 0006 0422     		mov	r2, #4
 347 0008 1A60     		str	r2, [r3]
 308:.\Generated_Source\PSoC4/Button_Isr.c **** }
 348              		.loc 1 308 0
 349 000a BD46     		mov	sp, r7
 350              		@ sp needed
 351 000c 80BD     		pop	{r7, pc}
 352              	.L25:
 353 000e C046     		.align	2
 354              	.L24:
 355 0010 00E100E0 		.word	-536813312
 356              		.cfi_endproc
 357              	.LFE10:
 358              		.size	Button_Isr_Enable, .-Button_Isr_Enable
 359              		.section	.text.Button_Isr_GetState,"ax",%progbits
 360              		.align	2
 361              		.global	Button_Isr_GetState
 362              		.code	16
 363              		.thumb_func
 364              		.type	Button_Isr_GetState, %function
 365              	Button_Isr_GetState:
 366              	.LFB11:
 309:.\Generated_Source\PSoC4/Button_Isr.c **** 
 310:.\Generated_Source\PSoC4/Button_Isr.c **** 
 311:.\Generated_Source\PSoC4/Button_Isr.c **** /*******************************************************************************
 312:.\Generated_Source\PSoC4/Button_Isr.c **** * Function Name: Button_Isr_GetState
 313:.\Generated_Source\PSoC4/Button_Isr.c **** ********************************************************************************
 314:.\Generated_Source\PSoC4/Button_Isr.c **** *
 315:.\Generated_Source\PSoC4/Button_Isr.c **** * Summary:
 316:.\Generated_Source\PSoC4/Button_Isr.c **** *   Gets the state (enabled, disabled) of the Interrupt.
 317:.\Generated_Source\PSoC4/Button_Isr.c **** *
ARM GAS  C:\Users\DELL\AppData\Local\Temp\ccmlPVnr.s 			page 13


 318:.\Generated_Source\PSoC4/Button_Isr.c **** * Parameters:
 319:.\Generated_Source\PSoC4/Button_Isr.c **** *   None
 320:.\Generated_Source\PSoC4/Button_Isr.c **** *
 321:.\Generated_Source\PSoC4/Button_Isr.c **** * Return:
 322:.\Generated_Source\PSoC4/Button_Isr.c **** *   1 if enabled, 0 if disabled.
 323:.\Generated_Source\PSoC4/Button_Isr.c **** *
 324:.\Generated_Source\PSoC4/Button_Isr.c **** *******************************************************************************/
 325:.\Generated_Source\PSoC4/Button_Isr.c **** uint8 Button_Isr_GetState(void)
 326:.\Generated_Source\PSoC4/Button_Isr.c **** {
 367              		.loc 1 326 0
 368              		.cfi_startproc
 369 0000 80B5     		push	{r7, lr}
 370              		.cfi_def_cfa_offset 8
 371              		.cfi_offset 7, -8
 372              		.cfi_offset 14, -4
 373 0002 00AF     		add	r7, sp, #0
 374              		.cfi_def_cfa_register 7
 327:.\Generated_Source\PSoC4/Button_Isr.c ****     /* Get the state of the general interrupt. */
 328:.\Generated_Source\PSoC4/Button_Isr.c ****     return ((*Button_Isr_INTC_SET_EN & (uint32)Button_Isr__INTC_MASK) != 0u) ? 1u:0u;
 375              		.loc 1 328 0
 376 0004 054B     		ldr	r3, .L30
 377 0006 1B68     		ldr	r3, [r3]
 378 0008 0422     		mov	r2, #4
 379 000a 1340     		and	r3, r2
 380 000c 01D0     		beq	.L27
 381              		.loc 1 328 0 is_stmt 0 discriminator 1
 382 000e 0123     		mov	r3, #1
 383 0010 00E0     		b	.L28
 384              	.L27:
 385              		.loc 1 328 0 discriminator 2
 386 0012 0023     		mov	r3, #0
 387              	.L28:
 329:.\Generated_Source\PSoC4/Button_Isr.c **** }
 388              		.loc 1 329 0 is_stmt 1 discriminator 4
 389 0014 181C     		mov	r0, r3
 390 0016 BD46     		mov	sp, r7
 391              		@ sp needed
 392 0018 80BD     		pop	{r7, pc}
 393              	.L31:
 394 001a C046     		.align	2
 395              	.L30:
 396 001c 00E100E0 		.word	-536813312
 397              		.cfi_endproc
 398              	.LFE11:
 399              		.size	Button_Isr_GetState, .-Button_Isr_GetState
 400              		.section	.text.Button_Isr_Disable,"ax",%progbits
 401              		.align	2
 402              		.global	Button_Isr_Disable
 403              		.code	16
 404              		.thumb_func
 405              		.type	Button_Isr_Disable, %function
 406              	Button_Isr_Disable:
 407              	.LFB12:
 330:.\Generated_Source\PSoC4/Button_Isr.c **** 
 331:.\Generated_Source\PSoC4/Button_Isr.c **** 
 332:.\Generated_Source\PSoC4/Button_Isr.c **** /*******************************************************************************
 333:.\Generated_Source\PSoC4/Button_Isr.c **** * Function Name: Button_Isr_Disable
ARM GAS  C:\Users\DELL\AppData\Local\Temp\ccmlPVnr.s 			page 14


 334:.\Generated_Source\PSoC4/Button_Isr.c **** ********************************************************************************
 335:.\Generated_Source\PSoC4/Button_Isr.c **** *
 336:.\Generated_Source\PSoC4/Button_Isr.c **** * Summary:
 337:.\Generated_Source\PSoC4/Button_Isr.c **** *   Disables the Interrupt in the interrupt controller.
 338:.\Generated_Source\PSoC4/Button_Isr.c **** *
 339:.\Generated_Source\PSoC4/Button_Isr.c **** * Parameters:
 340:.\Generated_Source\PSoC4/Button_Isr.c **** *   None
 341:.\Generated_Source\PSoC4/Button_Isr.c **** *
 342:.\Generated_Source\PSoC4/Button_Isr.c **** * Return:
 343:.\Generated_Source\PSoC4/Button_Isr.c **** *   None
 344:.\Generated_Source\PSoC4/Button_Isr.c **** *
 345:.\Generated_Source\PSoC4/Button_Isr.c **** *******************************************************************************/
 346:.\Generated_Source\PSoC4/Button_Isr.c **** void Button_Isr_Disable(void)
 347:.\Generated_Source\PSoC4/Button_Isr.c **** {
 408              		.loc 1 347 0
 409              		.cfi_startproc
 410 0000 80B5     		push	{r7, lr}
 411              		.cfi_def_cfa_offset 8
 412              		.cfi_offset 7, -8
 413              		.cfi_offset 14, -4
 414 0002 00AF     		add	r7, sp, #0
 415              		.cfi_def_cfa_register 7
 348:.\Generated_Source\PSoC4/Button_Isr.c ****     /* Disable the general interrupt. */
 349:.\Generated_Source\PSoC4/Button_Isr.c ****     *Button_Isr_INTC_CLR_EN = Button_Isr__INTC_MASK;
 416              		.loc 1 349 0
 417 0004 024B     		ldr	r3, .L33
 418 0006 0422     		mov	r2, #4
 419 0008 1A60     		str	r2, [r3]
 350:.\Generated_Source\PSoC4/Button_Isr.c **** }
 420              		.loc 1 350 0
 421 000a BD46     		mov	sp, r7
 422              		@ sp needed
 423 000c 80BD     		pop	{r7, pc}
 424              	.L34:
 425 000e C046     		.align	2
 426              	.L33:
 427 0010 80E100E0 		.word	-536813184
 428              		.cfi_endproc
 429              	.LFE12:
 430              		.size	Button_Isr_Disable, .-Button_Isr_Disable
 431              		.section	.text.Button_Isr_SetPending,"ax",%progbits
 432              		.align	2
 433              		.global	Button_Isr_SetPending
 434              		.code	16
 435              		.thumb_func
 436              		.type	Button_Isr_SetPending, %function
 437              	Button_Isr_SetPending:
 438              	.LFB13:
 351:.\Generated_Source\PSoC4/Button_Isr.c **** 
 352:.\Generated_Source\PSoC4/Button_Isr.c **** 
 353:.\Generated_Source\PSoC4/Button_Isr.c **** /*******************************************************************************
 354:.\Generated_Source\PSoC4/Button_Isr.c **** * Function Name: Button_Isr_SetPending
 355:.\Generated_Source\PSoC4/Button_Isr.c **** ********************************************************************************
 356:.\Generated_Source\PSoC4/Button_Isr.c **** *
 357:.\Generated_Source\PSoC4/Button_Isr.c **** * Summary:
 358:.\Generated_Source\PSoC4/Button_Isr.c **** *   Causes the Interrupt to enter the pending state, a software method of
 359:.\Generated_Source\PSoC4/Button_Isr.c **** *   generating the interrupt.
ARM GAS  C:\Users\DELL\AppData\Local\Temp\ccmlPVnr.s 			page 15


 360:.\Generated_Source\PSoC4/Button_Isr.c **** *
 361:.\Generated_Source\PSoC4/Button_Isr.c **** * Parameters:
 362:.\Generated_Source\PSoC4/Button_Isr.c **** *   None
 363:.\Generated_Source\PSoC4/Button_Isr.c **** *
 364:.\Generated_Source\PSoC4/Button_Isr.c **** * Return:
 365:.\Generated_Source\PSoC4/Button_Isr.c **** *   None
 366:.\Generated_Source\PSoC4/Button_Isr.c **** *
 367:.\Generated_Source\PSoC4/Button_Isr.c **** * Side Effects:
 368:.\Generated_Source\PSoC4/Button_Isr.c **** *   If interrupts are enabled and the interrupt is set up properly, the ISR is
 369:.\Generated_Source\PSoC4/Button_Isr.c **** *   entered (depending on the priority of this interrupt and other pending 
 370:.\Generated_Source\PSoC4/Button_Isr.c **** *   interrupts).
 371:.\Generated_Source\PSoC4/Button_Isr.c **** *
 372:.\Generated_Source\PSoC4/Button_Isr.c **** *******************************************************************************/
 373:.\Generated_Source\PSoC4/Button_Isr.c **** void Button_Isr_SetPending(void)
 374:.\Generated_Source\PSoC4/Button_Isr.c **** {
 439              		.loc 1 374 0
 440              		.cfi_startproc
 441 0000 80B5     		push	{r7, lr}
 442              		.cfi_def_cfa_offset 8
 443              		.cfi_offset 7, -8
 444              		.cfi_offset 14, -4
 445 0002 00AF     		add	r7, sp, #0
 446              		.cfi_def_cfa_register 7
 375:.\Generated_Source\PSoC4/Button_Isr.c ****     *Button_Isr_INTC_SET_PD = Button_Isr__INTC_MASK;
 447              		.loc 1 375 0
 448 0004 024B     		ldr	r3, .L36
 449 0006 0422     		mov	r2, #4
 450 0008 1A60     		str	r2, [r3]
 376:.\Generated_Source\PSoC4/Button_Isr.c **** }
 451              		.loc 1 376 0
 452 000a BD46     		mov	sp, r7
 453              		@ sp needed
 454 000c 80BD     		pop	{r7, pc}
 455              	.L37:
 456 000e C046     		.align	2
 457              	.L36:
 458 0010 00E200E0 		.word	-536813056
 459              		.cfi_endproc
 460              	.LFE13:
 461              		.size	Button_Isr_SetPending, .-Button_Isr_SetPending
 462              		.section	.text.Button_Isr_ClearPending,"ax",%progbits
 463              		.align	2
 464              		.global	Button_Isr_ClearPending
 465              		.code	16
 466              		.thumb_func
 467              		.type	Button_Isr_ClearPending, %function
 468              	Button_Isr_ClearPending:
 469              	.LFB14:
 377:.\Generated_Source\PSoC4/Button_Isr.c **** 
 378:.\Generated_Source\PSoC4/Button_Isr.c **** 
 379:.\Generated_Source\PSoC4/Button_Isr.c **** /*******************************************************************************
 380:.\Generated_Source\PSoC4/Button_Isr.c **** * Function Name: Button_Isr_ClearPending
 381:.\Generated_Source\PSoC4/Button_Isr.c **** ********************************************************************************
 382:.\Generated_Source\PSoC4/Button_Isr.c **** *
 383:.\Generated_Source\PSoC4/Button_Isr.c **** * Summary:
 384:.\Generated_Source\PSoC4/Button_Isr.c **** *   Clears a pending interrupt in the interrupt controller.
 385:.\Generated_Source\PSoC4/Button_Isr.c **** *
ARM GAS  C:\Users\DELL\AppData\Local\Temp\ccmlPVnr.s 			page 16


 386:.\Generated_Source\PSoC4/Button_Isr.c **** *   Note Some interrupt sources are clear-on-read and require the block 
 387:.\Generated_Source\PSoC4/Button_Isr.c **** *   interrupt/status register to be read/cleared with the appropriate block API 
 388:.\Generated_Source\PSoC4/Button_Isr.c **** *   (GPIO, UART, and so on). Otherwise the ISR will continue to remain in 
 389:.\Generated_Source\PSoC4/Button_Isr.c **** *   pending state even though the interrupt itself is cleared using this API.
 390:.\Generated_Source\PSoC4/Button_Isr.c **** *
 391:.\Generated_Source\PSoC4/Button_Isr.c **** * Parameters:
 392:.\Generated_Source\PSoC4/Button_Isr.c **** *   None
 393:.\Generated_Source\PSoC4/Button_Isr.c **** *
 394:.\Generated_Source\PSoC4/Button_Isr.c **** * Return:
 395:.\Generated_Source\PSoC4/Button_Isr.c **** *   None
 396:.\Generated_Source\PSoC4/Button_Isr.c **** *
 397:.\Generated_Source\PSoC4/Button_Isr.c **** *******************************************************************************/
 398:.\Generated_Source\PSoC4/Button_Isr.c **** void Button_Isr_ClearPending(void)
 399:.\Generated_Source\PSoC4/Button_Isr.c **** {
 470              		.loc 1 399 0
 471              		.cfi_startproc
 472 0000 80B5     		push	{r7, lr}
 473              		.cfi_def_cfa_offset 8
 474              		.cfi_offset 7, -8
 475              		.cfi_offset 14, -4
 476 0002 00AF     		add	r7, sp, #0
 477              		.cfi_def_cfa_register 7
 400:.\Generated_Source\PSoC4/Button_Isr.c ****     *Button_Isr_INTC_CLR_PD = Button_Isr__INTC_MASK;
 478              		.loc 1 400 0
 479 0004 024B     		ldr	r3, .L39
 480 0006 0422     		mov	r2, #4
 481 0008 1A60     		str	r2, [r3]
 401:.\Generated_Source\PSoC4/Button_Isr.c **** }
 482              		.loc 1 401 0
 483 000a BD46     		mov	sp, r7
 484              		@ sp needed
 485 000c 80BD     		pop	{r7, pc}
 486              	.L40:
 487 000e C046     		.align	2
 488              	.L39:
 489 0010 80E200E0 		.word	-536812928
 490              		.cfi_endproc
 491              	.LFE14:
 492              		.size	Button_Isr_ClearPending, .-Button_Isr_ClearPending
 493              		.text
 494              	.Letext0:
 495              		.file 2 "Generated_Source\\PSoC4/cytypes.h"
