ARM GAS  C:\Users\DELL\AppData\Local\Temp\ccPt02Db.s 			page 1


   1              		.cpu cortex-m0
   2              		.fpu softvfp
   3              		.eabi_attribute 20, 1
   4              		.eabi_attribute 21, 1
   5              		.eabi_attribute 23, 3
   6              		.eabi_attribute 24, 1
   7              		.eabi_attribute 25, 1
   8              		.eabi_attribute 26, 1
   9              		.eabi_attribute 30, 6
  10              		.eabi_attribute 34, 0
  11              		.eabi_attribute 18, 4
  12              		.code	16
  13              		.file	"Buttons.c"
  14              		.text
  15              	.Ltext0:
  16              		.cfi_sections	.debug_frame
  17              		.section	.text.Buttons_Read,"ax",%progbits
  18              		.align	2
  19              		.global	Buttons_Read
  20              		.code	16
  21              		.thumb_func
  22              		.type	Buttons_Read, %function
  23              	Buttons_Read:
  24              	.LFB2:
  25              		.file 1 ".\\Generated_Source\\PSoC4\\Buttons.c"
   1:.\Generated_Source\PSoC4/Buttons.c **** /*******************************************************************************
   2:.\Generated_Source\PSoC4/Buttons.c **** * File Name: Buttons.c  
   3:.\Generated_Source\PSoC4/Buttons.c **** * Version 1.90
   4:.\Generated_Source\PSoC4/Buttons.c **** *
   5:.\Generated_Source\PSoC4/Buttons.c **** * Description:
   6:.\Generated_Source\PSoC4/Buttons.c **** *  This file contains API to enable firmware to read the value of a Status 
   7:.\Generated_Source\PSoC4/Buttons.c **** *  Register.
   8:.\Generated_Source\PSoC4/Buttons.c **** *
   9:.\Generated_Source\PSoC4/Buttons.c **** * Note:
  10:.\Generated_Source\PSoC4/Buttons.c **** *
  11:.\Generated_Source\PSoC4/Buttons.c **** ********************************************************************************
  12:.\Generated_Source\PSoC4/Buttons.c **** * Copyright 2008-2015, Cypress Semiconductor Corporation.  All rights reserved.
  13:.\Generated_Source\PSoC4/Buttons.c **** * You may use this file only in accordance with the license, terms, conditions, 
  14:.\Generated_Source\PSoC4/Buttons.c **** * disclaimers, and limitations in the end user license agreement accompanying 
  15:.\Generated_Source\PSoC4/Buttons.c **** * the software package with which this file was provided.
  16:.\Generated_Source\PSoC4/Buttons.c **** *******************************************************************************/
  17:.\Generated_Source\PSoC4/Buttons.c **** 
  18:.\Generated_Source\PSoC4/Buttons.c **** #include "Buttons.h"
  19:.\Generated_Source\PSoC4/Buttons.c **** 
  20:.\Generated_Source\PSoC4/Buttons.c **** #if !defined(Buttons_sts_sts_reg__REMOVED) /* Check for removal by optimization */
  21:.\Generated_Source\PSoC4/Buttons.c **** 
  22:.\Generated_Source\PSoC4/Buttons.c **** 
  23:.\Generated_Source\PSoC4/Buttons.c **** /*******************************************************************************
  24:.\Generated_Source\PSoC4/Buttons.c **** * Function Name: Buttons_Read
  25:.\Generated_Source\PSoC4/Buttons.c **** ********************************************************************************
  26:.\Generated_Source\PSoC4/Buttons.c **** *
  27:.\Generated_Source\PSoC4/Buttons.c **** * Summary:
  28:.\Generated_Source\PSoC4/Buttons.c **** *  Reads the current value assigned to the Status Register.
  29:.\Generated_Source\PSoC4/Buttons.c **** *
  30:.\Generated_Source\PSoC4/Buttons.c **** * Parameters:
  31:.\Generated_Source\PSoC4/Buttons.c **** *  None.
  32:.\Generated_Source\PSoC4/Buttons.c **** *
ARM GAS  C:\Users\DELL\AppData\Local\Temp\ccPt02Db.s 			page 2


  33:.\Generated_Source\PSoC4/Buttons.c **** * Return:
  34:.\Generated_Source\PSoC4/Buttons.c **** *  The current value in the Status Register.
  35:.\Generated_Source\PSoC4/Buttons.c **** *
  36:.\Generated_Source\PSoC4/Buttons.c **** *******************************************************************************/
  37:.\Generated_Source\PSoC4/Buttons.c **** uint8 Buttons_Read(void) 
  38:.\Generated_Source\PSoC4/Buttons.c **** { 
  26              		.loc 1 38 0
  27              		.cfi_startproc
  28 0000 80B5     		push	{r7, lr}
  29              		.cfi_def_cfa_offset 8
  30              		.cfi_offset 7, -8
  31              		.cfi_offset 14, -4
  32 0002 00AF     		add	r7, sp, #0
  33              		.cfi_def_cfa_register 7
  39:.\Generated_Source\PSoC4/Buttons.c ****     return Buttons_Status;
  34              		.loc 1 39 0
  35 0004 024B     		ldr	r3, .L3
  36 0006 1B78     		ldrb	r3, [r3]
  37 0008 DBB2     		uxtb	r3, r3
  40:.\Generated_Source\PSoC4/Buttons.c **** }
  38              		.loc 1 40 0
  39 000a 181C     		mov	r0, r3
  40 000c BD46     		mov	sp, r7
  41              		@ sp needed
  42 000e 80BD     		pop	{r7, pc}
  43              	.L4:
  44              		.align	2
  45              	.L3:
  46 0010 61000F40 		.word	1074724961
  47              		.cfi_endproc
  48              	.LFE2:
  49              		.size	Buttons_Read, .-Buttons_Read
  50              		.section	.text.Buttons_InterruptEnable,"ax",%progbits
  51              		.align	2
  52              		.global	Buttons_InterruptEnable
  53              		.code	16
  54              		.thumb_func
  55              		.type	Buttons_InterruptEnable, %function
  56              	Buttons_InterruptEnable:
  57              	.LFB3:
  41:.\Generated_Source\PSoC4/Buttons.c **** 
  42:.\Generated_Source\PSoC4/Buttons.c **** 
  43:.\Generated_Source\PSoC4/Buttons.c **** /*******************************************************************************
  44:.\Generated_Source\PSoC4/Buttons.c **** * Function Name: Buttons_InterruptEnable
  45:.\Generated_Source\PSoC4/Buttons.c **** ********************************************************************************
  46:.\Generated_Source\PSoC4/Buttons.c **** *
  47:.\Generated_Source\PSoC4/Buttons.c **** * Summary:
  48:.\Generated_Source\PSoC4/Buttons.c **** *  Enables the Status Register interrupt.
  49:.\Generated_Source\PSoC4/Buttons.c **** *
  50:.\Generated_Source\PSoC4/Buttons.c **** * Parameters:
  51:.\Generated_Source\PSoC4/Buttons.c **** *  None.
  52:.\Generated_Source\PSoC4/Buttons.c **** *
  53:.\Generated_Source\PSoC4/Buttons.c **** * Return:
  54:.\Generated_Source\PSoC4/Buttons.c **** *  None.
  55:.\Generated_Source\PSoC4/Buttons.c **** *
  56:.\Generated_Source\PSoC4/Buttons.c **** *******************************************************************************/
  57:.\Generated_Source\PSoC4/Buttons.c **** void Buttons_InterruptEnable(void) 
ARM GAS  C:\Users\DELL\AppData\Local\Temp\ccPt02Db.s 			page 3


  58:.\Generated_Source\PSoC4/Buttons.c **** {
  58              		.loc 1 58 0
  59              		.cfi_startproc
  60 0000 90B5     		push	{r4, r7, lr}
  61              		.cfi_def_cfa_offset 12
  62              		.cfi_offset 4, -12
  63              		.cfi_offset 7, -8
  64              		.cfi_offset 14, -4
  65 0002 83B0     		sub	sp, sp, #12
  66              		.cfi_def_cfa_offset 24
  67 0004 00AF     		add	r7, sp, #0
  68              		.cfi_def_cfa_register 7
  59:.\Generated_Source\PSoC4/Buttons.c ****     uint8 interruptState;
  60:.\Generated_Source\PSoC4/Buttons.c ****     interruptState = CyEnterCriticalSection();
  69              		.loc 1 60 0
  70 0006 FC1D     		add	r4, r7, #7
  71 0008 FFF7FEFF 		bl	CyEnterCriticalSection
  72 000c 031C     		mov	r3, r0
  73 000e 2370     		strb	r3, [r4]
  61:.\Generated_Source\PSoC4/Buttons.c ****     Buttons_Status_Aux_Ctrl |= Buttons_STATUS_INTR_ENBL;
  74              		.loc 1 61 0
  75 0010 074A     		ldr	r2, .L6
  76 0012 074B     		ldr	r3, .L6
  77 0014 1B78     		ldrb	r3, [r3]
  78 0016 DBB2     		uxtb	r3, r3
  79 0018 1021     		mov	r1, #16
  80 001a 0B43     		orr	r3, r1
  81 001c DBB2     		uxtb	r3, r3
  82 001e 1370     		strb	r3, [r2]
  62:.\Generated_Source\PSoC4/Buttons.c ****     CyExitCriticalSection(interruptState);
  83              		.loc 1 62 0
  84 0020 FB1D     		add	r3, r7, #7
  85 0022 1B78     		ldrb	r3, [r3]
  86 0024 181C     		mov	r0, r3
  87 0026 FFF7FEFF 		bl	CyExitCriticalSection
  63:.\Generated_Source\PSoC4/Buttons.c **** }
  88              		.loc 1 63 0
  89 002a BD46     		mov	sp, r7
  90 002c 03B0     		add	sp, sp, #12
  91              		@ sp needed
  92 002e 90BD     		pop	{r4, r7, pc}
  93              	.L7:
  94              		.align	2
  95              	.L6:
  96 0030 91000F40 		.word	1074725009
  97              		.cfi_endproc
  98              	.LFE3:
  99              		.size	Buttons_InterruptEnable, .-Buttons_InterruptEnable
 100              		.section	.text.Buttons_InterruptDisable,"ax",%progbits
 101              		.align	2
 102              		.global	Buttons_InterruptDisable
 103              		.code	16
 104              		.thumb_func
 105              		.type	Buttons_InterruptDisable, %function
 106              	Buttons_InterruptDisable:
 107              	.LFB4:
  64:.\Generated_Source\PSoC4/Buttons.c **** 
ARM GAS  C:\Users\DELL\AppData\Local\Temp\ccPt02Db.s 			page 4


  65:.\Generated_Source\PSoC4/Buttons.c **** 
  66:.\Generated_Source\PSoC4/Buttons.c **** /*******************************************************************************
  67:.\Generated_Source\PSoC4/Buttons.c **** * Function Name: Buttons_InterruptDisable
  68:.\Generated_Source\PSoC4/Buttons.c **** ********************************************************************************
  69:.\Generated_Source\PSoC4/Buttons.c **** *
  70:.\Generated_Source\PSoC4/Buttons.c **** * Summary:
  71:.\Generated_Source\PSoC4/Buttons.c **** *  Disables the Status Register interrupt.
  72:.\Generated_Source\PSoC4/Buttons.c **** *
  73:.\Generated_Source\PSoC4/Buttons.c **** * Parameters:
  74:.\Generated_Source\PSoC4/Buttons.c **** *  None.
  75:.\Generated_Source\PSoC4/Buttons.c **** *
  76:.\Generated_Source\PSoC4/Buttons.c **** * Return:
  77:.\Generated_Source\PSoC4/Buttons.c **** *  None.
  78:.\Generated_Source\PSoC4/Buttons.c **** *
  79:.\Generated_Source\PSoC4/Buttons.c **** *******************************************************************************/
  80:.\Generated_Source\PSoC4/Buttons.c **** void Buttons_InterruptDisable(void) 
  81:.\Generated_Source\PSoC4/Buttons.c **** {
 108              		.loc 1 81 0
 109              		.cfi_startproc
 110 0000 90B5     		push	{r4, r7, lr}
 111              		.cfi_def_cfa_offset 12
 112              		.cfi_offset 4, -12
 113              		.cfi_offset 7, -8
 114              		.cfi_offset 14, -4
 115 0002 83B0     		sub	sp, sp, #12
 116              		.cfi_def_cfa_offset 24
 117 0004 00AF     		add	r7, sp, #0
 118              		.cfi_def_cfa_register 7
  82:.\Generated_Source\PSoC4/Buttons.c ****     uint8 interruptState;
  83:.\Generated_Source\PSoC4/Buttons.c ****     interruptState = CyEnterCriticalSection();
 119              		.loc 1 83 0
 120 0006 FC1D     		add	r4, r7, #7
 121 0008 FFF7FEFF 		bl	CyEnterCriticalSection
 122 000c 031C     		mov	r3, r0
 123 000e 2370     		strb	r3, [r4]
  84:.\Generated_Source\PSoC4/Buttons.c ****     Buttons_Status_Aux_Ctrl &= (uint8)(~Buttons_STATUS_INTR_ENBL);
 124              		.loc 1 84 0
 125 0010 074A     		ldr	r2, .L9
 126 0012 074B     		ldr	r3, .L9
 127 0014 1B78     		ldrb	r3, [r3]
 128 0016 DBB2     		uxtb	r3, r3
 129 0018 1021     		mov	r1, #16
 130 001a 8B43     		bic	r3, r1
 131 001c DBB2     		uxtb	r3, r3
 132 001e 1370     		strb	r3, [r2]
  85:.\Generated_Source\PSoC4/Buttons.c ****     CyExitCriticalSection(interruptState);
 133              		.loc 1 85 0
 134 0020 FB1D     		add	r3, r7, #7
 135 0022 1B78     		ldrb	r3, [r3]
 136 0024 181C     		mov	r0, r3
 137 0026 FFF7FEFF 		bl	CyExitCriticalSection
  86:.\Generated_Source\PSoC4/Buttons.c **** }
 138              		.loc 1 86 0
 139 002a BD46     		mov	sp, r7
 140 002c 03B0     		add	sp, sp, #12
 141              		@ sp needed
 142 002e 90BD     		pop	{r4, r7, pc}
ARM GAS  C:\Users\DELL\AppData\Local\Temp\ccPt02Db.s 			page 5


 143              	.L10:
 144              		.align	2
 145              	.L9:
 146 0030 91000F40 		.word	1074725009
 147              		.cfi_endproc
 148              	.LFE4:
 149              		.size	Buttons_InterruptDisable, .-Buttons_InterruptDisable
 150              		.section	.text.Buttons_WriteMask,"ax",%progbits
 151              		.align	2
 152              		.global	Buttons_WriteMask
 153              		.code	16
 154              		.thumb_func
 155              		.type	Buttons_WriteMask, %function
 156              	Buttons_WriteMask:
 157              	.LFB5:
  87:.\Generated_Source\PSoC4/Buttons.c **** 
  88:.\Generated_Source\PSoC4/Buttons.c **** 
  89:.\Generated_Source\PSoC4/Buttons.c **** /*******************************************************************************
  90:.\Generated_Source\PSoC4/Buttons.c **** * Function Name: Buttons_WriteMask
  91:.\Generated_Source\PSoC4/Buttons.c **** ********************************************************************************
  92:.\Generated_Source\PSoC4/Buttons.c **** *
  93:.\Generated_Source\PSoC4/Buttons.c **** * Summary:
  94:.\Generated_Source\PSoC4/Buttons.c **** *  Writes the current mask value assigned to the Status Register.
  95:.\Generated_Source\PSoC4/Buttons.c **** *
  96:.\Generated_Source\PSoC4/Buttons.c **** * Parameters:
  97:.\Generated_Source\PSoC4/Buttons.c **** *  mask:  Value to write into the mask register.
  98:.\Generated_Source\PSoC4/Buttons.c **** *
  99:.\Generated_Source\PSoC4/Buttons.c **** * Return:
 100:.\Generated_Source\PSoC4/Buttons.c **** *  None.
 101:.\Generated_Source\PSoC4/Buttons.c **** *
 102:.\Generated_Source\PSoC4/Buttons.c **** *******************************************************************************/
 103:.\Generated_Source\PSoC4/Buttons.c **** void Buttons_WriteMask(uint8 mask) 
 104:.\Generated_Source\PSoC4/Buttons.c **** {
 158              		.loc 1 104 0
 159              		.cfi_startproc
 160 0000 80B5     		push	{r7, lr}
 161              		.cfi_def_cfa_offset 8
 162              		.cfi_offset 7, -8
 163              		.cfi_offset 14, -4
 164 0002 82B0     		sub	sp, sp, #8
 165              		.cfi_def_cfa_offset 16
 166 0004 00AF     		add	r7, sp, #0
 167              		.cfi_def_cfa_register 7
 168 0006 021C     		mov	r2, r0
 169 0008 FB1D     		add	r3, r7, #7
 170 000a 1A70     		strb	r2, [r3]
 105:.\Generated_Source\PSoC4/Buttons.c ****     #if(Buttons_INPUTS < 8u)
 106:.\Generated_Source\PSoC4/Buttons.c ****     	mask &= ((uint8)(1u << Buttons_INPUTS) - 1u);
 171              		.loc 1 106 0
 172 000c FB1D     		add	r3, r7, #7
 173 000e FA1D     		add	r2, r7, #7
 174 0010 1278     		ldrb	r2, [r2]
 175 0012 0121     		mov	r1, #1
 176 0014 0A40     		and	r2, r1
 177 0016 1A70     		strb	r2, [r3]
 107:.\Generated_Source\PSoC4/Buttons.c **** 	#endif /* End Buttons_INPUTS < 8u */
 108:.\Generated_Source\PSoC4/Buttons.c ****     Buttons_Status_Mask = mask;
ARM GAS  C:\Users\DELL\AppData\Local\Temp\ccPt02Db.s 			page 6


 178              		.loc 1 108 0
 179 0018 034A     		ldr	r2, .L12
 180 001a FB1D     		add	r3, r7, #7
 181 001c 1B78     		ldrb	r3, [r3]
 182 001e 1370     		strb	r3, [r2]
 109:.\Generated_Source\PSoC4/Buttons.c **** }
 183              		.loc 1 109 0
 184 0020 BD46     		mov	sp, r7
 185 0022 02B0     		add	sp, sp, #8
 186              		@ sp needed
 187 0024 80BD     		pop	{r7, pc}
 188              	.L13:
 189 0026 C046     		.align	2
 190              	.L12:
 191 0028 81000F40 		.word	1074724993
 192              		.cfi_endproc
 193              	.LFE5:
 194              		.size	Buttons_WriteMask, .-Buttons_WriteMask
 195              		.section	.text.Buttons_ReadMask,"ax",%progbits
 196              		.align	2
 197              		.global	Buttons_ReadMask
 198              		.code	16
 199              		.thumb_func
 200              		.type	Buttons_ReadMask, %function
 201              	Buttons_ReadMask:
 202              	.LFB6:
 110:.\Generated_Source\PSoC4/Buttons.c **** 
 111:.\Generated_Source\PSoC4/Buttons.c **** 
 112:.\Generated_Source\PSoC4/Buttons.c **** /*******************************************************************************
 113:.\Generated_Source\PSoC4/Buttons.c **** * Function Name: Buttons_ReadMask
 114:.\Generated_Source\PSoC4/Buttons.c **** ********************************************************************************
 115:.\Generated_Source\PSoC4/Buttons.c **** *
 116:.\Generated_Source\PSoC4/Buttons.c **** * Summary:
 117:.\Generated_Source\PSoC4/Buttons.c **** *  Reads the current interrupt mask assigned to the Status Register.
 118:.\Generated_Source\PSoC4/Buttons.c **** *
 119:.\Generated_Source\PSoC4/Buttons.c **** * Parameters:
 120:.\Generated_Source\PSoC4/Buttons.c **** *  None.
 121:.\Generated_Source\PSoC4/Buttons.c **** *
 122:.\Generated_Source\PSoC4/Buttons.c **** * Return:
 123:.\Generated_Source\PSoC4/Buttons.c **** *  The value of the interrupt mask of the Status Register.
 124:.\Generated_Source\PSoC4/Buttons.c **** *
 125:.\Generated_Source\PSoC4/Buttons.c **** *******************************************************************************/
 126:.\Generated_Source\PSoC4/Buttons.c **** uint8 Buttons_ReadMask(void) 
 127:.\Generated_Source\PSoC4/Buttons.c **** {
 203              		.loc 1 127 0
 204              		.cfi_startproc
 205 0000 80B5     		push	{r7, lr}
 206              		.cfi_def_cfa_offset 8
 207              		.cfi_offset 7, -8
 208              		.cfi_offset 14, -4
 209 0002 00AF     		add	r7, sp, #0
 210              		.cfi_def_cfa_register 7
 128:.\Generated_Source\PSoC4/Buttons.c ****     return Buttons_Status_Mask;
 211              		.loc 1 128 0
 212 0004 024B     		ldr	r3, .L16
 213 0006 1B78     		ldrb	r3, [r3]
 214 0008 DBB2     		uxtb	r3, r3
ARM GAS  C:\Users\DELL\AppData\Local\Temp\ccPt02Db.s 			page 7


 129:.\Generated_Source\PSoC4/Buttons.c **** }
 215              		.loc 1 129 0
 216 000a 181C     		mov	r0, r3
 217 000c BD46     		mov	sp, r7
 218              		@ sp needed
 219 000e 80BD     		pop	{r7, pc}
 220              	.L17:
 221              		.align	2
 222              	.L16:
 223 0010 81000F40 		.word	1074724993
 224              		.cfi_endproc
 225              	.LFE6:
 226              		.size	Buttons_ReadMask, .-Buttons_ReadMask
 227              		.text
 228              	.Letext0:
 229              		.file 2 ".\\Generated_Source\\PSoC4\\cytypes.h"
