ARM GAS  C:\Users\DELL\AppData\Local\Temp\ccQDDFLC.s 			page 1


   1              		.cpu cortex-m0
   2              		.fpu softvfp
   3              		.eabi_attribute 20, 1
   4              		.eabi_attribute 21, 1
   5              		.eabi_attribute 23, 3
   6              		.eabi_attribute 24, 1
   7              		.eabi_attribute 25, 1
   8              		.eabi_attribute 26, 1
   9              		.eabi_attribute 30, 6
  10              		.eabi_attribute 34, 0
  11              		.eabi_attribute 18, 4
  12              		.code	16
  13              		.file	"EZI2C_EZI2C.c"
  14              		.text
  15              	.Ltext0:
  16              		.cfi_sections	.debug_frame
  17              		.comm	EZI2C_curStatus,1,1
  18              		.comm	EZI2C_fsmState,1,1
  19              		.comm	EZI2C_dataBuffer1,4,4
  20              		.comm	EZI2C_bufSizeBuf1,2,2
  21              		.comm	EZI2C_protectBuf1,2,2
  22              		.comm	EZI2C_offsetBuf1,1,1
  23              		.comm	EZI2C_indexBuf1,2,2
  24              		.section	.text.EZI2C_EzI2CInit,"ax",%progbits
  25              		.align	2
  26              		.global	EZI2C_EzI2CInit
  27              		.code	16
  28              		.thumb_func
  29              		.type	EZI2C_EzI2CInit, %function
  30              	EZI2C_EzI2CInit:
  31              	.LFB2:
  32              		.file 1 ".\\Generated_Source\\PSoC4\\EZI2C_EZI2C.c"
   1:.\Generated_Source\PSoC4/EZI2C_EZI2C.c **** /*******************************************************************************
   2:.\Generated_Source\PSoC4/EZI2C_EZI2C.c **** * File Name: EZI2C_EZI2C.c
   3:.\Generated_Source\PSoC4/EZI2C_EZI2C.c **** * Version 3.10
   4:.\Generated_Source\PSoC4/EZI2C_EZI2C.c **** *
   5:.\Generated_Source\PSoC4/EZI2C_EZI2C.c **** * Description:
   6:.\Generated_Source\PSoC4/EZI2C_EZI2C.c **** *  This file provides the source code to the API for the SCB Component in
   7:.\Generated_Source\PSoC4/EZI2C_EZI2C.c **** *  EZI2C mode.
   8:.\Generated_Source\PSoC4/EZI2C_EZI2C.c **** *
   9:.\Generated_Source\PSoC4/EZI2C_EZI2C.c **** * Note:
  10:.\Generated_Source\PSoC4/EZI2C_EZI2C.c **** *
  11:.\Generated_Source\PSoC4/EZI2C_EZI2C.c **** *******************************************************************************
  12:.\Generated_Source\PSoC4/EZI2C_EZI2C.c **** * Copyright 2013-2015, Cypress Semiconductor Corporation.  All rights reserved.
  13:.\Generated_Source\PSoC4/EZI2C_EZI2C.c **** * You may use this file only in accordance with the license, terms, conditions,
  14:.\Generated_Source\PSoC4/EZI2C_EZI2C.c **** * disclaimers, and limitations in the end user license agreement accompanying
  15:.\Generated_Source\PSoC4/EZI2C_EZI2C.c **** * the software package with which this file was provided.
  16:.\Generated_Source\PSoC4/EZI2C_EZI2C.c **** *******************************************************************************/
  17:.\Generated_Source\PSoC4/EZI2C_EZI2C.c **** 
  18:.\Generated_Source\PSoC4/EZI2C_EZI2C.c **** #include "EZI2C_PVT.h"
  19:.\Generated_Source\PSoC4/EZI2C_EZI2C.c **** #include "EZI2C_EZI2C_PVT.h"
  20:.\Generated_Source\PSoC4/EZI2C_EZI2C.c **** 
  21:.\Generated_Source\PSoC4/EZI2C_EZI2C.c **** 
  22:.\Generated_Source\PSoC4/EZI2C_EZI2C.c **** /***************************************
  23:.\Generated_Source\PSoC4/EZI2C_EZI2C.c **** *      EZI2C Private Vars
  24:.\Generated_Source\PSoC4/EZI2C_EZI2C.c **** ***************************************/
  25:.\Generated_Source\PSoC4/EZI2C_EZI2C.c **** 
ARM GAS  C:\Users\DELL\AppData\Local\Temp\ccQDDFLC.s 			page 2


  26:.\Generated_Source\PSoC4/EZI2C_EZI2C.c **** volatile uint8 EZI2C_curStatus; /* Status byte */
  27:.\Generated_Source\PSoC4/EZI2C_EZI2C.c **** uint8 EZI2C_fsmState;           /* FSM state   */
  28:.\Generated_Source\PSoC4/EZI2C_EZI2C.c **** 
  29:.\Generated_Source\PSoC4/EZI2C_EZI2C.c **** /* Variables intended to be used with Buffer 1: Primary slave address */
  30:.\Generated_Source\PSoC4/EZI2C_EZI2C.c **** volatile uint8 * EZI2C_dataBuffer1; /* Pointer to data buffer 1 */
  31:.\Generated_Source\PSoC4/EZI2C_EZI2C.c **** uint16 EZI2C_bufSizeBuf1; /* Size of buffer 1 in bytes      */
  32:.\Generated_Source\PSoC4/EZI2C_EZI2C.c **** uint16 EZI2C_protectBuf1; /* Start index of write protected area buffer 1 */
  33:.\Generated_Source\PSoC4/EZI2C_EZI2C.c **** uint8 EZI2C_offsetBuf1; /* Current offset within buffer 1 */
  34:.\Generated_Source\PSoC4/EZI2C_EZI2C.c **** uint16 EZI2C_indexBuf1;  /* Current index within buffer 1  */
  35:.\Generated_Source\PSoC4/EZI2C_EZI2C.c **** 
  36:.\Generated_Source\PSoC4/EZI2C_EZI2C.c **** #if(EZI2C_SECONDARY_ADDRESS_ENABLE_CONST)
  37:.\Generated_Source\PSoC4/EZI2C_EZI2C.c ****     uint8 EZI2C_addrBuf1; /* Primary slave address. Used for software comparison   */
  38:.\Generated_Source\PSoC4/EZI2C_EZI2C.c ****     uint8 EZI2C_addrBuf2; /* Secondary slave address. Used for software comparison */
  39:.\Generated_Source\PSoC4/EZI2C_EZI2C.c **** 
  40:.\Generated_Source\PSoC4/EZI2C_EZI2C.c ****     /* Variables intended to be used with Buffer 2: Primary slave address */
  41:.\Generated_Source\PSoC4/EZI2C_EZI2C.c ****     volatile uint8 * EZI2C_dataBuffer2; /* Pointer to data buffer 2 */
  42:.\Generated_Source\PSoC4/EZI2C_EZI2C.c ****     uint16 EZI2C_bufSizeBuf2; /* Size of buffer 2 in bytes      */
  43:.\Generated_Source\PSoC4/EZI2C_EZI2C.c ****     uint16 EZI2C_protectBuf2; /* Start index of write protected area buffer 2 */
  44:.\Generated_Source\PSoC4/EZI2C_EZI2C.c ****     uint8 EZI2C_offsetBuf2; /* Current offset within buffer 2 */
  45:.\Generated_Source\PSoC4/EZI2C_EZI2C.c ****     uint16 EZI2C_indexBuf2;  /* Current index within buffer 2  */
  46:.\Generated_Source\PSoC4/EZI2C_EZI2C.c **** #endif /* (EZI2C_SECONDARY_ADDRESS_ENABLE_CONST) */
  47:.\Generated_Source\PSoC4/EZI2C_EZI2C.c **** 
  48:.\Generated_Source\PSoC4/EZI2C_EZI2C.c **** 
  49:.\Generated_Source\PSoC4/EZI2C_EZI2C.c **** /***************************************
  50:.\Generated_Source\PSoC4/EZI2C_EZI2C.c **** *      EZI2C Private Functions
  51:.\Generated_Source\PSoC4/EZI2C_EZI2C.c **** ***************************************/
  52:.\Generated_Source\PSoC4/EZI2C_EZI2C.c **** 
  53:.\Generated_Source\PSoC4/EZI2C_EZI2C.c **** #if(EZI2C_SECONDARY_ADDRESS_ENABLE_CONST)
  54:.\Generated_Source\PSoC4/EZI2C_EZI2C.c ****     static uint32 EZI2C_EzI2CUpdateRxMatchReg(uint32 addr1, uint32 addr2);
  55:.\Generated_Source\PSoC4/EZI2C_EZI2C.c **** #endif /* (EZI2C_SECONDARY_ADDRESS_ENABLE_CONST) */
  56:.\Generated_Source\PSoC4/EZI2C_EZI2C.c **** 
  57:.\Generated_Source\PSoC4/EZI2C_EZI2C.c **** #if(EZI2C_SCB_MODE_UNCONFIG_CONST_CFG)
  58:.\Generated_Source\PSoC4/EZI2C_EZI2C.c **** 
  59:.\Generated_Source\PSoC4/EZI2C_EZI2C.c ****     /***************************************
  60:.\Generated_Source\PSoC4/EZI2C_EZI2C.c ****     *  Configuration Structure Initialization
  61:.\Generated_Source\PSoC4/EZI2C_EZI2C.c ****     ***************************************/
  62:.\Generated_Source\PSoC4/EZI2C_EZI2C.c **** 
  63:.\Generated_Source\PSoC4/EZI2C_EZI2C.c ****     /* Constant configuration of EZI2C */
  64:.\Generated_Source\PSoC4/EZI2C_EZI2C.c ****     const EZI2C_EZI2C_INIT_STRUCT EZI2C_configEzI2C =
  65:.\Generated_Source\PSoC4/EZI2C_EZI2C.c ****     {
  66:.\Generated_Source\PSoC4/EZI2C_EZI2C.c ****         EZI2C_EZI2C_CLOCK_STRETCHING,
  67:.\Generated_Source\PSoC4/EZI2C_EZI2C.c ****         EZI2C_EZI2C_MEDIAN_FILTER_ENABLE,
  68:.\Generated_Source\PSoC4/EZI2C_EZI2C.c ****         EZI2C_EZI2C_NUMBER_OF_ADDRESSES,
  69:.\Generated_Source\PSoC4/EZI2C_EZI2C.c ****         EZI2C_EZI2C_PRIMARY_SLAVE_ADDRESS,
  70:.\Generated_Source\PSoC4/EZI2C_EZI2C.c ****         EZI2C_EZI2C_SECONDARY_SLAVE_ADDRESS,
  71:.\Generated_Source\PSoC4/EZI2C_EZI2C.c ****         EZI2C_EZI2C_SUB_ADDRESS_SIZE,
  72:.\Generated_Source\PSoC4/EZI2C_EZI2C.c ****         EZI2C_EZI2C_WAKE_ENABLE,
  73:.\Generated_Source\PSoC4/EZI2C_EZI2C.c ****         EZI2C_EZI2C_BYTE_MODE_ENABLE
  74:.\Generated_Source\PSoC4/EZI2C_EZI2C.c ****     };
  75:.\Generated_Source\PSoC4/EZI2C_EZI2C.c **** 
  76:.\Generated_Source\PSoC4/EZI2C_EZI2C.c ****     /*******************************************************************************
  77:.\Generated_Source\PSoC4/EZI2C_EZI2C.c ****     * Function Name: EZI2C_EzI2CInit
  78:.\Generated_Source\PSoC4/EZI2C_EZI2C.c ****     ********************************************************************************
  79:.\Generated_Source\PSoC4/EZI2C_EZI2C.c ****     *
  80:.\Generated_Source\PSoC4/EZI2C_EZI2C.c ****     * Summary:
  81:.\Generated_Source\PSoC4/EZI2C_EZI2C.c ****     *  Configures the SCB for the EZI2C operation.
  82:.\Generated_Source\PSoC4/EZI2C_EZI2C.c ****     *
ARM GAS  C:\Users\DELL\AppData\Local\Temp\ccQDDFLC.s 			page 3


  83:.\Generated_Source\PSoC4/EZI2C_EZI2C.c ****     * Parameters:
  84:.\Generated_Source\PSoC4/EZI2C_EZI2C.c ****     *  config:  Pointer to a structure that contains the following ordered list of
  85:.\Generated_Source\PSoC4/EZI2C_EZI2C.c ****     *           fields. These fields match the selections available in the
  86:.\Generated_Source\PSoC4/EZI2C_EZI2C.c ****     *           customizer.
  87:.\Generated_Source\PSoC4/EZI2C_EZI2C.c ****     *
  88:.\Generated_Source\PSoC4/EZI2C_EZI2C.c ****     * Return:
  89:.\Generated_Source\PSoC4/EZI2C_EZI2C.c ****     *  None
  90:.\Generated_Source\PSoC4/EZI2C_EZI2C.c ****     *
  91:.\Generated_Source\PSoC4/EZI2C_EZI2C.c ****     *******************************************************************************/
  92:.\Generated_Source\PSoC4/EZI2C_EZI2C.c ****     void EZI2C_EzI2CInit(const EZI2C_EZI2C_INIT_STRUCT *config)
  93:.\Generated_Source\PSoC4/EZI2C_EZI2C.c ****     {
  94:.\Generated_Source\PSoC4/EZI2C_EZI2C.c ****         if(NULL == config)
  95:.\Generated_Source\PSoC4/EZI2C_EZI2C.c ****         {
  96:.\Generated_Source\PSoC4/EZI2C_EZI2C.c ****             CYASSERT(0u != 0u); /* Halt execution due to bad function parameter */
  97:.\Generated_Source\PSoC4/EZI2C_EZI2C.c ****         }
  98:.\Generated_Source\PSoC4/EZI2C_EZI2C.c ****         else
  99:.\Generated_Source\PSoC4/EZI2C_EZI2C.c ****         {
 100:.\Generated_Source\PSoC4/EZI2C_EZI2C.c ****             /* Configure pins */
 101:.\Generated_Source\PSoC4/EZI2C_EZI2C.c ****             EZI2C_SetPins(EZI2C_SCB_MODE_EZI2C, EZI2C_DUMMY_PARAM,
 102:.\Generated_Source\PSoC4/EZI2C_EZI2C.c ****                                                                       EZI2C_DUMMY_PARAM);
 103:.\Generated_Source\PSoC4/EZI2C_EZI2C.c **** 
 104:.\Generated_Source\PSoC4/EZI2C_EZI2C.c ****             /* Store internal configuration */
 105:.\Generated_Source\PSoC4/EZI2C_EZI2C.c ****             EZI2C_scbMode       = (uint8) EZI2C_SCB_MODE_EZI2C;
 106:.\Generated_Source\PSoC4/EZI2C_EZI2C.c ****             EZI2C_scbEnableWake = (uint8) config->enableWake;
 107:.\Generated_Source\PSoC4/EZI2C_EZI2C.c ****             EZI2C_scbEnableIntr = (uint8) EZI2C_SCB_IRQ_INTERNAL;
 108:.\Generated_Source\PSoC4/EZI2C_EZI2C.c **** 
 109:.\Generated_Source\PSoC4/EZI2C_EZI2C.c ****             EZI2C_numberOfAddr  = (uint8) config->numberOfAddresses;
 110:.\Generated_Source\PSoC4/EZI2C_EZI2C.c ****             EZI2C_subAddrSize   = (uint8) config->subAddrSize;
 111:.\Generated_Source\PSoC4/EZI2C_EZI2C.c **** 
 112:.\Generated_Source\PSoC4/EZI2C_EZI2C.c ****         #if (EZI2C_CY_SCBIP_V0)
 113:.\Generated_Source\PSoC4/EZI2C_EZI2C.c ****             /* Adjust SDA filter settings. Ticket ID#150521 */
 114:.\Generated_Source\PSoC4/EZI2C_EZI2C.c ****             EZI2C_SET_I2C_CFG_SDA_FILT_TRIM(EZI2C_EC_AM_I2C_CFG_SDA_FILT_TRIM);
 115:.\Generated_Source\PSoC4/EZI2C_EZI2C.c ****         #endif /* (EZI2C_CY_SCBIP_V0) */
 116:.\Generated_Source\PSoC4/EZI2C_EZI2C.c **** 
 117:.\Generated_Source\PSoC4/EZI2C_EZI2C.c ****             /* Adjust AF and DF filter settings, AF = 1, DF = 0. Ticket ID#176179 */
 118:.\Generated_Source\PSoC4/EZI2C_EZI2C.c ****             EZI2C_I2C_CFG_ANALOG_FITER_ENABLE;
 119:.\Generated_Source\PSoC4/EZI2C_EZI2C.c **** 
 120:.\Generated_Source\PSoC4/EZI2C_EZI2C.c ****             /* Configure I2C interface */
 121:.\Generated_Source\PSoC4/EZI2C_EZI2C.c ****             EZI2C_CTRL_REG     = EZI2C_GET_CTRL_BYTE_MODE  (config->enableByteMode)    |
 122:.\Generated_Source\PSoC4/EZI2C_EZI2C.c ****                                             EZI2C_GET_CTRL_ADDR_ACCEPT(config->numberOfAddresses) |
 123:.\Generated_Source\PSoC4/EZI2C_EZI2C.c ****                                             EZI2C_GET_CTRL_EC_AM_MODE (config->enableWake);
 124:.\Generated_Source\PSoC4/EZI2C_EZI2C.c **** 
 125:.\Generated_Source\PSoC4/EZI2C_EZI2C.c ****             EZI2C_I2C_CTRL_REG = EZI2C_EZI2C_CTRL;
 126:.\Generated_Source\PSoC4/EZI2C_EZI2C.c **** 
 127:.\Generated_Source\PSoC4/EZI2C_EZI2C.c ****             /* Configure RX direction */
 128:.\Generated_Source\PSoC4/EZI2C_EZI2C.c ****             EZI2C_RX_CTRL_REG = EZI2C_EZI2C_RX_CTRL |
 129:.\Generated_Source\PSoC4/EZI2C_EZI2C.c ****                                         EZI2C_GET_RX_CTRL_MEDIAN(EZI2C_DIGITAL_FILTER_DISABLE);
 130:.\Generated_Source\PSoC4/EZI2C_EZI2C.c ****                                                 ;
 131:.\Generated_Source\PSoC4/EZI2C_EZI2C.c ****             EZI2C_RX_FIFO_CTRL_REG = EZI2C_CLEAR_REG;
 132:.\Generated_Source\PSoC4/EZI2C_EZI2C.c **** 
 133:.\Generated_Source\PSoC4/EZI2C_EZI2C.c ****             /* Set default address and mask */
 134:.\Generated_Source\PSoC4/EZI2C_EZI2C.c ****             if(EZI2C_EZI2C_PRIMARY_ADDRESS == config->numberOfAddresses)
 135:.\Generated_Source\PSoC4/EZI2C_EZI2C.c ****             {
 136:.\Generated_Source\PSoC4/EZI2C_EZI2C.c ****                 EZI2C_RX_MATCH_REG = EZI2C_EzI2CUpdateRxMatchReg(config->primarySlaveAddr,
 137:.\Generated_Source\PSoC4/EZI2C_EZI2C.c ****                                                                                        config->prim
 138:.\Generated_Source\PSoC4/EZI2C_EZI2C.c ****             }
 139:.\Generated_Source\PSoC4/EZI2C_EZI2C.c ****             else
ARM GAS  C:\Users\DELL\AppData\Local\Temp\ccQDDFLC.s 			page 4


 140:.\Generated_Source\PSoC4/EZI2C_EZI2C.c ****             {
 141:.\Generated_Source\PSoC4/EZI2C_EZI2C.c ****                 EZI2C_RX_MATCH_REG = EZI2C_EzI2CUpdateRxMatchReg(config->primarySlaveAddr,
 142:.\Generated_Source\PSoC4/EZI2C_EZI2C.c ****                                                                                        config->seco
 143:.\Generated_Source\PSoC4/EZI2C_EZI2C.c ****             }
 144:.\Generated_Source\PSoC4/EZI2C_EZI2C.c **** 
 145:.\Generated_Source\PSoC4/EZI2C_EZI2C.c ****             /* Configure TX direction */
 146:.\Generated_Source\PSoC4/EZI2C_EZI2C.c ****             EZI2C_TX_CTRL_REG      = EZI2C_EZI2C_TX_CTRL;
 147:.\Generated_Source\PSoC4/EZI2C_EZI2C.c ****             EZI2C_TX_FIFO_CTRL_REG = ((0u != (config->enableClockStretch)) ?
 148:.\Generated_Source\PSoC4/EZI2C_EZI2C.c ****                                                  EZI2C_CLEAR_REG : EZI2C_EZI2C_TX_FIFO_CTRL);
 149:.\Generated_Source\PSoC4/EZI2C_EZI2C.c **** 
 150:.\Generated_Source\PSoC4/EZI2C_EZI2C.c ****             /* Configure interrupt sources */
 151:.\Generated_Source\PSoC4/EZI2C_EZI2C.c ****         #if (!EZI2C_CY_SCBIP_V1)
 152:.\Generated_Source\PSoC4/EZI2C_EZI2C.c ****            EZI2C_INTR_SPI_EC_MASK_REG = EZI2C_NO_INTR_SOURCES;
 153:.\Generated_Source\PSoC4/EZI2C_EZI2C.c ****         #endif /* (!EZI2C_CY_SCBIP_V1) */
 154:.\Generated_Source\PSoC4/EZI2C_EZI2C.c **** 
 155:.\Generated_Source\PSoC4/EZI2C_EZI2C.c ****             EZI2C_INTR_I2C_EC_MASK_REG = EZI2C_NO_INTR_SOURCES;
 156:.\Generated_Source\PSoC4/EZI2C_EZI2C.c ****             EZI2C_INTR_MASTER_MASK_REG = EZI2C_NO_INTR_SOURCES;
 157:.\Generated_Source\PSoC4/EZI2C_EZI2C.c ****             EZI2C_INTR_SLAVE_MASK_REG  = EZI2C_EZI2C_INTR_SLAVE_MASK;
 158:.\Generated_Source\PSoC4/EZI2C_EZI2C.c ****             EZI2C_INTR_TX_MASK_REG     = EZI2C_NO_INTR_SOURCES;
 159:.\Generated_Source\PSoC4/EZI2C_EZI2C.c **** 
 160:.\Generated_Source\PSoC4/EZI2C_EZI2C.c ****             /* Configure interrupt with EZI2C handler but do not enable it */
 161:.\Generated_Source\PSoC4/EZI2C_EZI2C.c ****             CyIntDisable    (EZI2C_ISR_NUMBER);
 162:.\Generated_Source\PSoC4/EZI2C_EZI2C.c ****             CyIntSetPriority(EZI2C_ISR_NUMBER, EZI2C_ISR_PRIORITY);
 163:.\Generated_Source\PSoC4/EZI2C_EZI2C.c ****             (void) CyIntSetVector(EZI2C_ISR_NUMBER, (0u != (config->enableClockStretch)) ?
 164:.\Generated_Source\PSoC4/EZI2C_EZI2C.c ****                                                                       (&EZI2C_EZI2C_STRETCH_ISR) :
 165:.\Generated_Source\PSoC4/EZI2C_EZI2C.c ****                                                                       (&EZI2C_EZI2C_NO_STRETCH_ISR)
 166:.\Generated_Source\PSoC4/EZI2C_EZI2C.c **** 
 167:.\Generated_Source\PSoC4/EZI2C_EZI2C.c ****             if(0u != (config->enableClockStretch))
 168:.\Generated_Source\PSoC4/EZI2C_EZI2C.c ****             {
 169:.\Generated_Source\PSoC4/EZI2C_EZI2C.c ****                 /* Configure interrupt sources */
 170:.\Generated_Source\PSoC4/EZI2C_EZI2C.c ****                 EZI2C_INTR_SLAVE_MASK_REG |= EZI2C_INTR_SLAVE_I2C_ADDR_MATCH;
 171:.\Generated_Source\PSoC4/EZI2C_EZI2C.c ****                 EZI2C_INTR_RX_MASK_REG     = EZI2C_NO_INTR_SOURCES;
 172:.\Generated_Source\PSoC4/EZI2C_EZI2C.c ****             }
 173:.\Generated_Source\PSoC4/EZI2C_EZI2C.c ****             else
 174:.\Generated_Source\PSoC4/EZI2C_EZI2C.c ****             {
 175:.\Generated_Source\PSoC4/EZI2C_EZI2C.c ****                 /* Enable Auto ACK/NACK features */
 176:.\Generated_Source\PSoC4/EZI2C_EZI2C.c ****                 EZI2C_I2C_CTRL_REG |= EZI2C_EZI2C_CTRL_AUTO;
 177:.\Generated_Source\PSoC4/EZI2C_EZI2C.c **** 
 178:.\Generated_Source\PSoC4/EZI2C_EZI2C.c ****                 /* Configure RX interrupt source */
 179:.\Generated_Source\PSoC4/EZI2C_EZI2C.c ****                 EZI2C_INTR_SLAVE_MASK_REG |= EZI2C_INTR_SLAVE_I2C_START;
 180:.\Generated_Source\PSoC4/EZI2C_EZI2C.c ****                 EZI2C_INTR_RX_MASK_REG     = EZI2C_INTR_RX_NOT_EMPTY;
 181:.\Generated_Source\PSoC4/EZI2C_EZI2C.c ****             }
 182:.\Generated_Source\PSoC4/EZI2C_EZI2C.c **** 
 183:.\Generated_Source\PSoC4/EZI2C_EZI2C.c ****             /* Configure global variables */
 184:.\Generated_Source\PSoC4/EZI2C_EZI2C.c ****             EZI2C_fsmState = EZI2C_EZI2C_FSM_IDLE;
 185:.\Generated_Source\PSoC4/EZI2C_EZI2C.c **** 
 186:.\Generated_Source\PSoC4/EZI2C_EZI2C.c ****             EZI2C_curStatus  = 0u;
 187:.\Generated_Source\PSoC4/EZI2C_EZI2C.c ****             EZI2C_indexBuf1  = 0u;
 188:.\Generated_Source\PSoC4/EZI2C_EZI2C.c ****             EZI2C_offsetBuf1 = 0u;
 189:.\Generated_Source\PSoC4/EZI2C_EZI2C.c ****             EZI2C_indexBuf2  = 0u;
 190:.\Generated_Source\PSoC4/EZI2C_EZI2C.c ****             EZI2C_offsetBuf2 = 0u;
 191:.\Generated_Source\PSoC4/EZI2C_EZI2C.c **** 
 192:.\Generated_Source\PSoC4/EZI2C_EZI2C.c ****             EZI2C_addrBuf1 = (uint8) config->primarySlaveAddr;
 193:.\Generated_Source\PSoC4/EZI2C_EZI2C.c ****             EZI2C_addrBuf2 = (uint8) config->secondarySlaveAddr;
 194:.\Generated_Source\PSoC4/EZI2C_EZI2C.c ****         }
 195:.\Generated_Source\PSoC4/EZI2C_EZI2C.c ****     }
 196:.\Generated_Source\PSoC4/EZI2C_EZI2C.c **** 
ARM GAS  C:\Users\DELL\AppData\Local\Temp\ccQDDFLC.s 			page 5


 197:.\Generated_Source\PSoC4/EZI2C_EZI2C.c **** #else
 198:.\Generated_Source\PSoC4/EZI2C_EZI2C.c **** 
 199:.\Generated_Source\PSoC4/EZI2C_EZI2C.c ****     /*******************************************************************************
 200:.\Generated_Source\PSoC4/EZI2C_EZI2C.c ****     * Function Name: EZI2C_EzI2CInit
 201:.\Generated_Source\PSoC4/EZI2C_EZI2C.c ****     ********************************************************************************
 202:.\Generated_Source\PSoC4/EZI2C_EZI2C.c ****     *
 203:.\Generated_Source\PSoC4/EZI2C_EZI2C.c ****     * Summary:
 204:.\Generated_Source\PSoC4/EZI2C_EZI2C.c ****     *  Configures the SCB for the EZI2C operation.
 205:.\Generated_Source\PSoC4/EZI2C_EZI2C.c ****     *
 206:.\Generated_Source\PSoC4/EZI2C_EZI2C.c ****     * Parameters:
 207:.\Generated_Source\PSoC4/EZI2C_EZI2C.c ****     *  None
 208:.\Generated_Source\PSoC4/EZI2C_EZI2C.c ****     *
 209:.\Generated_Source\PSoC4/EZI2C_EZI2C.c ****     * Return:
 210:.\Generated_Source\PSoC4/EZI2C_EZI2C.c ****     *  None
 211:.\Generated_Source\PSoC4/EZI2C_EZI2C.c ****     *
 212:.\Generated_Source\PSoC4/EZI2C_EZI2C.c ****     *******************************************************************************/
 213:.\Generated_Source\PSoC4/EZI2C_EZI2C.c ****     void EZI2C_EzI2CInit(void)
 214:.\Generated_Source\PSoC4/EZI2C_EZI2C.c ****     {
  33              		.loc 1 214 0
  34              		.cfi_startproc
  35 0000 80B5     		push	{r7, lr}
  36              		.cfi_def_cfa_offset 8
  37              		.cfi_offset 7, -8
  38              		.cfi_offset 14, -4
  39 0002 00AF     		add	r7, sp, #0
  40              		.cfi_def_cfa_register 7
 215:.\Generated_Source\PSoC4/EZI2C_EZI2C.c ****         /* Configure I2C interface */
 216:.\Generated_Source\PSoC4/EZI2C_EZI2C.c ****         EZI2C_CTRL_REG     = EZI2C_EZI2C_DEFAULT_CTRL;
  41              		.loc 1 216 0
  42 0004 204B     		ldr	r3, .L2
  43 0006 0022     		mov	r2, #0
  44 0008 1A60     		str	r2, [r3]
 217:.\Generated_Source\PSoC4/EZI2C_EZI2C.c ****         EZI2C_I2C_CTRL_REG = EZI2C_EZI2C_DEFAULT_I2C_CTRL;
  45              		.loc 1 217 0
  46 000a 204B     		ldr	r3, .L2+4
  47 000c 204A     		ldr	r2, .L2+8
  48 000e 1A60     		str	r2, [r3]
 218:.\Generated_Source\PSoC4/EZI2C_EZI2C.c **** 
 219:.\Generated_Source\PSoC4/EZI2C_EZI2C.c ****     #if (EZI2C_CY_SCBIP_V0)
 220:.\Generated_Source\PSoC4/EZI2C_EZI2C.c ****         /* Adjust SDA filter settings. Ticket ID#150521 */
 221:.\Generated_Source\PSoC4/EZI2C_EZI2C.c ****         EZI2C_SET_I2C_CFG_SDA_FILT_TRIM(EZI2C_EC_AM_I2C_CFG_SDA_FILT_TRIM);
 222:.\Generated_Source\PSoC4/EZI2C_EZI2C.c ****     #endif /* (EZI2C_CY_SCBIP_V0) */
 223:.\Generated_Source\PSoC4/EZI2C_EZI2C.c **** 
 224:.\Generated_Source\PSoC4/EZI2C_EZI2C.c ****         /* Configure RX direction */
 225:.\Generated_Source\PSoC4/EZI2C_EZI2C.c ****         EZI2C_RX_CTRL_REG      = EZI2C_EZI2C_DEFAULT_RX_CTRL;
  49              		.loc 1 225 0
  50 0010 204B     		ldr	r3, .L2+12
  51 0012 214A     		ldr	r2, .L2+16
  52 0014 1A60     		str	r2, [r3]
 226:.\Generated_Source\PSoC4/EZI2C_EZI2C.c ****         EZI2C_RX_FIFO_CTRL_REG = EZI2C_EZI2C_DEFAULT_RX_FIFO_CTRL;
  53              		.loc 1 226 0
  54 0016 214B     		ldr	r3, .L2+20
  55 0018 0022     		mov	r2, #0
  56 001a 1A60     		str	r2, [r3]
 227:.\Generated_Source\PSoC4/EZI2C_EZI2C.c **** 
 228:.\Generated_Source\PSoC4/EZI2C_EZI2C.c ****         /* Set default address and mask */
 229:.\Generated_Source\PSoC4/EZI2C_EZI2C.c ****         EZI2C_RX_MATCH_REG     = EZI2C_EZI2C_DEFAULT_RX_MATCH;
ARM GAS  C:\Users\DELL\AppData\Local\Temp\ccQDDFLC.s 			page 6


  57              		.loc 1 229 0
  58 001c 204B     		ldr	r3, .L2+24
  59 001e 214A     		ldr	r2, .L2+28
  60 0020 1A60     		str	r2, [r3]
 230:.\Generated_Source\PSoC4/EZI2C_EZI2C.c **** 
 231:.\Generated_Source\PSoC4/EZI2C_EZI2C.c ****         /* Configure TX direction */
 232:.\Generated_Source\PSoC4/EZI2C_EZI2C.c ****         EZI2C_TX_CTRL_REG      = EZI2C_EZI2C_DEFAULT_TX_CTRL;
  61              		.loc 1 232 0
  62 0022 214B     		ldr	r3, .L2+32
  63 0024 1C4A     		ldr	r2, .L2+16
  64 0026 1A60     		str	r2, [r3]
 233:.\Generated_Source\PSoC4/EZI2C_EZI2C.c ****         EZI2C_TX_FIFO_CTRL_REG = EZI2C_EZI2C_DEFAULT_TX_FIFO_CTRL;
  65              		.loc 1 233 0
  66 0028 204B     		ldr	r3, .L2+36
  67 002a 0022     		mov	r2, #0
  68 002c 1A60     		str	r2, [r3]
 234:.\Generated_Source\PSoC4/EZI2C_EZI2C.c **** 
 235:.\Generated_Source\PSoC4/EZI2C_EZI2C.c ****         /* Configure interrupt with EZI2C handler but do not enable it */
 236:.\Generated_Source\PSoC4/EZI2C_EZI2C.c ****     #if !defined (CY_EXTERNAL_INTERRUPT_CONFIG)
 237:.\Generated_Source\PSoC4/EZI2C_EZI2C.c ****         CyIntDisable    (EZI2C_ISR_NUMBER);
  69              		.loc 1 237 0
  70 002e 0920     		mov	r0, #9
  71 0030 FFF7FEFF 		bl	CyIntDisable
 238:.\Generated_Source\PSoC4/EZI2C_EZI2C.c ****         CyIntSetPriority(EZI2C_ISR_NUMBER, EZI2C_ISR_PRIORITY);
  72              		.loc 1 238 0
  73 0034 0920     		mov	r0, #9
  74 0036 0321     		mov	r1, #3
  75 0038 FFF7FEFF 		bl	CyIntSetPriority
 239:.\Generated_Source\PSoC4/EZI2C_EZI2C.c **** 
 240:.\Generated_Source\PSoC4/EZI2C_EZI2C.c ****     #if (EZI2C_EZI2C_SCL_STRETCH_ENABLE_CONST)
 241:.\Generated_Source\PSoC4/EZI2C_EZI2C.c ****         (void) CyIntSetVector(EZI2C_ISR_NUMBER, &EZI2C_EZI2C_STRETCH_ISR);
  76              		.loc 1 241 0
  77 003c 1C4B     		ldr	r3, .L2+40
  78 003e 0920     		mov	r0, #9
  79 0040 191C     		mov	r1, r3
  80 0042 FFF7FEFF 		bl	CyIntSetVector
 242:.\Generated_Source\PSoC4/EZI2C_EZI2C.c ****     #else
 243:.\Generated_Source\PSoC4/EZI2C_EZI2C.c ****         (void) CyIntSetVector(EZI2C_ISR_NUMBER, &EZI2C_EZI2C_NO_STRETCH_ISR);
 244:.\Generated_Source\PSoC4/EZI2C_EZI2C.c ****     #endif /* (EZI2C_EZI2C_SCL_STRETCH_ENABLE_CONST) */
 245:.\Generated_Source\PSoC4/EZI2C_EZI2C.c **** 
 246:.\Generated_Source\PSoC4/EZI2C_EZI2C.c ****     #endif /* !defined (CY_EXTERNAL_INTERRUPT_CONFIG) */
 247:.\Generated_Source\PSoC4/EZI2C_EZI2C.c **** 
 248:.\Generated_Source\PSoC4/EZI2C_EZI2C.c ****         /* Configure interrupt sources */
 249:.\Generated_Source\PSoC4/EZI2C_EZI2C.c ****     #if (!EZI2C_CY_SCBIP_V1)
 250:.\Generated_Source\PSoC4/EZI2C_EZI2C.c ****         EZI2C_INTR_SPI_EC_MASK_REG = EZI2C_EZI2C_DEFAULT_INTR_SPI_EC_MASK;
  81              		.loc 1 250 0
  82 0046 1B4B     		ldr	r3, .L2+44
  83 0048 0022     		mov	r2, #0
  84 004a 1A60     		str	r2, [r3]
 251:.\Generated_Source\PSoC4/EZI2C_EZI2C.c ****     #endif /* (!EZI2C_CY_SCBIP_V1) */
 252:.\Generated_Source\PSoC4/EZI2C_EZI2C.c **** 
 253:.\Generated_Source\PSoC4/EZI2C_EZI2C.c ****         EZI2C_INTR_I2C_EC_MASK_REG = EZI2C_EZI2C_DEFAULT_INTR_I2C_EC_MASK;
  85              		.loc 1 253 0
  86 004c 1A4B     		ldr	r3, .L2+48
  87 004e 0022     		mov	r2, #0
  88 0050 1A60     		str	r2, [r3]
 254:.\Generated_Source\PSoC4/EZI2C_EZI2C.c ****         EZI2C_INTR_SLAVE_MASK_REG  = EZI2C_EZI2C_DEFAULT_INTR_SLAVE_MASK;
ARM GAS  C:\Users\DELL\AppData\Local\Temp\ccQDDFLC.s 			page 7


  89              		.loc 1 254 0
  90 0052 1A4B     		ldr	r3, .L2+52
  91 0054 5222     		mov	r2, #82
  92 0056 FF32     		add	r2, r2, #255
  93 0058 1A60     		str	r2, [r3]
 255:.\Generated_Source\PSoC4/EZI2C_EZI2C.c ****         EZI2C_INTR_MASTER_MASK_REG = EZI2C_EZI2C_DEFAULT_INTR_MASTER_MASK;
  94              		.loc 1 255 0
  95 005a 194B     		ldr	r3, .L2+56
  96 005c 0022     		mov	r2, #0
  97 005e 1A60     		str	r2, [r3]
 256:.\Generated_Source\PSoC4/EZI2C_EZI2C.c ****         EZI2C_INTR_RX_MASK_REG     = EZI2C_EZI2C_DEFAULT_INTR_RX_MASK;
  98              		.loc 1 256 0
  99 0060 184B     		ldr	r3, .L2+60
 100 0062 0022     		mov	r2, #0
 101 0064 1A60     		str	r2, [r3]
 257:.\Generated_Source\PSoC4/EZI2C_EZI2C.c ****         EZI2C_INTR_TX_MASK_REG     = EZI2C_EZI2C_DEFAULT_INTR_TX_MASK;
 102              		.loc 1 257 0
 103 0066 184B     		ldr	r3, .L2+64
 104 0068 0022     		mov	r2, #0
 105 006a 1A60     		str	r2, [r3]
 258:.\Generated_Source\PSoC4/EZI2C_EZI2C.c **** 
 259:.\Generated_Source\PSoC4/EZI2C_EZI2C.c ****         /* Configure global variables */
 260:.\Generated_Source\PSoC4/EZI2C_EZI2C.c ****         EZI2C_fsmState = EZI2C_EZI2C_FSM_IDLE;
 106              		.loc 1 260 0
 107 006c 174B     		ldr	r3, .L2+68
 108 006e 0022     		mov	r2, #0
 109 0070 1A70     		strb	r2, [r3]
 261:.\Generated_Source\PSoC4/EZI2C_EZI2C.c **** 
 262:.\Generated_Source\PSoC4/EZI2C_EZI2C.c ****         EZI2C_curStatus  = 0u;
 110              		.loc 1 262 0
 111 0072 174B     		ldr	r3, .L2+72
 112 0074 0022     		mov	r2, #0
 113 0076 1A70     		strb	r2, [r3]
 263:.\Generated_Source\PSoC4/EZI2C_EZI2C.c ****         EZI2C_indexBuf1  = 0u;
 114              		.loc 1 263 0
 115 0078 164B     		ldr	r3, .L2+76
 116 007a 0022     		mov	r2, #0
 117 007c 1A80     		strh	r2, [r3]
 264:.\Generated_Source\PSoC4/EZI2C_EZI2C.c ****         EZI2C_offsetBuf1 = 0u;
 118              		.loc 1 264 0
 119 007e 164B     		ldr	r3, .L2+80
 120 0080 0022     		mov	r2, #0
 121 0082 1A70     		strb	r2, [r3]
 265:.\Generated_Source\PSoC4/EZI2C_EZI2C.c **** 
 266:.\Generated_Source\PSoC4/EZI2C_EZI2C.c ****     #if(EZI2C_SECONDARY_ADDRESS_ENABLE_CONST)
 267:.\Generated_Source\PSoC4/EZI2C_EZI2C.c ****         EZI2C_indexBuf2  = 0u;
 268:.\Generated_Source\PSoC4/EZI2C_EZI2C.c ****         EZI2C_offsetBuf2 = 0u;
 269:.\Generated_Source\PSoC4/EZI2C_EZI2C.c **** 
 270:.\Generated_Source\PSoC4/EZI2C_EZI2C.c ****         EZI2C_addrBuf1 = EZI2C_EZI2C_PRIMARY_SLAVE_ADDRESS;
 271:.\Generated_Source\PSoC4/EZI2C_EZI2C.c ****         EZI2C_addrBuf2 = EZI2C_EZI2C_SECONDARY_SLAVE_ADDRESS;
 272:.\Generated_Source\PSoC4/EZI2C_EZI2C.c ****     #endif /* (EZI2C_SECONDARY_ADDRESS_ENABLE_CONST) */
 273:.\Generated_Source\PSoC4/EZI2C_EZI2C.c ****     }
 122              		.loc 1 273 0
 123 0084 BD46     		mov	sp, r7
 124              		@ sp needed
 125 0086 80BD     		pop	{r7, pc}
 126              	.L3:
ARM GAS  C:\Users\DELL\AppData\Local\Temp\ccQDDFLC.s 			page 8


 127              		.align	2
 128              	.L2:
 129 0088 00002440 		.word	1076101120
 130 008c 60002440 		.word	1076101216
 131 0090 00080040 		.word	1073743872
 132 0094 00032440 		.word	1076101888
 133 0098 07010080 		.word	-2147483385
 134 009c 04032440 		.word	1076101892
 135 00a0 10032440 		.word	1076101904
 136 00a4 1000FE00 		.word	16646160
 137 00a8 00022440 		.word	1076101632
 138 00ac 04022440 		.word	1076101636
 139 00b0 00000000 		.word	EZI2C_EZI2C_STRETCH_ISR
 140 00b4 C80E2440 		.word	1076104904
 141 00b8 880E2440 		.word	1076104840
 142 00bc 480F2440 		.word	1076105032
 143 00c0 080F2440 		.word	1076104968
 144 00c4 C80F2440 		.word	1076105160
 145 00c8 880F2440 		.word	1076105096
 146 00cc 00000000 		.word	EZI2C_fsmState
 147 00d0 00000000 		.word	EZI2C_curStatus
 148 00d4 00000000 		.word	EZI2C_indexBuf1
 149 00d8 00000000 		.word	EZI2C_offsetBuf1
 150              		.cfi_endproc
 151              	.LFE2:
 152              		.size	EZI2C_EzI2CInit, .-EZI2C_EzI2CInit
 153              		.section	.text.EZI2C_EzI2CStop,"ax",%progbits
 154              		.align	2
 155              		.global	EZI2C_EzI2CStop
 156              		.code	16
 157              		.thumb_func
 158              		.type	EZI2C_EzI2CStop, %function
 159              	EZI2C_EzI2CStop:
 160              	.LFB3:
 274:.\Generated_Source\PSoC4/EZI2C_EZI2C.c **** #endif /* (EZI2C_SCB_MODE_UNCONFIG_CONST_CFG) */
 275:.\Generated_Source\PSoC4/EZI2C_EZI2C.c **** 
 276:.\Generated_Source\PSoC4/EZI2C_EZI2C.c **** 
 277:.\Generated_Source\PSoC4/EZI2C_EZI2C.c **** /*******************************************************************************
 278:.\Generated_Source\PSoC4/EZI2C_EZI2C.c **** * Function Name: EZI2C_EzI2CStop
 279:.\Generated_Source\PSoC4/EZI2C_EZI2C.c **** ********************************************************************************
 280:.\Generated_Source\PSoC4/EZI2C_EZI2C.c **** *
 281:.\Generated_Source\PSoC4/EZI2C_EZI2C.c **** * Summary:
 282:.\Generated_Source\PSoC4/EZI2C_EZI2C.c **** *  Resets the EZI2C FSM into the default state.
 283:.\Generated_Source\PSoC4/EZI2C_EZI2C.c **** *
 284:.\Generated_Source\PSoC4/EZI2C_EZI2C.c **** * Parameters:
 285:.\Generated_Source\PSoC4/EZI2C_EZI2C.c **** *  None
 286:.\Generated_Source\PSoC4/EZI2C_EZI2C.c **** *
 287:.\Generated_Source\PSoC4/EZI2C_EZI2C.c **** * Return:
 288:.\Generated_Source\PSoC4/EZI2C_EZI2C.c **** *  None
 289:.\Generated_Source\PSoC4/EZI2C_EZI2C.c **** *
 290:.\Generated_Source\PSoC4/EZI2C_EZI2C.c **** *******************************************************************************/
 291:.\Generated_Source\PSoC4/EZI2C_EZI2C.c **** void EZI2C_EzI2CStop(void)
 292:.\Generated_Source\PSoC4/EZI2C_EZI2C.c **** {
 161              		.loc 1 292 0
 162              		.cfi_startproc
 163 0000 80B5     		push	{r7, lr}
 164              		.cfi_def_cfa_offset 8
ARM GAS  C:\Users\DELL\AppData\Local\Temp\ccQDDFLC.s 			page 9


 165              		.cfi_offset 7, -8
 166              		.cfi_offset 14, -4
 167 0002 00AF     		add	r7, sp, #0
 168              		.cfi_def_cfa_register 7
 293:.\Generated_Source\PSoC4/EZI2C_EZI2C.c ****     EZI2C_fsmState = EZI2C_EZI2C_FSM_IDLE;
 169              		.loc 1 293 0
 170 0004 024B     		ldr	r3, .L5
 171 0006 0022     		mov	r2, #0
 172 0008 1A70     		strb	r2, [r3]
 294:.\Generated_Source\PSoC4/EZI2C_EZI2C.c **** }
 173              		.loc 1 294 0
 174 000a BD46     		mov	sp, r7
 175              		@ sp needed
 176 000c 80BD     		pop	{r7, pc}
 177              	.L6:
 178 000e C046     		.align	2
 179              	.L5:
 180 0010 00000000 		.word	EZI2C_fsmState
 181              		.cfi_endproc
 182              	.LFE3:
 183              		.size	EZI2C_EzI2CStop, .-EZI2C_EzI2CStop
 184              		.section	.text.EZI2C_EzI2CGetActivity,"ax",%progbits
 185              		.align	2
 186              		.global	EZI2C_EzI2CGetActivity
 187              		.code	16
 188              		.thumb_func
 189              		.type	EZI2C_EzI2CGetActivity, %function
 190              	EZI2C_EzI2CGetActivity:
 191              	.LFB4:
 295:.\Generated_Source\PSoC4/EZI2C_EZI2C.c **** 
 296:.\Generated_Source\PSoC4/EZI2C_EZI2C.c **** 
 297:.\Generated_Source\PSoC4/EZI2C_EZI2C.c **** /*******************************************************************************
 298:.\Generated_Source\PSoC4/EZI2C_EZI2C.c **** * Function Name: EZI2C_EzI2CGetActivity
 299:.\Generated_Source\PSoC4/EZI2C_EZI2C.c **** ********************************************************************************
 300:.\Generated_Source\PSoC4/EZI2C_EZI2C.c **** *
 301:.\Generated_Source\PSoC4/EZI2C_EZI2C.c **** * Summary:
 302:.\Generated_Source\PSoC4/EZI2C_EZI2C.c **** *  Returns the EZI2C slave status.
 303:.\Generated_Source\PSoC4/EZI2C_EZI2C.c **** *  The read, write and error status flags reset to zero after this function
 304:.\Generated_Source\PSoC4/EZI2C_EZI2C.c **** *  call. The busy status flag is cleared when the transaction intended for
 305:.\Generated_Source\PSoC4/EZI2C_EZI2C.c **** *  the EZI2C slave completes.
 306:.\Generated_Source\PSoC4/EZI2C_EZI2C.c **** *
 307:.\Generated_Source\PSoC4/EZI2C_EZI2C.c **** * Parameters:
 308:.\Generated_Source\PSoC4/EZI2C_EZI2C.c **** *  None
 309:.\Generated_Source\PSoC4/EZI2C_EZI2C.c **** *
 310:.\Generated_Source\PSoC4/EZI2C_EZI2C.c **** * Return:
 311:.\Generated_Source\PSoC4/EZI2C_EZI2C.c **** *  Returns the status of the EZI2C Slave activity.
 312:.\Generated_Source\PSoC4/EZI2C_EZI2C.c **** *
 313:.\Generated_Source\PSoC4/EZI2C_EZI2C.c **** *******************************************************************************/
 314:.\Generated_Source\PSoC4/EZI2C_EZI2C.c **** uint32 EZI2C_EzI2CGetActivity(void)
 315:.\Generated_Source\PSoC4/EZI2C_EZI2C.c **** {
 192              		.loc 1 315 0
 193              		.cfi_startproc
 194 0000 80B5     		push	{r7, lr}
 195              		.cfi_def_cfa_offset 8
 196              		.cfi_offset 7, -8
 197              		.cfi_offset 14, -4
 198 0002 82B0     		sub	sp, sp, #8
ARM GAS  C:\Users\DELL\AppData\Local\Temp\ccQDDFLC.s 			page 10


 199              		.cfi_def_cfa_offset 16
 200 0004 00AF     		add	r7, sp, #0
 201              		.cfi_def_cfa_register 7
 316:.\Generated_Source\PSoC4/EZI2C_EZI2C.c ****     uint32 status;
 317:.\Generated_Source\PSoC4/EZI2C_EZI2C.c **** 
 318:.\Generated_Source\PSoC4/EZI2C_EZI2C.c ****     EZI2C_DisableInt();  /* Lock from interruption */
 202              		.loc 1 318 0
 203 0006 0920     		mov	r0, #9
 204 0008 FFF7FEFF 		bl	CyIntDisable
 319:.\Generated_Source\PSoC4/EZI2C_EZI2C.c **** 
 320:.\Generated_Source\PSoC4/EZI2C_EZI2C.c ****     status = EZI2C_curStatus;
 205              		.loc 1 320 0
 206 000c 094B     		ldr	r3, .L9
 207 000e 1B78     		ldrb	r3, [r3]
 208 0010 DBB2     		uxtb	r3, r3
 209 0012 7B60     		str	r3, [r7, #4]
 321:.\Generated_Source\PSoC4/EZI2C_EZI2C.c **** 
 322:.\Generated_Source\PSoC4/EZI2C_EZI2C.c ****     /* Relay on address match event from HW as bus busy status */
 323:.\Generated_Source\PSoC4/EZI2C_EZI2C.c ****     #if(EZI2C_EZI2C_SCL_STRETCH_DISABLE)
 324:.\Generated_Source\PSoC4/EZI2C_EZI2C.c ****     {
 325:.\Generated_Source\PSoC4/EZI2C_EZI2C.c ****         /* For EZI2C_CY_SCBIP_V0 the wake is prohibited by customizer */
 326:.\Generated_Source\PSoC4/EZI2C_EZI2C.c ****         #if(EZI2C_EZI2C_EC_AM_ENABLE)
 327:.\Generated_Source\PSoC4/EZI2C_EZI2C.c ****         {
 328:.\Generated_Source\PSoC4/EZI2C_EZI2C.c ****             status |= EZI2C_CHECK_INTR_I2C_EC(EZI2C_INTR_I2C_EC_WAKE_UP) ?
 329:.\Generated_Source\PSoC4/EZI2C_EZI2C.c ****                         EZI2C_EZI2C_STATUS_BUSY : 0u;
 330:.\Generated_Source\PSoC4/EZI2C_EZI2C.c ****         }
 331:.\Generated_Source\PSoC4/EZI2C_EZI2C.c ****         #else
 332:.\Generated_Source\PSoC4/EZI2C_EZI2C.c ****         {
 333:.\Generated_Source\PSoC4/EZI2C_EZI2C.c ****             status |= EZI2C_CHECK_INTR_SLAVE(EZI2C_INTR_SLAVE_I2C_ADDR_MATCH) ?
 334:.\Generated_Source\PSoC4/EZI2C_EZI2C.c ****                         EZI2C_EZI2C_STATUS_BUSY : 0u;
 335:.\Generated_Source\PSoC4/EZI2C_EZI2C.c ****         }
 336:.\Generated_Source\PSoC4/EZI2C_EZI2C.c ****         #endif
 337:.\Generated_Source\PSoC4/EZI2C_EZI2C.c ****     }
 338:.\Generated_Source\PSoC4/EZI2C_EZI2C.c ****     #endif
 339:.\Generated_Source\PSoC4/EZI2C_EZI2C.c **** 
 340:.\Generated_Source\PSoC4/EZI2C_EZI2C.c ****     EZI2C_curStatus &= ((uint8) ~EZI2C_EZI2C_CLEAR_STATUS);
 210              		.loc 1 340 0
 211 0014 074B     		ldr	r3, .L9
 212 0016 1B78     		ldrb	r3, [r3]
 213 0018 DBB2     		uxtb	r3, r3
 214 001a 1F22     		mov	r2, #31
 215 001c 9343     		bic	r3, r2
 216 001e DAB2     		uxtb	r2, r3
 217 0020 044B     		ldr	r3, .L9
 218 0022 1A70     		strb	r2, [r3]
 341:.\Generated_Source\PSoC4/EZI2C_EZI2C.c **** 
 342:.\Generated_Source\PSoC4/EZI2C_EZI2C.c ****     EZI2C_EnableInt();   /* Release lock */
 219              		.loc 1 342 0
 220 0024 0920     		mov	r0, #9
 221 0026 FFF7FEFF 		bl	CyIntEnable
 343:.\Generated_Source\PSoC4/EZI2C_EZI2C.c **** 
 344:.\Generated_Source\PSoC4/EZI2C_EZI2C.c ****     return(status);
 222              		.loc 1 344 0
 223 002a 7B68     		ldr	r3, [r7, #4]
 345:.\Generated_Source\PSoC4/EZI2C_EZI2C.c **** }
 224              		.loc 1 345 0
 225 002c 181C     		mov	r0, r3
ARM GAS  C:\Users\DELL\AppData\Local\Temp\ccQDDFLC.s 			page 11


 226 002e BD46     		mov	sp, r7
 227 0030 02B0     		add	sp, sp, #8
 228              		@ sp needed
 229 0032 80BD     		pop	{r7, pc}
 230              	.L10:
 231              		.align	2
 232              	.L9:
 233 0034 00000000 		.word	EZI2C_curStatus
 234              		.cfi_endproc
 235              	.LFE4:
 236              		.size	EZI2C_EzI2CGetActivity, .-EZI2C_EzI2CGetActivity
 237              		.section	.text.EZI2C_EzI2CSetAddress1,"ax",%progbits
 238              		.align	2
 239              		.global	EZI2C_EzI2CSetAddress1
 240              		.code	16
 241              		.thumb_func
 242              		.type	EZI2C_EzI2CSetAddress1, %function
 243              	EZI2C_EzI2CSetAddress1:
 244              	.LFB5:
 346:.\Generated_Source\PSoC4/EZI2C_EZI2C.c **** 
 347:.\Generated_Source\PSoC4/EZI2C_EZI2C.c **** 
 348:.\Generated_Source\PSoC4/EZI2C_EZI2C.c **** /*******************************************************************************
 349:.\Generated_Source\PSoC4/EZI2C_EZI2C.c **** * Function Name: EZI2C_EzI2CSetAddress1
 350:.\Generated_Source\PSoC4/EZI2C_EZI2C.c **** ********************************************************************************
 351:.\Generated_Source\PSoC4/EZI2C_EZI2C.c **** *
 352:.\Generated_Source\PSoC4/EZI2C_EZI2C.c **** * Summary:
 353:.\Generated_Source\PSoC4/EZI2C_EZI2C.c **** *  Sets the primary I2C slave address.
 354:.\Generated_Source\PSoC4/EZI2C_EZI2C.c **** *
 355:.\Generated_Source\PSoC4/EZI2C_EZI2C.c **** * Parameters:
 356:.\Generated_Source\PSoC4/EZI2C_EZI2C.c **** *  address: I2C slave address for the secondary device.
 357:.\Generated_Source\PSoC4/EZI2C_EZI2C.c **** *           This address is the 7-bit right-justified slave address and does
 358:.\Generated_Source\PSoC4/EZI2C_EZI2C.c **** *           not include the R/W bit.
 359:.\Generated_Source\PSoC4/EZI2C_EZI2C.c **** *           This value may be any address between 0 and 127 (0x00 to 0x7F).
 360:.\Generated_Source\PSoC4/EZI2C_EZI2C.c **** *
 361:.\Generated_Source\PSoC4/EZI2C_EZI2C.c **** * Return:
 362:.\Generated_Source\PSoC4/EZI2C_EZI2C.c **** *  None
 363:.\Generated_Source\PSoC4/EZI2C_EZI2C.c **** *
 364:.\Generated_Source\PSoC4/EZI2C_EZI2C.c **** *******************************************************************************/
 365:.\Generated_Source\PSoC4/EZI2C_EZI2C.c **** void EZI2C_EzI2CSetAddress1(uint32 address)
 366:.\Generated_Source\PSoC4/EZI2C_EZI2C.c **** {
 245              		.loc 1 366 0
 246              		.cfi_startproc
 247 0000 80B5     		push	{r7, lr}
 248              		.cfi_def_cfa_offset 8
 249              		.cfi_offset 7, -8
 250              		.cfi_offset 14, -4
 251 0002 84B0     		sub	sp, sp, #16
 252              		.cfi_def_cfa_offset 24
 253 0004 00AF     		add	r7, sp, #0
 254              		.cfi_def_cfa_register 7
 255 0006 7860     		str	r0, [r7, #4]
 256              	.LBB2:
 367:.\Generated_Source\PSoC4/EZI2C_EZI2C.c ****     #if(EZI2C_SECONDARY_ADDRESS_ENABLE)
 368:.\Generated_Source\PSoC4/EZI2C_EZI2C.c ****     {
 369:.\Generated_Source\PSoC4/EZI2C_EZI2C.c ****         EZI2C_addrBuf1 = (uint8) address;
 370:.\Generated_Source\PSoC4/EZI2C_EZI2C.c **** 
 371:.\Generated_Source\PSoC4/EZI2C_EZI2C.c ****         EZI2C_RX_MATCH_REG = EZI2C_EzI2CUpdateRxMatchReg(address,
ARM GAS  C:\Users\DELL\AppData\Local\Temp\ccQDDFLC.s 			page 12


 372:.\Generated_Source\PSoC4/EZI2C_EZI2C.c ****                                                                                (uint32) EZI2C_addrB
 373:.\Generated_Source\PSoC4/EZI2C_EZI2C.c ****     }
 374:.\Generated_Source\PSoC4/EZI2C_EZI2C.c ****     #else
 375:.\Generated_Source\PSoC4/EZI2C_EZI2C.c ****     {
 376:.\Generated_Source\PSoC4/EZI2C_EZI2C.c ****         uint32 matchReg;
 377:.\Generated_Source\PSoC4/EZI2C_EZI2C.c **** 
 378:.\Generated_Source\PSoC4/EZI2C_EZI2C.c ****         matchReg = EZI2C_RX_MATCH_REG;
 257              		.loc 1 378 0
 258 0008 094B     		ldr	r3, .L12
 259 000a 1B68     		ldr	r3, [r3]
 260 000c FB60     		str	r3, [r7, #12]
 379:.\Generated_Source\PSoC4/EZI2C_EZI2C.c **** 
 380:.\Generated_Source\PSoC4/EZI2C_EZI2C.c ****         matchReg &= ((uint32) ~EZI2C_RX_MATCH_ADDR_MASK);            /* Clear address bits */
 261              		.loc 1 380 0
 262 000e FB68     		ldr	r3, [r7, #12]
 263 0010 FF22     		mov	r2, #255
 264 0012 9343     		bic	r3, r2
 265 0014 FB60     		str	r3, [r7, #12]
 381:.\Generated_Source\PSoC4/EZI2C_EZI2C.c ****         matchReg |= ((uint32)  EZI2C_GET_I2C_8BIT_ADDRESS(address)); /* Set mask */
 266              		.loc 1 381 0
 267 0016 7B68     		ldr	r3, [r7, #4]
 268 0018 5B00     		lsl	r3, r3, #1
 269 001a FF22     		mov	r2, #255
 270 001c 1340     		and	r3, r2
 271 001e FA68     		ldr	r2, [r7, #12]
 272 0020 1343     		orr	r3, r2
 273 0022 FB60     		str	r3, [r7, #12]
 382:.\Generated_Source\PSoC4/EZI2C_EZI2C.c **** 
 383:.\Generated_Source\PSoC4/EZI2C_EZI2C.c ****         EZI2C_RX_MATCH_REG = matchReg;
 274              		.loc 1 383 0
 275 0024 024B     		ldr	r3, .L12
 276 0026 FA68     		ldr	r2, [r7, #12]
 277 0028 1A60     		str	r2, [r3]
 278              	.LBE2:
 384:.\Generated_Source\PSoC4/EZI2C_EZI2C.c ****     }
 385:.\Generated_Source\PSoC4/EZI2C_EZI2C.c ****     #endif
 386:.\Generated_Source\PSoC4/EZI2C_EZI2C.c **** }
 279              		.loc 1 386 0
 280 002a BD46     		mov	sp, r7
 281 002c 04B0     		add	sp, sp, #16
 282              		@ sp needed
 283 002e 80BD     		pop	{r7, pc}
 284              	.L13:
 285              		.align	2
 286              	.L12:
 287 0030 10032440 		.word	1076101904
 288              		.cfi_endproc
 289              	.LFE5:
 290              		.size	EZI2C_EzI2CSetAddress1, .-EZI2C_EzI2CSetAddress1
 291              		.section	.text.EZI2C_EzI2CGetAddress1,"ax",%progbits
 292              		.align	2
 293              		.global	EZI2C_EzI2CGetAddress1
 294              		.code	16
 295              		.thumb_func
 296              		.type	EZI2C_EzI2CGetAddress1, %function
 297              	EZI2C_EzI2CGetAddress1:
 298              	.LFB6:
ARM GAS  C:\Users\DELL\AppData\Local\Temp\ccQDDFLC.s 			page 13


 387:.\Generated_Source\PSoC4/EZI2C_EZI2C.c **** 
 388:.\Generated_Source\PSoC4/EZI2C_EZI2C.c **** 
 389:.\Generated_Source\PSoC4/EZI2C_EZI2C.c **** /*******************************************************************************
 390:.\Generated_Source\PSoC4/EZI2C_EZI2C.c **** * Function Name: EZI2C_EzI2CGetAddress1
 391:.\Generated_Source\PSoC4/EZI2C_EZI2C.c **** ********************************************************************************
 392:.\Generated_Source\PSoC4/EZI2C_EZI2C.c **** *
 393:.\Generated_Source\PSoC4/EZI2C_EZI2C.c **** * Summary:
 394:.\Generated_Source\PSoC4/EZI2C_EZI2C.c **** *  Gets the primary I2C slave 7-bit address.
 395:.\Generated_Source\PSoC4/EZI2C_EZI2C.c **** *
 396:.\Generated_Source\PSoC4/EZI2C_EZI2C.c **** * Parameters:
 397:.\Generated_Source\PSoC4/EZI2C_EZI2C.c **** *  None
 398:.\Generated_Source\PSoC4/EZI2C_EZI2C.c **** *
 399:.\Generated_Source\PSoC4/EZI2C_EZI2C.c **** * Return:
 400:.\Generated_Source\PSoC4/EZI2C_EZI2C.c **** *  Returns I2C slave address for the primary device.
 401:.\Generated_Source\PSoC4/EZI2C_EZI2C.c **** *  This address is the 7-bit right-justified slave address and does not
 402:.\Generated_Source\PSoC4/EZI2C_EZI2C.c **** *  include the R/W bit.
 403:.\Generated_Source\PSoC4/EZI2C_EZI2C.c **** *  This value may be any address between 0 and 127 (0x00 to 0x7F).
 404:.\Generated_Source\PSoC4/EZI2C_EZI2C.c **** *
 405:.\Generated_Source\PSoC4/EZI2C_EZI2C.c **** *******************************************************************************/
 406:.\Generated_Source\PSoC4/EZI2C_EZI2C.c **** uint32 EZI2C_EzI2CGetAddress1(void)
 407:.\Generated_Source\PSoC4/EZI2C_EZI2C.c **** {
 299              		.loc 1 407 0
 300              		.cfi_startproc
 301 0000 80B5     		push	{r7, lr}
 302              		.cfi_def_cfa_offset 8
 303              		.cfi_offset 7, -8
 304              		.cfi_offset 14, -4
 305 0002 82B0     		sub	sp, sp, #8
 306              		.cfi_def_cfa_offset 16
 307 0004 00AF     		add	r7, sp, #0
 308              		.cfi_def_cfa_register 7
 408:.\Generated_Source\PSoC4/EZI2C_EZI2C.c ****     uint32 address;
 409:.\Generated_Source\PSoC4/EZI2C_EZI2C.c **** 
 410:.\Generated_Source\PSoC4/EZI2C_EZI2C.c ****     #if(EZI2C_SECONDARY_ADDRESS_ENABLE)
 411:.\Generated_Source\PSoC4/EZI2C_EZI2C.c ****     {
 412:.\Generated_Source\PSoC4/EZI2C_EZI2C.c ****         address = (uint32) EZI2C_addrBuf1;
 413:.\Generated_Source\PSoC4/EZI2C_EZI2C.c ****     }
 414:.\Generated_Source\PSoC4/EZI2C_EZI2C.c ****     #else
 415:.\Generated_Source\PSoC4/EZI2C_EZI2C.c ****     {
 416:.\Generated_Source\PSoC4/EZI2C_EZI2C.c ****         address = (EZI2C_GET_RX_MATCH_ADDR(EZI2C_RX_MATCH_REG) >>
 309              		.loc 1 416 0
 310 0006 054B     		ldr	r3, .L16
 311 0008 1B68     		ldr	r3, [r3]
 312 000a FF22     		mov	r2, #255
 313 000c 1340     		and	r3, r2
 314 000e 5B08     		lsr	r3, r3, #1
 315 0010 7B60     		str	r3, [r7, #4]
 417:.\Generated_Source\PSoC4/EZI2C_EZI2C.c ****                    EZI2C_I2C_SLAVE_ADDR_POS);
 418:.\Generated_Source\PSoC4/EZI2C_EZI2C.c ****     }
 419:.\Generated_Source\PSoC4/EZI2C_EZI2C.c ****     #endif
 420:.\Generated_Source\PSoC4/EZI2C_EZI2C.c **** 
 421:.\Generated_Source\PSoC4/EZI2C_EZI2C.c ****     return(address);
 316              		.loc 1 421 0
 317 0012 7B68     		ldr	r3, [r7, #4]
 422:.\Generated_Source\PSoC4/EZI2C_EZI2C.c **** }
 318              		.loc 1 422 0
 319 0014 181C     		mov	r0, r3
ARM GAS  C:\Users\DELL\AppData\Local\Temp\ccQDDFLC.s 			page 14


 320 0016 BD46     		mov	sp, r7
 321 0018 02B0     		add	sp, sp, #8
 322              		@ sp needed
 323 001a 80BD     		pop	{r7, pc}
 324              	.L17:
 325              		.align	2
 326              	.L16:
 327 001c 10032440 		.word	1076101904
 328              		.cfi_endproc
 329              	.LFE6:
 330              		.size	EZI2C_EzI2CGetAddress1, .-EZI2C_EzI2CGetAddress1
 331              		.section	.text.EZI2C_EzI2CSetBuffer1,"ax",%progbits
 332              		.align	2
 333              		.global	EZI2C_EzI2CSetBuffer1
 334              		.code	16
 335              		.thumb_func
 336              		.type	EZI2C_EzI2CSetBuffer1, %function
 337              	EZI2C_EzI2CSetBuffer1:
 338              	.LFB7:
 423:.\Generated_Source\PSoC4/EZI2C_EZI2C.c **** 
 424:.\Generated_Source\PSoC4/EZI2C_EZI2C.c **** 
 425:.\Generated_Source\PSoC4/EZI2C_EZI2C.c **** /*******************************************************************************
 426:.\Generated_Source\PSoC4/EZI2C_EZI2C.c **** * Function Name: EZI2C_EzI2CSetBuffer1
 427:.\Generated_Source\PSoC4/EZI2C_EZI2C.c **** ********************************************************************************
 428:.\Generated_Source\PSoC4/EZI2C_EZI2C.c **** *
 429:.\Generated_Source\PSoC4/EZI2C_EZI2C.c **** * Summary:
 430:.\Generated_Source\PSoC4/EZI2C_EZI2C.c **** *  Sets up the data buffer to be exposed to the I2C master on a primary slave
 431:.\Generated_Source\PSoC4/EZI2C_EZI2C.c **** *  address request.
 432:.\Generated_Source\PSoC4/EZI2C_EZI2C.c **** *
 433:.\Generated_Source\PSoC4/EZI2C_EZI2C.c **** * Parameters:
 434:.\Generated_Source\PSoC4/EZI2C_EZI2C.c **** *  bufSize: Size of the buffer in bytes.
 435:.\Generated_Source\PSoC4/EZI2C_EZI2C.c **** *  rwBoundary: Sets how many bytes are writeable in the beginning of the buffer.
 436:.\Generated_Source\PSoC4/EZI2C_EZI2C.c **** *              This value must be less than or equal to the buffer size.
 437:.\Generated_Source\PSoC4/EZI2C_EZI2C.c **** *              Data located at offset rwBoundry and greater are read only.
 438:.\Generated_Source\PSoC4/EZI2C_EZI2C.c **** *  buffer: Pointer to the data buffer.
 439:.\Generated_Source\PSoC4/EZI2C_EZI2C.c **** *
 440:.\Generated_Source\PSoC4/EZI2C_EZI2C.c **** * Return:
 441:.\Generated_Source\PSoC4/EZI2C_EZI2C.c **** *  None
 442:.\Generated_Source\PSoC4/EZI2C_EZI2C.c **** *
 443:.\Generated_Source\PSoC4/EZI2C_EZI2C.c **** *******************************************************************************/
 444:.\Generated_Source\PSoC4/EZI2C_EZI2C.c **** void EZI2C_EzI2CSetBuffer1(uint32 bufSize, uint32 rwBoundary, volatile uint8 * buffer)
 445:.\Generated_Source\PSoC4/EZI2C_EZI2C.c **** {
 339              		.loc 1 445 0
 340              		.cfi_startproc
 341 0000 80B5     		push	{r7, lr}
 342              		.cfi_def_cfa_offset 8
 343              		.cfi_offset 7, -8
 344              		.cfi_offset 14, -4
 345 0002 84B0     		sub	sp, sp, #16
 346              		.cfi_def_cfa_offset 24
 347 0004 00AF     		add	r7, sp, #0
 348              		.cfi_def_cfa_register 7
 349 0006 F860     		str	r0, [r7, #12]
 350 0008 B960     		str	r1, [r7, #8]
 351 000a 7A60     		str	r2, [r7, #4]
 446:.\Generated_Source\PSoC4/EZI2C_EZI2C.c ****     if (NULL != buffer)
 352              		.loc 1 446 0
ARM GAS  C:\Users\DELL\AppData\Local\Temp\ccQDDFLC.s 			page 15


 353 000c 7B68     		ldr	r3, [r7, #4]
 354 000e 002B     		cmp	r3, #0
 355 0010 10D0     		beq	.L18
 447:.\Generated_Source\PSoC4/EZI2C_EZI2C.c ****     {
 448:.\Generated_Source\PSoC4/EZI2C_EZI2C.c ****         EZI2C_DisableInt();  /* Lock from interruption */
 356              		.loc 1 448 0
 357 0012 0920     		mov	r0, #9
 358 0014 FFF7FEFF 		bl	CyIntDisable
 449:.\Generated_Source\PSoC4/EZI2C_EZI2C.c **** 
 450:.\Generated_Source\PSoC4/EZI2C_EZI2C.c ****         EZI2C_dataBuffer1 =  buffer;
 359              		.loc 1 450 0
 360 0018 084B     		ldr	r3, .L20
 361 001a 7A68     		ldr	r2, [r7, #4]
 362 001c 1A60     		str	r2, [r3]
 451:.\Generated_Source\PSoC4/EZI2C_EZI2C.c ****         EZI2C_bufSizeBuf1 = (uint16) bufSize;
 363              		.loc 1 451 0
 364 001e FB68     		ldr	r3, [r7, #12]
 365 0020 9AB2     		uxth	r2, r3
 366 0022 074B     		ldr	r3, .L20+4
 367 0024 1A80     		strh	r2, [r3]
 452:.\Generated_Source\PSoC4/EZI2C_EZI2C.c ****         EZI2C_protectBuf1 = (uint16) rwBoundary;
 368              		.loc 1 452 0
 369 0026 BB68     		ldr	r3, [r7, #8]
 370 0028 9AB2     		uxth	r2, r3
 371 002a 064B     		ldr	r3, .L20+8
 372 002c 1A80     		strh	r2, [r3]
 453:.\Generated_Source\PSoC4/EZI2C_EZI2C.c **** 
 454:.\Generated_Source\PSoC4/EZI2C_EZI2C.c ****         EZI2C_EnableInt();   /* Release lock */
 373              		.loc 1 454 0
 374 002e 0920     		mov	r0, #9
 375 0030 FFF7FEFF 		bl	CyIntEnable
 376              	.L18:
 455:.\Generated_Source\PSoC4/EZI2C_EZI2C.c ****     }
 456:.\Generated_Source\PSoC4/EZI2C_EZI2C.c **** }
 377              		.loc 1 456 0
 378 0034 BD46     		mov	sp, r7
 379 0036 04B0     		add	sp, sp, #16
 380              		@ sp needed
 381 0038 80BD     		pop	{r7, pc}
 382              	.L21:
 383 003a C046     		.align	2
 384              	.L20:
 385 003c 00000000 		.word	EZI2C_dataBuffer1
 386 0040 00000000 		.word	EZI2C_bufSizeBuf1
 387 0044 00000000 		.word	EZI2C_protectBuf1
 388              		.cfi_endproc
 389              	.LFE7:
 390              		.size	EZI2C_EzI2CSetBuffer1, .-EZI2C_EzI2CSetBuffer1
 391              		.section	.text.EZI2C_EzI2CSetReadBoundaryBuffer1,"ax",%progbits
 392              		.align	2
 393              		.global	EZI2C_EzI2CSetReadBoundaryBuffer1
 394              		.code	16
 395              		.thumb_func
 396              		.type	EZI2C_EzI2CSetReadBoundaryBuffer1, %function
 397              	EZI2C_EzI2CSetReadBoundaryBuffer1:
 398              	.LFB8:
 457:.\Generated_Source\PSoC4/EZI2C_EZI2C.c **** 
ARM GAS  C:\Users\DELL\AppData\Local\Temp\ccQDDFLC.s 			page 16


 458:.\Generated_Source\PSoC4/EZI2C_EZI2C.c **** 
 459:.\Generated_Source\PSoC4/EZI2C_EZI2C.c **** /*******************************************************************************
 460:.\Generated_Source\PSoC4/EZI2C_EZI2C.c **** * Function Name: EZI2C_EzI2CSetReadBoundaryBuffer1
 461:.\Generated_Source\PSoC4/EZI2C_EZI2C.c **** ********************************************************************************
 462:.\Generated_Source\PSoC4/EZI2C_EZI2C.c **** *
 463:.\Generated_Source\PSoC4/EZI2C_EZI2C.c **** * Summary:
 464:.\Generated_Source\PSoC4/EZI2C_EZI2C.c **** *  Sets the read only boundary in the data buffer to be exposed to the I2C
 465:.\Generated_Source\PSoC4/EZI2C_EZI2C.c **** *  master on a primary slave address request.
 466:.\Generated_Source\PSoC4/EZI2C_EZI2C.c **** *
 467:.\Generated_Source\PSoC4/EZI2C_EZI2C.c **** * Parameters:
 468:.\Generated_Source\PSoC4/EZI2C_EZI2C.c **** *  rwBoundry: Sets how many bytes are writeable in the beginning of the buffer.
 469:.\Generated_Source\PSoC4/EZI2C_EZI2C.c **** *             This value must be less than or equal to the buffer size.
 470:.\Generated_Source\PSoC4/EZI2C_EZI2C.c **** *             Data located at offset rwBoundry and greater are read only.
 471:.\Generated_Source\PSoC4/EZI2C_EZI2C.c **** *
 472:.\Generated_Source\PSoC4/EZI2C_EZI2C.c **** * Return:
 473:.\Generated_Source\PSoC4/EZI2C_EZI2C.c **** *  None
 474:.\Generated_Source\PSoC4/EZI2C_EZI2C.c **** *
 475:.\Generated_Source\PSoC4/EZI2C_EZI2C.c **** *******************************************************************************/
 476:.\Generated_Source\PSoC4/EZI2C_EZI2C.c **** void EZI2C_EzI2CSetReadBoundaryBuffer1(uint32 rwBoundary)
 477:.\Generated_Source\PSoC4/EZI2C_EZI2C.c **** {
 399              		.loc 1 477 0
 400              		.cfi_startproc
 401 0000 80B5     		push	{r7, lr}
 402              		.cfi_def_cfa_offset 8
 403              		.cfi_offset 7, -8
 404              		.cfi_offset 14, -4
 405 0002 82B0     		sub	sp, sp, #8
 406              		.cfi_def_cfa_offset 16
 407 0004 00AF     		add	r7, sp, #0
 408              		.cfi_def_cfa_register 7
 409 0006 7860     		str	r0, [r7, #4]
 478:.\Generated_Source\PSoC4/EZI2C_EZI2C.c ****     EZI2C_protectBuf1 = (uint16) rwBoundary;
 410              		.loc 1 478 0
 411 0008 7B68     		ldr	r3, [r7, #4]
 412 000a 9AB2     		uxth	r2, r3
 413 000c 024B     		ldr	r3, .L23
 414 000e 1A80     		strh	r2, [r3]
 479:.\Generated_Source\PSoC4/EZI2C_EZI2C.c **** }
 415              		.loc 1 479 0
 416 0010 BD46     		mov	sp, r7
 417 0012 02B0     		add	sp, sp, #8
 418              		@ sp needed
 419 0014 80BD     		pop	{r7, pc}
 420              	.L24:
 421 0016 C046     		.align	2
 422              	.L23:
 423 0018 00000000 		.word	EZI2C_protectBuf1
 424              		.cfi_endproc
 425              	.LFE8:
 426              		.size	EZI2C_EzI2CSetReadBoundaryBuffer1, .-EZI2C_EzI2CSetReadBoundaryBuffer1
 427              		.text
 428              	.Letext0:
 429              		.file 2 "Generated_Source\\PSoC4/cytypes.h"
