ARM GAS  C:\Users\DELL\AppData\Local\Temp\ccNoeMp4.s 			page 1


   1              		.cpu cortex-m0
   2              		.fpu softvfp
   3              		.eabi_attribute 20, 1
   4              		.eabi_attribute 21, 1
   5              		.eabi_attribute 23, 3
   6              		.eabi_attribute 24, 1
   7              		.eabi_attribute 25, 1
   8              		.eabi_attribute 26, 1
   9              		.eabi_attribute 30, 6
  10              		.eabi_attribute 34, 0
  11              		.eabi_attribute 18, 4
  12              		.code	16
  13              		.file	"cyPm.c"
  14              		.text
  15              	.Ltext0:
  16              		.cfi_sections	.debug_frame
  17              		.section	.text.CySysPmHibPinsDisableInputBuf,"ax",%progbits
  18              		.align	2
  19              		.code	16
  20              		.thumb_func
  21              		.type	CySysPmHibPinsDisableInputBuf, %function
  22              	CySysPmHibPinsDisableInputBuf:
  23              	.LFB0:
  24              		.file 1 ".\\Generated_Source\\PSoC4\\cyPm.h"
   1:.\Generated_Source\PSoC4/cyPm.h **** /*******************************************************************************
   2:.\Generated_Source\PSoC4/cyPm.h **** * File Name: cyPm.h
   3:.\Generated_Source\PSoC4/cyPm.h **** * Version 5.30
   4:.\Generated_Source\PSoC4/cyPm.h **** *
   5:.\Generated_Source\PSoC4/cyPm.h **** *  Description:
   6:.\Generated_Source\PSoC4/cyPm.h **** *   Provides the function definitions for the power management API.
   7:.\Generated_Source\PSoC4/cyPm.h **** *
   8:.\Generated_Source\PSoC4/cyPm.h **** *  Note:
   9:.\Generated_Source\PSoC4/cyPm.h **** *   Documentation of the API's in this file is located in the
  10:.\Generated_Source\PSoC4/cyPm.h **** *   System Reference Guide provided with PSoC Creator.
  11:.\Generated_Source\PSoC4/cyPm.h **** *
  12:.\Generated_Source\PSoC4/cyPm.h **** ********************************************************************************
  13:.\Generated_Source\PSoC4/cyPm.h **** * Copyright 2011-2015, Cypress Semiconductor Corporation.  All rights reserved.
  14:.\Generated_Source\PSoC4/cyPm.h **** * You may use this file only in accordance with the license, terms, conditions,
  15:.\Generated_Source\PSoC4/cyPm.h **** * disclaimers, and limitations in the end user license agreement accompanying
  16:.\Generated_Source\PSoC4/cyPm.h **** * the software package with which this file was provided.
  17:.\Generated_Source\PSoC4/cyPm.h **** *******************************************************************************/
  18:.\Generated_Source\PSoC4/cyPm.h **** 
  19:.\Generated_Source\PSoC4/cyPm.h **** #if !defined(CY_BOOT_CYPM_H)
  20:.\Generated_Source\PSoC4/cyPm.h **** #define CY_BOOT_CYPM_H
  21:.\Generated_Source\PSoC4/cyPm.h **** 
  22:.\Generated_Source\PSoC4/cyPm.h **** #include "cytypes.h"
  23:.\Generated_Source\PSoC4/cyPm.h **** #include "cypins.h"
  24:.\Generated_Source\PSoC4/cyPm.h **** 
  25:.\Generated_Source\PSoC4/cyPm.h **** 
  26:.\Generated_Source\PSoC4/cyPm.h **** /***************************************
  27:.\Generated_Source\PSoC4/cyPm.h **** *        Function Prototypes
  28:.\Generated_Source\PSoC4/cyPm.h **** ***************************************/
  29:.\Generated_Source\PSoC4/cyPm.h **** void CySysPmSleep(void);
  30:.\Generated_Source\PSoC4/cyPm.h **** void CySysPmDeepSleep(void);
  31:.\Generated_Source\PSoC4/cyPm.h **** 
  32:.\Generated_Source\PSoC4/cyPm.h **** #if(CY_IP_SRSSV2)
  33:.\Generated_Source\PSoC4/cyPm.h ****     void CySysPmHibernate(void);
ARM GAS  C:\Users\DELL\AppData\Local\Temp\ccNoeMp4.s 			page 2


  34:.\Generated_Source\PSoC4/cyPm.h ****     void CySysPmFreezeIo(void);
  35:.\Generated_Source\PSoC4/cyPm.h ****     void CySysPmUnfreezeIo(void);
  36:.\Generated_Source\PSoC4/cyPm.h ****     uint32 CySysPmGetResetReason(void);
  37:.\Generated_Source\PSoC4/cyPm.h ****     void CySysPmStop(void);
  38:.\Generated_Source\PSoC4/cyPm.h ****     void CySysPmSetWakeupPolarity(uint32 polarity);
  39:.\Generated_Source\PSoC4/cyPm.h **** #else
  40:.\Generated_Source\PSoC4/cyPm.h ****     void CySysPmSetWakeupHoldoff(uint32 hfclkFrequencyMhz);
  41:.\Generated_Source\PSoC4/cyPm.h **** #endif /* (CY_IP_SRSSV2) */
  42:.\Generated_Source\PSoC4/cyPm.h **** 
  43:.\Generated_Source\PSoC4/cyPm.h **** 
  44:.\Generated_Source\PSoC4/cyPm.h **** /***************************************
  45:.\Generated_Source\PSoC4/cyPm.h **** *       Macro definition
  46:.\Generated_Source\PSoC4/cyPm.h **** ***************************************/
  47:.\Generated_Source\PSoC4/cyPm.h **** 
  48:.\Generated_Source\PSoC4/cyPm.h **** /*******************************************************************************
  49:.\Generated_Source\PSoC4/cyPm.h **** * The ARM compilers have the __wfi() intrinsic that inserts a WFI instruction
  50:.\Generated_Source\PSoC4/cyPm.h **** * into the instruction stream generated by the compiler. The GCC compiler has to
  51:.\Generated_Source\PSoC4/cyPm.h **** * execute assembly language instruction.
  52:.\Generated_Source\PSoC4/cyPm.h **** *******************************************************************************/
  53:.\Generated_Source\PSoC4/cyPm.h **** #if defined(__ARMCC_VERSION)    /* Instristic for Keil compilers */
  54:.\Generated_Source\PSoC4/cyPm.h ****     #define CY_PM_WFI       __wfi()
  55:.\Generated_Source\PSoC4/cyPm.h **** #else   /* ASM for GCC & IAR */
  56:.\Generated_Source\PSoC4/cyPm.h ****     #define CY_PM_WFI       __asm volatile ("WFI \n")
  57:.\Generated_Source\PSoC4/cyPm.h **** #endif /* __ARMCC_VERSION */
  58:.\Generated_Source\PSoC4/cyPm.h **** 
  59:.\Generated_Source\PSoC4/cyPm.h **** #if(CY_IP_SRSSV2)
  60:.\Generated_Source\PSoC4/cyPm.h **** 
  61:.\Generated_Source\PSoC4/cyPm.h ****     /* CySysPmSetWakeupPolarity() */
  62:.\Generated_Source\PSoC4/cyPm.h ****     #define CY_PM_STOP_WAKEUP_ACTIVE_LOW        ((uint32)(0x0u))
  63:.\Generated_Source\PSoC4/cyPm.h ****     #define CY_PM_STOP_WAKEUP_ACTIVE_HIGH       ((uint32)(0x1u))
  64:.\Generated_Source\PSoC4/cyPm.h ****     #define CY_PM_STOP_WAKEUP_POLARITY          (CY_PM_STOP_WAKEUP_ACTIVE_LOW)
  65:.\Generated_Source\PSoC4/cyPm.h **** 
  66:.\Generated_Source\PSoC4/cyPm.h ****     /* CySysPmGetResetReason() */
  67:.\Generated_Source\PSoC4/cyPm.h ****     #define CY_PM_RESET_REASON_UNKN             (0u)
  68:.\Generated_Source\PSoC4/cyPm.h ****     #define CY_PM_RESET_REASON_XRES             (1u)
  69:.\Generated_Source\PSoC4/cyPm.h ****     #define CY_PM_RESET_REASON_WAKEUP_HIB       (2u)
  70:.\Generated_Source\PSoC4/cyPm.h ****     #define CY_PM_RESET_REASON_WAKEUP_STOP      (3u)
  71:.\Generated_Source\PSoC4/cyPm.h **** 
  72:.\Generated_Source\PSoC4/cyPm.h **** #endif /* (CY_IP_SRSSV2) */
  73:.\Generated_Source\PSoC4/cyPm.h **** 
  74:.\Generated_Source\PSoC4/cyPm.h **** 
  75:.\Generated_Source\PSoC4/cyPm.h **** /***************************************
  76:.\Generated_Source\PSoC4/cyPm.h **** *              Registers
  77:.\Generated_Source\PSoC4/cyPm.h **** ***************************************/
  78:.\Generated_Source\PSoC4/cyPm.h **** 
  79:.\Generated_Source\PSoC4/cyPm.h **** /* Power Mode Control */
  80:.\Generated_Source\PSoC4/cyPm.h **** #define CY_PM_PWR_CONTROL_REG               (*(reg32 *) CYREG_PWR_CONTROL)
  81:.\Generated_Source\PSoC4/cyPm.h **** #define CY_PM_PWR_CONTROL_PTR               ( (reg32 *) CYREG_PWR_CONTROL)
  82:.\Generated_Source\PSoC4/cyPm.h **** 
  83:.\Generated_Source\PSoC4/cyPm.h **** /* CM0 System Control Register */
  84:.\Generated_Source\PSoC4/cyPm.h **** #define CY_PM_CM0_SCR_REG                   (*(reg32 *) CYREG_CM0_SCR)
  85:.\Generated_Source\PSoC4/cyPm.h **** #define CY_PM_CM0_SCR_PTR                   ( (reg32 *) CYREG_CM0_SCR)
  86:.\Generated_Source\PSoC4/cyPm.h **** 
  87:.\Generated_Source\PSoC4/cyPm.h **** /* Power System Key & Delay Register */
  88:.\Generated_Source\PSoC4/cyPm.h **** #define CY_PM_PWR_KEY_DELAY_REG             (*(reg32 *) CYREG_PWR_KEY_DELAY)
  89:.\Generated_Source\PSoC4/cyPm.h **** #define CY_PM_PWR_KEY_DELAY_PTR             ( (reg32 *) CYREG_PWR_KEY_DELAY)
  90:.\Generated_Source\PSoC4/cyPm.h **** 
ARM GAS  C:\Users\DELL\AppData\Local\Temp\ccNoeMp4.s 			page 3


  91:.\Generated_Source\PSoC4/cyPm.h **** 
  92:.\Generated_Source\PSoC4/cyPm.h **** #if(CY_IP_SRSSV2)
  93:.\Generated_Source\PSoC4/cyPm.h ****     /* Hibernate wakeup value for PWR_KEY_DELAY */
  94:.\Generated_Source\PSoC4/cyPm.h ****     #define CY_SFLASH_HIB_KEY_DELAY_REG     (*(reg16 *) CYREG_SFLASH_HIB_KEY_DELAY)
  95:.\Generated_Source\PSoC4/cyPm.h ****     #define CY_SFLASH_HIB_KEY_DELAY_PTR     ( (reg16 *) CYREG_SFLASH_HIB_KEY_DELAY)
  96:.\Generated_Source\PSoC4/cyPm.h **** #endif  /* (CY_IP_SRSSV2) */
  97:.\Generated_Source\PSoC4/cyPm.h **** 
  98:.\Generated_Source\PSoC4/cyPm.h **** /* Deep Sleep wakeup value for PWR_KEY_DELAY */
  99:.\Generated_Source\PSoC4/cyPm.h **** #define CY_SFLASH_DPSLP_KEY_DELAY_REG       (*(reg16 *) CYREG_SFLASH_DPSLP_KEY_DELAY)
 100:.\Generated_Source\PSoC4/cyPm.h **** #define CY_SFLASH_DPSLP_KEY_DELAY_PTR       ( (reg16 *) CYREG_SFLASH_DPSLP_KEY_DELAY)
 101:.\Generated_Source\PSoC4/cyPm.h **** 
 102:.\Generated_Source\PSoC4/cyPm.h **** /* Power Stop Mode Register */
 103:.\Generated_Source\PSoC4/cyPm.h **** #if(CY_IP_SRSSV2)
 104:.\Generated_Source\PSoC4/cyPm.h ****     #define CY_PM_PWR_STOP_REG              (*(reg32 *) CYREG_PWR_STOP)
 105:.\Generated_Source\PSoC4/cyPm.h ****     #define CY_PM_PWR_STOP_PTR              ( (reg32 *) CYREG_PWR_STOP)
 106:.\Generated_Source\PSoC4/cyPm.h **** #endif /* (CY_IP_SRSSV2) */
 107:.\Generated_Source\PSoC4/cyPm.h **** 
 108:.\Generated_Source\PSoC4/cyPm.h **** #if (CY_IP_CPUSS && CY_IP_SRSSV2)
 109:.\Generated_Source\PSoC4/cyPm.h ****     /* CPU Subsystem Configuration */
 110:.\Generated_Source\PSoC4/cyPm.h ****     #define CY_PM_CPUSS_CONFIG_REG             (*(reg32 *) CYREG_CPUSS_CONFIG)
 111:.\Generated_Source\PSoC4/cyPm.h ****     #define CY_PM_CPUSS_CONFIG_PTR             ( (reg32 *) CYREG_CPUSS_CONFIG)
 112:.\Generated_Source\PSoC4/cyPm.h **** #endif /* (CY_IP_CPUSS && CY_IP_SRSSV2) */
 113:.\Generated_Source\PSoC4/cyPm.h **** 
 114:.\Generated_Source\PSoC4/cyPm.h **** 
 115:.\Generated_Source\PSoC4/cyPm.h **** /***************************************
 116:.\Generated_Source\PSoC4/cyPm.h **** *       Register Constants
 117:.\Generated_Source\PSoC4/cyPm.h **** ***************************************/
 118:.\Generated_Source\PSoC4/cyPm.h **** 
 119:.\Generated_Source\PSoC4/cyPm.h **** /* CM0 System Control Register Constants */
 120:.\Generated_Source\PSoC4/cyPm.h **** #define CY_PM_CM0_SCR_SLEEPDEEP             ((uint32)(0x04u))
 121:.\Generated_Source\PSoC4/cyPm.h **** 
 122:.\Generated_Source\PSoC4/cyPm.h **** #if(CY_IP_SRSSV2)
 123:.\Generated_Source\PSoC4/cyPm.h ****     /* Power Mode Control Constants */
 124:.\Generated_Source\PSoC4/cyPm.h ****     #define CY_PM_PWR_CONTROL_HIBERNATE         (0x80000000u)
 125:.\Generated_Source\PSoC4/cyPm.h **** 
 126:.\Generated_Source\PSoC4/cyPm.h ****     /* Power Mode Stop Constants */
 127:.\Generated_Source\PSoC4/cyPm.h ****     #define CY_PM_PWR_STOP_POLARITY_SHIFT       (16u)
 128:.\Generated_Source\PSoC4/cyPm.h ****     #define CY_PM_PWR_STOP_POLARITY             ((uint32)((uint32)1u << CY_PM_PWR_STOP_POLARITY_SHI
 129:.\Generated_Source\PSoC4/cyPm.h ****     #define CY_PM_PWR_STOP_FREEZE_SHIFT         (17u)
 130:.\Generated_Source\PSoC4/cyPm.h ****     #define CY_PM_PWR_STOP_FREEZE               ((uint32)((uint32)1u << CY_PM_PWR_STOP_FREEZE_SHIFT
 131:.\Generated_Source\PSoC4/cyPm.h ****     #define CY_PM_PWR_STOP_UNLOCK_SHIFT         (8u)
 132:.\Generated_Source\PSoC4/cyPm.h ****     #define CY_PM_PWR_STOP_UNLOCK_MASK          ((uint32)((uint32)0xFFu << CY_PM_PWR_STOP_UNLOCK_SH
 133:.\Generated_Source\PSoC4/cyPm.h ****     #define CY_PM_PWR_STOP_UNLOCK               ((uint32)((uint32)0x3Au << CY_PM_PWR_STOP_UNLOCK_SH
 134:.\Generated_Source\PSoC4/cyPm.h ****     #define CY_PM_PWR_STOP_STOP_SHIFT           (31u)
 135:.\Generated_Source\PSoC4/cyPm.h ****     #define CY_PM_PWR_STOP_STOP                 ((uint32)((uint32)1u << CY_PM_PWR_STOP_STOP_SHIFT))
 136:.\Generated_Source\PSoC4/cyPm.h ****     #define CY_PM_PWR_STOP_TOKEN_MASK           ((uint32)(0xFFu))
 137:.\Generated_Source\PSoC4/cyPm.h ****     #define CY_PM_PWR_STOP_TOKEN_XRES           ((uint32)(0x00u))
 138:.\Generated_Source\PSoC4/cyPm.h ****     #define CY_PM_PWR_STOP_TOKEN_HIB            ((uint32)(0xF1u))
 139:.\Generated_Source\PSoC4/cyPm.h ****     #define CY_PM_PWR_STOP_TOKEN_STOP           ((uint32)(0xF2u))
 140:.\Generated_Source\PSoC4/cyPm.h **** #else
 141:.\Generated_Source\PSoC4/cyPm.h ****     #define CY_PM_PWR_KEY_DELAY_REG_DEFAULT     ((uint32) 248u)
 142:.\Generated_Source\PSoC4/cyPm.h ****     #define CY_PM_PWR_KEY_DELAY_FREQ_DEFAULT    (48u)
 143:.\Generated_Source\PSoC4/cyPm.h **** #endif /* (CY_IP_SRSSV2) */
 144:.\Generated_Source\PSoC4/cyPm.h **** 
 145:.\Generated_Source\PSoC4/cyPm.h **** #if (CY_IP_CPUSS && CY_IP_SRSSV2)
 146:.\Generated_Source\PSoC4/cyPm.h ****     /* 0 - normal operation, 1 - Flash Accelerator in bypass mode */
 147:.\Generated_Source\PSoC4/cyPm.h ****     #define CY_PM_CPUSS_CONFIG_FLSH_ACC_BYPASS      ((uint32) 0x02u)
ARM GAS  C:\Users\DELL\AppData\Local\Temp\ccNoeMp4.s 			page 4


 148:.\Generated_Source\PSoC4/cyPm.h **** #endif /* (CY_IP_CPUSS && CY_IP_SRSSV2) */
 149:.\Generated_Source\PSoC4/cyPm.h **** 
 150:.\Generated_Source\PSoC4/cyPm.h **** 
 151:.\Generated_Source\PSoC4/cyPm.h **** #if (CY_IP_SRSSV2)
 152:.\Generated_Source\PSoC4/cyPm.h ****     #if (CY_IP_HOBTO_DEVICE)
 153:.\Generated_Source\PSoC4/cyPm.h ****         /*******************************************************************************
 154:.\Generated_Source\PSoC4/cyPm.h ****         * Function Name: CySysPmHibPinsDisableInputBuf
 155:.\Generated_Source\PSoC4/cyPm.h ****         ********************************************************************************
 156:.\Generated_Source\PSoC4/cyPm.h ****         *
 157:.\Generated_Source\PSoC4/cyPm.h ****         * Summary:
 158:.\Generated_Source\PSoC4/cyPm.h ****         *  Disable the input buffer for all the port. This is required before Hibernate
 159:.\Generated_Source\PSoC4/cyPm.h ****         *  mode entry as the operation of the input buffer is not guaranteed if VCCD
 160:.\Generated_Source\PSoC4/cyPm.h ****         *  drops down to 1.0 V.
 161:.\Generated_Source\PSoC4/cyPm.h ****         *
 162:.\Generated_Source\PSoC4/cyPm.h ****         * Parameters:
 163:.\Generated_Source\PSoC4/cyPm.h ****         *  None
 164:.\Generated_Source\PSoC4/cyPm.h ****         *
 165:.\Generated_Source\PSoC4/cyPm.h ****         * Return:
 166:.\Generated_Source\PSoC4/cyPm.h ****         *  None
 167:.\Generated_Source\PSoC4/cyPm.h ****         *
 168:.\Generated_Source\PSoC4/cyPm.h ****         *******************************************************************************/
 169:.\Generated_Source\PSoC4/cyPm.h ****         static CY_INLINE void CySysPmHibPinsDisableInputBuf(void)
 170:.\Generated_Source\PSoC4/cyPm.h ****         {
  25              		.loc 1 170 0
  26              		.cfi_startproc
  27 0000 80B5     		push	{r7, lr}
  28              		.cfi_def_cfa_offset 8
  29              		.cfi_offset 7, -8
  30              		.cfi_offset 14, -4
  31 0002 00AF     		add	r7, sp, #0
  32              		.cfi_def_cfa_register 7
 171:.\Generated_Source\PSoC4/cyPm.h ****             #ifdef CYREG_GPIO_PRT0_PC
 172:.\Generated_Source\PSoC4/cyPm.h ****                 CY_CLEAR_REG32_FIELD(CYREG_GPIO_PRT0_PC, CYFLD_GPIO_PRT_PORT_IB_MODE_SEL);
  33              		.loc 1 172 0
  34 0004 154B     		ldr	r3, .L2
  35 0006 154A     		ldr	r2, .L2
  36 0008 1268     		ldr	r2, [r2]
  37 000a 9200     		lsl	r2, r2, #2
  38 000c 9208     		lsr	r2, r2, #2
  39 000e 1A60     		str	r2, [r3]
 173:.\Generated_Source\PSoC4/cyPm.h ****             #endif /* CYREG_GPIO_PRT0_PC */
 174:.\Generated_Source\PSoC4/cyPm.h **** 
 175:.\Generated_Source\PSoC4/cyPm.h ****             #ifdef CYREG_GPIO_PRT1_PC
 176:.\Generated_Source\PSoC4/cyPm.h ****                 CY_CLEAR_REG32_FIELD( CYREG_GPIO_PRT1_PC, CYFLD_GPIO_PRT_PORT_IB_MODE_SEL);
  40              		.loc 1 176 0
  41 0010 134B     		ldr	r3, .L2+4
  42 0012 134A     		ldr	r2, .L2+4
  43 0014 1268     		ldr	r2, [r2]
  44 0016 9200     		lsl	r2, r2, #2
  45 0018 9208     		lsr	r2, r2, #2
  46 001a 1A60     		str	r2, [r3]
 177:.\Generated_Source\PSoC4/cyPm.h ****             #endif /* CYREG_GPIO_PRT1_PC */
 178:.\Generated_Source\PSoC4/cyPm.h **** 
 179:.\Generated_Source\PSoC4/cyPm.h ****             #ifdef CYREG_GPIO_PRT2_PC
 180:.\Generated_Source\PSoC4/cyPm.h ****                 CY_CLEAR_REG32_FIELD( CYREG_GPIO_PRT2_PC, CYFLD_GPIO_PRT_PORT_IB_MODE_SEL);
  47              		.loc 1 180 0
  48 001c 114B     		ldr	r3, .L2+8
ARM GAS  C:\Users\DELL\AppData\Local\Temp\ccNoeMp4.s 			page 5


  49 001e 114A     		ldr	r2, .L2+8
  50 0020 1268     		ldr	r2, [r2]
  51 0022 9200     		lsl	r2, r2, #2
  52 0024 9208     		lsr	r2, r2, #2
  53 0026 1A60     		str	r2, [r3]
 181:.\Generated_Source\PSoC4/cyPm.h ****             #endif /* CYREG_GPIO_PRT2_PC */
 182:.\Generated_Source\PSoC4/cyPm.h **** 
 183:.\Generated_Source\PSoC4/cyPm.h ****             #ifdef CYREG_GPIO_PRT3_PC
 184:.\Generated_Source\PSoC4/cyPm.h ****                 CY_CLEAR_REG32_FIELD( CYREG_GPIO_PRT3_PC, CYFLD_GPIO_PRT_PORT_IB_MODE_SEL);
  54              		.loc 1 184 0
  55 0028 0F4B     		ldr	r3, .L2+12
  56 002a 0F4A     		ldr	r2, .L2+12
  57 002c 1268     		ldr	r2, [r2]
  58 002e 9200     		lsl	r2, r2, #2
  59 0030 9208     		lsr	r2, r2, #2
  60 0032 1A60     		str	r2, [r3]
 185:.\Generated_Source\PSoC4/cyPm.h ****             #endif /* CYREG_GPIO_PRT3_PC */
 186:.\Generated_Source\PSoC4/cyPm.h **** 
 187:.\Generated_Source\PSoC4/cyPm.h ****             #ifdef CYREG_GPIO_PRT4_PC
 188:.\Generated_Source\PSoC4/cyPm.h ****                 CY_CLEAR_REG32_FIELD( CYREG_GPIO_PRT4_PC, CYFLD_GPIO_PRT_PORT_IB_MODE_SEL);
  61              		.loc 1 188 0
  62 0034 0D4B     		ldr	r3, .L2+16
  63 0036 0D4A     		ldr	r2, .L2+16
  64 0038 1268     		ldr	r2, [r2]
  65 003a 9200     		lsl	r2, r2, #2
  66 003c 9208     		lsr	r2, r2, #2
  67 003e 1A60     		str	r2, [r3]
 189:.\Generated_Source\PSoC4/cyPm.h ****             #endif /* CYREG_GPIO_PRT4_PC */
 190:.\Generated_Source\PSoC4/cyPm.h **** 
 191:.\Generated_Source\PSoC4/cyPm.h ****             #ifdef CYREG_GPIO_PRT5_PC
 192:.\Generated_Source\PSoC4/cyPm.h ****                 CY_CLEAR_REG32_FIELD( CYREG_GPIO_PRT5_PC, CYFLD_GPIO_PRT_PORT_IB_MODE_SEL);
  68              		.loc 1 192 0
  69 0040 0B4B     		ldr	r3, .L2+20
  70 0042 0B4A     		ldr	r2, .L2+20
  71 0044 1268     		ldr	r2, [r2]
  72 0046 9200     		lsl	r2, r2, #2
  73 0048 9208     		lsr	r2, r2, #2
  74 004a 1A60     		str	r2, [r3]
 193:.\Generated_Source\PSoC4/cyPm.h ****             #endif /* CYREG_GPIO_PRT5_PC */
 194:.\Generated_Source\PSoC4/cyPm.h **** 
 195:.\Generated_Source\PSoC4/cyPm.h ****             #ifdef CYREG_GPIO_PRT6_PC
 196:.\Generated_Source\PSoC4/cyPm.h ****                 CY_CLEAR_REG32_FIELD( CYREG_GPIO_PRT6_PC, CYFLD_GPIO_PRT_PORT_IB_MODE_SEL);
  75              		.loc 1 196 0
  76 004c 094B     		ldr	r3, .L2+24
  77 004e 094A     		ldr	r2, .L2+24
  78 0050 1268     		ldr	r2, [r2]
  79 0052 9200     		lsl	r2, r2, #2
  80 0054 9208     		lsr	r2, r2, #2
  81 0056 1A60     		str	r2, [r3]
 197:.\Generated_Source\PSoC4/cyPm.h ****             #endif /* CYREG_GPIO_PRT6_PC */
 198:.\Generated_Source\PSoC4/cyPm.h **** 
 199:.\Generated_Source\PSoC4/cyPm.h ****             #ifdef CYREG_GPIO_PRT7_PC
 200:.\Generated_Source\PSoC4/cyPm.h ****                 CY_CLEAR_REG32_FIELD( CYREG_GPIO_PRT7_PC, CYFLD_GPIO_PRT_PORT_IB_MODE_SEL);
 201:.\Generated_Source\PSoC4/cyPm.h ****             #endif /* CYREG_GPIO_PRT7_PC */
 202:.\Generated_Source\PSoC4/cyPm.h **** 
 203:.\Generated_Source\PSoC4/cyPm.h ****             #ifdef CYREG_GPIO_PRT8_PC
 204:.\Generated_Source\PSoC4/cyPm.h ****                 CY_CLEAR_REG32_FIELD( CYREG_GPIO_PRT8_PC, CYFLD_GPIO_PRT_PORT_IB_MODE_SEL);
ARM GAS  C:\Users\DELL\AppData\Local\Temp\ccNoeMp4.s 			page 6


 205:.\Generated_Source\PSoC4/cyPm.h ****             #endif /* CYREG_GPIO_PRT8_PC */
 206:.\Generated_Source\PSoC4/cyPm.h **** 
 207:.\Generated_Source\PSoC4/cyPm.h ****             #ifdef CYREG_GPIO_PRT9_PC
 208:.\Generated_Source\PSoC4/cyPm.h ****                 CY_CLEAR_REG32_FIELD( CYREG_GPIO_PRT9_PC, CYFLD_GPIO_PRT_PORT_IB_MODE_SEL);
 209:.\Generated_Source\PSoC4/cyPm.h ****             #endif /* CYREG_GPIO_PRT9_PC */
 210:.\Generated_Source\PSoC4/cyPm.h **** 
 211:.\Generated_Source\PSoC4/cyPm.h ****             #ifdef CYREG_GPIO_PRT10_PC
 212:.\Generated_Source\PSoC4/cyPm.h ****                 CY_CLEAR_REG32_FIELD(CYREG_GPIO_PRT10_PC, CYFLD_GPIO_PRT_PORT_IB_MODE_SEL);
 213:.\Generated_Source\PSoC4/cyPm.h ****             #endif /* CYREG_GPIO_PRT10_PC */
 214:.\Generated_Source\PSoC4/cyPm.h **** 
 215:.\Generated_Source\PSoC4/cyPm.h ****             #ifdef CYREG_GPIO_PRT11_PC
 216:.\Generated_Source\PSoC4/cyPm.h ****                 CY_CLEAR_REG32_FIELD(CYREG_GPIO_PRT11_PC, CYFLD_GPIO_PRT_PORT_IB_MODE_SEL);
 217:.\Generated_Source\PSoC4/cyPm.h ****             #endif /* CYREG_GPIO_PRT11_PC */
 218:.\Generated_Source\PSoC4/cyPm.h **** 
 219:.\Generated_Source\PSoC4/cyPm.h ****             #ifdef CYREG_GPIO_PRT12_PC
 220:.\Generated_Source\PSoC4/cyPm.h ****                 CY_CLEAR_REG32_FIELD(CYREG_GPIO_PRT12_PC, CYFLD_GPIO_PRT_PORT_IB_MODE_SEL);
 221:.\Generated_Source\PSoC4/cyPm.h ****             #endif /* CYREG_GPIO_PRT12_PC */
 222:.\Generated_Source\PSoC4/cyPm.h **** 
 223:.\Generated_Source\PSoC4/cyPm.h ****             #ifdef CYREG_GPIO_PRT13_PC
 224:.\Generated_Source\PSoC4/cyPm.h ****                 CY_CLEAR_REG32_FIELD(CYREG_GPIO_PRT13_PC, CYFLD_GPIO_PRT_PORT_IB_MODE_SEL);
 225:.\Generated_Source\PSoC4/cyPm.h ****             #endif /* CYREG_GPIO_PRT13_PC */
 226:.\Generated_Source\PSoC4/cyPm.h **** 
 227:.\Generated_Source\PSoC4/cyPm.h ****             #ifdef CYREG_GPIO_PRT14_PC
 228:.\Generated_Source\PSoC4/cyPm.h ****                 CY_CLEAR_REG32_FIELD(CYREG_GPIO_PRT14_PC, CYFLD_GPIO_PRT_PORT_IB_MODE_SEL);
 229:.\Generated_Source\PSoC4/cyPm.h ****             #endif /* CYREG_GPIO_PRT14_PC */
 230:.\Generated_Source\PSoC4/cyPm.h **** 
 231:.\Generated_Source\PSoC4/cyPm.h ****             #ifdef CYREG_GPIO_PRT15_PC
 232:.\Generated_Source\PSoC4/cyPm.h ****                 CY_CLEAR_REG32_FIELD(CYREG_GPIO_PRT15_PC, CYFLD_GPIO_PRT_PORT_IB_MODE_SEL);
 233:.\Generated_Source\PSoC4/cyPm.h ****             #endif /* CYREG_GPIO_PRT15_PC */
 234:.\Generated_Source\PSoC4/cyPm.h ****         }
  82              		.loc 1 234 0
  83 0058 BD46     		mov	sp, r7
  84              		@ sp needed
  85 005a 80BD     		pop	{r7, pc}
  86              	.L3:
  87              		.align	2
  88              	.L2:
  89 005c 08000440 		.word	1074003976
  90 0060 08010440 		.word	1074004232
  91 0064 08020440 		.word	1074004488
  92 0068 08030440 		.word	1074004744
  93 006c 08040440 		.word	1074005000
  94 0070 08050440 		.word	1074005256
  95 0074 08060440 		.word	1074005512
  96              		.cfi_endproc
  97              	.LFE0:
  98              		.size	CySysPmHibPinsDisableInputBuf, .-CySysPmHibPinsDisableInputBuf
  99              		.section	.text.CySysPmSleep,"ax",%progbits
 100              		.align	2
 101              		.global	CySysPmSleep
 102              		.code	16
 103              		.thumb_func
 104              		.type	CySysPmSleep, %function
 105              	CySysPmSleep:
 106              	.LFB3:
 107              		.file 2 ".\\Generated_Source\\PSoC4\\cyPm.c"
   1:.\Generated_Source\PSoC4/cyPm.c **** /*******************************************************************************
ARM GAS  C:\Users\DELL\AppData\Local\Temp\ccNoeMp4.s 			page 7


   2:.\Generated_Source\PSoC4/cyPm.c **** * File Name: cyPm.c
   3:.\Generated_Source\PSoC4/cyPm.c **** * Version 5.30
   4:.\Generated_Source\PSoC4/cyPm.c **** *
   5:.\Generated_Source\PSoC4/cyPm.c **** *  Description:
   6:.\Generated_Source\PSoC4/cyPm.c **** *   Provides an API for the power management.
   7:.\Generated_Source\PSoC4/cyPm.c **** *
   8:.\Generated_Source\PSoC4/cyPm.c **** *  Note:
   9:.\Generated_Source\PSoC4/cyPm.c **** *   Documentation of the API's in this file is located in the
  10:.\Generated_Source\PSoC4/cyPm.c **** *   System Reference Guide provided with PSoC Creator.
  11:.\Generated_Source\PSoC4/cyPm.c **** *
  12:.\Generated_Source\PSoC4/cyPm.c **** ********************************************************************************
  13:.\Generated_Source\PSoC4/cyPm.c **** * Copyright 2011-2015, Cypress Semiconductor Corporation.  All rights reserved.
  14:.\Generated_Source\PSoC4/cyPm.c **** * You may use this file only in accordance with the license, terms, conditions,
  15:.\Generated_Source\PSoC4/cyPm.c **** * disclaimers, and limitations in the end user license agreement accompanying
  16:.\Generated_Source\PSoC4/cyPm.c **** * the software package with which this file was provided.
  17:.\Generated_Source\PSoC4/cyPm.c **** *******************************************************************************/
  18:.\Generated_Source\PSoC4/cyPm.c **** 
  19:.\Generated_Source\PSoC4/cyPm.c **** #include "cyPm.h"
  20:.\Generated_Source\PSoC4/cyPm.c **** #include "CyLib.h"
  21:.\Generated_Source\PSoC4/cyPm.c **** 
  22:.\Generated_Source\PSoC4/cyPm.c **** 
  23:.\Generated_Source\PSoC4/cyPm.c **** /*******************************************************************************
  24:.\Generated_Source\PSoC4/cyPm.c **** * Function Name: CySysPmSleep
  25:.\Generated_Source\PSoC4/cyPm.c **** ********************************************************************************
  26:.\Generated_Source\PSoC4/cyPm.c **** *
  27:.\Generated_Source\PSoC4/cyPm.c **** * Summary:
  28:.\Generated_Source\PSoC4/cyPm.c **** *  Puts the part into the Sleep state. This is a CPU-centric power mode.
  29:.\Generated_Source\PSoC4/cyPm.c **** *  It means that the CPU has indicated that it is in the sleep mode and
  30:.\Generated_Source\PSoC4/cyPm.c **** *  its main clock can be removed. It is identical to Active from a peripheral
  31:.\Generated_Source\PSoC4/cyPm.c **** *  point of view. Any enabled interrupts can cause wakeup from the  Sleep mode.
  32:.\Generated_Source\PSoC4/cyPm.c **** *
  33:.\Generated_Source\PSoC4/cyPm.c **** * Parameters:
  34:.\Generated_Source\PSoC4/cyPm.c **** *  None
  35:.\Generated_Source\PSoC4/cyPm.c **** *
  36:.\Generated_Source\PSoC4/cyPm.c **** * Return:
  37:.\Generated_Source\PSoC4/cyPm.c **** *  None
  38:.\Generated_Source\PSoC4/cyPm.c **** *
  39:.\Generated_Source\PSoC4/cyPm.c **** *******************************************************************************/
  40:.\Generated_Source\PSoC4/cyPm.c **** void CySysPmSleep(void)
  41:.\Generated_Source\PSoC4/cyPm.c **** {
 108              		.loc 2 41 0
 109              		.cfi_startproc
 110 0000 90B5     		push	{r4, r7, lr}
 111              		.cfi_def_cfa_offset 12
 112              		.cfi_offset 4, -12
 113              		.cfi_offset 7, -8
 114              		.cfi_offset 14, -4
 115 0002 83B0     		sub	sp, sp, #12
 116              		.cfi_def_cfa_offset 24
 117 0004 00AF     		add	r7, sp, #0
 118              		.cfi_def_cfa_register 7
  42:.\Generated_Source\PSoC4/cyPm.c ****     uint8 interruptState;
  43:.\Generated_Source\PSoC4/cyPm.c **** 
  44:.\Generated_Source\PSoC4/cyPm.c ****     interruptState = CyEnterCriticalSection();
 119              		.loc 2 44 0
 120 0006 FC1D     		add	r4, r7, #7
 121 0008 FFF7FEFF 		bl	CyEnterCriticalSection
ARM GAS  C:\Users\DELL\AppData\Local\Temp\ccNoeMp4.s 			page 8


 122 000c 031C     		mov	r3, r0
 123 000e 2370     		strb	r3, [r4]
  45:.\Generated_Source\PSoC4/cyPm.c **** 
  46:.\Generated_Source\PSoC4/cyPm.c ****     /* CM0 enters Sleep mode upon execution of WFI */
  47:.\Generated_Source\PSoC4/cyPm.c ****     CY_PM_CM0_SCR_REG &= (uint32) (~CY_PM_CM0_SCR_SLEEPDEEP);
 124              		.loc 2 47 0
 125 0010 074B     		ldr	r3, .L5
 126 0012 074A     		ldr	r2, .L5
 127 0014 1268     		ldr	r2, [r2]
 128 0016 0421     		mov	r1, #4
 129 0018 8A43     		bic	r2, r1
 130 001a 1A60     		str	r2, [r3]
  48:.\Generated_Source\PSoC4/cyPm.c **** 
  49:.\Generated_Source\PSoC4/cyPm.c ****     /* Sleep and wait for interrupt */
  50:.\Generated_Source\PSoC4/cyPm.c ****     CY_PM_WFI;
 131              		.loc 2 50 0
 132              	@ 50 ".\Generated_Source\PSoC4\cyPm.c" 1
 133 001c 30BF     		WFI 
 134              	
 135              	@ 0 "" 2
  51:.\Generated_Source\PSoC4/cyPm.c **** 
  52:.\Generated_Source\PSoC4/cyPm.c ****     CyExitCriticalSection(interruptState);
 136              		.loc 2 52 0
 137              		.code	16
 138 001e FB1D     		add	r3, r7, #7
 139 0020 1B78     		ldrb	r3, [r3]
 140 0022 181C     		mov	r0, r3
 141 0024 FFF7FEFF 		bl	CyExitCriticalSection
  53:.\Generated_Source\PSoC4/cyPm.c **** }
 142              		.loc 2 53 0
 143 0028 BD46     		mov	sp, r7
 144 002a 03B0     		add	sp, sp, #12
 145              		@ sp needed
 146 002c 90BD     		pop	{r4, r7, pc}
 147              	.L6:
 148 002e C046     		.align	2
 149              	.L5:
 150 0030 10ED00E0 		.word	-536810224
 151              		.cfi_endproc
 152              	.LFE3:
 153              		.size	CySysPmSleep, .-CySysPmSleep
 154              		.section	.text.CySysPmDeepSleep,"ax",%progbits
 155              		.align	2
 156              		.global	CySysPmDeepSleep
 157              		.code	16
 158              		.thumb_func
 159              		.type	CySysPmDeepSleep, %function
 160              	CySysPmDeepSleep:
 161              	.LFB4:
  54:.\Generated_Source\PSoC4/cyPm.c **** 
  55:.\Generated_Source\PSoC4/cyPm.c **** 
  56:.\Generated_Source\PSoC4/cyPm.c **** /*******************************************************************************
  57:.\Generated_Source\PSoC4/cyPm.c **** * Function Name: CySysPmDeepSleep
  58:.\Generated_Source\PSoC4/cyPm.c **** ********************************************************************************
  59:.\Generated_Source\PSoC4/cyPm.c **** *
  60:.\Generated_Source\PSoC4/cyPm.c **** * Summary:
  61:.\Generated_Source\PSoC4/cyPm.c **** *  Puts the part into the Deep Sleep state. If the firmware attempts to enter
ARM GAS  C:\Users\DELL\AppData\Local\Temp\ccNoeMp4.s 			page 9


  62:.\Generated_Source\PSoC4/cyPm.c **** *  this mode before the system is ready (that is, when
  63:.\Generated_Source\PSoC4/cyPm.c **** *  PWR_CONTROL.LPM_READY = 0), then the device will go into the Sleep mode
  64:.\Generated_Source\PSoC4/cyPm.c **** *  instead and automatically enter the originally intended mode when the
  65:.\Generated_Source\PSoC4/cyPm.c **** *  holdoff expires.
  66:.\Generated_Source\PSoC4/cyPm.c **** *
  67:.\Generated_Source\PSoC4/cyPm.c **** *  The wakeup occurs when an interrupt is received from a DeepSleep or
  68:.\Generated_Source\PSoC4/cyPm.c **** *  Hibernate peripheral. For more details, see a corresponding
  69:.\Generated_Source\PSoC4/cyPm.c **** *  peripheral's datasheet.
  70:.\Generated_Source\PSoC4/cyPm.c **** *
  71:.\Generated_Source\PSoC4/cyPm.c **** * Parameters:
  72:.\Generated_Source\PSoC4/cyPm.c **** *  None
  73:.\Generated_Source\PSoC4/cyPm.c **** *
  74:.\Generated_Source\PSoC4/cyPm.c **** * Return:
  75:.\Generated_Source\PSoC4/cyPm.c **** *  None
  76:.\Generated_Source\PSoC4/cyPm.c **** *
  77:.\Generated_Source\PSoC4/cyPm.c **** *******************************************************************************/
  78:.\Generated_Source\PSoC4/cyPm.c **** void CySysPmDeepSleep(void)
  79:.\Generated_Source\PSoC4/cyPm.c **** {
 162              		.loc 2 79 0
 163              		.cfi_startproc
 164 0000 90B5     		push	{r4, r7, lr}
 165              		.cfi_def_cfa_offset 12
 166              		.cfi_offset 4, -12
 167              		.cfi_offset 7, -8
 168              		.cfi_offset 14, -4
 169 0002 83B0     		sub	sp, sp, #12
 170              		.cfi_def_cfa_offset 24
 171 0004 00AF     		add	r7, sp, #0
 172              		.cfi_def_cfa_register 7
  80:.\Generated_Source\PSoC4/cyPm.c ****     uint8 interruptState;
  81:.\Generated_Source\PSoC4/cyPm.c ****     #if(CY_IP_SRSSV2)
  82:.\Generated_Source\PSoC4/cyPm.c ****         volatile uint32 clkSelectReg;
  83:.\Generated_Source\PSoC4/cyPm.c ****     #endif /* (CY_IP_SRSSV2) */
  84:.\Generated_Source\PSoC4/cyPm.c **** 
  85:.\Generated_Source\PSoC4/cyPm.c ****     interruptState = CyEnterCriticalSection();
 173              		.loc 2 85 0
 174 0006 FC1D     		add	r4, r7, #7
 175 0008 FFF7FEFF 		bl	CyEnterCriticalSection
 176 000c 031C     		mov	r3, r0
 177 000e 2370     		strb	r3, [r4]
  86:.\Generated_Source\PSoC4/cyPm.c **** 
  87:.\Generated_Source\PSoC4/cyPm.c ****     #if(CY_IP_SRSSV2)
  88:.\Generated_Source\PSoC4/cyPm.c ****         /* Device enters DeepSleep mode when CPU asserts SLEEPDEEP signal */
  89:.\Generated_Source\PSoC4/cyPm.c ****         CY_PM_PWR_CONTROL_REG &= (uint32) (~CY_PM_PWR_CONTROL_HIBERNATE);
 178              		.loc 2 89 0
 179 0010 114B     		ldr	r3, .L8
 180 0012 114A     		ldr	r2, .L8
 181 0014 1268     		ldr	r2, [r2]
 182 0016 5200     		lsl	r2, r2, #1
 183 0018 5208     		lsr	r2, r2, #1
 184 001a 1A60     		str	r2, [r3]
  90:.\Generated_Source\PSoC4/cyPm.c ****     #endif /* (CY_IP_SRSSV2) */
  91:.\Generated_Source\PSoC4/cyPm.c **** 
  92:.\Generated_Source\PSoC4/cyPm.c ****     #if (CY_IP_CPUSS && CY_IP_SRSSV2)
  93:.\Generated_Source\PSoC4/cyPm.c ****         CY_PM_CPUSS_CONFIG_REG |= CY_PM_CPUSS_CONFIG_FLSH_ACC_BYPASS;
  94:.\Generated_Source\PSoC4/cyPm.c ****     #endif /* (CY_IP_CPUSS && CY_IP_SRSSV2) */
  95:.\Generated_Source\PSoC4/cyPm.c **** 
ARM GAS  C:\Users\DELL\AppData\Local\Temp\ccNoeMp4.s 			page 10


  96:.\Generated_Source\PSoC4/cyPm.c ****     /* Adjust delay to wait for references to settle on wakeup from Deep Sleep */
  97:.\Generated_Source\PSoC4/cyPm.c ****     CY_PM_PWR_KEY_DELAY_REG = CY_SFLASH_DPSLP_KEY_DELAY_REG;
 185              		.loc 2 97 0
 186 001c 0F4B     		ldr	r3, .L8+4
 187 001e 104A     		ldr	r2, .L8+8
 188 0020 1288     		ldrh	r2, [r2]
 189 0022 92B2     		uxth	r2, r2
 190 0024 1A60     		str	r2, [r3]
  98:.\Generated_Source\PSoC4/cyPm.c **** 
  99:.\Generated_Source\PSoC4/cyPm.c ****     /* CM0 enters DeepSleep/Hibernate mode upon execution of WFI */
 100:.\Generated_Source\PSoC4/cyPm.c ****     CY_PM_CM0_SCR_REG |= CY_PM_CM0_SCR_SLEEPDEEP;
 191              		.loc 2 100 0
 192 0026 0F4B     		ldr	r3, .L8+12
 193 0028 0E4A     		ldr	r2, .L8+12
 194 002a 1268     		ldr	r2, [r2]
 195 002c 0421     		mov	r1, #4
 196 002e 0A43     		orr	r2, r1
 197 0030 1A60     		str	r2, [r3]
 101:.\Generated_Source\PSoC4/cyPm.c **** 
 102:.\Generated_Source\PSoC4/cyPm.c ****     #if(CY_IP_SRSSV2)
 103:.\Generated_Source\PSoC4/cyPm.c ****         /* Preserve system clock configuration and
 104:.\Generated_Source\PSoC4/cyPm.c ****         * reduce sysclk to <=12 MHz (Cypress ID #158710, #179888).
 105:.\Generated_Source\PSoC4/cyPm.c ****         */
 106:.\Generated_Source\PSoC4/cyPm.c ****         clkSelectReg = CY_SYS_CLK_SELECT_REG;
 198              		.loc 2 106 0
 199 0032 0D4B     		ldr	r3, .L8+16
 200 0034 1B68     		ldr	r3, [r3]
 201 0036 3B60     		str	r3, [r7]
 107:.\Generated_Source\PSoC4/cyPm.c ****         CySysClkWriteSysclkDiv(CY_SYS_CLK_SYSCLK_DIV4);
 202              		.loc 2 107 0
 203 0038 0220     		mov	r0, #2
 204 003a FFF7FEFF 		bl	CySysClkWriteSysclkDiv
 108:.\Generated_Source\PSoC4/cyPm.c ****     #endif /* (CY_IP_SRSSV2) */
 109:.\Generated_Source\PSoC4/cyPm.c **** 
 110:.\Generated_Source\PSoC4/cyPm.c ****     /* Sleep and wait for interrupt */
 111:.\Generated_Source\PSoC4/cyPm.c ****     CY_PM_WFI;
 205              		.loc 2 111 0
 206              	@ 111 ".\Generated_Source\PSoC4\cyPm.c" 1
 207 003e 30BF     		WFI 
 208              	
 209              	@ 0 "" 2
 112:.\Generated_Source\PSoC4/cyPm.c **** 
 113:.\Generated_Source\PSoC4/cyPm.c ****     #if(CY_IP_SRSSV2)
 114:.\Generated_Source\PSoC4/cyPm.c ****         /* Restore system clock configuration */
 115:.\Generated_Source\PSoC4/cyPm.c ****         CY_SYS_CLK_SELECT_REG = clkSelectReg;
 210              		.loc 2 115 0
 211              		.code	16
 212 0040 094B     		ldr	r3, .L8+16
 213 0042 3A68     		ldr	r2, [r7]
 214 0044 1A60     		str	r2, [r3]
 116:.\Generated_Source\PSoC4/cyPm.c ****     #endif /* (CY_IP_SRSSV2) */
 117:.\Generated_Source\PSoC4/cyPm.c **** 
 118:.\Generated_Source\PSoC4/cyPm.c ****     #if (CY_IP_CPUSS && CY_IP_SRSSV2)
 119:.\Generated_Source\PSoC4/cyPm.c ****         CY_PM_CPUSS_CONFIG_REG &= (uint32) (~CY_PM_CPUSS_CONFIG_FLSH_ACC_BYPASS);
 120:.\Generated_Source\PSoC4/cyPm.c ****     #endif /* (CY_IP_CPUSS && CY_IP_SRSSV2) */
 121:.\Generated_Source\PSoC4/cyPm.c **** 
 122:.\Generated_Source\PSoC4/cyPm.c ****     CyExitCriticalSection(interruptState);
ARM GAS  C:\Users\DELL\AppData\Local\Temp\ccNoeMp4.s 			page 11


 215              		.loc 2 122 0
 216 0046 FB1D     		add	r3, r7, #7
 217 0048 1B78     		ldrb	r3, [r3]
 218 004a 181C     		mov	r0, r3
 219 004c FFF7FEFF 		bl	CyExitCriticalSection
 123:.\Generated_Source\PSoC4/cyPm.c **** }
 220              		.loc 2 123 0
 221 0050 BD46     		mov	sp, r7
 222 0052 03B0     		add	sp, sp, #12
 223              		@ sp needed
 224 0054 90BD     		pop	{r4, r7, pc}
 225              	.L9:
 226 0056 C046     		.align	2
 227              	.L8:
 228 0058 00000B40 		.word	1074462720
 229 005c 0C000B40 		.word	1074462732
 230 0060 52F1FF0F 		.word	268431698
 231 0064 10ED00E0 		.word	-536810224
 232 0068 00010B40 		.word	1074462976
 233              		.cfi_endproc
 234              	.LFE4:
 235              		.size	CySysPmDeepSleep, .-CySysPmDeepSleep
 236              		.section	.text.CySysPmHibernate,"ax",%progbits
 237              		.align	2
 238              		.global	CySysPmHibernate
 239              		.code	16
 240              		.thumb_func
 241              		.type	CySysPmHibernate, %function
 242              	CySysPmHibernate:
 243              	.LFB5:
 124:.\Generated_Source\PSoC4/cyPm.c **** 
 125:.\Generated_Source\PSoC4/cyPm.c **** 
 126:.\Generated_Source\PSoC4/cyPm.c **** #if(CY_IP_SRSSV2)
 127:.\Generated_Source\PSoC4/cyPm.c **** 
 128:.\Generated_Source\PSoC4/cyPm.c ****     /*******************************************************************************
 129:.\Generated_Source\PSoC4/cyPm.c ****     * Function Name: CySysPmHibernate
 130:.\Generated_Source\PSoC4/cyPm.c ****     ********************************************************************************
 131:.\Generated_Source\PSoC4/cyPm.c ****     *
 132:.\Generated_Source\PSoC4/cyPm.c ****     * Summary:
 133:.\Generated_Source\PSoC4/cyPm.c ****     *  Puts the part into the Hibernate state. Only SRAM and UDBs are retained;
 134:.\Generated_Source\PSoC4/cyPm.c ****     *  most internal supplies are off. Wakeup is possible from a pin or a hibernate
 135:.\Generated_Source\PSoC4/cyPm.c ****     *  comparator only.
 136:.\Generated_Source\PSoC4/cyPm.c ****     *
 137:.\Generated_Source\PSoC4/cyPm.c ****     *  It is expected that the firmware has already frozen the IO-Cells using
 138:.\Generated_Source\PSoC4/cyPm.c ****     *  CySysPmFreezeIo() function before the call to this function. If this is
 139:.\Generated_Source\PSoC4/cyPm.c ****     *  omitted, the IO-cells will be frozen in the same way as they are
 140:.\Generated_Source\PSoC4/cyPm.c ****     *  in the Active to Deep Sleep transition, but will lose their state on wake up
 141:.\Generated_Source\PSoC4/cyPm.c ****     *  (because of the reset occurring at that time).
 142:.\Generated_Source\PSoC4/cyPm.c ****     *
 143:.\Generated_Source\PSoC4/cyPm.c ****     *  Because all the CPU state is lost, the CPU will start up at the reset vector.
 144:.\Generated_Source\PSoC4/cyPm.c ****     *  To save the firmware state through the Hibernate low power mode, a
 145:.\Generated_Source\PSoC4/cyPm.c ****     *  corresponding variable should be defined with CY_NOINIT attribute. It
 146:.\Generated_Source\PSoC4/cyPm.c ****     *  prevents data from being initialized to zero on startup. The interrupt
 147:.\Generated_Source\PSoC4/cyPm.c ****     *  cause of the hibernate peripheral is retained, such that it can be either
 148:.\Generated_Source\PSoC4/cyPm.c ****     *  read by the firmware or cause an interrupt after the firmware has booted and
 149:.\Generated_Source\PSoC4/cyPm.c ****     *  enabled the corresponding interrupt. To distinguish the wakeup from
 150:.\Generated_Source\PSoC4/cyPm.c ****     *  the Hibernate mode and the general Reset event, the CySysPmGetResetReason()
ARM GAS  C:\Users\DELL\AppData\Local\Temp\ccNoeMp4.s 			page 12


 151:.\Generated_Source\PSoC4/cyPm.c ****     *  function could be used.
 152:.\Generated_Source\PSoC4/cyPm.c ****     *
 153:.\Generated_Source\PSoC4/cyPm.c ****     * Parameters:
 154:.\Generated_Source\PSoC4/cyPm.c ****     *  None
 155:.\Generated_Source\PSoC4/cyPm.c ****     *
 156:.\Generated_Source\PSoC4/cyPm.c ****     * Return:
 157:.\Generated_Source\PSoC4/cyPm.c ****     *  None
 158:.\Generated_Source\PSoC4/cyPm.c ****     *
 159:.\Generated_Source\PSoC4/cyPm.c ****     *******************************************************************************/
 160:.\Generated_Source\PSoC4/cyPm.c ****     void CySysPmHibernate(void)
 161:.\Generated_Source\PSoC4/cyPm.c ****     {
 244              		.loc 2 161 0
 245              		.cfi_startproc
 246 0000 90B5     		push	{r4, r7, lr}
 247              		.cfi_def_cfa_offset 12
 248              		.cfi_offset 4, -12
 249              		.cfi_offset 7, -8
 250              		.cfi_offset 14, -4
 251 0002 83B0     		sub	sp, sp, #12
 252              		.cfi_def_cfa_offset 24
 253 0004 00AF     		add	r7, sp, #0
 254              		.cfi_def_cfa_register 7
 162:.\Generated_Source\PSoC4/cyPm.c ****         uint8 interruptState;
 163:.\Generated_Source\PSoC4/cyPm.c **** 
 164:.\Generated_Source\PSoC4/cyPm.c ****         interruptState = CyEnterCriticalSection();
 255              		.loc 2 164 0
 256 0006 FC1D     		add	r4, r7, #7
 257 0008 FFF7FEFF 		bl	CyEnterCriticalSection
 258 000c 031C     		mov	r3, r0
 259 000e 2370     		strb	r3, [r4]
 165:.\Generated_Source\PSoC4/cyPm.c **** 
 166:.\Generated_Source\PSoC4/cyPm.c ****         #if (CY_IP_HOBTO_DEVICE)
 167:.\Generated_Source\PSoC4/cyPm.c ****             /* Disable input buffers for all ports */
 168:.\Generated_Source\PSoC4/cyPm.c ****             CySysPmHibPinsDisableInputBuf();
 260              		.loc 2 168 0
 261 0010 FFF7FEFF 		bl	CySysPmHibPinsDisableInputBuf
 169:.\Generated_Source\PSoC4/cyPm.c ****         #endif /* (CY_IP_HOBTO_DEVICE) */
 170:.\Generated_Source\PSoC4/cyPm.c **** 
 171:.\Generated_Source\PSoC4/cyPm.c ****         /* Device enters Hibernate mode when CPU asserts SLEEPDEEP signal */
 172:.\Generated_Source\PSoC4/cyPm.c ****         CY_PM_PWR_CONTROL_REG |= CY_PM_PWR_CONTROL_HIBERNATE;
 262              		.loc 2 172 0
 263 0014 114B     		ldr	r3, .L11
 264 0016 114A     		ldr	r2, .L11
 265 0018 1268     		ldr	r2, [r2]
 266 001a 8021     		mov	r1, #128
 267 001c 0906     		lsl	r1, r1, #24
 268 001e 0A43     		orr	r2, r1
 269 0020 1A60     		str	r2, [r3]
 173:.\Generated_Source\PSoC4/cyPm.c **** 
 174:.\Generated_Source\PSoC4/cyPm.c ****         /* Adjust delay to wait for references to settle on wakeup from hibernate */
 175:.\Generated_Source\PSoC4/cyPm.c ****         CY_PM_PWR_KEY_DELAY_REG = CY_SFLASH_HIB_KEY_DELAY_REG;
 270              		.loc 2 175 0
 271 0022 0F4B     		ldr	r3, .L11+4
 272 0024 0F4A     		ldr	r2, .L11+8
 273 0026 1288     		ldrh	r2, [r2]
 274 0028 92B2     		uxth	r2, r2
 275 002a 1A60     		str	r2, [r3]
ARM GAS  C:\Users\DELL\AppData\Local\Temp\ccNoeMp4.s 			page 13


 176:.\Generated_Source\PSoC4/cyPm.c **** 
 177:.\Generated_Source\PSoC4/cyPm.c ****         /* CM0 enters DeepSleep/Hibernate mode upon execution of WFI */
 178:.\Generated_Source\PSoC4/cyPm.c ****         CY_PM_CM0_SCR_REG |= CY_PM_CM0_SCR_SLEEPDEEP;
 276              		.loc 2 178 0
 277 002c 0E4B     		ldr	r3, .L11+12
 278 002e 0E4A     		ldr	r2, .L11+12
 279 0030 1268     		ldr	r2, [r2]
 280 0032 0421     		mov	r1, #4
 281 0034 0A43     		orr	r2, r1
 282 0036 1A60     		str	r2, [r3]
 179:.\Generated_Source\PSoC4/cyPm.c **** 
 180:.\Generated_Source\PSoC4/cyPm.c ****         /* Save token that will retain through a STOP/WAKEUP sequence
 181:.\Generated_Source\PSoC4/cyPm.c ****          * thus could be used by CySysPmGetResetReason() to differentiate
 182:.\Generated_Source\PSoC4/cyPm.c ****          * WAKEUP from a general RESET event.
 183:.\Generated_Source\PSoC4/cyPm.c ****          */
 184:.\Generated_Source\PSoC4/cyPm.c ****         CY_PM_PWR_STOP_REG = (CY_PM_PWR_STOP_REG & (uint32)(~CY_PM_PWR_STOP_TOKEN_MASK)) | CY_PM_PW
 283              		.loc 2 184 0
 284 0038 0C4B     		ldr	r3, .L11+16
 285 003a 0C4A     		ldr	r2, .L11+16
 286 003c 1268     		ldr	r2, [r2]
 287 003e FF21     		mov	r1, #255
 288 0040 8A43     		bic	r2, r1
 289 0042 F121     		mov	r1, #241
 290 0044 0A43     		orr	r2, r1
 291 0046 1A60     		str	r2, [r3]
 185:.\Generated_Source\PSoC4/cyPm.c **** 
 186:.\Generated_Source\PSoC4/cyPm.c ****         /* Sleep and wait for interrupt. Wakeup from Hibernate is performed
 187:.\Generated_Source\PSoC4/cyPm.c ****          * through RESET state, causing a normal Boot procedure to occur.
 188:.\Generated_Source\PSoC4/cyPm.c ****          * The WFI instruction doesn't put the core to sleep if its wake condition
 189:.\Generated_Source\PSoC4/cyPm.c ****          * is true when the instruction is executed.
 190:.\Generated_Source\PSoC4/cyPm.c ****          */
 191:.\Generated_Source\PSoC4/cyPm.c ****         CY_PM_WFI;
 292              		.loc 2 191 0
 293              	@ 191 ".\Generated_Source\PSoC4\cyPm.c" 1
 294 0048 30BF     		WFI 
 295              	
 296              	@ 0 "" 2
 192:.\Generated_Source\PSoC4/cyPm.c **** 
 193:.\Generated_Source\PSoC4/cyPm.c ****         CyExitCriticalSection(interruptState);
 297              		.loc 2 193 0
 298              		.code	16
 299 004a FB1D     		add	r3, r7, #7
 300 004c 1B78     		ldrb	r3, [r3]
 301 004e 181C     		mov	r0, r3
 302 0050 FFF7FEFF 		bl	CyExitCriticalSection
 194:.\Generated_Source\PSoC4/cyPm.c ****     }
 303              		.loc 2 194 0
 304 0054 BD46     		mov	sp, r7
 305 0056 03B0     		add	sp, sp, #12
 306              		@ sp needed
 307 0058 90BD     		pop	{r4, r7, pc}
 308              	.L12:
 309 005a C046     		.align	2
 310              	.L11:
 311 005c 00000B40 		.word	1074462720
 312 0060 0C000B40 		.word	1074462732
 313 0064 50F1FF0F 		.word	268431696
ARM GAS  C:\Users\DELL\AppData\Local\Temp\ccNoeMp4.s 			page 14


 314 0068 10ED00E0 		.word	-536810224
 315 006c 2C000B40 		.word	1074462764
 316              		.cfi_endproc
 317              	.LFE5:
 318              		.size	CySysPmHibernate, .-CySysPmHibernate
 319              		.section	.text.CySysPmStop,"ax",%progbits
 320              		.align	2
 321              		.global	CySysPmStop
 322              		.code	16
 323              		.thumb_func
 324              		.type	CySysPmStop, %function
 325              	CySysPmStop:
 326              	.LFB6:
 195:.\Generated_Source\PSoC4/cyPm.c **** 
 196:.\Generated_Source\PSoC4/cyPm.c **** 
 197:.\Generated_Source\PSoC4/cyPm.c ****     /*******************************************************************************
 198:.\Generated_Source\PSoC4/cyPm.c ****     * Function Name: CySysPmStop
 199:.\Generated_Source\PSoC4/cyPm.c ****     ********************************************************************************
 200:.\Generated_Source\PSoC4/cyPm.c ****     *
 201:.\Generated_Source\PSoC4/cyPm.c ****     * Summary:
 202:.\Generated_Source\PSoC4/cyPm.c ****     *  Puts the part into the Stop state. All internal supplies are off;
 203:.\Generated_Source\PSoC4/cyPm.c ****     *  no state is retained.
 204:.\Generated_Source\PSoC4/cyPm.c ****     *
 205:.\Generated_Source\PSoC4/cyPm.c ****     *  Wakeup from Stop is performed by toggling the wakeup pin, causing
 206:.\Generated_Source\PSoC4/cyPm.c ****     *  a normal boot procedure to occur. To configure the wakeup pin,
 207:.\Generated_Source\PSoC4/cyPm.c ****     *  the Digital Input Pin component should be placed on the schematic,
 208:.\Generated_Source\PSoC4/cyPm.c ****     *  assigned to the wakeup pin, and resistively pulled up or down to the inverse
 209:.\Generated_Source\PSoC4/cyPm.c ****     *  state of the wakeup polarity. To distinguish the wakeup from the Stop mode
 210:.\Generated_Source\PSoC4/cyPm.c ****     *  and the general Reset event, CySysPmGetResetReason() function could be used.
 211:.\Generated_Source\PSoC4/cyPm.c ****     *  The wakeup pin is active low by default. The wakeup pin polarity
 212:.\Generated_Source\PSoC4/cyPm.c ****     *  could be changed with the CySysPmSetWakeupPolarity() function.
 213:.\Generated_Source\PSoC4/cyPm.c ****     *
 214:.\Generated_Source\PSoC4/cyPm.c ****     *  This function freezes IO cells implicitly. It is not possible to enter
 215:.\Generated_Source\PSoC4/cyPm.c ****     *  the STOP mode before freezing the IO cells. The IO cells remain frozen after
 216:.\Generated_Source\PSoC4/cyPm.c ****     *  awake from the Stop mode until the firmware unfreezes them after booting
 217:.\Generated_Source\PSoC4/cyPm.c ****     *  explicitly with CySysPmUnfreezeIo() function call.
 218:.\Generated_Source\PSoC4/cyPm.c ****     *
 219:.\Generated_Source\PSoC4/cyPm.c ****     * Parameters:
 220:.\Generated_Source\PSoC4/cyPm.c ****     *  None
 221:.\Generated_Source\PSoC4/cyPm.c ****     *
 222:.\Generated_Source\PSoC4/cyPm.c ****     * Return:
 223:.\Generated_Source\PSoC4/cyPm.c ****     *  None
 224:.\Generated_Source\PSoC4/cyPm.c ****     *
 225:.\Generated_Source\PSoC4/cyPm.c ****     *******************************************************************************/
 226:.\Generated_Source\PSoC4/cyPm.c ****     void CySysPmStop(void)
 227:.\Generated_Source\PSoC4/cyPm.c ****     {
 327              		.loc 2 227 0
 328              		.cfi_startproc
 329 0000 80B5     		push	{r7, lr}
 330              		.cfi_def_cfa_offset 8
 331              		.cfi_offset 7, -8
 332              		.cfi_offset 14, -4
 333 0002 00AF     		add	r7, sp, #0
 334              		.cfi_def_cfa_register 7
 228:.\Generated_Source\PSoC4/cyPm.c ****         (void) CyEnterCriticalSection();
 335              		.loc 2 228 0
 336 0004 FFF7FEFF 		bl	CyEnterCriticalSection
ARM GAS  C:\Users\DELL\AppData\Local\Temp\ccNoeMp4.s 			page 15


 229:.\Generated_Source\PSoC4/cyPm.c **** 
 230:.\Generated_Source\PSoC4/cyPm.c ****         /* Update token to indicate Stop mode transition. Preserve only polarity. */
 231:.\Generated_Source\PSoC4/cyPm.c ****         CY_PM_PWR_STOP_REG = (CY_PM_PWR_STOP_REG & CY_PM_PWR_STOP_POLARITY) | CY_PM_PWR_STOP_TOKEN_
 337              		.loc 2 231 0
 338 0008 0B4B     		ldr	r3, .L14
 339 000a 0B4A     		ldr	r2, .L14
 340 000c 1168     		ldr	r1, [r2]
 341 000e 8022     		mov	r2, #128
 342 0010 5202     		lsl	r2, r2, #9
 343 0012 0A40     		and	r2, r1
 344 0014 F221     		mov	r1, #242
 345 0016 0A43     		orr	r2, r1
 346 0018 1A60     		str	r2, [r3]
 232:.\Generated_Source\PSoC4/cyPm.c **** 
 233:.\Generated_Source\PSoC4/cyPm.c ****         /* Freeze IO-Cells to save IO-Cell state */
 234:.\Generated_Source\PSoC4/cyPm.c ****         CySysPmFreezeIo();
 347              		.loc 2 234 0
 348 001a FFF7FEFF 		bl	CySysPmFreezeIo
 235:.\Generated_Source\PSoC4/cyPm.c **** 
 236:.\Generated_Source\PSoC4/cyPm.c ****         /* Initiates transition to Stop state */
 237:.\Generated_Source\PSoC4/cyPm.c ****         CY_PM_PWR_STOP_REG = CY_PM_PWR_STOP_REG | CY_PM_PWR_STOP_STOP;
 349              		.loc 2 237 0
 350 001e 064B     		ldr	r3, .L14
 351 0020 054A     		ldr	r2, .L14
 352 0022 1268     		ldr	r2, [r2]
 353 0024 8021     		mov	r1, #128
 354 0026 0906     		lsl	r1, r1, #24
 355 0028 0A43     		orr	r2, r1
 356 002a 1A60     		str	r2, [r3]
 238:.\Generated_Source\PSoC4/cyPm.c **** 
 239:.\Generated_Source\PSoC4/cyPm.c ****         /* Depending on the clock frequency and internal timing delays,
 240:.\Generated_Source\PSoC4/cyPm.c ****          * the final AHB transaction may or may not complete. To guard against
 241:.\Generated_Source\PSoC4/cyPm.c ****          * accidentally executing an unintended instruction, it is recommended
 242:.\Generated_Source\PSoC4/cyPm.c ****          * to add 2 NOP cycles after the final write to the STOP register.
 243:.\Generated_Source\PSoC4/cyPm.c ****          */
 244:.\Generated_Source\PSoC4/cyPm.c ****         CY_NOP;
 357              		.loc 2 244 0
 358              	@ 244 ".\Generated_Source\PSoC4\cyPm.c" 1
 359 002c C046     		NOP
 360              	
 361              	@ 0 "" 2
 245:.\Generated_Source\PSoC4/cyPm.c ****         CY_NOP;
 362              		.loc 2 245 0
 363              	@ 245 ".\Generated_Source\PSoC4\cyPm.c" 1
 364 002e C046     		NOP
 365              	
 366              	@ 0 "" 2
 246:.\Generated_Source\PSoC4/cyPm.c **** 
 247:.\Generated_Source\PSoC4/cyPm.c ****         /* Should never get to this WFI instruction */
 248:.\Generated_Source\PSoC4/cyPm.c ****         CY_PM_WFI;
 367              		.loc 2 248 0
 368              	@ 248 ".\Generated_Source\PSoC4\cyPm.c" 1
 369 0030 30BF     		WFI 
 370              	
 371              	@ 0 "" 2
 249:.\Generated_Source\PSoC4/cyPm.c **** 
 250:.\Generated_Source\PSoC4/cyPm.c ****         /* Wakeup from Stop is performed by toggling of Wakeup pin,
ARM GAS  C:\Users\DELL\AppData\Local\Temp\ccNoeMp4.s 			page 16


 251:.\Generated_Source\PSoC4/cyPm.c ****          * causing a normal Boot procedure to occur. No need to exit
 252:.\Generated_Source\PSoC4/cyPm.c ****          * from the critical section.
 253:.\Generated_Source\PSoC4/cyPm.c ****          */
 254:.\Generated_Source\PSoC4/cyPm.c ****     }
 372              		.loc 2 254 0
 373              		.code	16
 374 0032 BD46     		mov	sp, r7
 375              		@ sp needed
 376 0034 80BD     		pop	{r7, pc}
 377              	.L15:
 378 0036 C046     		.align	2
 379              	.L14:
 380 0038 2C000B40 		.word	1074462764
 381              		.cfi_endproc
 382              	.LFE6:
 383              		.size	CySysPmStop, .-CySysPmStop
 384              		.section	.text.CySysPmSetWakeupPolarity,"ax",%progbits
 385              		.align	2
 386              		.global	CySysPmSetWakeupPolarity
 387              		.code	16
 388              		.thumb_func
 389              		.type	CySysPmSetWakeupPolarity, %function
 390              	CySysPmSetWakeupPolarity:
 391              	.LFB7:
 255:.\Generated_Source\PSoC4/cyPm.c **** 
 256:.\Generated_Source\PSoC4/cyPm.c **** 
 257:.\Generated_Source\PSoC4/cyPm.c ****     /*******************************************************************************
 258:.\Generated_Source\PSoC4/cyPm.c ****     * Function Name: CySysPmSetWakeupPolarity
 259:.\Generated_Source\PSoC4/cyPm.c ****     ********************************************************************************
 260:.\Generated_Source\PSoC4/cyPm.c ****     *
 261:.\Generated_Source\PSoC4/cyPm.c ****     * Summary:
 262:.\Generated_Source\PSoC4/cyPm.c ****     *  Wake up from the stop mode is performed by toggling the wakeup pin,
 263:.\Generated_Source\PSoC4/cyPm.c ****     *  causing a normal boot procedure to occur. This function assigns
 264:.\Generated_Source\PSoC4/cyPm.c ****     *  the wakeup pin active level. Setting the wakeup pin to this level will cause
 265:.\Generated_Source\PSoC4/cyPm.c ****     *  the wakeup from stop mode. The wakeup pin is active low by default.
 266:.\Generated_Source\PSoC4/cyPm.c ****     *
 267:.\Generated_Source\PSoC4/cyPm.c ****     * Parameters:
 268:.\Generated_Source\PSoC4/cyPm.c ****     *  polarity: Wakeup pin active level:
 269:.\Generated_Source\PSoC4/cyPm.c ****     *   Value    Define                          Level
 270:.\Generated_Source\PSoC4/cyPm.c ****     *    0        CY_PM_STOP_WAKEUP_ACTIVE_LOW    Logical zero will wakeup the chip
 271:.\Generated_Source\PSoC4/cyPm.c ****     *    1        CY_PM_STOP_WAKEUP_ACTIVE_HIGH   Logical one will wakeup the chip
 272:.\Generated_Source\PSoC4/cyPm.c ****     *
 273:.\Generated_Source\PSoC4/cyPm.c ****     * Return:
 274:.\Generated_Source\PSoC4/cyPm.c ****     *  None
 275:.\Generated_Source\PSoC4/cyPm.c ****     *
 276:.\Generated_Source\PSoC4/cyPm.c ****     *******************************************************************************/
 277:.\Generated_Source\PSoC4/cyPm.c ****     void CySysPmSetWakeupPolarity(uint32 polarity)
 278:.\Generated_Source\PSoC4/cyPm.c ****     {
 392              		.loc 2 278 0
 393              		.cfi_startproc
 394 0000 90B5     		push	{r4, r7, lr}
 395              		.cfi_def_cfa_offset 12
 396              		.cfi_offset 4, -12
 397              		.cfi_offset 7, -8
 398              		.cfi_offset 14, -4
 399 0002 85B0     		sub	sp, sp, #20
 400              		.cfi_def_cfa_offset 32
ARM GAS  C:\Users\DELL\AppData\Local\Temp\ccNoeMp4.s 			page 17


 401 0004 00AF     		add	r7, sp, #0
 402              		.cfi_def_cfa_register 7
 403 0006 7860     		str	r0, [r7, #4]
 279:.\Generated_Source\PSoC4/cyPm.c ****         uint8 interruptState;
 280:.\Generated_Source\PSoC4/cyPm.c **** 
 281:.\Generated_Source\PSoC4/cyPm.c ****         interruptState = CyEnterCriticalSection();
 404              		.loc 2 281 0
 405 0008 0F23     		mov	r3, #15
 406 000a FC18     		add	r4, r7, r3
 407 000c FFF7FEFF 		bl	CyEnterCriticalSection
 408 0010 031C     		mov	r3, r0
 409 0012 2370     		strb	r3, [r4]
 282:.\Generated_Source\PSoC4/cyPm.c **** 
 283:.\Generated_Source\PSoC4/cyPm.c ****         CY_PM_PWR_STOP_REG = (CY_PM_STOP_WAKEUP_ACTIVE_LOW != polarity) ?
 410              		.loc 2 283 0
 411 0014 0B4A     		ldr	r2, .L19
 284:.\Generated_Source\PSoC4/cyPm.c ****                             (CY_PM_PWR_STOP_REG | CY_PM_PWR_STOP_POLARITY) :
 412              		.loc 2 284 0
 413 0016 7B68     		ldr	r3, [r7, #4]
 414 0018 002B     		cmp	r3, #0
 415 001a 05D0     		beq	.L17
 416              		.loc 2 284 0 is_stmt 0 discriminator 1
 417 001c 094B     		ldr	r3, .L19
 418 001e 1B68     		ldr	r3, [r3]
 419 0020 8021     		mov	r1, #128
 420 0022 4902     		lsl	r1, r1, #9
 421 0024 0B43     		orr	r3, r1
 422 0026 03E0     		b	.L18
 423              	.L17:
 285:.\Generated_Source\PSoC4/cyPm.c ****                             (CY_PM_PWR_STOP_REG & (uint32) (~CY_PM_PWR_STOP_POLARITY));
 424              		.loc 2 285 0 is_stmt 1 discriminator 2
 425 0028 064B     		ldr	r3, .L19
 426 002a 1B68     		ldr	r3, [r3]
 284:.\Generated_Source\PSoC4/cyPm.c ****                             (CY_PM_PWR_STOP_REG | CY_PM_PWR_STOP_POLARITY) :
 427              		.loc 2 284 0 discriminator 2
 428 002c 0649     		ldr	r1, .L19+4
 429 002e 0B40     		and	r3, r1
 430              	.L18:
 283:.\Generated_Source\PSoC4/cyPm.c ****                             (CY_PM_PWR_STOP_REG | CY_PM_PWR_STOP_POLARITY) :
 431              		.loc 2 283 0
 432 0030 1360     		str	r3, [r2]
 286:.\Generated_Source\PSoC4/cyPm.c **** 
 287:.\Generated_Source\PSoC4/cyPm.c ****         CyExitCriticalSection(interruptState);
 433              		.loc 2 287 0
 434 0032 0F23     		mov	r3, #15
 435 0034 FB18     		add	r3, r7, r3
 436 0036 1B78     		ldrb	r3, [r3]
 437 0038 181C     		mov	r0, r3
 438 003a FFF7FEFF 		bl	CyExitCriticalSection
 288:.\Generated_Source\PSoC4/cyPm.c ****     }
 439              		.loc 2 288 0
 440 003e BD46     		mov	sp, r7
 441 0040 05B0     		add	sp, sp, #20
 442              		@ sp needed
 443 0042 90BD     		pop	{r4, r7, pc}
 444              	.L20:
 445              		.align	2
ARM GAS  C:\Users\DELL\AppData\Local\Temp\ccNoeMp4.s 			page 18


 446              	.L19:
 447 0044 2C000B40 		.word	1074462764
 448 0048 FFFFFEFF 		.word	-65537
 449              		.cfi_endproc
 450              	.LFE7:
 451              		.size	CySysPmSetWakeupPolarity, .-CySysPmSetWakeupPolarity
 452              		.section	.text.CySysPmGetResetReason,"ax",%progbits
 453              		.align	2
 454              		.global	CySysPmGetResetReason
 455              		.code	16
 456              		.thumb_func
 457              		.type	CySysPmGetResetReason, %function
 458              	CySysPmGetResetReason:
 459              	.LFB8:
 289:.\Generated_Source\PSoC4/cyPm.c **** 
 290:.\Generated_Source\PSoC4/cyPm.c **** 
 291:.\Generated_Source\PSoC4/cyPm.c ****     /*******************************************************************************
 292:.\Generated_Source\PSoC4/cyPm.c ****     * Function Name: CySysPmGetResetReason
 293:.\Generated_Source\PSoC4/cyPm.c ****     ********************************************************************************
 294:.\Generated_Source\PSoC4/cyPm.c ****     *
 295:.\Generated_Source\PSoC4/cyPm.c ****     * Summary:
 296:.\Generated_Source\PSoC4/cyPm.c ****     *  Retrieves the last reset reason - transition from OFF/XRES/STOP/HIBERNATE to
 297:.\Generated_Source\PSoC4/cyPm.c ****     *  the RESET state. Note that waking up from STOP using XRES will be perceived
 298:.\Generated_Source\PSoC4/cyPm.c ****     *  as a general RESET.
 299:.\Generated_Source\PSoC4/cyPm.c ****     *
 300:.\Generated_Source\PSoC4/cyPm.c ****     * Parameters:
 301:.\Generated_Source\PSoC4/cyPm.c ****     *  None
 302:.\Generated_Source\PSoC4/cyPm.c ****     *
 303:.\Generated_Source\PSoC4/cyPm.c ****     * Return:
 304:.\Generated_Source\PSoC4/cyPm.c ****     *  Reset reason.
 305:.\Generated_Source\PSoC4/cyPm.c ****     *  CY_PM_RESET_REASON_UNKN        - unknown
 306:.\Generated_Source\PSoC4/cyPm.c ****     *  CY_PM_RESET_REASON_XRES        - transition from OFF/XRES to RESET
 307:.\Generated_Source\PSoC4/cyPm.c ****     *  CY_PM_RESET_REASON_WAKEUP_HIB  - transition/wakeup from HIBERNATE to RESET
 308:.\Generated_Source\PSoC4/cyPm.c ****     *  CY_PM_RESET_REASON_WAKEUP_STOP - transition/wakeup from STOP to RESET
 309:.\Generated_Source\PSoC4/cyPm.c ****     *
 310:.\Generated_Source\PSoC4/cyPm.c ****     *******************************************************************************/
 311:.\Generated_Source\PSoC4/cyPm.c ****     uint32 CySysPmGetResetReason(void)
 312:.\Generated_Source\PSoC4/cyPm.c ****     {
 460              		.loc 2 312 0
 461              		.cfi_startproc
 462 0000 80B5     		push	{r7, lr}
 463              		.cfi_def_cfa_offset 8
 464              		.cfi_offset 7, -8
 465              		.cfi_offset 14, -4
 466 0002 82B0     		sub	sp, sp, #8
 467              		.cfi_def_cfa_offset 16
 468 0004 00AF     		add	r7, sp, #0
 469              		.cfi_def_cfa_register 7
 313:.\Generated_Source\PSoC4/cyPm.c ****         uint32 reason = CY_PM_RESET_REASON_UNKN;
 470              		.loc 2 313 0
 471 0006 0023     		mov	r3, #0
 472 0008 7B60     		str	r3, [r7, #4]
 314:.\Generated_Source\PSoC4/cyPm.c **** 
 315:.\Generated_Source\PSoC4/cyPm.c ****         switch(CY_PM_PWR_STOP_REG & CY_PM_PWR_STOP_TOKEN_MASK)
 473              		.loc 2 315 0
 474 000a 0C4B     		ldr	r3, .L28
 475 000c 1B68     		ldr	r3, [r3]
ARM GAS  C:\Users\DELL\AppData\Local\Temp\ccNoeMp4.s 			page 19


 476 000e FF22     		mov	r2, #255
 477 0010 1340     		and	r3, r2
 478 0012 F12B     		cmp	r3, #241
 479 0014 07D0     		beq	.L23
 480 0016 F22B     		cmp	r3, #242
 481 0018 08D0     		beq	.L24
 482 001a 002B     		cmp	r3, #0
 483 001c 00D0     		beq	.L25
 316:.\Generated_Source\PSoC4/cyPm.c ****         {
 317:.\Generated_Source\PSoC4/cyPm.c ****         /* Power up, XRES */
 318:.\Generated_Source\PSoC4/cyPm.c ****         case CY_PM_PWR_STOP_TOKEN_XRES:
 319:.\Generated_Source\PSoC4/cyPm.c ****             reason = CY_PM_RESET_REASON_XRES;
 320:.\Generated_Source\PSoC4/cyPm.c ****             break;
 321:.\Generated_Source\PSoC4/cyPm.c **** 
 322:.\Generated_Source\PSoC4/cyPm.c ****         /* Wakeup from Hibernate */
 323:.\Generated_Source\PSoC4/cyPm.c ****         case CY_PM_PWR_STOP_TOKEN_HIB:
 324:.\Generated_Source\PSoC4/cyPm.c ****             reason = CY_PM_RESET_REASON_WAKEUP_HIB;
 325:.\Generated_Source\PSoC4/cyPm.c ****             break;
 326:.\Generated_Source\PSoC4/cyPm.c **** 
 327:.\Generated_Source\PSoC4/cyPm.c ****         /* Wakeup from Stop (through WAKEUP pin assert) */
 328:.\Generated_Source\PSoC4/cyPm.c ****         case CY_PM_PWR_STOP_TOKEN_STOP:
 329:.\Generated_Source\PSoC4/cyPm.c ****             reason = CY_PM_RESET_REASON_WAKEUP_STOP;
 330:.\Generated_Source\PSoC4/cyPm.c ****             break;
 331:.\Generated_Source\PSoC4/cyPm.c **** 
 332:.\Generated_Source\PSoC4/cyPm.c ****         /* Unknown reason */
 333:.\Generated_Source\PSoC4/cyPm.c ****         default:
 334:.\Generated_Source\PSoC4/cyPm.c ****             break;
 484              		.loc 2 334 0
 485 001e 08E0     		b	.L26
 486              	.L25:
 319:.\Generated_Source\PSoC4/cyPm.c ****             break;
 487              		.loc 2 319 0
 488 0020 0123     		mov	r3, #1
 489 0022 7B60     		str	r3, [r7, #4]
 320:.\Generated_Source\PSoC4/cyPm.c **** 
 490              		.loc 2 320 0
 491 0024 05E0     		b	.L26
 492              	.L23:
 324:.\Generated_Source\PSoC4/cyPm.c ****             break;
 493              		.loc 2 324 0
 494 0026 0223     		mov	r3, #2
 495 0028 7B60     		str	r3, [r7, #4]
 325:.\Generated_Source\PSoC4/cyPm.c **** 
 496              		.loc 2 325 0
 497 002a 02E0     		b	.L26
 498              	.L24:
 329:.\Generated_Source\PSoC4/cyPm.c ****             break;
 499              		.loc 2 329 0
 500 002c 0323     		mov	r3, #3
 501 002e 7B60     		str	r3, [r7, #4]
 330:.\Generated_Source\PSoC4/cyPm.c **** 
 502              		.loc 2 330 0
 503 0030 C046     		mov	r8, r8
 504              	.L26:
 335:.\Generated_Source\PSoC4/cyPm.c ****         }
 336:.\Generated_Source\PSoC4/cyPm.c **** 
 337:.\Generated_Source\PSoC4/cyPm.c ****         return (reason);
ARM GAS  C:\Users\DELL\AppData\Local\Temp\ccNoeMp4.s 			page 20


 505              		.loc 2 337 0
 506 0032 7B68     		ldr	r3, [r7, #4]
 338:.\Generated_Source\PSoC4/cyPm.c ****     }
 507              		.loc 2 338 0
 508 0034 181C     		mov	r0, r3
 509 0036 BD46     		mov	sp, r7
 510 0038 02B0     		add	sp, sp, #8
 511              		@ sp needed
 512 003a 80BD     		pop	{r7, pc}
 513              	.L29:
 514              		.align	2
 515              	.L28:
 516 003c 2C000B40 		.word	1074462764
 517              		.cfi_endproc
 518              	.LFE8:
 519              		.size	CySysPmGetResetReason, .-CySysPmGetResetReason
 520              		.section	.text.CySysPmFreezeIo,"ax",%progbits
 521              		.align	2
 522              		.global	CySysPmFreezeIo
 523              		.code	16
 524              		.thumb_func
 525              		.type	CySysPmFreezeIo, %function
 526              	CySysPmFreezeIo:
 527              	.LFB9:
 339:.\Generated_Source\PSoC4/cyPm.c **** 
 340:.\Generated_Source\PSoC4/cyPm.c **** 
 341:.\Generated_Source\PSoC4/cyPm.c ****     /*******************************************************************************
 342:.\Generated_Source\PSoC4/cyPm.c ****     * Function Name: CySysPmFreezeIo
 343:.\Generated_Source\PSoC4/cyPm.c ****     ********************************************************************************
 344:.\Generated_Source\PSoC4/cyPm.c ****     *
 345:.\Generated_Source\PSoC4/cyPm.c ****     * Summary:
 346:.\Generated_Source\PSoC4/cyPm.c ****     *  Freezes IO-Cells directly to save the IO-Cell state on wake up from the
 347:.\Generated_Source\PSoC4/cyPm.c ****     *  Hibernate or Stop state. It is not required to call this function before
 348:.\Generated_Source\PSoC4/cyPm.c ****     *  entering the Stop mode, since CySysPmStop() function freezes IO-Cells
 349:.\Generated_Source\PSoC4/cyPm.c ****     *  implicitly.
 350:.\Generated_Source\PSoC4/cyPm.c ****     *
 351:.\Generated_Source\PSoC4/cyPm.c ****     * Parameters:
 352:.\Generated_Source\PSoC4/cyPm.c ****     *  None
 353:.\Generated_Source\PSoC4/cyPm.c ****     *
 354:.\Generated_Source\PSoC4/cyPm.c ****     * Return:
 355:.\Generated_Source\PSoC4/cyPm.c ****     *  None
 356:.\Generated_Source\PSoC4/cyPm.c ****     *
 357:.\Generated_Source\PSoC4/cyPm.c ****     *******************************************************************************/
 358:.\Generated_Source\PSoC4/cyPm.c ****     void CySysPmFreezeIo(void)
 359:.\Generated_Source\PSoC4/cyPm.c ****     {
 528              		.loc 2 359 0
 529              		.cfi_startproc
 530 0000 90B5     		push	{r4, r7, lr}
 531              		.cfi_def_cfa_offset 12
 532              		.cfi_offset 4, -12
 533              		.cfi_offset 7, -8
 534              		.cfi_offset 14, -4
 535 0002 83B0     		sub	sp, sp, #12
 536              		.cfi_def_cfa_offset 24
 537 0004 00AF     		add	r7, sp, #0
 538              		.cfi_def_cfa_register 7
 360:.\Generated_Source\PSoC4/cyPm.c ****         uint8 interruptState;
ARM GAS  C:\Users\DELL\AppData\Local\Temp\ccNoeMp4.s 			page 21


 361:.\Generated_Source\PSoC4/cyPm.c **** 
 362:.\Generated_Source\PSoC4/cyPm.c ****         interruptState = CyEnterCriticalSection();
 539              		.loc 2 362 0
 540 0006 FC1D     		add	r4, r7, #7
 541 0008 FFF7FEFF 		bl	CyEnterCriticalSection
 542 000c 031C     		mov	r3, r0
 543 000e 2370     		strb	r3, [r4]
 363:.\Generated_Source\PSoC4/cyPm.c **** 
 364:.\Generated_Source\PSoC4/cyPm.c ****         /* Check FREEZE state to avoid recurrent IO-Cells freeze attempt,
 365:.\Generated_Source\PSoC4/cyPm.c ****          * since the second call to this function will cause accidental switch
 366:.\Generated_Source\PSoC4/cyPm.c ****          * to the STOP mode (the system will enter STOP mode immediately after
 367:.\Generated_Source\PSoC4/cyPm.c ****          * writing to STOP bit since both UNLOCK and FREEZE have been set correctly
 368:.\Generated_Source\PSoC4/cyPm.c ****          * in a previous call to this function).
 369:.\Generated_Source\PSoC4/cyPm.c ****          */
 370:.\Generated_Source\PSoC4/cyPm.c ****         if (0u == (CY_PM_PWR_STOP_REG & CY_PM_PWR_STOP_FREEZE))
 544              		.loc 2 370 0
 545 0010 0E4B     		ldr	r3, .L32
 546 0012 1A68     		ldr	r2, [r3]
 547 0014 8023     		mov	r3, #128
 548 0016 9B02     		lsl	r3, r3, #10
 549 0018 1340     		and	r3, r2
 550 001a 0FD1     		bne	.L31
 371:.\Generated_Source\PSoC4/cyPm.c ****         {
 372:.\Generated_Source\PSoC4/cyPm.c ****             /* Preserve last reset reason and disable overrides the next freeze command by peripher
 373:.\Generated_Source\PSoC4/cyPm.c ****             CY_PM_PWR_STOP_REG = CY_PM_PWR_STOP_STOP | CY_PM_PWR_STOP_FREEZE | CY_PM_PWR_STOP_UNLOC
 551              		.loc 2 373 0
 552 001c 0B4B     		ldr	r3, .L32
 374:.\Generated_Source\PSoC4/cyPm.c ****                                 (CY_PM_PWR_STOP_REG & (CY_PM_PWR_STOP_TOKEN_MASK | CY_PM_PWR_STOP_P
 553              		.loc 2 374 0
 554 001e 0B4A     		ldr	r2, .L32
 555 0020 1268     		ldr	r2, [r2]
 556 0022 0B49     		ldr	r1, .L32+4
 557 0024 0A40     		and	r2, r1
 373:.\Generated_Source\PSoC4/cyPm.c ****                                 (CY_PM_PWR_STOP_REG & (CY_PM_PWR_STOP_TOKEN_MASK | CY_PM_PWR_STOP_P
 558              		.loc 2 373 0
 559 0026 0B49     		ldr	r1, .L32+8
 560 0028 0A43     		orr	r2, r1
 561 002a 1A60     		str	r2, [r3]
 375:.\Generated_Source\PSoC4/cyPm.c **** 
 376:.\Generated_Source\PSoC4/cyPm.c ****             /* If reading after writing, read this register three times to delay
 377:.\Generated_Source\PSoC4/cyPm.c ****             *  enough time for internal settling.
 378:.\Generated_Source\PSoC4/cyPm.c ****             */
 379:.\Generated_Source\PSoC4/cyPm.c ****             (void) CY_PM_PWR_STOP_REG;
 562              		.loc 2 379 0
 563 002c 074B     		ldr	r3, .L32
 564 002e 1B68     		ldr	r3, [r3]
 380:.\Generated_Source\PSoC4/cyPm.c ****             (void) CY_PM_PWR_STOP_REG;
 565              		.loc 2 380 0
 566 0030 064B     		ldr	r3, .L32
 567 0032 1B68     		ldr	r3, [r3]
 381:.\Generated_Source\PSoC4/cyPm.c **** 
 382:.\Generated_Source\PSoC4/cyPm.c ****             /* Second write causes the freeze of IO-Cells to save IO-Cell state */
 383:.\Generated_Source\PSoC4/cyPm.c ****             CY_PM_PWR_STOP_REG = CY_PM_PWR_STOP_REG;
 568              		.loc 2 383 0
 569 0034 054B     		ldr	r3, .L32
 570 0036 054A     		ldr	r2, .L32
 571 0038 1268     		ldr	r2, [r2]
ARM GAS  C:\Users\DELL\AppData\Local\Temp\ccNoeMp4.s 			page 22


 572 003a 1A60     		str	r2, [r3]
 573              	.L31:
 384:.\Generated_Source\PSoC4/cyPm.c ****         }
 385:.\Generated_Source\PSoC4/cyPm.c **** 
 386:.\Generated_Source\PSoC4/cyPm.c ****         CyExitCriticalSection(interruptState);
 574              		.loc 2 386 0
 575 003c FB1D     		add	r3, r7, #7
 576 003e 1B78     		ldrb	r3, [r3]
 577 0040 181C     		mov	r0, r3
 578 0042 FFF7FEFF 		bl	CyExitCriticalSection
 387:.\Generated_Source\PSoC4/cyPm.c ****     }
 579              		.loc 2 387 0
 580 0046 BD46     		mov	sp, r7
 581 0048 03B0     		add	sp, sp, #12
 582              		@ sp needed
 583 004a 90BD     		pop	{r4, r7, pc}
 584              	.L33:
 585              		.align	2
 586              	.L32:
 587 004c 2C000B40 		.word	1074462764
 588 0050 FF000100 		.word	65791
 589 0054 003A0280 		.word	-2147337728
 590              		.cfi_endproc
 591              	.LFE9:
 592              		.size	CySysPmFreezeIo, .-CySysPmFreezeIo
 593              		.section	.text.CySysPmUnfreezeIo,"ax",%progbits
 594              		.align	2
 595              		.global	CySysPmUnfreezeIo
 596              		.code	16
 597              		.thumb_func
 598              		.type	CySysPmUnfreezeIo, %function
 599              	CySysPmUnfreezeIo:
 600              	.LFB10:
 388:.\Generated_Source\PSoC4/cyPm.c **** 
 389:.\Generated_Source\PSoC4/cyPm.c **** 
 390:.\Generated_Source\PSoC4/cyPm.c ****     /*******************************************************************************
 391:.\Generated_Source\PSoC4/cyPm.c ****     * Function Name: CySysPmUnfreezeIo
 392:.\Generated_Source\PSoC4/cyPm.c ****     ********************************************************************************
 393:.\Generated_Source\PSoC4/cyPm.c ****     *
 394:.\Generated_Source\PSoC4/cyPm.c ****     * Summary:
 395:.\Generated_Source\PSoC4/cyPm.c ****     *  The IO-Cells remain frozen after awake from Hibernate or Stop mode until
 396:.\Generated_Source\PSoC4/cyPm.c ****     *  the firmware unfreezes them after booting. The call of this function
 397:.\Generated_Source\PSoC4/cyPm.c ****     *  unfreezes IO-Cells explicitly.
 398:.\Generated_Source\PSoC4/cyPm.c ****     *
 399:.\Generated_Source\PSoC4/cyPm.c ****     *  If the firmware intent is to retain the data value on the port, then the
 400:.\Generated_Source\PSoC4/cyPm.c ****     *  value must be read and re-written to the data register before calling this
 401:.\Generated_Source\PSoC4/cyPm.c ****     *  API. Furthermore, the drive mode must be re-programmed.  If this is not done,
 402:.\Generated_Source\PSoC4/cyPm.c ****     *  the pin state will change to default state the moment the freeze is removed.
 403:.\Generated_Source\PSoC4/cyPm.c ****     *
 404:.\Generated_Source\PSoC4/cyPm.c ****     *  This API is not available for PSoC 4000 family of devices.
 405:.\Generated_Source\PSoC4/cyPm.c ****     *
 406:.\Generated_Source\PSoC4/cyPm.c ****     * Parameters:
 407:.\Generated_Source\PSoC4/cyPm.c ****     *  None
 408:.\Generated_Source\PSoC4/cyPm.c ****     *
 409:.\Generated_Source\PSoC4/cyPm.c ****     * Return:
 410:.\Generated_Source\PSoC4/cyPm.c ****     *  None
 411:.\Generated_Source\PSoC4/cyPm.c ****     *
ARM GAS  C:\Users\DELL\AppData\Local\Temp\ccNoeMp4.s 			page 23


 412:.\Generated_Source\PSoC4/cyPm.c ****     *******************************************************************************/
 413:.\Generated_Source\PSoC4/cyPm.c ****     void CySysPmUnfreezeIo(void)
 414:.\Generated_Source\PSoC4/cyPm.c ****     {
 601              		.loc 2 414 0
 602              		.cfi_startproc
 603 0000 90B5     		push	{r4, r7, lr}
 604              		.cfi_def_cfa_offset 12
 605              		.cfi_offset 4, -12
 606              		.cfi_offset 7, -8
 607              		.cfi_offset 14, -4
 608 0002 83B0     		sub	sp, sp, #12
 609              		.cfi_def_cfa_offset 24
 610 0004 00AF     		add	r7, sp, #0
 611              		.cfi_def_cfa_register 7
 415:.\Generated_Source\PSoC4/cyPm.c ****         uint8 interruptState;
 416:.\Generated_Source\PSoC4/cyPm.c **** 
 417:.\Generated_Source\PSoC4/cyPm.c ****         interruptState = CyEnterCriticalSection();
 612              		.loc 2 417 0
 613 0006 FC1D     		add	r4, r7, #7
 614 0008 FFF7FEFF 		bl	CyEnterCriticalSection
 615 000c 031C     		mov	r3, r0
 616 000e 2370     		strb	r3, [r4]
 418:.\Generated_Source\PSoC4/cyPm.c **** 
 419:.\Generated_Source\PSoC4/cyPm.c ****         /* Preserve last reset reason and wakeup polarity. Then, unfreeze I/O:
 420:.\Generated_Source\PSoC4/cyPm.c ****          * write PWR_STOP.FREEZE=0, .UNLOCK=0x3A, .STOP=0, .TOKEN
 421:.\Generated_Source\PSoC4/cyPm.c ****          */
 422:.\Generated_Source\PSoC4/cyPm.c ****         CY_PM_PWR_STOP_REG = CY_PM_PWR_STOP_UNLOCK |
 617              		.loc 2 422 0
 618 0010 0D4B     		ldr	r3, .L35
 423:.\Generated_Source\PSoC4/cyPm.c ****                             (CY_PM_PWR_STOP_REG & (CY_PM_PWR_STOP_TOKEN_MASK | CY_PM_PWR_STOP_POLAR
 619              		.loc 2 423 0
 620 0012 0D4A     		ldr	r2, .L35
 621 0014 1268     		ldr	r2, [r2]
 622 0016 0D49     		ldr	r1, .L35+4
 623 0018 0A40     		and	r2, r1
 422:.\Generated_Source\PSoC4/cyPm.c ****                             (CY_PM_PWR_STOP_REG & (CY_PM_PWR_STOP_TOKEN_MASK | CY_PM_PWR_STOP_POLAR
 624              		.loc 2 422 0
 625 001a E821     		mov	r1, #232
 626 001c 8901     		lsl	r1, r1, #6
 627 001e 0A43     		orr	r2, r1
 628 0020 1A60     		str	r2, [r3]
 424:.\Generated_Source\PSoC4/cyPm.c **** 
 425:.\Generated_Source\PSoC4/cyPm.c ****         /* If reading after writing, read this register three times to delay
 426:.\Generated_Source\PSoC4/cyPm.c ****         *  enough time for internal settling.
 427:.\Generated_Source\PSoC4/cyPm.c ****         */
 428:.\Generated_Source\PSoC4/cyPm.c ****         (void) CY_PM_PWR_STOP_REG;
 629              		.loc 2 428 0
 630 0022 094B     		ldr	r3, .L35
 631 0024 1B68     		ldr	r3, [r3]
 429:.\Generated_Source\PSoC4/cyPm.c ****         (void) CY_PM_PWR_STOP_REG;
 632              		.loc 2 429 0
 633 0026 084B     		ldr	r3, .L35
 634 0028 1B68     		ldr	r3, [r3]
 430:.\Generated_Source\PSoC4/cyPm.c **** 
 431:.\Generated_Source\PSoC4/cyPm.c ****         /* Lock STOP mode: write PWR_STOP.FREEZE=0, UNLOCK=0x00, STOP=0, .TOKEN */
 432:.\Generated_Source\PSoC4/cyPm.c ****         CY_PM_PWR_STOP_REG &= (CY_PM_PWR_STOP_TOKEN_MASK | CY_PM_PWR_STOP_POLARITY);
 635              		.loc 2 432 0
ARM GAS  C:\Users\DELL\AppData\Local\Temp\ccNoeMp4.s 			page 24


 636 002a 074B     		ldr	r3, .L35
 637 002c 064A     		ldr	r2, .L35
 638 002e 1268     		ldr	r2, [r2]
 639 0030 0649     		ldr	r1, .L35+4
 640 0032 0A40     		and	r2, r1
 641 0034 1A60     		str	r2, [r3]
 433:.\Generated_Source\PSoC4/cyPm.c **** 
 434:.\Generated_Source\PSoC4/cyPm.c ****         CyExitCriticalSection(interruptState);
 642              		.loc 2 434 0
 643 0036 FB1D     		add	r3, r7, #7
 644 0038 1B78     		ldrb	r3, [r3]
 645 003a 181C     		mov	r0, r3
 646 003c FFF7FEFF 		bl	CyExitCriticalSection
 435:.\Generated_Source\PSoC4/cyPm.c ****     }
 647              		.loc 2 435 0
 648 0040 BD46     		mov	sp, r7
 649 0042 03B0     		add	sp, sp, #12
 650              		@ sp needed
 651 0044 90BD     		pop	{r4, r7, pc}
 652              	.L36:
 653 0046 C046     		.align	2
 654              	.L35:
 655 0048 2C000B40 		.word	1074462764
 656 004c FF000100 		.word	65791
 657              		.cfi_endproc
 658              	.LFE10:
 659              		.size	CySysPmUnfreezeIo, .-CySysPmUnfreezeIo
 660              		.text
 661              	.Letext0:
 662              		.file 3 ".\\Generated_Source\\PSoC4\\cytypes.h"
