:400000000010002011000000B1030000B103000080B500AF00F0D0F980B584B000AF021CFB1D1A70224A3B1C0B3312781A70214A3B1C0A3312781A701F4B1B68013BFB60F6
:400040001AE01E4B1868391C0B31FA68131C5B009B18C31801331B780B70184B1868391C0A31FA68131C5B009B18C31802331B780B70FB68013BFB60FB68002B0ADB0F4B59
:400080001968FA68131C5B009B185B5CFA1D12789A42D6D90A4B3A1C0B3212781A60094B3A1C0A3212781A60BD4604B080BDC046CCF1FF0FCDF1FF0F540F0000D000002083
:4000C0001CFF0B4020FF0B4080B500AF184B184A12688021C9020A431A601820FFF79CFF144B19221A60052000F026FA124B134A1278D2B21A60052000F002FB0C4B0C4AC7
:4001000011680F4A0A401A600E4B10221A600E4B10221A600D4B802212061A600C4B802212061A600B4B0C4A1A60BD4680BDC04600010B402CFF0B4028FF0B40E5F1FF0F84
:40014000FFFFFBFF080202400C02024008010B4004010B40000002400300008080B582B000AF72B6FB1D00221A7023E0FB1D1A78131C5B009B185B00264A9B183B603B68DA
:400180001A78597809020A43997809040A43DB781B0613431A1C3B6819795B791B020B439BB2101C191C00F08BF9FB1DFA1D127801321A70FB1D1B78012BD7D9164B174AC4
:4001C0001A60174BC02252031A60164B03221A60154B164A1A60164B992212041A60154B992212041A60144B134A1278D2B202210A43D2B21A70104B0F4A1278D2B20621B0
:400200000A43D2B21A70FFF75FFF00F069F9BD4602B080BD480F00000C000140EEEE0000080104400003044008030440A40D000010500F4030500F4000700F4010B5064C63
:400240002378002B07D10548002802D0044800E000BF0121217010BDE800002000000000440F000008B5084B002B03D00748084900E000BF07480168002903D0064A002A58
:4002800000D0904708BDC04600000000440F0000EC000020C80000200000000090B583B000AFFB1DFF221A70012000F01DF9FA239B00181C00F000FA002000F015F9FA2363
:4002C0009B00181C00F0F8F9012000F00DF9FA239B00181C00F0F0F9002000F005F9FA239B00181C00F0E8F91F4B181C032100F007FB1E4B181C032100F022FB00F02AFA11
:4003000062B600E0C04600F0BDFA021C102313401FD000F02FFB031C032B0FD1134B1B78012B0BD1114B9B78172B07D10F4B5B78FC1D181C00F01CF8031C237000F02EFB73
:4003400000F0C4FA084BFA1D12785A70FB1DFF221A7000F097FA021C01231340D2D000F013FB00F099FACDE7CC0000200C01002080B584B000AF78603B1C0F3300221A7013
:400380007B68302B05D0312B07D1012000F0ACF807E0002000F0A8F803E0002000F0A4F8C0463B1C0F331B78181CBD4604B080BD80B500AFFEE7C04680B586B000AF254B68
:4003C0007B61254B3B61234B7B61234B3B6132E03B691B68FB603B695B68BB603B699B683B6000237B600CE0FB681A68BB681A60BB680433BB60FB680433FB607B68043379
:400400007B607A683B689A42EED13B69DB683B6000237B6008E0BB6800221A60BB680433BB607B6804337B607A683B689A42F2D13B6910333B617B695A1E9341DBB27A69E9
:40044000013A7A61002BC3D100F04CFDFFF726FFFEE7C046010000007C0F000080B582B000AF00237B600FE07B68032B04D8104B7A689200D35800E00E4B0F4A79688900F6
:400480008B507B6801337B607B682F2BECD9FFF765FE0A4B00221A608023DB058022D205126801210A431A60BD4602B080BDC04600000000B103000000000020C000002018
:4004C00080B582B000AF786039607A683B68101C00211A1C00F02CFDBD4602B080BDC04680B500AFBD4680BD80B584B000AF021CFB1D1A700E4B1B68DAB23B1C0F334021FE
:400500008A431A70FB1D1B789B01DAB240231340D9B23B1C0F333A1C0F3212780A431A70034B3A1C0F3212781A60BD4604B080BD00010440000000000230800804D0C04609
:400540000138FDD1C046C0467047EFF3108072B6704780F31088704780B584B000AF021C3960FB1D1A7080239B05FB60FB1D1B781F2B02D9002000F095F8FB1D1B78103334
:400580009B00FA68D3181B68BB60FB1D1B7810339B00FA68D3183A681A60BB68181CBD4604B080BD90B587B000AF0A1CFB1D011C1970BB1D1A70BB1D1B78032B02D9002073
:4005C00000F070F8FB1D1B781F2B02D9002000F069F8FB1D1A7803231340DB0006337B613C1C1334FFF7B1FF031C2370FB1D1B789B08DBB29B0014495B181B68FB607B6950
:400600000322111C99400B1CDA43FB681340FB60BB1D1A787B69111C99400B1CFA681343FB60FB1D1B789B08DBB29B00064A9B18FA681A603B1C13331B78181CFFF789FF75
:40064000BD4607B090BDC04600E400E080B582B000AF021CFB1D1A70064BFA1D11781F220A400121081C9040021C1A60BD4602B080BDC04600E100E080B582B000AF021CBC
:40068000FB1D1A70064BFA1D11781F220A400121081C9040021C1A60BD4602B080BDC04680E100E080B582B000AF021CFB1D1A7001BEBD4602B080BD80B582B000AF7860C0
:4006C00008E00C4B1B68181CFFF736FF7B680A4A9B187B607A6880231B029A42F1D8074B1B687A685343181CFFF726FFBD4602B080BDC046E00000200080FFFFD8000020C3
:4007000080B582B000AF021CBB1D1A80BB1D1B88044A12785343181CFFF70EFFBD4602B080BDC046DC00002080B500AF00F02CF8BD4680BD80B500AF054B054A1268802129
:4007400009060A431A6000F017F8BD4680BDC0460000074080B500AF064B1B78002B04D1FFF7E2FF034B01221A70FFF7E3FFBD4680BDC0460401002080B500AF0B20FFF735
:4007800065FFBD4680BDC04680B500AF244B00221A60244B244A1A60244B244A12680C210A431A60224B234A1A60234B00221A60224B234A1A60234B234A1A60234B002267
:4007C0001A600B20FFF758FF0B200321FFF7EAFE1F4B0B20191CFFF7BFFE1E4B00221A601D4B00221A601D4B1D4A1A601D4B00221A601D4B00221A601C4B00221A601C4B99
:4008000010221A701B4B00221A701B4B00221A601A4B00221A601A4B00221A70BD4680BD0000074060000740770800407000074000030740070300800403074010030740B6
:400840001000FE00000207400701008004020740B1090000C80E0740880E0740480F07404B010000080F0740C80F0740880F07400F01002024010020100100201401002079
:400880003001002080B500AF024B1B78DBB2181CBD4680BD2401002080B582B000AF0A4B1B78DBB21A1C0F2313407B60064B1B78DBB20D229343DAB2034B1A707B68181CCB
:4008C000BD4602B080BDC0462401002080B582B000AF0A4B1B78DBB21A1CF02313407B60064B1B78DAB22F231340DAB2034B1A707B68181CBD4602B080BDC04624010020EC
:4009000080B582B000AF786039607B68002B0BD0074B7A681A60074B3A681A60064B00221A60064B00221A60BD4602B080BDC046200100201C010020100100202801002061
:4009400080B582B000AF786039607B68002B08D0054B7A681A60054B3A681A60044B00221A60BD4602B080BD2C010020180100201401002080B500AF024B1B68181CBD466F
:4009800080BDC0461401002080B500AF024B00221A60BD4680BDC0461001002080B500AF024B00221A60BD4680BDC0461401002080B582B000AF00233B60D94B1B68002B8D
:4009C00002D0D74B1B689847D64B1A680123134002D0D54B00221A60D44B1B78DAB220231340DBB2002B31D1D14B1A68D14B13402CD0CE4B1B78DAB201231340DBB2002BFB
:400A000010D0CD4B1B78DBB202229343DAB2CA4B1A70C94B1B78DBB209221343DAB2C64B1A7010E0C44B1B78DBB220229343DAB2C14B1A70C04B1B78DBB27022524213439D
:400A4000DAB2BD4B1A70B94B00221A70B74B1B78DAB220231340DBB2002B00D00FE2B34B1B78DAB210231340DBB2002B00D1D8E1AF4B1A680223134056D0B04B02221A60E0
:400A8000AF4B1A680F231A40AD4B196880231B020B4001D0012300E00023D3187B60A94B1B78DBB21A1C7B689A4208D9A24B1B78DBB204221343DAB29F4B1A700AE0A14BA3
:400AC0001B78DBB21A1C7B68D21A9F4B1B68D2189D4B1A609C4B1A689C4B1A609C4B00221A60984B00221A709A4B9A4A1268802149020A431A60974B964A1168964A0A40E1
:400B00001A608D4B1B78DBB202229343DAB28A4B1A70894B1B78DBB201221343DAB2864B1A70824B10221A70814B1A680823134048D0824B08221A60884B1A6880239B0198
:400B4000134019D00DE0864B1A68864B1B68D218854B1B68DBB21370824B1B685A1C814B1A60824B1A680F231340ECD17B4B7B4A11687F4A0A401A607E4B1A682023134049
:400B800007D06D4B1B78DBB240221343DAB26A4B1A70794B00221A60764B784A1A60664B1B78DBB220229343DAB2634B1A70624B1B78DBB210221343DAB25F4B1A705B4B3E
:400BC00010221A705A4B1A68402313404DD06C4B1A681023134012D05D4B10221A605B4B1A68594B1A60544B1B78DBB202221343DAB2514B1A704D4B11221A702CE0614B0C
:400C00001A68584B1B68D31A7B607B68072B03D8594B04221A6014E07B68082B07D14F4B4E4A1268A02109020A431A6009E04B4B4A4A1268802189010A431A604E4B0822AD
:400C40001A603D4B1B78DBB220221343DAB23A4B1A70364B12221A704B4B01221A60374B4A4A1A604A4B01221A604A4B1A680823134036D0434B1A683A4B1B68D31A083B08
:400C80007B607B68082B04D908237B6000233B6013E001233B6010E0314B1A68314B1B68D218314B1B68DBB213702E4B1B685A1C2C4B1A607B68013B7B607B68002BEBD1E3
:400CC0003B68002B09D0254B244A1268802109020A431A60284B00221A60264B08221A6068E02C4B1A680423134063D01E4B1B687B601C4B1A68234B1B689A424CD2244B66
:400D000001221A60164B1A68164B1B68D3187A68D2B21A70134B1B685A1C124B1A6046E0080100208C0E0740880E07400F0100204C0F07400101000024010020400F07408A
:400D400008020740300100202801002010010020880F074004020740FFFFFEFF600007402C010020140100204003074008030740FF5FFFFFC00F0740C80F0740ED0F0000A0
:400D80006400074018010020800E0740FF0F00006C000740CC0F07403A4B02221A603A4B1B78DBB240221343DAB2374B1A70374B04221A60364B1A68102313405FD026E09F
:400DC000344B1A68344B1B689A420ED2334B344A1168304A12688A181278D2B21A602D4B1B685A1C2B4B1A6011E02C4BFF221A602C4B1B78DAB220231340DBB2002B06D182
:400E0000284B1B78DBB20133DAB2264B1A70264B1A680F231340082BD2D1244B10221A602DE0234B224A1268520052081A60214B10221A70204B204A1168204A0A401A60D0
:400E40001D4B1D4A11681E4A0A401A601D4B00221A601D4B00221A60144B1C4A1A600B4B1B4A1A601B4B1C4A1A601C4B1C4A1A600F4B0F4A1268802109060A431A60BD464E
:400E800002B080BD6C00074024010020C00F07408C0F0740280100201C01002040020740200100203001002008020740800F0740000007400F01002060000740FF5FFFFF11
:400EC000FFFCFFFFC80F0740880F0740ED0F0000F3070000400F0740FF0F0000000F07401703000070B50E4B0E4D0024E81A85101E1CAC4204D0A100725890470134F8E70D
:400F000000F02AF80849094A0E1C541AA5100024AC4204D0A300F05880470134F8E770BD640F0000640F0000640F00006C0F000000B58218031C934202D019700133FAE74E
:400F400000BD00000000000000300F40000400400F40000404000000F8B5C046F8BC08BC9E467047650200005D040000F8B5C046F8BC08BC9E4670473D020000900F000068
:400F8000C80000202000000050000000000000000000000001FF1700C0F1FF0F00366E01C05D0000180000000000E02E00000000000000000000000000000000000000001B
:400FC00000000000000000000000000000000000000000000000000000000000000000000000000000000000000000000000000000000000000000000000000000000000F1
:4010000000000000000000000000000000000000000000000000000000000000000000000000000000000000000000000000000000000000000000000000000000000000B0
:401040000000000000000000000000000000000000000000000000000000000000000000000000000000000000000000000000000000000000000000000000000000000070
:401080000000000000000000000000000000000000000000000000000000000000000000000000000000000000000000000000000000000000000000000000000000000030
:0200000490303A
:02000000FB679C
:0200000490402A
:200000000000000000000000000000000000000000000000000000000000000000000000E0
:0200000490501A
:0C000000000204C81193110104CD0CFA99
:0200000490600A
:0100000001FE
:00000001FF