ARM GAS  C:\Users\raypa\AppData\Local\Temp\ccMTDWHp.s 			page 1


   1              		.cpu cortex-m0
   2              		.fpu softvfp
   3              		.eabi_attribute 20, 1
   4              		.eabi_attribute 21, 1
   5              		.eabi_attribute 23, 3
   6              		.eabi_attribute 24, 1
   7              		.eabi_attribute 25, 1
   8              		.eabi_attribute 26, 1
   9              		.eabi_attribute 30, 6
  10              		.eabi_attribute 34, 0
  11              		.eabi_attribute 18, 4
  12              		.code	16
  13              		.file	"BLE.c"
  14              		.text
  15              	.Ltext0:
  16              		.cfi_sections	.debug_frame
  17              		.global	cyBle_initVar
  18              		.bss
  19              		.type	cyBle_initVar, %object
  20              		.size	cyBle_initVar, 1
  21              	cyBle_initVar:
  22 0000 00       		.space	1
  23              		.comm	CyBle_ApplCallback,4,4
  24              		.global	cyBle_deviceAddress
  25              		.data
  26              		.align	2
  27              		.type	cyBle_deviceAddress, %object
  28              		.size	cyBle_deviceAddress, 7
  29              	cyBle_deviceAddress:
  30 0000 00       		.byte	0
  31 0001 00       		.byte	0
  32 0002 00       		.byte	0
  33 0003 50       		.byte	80
  34 0004 A0       		.byte	-96
  35 0005 00       		.byte	0
  36 0006 00       		.byte	0
  37              		.global	cyBle_sflashDeviceAddress
  38 0007 00       		.align	2
  39              		.type	cyBle_sflashDeviceAddress, %object
  40              		.size	cyBle_sflashDeviceAddress, 4
  41              	cyBle_sflashDeviceAddress:
  42 0008 00F2FF0F 		.word	268431872
  43              		.global	cyBle_discoveryParam
  44              		.align	2
  45              		.type	cyBle_discoveryParam, %object
  46              		.size	cyBle_discoveryParam, 16
  47              	cyBle_discoveryParam:
  48 000c 2000     		.short	32
  49 000e 3000     		.short	48
  50 0010 00       		.byte	0
  51 0011 00       		.byte	0
  52 0012 00       		.byte	0
  53 0013 00       		.byte	0
  54 0014 00       		.byte	0
  55 0015 00       		.byte	0
  56 0016 50       		.byte	80
  57 0017 A0       		.byte	-96
ARM GAS  C:\Users\raypa\AppData\Local\Temp\ccMTDWHp.s 			page 2


  58 0018 00       		.byte	0
  59 0019 07       		.byte	7
  60 001a 00       		.byte	0
  61 001b 00       		.space	1
  62              		.global	cyBle_discoveryData
  63              		.align	2
  64              		.type	cyBle_discoveryData, %object
  65              		.size	cyBle_discoveryData, 32
  66              	cyBle_discoveryData:
  67 001c 02       		.byte	2
  68 001d 01       		.byte	1
  69 001e 06       		.byte	6
  70 001f 17       		.byte	23
  71 0020 09       		.byte	9
  72 0021 42       		.byte	66
  73 0022 4D       		.byte	77
  74 0023 50       		.byte	80
  75 0024 31       		.byte	49
  76 0025 38       		.byte	56
  77 0026 30       		.byte	48
  78 0027 20       		.byte	32
  79 0028 50       		.byte	80
  80 0029 72       		.byte	114
  81 002a 65       		.byte	101
  82 002b 73       		.byte	115
  83 002c 73       		.byte	115
  84 002d 75       		.byte	117
  85 002e 72       		.byte	114
  86 002f 65       		.byte	101
  87 0030 20       		.byte	32
  88 0031 53       		.byte	83
  89 0032 65       		.byte	101
  90 0033 6E       		.byte	110
  91 0034 73       		.byte	115
  92 0035 6F       		.byte	111
  93 0036 72       		.byte	114
  94 0037 00       		.byte	0
  95 0038 00       		.byte	0
  96 0039 00       		.byte	0
  97 003a 00       		.byte	0
  98 003b 1B       		.byte	27
  99              		.global	cyBle_scanRspData
 100              		.align	2
 101              		.type	cyBle_scanRspData, %object
 102              		.size	cyBle_scanRspData, 32
 103              	cyBle_scanRspData:
 104 003c 11       		.byte	17
 105 003d 07       		.byte	7
 106 003e FB       		.byte	-5
 107 003f 34       		.byte	52
 108 0040 9B       		.byte	-101
 109 0041 5F       		.byte	95
 110 0042 80       		.byte	-128
 111 0043 00       		.byte	0
 112 0044 00       		.byte	0
 113 0045 80       		.byte	-128
 114 0046 00       		.byte	0
ARM GAS  C:\Users\raypa\AppData\Local\Temp\ccMTDWHp.s 			page 3


 115 0047 10       		.byte	16
 116 0048 00       		.byte	0
 117 0049 00       		.byte	0
 118 004a F0       		.byte	-16
 119 004b F0       		.byte	-16
 120 004c 00       		.byte	0
 121 004d 00       		.byte	0
 122 004e 03       		.byte	3
 123 004f 19       		.byte	25
 124 0050 00       		.byte	0
 125 0051 03       		.byte	3
 126 0052 00       		.byte	0
 127 0053 00       		.byte	0
 128 0054 00       		.byte	0
 129 0055 00       		.byte	0
 130 0056 00       		.byte	0
 131 0057 00       		.byte	0
 132 0058 00       		.byte	0
 133 0059 00       		.byte	0
 134 005a 00       		.byte	0
 135 005b 16       		.byte	22
 136              		.global	cyBle_discoveryModeInfo
 137              		.align	2
 138              		.type	cyBle_discoveryModeInfo, %object
 139              		.size	cyBle_discoveryModeInfo, 20
 140              	cyBle_discoveryModeInfo:
 141 005c 02       		.byte	2
 142 005d 000000   		.space	3
 143 0060 00000000 		.word	cyBle_discoveryParam
 144 0064 00000000 		.word	cyBle_discoveryData
 145 0068 00000000 		.word	cyBle_scanRspData
 146 006c 1E00     		.short	30
 147 006e 0000     		.space	2
 148              		.section	.text.CyBle_Init,"ax",%progbits
 149              		.align	2
 150              		.global	CyBle_Init
 151              		.code	16
 152              		.thumb_func
 153              		.type	CyBle_Init, %function
 154              	CyBle_Init:
 155              	.LFB2:
 156              		.file 1 ".\\Generated_Source\\PSoC4\\BLE.c"
   1:.\Generated_Source\PSoC4/BLE.c **** /*******************************************************************************
   2:.\Generated_Source\PSoC4/BLE.c **** File Name: CYBLE.c
   3:.\Generated_Source\PSoC4/BLE.c **** Version 1.10
   4:.\Generated_Source\PSoC4/BLE.c **** 
   5:.\Generated_Source\PSoC4/BLE.c **** Description:
   6:.\Generated_Source\PSoC4/BLE.c ****  This file contains the source code for the Common APIs of the BLE Component.
   7:.\Generated_Source\PSoC4/BLE.c **** 
   8:.\Generated_Source\PSoC4/BLE.c **** ********************************************************************************
   9:.\Generated_Source\PSoC4/BLE.c **** Copyright 2014, Cypress Semiconductor Corporation.  All rights reserved.
  10:.\Generated_Source\PSoC4/BLE.c **** You may use this file only in accordance with the license, terms, conditions,
  11:.\Generated_Source\PSoC4/BLE.c **** disclaimers, and limitations in the end user license agreement accompanying
  12:.\Generated_Source\PSoC4/BLE.c **** the software package with which this file was provided.
  13:.\Generated_Source\PSoC4/BLE.c **** *******************************************************************************/
  14:.\Generated_Source\PSoC4/BLE.c **** 
  15:.\Generated_Source\PSoC4/BLE.c **** #include "BLE_eventHandler.h"
ARM GAS  C:\Users\raypa\AppData\Local\Temp\ccMTDWHp.s 			page 4


  16:.\Generated_Source\PSoC4/BLE.c **** #include "BLE_HAL_PVT.h"
  17:.\Generated_Source\PSoC4/BLE.c **** 
  18:.\Generated_Source\PSoC4/BLE.c **** 
  19:.\Generated_Source\PSoC4/BLE.c **** /***************************************
  20:.\Generated_Source\PSoC4/BLE.c **** ##Function Prototypes
  21:.\Generated_Source\PSoC4/BLE.c **** ***************************************/
  22:.\Generated_Source\PSoC4/BLE.c **** 
  23:.\Generated_Source\PSoC4/BLE.c **** #if(CYBLE_GATT_ROLE_SERVER)
  24:.\Generated_Source\PSoC4/BLE.c ****     #if(CYBLE_GAP_ROLE_PERIPHERAL)
  25:.\Generated_Source\PSoC4/BLE.c ****         static void CyBle_ChangeAdLocalName(const char8 name[], uint8 dest);
  26:.\Generated_Source\PSoC4/BLE.c ****     #endif /* (CYBLE_GAP_ROLE_PERIPHERAL) */
  27:.\Generated_Source\PSoC4/BLE.c **** #endif /* (CYBLE_GATT_ROLE_SERVER) */
  28:.\Generated_Source\PSoC4/BLE.c ****     
  29:.\Generated_Source\PSoC4/BLE.c **** 
  30:.\Generated_Source\PSoC4/BLE.c **** /***************************************
  31:.\Generated_Source\PSoC4/BLE.c **** ##Global Variables
  32:.\Generated_Source\PSoC4/BLE.c **** ***************************************/
  33:.\Generated_Source\PSoC4/BLE.c **** 
  34:.\Generated_Source\PSoC4/BLE.c **** uint8  cyBle_initVar = 0u;
  35:.\Generated_Source\PSoC4/BLE.c **** 
  36:.\Generated_Source\PSoC4/BLE.c **** CYBLE_CALLBACK_T CyBle_ApplCallback;
  37:.\Generated_Source\PSoC4/BLE.c **** 
  38:.\Generated_Source\PSoC4/BLE.c **** CYBLE_GAP_BD_ADDR_T cyBle_deviceAddress = {{0x00u, 0x00u, 0x00u, 0x50u, 0xA0u, 0x00u}, 0x00u };
  39:.\Generated_Source\PSoC4/BLE.c **** CYBLE_GAP_BD_ADDR_T * cyBle_sflashDeviceAddress = CYBLE_SFLASH_DEVICE_ADDRESS_PTR;
  40:.\Generated_Source\PSoC4/BLE.c **** 
  41:.\Generated_Source\PSoC4/BLE.c **** #if(CYBLE_GAP_ROLE_PERIPHERAL || CYBLE_GAP_ROLE_BROADCASTER)
  42:.\Generated_Source\PSoC4/BLE.c **** 
  43:.\Generated_Source\PSoC4/BLE.c **** CYBLE_GAPP_DISC_PARAM_T cyBle_discoveryParam =
  44:.\Generated_Source\PSoC4/BLE.c **** {
  45:.\Generated_Source\PSoC4/BLE.c ****     0x0020u,    /* uint16 advertising_interval_min */
  46:.\Generated_Source\PSoC4/BLE.c ****     0x0030u,    /* uint16 advertising_interval_max */
  47:.\Generated_Source\PSoC4/BLE.c ****     CYBLE_GAPP_CONNECTABLE_UNDIRECTED_ADV, /* uint8 advertising_type */
  48:.\Generated_Source\PSoC4/BLE.c ****     0x00u,      /* uint8 own_addr_type */
  49:.\Generated_Source\PSoC4/BLE.c ****     0x00u,      /* uint8 direct_addr_type */
  50:.\Generated_Source\PSoC4/BLE.c ****     {0x00u, 0x00u, 0x00u, 0x50u, 0xA0u, 0x00u}, /* uint8* direct_addr */
  51:.\Generated_Source\PSoC4/BLE.c ****     0x07u,      /* uint8 advertising_channel_map */
  52:.\Generated_Source\PSoC4/BLE.c ****     0x00u,      /* uint8 advertising_filter_policy */
  53:.\Generated_Source\PSoC4/BLE.c **** };
  54:.\Generated_Source\PSoC4/BLE.c **** 
  55:.\Generated_Source\PSoC4/BLE.c **** CYBLE_GAPP_DISC_DATA_T cyBle_discoveryData =
  56:.\Generated_Source\PSoC4/BLE.c **** {
  57:.\Generated_Source\PSoC4/BLE.c ****     { 0x02u, 0x01u, 0x06u, 0x17u, 0x09u, 0x42u, 0x4Du,
  58:.\Generated_Source\PSoC4/BLE.c ****     0x50u, 0x31u, 0x38u, 0x30u, 0x20u, 0x50u, 0x72u, 0x65u,
  59:.\Generated_Source\PSoC4/BLE.c ****     0x73u, 0x73u, 0x75u, 0x72u, 0x65u, 0x20u, 0x53u, 0x65u,
  60:.\Generated_Source\PSoC4/BLE.c ****     0x6Eu, 0x73u, 0x6Fu, 0x72u, 0x00u, 0x00u, 0x00u, 0x00u }, /* uint8 advertising_data[CYBLE_MAX_A
  61:.\Generated_Source\PSoC4/BLE.c ****     0x1Bu,      /* uint8 adv_data_length */
  62:.\Generated_Source\PSoC4/BLE.c **** };
  63:.\Generated_Source\PSoC4/BLE.c **** 
  64:.\Generated_Source\PSoC4/BLE.c **** CYBLE_GAPP_SCAN_RSP_DATA_T cyBle_scanRspData =
  65:.\Generated_Source\PSoC4/BLE.c **** {
  66:.\Generated_Source\PSoC4/BLE.c ****     { 0x11u, 0x07u, 0xFBu, 0x34u, 0x9Bu, 0x5Fu, 0x80u,
  67:.\Generated_Source\PSoC4/BLE.c ****     0x00u, 0x00u, 0x80u, 0x00u, 0x10u, 0x00u, 0x00u, 0xF0u,
  68:.\Generated_Source\PSoC4/BLE.c ****     0xF0u, 0x00u, 0x00u, 0x03u, 0x19u, 0x00u, 0x03u, 0x00u,
  69:.\Generated_Source\PSoC4/BLE.c ****     0x00u, 0x00u, 0x00u, 0x00u, 0x00u, 0x00u, 0x00u, 0x00u }, /* uint8 scan_rsp_data[CYBLE_MAX_SCAN
  70:.\Generated_Source\PSoC4/BLE.c ****     0x16u,      /* uint8 scan_rsp_data_length */
  71:.\Generated_Source\PSoC4/BLE.c **** };
  72:.\Generated_Source\PSoC4/BLE.c **** 
ARM GAS  C:\Users\raypa\AppData\Local\Temp\ccMTDWHp.s 			page 5


  73:.\Generated_Source\PSoC4/BLE.c **** /* This variable of type CYBLE_GAPP_DISC_MODE_INFO_T is present only when 
  74:.\Generated_Source\PSoC4/BLE.c ****    the BLE component is configured for Peripheral GAP role or Central and 
  75:.\Generated_Source\PSoC4/BLE.c ****    Peripheral GAP role. It contains the Advertisement settings and also the 
  76:.\Generated_Source\PSoC4/BLE.c ****    Advertisement and Scan response data parameters entered in the customizer.
  77:.\Generated_Source\PSoC4/BLE.c ****    This variable can be used by advanced users to change Advertisement settings,
  78:.\Generated_Source\PSoC4/BLE.c ****    Advertisement or Scan response data in runtime. 
  79:.\Generated_Source\PSoC4/BLE.c **** */
  80:.\Generated_Source\PSoC4/BLE.c **** CYBLE_GAPP_DISC_MODE_INFO_T cyBle_discoveryModeInfo =
  81:.\Generated_Source\PSoC4/BLE.c **** {
  82:.\Generated_Source\PSoC4/BLE.c ****     0x02u,      /* uint8 discMode */
  83:.\Generated_Source\PSoC4/BLE.c ****     &cyBle_discoveryParam,
  84:.\Generated_Source\PSoC4/BLE.c ****     &cyBle_discoveryData,
  85:.\Generated_Source\PSoC4/BLE.c ****     &cyBle_scanRspData,
  86:.\Generated_Source\PSoC4/BLE.c ****     0x001Eu,    /* uint16 advTo */
  87:.\Generated_Source\PSoC4/BLE.c **** };
  88:.\Generated_Source\PSoC4/BLE.c **** 
  89:.\Generated_Source\PSoC4/BLE.c **** 
  90:.\Generated_Source\PSoC4/BLE.c **** #endif /* CYBLE_GAP_ROLE_PERIPHERAL || CYBLE_GAP_ROLE_BROADCASTER */
  91:.\Generated_Source\PSoC4/BLE.c **** 
  92:.\Generated_Source\PSoC4/BLE.c **** #if(CYBLE_GAP_ROLE_CENTRAL)
  93:.\Generated_Source\PSoC4/BLE.c ****     
  94:.\Generated_Source\PSoC4/BLE.c **** CYBLE_GAPC_CONN_PARAM_T cyBle_connectionParameters;
  95:.\Generated_Source\PSoC4/BLE.c **** 
  96:.\Generated_Source\PSoC4/BLE.c **** /* Connecting timeout is set to 30 seconds in CyBle_Init function. 
  97:.\Generated_Source\PSoC4/BLE.c ****    Not zero value starts timer in CyBle_GapcConnectDevice API.
  98:.\Generated_Source\PSoC4/BLE.c **** */
  99:.\Generated_Source\PSoC4/BLE.c **** uint16 cyBle_connectingTimeout;
 100:.\Generated_Source\PSoC4/BLE.c ****     
 101:.\Generated_Source\PSoC4/BLE.c **** #endif /* CYBLE_GAP_ROLE_CENTRAL */
 102:.\Generated_Source\PSoC4/BLE.c **** 
 103:.\Generated_Source\PSoC4/BLE.c **** #if(CYBLE_GAP_ROLE_CENTRAL || CYBLE_GAP_ROLE_OBSERVER)
 104:.\Generated_Source\PSoC4/BLE.c ****     
 105:.\Generated_Source\PSoC4/BLE.c **** 
 106:.\Generated_Source\PSoC4/BLE.c ****     
 107:.\Generated_Source\PSoC4/BLE.c **** #endif /* CYBLE_GAP_ROLE_CENTRAL || CYBLE_GAP_ROLE_OBSERVER */
 108:.\Generated_Source\PSoC4/BLE.c **** 
 109:.\Generated_Source\PSoC4/BLE.c **** #if((CYBLE_GAP_ROLE_PERIPHERAL || CYBLE_GAP_ROLE_CENTRAL) && (CYBLE_BONDING_REQUIREMENT == CYBLE_BO
 110:.\Generated_Source\PSoC4/BLE.c **** 
 111:.\Generated_Source\PSoC4/BLE.c **** uint8 cyBle_pendingFlashWrite;
 112:.\Generated_Source\PSoC4/BLE.c ****     
 113:.\Generated_Source\PSoC4/BLE.c **** #endif  /* (CYBLE_BONDING_REQUIREMENT == CYBLE_BONDING_YES) */
 114:.\Generated_Source\PSoC4/BLE.c **** 
 115:.\Generated_Source\PSoC4/BLE.c **** 
 116:.\Generated_Source\PSoC4/BLE.c **** /******************************************************************************
 117:.\Generated_Source\PSoC4/BLE.c **** ##Function Name: CyBle_Init
 118:.\Generated_Source\PSoC4/BLE.c **** *******************************************************************************
 119:.\Generated_Source\PSoC4/BLE.c ****  Summary:
 120:.\Generated_Source\PSoC4/BLE.c ****   Initializes the component with the parameters set in the customizer.
 121:.\Generated_Source\PSoC4/BLE.c **** 
 122:.\Generated_Source\PSoC4/BLE.c ****  Parameters:
 123:.\Generated_Source\PSoC4/BLE.c ****   None
 124:.\Generated_Source\PSoC4/BLE.c **** 
 125:.\Generated_Source\PSoC4/BLE.c ****  Return:
 126:.\Generated_Source\PSoC4/BLE.c ****   None
 127:.\Generated_Source\PSoC4/BLE.c **** 
 128:.\Generated_Source\PSoC4/BLE.c **** ******************************************************************************/
 129:.\Generated_Source\PSoC4/BLE.c **** void CyBle_Init(void)
ARM GAS  C:\Users\raypa\AppData\Local\Temp\ccMTDWHp.s 			page 6


 130:.\Generated_Source\PSoC4/BLE.c **** {
 157              		.loc 1 130 0
 158              		.cfi_startproc
 159 0000 80B5     		push	{r7, lr}
 160              		.cfi_def_cfa_offset 8
 161              		.cfi_offset 7, -8
 162              		.cfi_offset 14, -4
 163 0002 00AF     		add	r7, sp, #0
 164              		.cfi_def_cfa_register 7
 131:.\Generated_Source\PSoC4/BLE.c ****     cyBle_eventHandlerFlag = 0u;
 165              		.loc 1 131 0
 166 0004 064B     		ldr	r3, .L2
 167 0006 0022     		mov	r2, #0
 168 0008 1A70     		strb	r2, [r3]
 132:.\Generated_Source\PSoC4/BLE.c ****     cyBle_busStatus = CYBLE_STACK_STATE_FREE;
 169              		.loc 1 132 0
 170 000a 064B     		ldr	r3, .L2+4
 171 000c 0022     		mov	r2, #0
 172 000e 1A70     		strb	r2, [r3]
 133:.\Generated_Source\PSoC4/BLE.c ****     
 134:.\Generated_Source\PSoC4/BLE.c ****     #if(CYBLE_GAP_ROLE_PERIPHERAL || CYBLE_GAP_ROLE_BROADCASTER) 
 135:.\Generated_Source\PSoC4/BLE.c ****         cyBle_advertisingIntervalType = CYBLE_ADVERTISING_FAST; 
 173              		.loc 1 135 0
 174 0010 054B     		ldr	r3, .L2+8
 175 0012 0022     		mov	r2, #0
 176 0014 1A70     		strb	r2, [r3]
 136:.\Generated_Source\PSoC4/BLE.c ****     #endif /* (CYBLE_GAP_ROLE_PERIPHERAL || CYBLE_GAP_ROLE_BROADCASTER)  */
 137:.\Generated_Source\PSoC4/BLE.c ****     #if(CYBLE_GAP_ROLE_CENTRAL || CYBLE_GAP_ROLE_OBSERVER)
 138:.\Generated_Source\PSoC4/BLE.c ****         cyBle_scanningIntervalType = CYBLE_SCANNING_FAST; 
 139:.\Generated_Source\PSoC4/BLE.c ****     #endif /* (CYBLE_GAP_ROLE_CENTRAL || CYBLE_GAP_ROLE_OBSERVER) */
 140:.\Generated_Source\PSoC4/BLE.c ****         
 141:.\Generated_Source\PSoC4/BLE.c ****     /* Init default connection parameters. 
 142:.\Generated_Source\PSoC4/BLE.c ****        Application may change it before initiating a connection */
 143:.\Generated_Source\PSoC4/BLE.c ****     #if(CYBLE_GAP_ROLE_CENTRAL)
 144:.\Generated_Source\PSoC4/BLE.c ****         cyBle_connectionParameters.scanIntv = cyBle_discoveryInfo.scanIntv;
 145:.\Generated_Source\PSoC4/BLE.c ****         cyBle_connectionParameters.scanWindow = cyBle_discoveryInfo.scanWindow;
 146:.\Generated_Source\PSoC4/BLE.c ****         cyBle_connectionParameters.ownAddrType = cyBle_discoveryInfo.ownAddrType;
 147:.\Generated_Source\PSoC4/BLE.c ****         cyBle_connectionParameters.initiatorFilterPolicy = cyBle_discoveryInfo.scanFilterPolicy;
 148:.\Generated_Source\PSoC4/BLE.c ****         cyBle_connectionParameters.connIntvMin = CYBLE_GAPC_CONNECTION_INTERVAL_MIN;
 149:.\Generated_Source\PSoC4/BLE.c ****         cyBle_connectionParameters.connIntvMax = CYBLE_GAPC_CONNECTION_INTERVAL_MAX;
 150:.\Generated_Source\PSoC4/BLE.c ****         cyBle_connectionParameters.connLatency = CYBLE_GAPC_CONNECTION_SLAVE_LATENCY;
 151:.\Generated_Source\PSoC4/BLE.c ****         cyBle_connectionParameters.supervisionTO = CYBLE_GAPC_CONNECTION_TIME_OUT;
 152:.\Generated_Source\PSoC4/BLE.c ****         cyBle_connectionParameters.minCeLength = 0x0000u;
 153:.\Generated_Source\PSoC4/BLE.c ****         cyBle_connectionParameters.maxCeLength = 0xFFFFu;
 154:.\Generated_Source\PSoC4/BLE.c ****         
 155:.\Generated_Source\PSoC4/BLE.c ****         cyBle_discoveryInfo.scanType = 0x01u; /* Active scanning (0x01) */
 156:.\Generated_Source\PSoC4/BLE.c ****         
 157:.\Generated_Source\PSoC4/BLE.c ****         cyBle_connectingTimeout = CYBLE_GAPC_CONNECTING_TIMEOUT;
 158:.\Generated_Source\PSoC4/BLE.c ****     #endif /* CYBLE_GAP_ROLE_CENTRAL */
 159:.\Generated_Source\PSoC4/BLE.c **** 
 160:.\Generated_Source\PSoC4/BLE.c ****     CyBle_ServiceInit();
 177              		.loc 1 160 0
 178 0016 FFF7FEFF 		bl	CyBle_ServiceInit
 161:.\Generated_Source\PSoC4/BLE.c **** 
 162:.\Generated_Source\PSoC4/BLE.c **** #if((CYBLE_GAP_ROLE_PERIPHERAL || CYBLE_GAP_ROLE_CENTRAL) && (CYBLE_BONDING_REQUIREMENT == CYBLE_BO
 163:.\Generated_Source\PSoC4/BLE.c ****     cyBle_pendingFlashWrite = 0u;
 164:.\Generated_Source\PSoC4/BLE.c **** #endif  /* (CYBLE_BONDING_REQUIREMENT == CYBLE_BONDING_YES) */
ARM GAS  C:\Users\raypa\AppData\Local\Temp\ccMTDWHp.s 			page 7


 165:.\Generated_Source\PSoC4/BLE.c **** 
 166:.\Generated_Source\PSoC4/BLE.c **** }
 179              		.loc 1 166 0
 180 001a BD46     		mov	sp, r7
 181              		@ sp needed
 182 001c 80BD     		pop	{r7, pc}
 183              	.L3:
 184 001e C046     		.align	2
 185              	.L2:
 186 0020 00000000 		.word	cyBle_eventHandlerFlag
 187 0024 00000000 		.word	cyBle_busStatus
 188 0028 00000000 		.word	cyBle_advertisingIntervalType
 189              		.cfi_endproc
 190              	.LFE2:
 191              		.size	CyBle_Init, .-CyBle_Init
 192              		.section	.text.CyBle_ServiceInit,"ax",%progbits
 193              		.align	2
 194              		.global	CyBle_ServiceInit
 195              		.code	16
 196              		.thumb_func
 197              		.type	CyBle_ServiceInit, %function
 198              	CyBle_ServiceInit:
 199              	.LFB3:
 167:.\Generated_Source\PSoC4/BLE.c **** 
 168:.\Generated_Source\PSoC4/BLE.c **** 
 169:.\Generated_Source\PSoC4/BLE.c **** /******************************************************************************
 170:.\Generated_Source\PSoC4/BLE.c **** ##Function Name: CyBle_ServiceInit
 171:.\Generated_Source\PSoC4/BLE.c **** *******************************************************************************
 172:.\Generated_Source\PSoC4/BLE.c **** 
 173:.\Generated_Source\PSoC4/BLE.c **** Summary:
 174:.\Generated_Source\PSoC4/BLE.c ****  Initializes all included services.
 175:.\Generated_Source\PSoC4/BLE.c **** 
 176:.\Generated_Source\PSoC4/BLE.c **** Parameters:
 177:.\Generated_Source\PSoC4/BLE.c ****  None
 178:.\Generated_Source\PSoC4/BLE.c **** 
 179:.\Generated_Source\PSoC4/BLE.c **** Return:
 180:.\Generated_Source\PSoC4/BLE.c ****  None
 181:.\Generated_Source\PSoC4/BLE.c **** 
 182:.\Generated_Source\PSoC4/BLE.c **** ******************************************************************************/
 183:.\Generated_Source\PSoC4/BLE.c **** void CyBle_ServiceInit(void)
 184:.\Generated_Source\PSoC4/BLE.c **** {
 200              		.loc 1 184 0
 201              		.cfi_startproc
 202 0000 80B5     		push	{r7, lr}
 203              		.cfi_def_cfa_offset 8
 204              		.cfi_offset 7, -8
 205              		.cfi_offset 14, -4
 206 0002 00AF     		add	r7, sp, #0
 207              		.cfi_def_cfa_register 7
 185:.\Generated_Source\PSoC4/BLE.c ****     #if(CYBLE_GATT_ROLE_CLIENT)
 186:.\Generated_Source\PSoC4/BLE.c ****         (void)memset(&cyBle_gapc, 0, sizeof(cyBle_gapc));
 187:.\Generated_Source\PSoC4/BLE.c ****         (void)memset(&cyBle_gattc, 0, sizeof(cyBle_gattc));
 188:.\Generated_Source\PSoC4/BLE.c ****     #endif /* CYBLE_GATT_ROLE_CLIENT */
 189:.\Generated_Source\PSoC4/BLE.c ****     
 190:.\Generated_Source\PSoC4/BLE.c ****     #ifdef CYBLE_ANS
 191:.\Generated_Source\PSoC4/BLE.c ****         CyBle_AnsInit();
 192:.\Generated_Source\PSoC4/BLE.c ****     #endif /* CYBLE_ANS */
ARM GAS  C:\Users\raypa\AppData\Local\Temp\ccMTDWHp.s 			page 8


 193:.\Generated_Source\PSoC4/BLE.c ****     
 194:.\Generated_Source\PSoC4/BLE.c ****     #ifdef CYBLE_BAS
 195:.\Generated_Source\PSoC4/BLE.c ****         CyBle_BasInit();
 196:.\Generated_Source\PSoC4/BLE.c ****     #endif /* CYBLE_BAS */
 197:.\Generated_Source\PSoC4/BLE.c ****     
 198:.\Generated_Source\PSoC4/BLE.c ****     #ifdef CYBLE_BLS
 199:.\Generated_Source\PSoC4/BLE.c ****         CyBle_BlsInit();
 200:.\Generated_Source\PSoC4/BLE.c ****     #endif /* CYBLE_BLS */
 201:.\Generated_Source\PSoC4/BLE.c **** 
 202:.\Generated_Source\PSoC4/BLE.c ****     #ifdef CYBLE_CPS
 203:.\Generated_Source\PSoC4/BLE.c ****         CyBle_CpsInit();
 204:.\Generated_Source\PSoC4/BLE.c ****     #endif /* CYBLE_CPS */
 205:.\Generated_Source\PSoC4/BLE.c **** 
 206:.\Generated_Source\PSoC4/BLE.c ****     #ifdef CYBLE_CSCS
 207:.\Generated_Source\PSoC4/BLE.c ****         CyBle_CscsInit();
 208:.\Generated_Source\PSoC4/BLE.c ****     #endif /* CYBLE_CSCS */
 209:.\Generated_Source\PSoC4/BLE.c ****     
 210:.\Generated_Source\PSoC4/BLE.c ****     #ifdef CYBLE_CTS
 211:.\Generated_Source\PSoC4/BLE.c ****         CyBle_CtsInit();
 212:.\Generated_Source\PSoC4/BLE.c ****     #endif /* CYBLE_CTS */
 213:.\Generated_Source\PSoC4/BLE.c **** 
 214:.\Generated_Source\PSoC4/BLE.c ****     #ifdef CYBLE_DIS
 215:.\Generated_Source\PSoC4/BLE.c ****         CyBle_DisInit();
 216:.\Generated_Source\PSoC4/BLE.c ****     #endif /* CYBLE_DIS */
 217:.\Generated_Source\PSoC4/BLE.c **** 
 218:.\Generated_Source\PSoC4/BLE.c ****     #ifdef CYBLE_GLS
 219:.\Generated_Source\PSoC4/BLE.c ****         CyBle_GlsInit();
 220:.\Generated_Source\PSoC4/BLE.c ****     #endif /* CYBLE_GLS */
 221:.\Generated_Source\PSoC4/BLE.c ****     
 222:.\Generated_Source\PSoC4/BLE.c ****     #ifdef CYBLE_HIDS
 223:.\Generated_Source\PSoC4/BLE.c ****         CyBle_HidsInit();
 224:.\Generated_Source\PSoC4/BLE.c ****     #endif /* CYBLE_HIDS */
 225:.\Generated_Source\PSoC4/BLE.c **** 
 226:.\Generated_Source\PSoC4/BLE.c ****     #ifdef CYBLE_HRS
 227:.\Generated_Source\PSoC4/BLE.c ****         CyBle_HrsInit();
 228:.\Generated_Source\PSoC4/BLE.c ****     #endif /* CYBLE_HRS */
 229:.\Generated_Source\PSoC4/BLE.c ****     
 230:.\Generated_Source\PSoC4/BLE.c ****     #ifdef CYBLE_HTS
 231:.\Generated_Source\PSoC4/BLE.c ****         CyBle_HtsInit();
 232:.\Generated_Source\PSoC4/BLE.c ****     #endif /* CYBLE_RSCS */
 233:.\Generated_Source\PSoC4/BLE.c **** 
 234:.\Generated_Source\PSoC4/BLE.c ****     #ifdef CYBLE_IAS
 235:.\Generated_Source\PSoC4/BLE.c ****         CyBle_IasInit();
 236:.\Generated_Source\PSoC4/BLE.c ****     #endif /* CYBLE_IAS */
 237:.\Generated_Source\PSoC4/BLE.c **** 
 238:.\Generated_Source\PSoC4/BLE.c ****     #ifdef CYBLE_LLS
 239:.\Generated_Source\PSoC4/BLE.c ****         CyBle_LlsInit();
 240:.\Generated_Source\PSoC4/BLE.c ****     #endif /* CYBLE_LLS */
 241:.\Generated_Source\PSoC4/BLE.c **** 
 242:.\Generated_Source\PSoC4/BLE.c ****     #ifdef CYBLE_RTUS
 243:.\Generated_Source\PSoC4/BLE.c ****         CyBle_RtusInit();
 244:.\Generated_Source\PSoC4/BLE.c ****     #endif /* CYBLE_RTUS */
 245:.\Generated_Source\PSoC4/BLE.c **** 
 246:.\Generated_Source\PSoC4/BLE.c ****     #ifdef CYBLE_LNS
 247:.\Generated_Source\PSoC4/BLE.c ****         CyBle_LnsInit();
 248:.\Generated_Source\PSoC4/BLE.c ****     #endif /* CYBLE_LNS */
 249:.\Generated_Source\PSoC4/BLE.c ****     
ARM GAS  C:\Users\raypa\AppData\Local\Temp\ccMTDWHp.s 			page 9


 250:.\Generated_Source\PSoC4/BLE.c ****     #ifdef CYBLE_PASS
 251:.\Generated_Source\PSoC4/BLE.c ****         CyBle_PassInit();
 252:.\Generated_Source\PSoC4/BLE.c ****     #endif /* CYBLE_PASS */
 253:.\Generated_Source\PSoC4/BLE.c ****     
 254:.\Generated_Source\PSoC4/BLE.c ****     #ifdef CYBLE_RSCS
 255:.\Generated_Source\PSoC4/BLE.c ****         CyBle_RscsInit();
 256:.\Generated_Source\PSoC4/BLE.c ****     #endif /* CYBLE_RSCS */
 257:.\Generated_Source\PSoC4/BLE.c **** 
 258:.\Generated_Source\PSoC4/BLE.c ****     #ifdef CYBLE_SCPS
 259:.\Generated_Source\PSoC4/BLE.c ****         CyBle_ScpsInit();
 260:.\Generated_Source\PSoC4/BLE.c ****     #endif /* CYBLE_SCPS */
 261:.\Generated_Source\PSoC4/BLE.c ****     
 262:.\Generated_Source\PSoC4/BLE.c ****     #ifdef CYBLE_TPS
 263:.\Generated_Source\PSoC4/BLE.c ****         CyBle_TpsInit();
 264:.\Generated_Source\PSoC4/BLE.c ****     #endif /* CYBLE_TPS */
 265:.\Generated_Source\PSoC4/BLE.c **** 
 266:.\Generated_Source\PSoC4/BLE.c **** }
 208              		.loc 1 266 0
 209 0004 BD46     		mov	sp, r7
 210              		@ sp needed
 211 0006 80BD     		pop	{r7, pc}
 212              		.cfi_endproc
 213              	.LFE3:
 214              		.size	CyBle_ServiceInit, .-CyBle_ServiceInit
 215              		.section	.text.CyBle_Start,"ax",%progbits
 216              		.align	2
 217              		.global	CyBle_Start
 218              		.code	16
 219              		.thumb_func
 220              		.type	CyBle_Start, %function
 221              	CyBle_Start:
 222              	.LFB4:
 267:.\Generated_Source\PSoC4/BLE.c **** 
 268:.\Generated_Source\PSoC4/BLE.c **** 
 269:.\Generated_Source\PSoC4/BLE.c **** /******************************************************************************
 270:.\Generated_Source\PSoC4/BLE.c **** ##Function Name: CyBle_Start
 271:.\Generated_Source\PSoC4/BLE.c **** *******************************************************************************
 272:.\Generated_Source\PSoC4/BLE.c **** 
 273:.\Generated_Source\PSoC4/BLE.c **** Summary:
 274:.\Generated_Source\PSoC4/BLE.c ****  This function initializes the BLE Stack, which consists of the BLE Stack 
 275:.\Generated_Source\PSoC4/BLE.c ****  Manager, BLE Controller, and BLE Host modules. It takes care of initializing
 276:.\Generated_Source\PSoC4/BLE.c ****  the Profile layer, schedulers, Timer and other platform related
 277:.\Generated_Source\PSoC4/BLE.c ****  resources required for the BLE component. It also registers the callback 
 278:.\Generated_Source\PSoC4/BLE.c ****  function for BLE events that will be registered in the BLE stack.
 279:.\Generated_Source\PSoC4/BLE.c **** 
 280:.\Generated_Source\PSoC4/BLE.c ****  Note that this function does not reset the BLE Stack.
 281:.\Generated_Source\PSoC4/BLE.c **** 
 282:.\Generated_Source\PSoC4/BLE.c ****  For HCI-Mode of operation, this function will not initialize the BLE Host 
 283:.\Generated_Source\PSoC4/BLE.c ****  module.
 284:.\Generated_Source\PSoC4/BLE.c **** 
 285:.\Generated_Source\PSoC4/BLE.c ****  Calling this function results in the generation of CYBLE_EVT_STACK_ON event
 286:.\Generated_Source\PSoC4/BLE.c ****  on successful initialization of the BLE Stack.
 287:.\Generated_Source\PSoC4/BLE.c **** 
 288:.\Generated_Source\PSoC4/BLE.c **** Parameters:
 289:.\Generated_Source\PSoC4/BLE.c ****  callbackFunc: Event callback function to receive events from BLE stack.
 290:.\Generated_Source\PSoC4/BLE.c ****   CYBLE_CALLBACK_T is a function pointer type.
 291:.\Generated_Source\PSoC4/BLE.c **** 
ARM GAS  C:\Users\raypa\AppData\Local\Temp\ccMTDWHp.s 			page 10


 292:.\Generated_Source\PSoC4/BLE.c **** Return:
 293:.\Generated_Source\PSoC4/BLE.c ****  CYBLE_API_RESULT_T : Return value indicates if the function succeeded or 
 294:.\Generated_Source\PSoC4/BLE.c ****  failed. Following are the possible error codes.
 295:.\Generated_Source\PSoC4/BLE.c ****  <table>
 296:.\Generated_Source\PSoC4/BLE.c ****   Errors codes                        Description
 297:.\Generated_Source\PSoC4/BLE.c ****   ------------                        -----------------
 298:.\Generated_Source\PSoC4/BLE.c ****   CYBLE_ERROR_OK                      On successful operation.
 299:.\Generated_Source\PSoC4/BLE.c ****   CYBLE_ERROR_INVALID_PARAMETER       On passing a NULL pointer to the 
 300:.\Generated_Source\PSoC4/BLE.c ****                                        function when the BLE stack is not 
 301:.\Generated_Source\PSoC4/BLE.c ****                                        built in HCI mode.
 302:.\Generated_Source\PSoC4/BLE.c ****                                        CYBLE_ERROR_INVALID_PARAMETER
 303:.\Generated_Source\PSoC4/BLE.c ****                                        is never returned in HCI mode.
 304:.\Generated_Source\PSoC4/BLE.c ****   CYBLE_ERROR_REPEATED_ATTEMPTS       On invoking this function more
 305:.\Generated_Source\PSoC4/BLE.c ****                                        than once without calling
 306:.\Generated_Source\PSoC4/BLE.c ****                                        CyBle_Shutdown() function 
 307:.\Generated_Source\PSoC4/BLE.c ****                                        between calls to this function.
 308:.\Generated_Source\PSoC4/BLE.c ****  </table>
 309:.\Generated_Source\PSoC4/BLE.c **** 
 310:.\Generated_Source\PSoC4/BLE.c **** ******************************************************************************/
 311:.\Generated_Source\PSoC4/BLE.c **** CYBLE_API_RESULT_T CyBle_Start(CYBLE_CALLBACK_T callbackFunc)
 312:.\Generated_Source\PSoC4/BLE.c **** {
 223              		.loc 1 312 0
 224              		.cfi_startproc
 225 0000 90B5     		push	{r4, r7, lr}
 226              		.cfi_def_cfa_offset 12
 227              		.cfi_offset 4, -12
 228              		.cfi_offset 7, -8
 229              		.cfi_offset 14, -4
 230 0002 85B0     		sub	sp, sp, #20
 231              		.cfi_def_cfa_offset 32
 232 0004 00AF     		add	r7, sp, #0
 233              		.cfi_def_cfa_register 7
 234 0006 7860     		str	r0, [r7, #4]
 313:.\Generated_Source\PSoC4/BLE.c ****     CYBLE_API_RESULT_T apiResult = CYBLE_ERROR_INVALID_PARAMETER;
 235              		.loc 1 313 0
 236 0008 0E23     		mov	r3, #14
 237 000a FB18     		add	r3, r7, r3
 238 000c 0122     		mov	r2, #1
 239 000e 1A80     		strh	r2, [r3]
 314:.\Generated_Source\PSoC4/BLE.c ****     
 315:.\Generated_Source\PSoC4/BLE.c ****     /* Allocate RAM memory for stack */
 316:.\Generated_Source\PSoC4/BLE.c ****     CYBLE_CYALIGNED static uint8 cyBle_stackMemoryRam[CYBLE_STACK_RAM_SIZE];
 317:.\Generated_Source\PSoC4/BLE.c ****     
 318:.\Generated_Source\PSoC4/BLE.c ****     /* If not initialized then initialize all the required hardware and software */
 319:.\Generated_Source\PSoC4/BLE.c ****     if(cyBle_initVar == 0u)
 240              		.loc 1 319 0
 241 0010 194B     		ldr	r3, .L9
 242 0012 1B78     		ldrb	r3, [r3]
 243 0014 002B     		cmp	r3, #0
 244 0016 04D1     		bne	.L6
 320:.\Generated_Source\PSoC4/BLE.c ****     {
 321:.\Generated_Source\PSoC4/BLE.c ****         CyBle_Init();
 245              		.loc 1 321 0
 246 0018 FFF7FEFF 		bl	CyBle_Init
 322:.\Generated_Source\PSoC4/BLE.c ****         cyBle_initVar = 1u;
 247              		.loc 1 322 0
 248 001c 164B     		ldr	r3, .L9
ARM GAS  C:\Users\raypa\AppData\Local\Temp\ccMTDWHp.s 			page 11


 249 001e 0122     		mov	r2, #1
 250 0020 1A70     		strb	r2, [r3]
 251              	.L6:
 323:.\Generated_Source\PSoC4/BLE.c ****     }
 324:.\Generated_Source\PSoC4/BLE.c ****     
 325:.\Generated_Source\PSoC4/BLE.c ****     if(NULL != callbackFunc)
 252              		.loc 1 325 0
 253 0022 7B68     		ldr	r3, [r7, #4]
 254 0024 002B     		cmp	r3, #0
 255 0026 1FD0     		beq	.L7
 326:.\Generated_Source\PSoC4/BLE.c ****     {
 327:.\Generated_Source\PSoC4/BLE.c ****         CyBle_ApplCallback = callbackFunc;
 256              		.loc 1 327 0
 257 0028 144B     		ldr	r3, .L9+4
 258 002a 7A68     		ldr	r2, [r7, #4]
 259 002c 1A60     		str	r2, [r3]
 328:.\Generated_Source\PSoC4/BLE.c **** 
 329:.\Generated_Source\PSoC4/BLE.c ****         apiResult = CyBle_StackInit(&CyBle_EventHandler, cyBle_stackMemoryRam, CYBLE_GATT_MTU);
 260              		.loc 1 329 0
 261 002e 0E23     		mov	r3, #14
 262 0030 FC18     		add	r4, r7, r3
 263 0032 134A     		ldr	r2, .L9+8
 264 0034 134B     		ldr	r3, .L9+12
 265 0036 101C     		mov	r0, r2
 266 0038 191C     		mov	r1, r3
 267 003a 1722     		mov	r2, #23
 268 003c FFF7FEFF 		bl	CyBle_StackInit
 269 0040 031C     		mov	r3, r0
 270 0042 2380     		strh	r3, [r4]
 330:.\Generated_Source\PSoC4/BLE.c **** 
 331:.\Generated_Source\PSoC4/BLE.c ****         if(apiResult == CYBLE_ERROR_OK)
 271              		.loc 1 331 0
 272 0044 0E23     		mov	r3, #14
 273 0046 FB18     		add	r3, r7, r3
 274 0048 1B88     		ldrh	r3, [r3]
 275 004a 002B     		cmp	r3, #0
 276 004c 0CD1     		bne	.L7
 332:.\Generated_Source\PSoC4/BLE.c ****         {
 333:.\Generated_Source\PSoC4/BLE.c ****             CyBle_SetState(CYBLE_STATE_INITIALIZING);
 277              		.loc 1 333 0
 278 004e 0E4B     		ldr	r3, .L9+16
 279 0050 0122     		mov	r2, #1
 280 0052 1A70     		strb	r2, [r3]
 334:.\Generated_Source\PSoC4/BLE.c ****             
 335:.\Generated_Source\PSoC4/BLE.c ****         #if (CYBLE_GATT_ROLE_CLIENT)
 336:.\Generated_Source\PSoC4/BLE.c ****             CyBle_SetClientState(CYBLE_CLIENT_STATE_DISCONNECTED);
 337:.\Generated_Source\PSoC4/BLE.c ****         #endif /* CYBLE_GATT_ROLE_CLIENT */
 338:.\Generated_Source\PSoC4/BLE.c ****             
 339:.\Generated_Source\PSoC4/BLE.c ****         #if(CYBLE_GATT_ROLE_SERVER)
 340:.\Generated_Source\PSoC4/BLE.c ****             apiResult = CyBle_GattsDbRegister(cyBle_gattDB, CYBLE_GATT_DB_INDEX_COUNT, CYBLE_GATT_D
 281              		.loc 1 340 0
 282 0054 0E23     		mov	r3, #14
 283 0056 FC18     		add	r4, r7, r3
 284 0058 0C4B     		ldr	r3, .L9+20
 285 005a 181C     		mov	r0, r3
 286 005c 1821     		mov	r1, #24
 287 005e 1622     		mov	r2, #22
ARM GAS  C:\Users\raypa\AppData\Local\Temp\ccMTDWHp.s 			page 12


 288 0060 FFF7FEFF 		bl	CyBle_GattsDbRegister
 289 0064 031C     		mov	r3, r0
 290 0066 2380     		strh	r3, [r4]
 291              	.L7:
 341:.\Generated_Source\PSoC4/BLE.c ****         #endif /* CYBLE_GATT_ROLE_SERVER */
 342:.\Generated_Source\PSoC4/BLE.c ****         }
 343:.\Generated_Source\PSoC4/BLE.c ****     }
 344:.\Generated_Source\PSoC4/BLE.c **** 
 345:.\Generated_Source\PSoC4/BLE.c ****     return (apiResult);
 292              		.loc 1 345 0
 293 0068 0E23     		mov	r3, #14
 294 006a FB18     		add	r3, r7, r3
 295 006c 1B88     		ldrh	r3, [r3]
 346:.\Generated_Source\PSoC4/BLE.c **** }
 296              		.loc 1 346 0
 297 006e 181C     		mov	r0, r3
 298 0070 BD46     		mov	sp, r7
 299 0072 05B0     		add	sp, sp, #20
 300              		@ sp needed
 301 0074 90BD     		pop	{r4, r7, pc}
 302              	.L10:
 303 0076 C046     		.align	2
 304              	.L9:
 305 0078 00000000 		.word	cyBle_initVar
 306 007c 00000000 		.word	CyBle_ApplCallback
 307 0080 00000000 		.word	CyBle_EventHandler
 308 0084 08000000 		.word	cyBle_stackMemoryRam.5964
 309 0088 00000000 		.word	cyBle_state
 310 008c 00000000 		.word	cyBle_gattDB
 311              		.cfi_endproc
 312              	.LFE4:
 313              		.size	CyBle_Start, .-CyBle_Start
 314              		.section	.text.CyBle_Stop,"ax",%progbits
 315              		.align	2
 316              		.global	CyBle_Stop
 317              		.code	16
 318              		.thumb_func
 319              		.type	CyBle_Stop, %function
 320              	CyBle_Stop:
 321              	.LFB5:
 347:.\Generated_Source\PSoC4/BLE.c **** 
 348:.\Generated_Source\PSoC4/BLE.c **** 
 349:.\Generated_Source\PSoC4/BLE.c **** /******************************************************************************
 350:.\Generated_Source\PSoC4/BLE.c **** ##Function Name: CyBle_Stop
 351:.\Generated_Source\PSoC4/BLE.c **** *******************************************************************************
 352:.\Generated_Source\PSoC4/BLE.c **** 
 353:.\Generated_Source\PSoC4/BLE.c **** Summary:
 354:.\Generated_Source\PSoC4/BLE.c ****  This function stops any ongoing operation in the BLE Stack and forces the 
 355:.\Generated_Source\PSoC4/BLE.c ****  BLE Stack to shut down. The only function that can be called after calling
 356:.\Generated_Source\PSoC4/BLE.c ****  this function is CyBle_Start(). 
 357:.\Generated_Source\PSoC4/BLE.c **** 
 358:.\Generated_Source\PSoC4/BLE.c **** Parameters:
 359:.\Generated_Source\PSoC4/BLE.c ****  None
 360:.\Generated_Source\PSoC4/BLE.c **** 
 361:.\Generated_Source\PSoC4/BLE.c **** Return:
 362:.\Generated_Source\PSoC4/BLE.c ****  None
 363:.\Generated_Source\PSoC4/BLE.c **** 
ARM GAS  C:\Users\raypa\AppData\Local\Temp\ccMTDWHp.s 			page 13


 364:.\Generated_Source\PSoC4/BLE.c **** ******************************************************************************/
 365:.\Generated_Source\PSoC4/BLE.c **** void CyBle_Stop(void)
 366:.\Generated_Source\PSoC4/BLE.c **** {
 322              		.loc 1 366 0
 323              		.cfi_startproc
 324 0000 80B5     		push	{r7, lr}
 325              		.cfi_def_cfa_offset 8
 326              		.cfi_offset 7, -8
 327              		.cfi_offset 14, -4
 328 0002 00AF     		add	r7, sp, #0
 329              		.cfi_def_cfa_register 7
 367:.\Generated_Source\PSoC4/BLE.c ****     CyBle_Shutdown(); /* stop all ongoing activities */
 330              		.loc 1 367 0
 331 0004 FFF7FEFF 		bl	CyBle_Shutdown
 368:.\Generated_Source\PSoC4/BLE.c ****     CyBle_ProcessEvents(); /* process all pending events */
 332              		.loc 1 368 0
 333 0008 FFF7FEFF 		bl	CyBle_ProcessEvents
 369:.\Generated_Source\PSoC4/BLE.c ****     CyBle_SetState(CYBLE_STATE_STOPPED);
 334              		.loc 1 369 0
 335 000c 024B     		ldr	r3, .L12
 336 000e 0022     		mov	r2, #0
 337 0010 1A70     		strb	r2, [r3]
 370:.\Generated_Source\PSoC4/BLE.c **** }
 338              		.loc 1 370 0
 339 0012 BD46     		mov	sp, r7
 340              		@ sp needed
 341 0014 80BD     		pop	{r7, pc}
 342              	.L13:
 343 0016 C046     		.align	2
 344              	.L12:
 345 0018 00000000 		.word	cyBle_state
 346              		.cfi_endproc
 347              	.LFE5:
 348              		.size	CyBle_Stop, .-CyBle_Stop
 349              		.section	.text.CyBle_GappStartAdvertisement,"ax",%progbits
 350              		.align	2
 351              		.global	CyBle_GappStartAdvertisement
 352              		.code	16
 353              		.thumb_func
 354              		.type	CyBle_GappStartAdvertisement, %function
 355              	CyBle_GappStartAdvertisement:
 356              	.LFB6:
 371:.\Generated_Source\PSoC4/BLE.c **** 
 372:.\Generated_Source\PSoC4/BLE.c **** 
 373:.\Generated_Source\PSoC4/BLE.c **** #if((CYBLE_GAP_ROLE_PERIPHERAL || CYBLE_GAP_ROLE_CENTRAL) && (CYBLE_BONDING_REQUIREMENT == CYBLE_BO
 374:.\Generated_Source\PSoC4/BLE.c **** 
 375:.\Generated_Source\PSoC4/BLE.c ****     
 376:.\Generated_Source\PSoC4/BLE.c **** /******************************************************************************
 377:.\Generated_Source\PSoC4/BLE.c **** ##Function Name: CyBle_StoreBondingData
 378:.\Generated_Source\PSoC4/BLE.c **** *******************************************************************************
 379:.\Generated_Source\PSoC4/BLE.c **** 
 380:.\Generated_Source\PSoC4/BLE.c **** Summary:
 381:.\Generated_Source\PSoC4/BLE.c ****  This function writes the new bonding data from RAM to the dedicated Flash 
 382:.\Generated_Source\PSoC4/BLE.c ****  location as defined by the component. It performs data comparing between RAM
 383:.\Generated_Source\PSoC4/BLE.c ****  and Flash before writing to Flash. If there is no change between RAM and Flash
 384:.\Generated_Source\PSoC4/BLE.c ****  data, then no write is performed. It writes only one flash row in one call.
 385:.\Generated_Source\PSoC4/BLE.c ****  Application should keep calling this function till API return CYBLE_ERROR_OK. 
ARM GAS  C:\Users\raypa\AppData\Local\Temp\ccMTDWHp.s 			page 14


 386:.\Generated_Source\PSoC4/BLE.c ****  This function is available only when Bonding requirement is selected in
 387:.\Generated_Source\PSoC4/BLE.c ****  Security settings.    
 388:.\Generated_Source\PSoC4/BLE.c ****     
 389:.\Generated_Source\PSoC4/BLE.c **** Parameters:
 390:.\Generated_Source\PSoC4/BLE.c ****  isForceWrite:  If value is set to 0, then stack will check if flash write 
 391:.\Generated_Source\PSoC4/BLE.c ****                 is permissible. 
 392:.\Generated_Source\PSoC4/BLE.c ****  
 393:.\Generated_Source\PSoC4/BLE.c **** Return:
 394:.\Generated_Source\PSoC4/BLE.c ****  Return value is of type CYBLE_API_RESULT_T.
 395:.\Generated_Source\PSoC4/BLE.c ****  * CYBLE_ERROR_OK - On successful operation
 396:.\Generated_Source\PSoC4/BLE.c ****  * CYBLE_ERROR_FLASH_WRITE_NOT_PERMITED - Flash Write is not complete
 397:.\Generated_Source\PSoC4/BLE.c ****    
 398:.\Generated_Source\PSoC4/BLE.c ****  Side Effects:
 399:.\Generated_Source\PSoC4/BLE.c ****   This API will automatically modify the clock settings for the device.
 400:.\Generated_Source\PSoC4/BLE.c ****   Writing to flash requires changes to be done to the IMO (set to 48 MHz)
 401:.\Generated_Source\PSoC4/BLE.c ****   and HFCLK (source set to IMO) settings. The configuration is restored before
 402:.\Generated_Source\PSoC4/BLE.c ****   returning. This will impact the operation of most of the hardware in the
 403:.\Generated_Source\PSoC4/BLE.c ****   device.
 404:.\Generated_Source\PSoC4/BLE.c **** 
 405:.\Generated_Source\PSoC4/BLE.c **** ******************************************************************************/
 406:.\Generated_Source\PSoC4/BLE.c **** CYBLE_API_RESULT_T CyBle_StoreBondingData(uint8 isForceWrite)
 407:.\Generated_Source\PSoC4/BLE.c **** {
 408:.\Generated_Source\PSoC4/BLE.c ****     CYBLE_API_RESULT_T apiResult = CYBLE_ERROR_OK;
 409:.\Generated_Source\PSoC4/BLE.c ****     
 410:.\Generated_Source\PSoC4/BLE.c ****     /* Store Stack data */
 411:.\Generated_Source\PSoC4/BLE.c ****     if((cyBle_pendingFlashWrite & CYBLE_PENDING_STACK_FLASH_WRITE_BIT) != 0u)
 412:.\Generated_Source\PSoC4/BLE.c ****     {
 413:.\Generated_Source\PSoC4/BLE.c ****         apiResult = CyBle_StoreStackData(isForceWrite);
 414:.\Generated_Source\PSoC4/BLE.c ****         if(apiResult == CYBLE_ERROR_OK)
 415:.\Generated_Source\PSoC4/BLE.c ****         {
 416:.\Generated_Source\PSoC4/BLE.c ****             cyBle_pendingFlashWrite &= (uint8)~CYBLE_PENDING_STACK_FLASH_WRITE_BIT;
 417:.\Generated_Source\PSoC4/BLE.c ****             /* Change apiResult if there are more pending data to store */
 418:.\Generated_Source\PSoC4/BLE.c ****             if((cyBle_pendingFlashWrite & CYBLE_PENDING_CCCD_FLASH_WRITE_BIT) != 0u)
 419:.\Generated_Source\PSoC4/BLE.c ****             {
 420:.\Generated_Source\PSoC4/BLE.c ****                 apiResult = CYBLE_ERROR_FLASH_WRITE_NOT_PERMITED;
 421:.\Generated_Source\PSoC4/BLE.c ****             }
 422:.\Generated_Source\PSoC4/BLE.c ****         }
 423:.\Generated_Source\PSoC4/BLE.c ****     }
 424:.\Generated_Source\PSoC4/BLE.c **** #if(CYBLE_GATT_DB_CCCD_COUNT != 0u)
 425:.\Generated_Source\PSoC4/BLE.c ****     /* Store CCCD values */
 426:.\Generated_Source\PSoC4/BLE.c ****     if( ((apiResult == CYBLE_ERROR_OK) || (isForceWrite != 0u)) && 
 427:.\Generated_Source\PSoC4/BLE.c ****         ((cyBle_pendingFlashWrite & CYBLE_PENDING_CCCD_FLASH_WRITE_BIT) != 0u) &&
 428:.\Generated_Source\PSoC4/BLE.c ****         (cyBle_connHandle.bdHandle <= CYBLE_GAP_MAX_BONDED_DEVICE))
 429:.\Generated_Source\PSoC4/BLE.c ****     {
 430:.\Generated_Source\PSoC4/BLE.c ****         apiResult = CyBle_StoreAppData(cyBle_attValuesCCCD, cyBle_attValuesCCCDFlashMemory[cyBle_co
 431:.\Generated_Source\PSoC4/BLE.c ****                                        CYBLE_GATT_DB_CCCD_COUNT, isForceWrite);
 432:.\Generated_Source\PSoC4/BLE.c ****         if(apiResult == CYBLE_ERROR_OK)
 433:.\Generated_Source\PSoC4/BLE.c ****         {
 434:.\Generated_Source\PSoC4/BLE.c ****             cyBle_pendingFlashWrite &= (uint8)~CYBLE_PENDING_CCCD_FLASH_WRITE_BIT;
 435:.\Generated_Source\PSoC4/BLE.c ****         }
 436:.\Generated_Source\PSoC4/BLE.c ****     }
 437:.\Generated_Source\PSoC4/BLE.c **** #endif /* CYBLE_GATT_DB_CCCD_COUNT != 0u */
 438:.\Generated_Source\PSoC4/BLE.c ****     return(apiResult);
 439:.\Generated_Source\PSoC4/BLE.c **** }
 440:.\Generated_Source\PSoC4/BLE.c **** 
 441:.\Generated_Source\PSoC4/BLE.c **** 
 442:.\Generated_Source\PSoC4/BLE.c **** #endif /* (CYBLE_GAP_ROLE_PERIPHERAL || CYBLE_GAP_ROLE_CENTRAL) && (CYBLE_BONDING_REQUIREMENT == CY
ARM GAS  C:\Users\raypa\AppData\Local\Temp\ccMTDWHp.s 			page 15


 443:.\Generated_Source\PSoC4/BLE.c **** 
 444:.\Generated_Source\PSoC4/BLE.c **** 
 445:.\Generated_Source\PSoC4/BLE.c **** #if(CYBLE_GAP_ROLE_PERIPHERAL || CYBLE_GAP_ROLE_BROADCASTER)
 446:.\Generated_Source\PSoC4/BLE.c **** 
 447:.\Generated_Source\PSoC4/BLE.c ****     /******************************************************************************
 448:.\Generated_Source\PSoC4/BLE.c ****     ##Function Name: CyBle_GappStartAdvertisement
 449:.\Generated_Source\PSoC4/BLE.c ****     *******************************************************************************
 450:.\Generated_Source\PSoC4/BLE.c ****     
 451:.\Generated_Source\PSoC4/BLE.c ****     Summary:
 452:.\Generated_Source\PSoC4/BLE.c ****      This function is used to start the advertisement using the advertisement data 
 453:.\Generated_Source\PSoC4/BLE.c ****      set in the component customizer's GUI. After invoking this API, the device 
 454:.\Generated_Source\PSoC4/BLE.c ****      will be available for connection by the devices configured for GAP central 
 455:.\Generated_Source\PSoC4/BLE.c ****      role. It is only included if the device is configured for GAP Peripheral or 
 456:.\Generated_Source\PSoC4/BLE.c ****      GAP Peripheral + Central role.
 457:.\Generated_Source\PSoC4/BLE.c ****      
 458:.\Generated_Source\PSoC4/BLE.c ****      On start of advertisement, GAP Peripheral receives the
 459:.\Generated_Source\PSoC4/BLE.c ****      CYBLE_EVT_GAPP_ADVERTISEMENT_START_STOP event. The following events are 
 460:.\Generated_Source\PSoC4/BLE.c ****      possible on invoking this function:
 461:.\Generated_Source\PSoC4/BLE.c ****      
 462:.\Generated_Source\PSoC4/BLE.c ****      * CYBLE_EVT_GAP_DEVICE_CONNECTED: If the device connects to remote GAP 
 463:.\Generated_Source\PSoC4/BLE.c ****                                          Central device
 464:.\Generated_Source\PSoC4/BLE.c ****      * CYBLE_EVT_TIMEOUT: If no device in GAP Central mode connects to this 
 465:.\Generated_Source\PSoC4/BLE.c ****                           device within the specified timeout limit. Stack 
 466:.\Generated_Source\PSoC4/BLE.c ****                           automatically initiate stop advertising when Slow 
 467:.\Generated_Source\PSoC4/BLE.c ****                           advertising was initiated, or starts Slow advertising
 468:.\Generated_Source\PSoC4/BLE.c ****                           after Fast advertising timeout occur.
 469:.\Generated_Source\PSoC4/BLE.c ****      * CYBLE_EVT_GAPP_ADVERTISEMENT_START_STOP: If device started or stopped
 470:.\Generated_Source\PSoC4/BLE.c ****                                                   advertising. Use CyBle_GetState()
 471:.\Generated_Source\PSoC4/BLE.c ****                                                   to determine the state. Sequential 
 472:.\Generated_Source\PSoC4/BLE.c ****                                                   advertising could be started when
 473:.\Generated_Source\PSoC4/BLE.c ****                                                   CYBLE_STATE_DISCONNECTED state is
 474:.\Generated_Source\PSoC4/BLE.c ****                                                   returned.
 475:.\Generated_Source\PSoC4/BLE.c **** 
 476:.\Generated_Source\PSoC4/BLE.c ****     Parameters:
 477:.\Generated_Source\PSoC4/BLE.c ****      uint8 advertisingIntervalType: Fast or slow advertising interval with timings
 478:.\Generated_Source\PSoC4/BLE.c ****                                     entered in Advertising settings section of the
 479:.\Generated_Source\PSoC4/BLE.c ****                                     customizer.
 480:.\Generated_Source\PSoC4/BLE.c ****      * CYBLE_ADVERTISING_FAST   0x00u
 481:.\Generated_Source\PSoC4/BLE.c ****      * CYBLE_ADVERTISING_SLOW   0x01u
 482:.\Generated_Source\PSoC4/BLE.c ****      * CYBLE_ADVERTISING_CUSTOM 0x02u
 483:.\Generated_Source\PSoC4/BLE.c ****     
 484:.\Generated_Source\PSoC4/BLE.c ****     Return:
 485:.\Generated_Source\PSoC4/BLE.c ****      CYBLE_API_RESULT_T : Return value indicates if the function succeeded or
 486:.\Generated_Source\PSoC4/BLE.c ****      failed. Following are the possible error codes.
 487:.\Generated_Source\PSoC4/BLE.c ****      <table>
 488:.\Generated_Source\PSoC4/BLE.c ****       Errors codes                        Description
 489:.\Generated_Source\PSoC4/BLE.c ****       ------------                        -----------
 490:.\Generated_Source\PSoC4/BLE.c ****       CYBLE_ERROR_OK                      On successful operation.
 491:.\Generated_Source\PSoC4/BLE.c ****       CYBLE_ERROR_INVALID_PARAMETER       On passing an invalid parameter.
 492:.\Generated_Source\PSoC4/BLE.c ****      </table>
 493:.\Generated_Source\PSoC4/BLE.c ****     
 494:.\Generated_Source\PSoC4/BLE.c ****     ******************************************************************************/
 495:.\Generated_Source\PSoC4/BLE.c ****     CYBLE_API_RESULT_T CyBle_GappStartAdvertisement(uint8 advertisingIntervalType)
 496:.\Generated_Source\PSoC4/BLE.c ****     {
 357              		.loc 1 496 0
 358              		.cfi_startproc
 359 0000 90B5     		push	{r4, r7, lr}
ARM GAS  C:\Users\raypa\AppData\Local\Temp\ccMTDWHp.s 			page 16


 360              		.cfi_def_cfa_offset 12
 361              		.cfi_offset 4, -12
 362              		.cfi_offset 7, -8
 363              		.cfi_offset 14, -4
 364 0002 85B0     		sub	sp, sp, #20
 365              		.cfi_def_cfa_offset 32
 366 0004 00AF     		add	r7, sp, #0
 367              		.cfi_def_cfa_register 7
 368 0006 021C     		mov	r2, r0
 369 0008 FB1D     		add	r3, r7, #7
 370 000a 1A70     		strb	r2, [r3]
 497:.\Generated_Source\PSoC4/BLE.c ****         CYBLE_API_RESULT_T apiResult;
 498:.\Generated_Source\PSoC4/BLE.c ****         
 499:.\Generated_Source\PSoC4/BLE.c ****         if((CYBLE_STATE_DISCONNECTED == CyBle_GetState()) && ((cyBle_eventHandlerFlag & CYBLE_START
 371              		.loc 1 499 0
 372 000c 294B     		ldr	r3, .L21
 373 000e 1B78     		ldrb	r3, [r3]
 374 0010 042B     		cmp	r3, #4
 375 0012 42D1     		bne	.L15
 376              		.loc 1 499 0 is_stmt 0 discriminator 1
 377 0014 284B     		ldr	r3, .L21+4
 378 0016 1B78     		ldrb	r3, [r3]
 379 0018 DBB2     		uxtb	r3, r3
 380 001a 1A1C     		mov	r2, r3
 381 001c 0423     		mov	r3, #4
 382 001e 1340     		and	r3, r2
 383 0020 3BD1     		bne	.L15
 500:.\Generated_Source\PSoC4/BLE.c ****         {   
 501:.\Generated_Source\PSoC4/BLE.c ****             if(advertisingIntervalType == CYBLE_ADVERTISING_FAST)
 384              		.loc 1 501 0 is_stmt 1
 385 0022 FB1D     		add	r3, r7, #7
 386 0024 1B78     		ldrb	r3, [r3]
 387 0026 002B     		cmp	r3, #0
 388 0028 0BD1     		bne	.L16
 502:.\Generated_Source\PSoC4/BLE.c ****             {
 503:.\Generated_Source\PSoC4/BLE.c ****                 cyBle_discoveryModeInfo.advTo = CYBLE_FAST_ADV_TIMEOUT;
 389              		.loc 1 503 0
 390 002a 244B     		ldr	r3, .L21+8
 391 002c 1E22     		mov	r2, #30
 392 002e 1A82     		strh	r2, [r3, #16]
 504:.\Generated_Source\PSoC4/BLE.c ****                 cyBle_discoveryModeInfo.advParam->advIntvMin = CYBLE_FAST_ADV_INT_MIN;
 393              		.loc 1 504 0
 394 0030 224B     		ldr	r3, .L21+8
 395 0032 5B68     		ldr	r3, [r3, #4]
 396 0034 2022     		mov	r2, #32
 397 0036 1A80     		strh	r2, [r3]
 505:.\Generated_Source\PSoC4/BLE.c ****                 cyBle_discoveryModeInfo.advParam->advIntvMax = CYBLE_FAST_ADV_INT_MAX;
 398              		.loc 1 505 0
 399 0038 204B     		ldr	r3, .L21+8
 400 003a 5B68     		ldr	r3, [r3, #4]
 401 003c 3022     		mov	r2, #48
 402 003e 5A80     		strh	r2, [r3, #2]
 403 0040 10E0     		b	.L17
 404              	.L16:
 506:.\Generated_Source\PSoC4/BLE.c ****             }
 507:.\Generated_Source\PSoC4/BLE.c ****             else if(advertisingIntervalType == CYBLE_ADVERTISING_SLOW)
 405              		.loc 1 507 0
ARM GAS  C:\Users\raypa\AppData\Local\Temp\ccMTDWHp.s 			page 17


 406 0042 FB1D     		add	r3, r7, #7
 407 0044 1B78     		ldrb	r3, [r3]
 408 0046 012B     		cmp	r3, #1
 409 0048 0CD1     		bne	.L17
 508:.\Generated_Source\PSoC4/BLE.c ****             {
 509:.\Generated_Source\PSoC4/BLE.c ****                 cyBle_discoveryModeInfo.advTo = CYBLE_SLOW_ADV_TIMEOUT;
 410              		.loc 1 509 0
 411 004a 1C4B     		ldr	r3, .L21+8
 412 004c 9622     		mov	r2, #150
 413 004e 1A82     		strh	r2, [r3, #16]
 510:.\Generated_Source\PSoC4/BLE.c ****                 cyBle_discoveryModeInfo.advParam->advIntvMin = CYBLE_SLOW_ADV_INT_MIN;
 414              		.loc 1 510 0
 415 0050 1A4B     		ldr	r3, .L21+8
 416 0052 5B68     		ldr	r3, [r3, #4]
 417 0054 C822     		mov	r2, #200
 418 0056 D200     		lsl	r2, r2, #3
 419 0058 1A80     		strh	r2, [r3]
 511:.\Generated_Source\PSoC4/BLE.c ****                 cyBle_discoveryModeInfo.advParam->advIntvMax = CYBLE_SLOW_ADV_INT_MAX;
 420              		.loc 1 511 0
 421 005a 184B     		ldr	r3, .L21+8
 422 005c 5B68     		ldr	r3, [r3, #4]
 423 005e 8022     		mov	r2, #128
 424 0060 D201     		lsl	r2, r2, #7
 425 0062 5A80     		strh	r2, [r3, #2]
 426              	.L17:
 512:.\Generated_Source\PSoC4/BLE.c ****             }       
 513:.\Generated_Source\PSoC4/BLE.c ****             else /* Do not update advertising intervals */
 514:.\Generated_Source\PSoC4/BLE.c ****             {
 515:.\Generated_Source\PSoC4/BLE.c ****             }
 516:.\Generated_Source\PSoC4/BLE.c ****             cyBle_advertisingIntervalType = advertisingIntervalType;
 427              		.loc 1 516 0
 428 0064 164B     		ldr	r3, .L21+12
 429 0066 FA1D     		add	r2, r7, #7
 430 0068 1278     		ldrb	r2, [r2]
 431 006a 1A70     		strb	r2, [r3]
 517:.\Generated_Source\PSoC4/BLE.c ****             apiResult = CyBle_GappEnterDiscoveryMode(&cyBle_discoveryModeInfo);
 432              		.loc 1 517 0
 433 006c 0E23     		mov	r3, #14
 434 006e FC18     		add	r4, r7, r3
 435 0070 124B     		ldr	r3, .L21+8
 436 0072 181C     		mov	r0, r3
 437 0074 FFF7FEFF 		bl	CyBle_GappEnterDiscoveryMode
 438 0078 031C     		mov	r3, r0
 439 007a 2380     		strh	r3, [r4]
 518:.\Generated_Source\PSoC4/BLE.c ****         
 519:.\Generated_Source\PSoC4/BLE.c ****             if(CYBLE_ERROR_OK == apiResult)
 440              		.loc 1 519 0
 441 007c 0E23     		mov	r3, #14
 442 007e FB18     		add	r3, r7, r3
 443 0080 1B88     		ldrh	r3, [r3]
 444 0082 002B     		cmp	r3, #0
 445 0084 08D1     		bne	.L18
 520:.\Generated_Source\PSoC4/BLE.c ****             {
 521:.\Generated_Source\PSoC4/BLE.c ****                 cyBle_eventHandlerFlag |= CYBLE_START_FLAG;
 446              		.loc 1 521 0
 447 0086 0C4B     		ldr	r3, .L21+4
 448 0088 1B78     		ldrb	r3, [r3]
ARM GAS  C:\Users\raypa\AppData\Local\Temp\ccMTDWHp.s 			page 18


 449 008a DBB2     		uxtb	r3, r3
 450 008c 0422     		mov	r2, #4
 451 008e 1343     		orr	r3, r2
 452 0090 DAB2     		uxtb	r2, r3
 453 0092 094B     		ldr	r3, .L21+4
 454 0094 1A70     		strb	r2, [r3]
 519:.\Generated_Source\PSoC4/BLE.c ****             {
 455              		.loc 1 519 0
 456 0096 05E0     		b	.L19
 457              	.L18:
 458 0098 04E0     		b	.L19
 459              	.L15:
 522:.\Generated_Source\PSoC4/BLE.c ****             }
 523:.\Generated_Source\PSoC4/BLE.c ****         }
 524:.\Generated_Source\PSoC4/BLE.c ****         else
 525:.\Generated_Source\PSoC4/BLE.c ****         {
 526:.\Generated_Source\PSoC4/BLE.c ****             apiResult = CYBLE_ERROR_INVALID_STATE;
 460              		.loc 1 526 0
 461 009a 0E23     		mov	r3, #14
 462 009c FB18     		add	r3, r7, r3
 463 009e 8322     		mov	r2, #131
 464 00a0 5200     		lsl	r2, r2, #1
 465 00a2 1A80     		strh	r2, [r3]
 466              	.L19:
 527:.\Generated_Source\PSoC4/BLE.c ****         }
 528:.\Generated_Source\PSoC4/BLE.c **** 
 529:.\Generated_Source\PSoC4/BLE.c ****         return (apiResult);
 467              		.loc 1 529 0
 468 00a4 0E23     		mov	r3, #14
 469 00a6 FB18     		add	r3, r7, r3
 470 00a8 1B88     		ldrh	r3, [r3]
 530:.\Generated_Source\PSoC4/BLE.c ****     }
 471              		.loc 1 530 0
 472 00aa 181C     		mov	r0, r3
 473 00ac BD46     		mov	sp, r7
 474 00ae 05B0     		add	sp, sp, #20
 475              		@ sp needed
 476 00b0 90BD     		pop	{r4, r7, pc}
 477              	.L22:
 478 00b2 C046     		.align	2
 479              	.L21:
 480 00b4 00000000 		.word	cyBle_state
 481 00b8 00000000 		.word	cyBle_eventHandlerFlag
 482 00bc 00000000 		.word	cyBle_discoveryModeInfo
 483 00c0 00000000 		.word	cyBle_advertisingIntervalType
 484              		.cfi_endproc
 485              	.LFE6:
 486              		.size	CyBle_GappStartAdvertisement, .-CyBle_GappStartAdvertisement
 487              		.section	.text.CyBle_GappStopAdvertisement,"ax",%progbits
 488              		.align	2
 489              		.global	CyBle_GappStopAdvertisement
 490              		.code	16
 491              		.thumb_func
 492              		.type	CyBle_GappStopAdvertisement, %function
 493              	CyBle_GappStopAdvertisement:
 494              	.LFB7:
 531:.\Generated_Source\PSoC4/BLE.c **** 
ARM GAS  C:\Users\raypa\AppData\Local\Temp\ccMTDWHp.s 			page 19


 532:.\Generated_Source\PSoC4/BLE.c ****     
 533:.\Generated_Source\PSoC4/BLE.c ****     /******************************************************************************
 534:.\Generated_Source\PSoC4/BLE.c ****     ##Function Name: CyBle_GappStopAdvertisement
 535:.\Generated_Source\PSoC4/BLE.c ****     *******************************************************************************
 536:.\Generated_Source\PSoC4/BLE.c ****     
 537:.\Generated_Source\PSoC4/BLE.c ****      Summary:
 538:.\Generated_Source\PSoC4/BLE.c ****       This function can be used to exit from discovery mode. After the execution 
 539:.\Generated_Source\PSoC4/BLE.c ****       of this function, there will no longer be any advertisements. On stopping 
 540:.\Generated_Source\PSoC4/BLE.c ****       advertising, GAP Peripheral receives CYBLE_EVT_GAPP_ADVERTISEMENT_START_STOP
 541:.\Generated_Source\PSoC4/BLE.c ****       event. It is expected that the application layer tracks the function call 
 542:.\Generated_Source\PSoC4/BLE.c ****       performed before occurrence of this event as this event can occur on making 
 543:.\Generated_Source\PSoC4/BLE.c ****       a call to Cy_BleGappStartAdvertisement(), CyBle_GappEnterDiscoveryMode(), 
 544:.\Generated_Source\PSoC4/BLE.c ****       or CyBle_GappStartAdvertisement() functions as well.
 545:.\Generated_Source\PSoC4/BLE.c ****       
 546:.\Generated_Source\PSoC4/BLE.c ****       The following event occurs on invoking this function:
 547:.\Generated_Source\PSoC4/BLE.c ****       * CYBLE_EVT_GAPP_ADVERTISEMENT_START_STOP
 548:.\Generated_Source\PSoC4/BLE.c ****     
 549:.\Generated_Source\PSoC4/BLE.c ****      Parameters:
 550:.\Generated_Source\PSoC4/BLE.c ****       None
 551:.\Generated_Source\PSoC4/BLE.c ****     
 552:.\Generated_Source\PSoC4/BLE.c ****      Return:
 553:.\Generated_Source\PSoC4/BLE.c ****       None
 554:.\Generated_Source\PSoC4/BLE.c ****     
 555:.\Generated_Source\PSoC4/BLE.c ****     ******************************************************************************/
 556:.\Generated_Source\PSoC4/BLE.c ****     void CyBle_GappStopAdvertisement(void)
 557:.\Generated_Source\PSoC4/BLE.c ****     {
 495              		.loc 1 557 0
 496              		.cfi_startproc
 497 0000 80B5     		push	{r7, lr}
 498              		.cfi_def_cfa_offset 8
 499              		.cfi_offset 7, -8
 500              		.cfi_offset 14, -4
 501 0002 00AF     		add	r7, sp, #0
 502              		.cfi_def_cfa_register 7
 558:.\Generated_Source\PSoC4/BLE.c ****         CyBle_GappExitDiscoveryMode();
 503              		.loc 1 558 0
 504 0004 FFF7FEFF 		bl	CyBle_GappExitDiscoveryMode
 559:.\Generated_Source\PSoC4/BLE.c ****         cyBle_eventHandlerFlag |= CYBLE_STOP_FLAG;
 505              		.loc 1 559 0
 506 0008 044B     		ldr	r3, .L24
 507 000a 1B78     		ldrb	r3, [r3]
 508 000c DBB2     		uxtb	r3, r3
 509 000e 0822     		mov	r2, #8
 510 0010 1343     		orr	r3, r2
 511 0012 DAB2     		uxtb	r2, r3
 512 0014 014B     		ldr	r3, .L24
 513 0016 1A70     		strb	r2, [r3]
 560:.\Generated_Source\PSoC4/BLE.c ****     }
 514              		.loc 1 560 0
 515 0018 BD46     		mov	sp, r7
 516              		@ sp needed
 517 001a 80BD     		pop	{r7, pc}
 518              	.L25:
 519              		.align	2
 520              	.L24:
 521 001c 00000000 		.word	cyBle_eventHandlerFlag
 522              		.cfi_endproc
ARM GAS  C:\Users\raypa\AppData\Local\Temp\ccMTDWHp.s 			page 20


 523              	.LFE7:
 524              		.size	CyBle_GappStopAdvertisement, .-CyBle_GappStopAdvertisement
 525              		.section	.text.CyBle_ChangeAdLocalName,"ax",%progbits
 526              		.align	2
 527              		.code	16
 528              		.thumb_func
 529              		.type	CyBle_ChangeAdLocalName, %function
 530              	CyBle_ChangeAdLocalName:
 531              	.LFB8:
 561:.\Generated_Source\PSoC4/BLE.c ****     
 562:.\Generated_Source\PSoC4/BLE.c **** #endif /* CYBLE_GAP_ROLE_PERIPHERAL || CYBLE_GAP_ROLE_BROADCASTER */
 563:.\Generated_Source\PSoC4/BLE.c **** 
 564:.\Generated_Source\PSoC4/BLE.c **** 
 565:.\Generated_Source\PSoC4/BLE.c **** #if(CYBLE_GAP_ROLE_CENTRAL || CYBLE_GAP_ROLE_OBSERVER)
 566:.\Generated_Source\PSoC4/BLE.c **** 
 567:.\Generated_Source\PSoC4/BLE.c ****     /******************************************************************************
 568:.\Generated_Source\PSoC4/BLE.c ****     ##Function Name: CyBle_GapcStartScan
 569:.\Generated_Source\PSoC4/BLE.c ****     *******************************************************************************
 570:.\Generated_Source\PSoC4/BLE.c ****     
 571:.\Generated_Source\PSoC4/BLE.c ****      Summary:
 572:.\Generated_Source\PSoC4/BLE.c ****       This function is used for discovering GAP peripheral devices that are 
 573:.\Generated_Source\PSoC4/BLE.c ****       available for connection. It performs the scanning routine using the 
 574:.\Generated_Source\PSoC4/BLE.c ****       parameters entered in the component's customizer.
 575:.\Generated_Source\PSoC4/BLE.c ****       
 576:.\Generated_Source\PSoC4/BLE.c ****       As soon as the discovery operation starts, CYBLE_EVT_GAPC_SCAN_START_STOP 
 577:.\Generated_Source\PSoC4/BLE.c ****       event is generated. The CYBLE_EVT_GAPC_SCAN_PROGRESS_RESULT event is 
 578:.\Generated_Source\PSoC4/BLE.c ****       generated when a GAP peripheral device is located. There are three discovery
 579:.\Generated_Source\PSoC4/BLE.c ****       procedures can be selected in the customizer's GUI:
 580:.\Generated_Source\PSoC4/BLE.c ****       
 581:.\Generated_Source\PSoC4/BLE.c ****       * Observation procedure: A device performing the observer role receives only
 582:.\Generated_Source\PSoC4/BLE.c ****                                advertisement data from devices irrespective of 
 583:.\Generated_Source\PSoC4/BLE.c ****                                their discoverable mode settings. Advertisement 
 584:.\Generated_Source\PSoC4/BLE.c ****                                data received is provided by the event,      
 585:.\Generated_Source\PSoC4/BLE.c ****                                CYBLE_EVT_GAPC_SCAN_PROGRESS_RESULT. This procedure
 586:.\Generated_Source\PSoC4/BLE.c ****                                requires the scanType sub parameter to be passive
 587:.\Generated_Source\PSoC4/BLE.c ****                                scanning. 
 588:.\Generated_Source\PSoC4/BLE.c ****       
 589:.\Generated_Source\PSoC4/BLE.c ****       * Limited Discovery procedure: A device performing the limited discovery
 590:.\Generated_Source\PSoC4/BLE.c ****                                      procedure receives advertisement data and 
 591:.\Generated_Source\PSoC4/BLE.c ****                                      scan# response data from devices in the 
 592:.\Generated_Source\PSoC4/BLE.c ****                                      limited discoverable mode only. Received data
 593:.\Generated_Source\PSoC4/BLE.c ****                                      is provided by the event, 
 594:.\Generated_Source\PSoC4/BLE.c ****                                      CYBLE_EVT_GAPC_SCAN_PROGRESS_RESULT. This 
 595:.\Generated_Source\PSoC4/BLE.c ****                                      procedure requires the scanType sub-parameter 
 596:.\Generated_Source\PSoC4/BLE.c ****                                      to be active scanning.
 597:.\Generated_Source\PSoC4/BLE.c ****       
 598:.\Generated_Source\PSoC4/BLE.c ****       * General Discovery procedure: A device performing the general discovery 
 599:.\Generated_Source\PSoC4/BLE.c ****                                      procedure receives the advertisement data and
 600:.\Generated_Source\PSoC4/BLE.c ****                                      scan response data from devices in both 
 601:.\Generated_Source\PSoC4/BLE.c ****                                      limited discoverable mode and the general 
 602:.\Generated_Source\PSoC4/BLE.c ****                                      discoverable mode. Received data is provided
 603:.\Generated_Source\PSoC4/BLE.c ****                                      by the event,
 604:.\Generated_Source\PSoC4/BLE.c ****                                      CYBLE_EVT_GAPC_SCAN_PROGRESS_RESULT. This 
 605:.\Generated_Source\PSoC4/BLE.c ****                                      procedure requires the scanType sub-parameter
 606:.\Generated_Source\PSoC4/BLE.c ****                                      to be active scanning.
 607:.\Generated_Source\PSoC4/BLE.c ****       
 608:.\Generated_Source\PSoC4/BLE.c ****       Every Advertisement / Scan response packet received results in a new event, 
ARM GAS  C:\Users\raypa\AppData\Local\Temp\ccMTDWHp.s 			page 21


 609:.\Generated_Source\PSoC4/BLE.c ****       CYBLE_EVT_GAPC_SCAN_PROGRESS_RESULT.
 610:.\Generated_Source\PSoC4/BLE.c ****       If 'scanTo' sub-parameter is a non-zero value, then upon commencement of 
 611:.\Generated_Source\PSoC4/BLE.c ****       discovery procedure and elapsed time = 'scanTo', CYBLE_EVT_TIMEOUT event
 612:.\Generated_Source\PSoC4/BLE.c ****       is generated with the event parameter indicating CYBLE_GAP_SCAN_TO.
 613:.\Generated_Source\PSoC4/BLE.c ****       Possible generated events are:
 614:.\Generated_Source\PSoC4/BLE.c ****       * CYBLE_EVT_GAPC_SCAN_START_STOP: If a device started or stopped scanning. 
 615:.\Generated_Source\PSoC4/BLE.c ****                                         Use CyBle_GetState() to determine the 
 616:.\Generated_Source\PSoC4/BLE.c ****                                         state. Sequential scanning could be 
 617:.\Generated_Source\PSoC4/BLE.c ****                                         started when CYBLE_STATE_DISCONNECTED 
 618:.\Generated_Source\PSoC4/BLE.c ****                                         state is returned. 
 619:.\Generated_Source\PSoC4/BLE.c ****       * CYBLE_EVT_GAPC_SCAN_PROGRESS_RESULT 
 620:.\Generated_Source\PSoC4/BLE.c ****       * CYBLE_EVT_TIMEOUT (CYBLE_GAP_SCAN_TO)
 621:.\Generated_Source\PSoC4/BLE.c ****     
 622:.\Generated_Source\PSoC4/BLE.c ****      Parameters:
 623:.\Generated_Source\PSoC4/BLE.c ****       uint8 scanningIntervalType:  Fast or slow scanning interval with
 624:.\Generated_Source\PSoC4/BLE.c ****           timings entered in Scan settings section of the customiser.
 625:.\Generated_Source\PSoC4/BLE.c ****     	  * CYBLE_SCANNING_FAST   0x00u
 626:.\Generated_Source\PSoC4/BLE.c ****     	  * CYBLE_SCANNING_SLOW   0x01u
 627:.\Generated_Source\PSoC4/BLE.c ****     	  * CYBLE_SCANNING_CUSTOM 0x02u
 628:.\Generated_Source\PSoC4/BLE.c ****     
 629:.\Generated_Source\PSoC4/BLE.c ****     Return:
 630:.\Generated_Source\PSoC4/BLE.c ****      CYBLE_API_RESULT_T : Return value indicates if the function succeeded or
 631:.\Generated_Source\PSoC4/BLE.c ****      failed. Following are the possible error codes.
 632:.\Generated_Source\PSoC4/BLE.c ****      <table>
 633:.\Generated_Source\PSoC4/BLE.c ****       Errors codes                        Values  Description
 634:.\Generated_Source\PSoC4/BLE.c ****       ------------                        ------  -----------
 635:.\Generated_Source\PSoC4/BLE.c ****       CYBLE_ERROR_OK                      0x0000  On successful operation.
 636:.\Generated_Source\PSoC4/BLE.c ****       CYBLE_ERROR_STACK_INTERNAL          0x0003  An error occurred in the 
 637:.\Generated_Source\PSoC4/BLE.c ****                                                    BLE stack.
 638:.\Generated_Source\PSoC4/BLE.c ****      </table>
 639:.\Generated_Source\PSoC4/BLE.c ****      
 640:.\Generated_Source\PSoC4/BLE.c ****     ******************************************************************************/
 641:.\Generated_Source\PSoC4/BLE.c ****     CYBLE_API_RESULT_T CyBle_GapcStartScan(uint8 scanningIntervalType)
 642:.\Generated_Source\PSoC4/BLE.c ****     {
 643:.\Generated_Source\PSoC4/BLE.c ****         CYBLE_API_RESULT_T apiResult;
 644:.\Generated_Source\PSoC4/BLE.c **** 
 645:.\Generated_Source\PSoC4/BLE.c ****         if(scanningIntervalType == CYBLE_SCANNING_FAST)
 646:.\Generated_Source\PSoC4/BLE.c ****         {
 647:.\Generated_Source\PSoC4/BLE.c ****             cyBle_discoveryInfo.scanTo = CYBLE_FAST_SCAN_TIMEOUT;
 648:.\Generated_Source\PSoC4/BLE.c ****             cyBle_discoveryInfo.scanIntv = CYBLE_FAST_SCAN_INTERVAL;
 649:.\Generated_Source\PSoC4/BLE.c ****             cyBle_discoveryInfo.scanWindow = CYBLE_FAST_SCAN_WINDOW;
 650:.\Generated_Source\PSoC4/BLE.c ****         }
 651:.\Generated_Source\PSoC4/BLE.c ****         else if(scanningIntervalType == CYBLE_SCANNING_SLOW)
 652:.\Generated_Source\PSoC4/BLE.c ****         {
 653:.\Generated_Source\PSoC4/BLE.c ****             cyBle_discoveryInfo.scanTo = CYBLE_SLOW_SCAN_TIMEOUT;
 654:.\Generated_Source\PSoC4/BLE.c ****             cyBle_discoveryInfo.scanIntv = CYBLE_SLOW_SCAN_INTERVAL;
 655:.\Generated_Source\PSoC4/BLE.c ****             cyBle_discoveryInfo.scanWindow = CYBLE_SLOW_SCAN_WINDOW;
 656:.\Generated_Source\PSoC4/BLE.c ****         }       
 657:.\Generated_Source\PSoC4/BLE.c ****         else /* Do not update scanning intervals */
 658:.\Generated_Source\PSoC4/BLE.c ****         {
 659:.\Generated_Source\PSoC4/BLE.c ****         }
 660:.\Generated_Source\PSoC4/BLE.c ****         
 661:.\Generated_Source\PSoC4/BLE.c ****         cyBle_scanningIntervalType = scanningIntervalType;
 662:.\Generated_Source\PSoC4/BLE.c ****         apiResult = CyBle_GapcStartDiscovery(&cyBle_discoveryInfo);
 663:.\Generated_Source\PSoC4/BLE.c ****     
 664:.\Generated_Source\PSoC4/BLE.c ****         if(CYBLE_ERROR_OK == apiResult)
 665:.\Generated_Source\PSoC4/BLE.c ****         {
ARM GAS  C:\Users\raypa\AppData\Local\Temp\ccMTDWHp.s 			page 22


 666:.\Generated_Source\PSoC4/BLE.c ****             cyBle_eventHandlerFlag |= CYBLE_START_FLAG;
 667:.\Generated_Source\PSoC4/BLE.c ****         }
 668:.\Generated_Source\PSoC4/BLE.c ****        
 669:.\Generated_Source\PSoC4/BLE.c ****         return (apiResult);
 670:.\Generated_Source\PSoC4/BLE.c ****     }
 671:.\Generated_Source\PSoC4/BLE.c ****     
 672:.\Generated_Source\PSoC4/BLE.c ****     
 673:.\Generated_Source\PSoC4/BLE.c ****     /******************************************************************************
 674:.\Generated_Source\PSoC4/BLE.c ****     ##Function Name: CyBle_GapcStopScan
 675:.\Generated_Source\PSoC4/BLE.c ****     *******************************************************************************
 676:.\Generated_Source\PSoC4/BLE.c ****     
 677:.\Generated_Source\PSoC4/BLE.c ****      Summary:
 678:.\Generated_Source\PSoC4/BLE.c ****       This function used to stop the discovery of devices. On stopping discovery
 679:.\Generated_Source\PSoC4/BLE.c ****       operation, CYBLE_EVT_GAPC_SCAN_START_STOP event is generated. Application
 680:.\Generated_Source\PSoC4/BLE.c ****       layer needs to keep track of the function call made before receiving this
 681:.\Generated_Source\PSoC4/BLE.c ****       event to associate this event with either the start or stop discovery
 682:.\Generated_Source\PSoC4/BLE.c ****       function.
 683:.\Generated_Source\PSoC4/BLE.c ****     
 684:.\Generated_Source\PSoC4/BLE.c ****       Possible events generated are:
 685:.\Generated_Source\PSoC4/BLE.c ****        * CYBLE_EVT_GAPC_SCAN_START_STOP
 686:.\Generated_Source\PSoC4/BLE.c ****     
 687:.\Generated_Source\PSoC4/BLE.c ****      Parameters:
 688:.\Generated_Source\PSoC4/BLE.c ****       None
 689:.\Generated_Source\PSoC4/BLE.c ****     
 690:.\Generated_Source\PSoC4/BLE.c ****      Return:
 691:.\Generated_Source\PSoC4/BLE.c ****       None
 692:.\Generated_Source\PSoC4/BLE.c ****     
 693:.\Generated_Source\PSoC4/BLE.c ****     ******************************************************************************/
 694:.\Generated_Source\PSoC4/BLE.c ****     void CyBle_GapcStopScan(void)
 695:.\Generated_Source\PSoC4/BLE.c ****     {
 696:.\Generated_Source\PSoC4/BLE.c ****         CyBle_GapcStopDiscovery();
 697:.\Generated_Source\PSoC4/BLE.c ****         
 698:.\Generated_Source\PSoC4/BLE.c ****         cyBle_eventHandlerFlag |= CYBLE_STOP_FLAG;
 699:.\Generated_Source\PSoC4/BLE.c ****     }
 700:.\Generated_Source\PSoC4/BLE.c **** 
 701:.\Generated_Source\PSoC4/BLE.c ****     
 702:.\Generated_Source\PSoC4/BLE.c **** #endif /* CYBLE_GAP_ROLE_CENTRAL || CYBLE_GAP_ROLE_OBSERVER */
 703:.\Generated_Source\PSoC4/BLE.c **** 
 704:.\Generated_Source\PSoC4/BLE.c **** 
 705:.\Generated_Source\PSoC4/BLE.c **** #if(CYBLE_GAP_ROLE_CENTRAL)
 706:.\Generated_Source\PSoC4/BLE.c **** 
 707:.\Generated_Source\PSoC4/BLE.c ****     /******************************************************************************
 708:.\Generated_Source\PSoC4/BLE.c ****     ##Function Name: CyBle_GapcConnectDevice
 709:.\Generated_Source\PSoC4/BLE.c ****     *******************************************************************************
 710:.\Generated_Source\PSoC4/BLE.c ****     
 711:.\Generated_Source\PSoC4/BLE.c ****     Summary:
 712:.\Generated_Source\PSoC4/BLE.c ****      This function is used to send a connection request to the remote device with
 713:.\Generated_Source\PSoC4/BLE.c ****      the connection parameters set in the component customizer. This function needs
 714:.\Generated_Source\PSoC4/BLE.c ****      to be called only once after the target device is discovered by 
 715:.\Generated_Source\PSoC4/BLE.c ****      CyBle_GapcStartScan() and further scanning has stopped. Scanning is 
 716:.\Generated_Source\PSoC4/BLE.c ****      successfully stopped on invoking CyBle_GapcStopScan() and then receiving the
 717:.\Generated_Source\PSoC4/BLE.c ****      event CYBLE_EVT_GAPC_SCAN_START_STOP with sub-parameter 'success' = 0x01u.
 718:.\Generated_Source\PSoC4/BLE.c ****      
 719:.\Generated_Source\PSoC4/BLE.c ****      On successful connection, the following events are generated at the GAP 
 720:.\Generated_Source\PSoC4/BLE.c ****      Central device (as well as the GAP Peripheral device), in the following order.
 721:.\Generated_Source\PSoC4/BLE.c ****      * CYBLE_EVT_GATT_CONNECT_IND
 722:.\Generated_Source\PSoC4/BLE.c ****      * CYBLE_EVT_GAP_DEVICE_CONNECTED
ARM GAS  C:\Users\raypa\AppData\Local\Temp\ccMTDWHp.s 			page 23


 723:.\Generated_Source\PSoC4/BLE.c ****  
 724:.\Generated_Source\PSoC4/BLE.c ****      A procedure is considered to have timed out if a connection response packet is 
 725:.\Generated_Source\PSoC4/BLE.c ****      not received within time set by cyBle_connectingTimeout global variable
 726:.\Generated_Source\PSoC4/BLE.c ****      (30 seconds by default). CYBLE_EVT_TIMEOUT event with CYBLE_GENERIC_TO parameter
 727:.\Generated_Source\PSoC4/BLE.c ****      will indicate about connection procedure timeout. Connection will automatically
 728:.\Generated_Source\PSoC4/BLE.c ****      be cancelled and state will be changed to CYBLE_STATE_DISCONNECTED.
 729:.\Generated_Source\PSoC4/BLE.c ****     
 730:.\Generated_Source\PSoC4/BLE.c ****     Parameters:
 731:.\Generated_Source\PSoC4/BLE.c ****      const CYBLE_GAP_BD_ADDR_T address: The device address of the remote device to 
 732:.\Generated_Source\PSoC4/BLE.c ****                                         connect to. 
 733:.\Generated_Source\PSoC4/BLE.c ****      timeout: Timeout for which timer to be started in seconds.
 734:.\Generated_Source\PSoC4/BLE.c ****  
 735:.\Generated_Source\PSoC4/BLE.c ****     Return:
 736:.\Generated_Source\PSoC4/BLE.c ****      CYBLE_API_RESULT_T : Return value indicates if the function succeeded or 
 737:.\Generated_Source\PSoC4/BLE.c ****      failed. Following are the possible error codes.
 738:.\Generated_Source\PSoC4/BLE.c ****      <table>
 739:.\Generated_Source\PSoC4/BLE.c ****       Errors codes                        Description
 740:.\Generated_Source\PSoC4/BLE.c ****       ------------                        -----------
 741:.\Generated_Source\PSoC4/BLE.c ****       CYBLE_ERROR_OK                      On successful operation.
 742:.\Generated_Source\PSoC4/BLE.c ****       CYBLE_ERROR_STACK_INTERNAL          On error occurred in the 
 743:.\Generated_Source\PSoC4/BLE.c ****                                            BLE stack.
 744:.\Generated_Source\PSoC4/BLE.c ****       CYBLE_ERROR_INVALID_PARAMETER       On specifying NULL as input
 745:.\Generated_Source\PSoC4/BLE.c ****                                            parameter for 'scanInfo' or if
 746:.\Generated_Source\PSoC4/BLE.c ****                                            any element with in 'scanInfo'
 747:.\Generated_Source\PSoC4/BLE.c ****                                            has an invalid value.
 748:.\Generated_Source\PSoC4/BLE.c ****      </table>
 749:.\Generated_Source\PSoC4/BLE.c ****  
 750:.\Generated_Source\PSoC4/BLE.c ****     ******************************************************************************/
 751:.\Generated_Source\PSoC4/BLE.c ****     CYBLE_API_RESULT_T CyBle_GapcConnectDevice(const CYBLE_GAP_BD_ADDR_T * address)
 752:.\Generated_Source\PSoC4/BLE.c ****     {
 753:.\Generated_Source\PSoC4/BLE.c ****         CYBLE_API_RESULT_T apiResult;
 754:.\Generated_Source\PSoC4/BLE.c ****         uint8 i;
 755:.\Generated_Source\PSoC4/BLE.c **** 
 756:.\Generated_Source\PSoC4/BLE.c ****         if(CYBLE_STATE_DISCONNECTED != CyBle_GetState())
 757:.\Generated_Source\PSoC4/BLE.c ****         {
 758:.\Generated_Source\PSoC4/BLE.c ****             apiResult = CYBLE_ERROR_INVALID_STATE;
 759:.\Generated_Source\PSoC4/BLE.c ****         }
 760:.\Generated_Source\PSoC4/BLE.c ****         else if(address == NULL)
 761:.\Generated_Source\PSoC4/BLE.c ****         {
 762:.\Generated_Source\PSoC4/BLE.c ****             apiResult = CYBLE_ERROR_INVALID_PARAMETER;
 763:.\Generated_Source\PSoC4/BLE.c ****         }
 764:.\Generated_Source\PSoC4/BLE.c ****         else
 765:.\Generated_Source\PSoC4/BLE.c ****         {
 766:.\Generated_Source\PSoC4/BLE.c ****             for(i = 0u; i < CYBLE_GAP_BD_ADDR_SIZE; i++)
 767:.\Generated_Source\PSoC4/BLE.c ****             {
 768:.\Generated_Source\PSoC4/BLE.c ****                 cyBle_connectionParameters.peerBdAddr[i] = address->bdAddr[i];
 769:.\Generated_Source\PSoC4/BLE.c ****             }
 770:.\Generated_Source\PSoC4/BLE.c ****             cyBle_connectionParameters.peerAddrType = address -> type;
 771:.\Generated_Source\PSoC4/BLE.c ****             apiResult = CyBle_GapcInitConnection(&cyBle_connectionParameters);
 772:.\Generated_Source\PSoC4/BLE.c ****             
 773:.\Generated_Source\PSoC4/BLE.c ****             if(CYBLE_ERROR_OK == apiResult)
 774:.\Generated_Source\PSoC4/BLE.c ****             {
 775:.\Generated_Source\PSoC4/BLE.c ****                 CyBle_SetState(CYBLE_STATE_CONNECTING);
 776:.\Generated_Source\PSoC4/BLE.c ****                 if(cyBle_connectingTimeout != 0u)
 777:.\Generated_Source\PSoC4/BLE.c ****                 {
 778:.\Generated_Source\PSoC4/BLE.c ****                     (void)CyBle_StartTimer(cyBle_connectingTimeout);
 779:.\Generated_Source\PSoC4/BLE.c ****                 }
ARM GAS  C:\Users\raypa\AppData\Local\Temp\ccMTDWHp.s 			page 24


 780:.\Generated_Source\PSoC4/BLE.c ****             }
 781:.\Generated_Source\PSoC4/BLE.c ****         }
 782:.\Generated_Source\PSoC4/BLE.c ****         return (apiResult);
 783:.\Generated_Source\PSoC4/BLE.c ****     }
 784:.\Generated_Source\PSoC4/BLE.c ****     
 785:.\Generated_Source\PSoC4/BLE.c **** 
 786:.\Generated_Source\PSoC4/BLE.c ****     /******************************************************************************
 787:.\Generated_Source\PSoC4/BLE.c ****     ##Function Name: CyBle_GapcCancelDeviceConnection
 788:.\Generated_Source\PSoC4/BLE.c ****     *******************************************************************************
 789:.\Generated_Source\PSoC4/BLE.c ****     
 790:.\Generated_Source\PSoC4/BLE.c ****     Summary:
 791:.\Generated_Source\PSoC4/BLE.c ****      This function cancels a previously initiated connection with the remote 
 792:.\Generated_Source\PSoC4/BLE.c ****      device. It is a blocking function. No event is generated on calling this 
 793:.\Generated_Source\PSoC4/BLE.c ****      function. If the devices are already connected then this function should not
 794:.\Generated_Source\PSoC4/BLE.c ****      be used. If you intend to disconnect from an existing connection, the function
 795:.\Generated_Source\PSoC4/BLE.c ****      CyBle_GapDisconnect() should be used.
 796:.\Generated_Source\PSoC4/BLE.c **** 
 797:.\Generated_Source\PSoC4/BLE.c ****     Parameters:
 798:.\Generated_Source\PSoC4/BLE.c ****      None
 799:.\Generated_Source\PSoC4/BLE.c **** 
 800:.\Generated_Source\PSoC4/BLE.c ****     Return:
 801:.\Generated_Source\PSoC4/BLE.c ****      CYBLE_API_RESULT_T : Return value indicates if the function succeeded or 
 802:.\Generated_Source\PSoC4/BLE.c ****      failed. Following are the possible error codes.
 803:.\Generated_Source\PSoC4/BLE.c ****      <table>
 804:.\Generated_Source\PSoC4/BLE.c ****       Errors codes                        Description
 805:.\Generated_Source\PSoC4/BLE.c ****       ------------                        -----------
 806:.\Generated_Source\PSoC4/BLE.c ****       CYBLE_ERROR_OK                      On successful operation.
 807:.\Generated_Source\PSoC4/BLE.c ****       CYBLE_ERROR_STACK_INTERNAL          An error occurred in the 
 808:.\Generated_Source\PSoC4/BLE.c ****                                            BLE stack.
 809:.\Generated_Source\PSoC4/BLE.c ****       CYBLE_ERROR_INVALID_OPERATION       Device is already connected.
 810:.\Generated_Source\PSoC4/BLE.c ****      </table>
 811:.\Generated_Source\PSoC4/BLE.c ****  
 812:.\Generated_Source\PSoC4/BLE.c ****     ******************************************************************************/
 813:.\Generated_Source\PSoC4/BLE.c ****     CYBLE_API_RESULT_T CyBle_GapcCancelDeviceConnection(void)
 814:.\Generated_Source\PSoC4/BLE.c ****     {
 815:.\Generated_Source\PSoC4/BLE.c ****         CYBLE_API_RESULT_T apiResult;
 816:.\Generated_Source\PSoC4/BLE.c ****         
 817:.\Generated_Source\PSoC4/BLE.c ****         apiResult = CyBle_GapcCancelConnection();
 818:.\Generated_Source\PSoC4/BLE.c ****             
 819:.\Generated_Source\PSoC4/BLE.c ****         if(cyBle_connectingTimeout != 0u)
 820:.\Generated_Source\PSoC4/BLE.c ****         {
 821:.\Generated_Source\PSoC4/BLE.c ****             (void)CyBle_StopTimer();
 822:.\Generated_Source\PSoC4/BLE.c ****         }
 823:.\Generated_Source\PSoC4/BLE.c **** 
 824:.\Generated_Source\PSoC4/BLE.c ****         if(CYBLE_ERROR_OK == apiResult)
 825:.\Generated_Source\PSoC4/BLE.c ****         {
 826:.\Generated_Source\PSoC4/BLE.c ****             CyBle_SetState(CYBLE_STATE_DISCONNECTED);
 827:.\Generated_Source\PSoC4/BLE.c ****         }
 828:.\Generated_Source\PSoC4/BLE.c ****         return (apiResult);
 829:.\Generated_Source\PSoC4/BLE.c ****     }    
 830:.\Generated_Source\PSoC4/BLE.c **** 
 831:.\Generated_Source\PSoC4/BLE.c ****     
 832:.\Generated_Source\PSoC4/BLE.c **** #endif /* CYBLE_GAP_ROLE_CENTRAL */
 833:.\Generated_Source\PSoC4/BLE.c **** 
 834:.\Generated_Source\PSoC4/BLE.c **** 
 835:.\Generated_Source\PSoC4/BLE.c **** #if(CYBLE_GATT_ROLE_SERVER)
 836:.\Generated_Source\PSoC4/BLE.c **** 
ARM GAS  C:\Users\raypa\AppData\Local\Temp\ccMTDWHp.s 			page 25


 837:.\Generated_Source\PSoC4/BLE.c **** #if(CYBLE_GAP_ROLE_PERIPHERAL)
 838:.\Generated_Source\PSoC4/BLE.c **** 
 839:.\Generated_Source\PSoC4/BLE.c ****         /******************************************************************************
 840:.\Generated_Source\PSoC4/BLE.c ****         ##Function Name: CyBle_ChangeAdLocalName
 841:.\Generated_Source\PSoC4/BLE.c ****         *******************************************************************************
 842:.\Generated_Source\PSoC4/BLE.c ****         Summary:
 843:.\Generated_Source\PSoC4/BLE.c ****          This API is used to set the local device name in the advertisement or scan 
 844:.\Generated_Source\PSoC4/BLE.c ****          response data structure.
 845:.\Generated_Source\PSoC4/BLE.c **** 
 846:.\Generated_Source\PSoC4/BLE.c ****         Parameters:
 847:.\Generated_Source\PSoC4/BLE.c ****          char8 name: The local device name string to be set in advertisement data 
 848:.\Generated_Source\PSoC4/BLE.c ****                    structure.
 849:.\Generated_Source\PSoC4/BLE.c ****          uint8 dest: 0 - avrevtisement structure, not zero value selects scan response
 850:.\Generated_Source\PSoC4/BLE.c ****                      structure.
 851:.\Generated_Source\PSoC4/BLE.c **** 
 852:.\Generated_Source\PSoC4/BLE.c ****         Return:
 853:.\Generated_Source\PSoC4/BLE.c ****          None
 854:.\Generated_Source\PSoC4/BLE.c ****      
 855:.\Generated_Source\PSoC4/BLE.c ****         ******************************************************************************/
 856:.\Generated_Source\PSoC4/BLE.c ****         static void CyBle_ChangeAdLocalName(const char8 name[], uint8 dest)
 857:.\Generated_Source\PSoC4/BLE.c ****         {
 532              		.loc 1 857 0
 533              		.cfi_startproc
 534 0000 80B5     		push	{r7, lr}
 535              		.cfi_def_cfa_offset 8
 536              		.cfi_offset 7, -8
 537              		.cfi_offset 14, -4
 538 0002 86B0     		sub	sp, sp, #24
 539              		.cfi_def_cfa_offset 32
 540 0004 00AF     		add	r7, sp, #0
 541              		.cfi_def_cfa_register 7
 542 0006 7860     		str	r0, [r7, #4]
 543 0008 0A1C     		mov	r2, r1
 544 000a FB1C     		add	r3, r7, #3
 545 000c 1A70     		strb	r2, [r3]
 858:.\Generated_Source\PSoC4/BLE.c ****             uint8 i;
 859:.\Generated_Source\PSoC4/BLE.c ****             uint8 flag = 0u;
 546              		.loc 1 859 0
 547 000e 1623     		mov	r3, #22
 548 0010 FB18     		add	r3, r7, r3
 549 0012 0022     		mov	r2, #0
 550 0014 1A70     		strb	r2, [r3]
 860:.\Generated_Source\PSoC4/BLE.c ****             uint8 adLength = 0u;
 551              		.loc 1 860 0
 552 0016 1523     		mov	r3, #21
 553 0018 FB18     		add	r3, r7, r3
 554 001a 0022     		mov	r2, #0
 555 001c 1A70     		strb	r2, [r3]
 861:.\Generated_Source\PSoC4/BLE.c ****             uint8 byteCounter = 0u;
 556              		.loc 1 861 0
 557 001e 1423     		mov	r3, #20
 558 0020 FB18     		add	r3, r7, r3
 559 0022 0022     		mov	r2, #0
 560 0024 1A70     		strb	r2, [r3]
 862:.\Generated_Source\PSoC4/BLE.c ****             uint8 *destBuffer;
 863:.\Generated_Source\PSoC4/BLE.c ****             uint8 maxLength;
 864:.\Generated_Source\PSoC4/BLE.c ****             
ARM GAS  C:\Users\raypa\AppData\Local\Temp\ccMTDWHp.s 			page 26


 865:.\Generated_Source\PSoC4/BLE.c ****             if(dest == 0u)      /* Destination - advertising structure */
 561              		.loc 1 865 0
 562 0026 FB1C     		add	r3, r7, #3
 563 0028 1B78     		ldrb	r3, [r3]
 564 002a 002B     		cmp	r3, #0
 565 002c 07D1     		bne	.L27
 866:.\Generated_Source\PSoC4/BLE.c ****             {
 867:.\Generated_Source\PSoC4/BLE.c ****                 destBuffer = cyBle_discoveryData.advData;
 566              		.loc 1 867 0
 567 002e 5B4B     		ldr	r3, .L42
 568 0030 3B61     		str	r3, [r7, #16]
 868:.\Generated_Source\PSoC4/BLE.c ****                 maxLength = cyBle_discoveryData.advDataLen;
 569              		.loc 1 868 0
 570 0032 0F23     		mov	r3, #15
 571 0034 FB18     		add	r3, r7, r3
 572 0036 594A     		ldr	r2, .L42
 573 0038 D27F     		ldrb	r2, [r2, #31]
 574 003a 1A70     		strb	r2, [r3]
 575 003c 06E0     		b	.L28
 576              	.L27:
 869:.\Generated_Source\PSoC4/BLE.c ****             }
 870:.\Generated_Source\PSoC4/BLE.c ****             else                /* Destination - scan response structure */
 871:.\Generated_Source\PSoC4/BLE.c ****             {
 872:.\Generated_Source\PSoC4/BLE.c ****                 destBuffer = cyBle_scanRspData.scanRspData;
 577              		.loc 1 872 0
 578 003e 584B     		ldr	r3, .L42+4
 579 0040 3B61     		str	r3, [r7, #16]
 873:.\Generated_Source\PSoC4/BLE.c ****                 maxLength = cyBle_scanRspData.scanRspDataLen;
 580              		.loc 1 873 0
 581 0042 0F23     		mov	r3, #15
 582 0044 FB18     		add	r3, r7, r3
 583 0046 564A     		ldr	r2, .L42+4
 584 0048 D27F     		ldrb	r2, [r2, #31]
 585 004a 1A70     		strb	r2, [r3]
 586              	.L28:
 874:.\Generated_Source\PSoC4/BLE.c ****             }
 875:.\Generated_Source\PSoC4/BLE.c ****             
 876:.\Generated_Source\PSoC4/BLE.c ****             while((byteCounter < maxLength) && (0u == flag))
 587              		.loc 1 876 0
 588 004c 35E0     		b	.L29
 589              	.L35:
 877:.\Generated_Source\PSoC4/BLE.c ****             {
 878:.\Generated_Source\PSoC4/BLE.c ****                 adLength = destBuffer[byteCounter];
 590              		.loc 1 878 0
 591 004e 1423     		mov	r3, #20
 592 0050 FB18     		add	r3, r7, r3
 593 0052 1B78     		ldrb	r3, [r3]
 594 0054 3A69     		ldr	r2, [r7, #16]
 595 0056 D218     		add	r2, r2, r3
 596 0058 1523     		mov	r3, #21
 597 005a FB18     		add	r3, r7, r3
 598 005c 1278     		ldrb	r2, [r2]
 599 005e 1A70     		strb	r2, [r3]
 879:.\Generated_Source\PSoC4/BLE.c ****                 
 880:.\Generated_Source\PSoC4/BLE.c ****                 if(0u != adLength)
 600              		.loc 1 880 0
 601 0060 1523     		mov	r3, #21
ARM GAS  C:\Users\raypa\AppData\Local\Temp\ccMTDWHp.s 			page 27


 602 0062 FB18     		add	r3, r7, r3
 603 0064 1B78     		ldrb	r3, [r3]
 604 0066 002B     		cmp	r3, #0
 605 0068 26D0     		beq	.L30
 881:.\Generated_Source\PSoC4/BLE.c ****                 {
 882:.\Generated_Source\PSoC4/BLE.c ****                     /* Increment byte counter so it can point to AD type */
 883:.\Generated_Source\PSoC4/BLE.c ****                     byteCounter++;
 606              		.loc 1 883 0
 607 006a 1423     		mov	r3, #20
 608 006c FB18     		add	r3, r7, r3
 609 006e 1A78     		ldrb	r2, [r3]
 610 0070 1423     		mov	r3, #20
 611 0072 FB18     		add	r3, r7, r3
 612 0074 0132     		add	r2, r2, #1
 613 0076 1A70     		strb	r2, [r3]
 884:.\Generated_Source\PSoC4/BLE.c ****                     
 885:.\Generated_Source\PSoC4/BLE.c ****                     if((CYBLE_SHORT_LOCAL_NAME == destBuffer[byteCounter]) || 
 614              		.loc 1 885 0
 615 0078 1423     		mov	r3, #20
 616 007a FB18     		add	r3, r7, r3
 617 007c 1B78     		ldrb	r3, [r3]
 618 007e 3A69     		ldr	r2, [r7, #16]
 619 0080 D318     		add	r3, r2, r3
 620 0082 1B78     		ldrb	r3, [r3]
 621 0084 082B     		cmp	r3, #8
 622 0086 07D0     		beq	.L31
 886:.\Generated_Source\PSoC4/BLE.c ****                         (CYBLE_COMPLETE_LOCAL_NAME == destBuffer[byteCounter]))
 623              		.loc 1 886 0 discriminator 1
 624 0088 1423     		mov	r3, #20
 625 008a FB18     		add	r3, r7, r3
 626 008c 1B78     		ldrb	r3, [r3]
 627 008e 3A69     		ldr	r2, [r7, #16]
 628 0090 D318     		add	r3, r2, r3
 629 0092 1B78     		ldrb	r3, [r3]
 885:.\Generated_Source\PSoC4/BLE.c ****                         (CYBLE_COMPLETE_LOCAL_NAME == destBuffer[byteCounter]))
 630              		.loc 1 885 0 discriminator 1
 631 0094 092B     		cmp	r3, #9
 632 0096 04D1     		bne	.L32
 633              	.L31:
 887:.\Generated_Source\PSoC4/BLE.c ****                     {
 888:.\Generated_Source\PSoC4/BLE.c ****                         /* Start of the Local Name AD type was fount. Set flag and exit the loop. *
 889:.\Generated_Source\PSoC4/BLE.c ****                         flag = 1u;
 634              		.loc 1 889 0
 635 0098 1623     		mov	r3, #22
 636 009a FB18     		add	r3, r7, r3
 637 009c 0122     		mov	r2, #1
 638 009e 1A70     		strb	r2, [r3]
 639 00a0 09E0     		b	.L33
 640              	.L32:
 890:.\Generated_Source\PSoC4/BLE.c ****                     }
 891:.\Generated_Source\PSoC4/BLE.c ****                     else
 892:.\Generated_Source\PSoC4/BLE.c ****                     {
 893:.\Generated_Source\PSoC4/BLE.c ****                         byteCounter += adLength;
 641              		.loc 1 893 0
 642 00a2 1423     		mov	r3, #20
 643 00a4 FB18     		add	r3, r7, r3
 644 00a6 1422     		mov	r2, #20
ARM GAS  C:\Users\raypa\AppData\Local\Temp\ccMTDWHp.s 			page 28


 645 00a8 B918     		add	r1, r7, r2
 646 00aa 1522     		mov	r2, #21
 647 00ac BA18     		add	r2, r7, r2
 648 00ae 0978     		ldrb	r1, [r1]
 649 00b0 1278     		ldrb	r2, [r2]
 650 00b2 8A18     		add	r2, r1, r2
 651 00b4 1A70     		strb	r2, [r3]
 652              	.L33:
 653 00b6 00E0     		b	.L29
 654              	.L30:
 894:.\Generated_Source\PSoC4/BLE.c ****                     }
 895:.\Generated_Source\PSoC4/BLE.c ****                 }
 896:.\Generated_Source\PSoC4/BLE.c ****                 else
 897:.\Generated_Source\PSoC4/BLE.c ****                 {
 898:.\Generated_Source\PSoC4/BLE.c ****                     /* The end of advertisement data structure was encountered though exit the 
 899:.\Generated_Source\PSoC4/BLE.c ****                       loop. */
 900:.\Generated_Source\PSoC4/BLE.c ****                     break;
 655              		.loc 1 900 0
 656 00b8 0CE0     		b	.L34
 657              	.L29:
 876:.\Generated_Source\PSoC4/BLE.c ****             {
 658              		.loc 1 876 0
 659 00ba 1423     		mov	r3, #20
 660 00bc FA18     		add	r2, r7, r3
 661 00be 0F23     		mov	r3, #15
 662 00c0 FB18     		add	r3, r7, r3
 663 00c2 1278     		ldrb	r2, [r2]
 664 00c4 1B78     		ldrb	r3, [r3]
 665 00c6 9A42     		cmp	r2, r3
 666 00c8 04D2     		bcs	.L34
 876:.\Generated_Source\PSoC4/BLE.c ****             {
 667              		.loc 1 876 0 is_stmt 0 discriminator 1
 668 00ca 1623     		mov	r3, #22
 669 00cc FB18     		add	r3, r7, r3
 670 00ce 1B78     		ldrb	r3, [r3]
 671 00d0 002B     		cmp	r3, #0
 672 00d2 BCD0     		beq	.L35
 673              	.L34:
 901:.\Generated_Source\PSoC4/BLE.c ****                 }
 902:.\Generated_Source\PSoC4/BLE.c ****             }
 903:.\Generated_Source\PSoC4/BLE.c ****             
 904:.\Generated_Source\PSoC4/BLE.c ****             if(0u != flag)
 674              		.loc 1 904 0 is_stmt 1
 675 00d4 1623     		mov	r3, #22
 676 00d6 FB18     		add	r3, r7, r3
 677 00d8 1B78     		ldrb	r3, [r3]
 678 00da 002B     		cmp	r3, #0
 679 00dc 5BD0     		beq	.L26
 905:.\Generated_Source\PSoC4/BLE.c ****             {
 906:.\Generated_Source\PSoC4/BLE.c ****                 /* Reuse "adLength" to hold location of the last character of local name in 
 907:.\Generated_Source\PSoC4/BLE.c ****                    AD structure. */
 908:.\Generated_Source\PSoC4/BLE.c ****                 adLength += byteCounter;
 680              		.loc 1 908 0
 681 00de 1523     		mov	r3, #21
 682 00e0 FB18     		add	r3, r7, r3
 683 00e2 1522     		mov	r2, #21
 684 00e4 B918     		add	r1, r7, r2
ARM GAS  C:\Users\raypa\AppData\Local\Temp\ccMTDWHp.s 			page 29


 685 00e6 1422     		mov	r2, #20
 686 00e8 BA18     		add	r2, r7, r2
 687 00ea 0978     		ldrb	r1, [r1]
 688 00ec 1278     		ldrb	r2, [r2]
 689 00ee 8A18     		add	r2, r1, r2
 690 00f0 1A70     		strb	r2, [r3]
 909:.\Generated_Source\PSoC4/BLE.c ****                 
 910:.\Generated_Source\PSoC4/BLE.c ****                 /* Increment byte counter to point to start of the local Name string */
 911:.\Generated_Source\PSoC4/BLE.c ****                 byteCounter++;
 691              		.loc 1 911 0
 692 00f2 1423     		mov	r3, #20
 693 00f4 FB18     		add	r3, r7, r3
 694 00f6 1A78     		ldrb	r2, [r3]
 695 00f8 1423     		mov	r3, #20
 696 00fa FB18     		add	r3, r7, r3
 697 00fc 0132     		add	r2, r2, #1
 698 00fe 1A70     		strb	r2, [r3]
 912:.\Generated_Source\PSoC4/BLE.c ****                 
 913:.\Generated_Source\PSoC4/BLE.c ****                 for(i = byteCounter; ((i < (adLength)) && (CYBLE_NULL_CHARCTER != name[i - byteCoun
 699              		.loc 1 913 0
 700 0100 1723     		mov	r3, #23
 701 0102 FB18     		add	r3, r7, r3
 702 0104 1422     		mov	r2, #20
 703 0106 BA18     		add	r2, r7, r2
 704 0108 1278     		ldrb	r2, [r2]
 705 010a 1A70     		strb	r2, [r3]
 706 010c 17E0     		b	.L37
 707              	.L39:
 914:.\Generated_Source\PSoC4/BLE.c ****                 {
 915:.\Generated_Source\PSoC4/BLE.c ****                     destBuffer[i] = (uint8)name[i - byteCounter];
 708              		.loc 1 915 0 discriminator 4
 709 010e 1723     		mov	r3, #23
 710 0110 FB18     		add	r3, r7, r3
 711 0112 1B78     		ldrb	r3, [r3]
 712 0114 3A69     		ldr	r2, [r7, #16]
 713 0116 D318     		add	r3, r2, r3
 714 0118 1722     		mov	r2, #23
 715 011a BA18     		add	r2, r7, r2
 716 011c 1178     		ldrb	r1, [r2]
 717 011e 1422     		mov	r2, #20
 718 0120 BA18     		add	r2, r7, r2
 719 0122 1278     		ldrb	r2, [r2]
 720 0124 8A1A     		sub	r2, r1, r2
 721 0126 111C     		mov	r1, r2
 722 0128 7A68     		ldr	r2, [r7, #4]
 723 012a 5218     		add	r2, r2, r1
 724 012c 1278     		ldrb	r2, [r2]
 725 012e 1A70     		strb	r2, [r3]
 913:.\Generated_Source\PSoC4/BLE.c ****                 {
 726              		.loc 1 913 0 discriminator 4
 727 0130 1723     		mov	r3, #23
 728 0132 FB18     		add	r3, r7, r3
 729 0134 1A78     		ldrb	r2, [r3]
 730 0136 1723     		mov	r3, #23
 731 0138 FB18     		add	r3, r7, r3
 732 013a 0132     		add	r2, r2, #1
 733 013c 1A70     		strb	r2, [r3]
ARM GAS  C:\Users\raypa\AppData\Local\Temp\ccMTDWHp.s 			page 30


 734              	.L37:
 913:.\Generated_Source\PSoC4/BLE.c ****                 {
 735              		.loc 1 913 0 is_stmt 0 discriminator 1
 736 013e 1723     		mov	r3, #23
 737 0140 FA18     		add	r2, r7, r3
 738 0142 1523     		mov	r3, #21
 739 0144 FB18     		add	r3, r7, r3
 740 0146 1278     		ldrb	r2, [r2]
 741 0148 1B78     		ldrb	r3, [r3]
 742 014a 9A42     		cmp	r2, r3
 743 014c 0CD2     		bcs	.L38
 913:.\Generated_Source\PSoC4/BLE.c ****                 {
 744              		.loc 1 913 0 discriminator 3
 745 014e 1723     		mov	r3, #23
 746 0150 FB18     		add	r3, r7, r3
 747 0152 1A78     		ldrb	r2, [r3]
 748 0154 1423     		mov	r3, #20
 749 0156 FB18     		add	r3, r7, r3
 750 0158 1B78     		ldrb	r3, [r3]
 751 015a D31A     		sub	r3, r2, r3
 752 015c 1A1C     		mov	r2, r3
 753 015e 7B68     		ldr	r3, [r7, #4]
 754 0160 9B18     		add	r3, r3, r2
 755 0162 1B78     		ldrb	r3, [r3]
 756 0164 002B     		cmp	r3, #0
 757 0166 D2D1     		bne	.L39
 758              	.L38:
 916:.\Generated_Source\PSoC4/BLE.c ****                 }
 917:.\Generated_Source\PSoC4/BLE.c ****                 
 918:.\Generated_Source\PSoC4/BLE.c ****                 /* This loop handles the case when new local name is shorted than old one.
 919:.\Generated_Source\PSoC4/BLE.c ****                    In this case all remaining characters should be null characters. */
 920:.\Generated_Source\PSoC4/BLE.c ****                 while(adLength > i)
 759              		.loc 1 920 0 is_stmt 1
 760 0168 0DE0     		b	.L40
 761              	.L41:
 921:.\Generated_Source\PSoC4/BLE.c ****                 {
 922:.\Generated_Source\PSoC4/BLE.c ****                     /* Terminate string */
 923:.\Generated_Source\PSoC4/BLE.c ****                     destBuffer[i] = (uint8)CYBLE_NULL_CHARCTER;
 762              		.loc 1 923 0
 763 016a 1723     		mov	r3, #23
 764 016c FB18     		add	r3, r7, r3
 765 016e 1B78     		ldrb	r3, [r3]
 766 0170 3A69     		ldr	r2, [r7, #16]
 767 0172 D318     		add	r3, r2, r3
 768 0174 0022     		mov	r2, #0
 769 0176 1A70     		strb	r2, [r3]
 924:.\Generated_Source\PSoC4/BLE.c ****                     i++;
 770              		.loc 1 924 0
 771 0178 1723     		mov	r3, #23
 772 017a FB18     		add	r3, r7, r3
 773 017c 1A78     		ldrb	r2, [r3]
 774 017e 1723     		mov	r3, #23
 775 0180 FB18     		add	r3, r7, r3
 776 0182 0132     		add	r2, r2, #1
 777 0184 1A70     		strb	r2, [r3]
 778              	.L40:
 920:.\Generated_Source\PSoC4/BLE.c ****                 {
ARM GAS  C:\Users\raypa\AppData\Local\Temp\ccMTDWHp.s 			page 31


 779              		.loc 1 920 0
 780 0186 1523     		mov	r3, #21
 781 0188 FA18     		add	r2, r7, r3
 782 018a 1723     		mov	r3, #23
 783 018c FB18     		add	r3, r7, r3
 784 018e 1278     		ldrb	r2, [r2]
 785 0190 1B78     		ldrb	r3, [r3]
 786 0192 9A42     		cmp	r2, r3
 787 0194 E9D8     		bhi	.L41
 788              	.L26:
 925:.\Generated_Source\PSoC4/BLE.c ****                 }
 926:.\Generated_Source\PSoC4/BLE.c ****             }
 927:.\Generated_Source\PSoC4/BLE.c ****         }
 789              		.loc 1 927 0
 790 0196 BD46     		mov	sp, r7
 791 0198 06B0     		add	sp, sp, #24
 792              		@ sp needed
 793 019a 80BD     		pop	{r7, pc}
 794              	.L43:
 795              		.align	2
 796              	.L42:
 797 019c 00000000 		.word	cyBle_discoveryData
 798 01a0 00000000 		.word	cyBle_scanRspData
 799              		.cfi_endproc
 800              	.LFE8:
 801              		.size	CyBle_ChangeAdLocalName, .-CyBle_ChangeAdLocalName
 802              		.section	.text.CyBle_GapSetLocalName,"ax",%progbits
 803              		.align	2
 804              		.global	CyBle_GapSetLocalName
 805              		.code	16
 806              		.thumb_func
 807              		.type	CyBle_GapSetLocalName, %function
 808              	CyBle_GapSetLocalName:
 809              	.LFB9:
 928:.\Generated_Source\PSoC4/BLE.c **** #endif /* (CYBLE_GAP_ROLE_PERIPHERAL) */  
 929:.\Generated_Source\PSoC4/BLE.c ****     
 930:.\Generated_Source\PSoC4/BLE.c ****     
 931:.\Generated_Source\PSoC4/BLE.c ****     /******************************************************************************
 932:.\Generated_Source\PSoC4/BLE.c ****     ##Function Name: CyBle_GapSetLocalName
 933:.\Generated_Source\PSoC4/BLE.c ****     *******************************************************************************
 934:.\Generated_Source\PSoC4/BLE.c ****     Summary:
 935:.\Generated_Source\PSoC4/BLE.c ****      This API is used to set the local device name - a Characteristic of the 
 936:.\Generated_Source\PSoC4/BLE.c ****      GAP Service. If the characteristic length entered in the component customizer
 937:.\Generated_Source\PSoC4/BLE.c ****      is shorter than the string specified by the "name" parameter, the local device
 938:.\Generated_Source\PSoC4/BLE.c ****      name will be cut to the length specified in the customizer.
 939:.\Generated_Source\PSoC4/BLE.c **** 
 940:.\Generated_Source\PSoC4/BLE.c ****     Parameters:
 941:.\Generated_Source\PSoC4/BLE.c ****      char8 name: The local device name string. The name string to be written as
 942:.\Generated_Source\PSoC4/BLE.c ****                  the local device name. It represents a UTF-8 encoded User
 943:.\Generated_Source\PSoC4/BLE.c ****                  Friendly Descriptive Name for the device. The length of the local
 944:.\Generated_Source\PSoC4/BLE.c ****                  device string is entered into the component customizer and it can
 945:.\Generated_Source\PSoC4/BLE.c ****                  be set to a value from 0 to 248 bytes. If the name contained in
 946:.\Generated_Source\PSoC4/BLE.c ****                  the parameter is shorter than the length from the customizer, the
 947:.\Generated_Source\PSoC4/BLE.c ****                  end of the name is indicated by a NULL octet (0x00).
 948:.\Generated_Source\PSoC4/BLE.c **** 
 949:.\Generated_Source\PSoC4/BLE.c ****     Return:
 950:.\Generated_Source\PSoC4/BLE.c ****      CYBLE_API_RESULT_T : Return value indicates if the function succeeded or 
ARM GAS  C:\Users\raypa\AppData\Local\Temp\ccMTDWHp.s 			page 32


 951:.\Generated_Source\PSoC4/BLE.c ****      failed. Following are the possible error codes.
 952:.\Generated_Source\PSoC4/BLE.c ****      <table>
 953:.\Generated_Source\PSoC4/BLE.c ****       Errors codes                        Description
 954:.\Generated_Source\PSoC4/BLE.c ****       ------------                        -----------
 955:.\Generated_Source\PSoC4/BLE.c ****       CYBLE_ERROR_OK                      Function completed successfully.
 956:.\Generated_Source\PSoC4/BLE.c ****       CYBLE_ERROR_INVALID_PARAMETER       On specifying NULL as input parameter
 957:.\Generated_Source\PSoC4/BLE.c ****      </table>
 958:.\Generated_Source\PSoC4/BLE.c ****  
 959:.\Generated_Source\PSoC4/BLE.c ****     ******************************************************************************/
 960:.\Generated_Source\PSoC4/BLE.c ****     CYBLE_API_RESULT_T CyBle_GapSetLocalName(const char8 name[])
 961:.\Generated_Source\PSoC4/BLE.c ****     {
 810              		.loc 1 961 0
 811              		.cfi_startproc
 812 0000 80B5     		push	{r7, lr}
 813              		.cfi_def_cfa_offset 8
 814              		.cfi_offset 7, -8
 815              		.cfi_offset 14, -4
 816 0002 86B0     		sub	sp, sp, #24
 817              		.cfi_def_cfa_offset 32
 818 0004 00AF     		add	r7, sp, #0
 819              		.cfi_def_cfa_register 7
 820 0006 7860     		str	r0, [r7, #4]
 962:.\Generated_Source\PSoC4/BLE.c ****         CYBLE_API_RESULT_T apiResult = CYBLE_ERROR_OK;
 821              		.loc 1 962 0
 822 0008 1623     		mov	r3, #22
 823 000a FB18     		add	r3, r7, r3
 824 000c 0022     		mov	r2, #0
 825 000e 1A80     		strh	r2, [r3]
 963:.\Generated_Source\PSoC4/BLE.c ****         uint8 i;
 964:.\Generated_Source\PSoC4/BLE.c ****         char8 *ptr;
 965:.\Generated_Source\PSoC4/BLE.c ****         uint8 charLen;
 966:.\Generated_Source\PSoC4/BLE.c **** 
 967:.\Generated_Source\PSoC4/BLE.c ****         if(NULL != name)
 826              		.loc 1 967 0
 827 0010 7B68     		ldr	r3, [r7, #4]
 828 0012 002B     		cmp	r3, #0
 829 0014 42D0     		beq	.L45
 968:.\Generated_Source\PSoC4/BLE.c ****         {
 969:.\Generated_Source\PSoC4/BLE.c ****             /* Get the pointer to the Device Name characteristic  */
 970:.\Generated_Source\PSoC4/BLE.c ****             ptr = (char8 *)
 830              		.loc 1 970 0
 831 0016 274B     		ldr	r3, .L51
 832 0018 9B6B     		ldr	r3, [r3, #56]
 833 001a 3B61     		str	r3, [r7, #16]
 971:.\Generated_Source\PSoC4/BLE.c ****                 cyBle_gattDB[CYBLE_GAP_DEVICE_NAME_INDEX].attValue.attFormatValue.attGenericVal;
 972:.\Generated_Source\PSoC4/BLE.c **** 
 973:.\Generated_Source\PSoC4/BLE.c ****             /* First need to get the length of the characteristic data in the GATT
 974:.\Generated_Source\PSoC4/BLE.c ****                 database to make sure there is enough place for the data. The length
 975:.\Generated_Source\PSoC4/BLE.c ****                 can't be longer than 248, so only the LSB of 16 bit of length is to
 976:.\Generated_Source\PSoC4/BLE.c ****                 be used. */
 977:.\Generated_Source\PSoC4/BLE.c ****             charLen = (uint8) cyBle_gattDB[CYBLE_GAP_DEVICE_NAME_INDEX].attValue.attFormatValue.len
 834              		.loc 1 977 0
 835 001c 254B     		ldr	r3, .L51
 836 001e 9A8E     		ldrh	r2, [r3, #52]
 837 0020 0F23     		mov	r3, #15
 838 0022 FB18     		add	r3, r7, r3
 839 0024 1A70     		strb	r2, [r3]
ARM GAS  C:\Users\raypa\AppData\Local\Temp\ccMTDWHp.s 			page 33


 978:.\Generated_Source\PSoC4/BLE.c **** 
 979:.\Generated_Source\PSoC4/BLE.c ****             /* Copy name into characteristic */
 980:.\Generated_Source\PSoC4/BLE.c ****             for(i = 0u; ((i < (charLen - 1u)) && (CYBLE_NULL_CHARCTER != name[i])); i++)
 840              		.loc 1 980 0
 841 0026 1523     		mov	r3, #21
 842 0028 FB18     		add	r3, r7, r3
 843 002a 0022     		mov	r2, #0
 844 002c 1A70     		strb	r2, [r3]
 845 002e 12E0     		b	.L46
 846              	.L48:
 981:.\Generated_Source\PSoC4/BLE.c ****             {
 982:.\Generated_Source\PSoC4/BLE.c ****                 ptr[i] = name[i];
 847              		.loc 1 982 0 discriminator 4
 848 0030 1523     		mov	r3, #21
 849 0032 FB18     		add	r3, r7, r3
 850 0034 1B78     		ldrb	r3, [r3]
 851 0036 3A69     		ldr	r2, [r7, #16]
 852 0038 D318     		add	r3, r2, r3
 853 003a 1522     		mov	r2, #21
 854 003c BA18     		add	r2, r7, r2
 855 003e 1278     		ldrb	r2, [r2]
 856 0040 7968     		ldr	r1, [r7, #4]
 857 0042 8A18     		add	r2, r1, r2
 858 0044 1278     		ldrb	r2, [r2]
 859 0046 1A70     		strb	r2, [r3]
 980:.\Generated_Source\PSoC4/BLE.c ****             {
 860              		.loc 1 980 0 discriminator 4
 861 0048 1523     		mov	r3, #21
 862 004a FB18     		add	r3, r7, r3
 863 004c 1A78     		ldrb	r2, [r3]
 864 004e 1523     		mov	r3, #21
 865 0050 FB18     		add	r3, r7, r3
 866 0052 0132     		add	r2, r2, #1
 867 0054 1A70     		strb	r2, [r3]
 868              	.L46:
 980:.\Generated_Source\PSoC4/BLE.c ****             {
 869              		.loc 1 980 0 is_stmt 0 discriminator 1
 870 0056 1523     		mov	r3, #21
 871 0058 FB18     		add	r3, r7, r3
 872 005a 1A78     		ldrb	r2, [r3]
 873 005c 0F23     		mov	r3, #15
 874 005e FB18     		add	r3, r7, r3
 875 0060 1B78     		ldrb	r3, [r3]
 876 0062 013B     		sub	r3, r3, #1
 877 0064 9A42     		cmp	r2, r3
 878 0066 07D2     		bcs	.L47
 980:.\Generated_Source\PSoC4/BLE.c ****             {
 879              		.loc 1 980 0 discriminator 3
 880 0068 1523     		mov	r3, #21
 881 006a FB18     		add	r3, r7, r3
 882 006c 1B78     		ldrb	r3, [r3]
 883 006e 7A68     		ldr	r2, [r7, #4]
 884 0070 D318     		add	r3, r2, r3
 885 0072 1B78     		ldrb	r3, [r3]
 886 0074 002B     		cmp	r3, #0
 887 0076 DBD1     		bne	.L48
 888              	.L47:
ARM GAS  C:\Users\raypa\AppData\Local\Temp\ccMTDWHp.s 			page 34


 983:.\Generated_Source\PSoC4/BLE.c ****             }
 984:.\Generated_Source\PSoC4/BLE.c **** 
 985:.\Generated_Source\PSoC4/BLE.c ****             /* Terminate string */
 986:.\Generated_Source\PSoC4/BLE.c ****             ptr[i] = CYBLE_NULL_CHARCTER;
 889              		.loc 1 986 0 is_stmt 1
 890 0078 1523     		mov	r3, #21
 891 007a FB18     		add	r3, r7, r3
 892 007c 1B78     		ldrb	r3, [r3]
 893 007e 3A69     		ldr	r2, [r7, #16]
 894 0080 D318     		add	r3, r2, r3
 895 0082 0022     		mov	r2, #0
 896 0084 1A70     		strb	r2, [r3]
 987:.\Generated_Source\PSoC4/BLE.c ****             
 988:.\Generated_Source\PSoC4/BLE.c ****             /* Update device name in advertising and scan response structure */
 989:.\Generated_Source\PSoC4/BLE.c ****             #if(CYBLE_GAP_ROLE_PERIPHERAL)
 990:.\Generated_Source\PSoC4/BLE.c ****                 CyBle_ChangeAdLocalName(name, 0u);
 897              		.loc 1 990 0
 898 0086 7B68     		ldr	r3, [r7, #4]
 899 0088 181C     		mov	r0, r3
 900 008a 0021     		mov	r1, #0
 901 008c FFF7FEFF 		bl	CyBle_ChangeAdLocalName
 991:.\Generated_Source\PSoC4/BLE.c ****                 CyBle_ChangeAdLocalName(name, 1u);
 902              		.loc 1 991 0
 903 0090 7B68     		ldr	r3, [r7, #4]
 904 0092 181C     		mov	r0, r3
 905 0094 0121     		mov	r1, #1
 906 0096 FFF7FEFF 		bl	CyBle_ChangeAdLocalName
 907 009a 03E0     		b	.L49
 908              	.L45:
 992:.\Generated_Source\PSoC4/BLE.c ****             #endif /* (CYBLE_GAP_ROLE_PERIPHERAL) */
 993:.\Generated_Source\PSoC4/BLE.c ****         }
 994:.\Generated_Source\PSoC4/BLE.c ****         else
 995:.\Generated_Source\PSoC4/BLE.c ****         {
 996:.\Generated_Source\PSoC4/BLE.c ****             apiResult = CYBLE_ERROR_INVALID_PARAMETER;
 909              		.loc 1 996 0
 910 009c 1623     		mov	r3, #22
 911 009e FB18     		add	r3, r7, r3
 912 00a0 0122     		mov	r2, #1
 913 00a2 1A80     		strh	r2, [r3]
 914              	.L49:
 997:.\Generated_Source\PSoC4/BLE.c ****         }
 998:.\Generated_Source\PSoC4/BLE.c ****         
 999:.\Generated_Source\PSoC4/BLE.c ****         return(apiResult);
 915              		.loc 1 999 0
 916 00a4 1623     		mov	r3, #22
 917 00a6 FB18     		add	r3, r7, r3
 918 00a8 1B88     		ldrh	r3, [r3]
1000:.\Generated_Source\PSoC4/BLE.c ****     }
 919              		.loc 1 1000 0
 920 00aa 181C     		mov	r0, r3
 921 00ac BD46     		mov	sp, r7
 922 00ae 06B0     		add	sp, sp, #24
 923              		@ sp needed
 924 00b0 80BD     		pop	{r7, pc}
 925              	.L52:
 926 00b2 C046     		.align	2
 927              	.L51:
ARM GAS  C:\Users\raypa\AppData\Local\Temp\ccMTDWHp.s 			page 35


 928 00b4 00000000 		.word	cyBle_gattDB
 929              		.cfi_endproc
 930              	.LFE9:
 931              		.size	CyBle_GapSetLocalName, .-CyBle_GapSetLocalName
 932              		.section	.text.CyBle_GapGetLocalName,"ax",%progbits
 933              		.align	2
 934              		.global	CyBle_GapGetLocalName
 935              		.code	16
 936              		.thumb_func
 937              		.type	CyBle_GapGetLocalName, %function
 938              	CyBle_GapGetLocalName:
 939              	.LFB10:
1001:.\Generated_Source\PSoC4/BLE.c **** 
1002:.\Generated_Source\PSoC4/BLE.c **** 
1003:.\Generated_Source\PSoC4/BLE.c ****     /******************************************************************************
1004:.\Generated_Source\PSoC4/BLE.c ****     ##Function Name: CyBle_GapGetLocalName
1005:.\Generated_Source\PSoC4/BLE.c ****     *******************************************************************************
1006:.\Generated_Source\PSoC4/BLE.c ****  
1007:.\Generated_Source\PSoC4/BLE.c ****     Summary:
1008:.\Generated_Source\PSoC4/BLE.c ****      This API is used to read the local device name - a Characteristic of the 
1009:.\Generated_Source\PSoC4/BLE.c ****      GAP Service.
1010:.\Generated_Source\PSoC4/BLE.c **** 
1011:.\Generated_Source\PSoC4/BLE.c ****     Parameters:
1012:.\Generated_Source\PSoC4/BLE.c ****     char8 name: The local device name string. Used to read the local name to the
1013:.\Generated_Source\PSoC4/BLE.c ****                 given string array. It represents a UTF-8 encoded User Friendly 
1014:.\Generated_Source\PSoC4/BLE.c ****                 Descriptive Name for the device. The length of the local device
1015:.\Generated_Source\PSoC4/BLE.c ****                 string is entered into the component customizer and it can be set
1016:.\Generated_Source\PSoC4/BLE.c ****                 to a value from 0 to 248 bytes. If the name contained in the
1017:.\Generated_Source\PSoC4/BLE.c ****                 parameter is shorter than the length from the customizer, the end
1018:.\Generated_Source\PSoC4/BLE.c ****                 of the name is indicated by a NULL octet (0x00).
1019:.\Generated_Source\PSoC4/BLE.c **** 
1020:.\Generated_Source\PSoC4/BLE.c ****     Return:
1021:.\Generated_Source\PSoC4/BLE.c ****      CYBLE_API_RESULT_T : Return value indicates if the function succeeded or 
1022:.\Generated_Source\PSoC4/BLE.c ****      failed. Following are the possible error codes.
1023:.\Generated_Source\PSoC4/BLE.c ****      <table>
1024:.\Generated_Source\PSoC4/BLE.c ****       Errors codes                        Description
1025:.\Generated_Source\PSoC4/BLE.c ****       ------------                        -----------
1026:.\Generated_Source\PSoC4/BLE.c ****       CYBLE_ERROR_OK                      Function completed successfully.
1027:.\Generated_Source\PSoC4/BLE.c ****       CYBLE_ERROR_INVALID_PARAMETER       On specifying NULL as input parameter
1028:.\Generated_Source\PSoC4/BLE.c ****      </table>
1029:.\Generated_Source\PSoC4/BLE.c **** 
1030:.\Generated_Source\PSoC4/BLE.c ****     ******************************************************************************/
1031:.\Generated_Source\PSoC4/BLE.c ****     CYBLE_API_RESULT_T CyBle_GapGetLocalName(char8 name[])
1032:.\Generated_Source\PSoC4/BLE.c ****     {
 940              		.loc 1 1032 0
 941              		.cfi_startproc
 942 0000 80B5     		push	{r7, lr}
 943              		.cfi_def_cfa_offset 8
 944              		.cfi_offset 7, -8
 945              		.cfi_offset 14, -4
 946 0002 86B0     		sub	sp, sp, #24
 947              		.cfi_def_cfa_offset 32
 948 0004 00AF     		add	r7, sp, #0
 949              		.cfi_def_cfa_register 7
 950 0006 7860     		str	r0, [r7, #4]
1033:.\Generated_Source\PSoC4/BLE.c ****         CYBLE_API_RESULT_T apiResult = CYBLE_ERROR_OK;
 951              		.loc 1 1033 0
ARM GAS  C:\Users\raypa\AppData\Local\Temp\ccMTDWHp.s 			page 36


 952 0008 1623     		mov	r3, #22
 953 000a FB18     		add	r3, r7, r3
 954 000c 0022     		mov	r2, #0
 955 000e 1A80     		strh	r2, [r3]
1034:.\Generated_Source\PSoC4/BLE.c ****         uint8 charLen;
1035:.\Generated_Source\PSoC4/BLE.c ****         uint8 i;
1036:.\Generated_Source\PSoC4/BLE.c ****         char8 *ptr;
1037:.\Generated_Source\PSoC4/BLE.c **** 
1038:.\Generated_Source\PSoC4/BLE.c ****         if(NULL != name)
 956              		.loc 1 1038 0
 957 0010 7B68     		ldr	r3, [r7, #4]
 958 0012 002B     		cmp	r3, #0
 959 0014 38D0     		beq	.L54
1039:.\Generated_Source\PSoC4/BLE.c ****         {
1040:.\Generated_Source\PSoC4/BLE.c ****             /* Get the pointer to the Device Name characteristic  */
1041:.\Generated_Source\PSoC4/BLE.c ****             ptr = (char8 *) cyBle_gattDB[CYBLE_GAP_DEVICE_NAME_INDEX].attValue.attFormatValue.attGe
 960              		.loc 1 1041 0
 961 0016 224B     		ldr	r3, .L60
 962 0018 9B6B     		ldr	r3, [r3, #56]
 963 001a 3B61     		str	r3, [r7, #16]
1042:.\Generated_Source\PSoC4/BLE.c **** 
1043:.\Generated_Source\PSoC4/BLE.c ****             /* First need to get the length of the characteristic data in the GATT
1044:.\Generated_Source\PSoC4/BLE.c ****                 database to make sure there is enough place for the data. The length
1045:.\Generated_Source\PSoC4/BLE.c ****                 can't be longer than 248, so only the LSB of 16 bit of length is to
1046:.\Generated_Source\PSoC4/BLE.c ****                 be used. */
1047:.\Generated_Source\PSoC4/BLE.c ****             charLen = (uint8)cyBle_gattDB[CYBLE_GAP_DEVICE_NAME_INDEX].attValue.attFormatValue.leng
 964              		.loc 1 1047 0
 965 001c 204B     		ldr	r3, .L60
 966 001e 9A8E     		ldrh	r2, [r3, #52]
 967 0020 0F23     		mov	r3, #15
 968 0022 FB18     		add	r3, r7, r3
 969 0024 1A70     		strb	r2, [r3]
1048:.\Generated_Source\PSoC4/BLE.c **** 
1049:.\Generated_Source\PSoC4/BLE.c ****             /* Copy name from characteristic */
1050:.\Generated_Source\PSoC4/BLE.c ****             for(i = 0u; ((i < (charLen - 1u)) && (CYBLE_NULL_CHARCTER != ptr[i])); i++)
 970              		.loc 1 1050 0
 971 0026 1523     		mov	r3, #21
 972 0028 FB18     		add	r3, r7, r3
 973 002a 0022     		mov	r2, #0
 974 002c 1A70     		strb	r2, [r3]
 975 002e 12E0     		b	.L55
 976              	.L57:
1051:.\Generated_Source\PSoC4/BLE.c ****             {
1052:.\Generated_Source\PSoC4/BLE.c ****                 name[i] = ptr[i];
 977              		.loc 1 1052 0 discriminator 4
 978 0030 1523     		mov	r3, #21
 979 0032 FB18     		add	r3, r7, r3
 980 0034 1B78     		ldrb	r3, [r3]
 981 0036 7A68     		ldr	r2, [r7, #4]
 982 0038 D318     		add	r3, r2, r3
 983 003a 1522     		mov	r2, #21
 984 003c BA18     		add	r2, r7, r2
 985 003e 1278     		ldrb	r2, [r2]
 986 0040 3969     		ldr	r1, [r7, #16]
 987 0042 8A18     		add	r2, r1, r2
 988 0044 1278     		ldrb	r2, [r2]
 989 0046 1A70     		strb	r2, [r3]
ARM GAS  C:\Users\raypa\AppData\Local\Temp\ccMTDWHp.s 			page 37


1050:.\Generated_Source\PSoC4/BLE.c ****             {
 990              		.loc 1 1050 0 discriminator 4
 991 0048 1523     		mov	r3, #21
 992 004a FB18     		add	r3, r7, r3
 993 004c 1A78     		ldrb	r2, [r3]
 994 004e 1523     		mov	r3, #21
 995 0050 FB18     		add	r3, r7, r3
 996 0052 0132     		add	r2, r2, #1
 997 0054 1A70     		strb	r2, [r3]
 998              	.L55:
1050:.\Generated_Source\PSoC4/BLE.c ****             {
 999              		.loc 1 1050 0 is_stmt 0 discriminator 1
 1000 0056 1523     		mov	r3, #21
 1001 0058 FB18     		add	r3, r7, r3
 1002 005a 1A78     		ldrb	r2, [r3]
 1003 005c 0F23     		mov	r3, #15
 1004 005e FB18     		add	r3, r7, r3
 1005 0060 1B78     		ldrb	r3, [r3]
 1006 0062 013B     		sub	r3, r3, #1
 1007 0064 9A42     		cmp	r2, r3
 1008 0066 07D2     		bcs	.L56
1050:.\Generated_Source\PSoC4/BLE.c ****             {
 1009              		.loc 1 1050 0 discriminator 3
 1010 0068 1523     		mov	r3, #21
 1011 006a FB18     		add	r3, r7, r3
 1012 006c 1B78     		ldrb	r3, [r3]
 1013 006e 3A69     		ldr	r2, [r7, #16]
 1014 0070 D318     		add	r3, r2, r3
 1015 0072 1B78     		ldrb	r3, [r3]
 1016 0074 002B     		cmp	r3, #0
 1017 0076 DBD1     		bne	.L57
 1018              	.L56:
1053:.\Generated_Source\PSoC4/BLE.c ****             }
1054:.\Generated_Source\PSoC4/BLE.c **** 
1055:.\Generated_Source\PSoC4/BLE.c ****             /* Terminate string */
1056:.\Generated_Source\PSoC4/BLE.c ****             name[i] = CYBLE_NULL_CHARCTER;
 1019              		.loc 1 1056 0 is_stmt 1
 1020 0078 1523     		mov	r3, #21
 1021 007a FB18     		add	r3, r7, r3
 1022 007c 1B78     		ldrb	r3, [r3]
 1023 007e 7A68     		ldr	r2, [r7, #4]
 1024 0080 D318     		add	r3, r2, r3
 1025 0082 0022     		mov	r2, #0
 1026 0084 1A70     		strb	r2, [r3]
 1027 0086 03E0     		b	.L58
 1028              	.L54:
1057:.\Generated_Source\PSoC4/BLE.c ****         }
1058:.\Generated_Source\PSoC4/BLE.c ****         else
1059:.\Generated_Source\PSoC4/BLE.c ****         {
1060:.\Generated_Source\PSoC4/BLE.c ****             apiResult = CYBLE_ERROR_INVALID_PARAMETER;
 1029              		.loc 1 1060 0
 1030 0088 1623     		mov	r3, #22
 1031 008a FB18     		add	r3, r7, r3
 1032 008c 0122     		mov	r2, #1
 1033 008e 1A80     		strh	r2, [r3]
 1034              	.L58:
1061:.\Generated_Source\PSoC4/BLE.c ****         }
ARM GAS  C:\Users\raypa\AppData\Local\Temp\ccMTDWHp.s 			page 38


1062:.\Generated_Source\PSoC4/BLE.c ****         
1063:.\Generated_Source\PSoC4/BLE.c ****         return(apiResult);
 1035              		.loc 1 1063 0
 1036 0090 1623     		mov	r3, #22
 1037 0092 FB18     		add	r3, r7, r3
 1038 0094 1B88     		ldrh	r3, [r3]
1064:.\Generated_Source\PSoC4/BLE.c ****     }
 1039              		.loc 1 1064 0
 1040 0096 181C     		mov	r0, r3
 1041 0098 BD46     		mov	sp, r7
 1042 009a 06B0     		add	sp, sp, #24
 1043              		@ sp needed
 1044 009c 80BD     		pop	{r7, pc}
 1045              	.L61:
 1046 009e C046     		.align	2
 1047              	.L60:
 1048 00a0 00000000 		.word	cyBle_gattDB
 1049              		.cfi_endproc
 1050              	.LFE10:
 1051              		.size	CyBle_GapGetLocalName, .-CyBle_GapGetLocalName
 1052              		.section	.text.CyBle_Get16ByPtr,"ax",%progbits
 1053              		.align	2
 1054              		.global	CyBle_Get16ByPtr
 1055              		.code	16
 1056              		.thumb_func
 1057              		.type	CyBle_Get16ByPtr, %function
 1058              	CyBle_Get16ByPtr:
 1059              	.LFB11:
1065:.\Generated_Source\PSoC4/BLE.c **** 
1066:.\Generated_Source\PSoC4/BLE.c **** #endif /* (CYBLE_GATT_ROLE_SERVER) */
1067:.\Generated_Source\PSoC4/BLE.c **** 
1068:.\Generated_Source\PSoC4/BLE.c **** 
1069:.\Generated_Source\PSoC4/BLE.c **** /******************************************************************************
1070:.\Generated_Source\PSoC4/BLE.c **** ##Function Name: CyBle_Get16ByPtr
1071:.\Generated_Source\PSoC4/BLE.c **** *******************************************************************************
1072:.\Generated_Source\PSoC4/BLE.c **** 
1073:.\Generated_Source\PSoC4/BLE.c **** Summary:
1074:.\Generated_Source\PSoC4/BLE.c ****  Returns the two-bytes value by using a pointer to the LSB.
1075:.\Generated_Source\PSoC4/BLE.c **** 
1076:.\Generated_Source\PSoC4/BLE.c **** Parameters:
1077:.\Generated_Source\PSoC4/BLE.c ****  uint8 * ptr: Pointer to the LSB of two-bytes data (little endian).
1078:.\Generated_Source\PSoC4/BLE.c **** 
1079:.\Generated_Source\PSoC4/BLE.c **** Return:
1080:.\Generated_Source\PSoC4/BLE.c ****  uint16 value: Two-bytes data.
1081:.\Generated_Source\PSoC4/BLE.c **** 
1082:.\Generated_Source\PSoC4/BLE.c **** ******************************************************************************/
1083:.\Generated_Source\PSoC4/BLE.c **** uint16 CyBle_Get16ByPtr(const uint8 ptr[])
1084:.\Generated_Source\PSoC4/BLE.c **** {
 1060              		.loc 1 1084 0
 1061              		.cfi_startproc
 1062 0000 80B5     		push	{r7, lr}
 1063              		.cfi_def_cfa_offset 8
 1064              		.cfi_offset 7, -8
 1065              		.cfi_offset 14, -4
 1066 0002 82B0     		sub	sp, sp, #8
 1067              		.cfi_def_cfa_offset 16
 1068 0004 00AF     		add	r7, sp, #0
ARM GAS  C:\Users\raypa\AppData\Local\Temp\ccMTDWHp.s 			page 39


 1069              		.cfi_def_cfa_register 7
 1070 0006 7860     		str	r0, [r7, #4]
1085:.\Generated_Source\PSoC4/BLE.c ****     return ((uint16) ptr[0u] | ((uint16) (((uint16) ptr[1u]) << 8u)));
 1071              		.loc 1 1085 0
 1072 0008 7B68     		ldr	r3, [r7, #4]
 1073 000a 1B78     		ldrb	r3, [r3]
 1074 000c 9AB2     		uxth	r2, r3
 1075 000e 7B68     		ldr	r3, [r7, #4]
 1076 0010 0133     		add	r3, r3, #1
 1077 0012 1B78     		ldrb	r3, [r3]
 1078 0014 9BB2     		uxth	r3, r3
 1079 0016 1B02     		lsl	r3, r3, #8
 1080 0018 9BB2     		uxth	r3, r3
 1081 001a 1343     		orr	r3, r2
 1082 001c 9BB2     		uxth	r3, r3
1086:.\Generated_Source\PSoC4/BLE.c **** }
 1083              		.loc 1 1086 0
 1084 001e 181C     		mov	r0, r3
 1085 0020 BD46     		mov	sp, r7
 1086 0022 02B0     		add	sp, sp, #8
 1087              		@ sp needed
 1088 0024 80BD     		pop	{r7, pc}
 1089              		.cfi_endproc
 1090              	.LFE11:
 1091              		.size	CyBle_Get16ByPtr, .-CyBle_Get16ByPtr
 1092 0026 C046     		.section	.text.CyBle_Set16ByPtr,"ax",%progbits
 1093              		.align	2
 1094              		.global	CyBle_Set16ByPtr
 1095              		.code	16
 1096              		.thumb_func
 1097              		.type	CyBle_Set16ByPtr, %function
 1098              	CyBle_Set16ByPtr:
 1099              	.LFB12:
1087:.\Generated_Source\PSoC4/BLE.c **** 
1088:.\Generated_Source\PSoC4/BLE.c **** 
1089:.\Generated_Source\PSoC4/BLE.c **** /******************************************************************************
1090:.\Generated_Source\PSoC4/BLE.c **** ##Function Name: CyBle_Set16ByPtr
1091:.\Generated_Source\PSoC4/BLE.c **** *******************************************************************************
1092:.\Generated_Source\PSoC4/BLE.c **** 
1093:.\Generated_Source\PSoC4/BLE.c **** Summary:
1094:.\Generated_Source\PSoC4/BLE.c ****  Sets the two-bytes value by using a pointer to the LSB.
1095:.\Generated_Source\PSoC4/BLE.c **** 
1096:.\Generated_Source\PSoC4/BLE.c **** Parameters:
1097:.\Generated_Source\PSoC4/BLE.c ****  uint8 * ptr:   Pointer to the LSB of two-bytes data (little endian).
1098:.\Generated_Source\PSoC4/BLE.c ****  uint16 value:  Two-bytes data to be written.
1099:.\Generated_Source\PSoC4/BLE.c **** 
1100:.\Generated_Source\PSoC4/BLE.c **** Return:
1101:.\Generated_Source\PSoC4/BLE.c ****  None
1102:.\Generated_Source\PSoC4/BLE.c **** 
1103:.\Generated_Source\PSoC4/BLE.c **** ******************************************************************************/
1104:.\Generated_Source\PSoC4/BLE.c **** void CyBle_Set16ByPtr(uint8 ptr[], uint16 value)
1105:.\Generated_Source\PSoC4/BLE.c **** {
 1100              		.loc 1 1105 0
 1101              		.cfi_startproc
 1102 0000 80B5     		push	{r7, lr}
 1103              		.cfi_def_cfa_offset 8
 1104              		.cfi_offset 7, -8
ARM GAS  C:\Users\raypa\AppData\Local\Temp\ccMTDWHp.s 			page 40


 1105              		.cfi_offset 14, -4
 1106 0002 82B0     		sub	sp, sp, #8
 1107              		.cfi_def_cfa_offset 16
 1108 0004 00AF     		add	r7, sp, #0
 1109              		.cfi_def_cfa_register 7
 1110 0006 7860     		str	r0, [r7, #4]
 1111 0008 0A1C     		mov	r2, r1
 1112 000a BB1C     		add	r3, r7, #2
 1113 000c 1A80     		strh	r2, [r3]
1106:.\Generated_Source\PSoC4/BLE.c ****     ptr[0u] = (uint8) value;
 1114              		.loc 1 1106 0
 1115 000e BB1C     		add	r3, r7, #2
 1116 0010 1B88     		ldrh	r3, [r3]
 1117 0012 DAB2     		uxtb	r2, r3
 1118 0014 7B68     		ldr	r3, [r7, #4]
 1119 0016 1A70     		strb	r2, [r3]
1107:.\Generated_Source\PSoC4/BLE.c ****     ptr[1u] = (uint8) (value >> 8u);
 1120              		.loc 1 1107 0
 1121 0018 7B68     		ldr	r3, [r7, #4]
 1122 001a 0133     		add	r3, r3, #1
 1123 001c BA1C     		add	r2, r7, #2
 1124 001e 1288     		ldrh	r2, [r2]
 1125 0020 120A     		lsr	r2, r2, #8
 1126 0022 92B2     		uxth	r2, r2
 1127 0024 D2B2     		uxtb	r2, r2
 1128 0026 1A70     		strb	r2, [r3]
1108:.\Generated_Source\PSoC4/BLE.c **** }
 1129              		.loc 1 1108 0
 1130 0028 BD46     		mov	sp, r7
 1131 002a 02B0     		add	sp, sp, #8
 1132              		@ sp needed
 1133 002c 80BD     		pop	{r7, pc}
 1134              		.cfi_endproc
 1135              	.LFE12:
 1136              		.size	CyBle_Set16ByPtr, .-CyBle_Set16ByPtr
 1137 002e C046     		.bss
 1138 0001 00000000 		.align	3
 1138      000000
 1139              	cyBle_stackMemoryRam.5964:
 1140 0008 00000000 		.space	3220
 1140      00000000 
 1140      00000000 
 1140      00000000 
 1140      00000000 
 1141 0c9c 00000000 		.text
 1142              	.Letext0:
 1143              		.file 2 ".\\Generated_Source\\PSoC4\\cytypes.h"
 1144              		.file 3 ".\\Generated_Source\\PSoC4\\BLE_Stack.h"
 1145              		.file 4 ".\\Generated_Source\\PSoC4\\BLE_StackGap.h"
 1146              		.file 5 ".\\Generated_Source\\PSoC4\\BLE_StackGattDb.h"
 1147              		.file 6 ".\\Generated_Source\\PSoC4\\BLE.h"
 1148              		.file 7 ".\\Generated_Source\\PSoC4\\BLE_eventHandler.h"
 1149              		.file 8 ".\\Generated_Source\\PSoC4\\BLE_gatt.h"
