ARM GAS  C:\Users\wbz\AppData\Local\Temp\ccoSGYrc.s 			page 1


   1              		.cpu cortex-m0
   2              		.fpu softvfp
   3              		.eabi_attribute 20, 1
   4              		.eabi_attribute 21, 1
   5              		.eabi_attribute 23, 3
   6              		.eabi_attribute 24, 1
   7              		.eabi_attribute 25, 1
   8              		.eabi_attribute 26, 1
   9              		.eabi_attribute 30, 6
  10              		.eabi_attribute 18, 4
  11              		.code	16
  12              		.file	"main.c"
  13              		.section	.debug_abbrev,"",%progbits
  14              	.Ldebug_abbrev0:
  15              		.section	.debug_info,"",%progbits
  16              	.Ldebug_info0:
  17              		.section	.debug_line,"",%progbits
  18              	.Ldebug_line0:
  19 0000 72000000 		.text
  19      02004500 
  19      00000201 
  19      FB0E0D00 
  19      01010101 
  20              	.Ltext0:
  21              		.cfi_sections	.debug_frame
  22              		.section	.rodata
  23              		.align	2
  24              	.LC0:
  25 0000 20202020 		.ascii	"                \000"
  25      20202020 
  25      20202020 
  25      20202020 
  25      00
  26 0011 000000   		.section	.text.main,"ax",%progbits
  27              		.align	2
  28              		.global	main
  29              		.code	16
  30              		.thumb_func
  31              		.type	main, %function
  32              	main:
  33              	.LFB20:
  34              		.file 1 ".\\main.c"
   1:.\main.c      **** /*******************************************************************************
   2:.\main.c      **** * File Name: main.c
   3:.\main.c      **** *
   4:.\main.c      **** * Version: 1.10
   5:.\main.c      **** *
   6:.\main.c      **** * Description:
   7:.\main.c      **** *  This project demonstrates the UART communication mechanism. 
   8:.\main.c      **** *  Data typed on the HyperTerminal is sent through serial port to the DVK and 
   9:.\main.c      **** *  displayed on the LCD. After that this data is sent back and displayed on the 
  10:.\main.c      **** *  HyperTerminal.
  11:.\main.c      **** *
  12:.\main.c      **** ********************************************************************************
  13:.\main.c      **** * Copyright 2013, Cypress Semiconductor Corporation. All rights reserved.
  14:.\main.c      **** * This software is owned by Cypress Semiconductor Corporation and is protected
  15:.\main.c      **** * by and subject to worldwide patent and copyright laws and treaties.
ARM GAS  C:\Users\wbz\AppData\Local\Temp\ccoSGYrc.s 			page 2


  16:.\main.c      **** * Therefore, you may use this software only as provided in the license agreement
  17:.\main.c      **** * accompanying the software package from which you obtained this software.
  18:.\main.c      **** * CYPRESS AND ITS SUPPLIERS MAKE NO WARRANTY OF ANY KIND, EXPRESS OR IMPLIED,
  19:.\main.c      **** * WITH REGARD TO THIS SOFTWARE, INCLUDING, BUT NOT LIMITED TO, NONINFRINGEMENT,
  20:.\main.c      **** * IMPLIED WARRANTIES OF MERCHANTABILITY AND FITNESS FOR A PARTICULAR PURPOSE.
  21:.\main.c      **** *******************************************************************************/
  22:.\main.c      **** 
  23:.\main.c      **** #include <device.h>
  24:.\main.c      **** 
  25:.\main.c      **** #define LCD_NUM_COLUMNS (16u)
  26:.\main.c      **** 
  27:.\main.c      **** void main()
  28:.\main.c      **** {   
  35              		.loc 1 28 0
  36              		.cfi_startproc
  37 0000 80B5     		push	{r7, lr}
  38              	.LCFI0:
  39              		.cfi_def_cfa_offset 8
  40              		.cfi_offset 7, -8
  41              		.cfi_offset 14, -4
  42 0002 82B0     		sub	sp, sp, #8
  43              	.LCFI1:
  44              		.cfi_def_cfa_offset 16
  45 0004 00AF     		add	r7, sp, #0
  46              	.LCFI2:
  47              		.cfi_def_cfa_register 7
  29:.\main.c      ****     uint8 ch;
  30:.\main.c      ****     uint8 count;
  31:.\main.c      ****     uint8 pos;
  32:.\main.c      **** 
  33:.\main.c      ****     /* Initialize variables */
  34:.\main.c      ****     count = 0u; /* Number of send characters   */
  48              		.loc 1 34 0
  49 0006 BB1D     		add	r3, r7, #6
  50 0008 0022     		mov	r2, #0
  51 000a 1A70     		strb	r2, [r3]
  35:.\main.c      ****     pos   = 0u; /* LCD position to output into */
  52              		.loc 1 35 0
  53 000c FB1D     		add	r3, r7, #7
  54 000e 0022     		mov	r2, #0
  55 0010 1A70     		strb	r2, [r3]
  36:.\main.c      ****             
  37:.\main.c      ****     UART_Start(); /* Start SCB UART TX+RX operation */
  56              		.loc 1 37 0
  57 0012 FFF7FEFF 		bl	UART_Start
  38:.\main.c      ****     
  39:.\main.c      ****     /* Start LCD operation and output information */
  40:.\main.c      ****     LCD_Start(); 
  58              		.loc 1 40 0
  59 0016 FFF7FEFF 		bl	LCD_Start
  41:.\main.c      ****     LCD_ClearDisplay();
  60              		.loc 1 41 0
  61 001a 0120     		mov	r0, #1
  62 001c FFF7FEFF 		bl	LCD_WriteControl
  63 0020 00E0     		b	.L4
  64              	.L6:
  42:.\main.c      **** 
ARM GAS  C:\Users\wbz\AppData\Local\Temp\ccoSGYrc.s 			page 3


  43:.\main.c      ****     for(;;)
  44:.\main.c      ****     {
  45:.\main.c      ****         /* Get received character or zero if nothing has been received yet */
  46:.\main.c      ****         ch = UART_UartGetChar(); 
  47:.\main.c      **** 
  48:.\main.c      ****         if(0u != ch)
  49:.\main.c      ****         {
  50:.\main.c      ****             count++; /* Increment number of characters that were sent */
  51:.\main.c      ****             
  52:.\main.c      ****             if(0u == (count % LCD_NUM_COLUMNS))
  53:.\main.c      ****             {
  54:.\main.c      ****                 /* Reach end of LCD. Clear it and start ouput from begin */
  55:.\main.c      ****                 pos = 0u;
  56:.\main.c      ****                 LCD_Position(0u, 0u);
  57:.\main.c      ****                 LCD_PrintString("                ");
  58:.\main.c      ****             }
  59:.\main.c      **** 
  60:.\main.c      ****             /* Output sent character on LCD */
  61:.\main.c      ****             LCD_Position(0u, pos);
  62:.\main.c      ****             LCD_PutChar(ch);
  63:.\main.c      ****             pos++; /* Output sent character in the next LCD position */
  64:.\main.c      ****                     
  65:.\main.c      ****             /* Output number of send characters */
  66:.\main.c      ****             LCD_Position(1u, 0u);
  67:.\main.c      ****             LCD_PrintNumber(count);
  68:.\main.c      ****                         
  69:.\main.c      ****             /* 
  70:.\main.c      ****             * Send the data through UART. This functions is blocking and waits until
  71:.\main.c      ****             * there is an entry into the TX FIFO.
  72:.\main.c      ****             */
  73:.\main.c      ****             UART_UartPutChar(ch);
  74:.\main.c      ****         }
  75:.\main.c      ****     }
  65              		.loc 1 75 0
  66 0022 C046     		mov	r8, r8
  67              	.L4:
  68              		.loc 1 46 0
  69 0024 FFF7FEFF 		bl	UART_UartGetChar
  70 0028 021C     		mov	r2, r0
  71 002a 7B1D     		add	r3, r7, #5
  72 002c 1A70     		strb	r2, [r3]
  73              		.loc 1 48 0
  74 002e 7B1D     		add	r3, r7, #5
  75 0030 1B78     		ldrb	r3, [r3]
  76 0032 002B     		cmp	r3, #0
  77 0034 F5D0     		beq	.L6
  78              		.loc 1 50 0
  79 0036 BB1D     		add	r3, r7, #6
  80 0038 BA1D     		add	r2, r7, #6
  81 003a 1278     		ldrb	r2, [r2]
  82 003c 0132     		add	r2, r2, #1
  83 003e 1A70     		strb	r2, [r3]
  84              		.loc 1 52 0
  85 0040 BB1D     		add	r3, r7, #6
  86 0042 1A78     		ldrb	r2, [r3]
  87 0044 0F23     		mov	r3, #15
  88 0046 1340     		and	r3, r3, r2
ARM GAS  C:\Users\wbz\AppData\Local\Temp\ccoSGYrc.s 			page 4


  89 0048 002B     		cmp	r3, #0
  90 004a 0AD1     		bne	.L3
  91              		.loc 1 55 0
  92 004c FB1D     		add	r3, r7, #7
  93 004e 0022     		mov	r2, #0
  94 0050 1A70     		strb	r2, [r3]
  95              		.loc 1 56 0
  96 0052 0020     		mov	r0, #0
  97 0054 0021     		mov	r1, #0
  98 0056 FFF7FEFF 		bl	LCD_Position
  99              		.loc 1 57 0
 100 005a 114B     		ldr	r3, .L7
 101 005c 181C     		mov	r0, r3
 102 005e FFF7FEFF 		bl	LCD_PrintString
 103              	.L3:
 104              		.loc 1 61 0
 105 0062 FB1D     		add	r3, r7, #7
 106 0064 1B78     		ldrb	r3, [r3]
 107 0066 0020     		mov	r0, #0
 108 0068 191C     		mov	r1, r3
 109 006a FFF7FEFF 		bl	LCD_Position
 110              		.loc 1 62 0
 111 006e 7B1D     		add	r3, r7, #5
 112 0070 1B78     		ldrb	r3, [r3]
 113 0072 181C     		mov	r0, r3
 114 0074 FFF7FEFF 		bl	LCD_PutChar
 115              		.loc 1 63 0
 116 0078 FB1D     		add	r3, r7, #7
 117 007a FA1D     		add	r2, r7, #7
 118 007c 1278     		ldrb	r2, [r2]
 119 007e 0132     		add	r2, r2, #1
 120 0080 1A70     		strb	r2, [r3]
 121              		.loc 1 66 0
 122 0082 0120     		mov	r0, #1
 123 0084 0021     		mov	r1, #0
 124 0086 FFF7FEFF 		bl	LCD_Position
 125              		.loc 1 67 0
 126 008a BB1D     		add	r3, r7, #6
 127 008c 1B78     		ldrb	r3, [r3]
 128 008e 181C     		mov	r0, r3
 129 0090 FFF7FEFF 		bl	LCD_PrintNumber
 130              		.loc 1 73 0
 131 0094 7B1D     		add	r3, r7, #5
 132 0096 1B78     		ldrb	r3, [r3]
 133 0098 181C     		mov	r0, r3
 134 009a FFF7FEFF 		bl	UART_SpiUartWriteTxData
 135              		.loc 1 75 0
 136 009e C1E7     		b	.L4
 137              	.L8:
 138              		.align	2
 139              	.L7:
 140 00a0 00000000 		.word	.LC0
 141              		.cfi_endproc
 142              	.LFE20:
 143              		.size	main, .-main
 144              		.text
 145              	.Letext0:
ARM GAS  C:\Users\wbz\AppData\Local\Temp\ccoSGYrc.s 			page 5


